{
	"data": {
		"bytecode": {
			"linkReferences": {},
			"object": "6101606040525f6018555f60195534801562000019575f80fd5b5060405180602001604052805f815250806040518060400160405280600181526020017f310000000000000000000000000000000000000000000000000000000000000081525060405180602001604052805f81525060405180602001604052805f81525081600390816200008f9190620004eb565b508060049081620000a19190620004eb565b505050620000ba6005836200016360201b90919060201c565b6101208181525050620000d86006826200016360201b90919060201c565b6101408181525050818051906020012060e08181525050808051906020012061010081815250504660a0818152505062000117620001b860201b60201c565b608081815250503073ffffffffffffffffffffffffffffffffffffffff1660c08173ffffffffffffffffffffffffffffffffffffffff16815250505050506001600881905550620007e2565b5f602083511015620001885762000180836200021460201b60201c565b9050620001b2565b826200019a836200027e60201b60201c565b5f019081620001aa9190620004eb565b5060ff5f1b90505b92915050565b5f7f8b73c3c69bb8fe3d512ecc4cf759cc79239f7b179b0ffacaa9a75d522b39400f60e051610100514630604051602001620001f99594939291906200063d565b60405160208183030381529060405280519060200120905090565b5f80829050601f815111156200026357826040517f305a27a90000000000000000000000000000000000000000000000000000000081526004016200025a919062000722565b60405180910390fd5b805181620002719062000773565b5f1c175f1b915050919050565b5f819050919050565b5f81519050919050565b7f4e487b71000000000000000000000000000000000000000000000000000000005f52604160045260245ffd5b7f4e487b71000000000000000000000000000000000000000000000000000000005f52602260045260245ffd5b5f60028204905060018216806200030357607f821691505b602082108103620003195762000318620002be565b5b50919050565b5f819050815f5260205f209050919050565b5f6020601f8301049050919050565b5f82821b905092915050565b5f600883026200037d7fffffffffffffffffffffffffffffffffffffffffffffffffffffffffffffffff8262000340565b62000389868362000340565b95508019841693508086168417925050509392505050565b5f819050919050565b5f819050919050565b5f620003d3620003cd620003c784620003a1565b620003aa565b620003a1565b9050919050565b5f819050919050565b620003ee83620003b3565b62000406620003fd82620003da565b8484546200034c565b825550505050565b5f90565b6200041c6200040e565b62000429818484620003e3565b505050565b5b818110156200045057620004445f8262000412565b6001810190506200042f565b5050565b601f8211156200049f5762000469816200031f565b620004748462000331565b8101602085101562000484578190505b6200049c620004938562000331565b8301826200042e565b50505b505050565b5f82821c905092915050565b5f620004c15f1984600802620004a4565b1980831691505092915050565b5f620004db8383620004b0565b9150826002028217905092915050565b620004f68262000287565b67ffffffffffffffff81111562000512576200051162000291565b5b6200051e8254620002eb565b6200052b82828562000454565b5f60209050601f83116001811462000561575f84156200054c578287015190505b620005588582620004ce565b865550620005c7565b601f19841662000571866200031f565b5f5b828110156200059a5784890151825560018201915060208501945060208101905062000573565b86831015620005ba5784890151620005b6601f891682620004b0565b8355505b6001600288020188555050505b505050505050565b5f819050919050565b620005e381620005cf565b82525050565b620005f481620003a1565b82525050565b5f73ffffffffffffffffffffffffffffffffffffffff82169050919050565b5f6200062582620005fa565b9050919050565b620006378162000619565b82525050565b5f60a082019050620006525f830188620005d8565b620006616020830187620005d8565b620006706040830186620005d8565b6200067f6060830185620005e9565b6200068e60808301846200062c565b9695505050505050565b5f82825260208201905092915050565b5f5b83811015620006c7578082015181840152602081019050620006aa565b5f8484015250505050565b5f601f19601f8301169050919050565b5f620006ee8262000287565b620006fa818562000698565b93506200070c818560208601620006a8565b6200071781620006d2565b840191505092915050565b5f6020820190508181035f8301526200073c8184620006e2565b905092915050565b5f81519050919050565b5f819050602082019050919050565b5f6200076a8251620005cf565b80915050919050565b5f6200077f8262000744565b826200078b846200074e565b905062000798816200075d565b92506020821015620007db57620007d67fffffffffffffffffffffffffffffffffffffffffffffffffffffffffffffffff8360200360080262000340565b831692505b5050919050565b60805160a05160c05160e051610100516101205161014051617a88620008345f395f61429c01525f61425f01525f614d8f01525f614d6e01525f613fa501525f613ffc01525f6140260152617a885ff3fe608060405234801562000010575f80fd5b506004361062000338575f3560e01c806389afcb4411620001c3578063c45a015511620000fd578063dd62ed3e11620000af578063ebeb31db1162000085578063ebeb31db1462000ac3578063ee39e7a01462000ae5578063f140a35a1462000b07578063fff6cae91462000b3d5762000338565b8063dd62ed3e1462000a4b578063e4463eb21462000a81578063e4bbb5a81462000aa35762000338565b8063c45a01551462000982578063c47f002714620009a4578063c5700a0214620009c4578063d21220a714620009e6578063d294f0931462000a08578063d505accf1462000a2b5762000338565b8063a1ac4d131162000175578063bc25cf77116200014b578063bc25cf7714620008fc578063bda39cad146200091c578063bf944dbc146200093e578063c245febc14620009605762000338565b8063a1ac4d131462000870578063a9059cbb14620008a6578063b84c824614620008dc5762000338565b806389afcb4414620007665780638a7b8cf2146200079d57806395d89b4114620007bf5780639d63848a14620007e15780639e8cc04b14620008045780639f767c88146200083a5762000338565b8063313ce56711620002955780634d5a9f8a11620002475780636a627842116200021d5780636a627842146200069c57806370a0823114620006d25780637ecebe00146200070857806384b0196e146200073e5762000338565b80634d5a9f8a146200060e5780635881c47514620006445780635a76f25e146200067a5762000338565b8063313ce567146200053c57806332c0defd146200055e5780633358095914620005805780633644e51514620005a2578063392f37e914620005c4578063443cb4bc14620005ec5762000338565b806318160ddd11620002ef57806318160ddd14620004305780631df8c7171462000452578063205aabf1146200047657806322be3de114620004ac57806323b872dd14620004ce578063252c09d714620005045762000338565b8063022c0d9f146200033c57806306fdde03146200035c5780630902f1ac146200037e578063095ea7b314620003a25780630dfe168114620003d857806313345fe114620003fa575b5f80fd5b6200035a600480360381019062000354919062005742565b62000b49565b005b6200036662001448565b60405162000375919062005868565b60405180910390f35b62000388620014e0565b60405162000399939291906200589b565b60405180910390f35b620003c06004803603810190620003ba9190620058d6565b620014f7565b604051620003cf919062005937565b60405180910390f35b620003e26200151d565b604051620003f1919062005963565b60405180910390f35b6200041860048036038101906200041291906200597e565b62001542565b60405162000427919062005ab4565b60405180910390f35b6200043a62001773565b60405162000449919062005ad6565b60405180910390f35b6200045c6200177c565b6040516200046d939291906200589b565b60405180910390f35b6200049460048036038101906200048e919062005af1565b620017fc565b604051620004a3919062005ad6565b60405180910390f35b620004b662001811565b604051620004c5919062005937565b60405180910390f35b620004ec6004803603810190620004e6919062005b21565b62001824565b604051620004fb919062005937565b60405180910390f35b6200052260048036038101906200051c919062005b7a565b62001858565b60405162000533939291906200589b565b60405180910390f35b620005466200188e565b60405162000555919062005bc7565b60405180910390f35b6200056862001896565b60405162000577919062005ad6565b60405180910390f35b6200058a6200189c565b60405162000599919062005963565b60405180910390f35b620005ac620018c1565b604051620005bb919062005bfc565b60405180910390f35b620005ce620018d1565b604051620005e3979695949392919062005c17565b60405180910390f35b620005f66200194f565b60405162000605919062005ad6565b60405180910390f35b6200062c600480360381019062000626919062005af1565b62001955565b6040516200063b919062005ad6565b60405180910390f35b6200066260048036038101906200065c919062005c92565b6200196a565b60405162000671919062005ab4565b60405180910390f35b6200068462001984565b60405162000693919062005ad6565b60405180910390f35b620006ba6004803603810190620006b4919062005af1565b6200198a565b604051620006c9919062005ad6565b60405180910390f35b620006f06004803603810190620006ea919062005af1565b62001d43565b604051620006ff919062005ad6565b60405180910390f35b62000726600480360381019062000720919062005af1565b62001d88565b60405162000735919062005ad6565b60405180910390f35b6200074862001d9b565b6040516200075d979695949392919062005d27565b60405180910390f35b6200078460048036038101906200077e919062005af1565b62001e48565b6040516200079492919062005db7565b60405180910390f35b620007a762002240565b604051620007b6919062005e28565b60405180910390f35b620007c9620022ad565b604051620007d8919062005868565b60405180910390f35b620007eb62002345565b604051620007fb92919062005e43565b60405180910390f35b6200082260048036038101906200081c919062005c92565b62002393565b60405162000831919062005ad6565b60405180910390f35b62000858600480360381019062000852919062005af1565b62002415565b60405162000867919062005ad6565b60405180910390f35b6200088e600480360381019062000888919062005af1565b6200242a565b6040516200089d919062005ad6565b60405180910390f35b620008c46004803603810190620008be9190620058d6565b6200243f565b604051620008d3919062005937565b60405180910390f35b620008fa6004803603810190620008f4919062005ecc565b62002465565b005b6200091a600480360381019062000914919062005af1565b62002573565b005b6200092662002746565b60405162000935919062005ad6565b60405180910390f35b620009486200274c565b60405162000957919062005ad6565b60405180910390f35b6200096a62002752565b60405162000979919062005ad6565b60405180910390f35b6200098c62002758565b6040516200099b919062005963565b60405180910390f35b620009c26004803603810190620009bc919062005ecc565b6200277d565b005b620009ce6200288b565b604051620009dd919062005ad6565b60405180910390f35b620009f062002891565b604051620009ff919062005963565b60405180910390f35b62000a12620028b6565b60405162000a2292919062005db7565b60405180910390f35b62000a49600480360381019062000a43919062005f7d565b62002ae6565b005b62000a69600480360381019062000a6391906200602b565b62002c3b565b60405162000a78919062005ad6565b60405180910390f35b62000a8b62002cbd565b60405162000a9a919062005ad6565b60405180910390f35b62000ac1600480360381019062000abb91906200609f565b62002cc3565b005b62000acd620032be565b60405162000adc919062005ad6565b60405180910390f35b62000aef620032ca565b60405162000afe919062005ad6565b60405180910390f35b62000b25600480360381019062000b1f9190620060f8565b620032f4565b60405162000b34919062005ad6565b60405180910390f35b62000b47620033f3565b005b62000b5362003555565b600f5f9054906101000a900473ffffffffffffffffffffffffffffffffffffffff1673ffffffffffffffffffffffffffffffffffffffff1663b187bd266040518163ffffffff1660e01b8152600401602060405180830381865afa15801562000bbe573d5f803e3d5ffd5b505050506040513d601f19601f8201168201806040525081019062000be4919062006153565b1562000c1c576040517f1309a56300000000000000000000000000000000000000000000000000000000815260040160405180910390fd5b5f8514801562000c2b57505f84145b1562000c63576040517f42301c2300000000000000000000000000000000000000000000000000000000815260040160405180910390fd5b5f8060135460145491509150818710158062000c7f5750808610155b1562000cb7576040517fbb55fd2700000000000000000000000000000000000000000000000000000000815260040160405180910390fd5b5f805f80600c5f9054906101000a900473ffffffffffffffffffffffffffffffffffffffff16600d5f9054906101000a900473ffffffffffffffffffffffffffffffffffffffff16915091508173ffffffffffffffffffffffffffffffffffffffff168973ffffffffffffffffffffffffffffffffffffffff16148062000d6957508073ffffffffffffffffffffffffffffffffffffffff168973ffffffffffffffffffffffffffffffffffffffff16145b1562000da1576040517f290fa18800000000000000000000000000000000000000000000000000000000815260040160405180910390fd5b5f8b111562000dd85762000dd7898c8473ffffffffffffffffffffffffffffffffffffffff166200359c9092919063ffffffff16565b5b5f8a111562000e0f5762000e0e898b8373ffffffffffffffffffffffffffffffffffffffff166200359c9092919063ffffffff16565b5b5f88889050111562000e97578873ffffffffffffffffffffffffffffffffffffffff16639a7bff7962000e416200361f565b8d8d8c8c6040518663ffffffff1660e01b815260040162000e67959493929190620061d3565b5f604051808303815f87803b15801562000e7f575f80fd5b505af115801562000e92573d5f803e3d5ffd5b505050505b8173ffffffffffffffffffffffffffffffffffffffff166370a08231306040518263ffffffff1660e01b815260040162000ed2919062005963565b602060405180830381865afa15801562000eee573d5f803e3d5ffd5b505050506040513d601f19601f8201168201806040525081019062000f1491906200623d565b93508073ffffffffffffffffffffffffffffffffffffffff166370a08231306040518263ffffffff1660e01b815260040162000f51919062005963565b602060405180830381865afa15801562000f6d573d5f803e3d5ffd5b505050506040513d601f19601f8201168201806040525081019062000f9391906200623d565b925050505f898562000fa691906200629a565b831162000fb4575f62000fd0565b898562000fc291906200629a565b8362000fcf91906200629a565b5b90505f898562000fe191906200629a565b831162000fef575f6200100b565b898562000ffd91906200629a565b836200100a91906200629a565b5b90505f821480156200101c57505f81145b1562001054576040517f098fb56100000000000000000000000000000000000000000000000000000000815260040160405180910390fd5b5f80600c5f9054906101000a900473ffffffffffffffffffffffffffffffffffffffff16600d5f9054906101000a900473ffffffffffffffffffffffffffffffffffffffff16915091505f8411156200117d576200117c612710600f5f9054906101000a900473ffffffffffffffffffffffffffffffffffffffff1673ffffffffffffffffffffffffffffffffffffffff1663cc56b2c530600b60149054906101000a900460ff166040518363ffffffff1660e01b81526004016200111b929190620062d4565b602060405180830381865afa15801562001137573d5f803e3d5ffd5b505050506040513d601f19601f820116820180604052508101906200115d91906200623d565b866200116a9190620062ff565b62001176919062006376565b62003626565b5b5f8311156200125c576200125b612710600f5f9054906101000a900473ffffffffffffffffffffffffffffffffffffffff1673ffffffffffffffffffffffffffffffffffffffff1663cc56b2c530600b60149054906101000a900460ff166040518363ffffffff1660e01b8152600401620011fa929190620062d4565b602060405180830381865afa15801562001216573d5f803e3d5ffd5b505050506040513d601f19601f820116820180604052508101906200123c91906200623d565b85620012499190620062ff565b62001255919062006376565b62003751565b5b8173ffffffffffffffffffffffffffffffffffffffff166370a08231306040518263ffffffff1660e01b815260040162001297919062005963565b602060405180830381865afa158015620012b3573d5f803e3d5ffd5b505050506040513d601f19601f82011682018060405250810190620012d991906200623d565b95508073ffffffffffffffffffffffffffffffffffffffff166370a08231306040518263ffffffff1660e01b815260040162001316919062005963565b602060405180830381865afa15801562001332573d5f803e3d5ffd5b505050506040513d601f19601f820116820180604052508101906200135891906200623d565b94506200136688886200387c565b6200137287876200387c565b1015620013ab576040517fa932492f00000000000000000000000000000000000000000000000000000000815260040160405180910390fd5b5050620013bb84848888620039a4565b8873ffffffffffffffffffffffffffffffffffffffff16620013dc6200361f565b73ffffffffffffffffffffffffffffffffffffffff167fb3e2773606abfd36b5bd91394b3a54d1398336c65005baf7bf7a05efeffaf75b84848f8f604051620014299493929190620063ad565b60405180910390a35050505050506200144162003b1b565b5050505050565b606060098054620014599062006425565b80601f0160208091040260200160405190810160405280929190818152602001828054620014879062006425565b8015620014d65780601f10620014ac57610100808354040283529160200191620014d6565b820191905f5260205f20905b815481529060010190602001808311620014b857829003601f168201915b5050505050905090565b5f805f601354925060145491506015549050909192565b5f80620015036200361f565b90506200151281858562003b25565b600191505092915050565b600c5f9054906101000a900473ffffffffffffffffffffffffffffffffffffffff1681565b60605f8367ffffffffffffffff81111562001562576200156162006459565b5b604051908082528060200260200182016040528015620015915781602001602082028036833780820191505090505b5090505f6001601080549050620015a991906200629a565b90505f8486620015ba9190620062ff565b82620015c791906200629a565b90505f805b8383101562001763578683620015e3919062006486565b91505f60108481548110620015fd57620015fc620064c0565b5b905f5260205f2090600302015f015460108481548110620016235762001622620064c0565b5b905f5260205f2090600302015f01546200163e91906200629a565b90505f8160108681548110620016595762001658620064c0565b5b905f5260205f209060030201600101546010868154811062001680576200167f620064c0565b5b905f5260205f209060030201600101546200169c91906200629a565b620016a8919062006376565b90505f8260108781548110620016c357620016c2620064c0565b5b905f5260205f2090600302016002015460108781548110620016ea57620016e9620064c0565b5b905f5260205f209060030201600201546200170691906200629a565b62001712919062006376565b9050620017228c8e848462003b39565b888581518110620017385762001737620064c0565b5b60200260200101818152505060018401935050505086836200175b919062006486565b9250620015cc565b8495505050505050949350505050565b5f600254905090565b5f805f429050601654925060175491505f805f62001799620014e0565b925092509250838114620017f4575f8185620017b691906200629a565b90508084620017c69190620062ff565b87620017d3919062006486565b96508083620017e39190620062ff565b86620017f0919062006486565b9550505b505050909192565b601b602052805f5260405f205f915090505481565b600b60149054906101000a900460ff1681565b5f80620018306200361f565b90506200183f85828562003e10565b6200184c85858562003eaa565b60019150509392505050565b6010818154811062001868575f80fd5b905f5260205f2090600302015f91509050805f0154908060010154908060020154905083565b5f6012905090565b60185481565b600e5f9054906101000a900473ffffffffffffffffffffffffffffffffffffffff1681565b5f620018cc62003fa2565b905090565b5f805f805f805f601154601254601354601454600b60149054906101000a900460ff16600c5f9054906101000a900473ffffffffffffffffffffffffffffffffffffffff16600d5f9054906101000a900473ffffffffffffffffffffffffffffffffffffffff16965096509650965096509650965090919293949596565b60135481565b601c602052805f5260405f205f915090505481565b60606200197b848484600162001542565b90509392505050565b60145481565b5f6200199562003555565b5f80601354601454915091505f600c5f9054906101000a900473ffffffffffffffffffffffffffffffffffffffff1673ffffffffffffffffffffffffffffffffffffffff166370a08231306040518263ffffffff1660e01b8152600401620019fe919062005963565b602060405180830381865afa15801562001a1a573d5f803e3d5ffd5b505050506040513d601f19601f8201168201806040525081019062001a4091906200623d565b90505f600d5f9054906101000a900473ffffffffffffffffffffffffffffffffffffffff1673ffffffffffffffffffffffffffffffffffffffff166370a08231306040518263ffffffff1660e01b815260040162001a9f919062005963565b602060405180830381865afa15801562001abb573d5f803e3d5ffd5b505050506040513d601f19601f8201168201806040525081019062001ae191906200623d565b90505f848362001af291906200629a565b90505f848362001b0391906200629a565b90505f62001b1062001773565b90505f810362001c3b576103e862001b35838562001b2f9190620062ff565b6200405d565b62001b4191906200629a565b975062001b5260016103e862004171565b600b60149054906101000a900460ff161562001c3557601254670de0b6b3a76400008362001b819190620062ff565b62001b8d919062006376565b601154670de0b6b3a76400008562001ba69190620062ff565b62001bb2919062006376565b1462001bea576040517f0a04d7fa00000000000000000000000000000000000000000000000000000000815260040160405180910390fd5b6402540be40062001bfc84846200387c565b1162001c34576040517f438d3ade00000000000000000000000000000000000000000000000000000000815260040160405180910390fd5b5b62001c7e565b62001c7b87828562001c4e9190620062ff565b62001c5a919062006376565b87838562001c699190620062ff565b62001c75919062006376565b620041f5565b97505b5f880362001cb8576040517fd226f9d400000000000000000000000000000000000000000000000000000000815260040160405180910390fd5b62001cc4898962004171565b62001cd285858989620039a4565b62001cdc6200361f565b73ffffffffffffffffffffffffffffffffffffffff167f4c209b5fc8ad50758f13e2e1088ba56a560dff690a1c6fef26394f4c03821c4f848460405162001d2592919062005db7565b60405180910390a25050505050505062001d3e62003b1b565b919050565b5f805f8373ffffffffffffffffffffffffffffffffffffffff1673ffffffffffffffffffffffffffffffffffffffff1681526020019081526020015f20549050919050565b5f62001d94826200420f565b9050919050565b5f6060805f805f606062001dae62004255565b62001db862004292565b46305f801b5f67ffffffffffffffff81111562001dda5762001dd962006459565b5b60405190808252806020026020018201604052801562001e095781602001602082028036833780820191505090505b507f0f00000000000000000000000000000000000000000000000000000000000000959493929190965096509650965096509650965090919293949596565b5f8062001e5462003555565b5f80601354601454915091505f80600c5f9054906101000a900473ffffffffffffffffffffffffffffffffffffffff16600d5f9054906101000a900473ffffffffffffffffffffffffffffffffffffffff16915091505f8273ffffffffffffffffffffffffffffffffffffffff166370a08231306040518263ffffffff1660e01b815260040162001ee6919062005963565b602060405180830381865afa15801562001f02573d5f803e3d5ffd5b505050506040513d601f19601f8201168201806040525081019062001f2891906200623d565b90505f8273ffffffffffffffffffffffffffffffffffffffff166370a08231306040518263ffffffff1660e01b815260040162001f66919062005963565b602060405180830381865afa15801562001f82573d5f803e3d5ffd5b505050506040513d601f19601f8201168201806040525081019062001fa891906200623d565b90505f62001fb63062001d43565b90505f62001fc362001773565b905080848362001fd49190620062ff565b62001fe0919062006376565b995080838362001ff19190620062ff565b62001ffd919062006376565b98505f8a14806200200d57505f89145b1562002045576040517f749383ad00000000000000000000000000000000000000000000000000000000815260040160405180910390fd5b620020513083620042cf565b6200207e8b8b8873ffffffffffffffffffffffffffffffffffffffff166200359c9092919063ffffffff16565b620020ab8b8a8773ffffffffffffffffffffffffffffffffffffffff166200359c9092919063ffffffff16565b8573ffffffffffffffffffffffffffffffffffffffff166370a08231306040518263ffffffff1660e01b8152600401620020e6919062005963565b602060405180830381865afa15801562002102573d5f803e3d5ffd5b505050506040513d601f19601f820116820180604052508101906200212891906200623d565b93508473ffffffffffffffffffffffffffffffffffffffff166370a08231306040518263ffffffff1660e01b815260040162002165919062005963565b602060405180830381865afa15801562002181573d5f803e3d5ffd5b505050506040513d601f19601f82011682018060405250810190620021a791906200623d565b9250620021b784848a8a620039a4565b8a73ffffffffffffffffffffffffffffffffffffffff16620021d86200361f565b73ffffffffffffffffffffffffffffffffffffffff167f5d624aa9c148153ab3446c1b154f660ee7701e549fe9b62dab7171b1c80e6fa28c8c6040516200222192919062005db7565b60405180910390a350505050505050506200223b62003b1b565b915091565b6200224a62005602565b601060016010805490506200226091906200629a565b81548110620022745762002273620064c0565b5b905f5260205f2090600302016040518060600160405290815f820154815260200160018201548152602001600282015481525050905090565b6060600a8054620022be9062006425565b80601f0160208091040260200160405190810160405280929190818152602001828054620022ec9062006425565b80156200233b5780601f1062002311576101008083540402835291602001916200233b565b820191905f5260205f20905b8154815290600101906020018083116200231d57829003601f168201915b5050505050905090565b5f80600c5f9054906101000a900473ffffffffffffffffffffffffffffffffffffffff16600d5f9054906101000a900473ffffffffffffffffffffffffffffffffffffffff16915091509091565b5f80620023a4858585600162001542565b90505f80825190505f5b81811015620023fa57838181518110620023cd57620023cc620064c0565b5b602002602001015183620023e2919062006486565b92508080620023f190620064ed565b915050620023ae565b50848262002409919062006376565b93505050509392505050565b601a602052805f5260405f205f915090505481565b601d602052805f5260405f205f915090505481565b5f806200244b6200361f565b90506200245a81858562003eaa565b600191505092915050565b600b5f9054906101000a900473ffffffffffffffffffffffffffffffffffffffff1673ffffffffffffffffffffffffffffffffffffffff16637778960e6040518163ffffffff1660e01b8152600401602060405180830381865afa158015620024d0573d5f803e3d5ffd5b505050506040513d601f19601f82011682018060405250810190620024f691906200654f565b73ffffffffffffffffffffffffffffffffffffffff163373ffffffffffffffffffffffffffffffffffffffff16146200255b576040517fc560129300000000000000000000000000000000000000000000000000000000815260040160405180910390fd5b8181600a91826200256e9291906200674c565b505050565b6200257d62003555565b5f80600c5f9054906101000a900473ffffffffffffffffffffffffffffffffffffffff16600d5f9054906101000a900473ffffffffffffffffffffffffffffffffffffffff16915091506200267f836013548473ffffffffffffffffffffffffffffffffffffffff166370a08231306040518263ffffffff1660e01b81526004016200260a919062005963565b602060405180830381865afa15801562002626573d5f803e3d5ffd5b505050506040513d601f19601f820116820180604052508101906200264c91906200623d565b6200265891906200629a565b8473ffffffffffffffffffffffffffffffffffffffff166200359c9092919063ffffffff16565b62002737836014548373ffffffffffffffffffffffffffffffffffffffff166370a08231306040518263ffffffff1660e01b8152600401620026c2919062005963565b602060405180830381865afa158015620026de573d5f803e3d5ffd5b505050506040513d601f19601f820116820180604052508101906200270491906200623d565b6200271091906200629a565b8373ffffffffffffffffffffffffffffffffffffffff166200359c9092919063ffffffff16565b50506200274362003b1b565b50565b60195481565b60165481565b60175481565b600f5f9054906101000a900473ffffffffffffffffffffffffffffffffffffffff1681565b600b5f9054906101000a900473ffffffffffffffffffffffffffffffffffffffff1673ffffffffffffffffffffffffffffffffffffffff16637778960e6040518163ffffffff1660e01b8152600401602060405180830381865afa158015620027e8573d5f803e3d5ffd5b505050506040513d601f19601f820116820180604052508101906200280e91906200654f565b73ffffffffffffffffffffffffffffffffffffffff163373ffffffffffffffffffffffffffffffffffffffff161462002873576040517fc560129300000000000000000000000000000000000000000000000000000000815260040160405180910390fd5b818160099182620028869291906200674c565b505050565b60155481565b600d5f9054906101000a900473ffffffffffffffffffffffffffffffffffffffff1681565b5f805f620028c36200361f565b9050620028d08162004353565b601c5f8273ffffffffffffffffffffffffffffffffffffffff1673ffffffffffffffffffffffffffffffffffffffff1681526020019081526020015f20549250601d5f8273ffffffffffffffffffffffffffffffffffffffff1673ffffffffffffffffffffffffffffffffffffffff1681526020019081526020015f205491505f8311806200295e57505f82115b1562002ae1575f601c5f8373ffffffffffffffffffffffffffffffffffffffff1673ffffffffffffffffffffffffffffffffffffffff1681526020019081526020015f20819055505f601d5f8373ffffffffffffffffffffffffffffffffffffffff1673ffffffffffffffffffffffffffffffffffffffff1681526020019081526020015f2081905550600e5f9054906101000a900473ffffffffffffffffffffffffffffffffffffffff1673ffffffffffffffffffffffffffffffffffffffff1663533cf5ce8285856040518463ffffffff1660e01b815260040162002a48939291906200682e565b5f604051808303815f87803b15801562002a60575f80fd5b505af115801562002a73573d5f803e3d5ffd5b505050508073ffffffffffffffffffffffffffffffffffffffff168173ffffffffffffffffffffffffffffffffffffffff167f865ca08d59f5cb456e85cd2f7ef63664ea4f73327414e9d8152c4158b0e94645858560405162002ad892919062005db7565b60405180910390a35b509091565b8342111562002b2e57836040517f6279130200000000000000000000000000000000000000000000000000000000815260040162002b25919062005ad6565b60405180910390fd5b5f7f6e71edae12b1b97f4d1f60370fef10105fa2faae0126114a169c64845d6126c988888862002b5e8c62004643565b8960405160200162002b769695949392919062006869565b6040516020818303038152906040528051906020012090505f62002b9a8262004696565b90505f62002bab82878787620046b3565b90508973ffffffffffffffffffffffffffffffffffffffff168173ffffffffffffffffffffffffffffffffffffffff161462002c2257808a6040517f4b800e4600000000000000000000000000000000000000000000000000000000815260040162002c1992919062005e43565b60405180910390fd5b62002c2f8a8a8a62003b25565b50505050505050505050565b5f60015f8473ffffffffffffffffffffffffffffffffffffffff1673ffffffffffffffffffffffffffffffffffffffff1681526020019081526020015f205f8373ffffffffffffffffffffffffffffffffffffffff1673ffffffffffffffffffffffffffffffffffffffff1681526020019081526020015f2054905092915050565b61070881565b5f73ffffffffffffffffffffffffffffffffffffffff16600f5f9054906101000a900473ffffffffffffffffffffffffffffffffffffffff1673ffffffffffffffffffffffffffffffffffffffff161462002d4a576040517f154c51b800000000000000000000000000000000000000000000000000000000815260040160405180910390fd5b62002d546200361f565b600f5f6101000a81548173ffffffffffffffffffffffffffffffffffffffff021916908373ffffffffffffffffffffffffffffffffffffffff160217905550600f5f9054906101000a900473ffffffffffffffffffffffffffffffffffffffff1673ffffffffffffffffffffffffffffffffffffffff166346c96aac6040518163ffffffff1660e01b8152600401602060405180830381865afa15801562002dfe573d5f803e3d5ffd5b505050506040513d601f19601f8201168201806040525081019062002e2491906200654f565b600b5f6101000a81548173ffffffffffffffffffffffffffffffffffffffff021916908373ffffffffffffffffffffffffffffffffffffffff160217905550828282600c5f600d5f600b60148691906101000a81548160ff0219169083151502179055508591906101000a81548173ffffffffffffffffffffffffffffffffffffffff021916908373ffffffffffffffffffffffffffffffffffffffff1602179055508491906101000a81548173ffffffffffffffffffffffffffffffffffffffff021916908373ffffffffffffffffffffffffffffffffffffffff160217905550505050828260405162002f199062005620565b62002f2692919062005e43565b604051809103905ff08015801562002f40573d5f803e3d5ffd5b50600e5f6101000a81548173ffffffffffffffffffffffffffffffffffffffff021916908373ffffffffffffffffffffffffffffffffffffffff1602179055505f8373ffffffffffffffffffffffffffffffffffffffff166395d89b416040518163ffffffff1660e01b81526004015f60405180830381865afa15801562002fca573d5f803e3d5ffd5b505050506040513d5f823e3d601f19601f8201168201806040525081019062002ff49190620069dd565b90505f8373ffffffffffffffffffffffffffffffffffffffff166395d89b416040518163ffffffff1660e01b81526004015f60405180830381865afa15801562003040573d5f803e3d5ffd5b505050506040513d5f823e3d601f19601f820116820180604052508101906200306a9190620069dd565b90508215620030e35781816040516020016200308892919062006b08565b60405160208183030381529060405260099081620030a7919062006b49565b508181604051602001620030bd92919062006c7b565b604051602081830303815290604052600a9081620030dc919062006b49565b506200314e565b8181604051602001620030f892919062006d0a565b6040516020818303038152906040526009908162003117919062006b49565b5081816040516020016200312d92919062006d99565b604051602081830303815290604052600a90816200314c919062006b49565b505b8473ffffffffffffffffffffffffffffffffffffffff1663313ce5676040518163ffffffff1660e01b8152600401602060405180830381865afa15801562003198573d5f803e3d5ffd5b505050506040513d601f19601f82011682018060405250810190620031be919062006df0565b600a620031cc919062006f70565b6011819055508373ffffffffffffffffffffffffffffffffffffffff1663313ce5676040518163ffffffff1660e01b8152600401602060405180830381865afa1580156200321c573d5f803e3d5ffd5b505050506040513d601f19601f8201168201806040525081019062003242919062006df0565b600a62003250919062006f70565b601281905550601060405180606001604052804281526020015f81526020015f815250908060018154018082558091505060019003905f5260205f2090600302015f909190919091505f820151815f0155602082015181600101556040820151816002015550505050505050565b5f601080549050905090565b5f620032d562003555565b620032e56013546014546200387c565b9050620032f162003b1b565b90565b5f805f60135460145491509150612710600f5f9054906101000a900473ffffffffffffffffffffffffffffffffffffffff1673ffffffffffffffffffffffffffffffffffffffff1663cc56b2c530600b60149054906101000a900460ff166040518363ffffffff1660e01b815260040162003371929190620062d4565b602060405180830381865afa1580156200338d573d5f803e3d5ffd5b505050506040513d601f19601f82011682018060405250810190620033b391906200623d565b86620033c09190620062ff565b620033cc919062006376565b85620033d991906200629a565b9450620033e98585848462003b39565b9250505092915050565b620033fd62003555565b62003549600c5f9054906101000a900473ffffffffffffffffffffffffffffffffffffffff1673ffffffffffffffffffffffffffffffffffffffff166370a08231306040518263ffffffff1660e01b81526004016200345d919062005963565b602060405180830381865afa15801562003479573d5f803e3d5ffd5b505050506040513d601f19601f820116820180604052508101906200349f91906200623d565b600d5f9054906101000a900473ffffffffffffffffffffffffffffffffffffffff1673ffffffffffffffffffffffffffffffffffffffff166370a08231306040518263ffffffff1660e01b8152600401620034fb919062005963565b602060405180830381865afa15801562003517573d5f803e3d5ffd5b505050506040513d601f19601f820116820180604052508101906200353d91906200623d565b601354601454620039a4565b6200355362003b1b565b565b60026008540362003592576040517f3ee5aeb500000000000000000000000000000000000000000000000000000000815260040160405180910390fd5b6002600881905550565b6200361a838473ffffffffffffffffffffffffffffffffffffffff1663a9059cbb8585604051602401620035d292919062006fc0565b604051602081830303815290604052915060e01b6020820180517bffffffffffffffffffffffffffffffffffffffffffffffffffffffff8381831617835250505050620046e5565b505050565b5f33905090565b5f8103156200374e576200369e600e5f9054906101000a900473ffffffffffffffffffffffffffffffffffffffff1682600c5f9054906101000a900473ffffffffffffffffffffffffffffffffffffffff1673ffffffffffffffffffffffffffffffffffffffff166200359c9092919063ffffffff16565b5f620036a962001773565b670de0b6b3a764000083620036bf9190620062ff565b620036cb919062006376565b90505f811115620036f1578060185f828254620036e9919062006486565b925050819055505b620036fb6200361f565b73ffffffffffffffffffffffffffffffffffffffff167f112c256902bf554b6ed882d2936687aaeb4225e8cd5b51303c90ca6cf43a8602835f604051620037449291906200702c565b60405180910390a2505b50565b5f8103156200387957620037c9600e5f9054906101000a900473ffffffffffffffffffffffffffffffffffffffff1682600d5f9054906101000a900473ffffffffffffffffffffffffffffffffffffffff1673ffffffffffffffffffffffffffffffffffffffff166200359c9092919063ffffffff16565b5f620037d462001773565b670de0b6b3a764000083620037ea9190620062ff565b620037f6919062006376565b90505f8111156200381c578060195f82825462003814919062006486565b925050819055505b620038266200361f565b73ffffffffffffffffffffffffffffffffffffffff167f112c256902bf554b6ed882d2936687aaeb4225e8cd5b51303c90ca6cf43a86025f846040516200386f92919062007057565b60405180910390a2505b50565b5f600b60149054906101000a900460ff16156200398d575f601154670de0b6b3a764000085620038ad9190620062ff565b620038b9919062006376565b90505f601254670de0b6b3a764000085620038d59190620062ff565b620038e1919062006376565b90505f670de0b6b3a76400008284620038fb9190620062ff565b62003907919062006376565b90505f670de0b6b3a76400008384620039219190620062ff565b6200392d919062006376565b670de0b6b3a76400008586620039449190620062ff565b62003950919062006376565b6200395c919062006486565b9050670de0b6b3a76400008183620039759190620062ff565b62003981919062006376565b9450505050506200399e565b81836200399b9190620062ff565b90505b92915050565b5f4290505f60155482620039b991906200629a565b90505f81118015620039cb57505f8414155b8015620039d857505f8314155b1562003a2d578084620039ec9190620062ff565b60165f828254620039fe919062006486565b92505081905550808362003a139190620062ff565b60175f82825462003a25919062006486565b925050819055505b5f62003a3862002240565b9050805f01518362003a4b91906200629a565b915061070882111562003abe57601060405180606001604052808581526020016016548152602001601754815250908060018154018082558091505060019003905f5260205f2090600302015f909190919091505f820151815f0155602082015181600101556040820151816002015550505b8660138190555085601481905550826015819055507fcf2aa50876cdfbb541206f89af0ee78d44a2abf8d328e37fa4917f982149848a60135460145460405162003b0a92919062005db7565b60405180910390a150505050505050565b6001600881905550565b62003b34838383600162004782565b505050565b5f600b60149054906101000a900460ff161562003d75575f62003b5d84846200387c565b9050601154670de0b6b3a76400008562003b789190620062ff565b62003b84919062006376565b9350601254670de0b6b3a76400008462003b9f9190620062ff565b62003bab919062006376565b92505f80600c5f9054906101000a900473ffffffffffffffffffffffffffffffffffffffff1673ffffffffffffffffffffffffffffffffffffffff168773ffffffffffffffffffffffffffffffffffffffff161462003c0c57848662003c0f565b85855b91509150600c5f9054906101000a900473ffffffffffffffffffffffffffffffffffffffff1673ffffffffffffffffffffffffffffffffffffffff168773ffffffffffffffffffffffffffffffffffffffff161462003c9357601254670de0b6b3a76400008962003c819190620062ff565b62003c8d919062006376565b62003cb9565b601154670de0b6b3a76400008962003cac9190620062ff565b62003cb8919062006376565b5b97505f62003cd6838a62003cce919062006486565b85846200495a565b8262003ce391906200629a565b9050670de0b6b3a7640000600c5f9054906101000a900473ffffffffffffffffffffffffffffffffffffffff1673ffffffffffffffffffffffffffffffffffffffff168973ffffffffffffffffffffffffffffffffffffffff161462003d4c5760115462003d50565b6012545b8262003d5d9190620062ff565b62003d69919062006376565b94505050505062003e08565b5f80600c5f9054906101000a900473ffffffffffffffffffffffffffffffffffffffff1673ffffffffffffffffffffffffffffffffffffffff168673ffffffffffffffffffffffffffffffffffffffff161462003dd457838562003dd7565b84845b91509150868262003de9919062006486565b818862003df79190620062ff565b62003e03919062006376565b925050505b949350505050565b5f62003e1d848462002c3b565b90507fffffffffffffffffffffffffffffffffffffffffffffffffffffffffffffffff811462003ea4578181101562003e93578281836040517ffb8f41b200000000000000000000000000000000000000000000000000000000815260040162003e8a939291906200682e565b60405180910390fd5b62003ea384848484035f62004782565b5b50505050565b5f73ffffffffffffffffffffffffffffffffffffffff168373ffffffffffffffffffffffffffffffffffffffff160362003f1d575f6040517f96c6fd1e00000000000000000000000000000000000000000000000000000000815260040162003f14919062005963565b60405180910390fd5b5f73ffffffffffffffffffffffffffffffffffffffff168273ffffffffffffffffffffffffffffffffffffffff160362003f90575f6040517fec442f0500000000000000000000000000000000000000000000000000000000815260040162003f87919062005963565b60405180910390fd5b62003f9d83838362004b26565b505050565b5f7f000000000000000000000000000000000000000000000000000000000000000073ffffffffffffffffffffffffffffffffffffffff163073ffffffffffffffffffffffffffffffffffffffff161480156200401e57507f000000000000000000000000000000000000000000000000000000000000000046145b156200404d577f000000000000000000000000000000000000000000000000000000000000000090506200405a565b6200405762004d4a565b90505b90565b5f8082036200406f575f90506200416c565b5f60016200407d8462004de1565b901c6001901b905060018184816200409a576200409962006349565b5b048201901c90506001818481620040b657620040b562006349565b5b048201901c90506001818481620040d257620040d162006349565b5b048201901c90506001818481620040ee57620040ed62006349565b5b048201901c905060018184816200410a576200410962006349565b5b048201901c9050600181848162004126576200412562006349565b5b048201901c9050600181848162004142576200414162006349565b5b048201901c9050620041688182858162004161576200416062006349565b5b04620041f5565b9150505b919050565b5f73ffffffffffffffffffffffffffffffffffffffff168273ffffffffffffffffffffffffffffffffffffffff1603620041e4575f6040517fec442f05000000000000000000000000000000000000000000000000000000008152600401620041db919062005963565b60405180910390fd5b620041f15f838362004b26565b5050565b5f81831062004205578162004207565b825b905092915050565b5f60075f8373ffffffffffffffffffffffffffffffffffffffff1673ffffffffffffffffffffffffffffffffffffffff1681526020019081526020015f20549050919050565b60606200428d60057f000000000000000000000000000000000000000000000000000000000000000062004ec090919063ffffffff16565b905090565b6060620042ca60067f000000000000000000000000000000000000000000000000000000000000000062004ec090919063ffffffff16565b905090565b5f73ffffffffffffffffffffffffffffffffffffffff168273ffffffffffffffffffffffffffffffffffffffff160362004342575f6040517f96c6fd1e00000000000000000000000000000000000000000000000000000000815260040162004339919062005963565b60405180910390fd5b6200434f825f8362004b26565b5050565b5f6200435f8262001d43565b90505f811115620045b6575f601a5f8473ffffffffffffffffffffffffffffffffffffffff1673ffffffffffffffffffffffffffffffffffffffff1681526020019081526020015f205490505f601b5f8573ffffffffffffffffffffffffffffffffffffffff1673ffffffffffffffffffffffffffffffffffffffff1681526020019081526020015f205490505f60185490505f601954905081601a5f8873ffffffffffffffffffffffffffffffffffffffff1673ffffffffffffffffffffffffffffffffffffffff1681526020019081526020015f208190555080601b5f8873ffffffffffffffffffffffffffffffffffffffff1673ffffffffffffffffffffffffffffffffffffffff1681526020019081526020015f20819055505f84836200448b91906200629a565b90505f84836200449c91906200629a565b90505f82111562004524575f670de0b6b3a76400008389620044bf9190620062ff565b620044cb919062006376565b905080601c5f8b73ffffffffffffffffffffffffffffffffffffffff1673ffffffffffffffffffffffffffffffffffffffff1681526020019081526020015f205f8282546200451b919062006486565b92505081905550505b5f811115620045aa575f670de0b6b3a76400008289620045459190620062ff565b62004551919062006376565b905080601d5f8b73ffffffffffffffffffffffffffffffffffffffff1673ffffffffffffffffffffffffffffffffffffffff1681526020019081526020015f205f828254620045a1919062006486565b92505081905550505b5050505050506200463f565b601854601a5f8473ffffffffffffffffffffffffffffffffffffffff1673ffffffffffffffffffffffffffffffffffffffff1681526020019081526020015f2081905550601954601b5f8473ffffffffffffffffffffffffffffffffffffffff1673ffffffffffffffffffffffffffffffffffffffff1681526020019081526020015f20819055505b5050565b5f60075f8373ffffffffffffffffffffffffffffffffffffffff1673ffffffffffffffffffffffffffffffffffffffff1681526020019081526020015f205f815480929190600101919050559050919050565b5f620046ac620046a562003fa2565b8362004f79565b9050919050565b5f805f80620046c58888888862004fb9565b925092509250620046d78282620050a7565b829350505050949350505050565b5f62004711828473ffffffffffffffffffffffffffffffffffffffff166200522990919063ffffffff16565b90505f8151141580156200473857508080602001905181019062004736919062006153565b155b156200477d57826040517f5274afe700000000000000000000000000000000000000000000000000000000815260040162004774919062005963565b60405180910390fd5b505050565b5f73ffffffffffffffffffffffffffffffffffffffff168473ffffffffffffffffffffffffffffffffffffffff1603620047f5575f6040517fe602df05000000000000000000000000000000000000000000000000000000008152600401620047ec919062005963565b60405180910390fd5b5f73ffffffffffffffffffffffffffffffffffffffff168373ffffffffffffffffffffffffffffffffffffffff160362004868575f6040517f94280d620000000000000000000000000000000000000000000000000000000081526004016200485f919062005963565b60405180910390fd5b8160015f8673ffffffffffffffffffffffffffffffffffffffff1673ffffffffffffffffffffffffffffffffffffffff1681526020019081526020015f205f8573ffffffffffffffffffffffffffffffffffffffff1673ffffffffffffffffffffffffffffffffffffffff1681526020019081526020015f2081905550801562004954578273ffffffffffffffffffffffffffffffffffffffff168473ffffffffffffffffffffffffffffffffffffffff167f8c5be1e5ebec7d5bd14f71427d1e84f3dd0314c0f7b2291e5b200ac8c7c3b925846040516200494b919062005ad6565b60405180910390a35b50505050565b5f805f90505b60ff81101562004ae1575f62004977868562005240565b90508481101562004a34575f6200498f8786620052e9565b670de0b6b3a76400008388620049a691906200629a565b620049b29190620062ff565b620049be919062006376565b90505f810362004a1d57858203620049dc5784935050505062004b1f565b85620049f788600188620049f1919062006486565b6200387c565b111562004a185760018562004a0d919062006486565b935050505062004b1f565b600190505b808562004a2b919062006486565b94505062004aca565b5f62004a418786620052e9565b670de0b6b3a7640000878462004a5891906200629a565b62004a649190620062ff565b62004a70919062006376565b90505f810362004ab8578582148062004aa157508562004a9f8860018862004a9991906200629a565b62005240565b105b1562004ab35784935050505062004b1f565b600190505b808562004ac691906200629a565b9450505b50808062004ad890620064ed565b91505062004960565b506040517f08c379a000000000000000000000000000000000000000000000000000000000815260040162004b1690620070d0565b60405180910390fd5b9392505050565b5f73ffffffffffffffffffffffffffffffffffffffff168373ffffffffffffffffffffffffffffffffffffffff160362004b7a578060025f82825462004b6d919062006486565b9250508190555062004c4b565b5f805f8573ffffffffffffffffffffffffffffffffffffffff1673ffffffffffffffffffffffffffffffffffffffff1681526020019081526020015f205490508181101562004c06578381836040517fe450d38c00000000000000000000000000000000000000000000000000000000815260040162004bfd939291906200682e565b60405180910390fd5b8181035f808673ffffffffffffffffffffffffffffffffffffffff1673ffffffffffffffffffffffffffffffffffffffff1681526020019081526020015f2081905550505b5f73ffffffffffffffffffffffffffffffffffffffff168273ffffffffffffffffffffffffffffffffffffffff160362004c94578060025f828254039250508190555062004cde565b805f808473ffffffffffffffffffffffffffffffffffffffff1673ffffffffffffffffffffffffffffffffffffffff1681526020019081526020015f205f82825401925050819055505b8173ffffffffffffffffffffffffffffffffffffffff168373ffffffffffffffffffffffffffffffffffffffff167fddf252ad1be2c89b69c2b068fc378daa952ba7f163c4a11628f55a4df523b3ef8360405162004d3d919062005ad6565b60405180910390a3505050565b5f7f8b73c3c69bb8fe3d512ecc4cf759cc79239f7b179b0ffacaa9a75d522b39400f7f00000000000000000000000000000000000000000000000000000000000000007f0000000000000000000000000000000000000000000000000000000000000000463060405160200162004dc6959493929190620070f0565b60405160208183030381529060405280519060200120905090565b5f805f90505f608084901c111562004e0157608083901c92506080810190505b5f604084901c111562004e1c57604083901c92506040810190505b5f602084901c111562004e3757602083901c92506020810190505b5f601084901c111562004e5257601083901c92506010810190505b5f600884901c111562004e6d57600883901c92506008810190505b5f600484901c111562004e8857600483901c92506004810190505b5f600284901c111562004ea357600283901c92506002810190505b5f600184901c111562004eb7576001810190505b80915050919050565b606060ff5f1b831462004ee05762004ed8836200538e565b905062004f73565b81805462004eee9062006425565b80601f016020809104026020016040519081016040528092919081815260200182805462004f1c9062006425565b801562004f6b5780601f1062004f415761010080835404028352916020019162004f6b565b820191905f5260205f20905b81548152906001019060200180831162004f4d57829003601f168201915b505050505090505b92915050565b5f6040517f190100000000000000000000000000000000000000000000000000000000000081528360028201528260228201526042812091505092915050565b5f805f7f7fffffffffffffffffffffffffffffff5d576e7357a4501ddfe92f46681b20a0845f1c111562004ff7575f6003859250925092506200509d565b5f6001888888886040515f81526020016040526040516200501c94939291906200714b565b6020604051602081039080840390855afa1580156200503d573d5f803e3d5ffd5b5050506020604051035190505f73ffffffffffffffffffffffffffffffffffffffff168173ffffffffffffffffffffffffffffffffffffffff160362005090575f60015f801b935093509350506200509d565b805f805f1b935093509350505b9450945094915050565b5f6003811115620050bd57620050bc62007196565b5b826003811115620050d357620050d262007196565b5b0315620052255760016003811115620050f157620050f062007196565b5b82600381111562005107576200510662007196565b5b036200513f576040517ff645eedf00000000000000000000000000000000000000000000000000000000815260040160405180910390fd5b6002600381111562005156576200515562007196565b5b8260038111156200516c576200516b62007196565b5b03620051b357805f1c6040517ffce698f7000000000000000000000000000000000000000000000000000000008152600401620051aa919062005ad6565b60405180910390fd5b600380811115620051c957620051c862007196565b5b826003811115620051df57620051de62007196565b5b036200522457806040517fd78bce0c0000000000000000000000000000000000000000000000000000000081526004016200521b919062005bfc565b60405180910390fd5b5b5050565b60606200523883835f62005406565b905092915050565b5f80670de0b6b3a76400008385620052599190620062ff565b62005265919062006376565b90505f670de0b6b3a764000084856200527f9190620062ff565b6200528b919062006376565b670de0b6b3a76400008687620052a29190620062ff565b620052ae919062006376565b620052ba919062006486565b9050670de0b6b3a76400008183620052d39190620062ff565b620052df919062006376565b9250505092915050565b5f670de0b6b3a764000083670de0b6b3a764000085866200530b9190620062ff565b62005317919062006376565b620053239190620062ff565b6200532f919062006376565b670de0b6b3a7640000808485620053479190620062ff565b62005353919062006376565b856003620053629190620062ff565b6200536e9190620062ff565b6200537a919062006376565b62005386919062006486565b905092915050565b60605f6200539c83620054d8565b90505f602067ffffffffffffffff811115620053bd57620053bc62006459565b5b6040519080825280601f01601f191660200182016040528015620053f05781602001600182028036833780820191505090505b5090508181528360208201528092505050919050565b6060814710156200545057306040517fcd78605900000000000000000000000000000000000000000000000000000000815260040162005447919062005963565b60405180910390fd5b5f808573ffffffffffffffffffffffffffffffffffffffff1684866040516200547a91906200720d565b5f6040518083038185875af1925050503d805f8114620054b6576040519150601f19603f3d011682016040523d82523d5f602084013e620054bb565b606091505b5091509150620054cd86838362005527565b925050509392505050565b5f8060ff835f1c169050601f8111156200551e576040517fb3512b0c00000000000000000000000000000000000000000000000000000000815260040160405180910390fd5b80915050919050565b60608262005540576200553a82620055bd565b620055b5565b5f82511480156200556757505f8473ffffffffffffffffffffffffffffffffffffffff163b145b15620055ac57836040517f9996b315000000000000000000000000000000000000000000000000000000008152600401620055a3919062005963565b60405180910390fd5b819050620055b6565b5b9392505050565b5f81511115620055d05780518082602001fd5b6040517f1425ea4200000000000000000000000000000000000000000000000000000000815260040160405180910390fd5b60405180606001604052805f81526020015f81526020015f81525090565b61082d806200722683390190565b5f604051905090565b5f80fd5b5f80fd5b5f819050919050565b62005653816200563f565b81146200565e575f80fd5b50565b5f81359050620056718162005648565b92915050565b5f73ffffffffffffffffffffffffffffffffffffffff82169050919050565b5f620056a28262005677565b9050919050565b620056b48162005696565b8114620056bf575f80fd5b50565b5f81359050620056d281620056a9565b92915050565b5f80fd5b5f80fd5b5f80fd5b5f8083601f840112620056fc57620056fb620056d8565b5b8235905067ffffffffffffffff8111156200571c576200571b620056dc565b5b6020830191508360018202830111156200573b576200573a620056e0565b5b9250929050565b5f805f805f608086880312156200575e576200575d62005637565b5b5f6200576d8882890162005661565b9550506020620057808882890162005661565b94505060406200579388828901620056c2565b935050606086013567ffffffffffffffff811115620057b757620057b66200563b565b5b620057c588828901620056e4565b92509250509295509295909350565b5f81519050919050565b5f82825260208201905092915050565b5f5b838110156200580d578082015181840152602081019050620057f0565b5f8484015250505050565b5f601f19601f8301169050919050565b5f6200583482620057d4565b620058408185620057de565b935062005852818560208601620057ee565b6200585d8162005818565b840191505092915050565b5f6020820190508181035f83015262005882818462005828565b905092915050565b62005895816200563f565b82525050565b5f606082019050620058b05f8301866200588a565b620058bf60208301856200588a565b620058ce60408301846200588a565b949350505050565b5f8060408385031215620058ef57620058ee62005637565b5b5f620058fe85828601620056c2565b9250506020620059118582860162005661565b9150509250929050565b5f8115159050919050565b62005931816200591b565b82525050565b5f6020820190506200594c5f83018462005926565b92915050565b6200595d8162005696565b82525050565b5f602082019050620059785f83018462005952565b92915050565b5f805f806080858703121562005999576200599862005637565b5b5f620059a887828801620056c2565b9450506020620059bb8782880162005661565b9350506040620059ce8782880162005661565b9250506060620059e18782880162005661565b91505092959194509250565b5f81519050919050565b5f82825260208201905092915050565b5f819050602082019050919050565b62005a21816200563f565b82525050565b5f62005a34838362005a16565b60208301905092915050565b5f602082019050919050565b5f62005a5882620059ed565b62005a648185620059f7565b935062005a718362005a07565b805f5b8381101562005aa757815162005a8b888262005a27565b975062005a988362005a40565b92505060018101905062005a74565b5085935050505092915050565b5f6020820190508181035f83015262005ace818462005a4c565b905092915050565b5f60208201905062005aeb5f8301846200588a565b92915050565b5f6020828403121562005b095762005b0862005637565b5b5f62005b1884828501620056c2565b91505092915050565b5f805f6060848603121562005b3b5762005b3a62005637565b5b5f62005b4a86828701620056c2565b935050602062005b5d86828701620056c2565b925050604062005b708682870162005661565b9150509250925092565b5f6020828403121562005b925762005b9162005637565b5b5f62005ba18482850162005661565b91505092915050565b5f60ff82169050919050565b62005bc18162005baa565b82525050565b5f60208201905062005bdc5f83018462005bb6565b92915050565b5f819050919050565b62005bf68162005be2565b82525050565b5f60208201905062005c115f83018462005beb565b92915050565b5f60e08201905062005c2c5f83018a6200588a565b62005c3b60208301896200588a565b62005c4a60408301886200588a565b62005c5960608301876200588a565b62005c68608083018662005926565b62005c7760a083018562005952565b62005c8660c083018462005952565b98975050505050505050565b5f805f6060848603121562005cac5762005cab62005637565b5b5f62005cbb86828701620056c2565b935050602062005cce8682870162005661565b925050604062005ce18682870162005661565b9150509250925092565b5f7fff0000000000000000000000000000000000000000000000000000000000000082169050919050565b62005d218162005ceb565b82525050565b5f60e08201905062005d3c5f83018a62005d16565b818103602083015262005d50818962005828565b9050818103604083015262005d66818862005828565b905062005d7760608301876200588a565b62005d86608083018662005952565b62005d9560a083018562005beb565b81810360c083015262005da9818462005a4c565b905098975050505050505050565b5f60408201905062005dcc5f8301856200588a565b62005ddb60208301846200588a565b9392505050565b606082015f82015162005df85f85018262005a16565b50602082015162005e0d602085018262005a16565b50604082015162005e22604085018262005a16565b50505050565b5f60608201905062005e3d5f83018462005de2565b92915050565b5f60408201905062005e585f83018562005952565b62005e67602083018462005952565b9392505050565b5f8083601f84011262005e865762005e85620056d8565b5b8235905067ffffffffffffffff81111562005ea65762005ea5620056dc565b5b60208301915083600182028301111562005ec55762005ec4620056e0565b5b9250929050565b5f806020838503121562005ee55762005ee462005637565b5b5f83013567ffffffffffffffff81111562005f055762005f046200563b565b5b62005f138582860162005e6e565b92509250509250929050565b62005f2a8162005baa565b811462005f35575f80fd5b50565b5f8135905062005f488162005f1f565b92915050565b62005f598162005be2565b811462005f64575f80fd5b50565b5f8135905062005f778162005f4e565b92915050565b5f805f805f805f60e0888a03121562005f9b5762005f9a62005637565b5b5f62005faa8a828b01620056c2565b975050602062005fbd8a828b01620056c2565b965050604062005fd08a828b0162005661565b955050606062005fe38a828b0162005661565b945050608062005ff68a828b0162005f38565b93505060a0620060098a828b0162005f67565b92505060c06200601c8a828b0162005f67565b91505092959891949750929550565b5f806040838503121562006044576200604362005637565b5b5f6200605385828601620056c2565b92505060206200606685828601620056c2565b9150509250929050565b6200607b816200591b565b811462006086575f80fd5b50565b5f81359050620060998162006070565b92915050565b5f805f60608486031215620060b957620060b862005637565b5b5f620060c886828701620056c2565b9350506020620060db86828701620056c2565b9250506040620060ee8682870162006089565b9150509250925092565b5f806040838503121562006111576200611062005637565b5b5f620061208582860162005661565b92505060206200613385828601620056c2565b9150509250929050565b5f815190506200614d8162006070565b92915050565b5f602082840312156200616b576200616a62005637565b5b5f6200617a848285016200613d565b91505092915050565b5f82825260208201905092915050565b828183375f83830152505050565b5f620061ae838562006183565b9350620061bd83858462006193565b620061c88362005818565b840190509392505050565b5f608082019050620061e85f83018862005952565b620061f760208301876200588a565b6200620660408301866200588a565b81810360608301526200621b818486620061a1565b90509695505050505050565b5f81519050620062378162005648565b92915050565b5f6020828403121562006255576200625462005637565b5b5f620062648482850162006227565b91505092915050565b7f4e487b71000000000000000000000000000000000000000000000000000000005f52601160045260245ffd5b5f620062a6826200563f565b9150620062b3836200563f565b9250828203905081811115620062ce57620062cd6200626d565b5b92915050565b5f604082019050620062e95f83018562005952565b620062f8602083018462005926565b9392505050565b5f6200630b826200563f565b915062006318836200563f565b925082820262006328816200563f565b915082820484148315176200634257620063416200626d565b5b5092915050565b7f4e487b71000000000000000000000000000000000000000000000000000000005f52601260045260245ffd5b5f62006382826200563f565b91506200638f836200563f565b925082620063a257620063a162006349565b5b828204905092915050565b5f608082019050620063c25f8301876200588a565b620063d160208301866200588a565b620063e060408301856200588a565b620063ef60608301846200588a565b95945050505050565b7f4e487b71000000000000000000000000000000000000000000000000000000005f52602260045260245ffd5b5f60028204905060018216806200643d57607f821691505b602082108103620064535762006452620063f8565b5b50919050565b7f4e487b71000000000000000000000000000000000000000000000000000000005f52604160045260245ffd5b5f62006492826200563f565b91506200649f836200563f565b9250828201905080821115620064ba57620064b96200626d565b5b92915050565b7f4e487b71000000000000000000000000000000000000000000000000000000005f52603260045260245ffd5b5f620064f9826200563f565b91507fffffffffffffffffffffffffffffffffffffffffffffffffffffffffffffffff82036200652e576200652d6200626d565b5b600182019050919050565b5f815190506200654981620056a9565b92915050565b5f6020828403121562006567576200656662005637565b5b5f620065768482850162006539565b91505092915050565b5f82905092915050565b5f819050815f5260205f209050919050565b5f6020601f8301049050919050565b5f82821b905092915050565b5f60088302620065e77fffffffffffffffffffffffffffffffffffffffffffffffffffffffffffffffff82620065aa565b620065f38683620065aa565b95508019841693508086168417925050509392505050565b5f819050919050565b5f620066346200662e62006628846200563f565b6200660b565b6200563f565b9050919050565b5f819050919050565b6200664f8362006614565b620066676200665e826200663b565b848454620065b6565b825550505050565b5f90565b6200667d6200666f565b6200668a81848462006644565b505050565b5b81811015620066b157620066a55f8262006673565b60018101905062006690565b5050565b601f8211156200670057620066ca8162006589565b620066d5846200659b565b81016020851015620066e5578190505b620066fd620066f4856200659b565b8301826200668f565b50505b505050565b5f82821c905092915050565b5f620067225f198460080262006705565b1980831691505092915050565b5f6200673c838362006711565b9150826002028217905092915050565b6200675883836200657f565b67ffffffffffffffff81111562006774576200677362006459565b5b62006780825462006425565b6200678d828285620066b5565b5f601f831160018114620067bf575f8415620067aa578287013590505b620067b685826200672f565b86555062006825565b601f198416620067cf8662006589565b5f5b82811015620067f857848901358255600182019150602085019450602081019050620067d1565b8683101562006818578489013562006814601f89168262006711565b8355505b6001600288020188555050505b50505050505050565b5f606082019050620068435f83018662005952565b6200685260208301856200588a565b6200686160408301846200588a565b949350505050565b5f60c0820190506200687e5f83018962005beb565b6200688d602083018862005952565b6200689c604083018762005952565b620068ab60608301866200588a565b620068ba60808301856200588a565b620068c960a08301846200588a565b979650505050505050565b5f80fd5b620068e38262005818565b810181811067ffffffffffffffff8211171562006905576200690462006459565b5b80604052505050565b5f620069196200562e565b9050620069278282620068d8565b919050565b5f67ffffffffffffffff82111562006949576200694862006459565b5b620069548262005818565b9050602081019050919050565b5f6200697762006971846200692c565b6200690e565b905082815260208101848484011115620069965762006995620068d4565b5b620069a3848285620057ee565b509392505050565b5f82601f830112620069c257620069c1620056d8565b5b8151620069d484826020860162006961565b91505092915050565b5f60208284031215620069f557620069f462005637565b5b5f82015167ffffffffffffffff81111562006a155762006a146200563b565b5b62006a2384828501620069ab565b91505092915050565b5f81905092915050565b7f537461626c6520414d4d202d20000000000000000000000000000000000000005f82015250565b5f62006a6c600d8362006a2c565b915062006a798262006a36565b600d82019050919050565b5f62006a9082620057d4565b62006a9c818562006a2c565b935062006aae818560208601620057ee565b80840191505092915050565b7f2f000000000000000000000000000000000000000000000000000000000000005f82015250565b5f62006af060018362006a2c565b915062006afd8262006aba565b600182019050919050565b5f62006b148262006a5e565b915062006b22828562006a84565b915062006b2f8262006ae2565b915062006b3d828462006a84565b91508190509392505050565b62006b5482620057d4565b67ffffffffffffffff81111562006b705762006b6f62006459565b5b62006b7c825462006425565b62006b89828285620066b5565b5f60209050601f83116001811462006bbf575f841562006baa578287015190505b62006bb685826200672f565b86555062006c25565b601f19841662006bcf8662006589565b5f5b8281101562006bf85784890151825560018201915060208501945060208101905062006bd1565b8683101562006c18578489015162006c14601f89168262006711565b8355505b6001600288020188555050505b505050505050565b7f73414d4d2d0000000000000000000000000000000000000000000000000000005f82015250565b5f62006c6360058362006a2c565b915062006c708262006c2d565b600582019050919050565b5f62006c878262006c55565b915062006c95828562006a84565b915062006ca28262006ae2565b915062006cb0828462006a84565b91508190509392505050565b7f566f6c6174696c6520414d4d202d2000000000000000000000000000000000005f82015250565b5f62006cf2600f8362006a2c565b915062006cff8262006cbc565b600f82019050919050565b5f62006d168262006ce4565b915062006d24828562006a84565b915062006d318262006ae2565b915062006d3f828462006a84565b91508190509392505050565b7f76414d4d2d0000000000000000000000000000000000000000000000000000005f82015250565b5f62006d8160058362006a2c565b915062006d8e8262006d4b565b600582019050919050565b5f62006da58262006d73565b915062006db3828562006a84565b915062006dc08262006ae2565b915062006dce828462006a84565b91508190509392505050565b5f8151905062006dea8162005f1f565b92915050565b5f6020828403121562006e085762006e0762005637565b5b5f62006e178482850162006dda565b91505092915050565b5f8160011c9050919050565b5f808291508390505b600185111562006e7d5780860481111562006e555762006e546200626d565b5b600185161562006e655780820291505b808102905062006e758562006e20565b945062006e35565b94509492505050565b5f8262006e97576001905062006f69565b8162006ea6575f905062006f69565b816001811462006ebf576002811462006eca5762006f00565b600191505062006f69565b60ff84111562006edf5762006ede6200626d565b5b8360020a91508482111562006ef95762006ef86200626d565b5b5062006f69565b5060208310610133831016604e8410600b841016171562006f3a5782820a90508381111562006f345762006f336200626d565b5b62006f69565b62006f49848484600162006e2c565b9250905081840481111562006f635762006f626200626d565b5b81810290505b9392505050565b5f62006f7c826200563f565b915062006f898362005baa565b925062006fb87fffffffffffffffffffffffffffffffffffffffffffffffffffffffffffffffff848462006e86565b905092915050565b5f60408201905062006fd55f83018562005952565b62006fe460208301846200588a565b9392505050565b5f819050919050565b5f620070146200700e620070088462006feb565b6200660b565b6200563f565b9050919050565b620070268162006ff4565b82525050565b5f604082019050620070415f8301856200588a565b6200705060208301846200701b565b9392505050565b5f6040820190506200706c5f8301856200701b565b6200707b60208301846200588a565b9392505050565b7f21790000000000000000000000000000000000000000000000000000000000005f82015250565b5f620070b8600283620057de565b9150620070c58262007082565b602082019050919050565b5f6020820190508181035f830152620070e981620070aa565b9050919050565b5f60a082019050620071055f83018862005beb565b62007114602083018762005beb565b62007123604083018662005beb565b6200713260608301856200588a565b62007141608083018462005952565b9695505050505050565b5f608082019050620071605f83018762005beb565b6200716f602083018662005bb6565b6200717e604083018562005beb565b6200718d606083018462005beb565b95945050505050565b7f4e487b71000000000000000000000000000000000000000000000000000000005f52602160045260245ffd5b5f81519050919050565b5f81905092915050565b5f620071e382620071c3565b620071ef8185620071cd565b935062007201818560208601620057ee565b80840191505092915050565b5f6200721a8284620071d7565b91508190509291505056fe60e060405234801561000f575f80fd5b5060405161082d38038061082d83398181016040528101906100319190610132565b3373ffffffffffffffffffffffffffffffffffffffff1660808173ffffffffffffffffffffffffffffffffffffffff16815250508173ffffffffffffffffffffffffffffffffffffffff1660a08173ffffffffffffffffffffffffffffffffffffffff16815250508073ffffffffffffffffffffffffffffffffffffffff1660c08173ffffffffffffffffffffffffffffffffffffffff16815250505050610170565b5f80fd5b5f73ffffffffffffffffffffffffffffffffffffffff82169050919050565b5f610101826100d8565b9050919050565b610111816100f7565b811461011b575f80fd5b50565b5f8151905061012c81610108565b92915050565b5f8060408385031215610148576101476100d4565b5b5f6101558582860161011e565b92505060206101668582860161011e565b9150509250929050565b60805160a05160c0516106956101985f395f61013101525f60dd01525f604b01526106955ff3fe608060405234801561000f575f80fd5b5060043610610029575f3560e01c8063533cf5ce1461002d575b5f80fd5b610047600480360381019061004291906104cf565b610049565b005b7f000000000000000000000000000000000000000000000000000000000000000073ffffffffffffffffffffffffffffffffffffffff163373ffffffffffffffffffffffffffffffffffffffff16146100ce576040517f6f61f64100000000000000000000000000000000000000000000000000000000815260040160405180910390fd5b5f8211156101225761012183837f000000000000000000000000000000000000000000000000000000000000000073ffffffffffffffffffffffffffffffffffffffff1661017b9092919063ffffffff16565b5b5f8111156101765761017583827f000000000000000000000000000000000000000000000000000000000000000073ffffffffffffffffffffffffffffffffffffffff1661017b9092919063ffffffff16565b5b505050565b6101f5838473ffffffffffffffffffffffffffffffffffffffff1663a9059cbb85856040516024016101ae92919061053d565b604051602081830303815290604052915060e01b6020820180517bffffffffffffffffffffffffffffffffffffffffffffffffffffffff83818316178352505050506101fa565b505050565b5f610224828473ffffffffffffffffffffffffffffffffffffffff1661028f90919063ffffffff16565b90505f8151141580156102485750808060200190518101906102469190610599565b155b1561028a57826040517f5274afe700000000000000000000000000000000000000000000000000000000815260040161028191906105c4565b60405180910390fd5b505050565b606061029c83835f6102a4565b905092915050565b6060814710156102eb57306040517fcd7860590000000000000000000000000000000000000000000000000000000081526004016102e291906105c4565b60405180910390fd5b5f808573ffffffffffffffffffffffffffffffffffffffff1684866040516103139190610649565b5f6040518083038185875af1925050503d805f811461034d576040519150601f19603f3d011682016040523d82523d5f602084013e610352565b606091505b509150915061036286838361036d565b925050509392505050565b6060826103825761037d826103fa565b6103f2565b5f82511480156103a857505f8473ffffffffffffffffffffffffffffffffffffffff163b145b156103ea57836040517f9996b3150000000000000000000000000000000000000000000000000000000081526004016103e191906105c4565b60405180910390fd5b8190506103f3565b5b9392505050565b5f8151111561040c5780518082602001fd5b6040517f1425ea4200000000000000000000000000000000000000000000000000000000815260040160405180910390fd5b5f80fd5b5f73ffffffffffffffffffffffffffffffffffffffff82169050919050565b5f61046b82610442565b9050919050565b61047b81610461565b8114610485575f80fd5b50565b5f8135905061049681610472565b92915050565b5f819050919050565b6104ae8161049c565b81146104b8575f80fd5b50565b5f813590506104c9816104a5565b92915050565b5f805f606084860312156104e6576104e561043e565b5b5f6104f386828701610488565b9350506020610504868287016104bb565b9250506040610515868287016104bb565b9150509250925092565b61052881610461565b82525050565b6105378161049c565b82525050565b5f6040820190506105505f83018561051f565b61055d602083018461052e565b9392505050565b5f8115159050919050565b61057881610564565b8114610582575f80fd5b50565b5f815190506105938161056f565b92915050565b5f602082840312156105ae576105ad61043e565b5b5f6105bb84828501610585565b91505092915050565b5f6020820190506105d75f83018461051f565b92915050565b5f81519050919050565b5f81905092915050565b5f5b8381101561060e5780820151818401526020810190506105f3565b5f8484015250505050565b5f610623826105dd565b61062d81856105e7565b935061063d8185602086016105f1565b80840191505092915050565b5f6106548284610619565b91508190509291505056fea26469706673582212203bfb3cb4aa0ffc56490cadecd4a87d36622f5fcc244c61575e550e1391a42b6164736f6c63430008140033a2646970667358221220ab4d747434a88f6f809c1c579811da1ef2446fb63fb4dffea14f5b4bd7bb9bae64736f6c63430008140033",
			"opcodes": "PUSH2 0x160 PUSH1 0x40 MSTORE PUSH0 PUSH1 0x18 SSTORE PUSH0 PUSH1 0x19 SSTORE CALLVALUE DUP1 ISZERO PUSH3 0x19 JUMPI PUSH0 DUP1 REVERT JUMPDEST POP PUSH1 0x40 MLOAD DUP1 PUSH1 0x20 ADD PUSH1 0x40 MSTORE DUP1 PUSH0 DUP2 MSTORE POP DUP1 PUSH1 0x40 MLOAD DUP1 PUSH1 0x40 ADD PUSH1 0x40 MSTORE DUP1 PUSH1 0x1 DUP2 MSTORE PUSH1 0x20 ADD PUSH32 0x3100000000000000000000000000000000000000000000000000000000000000 DUP2 MSTORE POP PUSH1 0x40 MLOAD DUP1 PUSH1 0x20 ADD PUSH1 0x40 MSTORE DUP1 PUSH0 DUP2 MSTORE POP PUSH1 0x40 MLOAD DUP1 PUSH1 0x20 ADD PUSH1 0x40 MSTORE DUP1 PUSH0 DUP2 MSTORE POP DUP2 PUSH1 0x3 SWAP1 DUP2 PUSH3 0x8F SWAP2 SWAP1 PUSH3 0x4EB JUMP JUMPDEST POP DUP1 PUSH1 0x4 SWAP1 DUP2 PUSH3 0xA1 SWAP2 SWAP1 PUSH3 0x4EB JUMP JUMPDEST POP POP POP PUSH3 0xBA PUSH1 0x5 DUP4 PUSH3 0x163 PUSH1 0x20 SHL SWAP1 SWAP2 SWAP1 PUSH1 0x20 SHR JUMP JUMPDEST PUSH2 0x120 DUP2 DUP2 MSTORE POP POP PUSH3 0xD8 PUSH1 0x6 DUP3 PUSH3 0x163 PUSH1 0x20 SHL SWAP1 SWAP2 SWAP1 PUSH1 0x20 SHR JUMP JUMPDEST PUSH2 0x140 DUP2 DUP2 MSTORE POP POP DUP2 DUP1 MLOAD SWAP1 PUSH1 0x20 ADD KECCAK256 PUSH1 0xE0 DUP2 DUP2 MSTORE POP POP DUP1 DUP1 MLOAD SWAP1 PUSH1 0x20 ADD KECCAK256 PUSH2 0x100 DUP2 DUP2 MSTORE POP POP CHAINID PUSH1 0xA0 DUP2 DUP2 MSTORE POP POP PUSH3 0x117 PUSH3 0x1B8 PUSH1 0x20 SHL PUSH1 0x20 SHR JUMP JUMPDEST PUSH1 0x80 DUP2 DUP2 MSTORE POP POP ADDRESS PUSH20 0xFFFFFFFFFFFFFFFFFFFFFFFFFFFFFFFFFFFFFFFF AND PUSH1 0xC0 DUP2 PUSH20 0xFFFFFFFFFFFFFFFFFFFFFFFFFFFFFFFFFFFFFFFF AND DUP2 MSTORE POP POP POP POP POP PUSH1 0x1 PUSH1 0x8 DUP2 SWAP1 SSTORE POP PUSH3 0x7E2 JUMP JUMPDEST PUSH0 PUSH1 0x20 DUP4 MLOAD LT ISZERO PUSH3 0x188 JUMPI PUSH3 0x180 DUP4 PUSH3 0x214 PUSH1 0x20 SHL PUSH1 0x20 SHR JUMP JUMPDEST SWAP1 POP PUSH3 0x1B2 JUMP JUMPDEST DUP3 PUSH3 0x19A DUP4 PUSH3 0x27E PUSH1 0x20 SHL PUSH1 0x20 SHR JUMP JUMPDEST PUSH0 ADD SWAP1 DUP2 PUSH3 0x1AA SWAP2 SWAP1 PUSH3 0x4EB JUMP JUMPDEST POP PUSH1 0xFF PUSH0 SHL SWAP1 POP JUMPDEST SWAP3 SWAP2 POP POP JUMP JUMPDEST PUSH0 PUSH32 0x8B73C3C69BB8FE3D512ECC4CF759CC79239F7B179B0FFACAA9A75D522B39400F PUSH1 0xE0 MLOAD PUSH2 0x100 MLOAD CHAINID ADDRESS PUSH1 0x40 MLOAD PUSH1 0x20 ADD PUSH3 0x1F9 SWAP6 SWAP5 SWAP4 SWAP3 SWAP2 SWAP1 PUSH3 0x63D JUMP JUMPDEST PUSH1 0x40 MLOAD PUSH1 0x20 DUP2 DUP4 SUB SUB DUP2 MSTORE SWAP1 PUSH1 0x40 MSTORE DUP1 MLOAD SWAP1 PUSH1 0x20 ADD KECCAK256 SWAP1 POP SWAP1 JUMP JUMPDEST PUSH0 DUP1 DUP3 SWAP1 POP PUSH1 0x1F DUP2 MLOAD GT ISZERO PUSH3 0x263 JUMPI DUP3 PUSH1 0x40 MLOAD PUSH32 0x305A27A900000000000000000000000000000000000000000000000000000000 DUP2 MSTORE PUSH1 0x4 ADD PUSH3 0x25A SWAP2 SWAP1 PUSH3 0x722 JUMP JUMPDEST PUSH1 0x40 MLOAD DUP1 SWAP2 SUB SWAP1 REVERT JUMPDEST DUP1 MLOAD DUP2 PUSH3 0x271 SWAP1 PUSH3 0x773 JUMP JUMPDEST PUSH0 SHR OR PUSH0 SHL SWAP2 POP POP SWAP2 SWAP1 POP JUMP JUMPDEST PUSH0 DUP2 SWAP1 POP SWAP2 SWAP1 POP JUMP JUMPDEST PUSH0 DUP2 MLOAD SWAP1 POP SWAP2 SWAP1 POP JUMP JUMPDEST PUSH32 0x4E487B7100000000000000000000000000000000000000000000000000000000 PUSH0 MSTORE PUSH1 0x41 PUSH1 0x4 MSTORE PUSH1 0x24 PUSH0 REVERT JUMPDEST PUSH32 0x4E487B7100000000000000000000000000000000000000000000000000000000 PUSH0 MSTORE PUSH1 0x22 PUSH1 0x4 MSTORE PUSH1 0x24 PUSH0 REVERT JUMPDEST PUSH0 PUSH1 0x2 DUP3 DIV SWAP1 POP PUSH1 0x1 DUP3 AND DUP1 PUSH3 0x303 JUMPI PUSH1 0x7F DUP3 AND SWAP2 POP JUMPDEST PUSH1 0x20 DUP3 LT DUP2 SUB PUSH3 0x319 JUMPI PUSH3 0x318 PUSH3 0x2BE JUMP JUMPDEST JUMPDEST POP SWAP2 SWAP1 POP JUMP JUMPDEST PUSH0 DUP2 SWAP1 POP DUP2 PUSH0 MSTORE PUSH1 0x20 PUSH0 KECCAK256 SWAP1 POP SWAP2 SWAP1 POP JUMP JUMPDEST PUSH0 PUSH1 0x20 PUSH1 0x1F DUP4 ADD DIV SWAP1 POP SWAP2 SWAP1 POP JUMP JUMPDEST PUSH0 DUP3 DUP3 SHL SWAP1 POP SWAP3 SWAP2 POP POP JUMP JUMPDEST PUSH0 PUSH1 0x8 DUP4 MUL PUSH3 0x37D PUSH32 0xFFFFFFFFFFFFFFFFFFFFFFFFFFFFFFFFFFFFFFFFFFFFFFFFFFFFFFFFFFFFFFFF DUP3 PUSH3 0x340 JUMP JUMPDEST PUSH3 0x389 DUP7 DUP4 PUSH3 0x340 JUMP JUMPDEST SWAP6 POP DUP1 NOT DUP5 AND SWAP4 POP DUP1 DUP7 AND DUP5 OR SWAP3 POP POP POP SWAP4 SWAP3 POP POP POP JUMP JUMPDEST PUSH0 DUP2 SWAP1 POP SWAP2 SWAP1 POP JUMP JUMPDEST PUSH0 DUP2 SWAP1 POP SWAP2 SWAP1 POP JUMP JUMPDEST PUSH0 PUSH3 0x3D3 PUSH3 0x3CD PUSH3 0x3C7 DUP5 PUSH3 0x3A1 JUMP JUMPDEST PUSH3 0x3AA JUMP JUMPDEST PUSH3 0x3A1 JUMP JUMPDEST SWAP1 POP SWAP2 SWAP1 POP JUMP JUMPDEST PUSH0 DUP2 SWAP1 POP SWAP2 SWAP1 POP JUMP JUMPDEST PUSH3 0x3EE DUP4 PUSH3 0x3B3 JUMP JUMPDEST PUSH3 0x406 PUSH3 0x3FD DUP3 PUSH3 0x3DA JUMP JUMPDEST DUP5 DUP5 SLOAD PUSH3 0x34C JUMP JUMPDEST DUP3 SSTORE POP POP POP POP JUMP JUMPDEST PUSH0 SWAP1 JUMP JUMPDEST PUSH3 0x41C PUSH3 0x40E JUMP JUMPDEST PUSH3 0x429 DUP2 DUP5 DUP5 PUSH3 0x3E3 JUMP JUMPDEST POP POP POP JUMP JUMPDEST JUMPDEST DUP2 DUP2 LT ISZERO PUSH3 0x450 JUMPI PUSH3 0x444 PUSH0 DUP3 PUSH3 0x412 JUMP JUMPDEST PUSH1 0x1 DUP2 ADD SWAP1 POP PUSH3 0x42F JUMP JUMPDEST POP POP JUMP JUMPDEST PUSH1 0x1F DUP3 GT ISZERO PUSH3 0x49F JUMPI PUSH3 0x469 DUP2 PUSH3 0x31F JUMP JUMPDEST PUSH3 0x474 DUP5 PUSH3 0x331 JUMP JUMPDEST DUP2 ADD PUSH1 0x20 DUP6 LT ISZERO PUSH3 0x484 JUMPI DUP2 SWAP1 POP JUMPDEST PUSH3 0x49C PUSH3 0x493 DUP6 PUSH3 0x331 JUMP JUMPDEST DUP4 ADD DUP3 PUSH3 0x42E JUMP JUMPDEST POP POP JUMPDEST POP POP POP JUMP JUMPDEST PUSH0 DUP3 DUP3 SHR SWAP1 POP SWAP3 SWAP2 POP POP JUMP JUMPDEST PUSH0 PUSH3 0x4C1 PUSH0 NOT DUP5 PUSH1 0x8 MUL PUSH3 0x4A4 JUMP JUMPDEST NOT DUP1 DUP4 AND SWAP2 POP POP SWAP3 SWAP2 POP POP JUMP JUMPDEST PUSH0 PUSH3 0x4DB DUP4 DUP4 PUSH3 0x4B0 JUMP JUMPDEST SWAP2 POP DUP3 PUSH1 0x2 MUL DUP3 OR SWAP1 POP SWAP3 SWAP2 POP POP JUMP JUMPDEST PUSH3 0x4F6 DUP3 PUSH3 0x287 JUMP JUMPDEST PUSH8 0xFFFFFFFFFFFFFFFF DUP2 GT ISZERO PUSH3 0x512 JUMPI PUSH3 0x511 PUSH3 0x291 JUMP JUMPDEST JUMPDEST PUSH3 0x51E DUP3 SLOAD PUSH3 0x2EB JUMP JUMPDEST PUSH3 0x52B DUP3 DUP3 DUP6 PUSH3 0x454 JUMP JUMPDEST PUSH0 PUSH1 0x20 SWAP1 POP PUSH1 0x1F DUP4 GT PUSH1 0x1 DUP2 EQ PUSH3 0x561 JUMPI PUSH0 DUP5 ISZERO PUSH3 0x54C JUMPI DUP3 DUP8 ADD MLOAD SWAP1 POP JUMPDEST PUSH3 0x558 DUP6 DUP3 PUSH3 0x4CE JUMP JUMPDEST DUP7 SSTORE POP PUSH3 0x5C7 JUMP JUMPDEST PUSH1 0x1F NOT DUP5 AND PUSH3 0x571 DUP7 PUSH3 0x31F JUMP JUMPDEST PUSH0 JUMPDEST DUP3 DUP2 LT ISZERO PUSH3 0x59A JUMPI DUP5 DUP10 ADD MLOAD DUP3 SSTORE PUSH1 0x1 DUP3 ADD SWAP2 POP PUSH1 0x20 DUP6 ADD SWAP5 POP PUSH1 0x20 DUP2 ADD SWAP1 POP PUSH3 0x573 JUMP JUMPDEST DUP7 DUP4 LT ISZERO PUSH3 0x5BA JUMPI DUP5 DUP10 ADD MLOAD PUSH3 0x5B6 PUSH1 0x1F DUP10 AND DUP3 PUSH3 0x4B0 JUMP JUMPDEST DUP4 SSTORE POP JUMPDEST PUSH1 0x1 PUSH1 0x2 DUP9 MUL ADD DUP9 SSTORE POP POP POP JUMPDEST POP POP POP POP POP POP JUMP JUMPDEST PUSH0 DUP2 SWAP1 POP SWAP2 SWAP1 POP JUMP JUMPDEST PUSH3 0x5E3 DUP2 PUSH3 0x5CF JUMP JUMPDEST DUP3 MSTORE POP POP JUMP JUMPDEST PUSH3 0x5F4 DUP2 PUSH3 0x3A1 JUMP JUMPDEST DUP3 MSTORE POP POP JUMP JUMPDEST PUSH0 PUSH20 0xFFFFFFFFFFFFFFFFFFFFFFFFFFFFFFFFFFFFFFFF DUP3 AND SWAP1 POP SWAP2 SWAP1 POP JUMP JUMPDEST PUSH0 PUSH3 0x625 DUP3 PUSH3 0x5FA JUMP JUMPDEST SWAP1 POP SWAP2 SWAP1 POP JUMP JUMPDEST PUSH3 0x637 DUP2 PUSH3 0x619 JUMP JUMPDEST DUP3 MSTORE POP POP JUMP JUMPDEST PUSH0 PUSH1 0xA0 DUP3 ADD SWAP1 POP PUSH3 0x652 PUSH0 DUP4 ADD DUP9 PUSH3 0x5D8 JUMP JUMPDEST PUSH3 0x661 PUSH1 0x20 DUP4 ADD DUP8 PUSH3 0x5D8 JUMP JUMPDEST PUSH3 0x670 PUSH1 0x40 DUP4 ADD DUP7 PUSH3 0x5D8 JUMP JUMPDEST PUSH3 0x67F PUSH1 0x60 DUP4 ADD DUP6 PUSH3 0x5E9 JUMP JUMPDEST PUSH3 0x68E PUSH1 0x80 DUP4 ADD DUP5 PUSH3 0x62C JUMP JUMPDEST SWAP7 SWAP6 POP POP POP POP POP POP JUMP JUMPDEST PUSH0 DUP3 DUP3 MSTORE PUSH1 0x20 DUP3 ADD SWAP1 POP SWAP3 SWAP2 POP POP JUMP JUMPDEST PUSH0 JUMPDEST DUP4 DUP2 LT ISZERO PUSH3 0x6C7 JUMPI DUP1 DUP3 ADD MLOAD DUP2 DUP5 ADD MSTORE PUSH1 0x20 DUP2 ADD SWAP1 POP PUSH3 0x6AA JUMP JUMPDEST PUSH0 DUP5 DUP5 ADD MSTORE POP POP POP POP JUMP JUMPDEST PUSH0 PUSH1 0x1F NOT PUSH1 0x1F DUP4 ADD AND SWAP1 POP SWAP2 SWAP1 POP JUMP JUMPDEST PUSH0 PUSH3 0x6EE DUP3 PUSH3 0x287 JUMP JUMPDEST PUSH3 0x6FA DUP2 DUP6 PUSH3 0x698 JUMP JUMPDEST SWAP4 POP PUSH3 0x70C DUP2 DUP6 PUSH1 0x20 DUP7 ADD PUSH3 0x6A8 JUMP JUMPDEST PUSH3 0x717 DUP2 PUSH3 0x6D2 JUMP JUMPDEST DUP5 ADD SWAP2 POP POP SWAP3 SWAP2 POP POP JUMP JUMPDEST PUSH0 PUSH1 0x20 DUP3 ADD SWAP1 POP DUP2 DUP2 SUB PUSH0 DUP4 ADD MSTORE PUSH3 0x73C DUP2 DUP5 PUSH3 0x6E2 JUMP JUMPDEST SWAP1 POP SWAP3 SWAP2 POP POP JUMP JUMPDEST PUSH0 DUP2 MLOAD SWAP1 POP SWAP2 SWAP1 POP JUMP JUMPDEST PUSH0 DUP2 SWAP1 POP PUSH1 0x20 DUP3 ADD SWAP1 POP SWAP2 SWAP1 POP JUMP JUMPDEST PUSH0 PUSH3 0x76A DUP3 MLOAD PUSH3 0x5CF JUMP JUMPDEST DUP1 SWAP2 POP POP SWAP2 SWAP1 POP JUMP JUMPDEST PUSH0 PUSH3 0x77F DUP3 PUSH3 0x744 JUMP JUMPDEST DUP3 PUSH3 0x78B DUP5 PUSH3 0x74E JUMP JUMPDEST SWAP1 POP PUSH3 0x798 DUP2 PUSH3 0x75D JUMP JUMPDEST SWAP3 POP PUSH1 0x20 DUP3 LT ISZERO PUSH3 0x7DB JUMPI PUSH3 0x7D6 PUSH32 0xFFFFFFFFFFFFFFFFFFFFFFFFFFFFFFFFFFFFFFFFFFFFFFFFFFFFFFFFFFFFFFFF DUP4 PUSH1 0x20 SUB PUSH1 0x8 MUL PUSH3 0x340 JUMP JUMPDEST DUP4 AND SWAP3 POP JUMPDEST POP POP SWAP2 SWAP1 POP JUMP JUMPDEST PUSH1 0x80 MLOAD PUSH1 0xA0 MLOAD PUSH1 0xC0 MLOAD PUSH1 0xE0 MLOAD PUSH2 0x100 MLOAD PUSH2 0x120 MLOAD PUSH2 0x140 MLOAD PUSH2 0x7A88 PUSH3 0x834 PUSH0 CODECOPY PUSH0 PUSH2 0x429C ADD MSTORE PUSH0 PUSH2 0x425F ADD MSTORE PUSH0 PUSH2 0x4D8F ADD MSTORE PUSH0 PUSH2 0x4D6E ADD MSTORE PUSH0 PUSH2 0x3FA5 ADD MSTORE PUSH0 PUSH2 0x3FFC ADD MSTORE PUSH0 PUSH2 0x4026 ADD MSTORE PUSH2 0x7A88 PUSH0 RETURN INVALID PUSH1 0x80 PUSH1 0x40 MSTORE CALLVALUE DUP1 ISZERO PUSH3 0x10 JUMPI PUSH0 DUP1 REVERT JUMPDEST POP PUSH1 0x4 CALLDATASIZE LT PUSH3 0x338 JUMPI PUSH0 CALLDATALOAD PUSH1 0xE0 SHR DUP1 PUSH4 0x89AFCB44 GT PUSH3 0x1C3 JUMPI DUP1 PUSH4 0xC45A0155 GT PUSH3 0xFD JUMPI DUP1 PUSH4 0xDD62ED3E GT PUSH3 0xAF JUMPI DUP1 PUSH4 0xEBEB31DB GT PUSH3 0x85 JUMPI DUP1 PUSH4 0xEBEB31DB EQ PUSH3 0xAC3 JUMPI DUP1 PUSH4 0xEE39E7A0 EQ PUSH3 0xAE5 JUMPI DUP1 PUSH4 0xF140A35A EQ PUSH3 0xB07 JUMPI DUP1 PUSH4 0xFFF6CAE9 EQ PUSH3 0xB3D JUMPI PUSH3 0x338 JUMP JUMPDEST DUP1 PUSH4 0xDD62ED3E EQ PUSH3 0xA4B JUMPI DUP1 PUSH4 0xE4463EB2 EQ PUSH3 0xA81 JUMPI DUP1 PUSH4 0xE4BBB5A8 EQ PUSH3 0xAA3 JUMPI PUSH3 0x338 JUMP JUMPDEST DUP1 PUSH4 0xC45A0155 EQ PUSH3 0x982 JUMPI DUP1 PUSH4 0xC47F0027 EQ PUSH3 0x9A4 JUMPI DUP1 PUSH4 0xC5700A02 EQ PUSH3 0x9C4 JUMPI DUP1 PUSH4 0xD21220A7 EQ PUSH3 0x9E6 JUMPI DUP1 PUSH4 0xD294F093 EQ PUSH3 0xA08 JUMPI DUP1 PUSH4 0xD505ACCF EQ PUSH3 0xA2B JUMPI PUSH3 0x338 JUMP JUMPDEST DUP1 PUSH4 0xA1AC4D13 GT PUSH3 0x175 JUMPI DUP1 PUSH4 0xBC25CF77 GT PUSH3 0x14B JUMPI DUP1 PUSH4 0xBC25CF77 EQ PUSH3 0x8FC JUMPI DUP1 PUSH4 0xBDA39CAD EQ PUSH3 0x91C JUMPI DUP1 PUSH4 0xBF944DBC EQ PUSH3 0x93E JUMPI DUP1 PUSH4 0xC245FEBC EQ PUSH3 0x960 JUMPI PUSH3 0x338 JUMP JUMPDEST DUP1 PUSH4 0xA1AC4D13 EQ PUSH3 0x870 JUMPI DUP1 PUSH4 0xA9059CBB EQ PUSH3 0x8A6 JUMPI DUP1 PUSH4 0xB84C8246 EQ PUSH3 0x8DC JUMPI PUSH3 0x338 JUMP JUMPDEST DUP1 PUSH4 0x89AFCB44 EQ PUSH3 0x766 JUMPI DUP1 PUSH4 0x8A7B8CF2 EQ PUSH3 0x79D JUMPI DUP1 PUSH4 0x95D89B41 EQ PUSH3 0x7BF JUMPI DUP1 PUSH4 0x9D63848A EQ PUSH3 0x7E1 JUMPI DUP1 PUSH4 0x9E8CC04B EQ PUSH3 0x804 JUMPI DUP1 PUSH4 0x9F767C88 EQ PUSH3 0x83A JUMPI PUSH3 0x338 JUMP JUMPDEST DUP1 PUSH4 0x313CE567 GT PUSH3 0x295 JUMPI DUP1 PUSH4 0x4D5A9F8A GT PUSH3 0x247 JUMPI DUP1 PUSH4 0x6A627842 GT PUSH3 0x21D JUMPI DUP1 PUSH4 0x6A627842 EQ PUSH3 0x69C JUMPI DUP1 PUSH4 0x70A08231 EQ PUSH3 0x6D2 JUMPI DUP1 PUSH4 0x7ECEBE00 EQ PUSH3 0x708 JUMPI DUP1 PUSH4 0x84B0196E EQ PUSH3 0x73E JUMPI PUSH3 0x338 JUMP JUMPDEST DUP1 PUSH4 0x4D5A9F8A EQ PUSH3 0x60E JUMPI DUP1 PUSH4 0x5881C475 EQ PUSH3 0x644 JUMPI DUP1 PUSH4 0x5A76F25E EQ PUSH3 0x67A JUMPI PUSH3 0x338 JUMP JUMPDEST DUP1 PUSH4 0x313CE567 EQ PUSH3 0x53C JUMPI DUP1 PUSH4 0x32C0DEFD EQ PUSH3 0x55E JUMPI DUP1 PUSH4 0x33580959 EQ PUSH3 0x580 JUMPI DUP1 PUSH4 0x3644E515 EQ PUSH3 0x5A2 JUMPI DUP1 PUSH4 0x392F37E9 EQ PUSH3 0x5C4 JUMPI DUP1 PUSH4 0x443CB4BC EQ PUSH3 0x5EC JUMPI PUSH3 0x338 JUMP JUMPDEST DUP1 PUSH4 0x18160DDD GT PUSH3 0x2EF JUMPI DUP1 PUSH4 0x18160DDD EQ PUSH3 0x430 JUMPI DUP1 PUSH4 0x1DF8C717 EQ PUSH3 0x452 JUMPI DUP1 PUSH4 0x205AABF1 EQ PUSH3 0x476 JUMPI DUP1 PUSH4 0x22BE3DE1 EQ PUSH3 0x4AC JUMPI DUP1 PUSH4 0x23B872DD EQ PUSH3 0x4CE JUMPI DUP1 PUSH4 0x252C09D7 EQ PUSH3 0x504 JUMPI PUSH3 0x338 JUMP JUMPDEST DUP1 PUSH4 0x22C0D9F EQ PUSH3 0x33C JUMPI DUP1 PUSH4 0x6FDDE03 EQ PUSH3 0x35C JUMPI DUP1 PUSH4 0x902F1AC EQ PUSH3 0x37E JUMPI DUP1 PUSH4 0x95EA7B3 EQ PUSH3 0x3A2 JUMPI DUP1 PUSH4 0xDFE1681 EQ PUSH3 0x3D8 JUMPI DUP1 PUSH4 0x13345FE1 EQ PUSH3 0x3FA JUMPI JUMPDEST PUSH0 DUP1 REVERT JUMPDEST PUSH3 0x35A PUSH1 0x4 DUP1 CALLDATASIZE SUB DUP2 ADD SWAP1 PUSH3 0x354 SWAP2 SWAP1 PUSH3 0x5742 JUMP JUMPDEST PUSH3 0xB49 JUMP JUMPDEST STOP JUMPDEST PUSH3 0x366 PUSH3 0x1448 JUMP JUMPDEST PUSH1 0x40 MLOAD PUSH3 0x375 SWAP2 SWAP1 PUSH3 0x5868 JUMP JUMPDEST PUSH1 0x40 MLOAD DUP1 SWAP2 SUB SWAP1 RETURN JUMPDEST PUSH3 0x388 PUSH3 0x14E0 JUMP JUMPDEST PUSH1 0x40 MLOAD PUSH3 0x399 SWAP4 SWAP3 SWAP2 SWAP1 PUSH3 0x589B JUMP JUMPDEST PUSH1 0x40 MLOAD DUP1 SWAP2 SUB SWAP1 RETURN JUMPDEST PUSH3 0x3C0 PUSH1 0x4 DUP1 CALLDATASIZE SUB DUP2 ADD SWAP1 PUSH3 0x3BA SWAP2 SWAP1 PUSH3 0x58D6 JUMP JUMPDEST PUSH3 0x14F7 JUMP JUMPDEST PUSH1 0x40 MLOAD PUSH3 0x3CF SWAP2 SWAP1 PUSH3 0x5937 JUMP JUMPDEST PUSH1 0x40 MLOAD DUP1 SWAP2 SUB SWAP1 RETURN JUMPDEST PUSH3 0x3E2 PUSH3 0x151D JUMP JUMPDEST PUSH1 0x40 MLOAD PUSH3 0x3F1 SWAP2 SWAP1 PUSH3 0x5963 JUMP JUMPDEST PUSH1 0x40 MLOAD DUP1 SWAP2 SUB SWAP1 RETURN JUMPDEST PUSH3 0x418 PUSH1 0x4 DUP1 CALLDATASIZE SUB DUP2 ADD SWAP1 PUSH3 0x412 SWAP2 SWAP1 PUSH3 0x597E JUMP JUMPDEST PUSH3 0x1542 JUMP JUMPDEST PUSH1 0x40 MLOAD PUSH3 0x427 SWAP2 SWAP1 PUSH3 0x5AB4 JUMP JUMPDEST PUSH1 0x40 MLOAD DUP1 SWAP2 SUB SWAP1 RETURN JUMPDEST PUSH3 0x43A PUSH3 0x1773 JUMP JUMPDEST PUSH1 0x40 MLOAD PUSH3 0x449 SWAP2 SWAP1 PUSH3 0x5AD6 JUMP JUMPDEST PUSH1 0x40 MLOAD DUP1 SWAP2 SUB SWAP1 RETURN JUMPDEST PUSH3 0x45C PUSH3 0x177C JUMP JUMPDEST PUSH1 0x40 MLOAD PUSH3 0x46D SWAP4 SWAP3 SWAP2 SWAP1 PUSH3 0x589B JUMP JUMPDEST PUSH1 0x40 MLOAD DUP1 SWAP2 SUB SWAP1 RETURN JUMPDEST PUSH3 0x494 PUSH1 0x4 DUP1 CALLDATASIZE SUB DUP2 ADD SWAP1 PUSH3 0x48E SWAP2 SWAP1 PUSH3 0x5AF1 JUMP JUMPDEST PUSH3 0x17FC JUMP JUMPDEST PUSH1 0x40 MLOAD PUSH3 0x4A3 SWAP2 SWAP1 PUSH3 0x5AD6 JUMP JUMPDEST PUSH1 0x40 MLOAD DUP1 SWAP2 SUB SWAP1 RETURN JUMPDEST PUSH3 0x4B6 PUSH3 0x1811 JUMP JUMPDEST PUSH1 0x40 MLOAD PUSH3 0x4C5 SWAP2 SWAP1 PUSH3 0x5937 JUMP JUMPDEST PUSH1 0x40 MLOAD DUP1 SWAP2 SUB SWAP1 RETURN JUMPDEST PUSH3 0x4EC PUSH1 0x4 DUP1 CALLDATASIZE SUB DUP2 ADD SWAP1 PUSH3 0x4E6 SWAP2 SWAP1 PUSH3 0x5B21 JUMP JUMPDEST PUSH3 0x1824 JUMP JUMPDEST PUSH1 0x40 MLOAD PUSH3 0x4FB SWAP2 SWAP1 PUSH3 0x5937 JUMP JUMPDEST PUSH1 0x40 MLOAD DUP1 SWAP2 SUB SWAP1 RETURN JUMPDEST PUSH3 0x522 PUSH1 0x4 DUP1 CALLDATASIZE SUB DUP2 ADD SWAP1 PUSH3 0x51C SWAP2 SWAP1 PUSH3 0x5B7A JUMP JUMPDEST PUSH3 0x1858 JUMP JUMPDEST PUSH1 0x40 MLOAD PUSH3 0x533 SWAP4 SWAP3 SWAP2 SWAP1 PUSH3 0x589B JUMP JUMPDEST PUSH1 0x40 MLOAD DUP1 SWAP2 SUB SWAP1 RETURN JUMPDEST PUSH3 0x546 PUSH3 0x188E JUMP JUMPDEST PUSH1 0x40 MLOAD PUSH3 0x555 SWAP2 SWAP1 PUSH3 0x5BC7 JUMP JUMPDEST PUSH1 0x40 MLOAD DUP1 SWAP2 SUB SWAP1 RETURN JUMPDEST PUSH3 0x568 PUSH3 0x1896 JUMP JUMPDEST PUSH1 0x40 MLOAD PUSH3 0x577 SWAP2 SWAP1 PUSH3 0x5AD6 JUMP JUMPDEST PUSH1 0x40 MLOAD DUP1 SWAP2 SUB SWAP1 RETURN JUMPDEST PUSH3 0x58A PUSH3 0x189C JUMP JUMPDEST PUSH1 0x40 MLOAD PUSH3 0x599 SWAP2 SWAP1 PUSH3 0x5963 JUMP JUMPDEST PUSH1 0x40 MLOAD DUP1 SWAP2 SUB SWAP1 RETURN JUMPDEST PUSH3 0x5AC PUSH3 0x18C1 JUMP JUMPDEST PUSH1 0x40 MLOAD PUSH3 0x5BB SWAP2 SWAP1 PUSH3 0x5BFC JUMP JUMPDEST PUSH1 0x40 MLOAD DUP1 SWAP2 SUB SWAP1 RETURN JUMPDEST PUSH3 0x5CE PUSH3 0x18D1 JUMP JUMPDEST PUSH1 0x40 MLOAD PUSH3 0x5E3 SWAP8 SWAP7 SWAP6 SWAP5 SWAP4 SWAP3 SWAP2 SWAP1 PUSH3 0x5C17 JUMP JUMPDEST PUSH1 0x40 MLOAD DUP1 SWAP2 SUB SWAP1 RETURN JUMPDEST PUSH3 0x5F6 PUSH3 0x194F JUMP JUMPDEST PUSH1 0x40 MLOAD PUSH3 0x605 SWAP2 SWAP1 PUSH3 0x5AD6 JUMP JUMPDEST PUSH1 0x40 MLOAD DUP1 SWAP2 SUB SWAP1 RETURN JUMPDEST PUSH3 0x62C PUSH1 0x4 DUP1 CALLDATASIZE SUB DUP2 ADD SWAP1 PUSH3 0x626 SWAP2 SWAP1 PUSH3 0x5AF1 JUMP JUMPDEST PUSH3 0x1955 JUMP JUMPDEST PUSH1 0x40 MLOAD PUSH3 0x63B SWAP2 SWAP1 PUSH3 0x5AD6 JUMP JUMPDEST PUSH1 0x40 MLOAD DUP1 SWAP2 SUB SWAP1 RETURN JUMPDEST PUSH3 0x662 PUSH1 0x4 DUP1 CALLDATASIZE SUB DUP2 ADD SWAP1 PUSH3 0x65C SWAP2 SWAP1 PUSH3 0x5C92 JUMP JUMPDEST PUSH3 0x196A JUMP JUMPDEST PUSH1 0x40 MLOAD PUSH3 0x671 SWAP2 SWAP1 PUSH3 0x5AB4 JUMP JUMPDEST PUSH1 0x40 MLOAD DUP1 SWAP2 SUB SWAP1 RETURN JUMPDEST PUSH3 0x684 PUSH3 0x1984 JUMP JUMPDEST PUSH1 0x40 MLOAD PUSH3 0x693 SWAP2 SWAP1 PUSH3 0x5AD6 JUMP JUMPDEST PUSH1 0x40 MLOAD DUP1 SWAP2 SUB SWAP1 RETURN JUMPDEST PUSH3 0x6BA PUSH1 0x4 DUP1 CALLDATASIZE SUB DUP2 ADD SWAP1 PUSH3 0x6B4 SWAP2 SWAP1 PUSH3 0x5AF1 JUMP JUMPDEST PUSH3 0x198A JUMP JUMPDEST PUSH1 0x40 MLOAD PUSH3 0x6C9 SWAP2 SWAP1 PUSH3 0x5AD6 JUMP JUMPDEST PUSH1 0x40 MLOAD DUP1 SWAP2 SUB SWAP1 RETURN JUMPDEST PUSH3 0x6F0 PUSH1 0x4 DUP1 CALLDATASIZE SUB DUP2 ADD SWAP1 PUSH3 0x6EA SWAP2 SWAP1 PUSH3 0x5AF1 JUMP JUMPDEST PUSH3 0x1D43 JUMP JUMPDEST PUSH1 0x40 MLOAD PUSH3 0x6FF SWAP2 SWAP1 PUSH3 0x5AD6 JUMP JUMPDEST PUSH1 0x40 MLOAD DUP1 SWAP2 SUB SWAP1 RETURN JUMPDEST PUSH3 0x726 PUSH1 0x4 DUP1 CALLDATASIZE SUB DUP2 ADD SWAP1 PUSH3 0x720 SWAP2 SWAP1 PUSH3 0x5AF1 JUMP JUMPDEST PUSH3 0x1D88 JUMP JUMPDEST PUSH1 0x40 MLOAD PUSH3 0x735 SWAP2 SWAP1 PUSH3 0x5AD6 JUMP JUMPDEST PUSH1 0x40 MLOAD DUP1 SWAP2 SUB SWAP1 RETURN JUMPDEST PUSH3 0x748 PUSH3 0x1D9B JUMP JUMPDEST PUSH1 0x40 MLOAD PUSH3 0x75D SWAP8 SWAP7 SWAP6 SWAP5 SWAP4 SWAP3 SWAP2 SWAP1 PUSH3 0x5D27 JUMP JUMPDEST PUSH1 0x40 MLOAD DUP1 SWAP2 SUB SWAP1 RETURN JUMPDEST PUSH3 0x784 PUSH1 0x4 DUP1 CALLDATASIZE SUB DUP2 ADD SWAP1 PUSH3 0x77E SWAP2 SWAP1 PUSH3 0x5AF1 JUMP JUMPDEST PUSH3 0x1E48 JUMP JUMPDEST PUSH1 0x40 MLOAD PUSH3 0x794 SWAP3 SWAP2 SWAP1 PUSH3 0x5DB7 JUMP JUMPDEST PUSH1 0x40 MLOAD DUP1 SWAP2 SUB SWAP1 RETURN JUMPDEST PUSH3 0x7A7 PUSH3 0x2240 JUMP JUMPDEST PUSH1 0x40 MLOAD PUSH3 0x7B6 SWAP2 SWAP1 PUSH3 0x5E28 JUMP JUMPDEST PUSH1 0x40 MLOAD DUP1 SWAP2 SUB SWAP1 RETURN JUMPDEST PUSH3 0x7C9 PUSH3 0x22AD JUMP JUMPDEST PUSH1 0x40 MLOAD PUSH3 0x7D8 SWAP2 SWAP1 PUSH3 0x5868 JUMP JUMPDEST PUSH1 0x40 MLOAD DUP1 SWAP2 SUB SWAP1 RETURN JUMPDEST PUSH3 0x7EB PUSH3 0x2345 JUMP JUMPDEST PUSH1 0x40 MLOAD PUSH3 0x7FB SWAP3 SWAP2 SWAP1 PUSH3 0x5E43 JUMP JUMPDEST PUSH1 0x40 MLOAD DUP1 SWAP2 SUB SWAP1 RETURN JUMPDEST PUSH3 0x822 PUSH1 0x4 DUP1 CALLDATASIZE SUB DUP2 ADD SWAP1 PUSH3 0x81C SWAP2 SWAP1 PUSH3 0x5C92 JUMP JUMPDEST PUSH3 0x2393 JUMP JUMPDEST PUSH1 0x40 MLOAD PUSH3 0x831 SWAP2 SWAP1 PUSH3 0x5AD6 JUMP JUMPDEST PUSH1 0x40 MLOAD DUP1 SWAP2 SUB SWAP1 RETURN JUMPDEST PUSH3 0x858 PUSH1 0x4 DUP1 CALLDATASIZE SUB DUP2 ADD SWAP1 PUSH3 0x852 SWAP2 SWAP1 PUSH3 0x5AF1 JUMP JUMPDEST PUSH3 0x2415 JUMP JUMPDEST PUSH1 0x40 MLOAD PUSH3 0x867 SWAP2 SWAP1 PUSH3 0x5AD6 JUMP JUMPDEST PUSH1 0x40 MLOAD DUP1 SWAP2 SUB SWAP1 RETURN JUMPDEST PUSH3 0x88E PUSH1 0x4 DUP1 CALLDATASIZE SUB DUP2 ADD SWAP1 PUSH3 0x888 SWAP2 SWAP1 PUSH3 0x5AF1 JUMP JUMPDEST PUSH3 0x242A JUMP JUMPDEST PUSH1 0x40 MLOAD PUSH3 0x89D SWAP2 SWAP1 PUSH3 0x5AD6 JUMP JUMPDEST PUSH1 0x40 MLOAD DUP1 SWAP2 SUB SWAP1 RETURN JUMPDEST PUSH3 0x8C4 PUSH1 0x4 DUP1 CALLDATASIZE SUB DUP2 ADD SWAP1 PUSH3 0x8BE SWAP2 SWAP1 PUSH3 0x58D6 JUMP JUMPDEST PUSH3 0x243F JUMP JUMPDEST PUSH1 0x40 MLOAD PUSH3 0x8D3 SWAP2 SWAP1 PUSH3 0x5937 JUMP JUMPDEST PUSH1 0x40 MLOAD DUP1 SWAP2 SUB SWAP1 RETURN JUMPDEST PUSH3 0x8FA PUSH1 0x4 DUP1 CALLDATASIZE SUB DUP2 ADD SWAP1 PUSH3 0x8F4 SWAP2 SWAP1 PUSH3 0x5ECC JUMP JUMPDEST PUSH3 0x2465 JUMP JUMPDEST STOP JUMPDEST PUSH3 0x91A PUSH1 0x4 DUP1 CALLDATASIZE SUB DUP2 ADD SWAP1 PUSH3 0x914 SWAP2 SWAP1 PUSH3 0x5AF1 JUMP JUMPDEST PUSH3 0x2573 JUMP JUMPDEST STOP JUMPDEST PUSH3 0x926 PUSH3 0x2746 JUMP JUMPDEST PUSH1 0x40 MLOAD PUSH3 0x935 SWAP2 SWAP1 PUSH3 0x5AD6 JUMP JUMPDEST PUSH1 0x40 MLOAD DUP1 SWAP2 SUB SWAP1 RETURN JUMPDEST PUSH3 0x948 PUSH3 0x274C JUMP JUMPDEST PUSH1 0x40 MLOAD PUSH3 0x957 SWAP2 SWAP1 PUSH3 0x5AD6 JUMP JUMPDEST PUSH1 0x40 MLOAD DUP1 SWAP2 SUB SWAP1 RETURN JUMPDEST PUSH3 0x96A PUSH3 0x2752 JUMP JUMPDEST PUSH1 0x40 MLOAD PUSH3 0x979 SWAP2 SWAP1 PUSH3 0x5AD6 JUMP JUMPDEST PUSH1 0x40 MLOAD DUP1 SWAP2 SUB SWAP1 RETURN JUMPDEST PUSH3 0x98C PUSH3 0x2758 JUMP JUMPDEST PUSH1 0x40 MLOAD PUSH3 0x99B SWAP2 SWAP1 PUSH3 0x5963 JUMP JUMPDEST PUSH1 0x40 MLOAD DUP1 SWAP2 SUB SWAP1 RETURN JUMPDEST PUSH3 0x9C2 PUSH1 0x4 DUP1 CALLDATASIZE SUB DUP2 ADD SWAP1 PUSH3 0x9BC SWAP2 SWAP1 PUSH3 0x5ECC JUMP JUMPDEST PUSH3 0x277D JUMP JUMPDEST STOP JUMPDEST PUSH3 0x9CE PUSH3 0x288B JUMP JUMPDEST PUSH1 0x40 MLOAD PUSH3 0x9DD SWAP2 SWAP1 PUSH3 0x5AD6 JUMP JUMPDEST PUSH1 0x40 MLOAD DUP1 SWAP2 SUB SWAP1 RETURN JUMPDEST PUSH3 0x9F0 PUSH3 0x2891 JUMP JUMPDEST PUSH1 0x40 MLOAD PUSH3 0x9FF SWAP2 SWAP1 PUSH3 0x5963 JUMP JUMPDEST PUSH1 0x40 MLOAD DUP1 SWAP2 SUB SWAP1 RETURN JUMPDEST PUSH3 0xA12 PUSH3 0x28B6 JUMP JUMPDEST PUSH1 0x40 MLOAD PUSH3 0xA22 SWAP3 SWAP2 SWAP1 PUSH3 0x5DB7 JUMP JUMPDEST PUSH1 0x40 MLOAD DUP1 SWAP2 SUB SWAP1 RETURN JUMPDEST PUSH3 0xA49 PUSH1 0x4 DUP1 CALLDATASIZE SUB DUP2 ADD SWAP1 PUSH3 0xA43 SWAP2 SWAP1 PUSH3 0x5F7D JUMP JUMPDEST PUSH3 0x2AE6 JUMP JUMPDEST STOP JUMPDEST PUSH3 0xA69 PUSH1 0x4 DUP1 CALLDATASIZE SUB DUP2 ADD SWAP1 PUSH3 0xA63 SWAP2 SWAP1 PUSH3 0x602B JUMP JUMPDEST PUSH3 0x2C3B JUMP JUMPDEST PUSH1 0x40 MLOAD PUSH3 0xA78 SWAP2 SWAP1 PUSH3 0x5AD6 JUMP JUMPDEST PUSH1 0x40 MLOAD DUP1 SWAP2 SUB SWAP1 RETURN JUMPDEST PUSH3 0xA8B PUSH3 0x2CBD JUMP JUMPDEST PUSH1 0x40 MLOAD PUSH3 0xA9A SWAP2 SWAP1 PUSH3 0x5AD6 JUMP JUMPDEST PUSH1 0x40 MLOAD DUP1 SWAP2 SUB SWAP1 RETURN JUMPDEST PUSH3 0xAC1 PUSH1 0x4 DUP1 CALLDATASIZE SUB DUP2 ADD SWAP1 PUSH3 0xABB SWAP2 SWAP1 PUSH3 0x609F JUMP JUMPDEST PUSH3 0x2CC3 JUMP JUMPDEST STOP JUMPDEST PUSH3 0xACD PUSH3 0x32BE JUMP JUMPDEST PUSH1 0x40 MLOAD PUSH3 0xADC SWAP2 SWAP1 PUSH3 0x5AD6 JUMP JUMPDEST PUSH1 0x40 MLOAD DUP1 SWAP2 SUB SWAP1 RETURN JUMPDEST PUSH3 0xAEF PUSH3 0x32CA JUMP JUMPDEST PUSH1 0x40 MLOAD PUSH3 0xAFE SWAP2 SWAP1 PUSH3 0x5AD6 JUMP JUMPDEST PUSH1 0x40 MLOAD DUP1 SWAP2 SUB SWAP1 RETURN JUMPDEST PUSH3 0xB25 PUSH1 0x4 DUP1 CALLDATASIZE SUB DUP2 ADD SWAP1 PUSH3 0xB1F SWAP2 SWAP1 PUSH3 0x60F8 JUMP JUMPDEST PUSH3 0x32F4 JUMP JUMPDEST PUSH1 0x40 MLOAD PUSH3 0xB34 SWAP2 SWAP1 PUSH3 0x5AD6 JUMP JUMPDEST PUSH1 0x40 MLOAD DUP1 SWAP2 SUB SWAP1 RETURN JUMPDEST PUSH3 0xB47 PUSH3 0x33F3 JUMP JUMPDEST STOP JUMPDEST PUSH3 0xB53 PUSH3 0x3555 JUMP JUMPDEST PUSH1 0xF PUSH0 SWAP1 SLOAD SWAP1 PUSH2 0x100 EXP SWAP1 DIV PUSH20 0xFFFFFFFFFFFFFFFFFFFFFFFFFFFFFFFFFFFFFFFF AND PUSH20 0xFFFFFFFFFFFFFFFFFFFFFFFFFFFFFFFFFFFFFFFF AND PUSH4 0xB187BD26 PUSH1 0x40 MLOAD DUP2 PUSH4 0xFFFFFFFF AND PUSH1 0xE0 SHL DUP2 MSTORE PUSH1 0x4 ADD PUSH1 0x20 PUSH1 0x40 MLOAD DUP1 DUP4 SUB DUP2 DUP7 GAS STATICCALL ISZERO DUP1 ISZERO PUSH3 0xBBE JUMPI RETURNDATASIZE PUSH0 DUP1 RETURNDATACOPY RETURNDATASIZE PUSH0 REVERT JUMPDEST POP POP POP POP PUSH1 0x40 MLOAD RETURNDATASIZE PUSH1 0x1F NOT PUSH1 0x1F DUP3 ADD AND DUP3 ADD DUP1 PUSH1 0x40 MSTORE POP DUP2 ADD SWAP1 PUSH3 0xBE4 SWAP2 SWAP1 PUSH3 0x6153 JUMP JUMPDEST ISZERO PUSH3 0xC1C JUMPI PUSH1 0x40 MLOAD PUSH32 0x1309A56300000000000000000000000000000000000000000000000000000000 DUP2 MSTORE PUSH1 0x4 ADD PUSH1 0x40 MLOAD DUP1 SWAP2 SUB SWAP1 REVERT JUMPDEST PUSH0 DUP6 EQ DUP1 ISZERO PUSH3 0xC2B JUMPI POP PUSH0 DUP5 EQ JUMPDEST ISZERO PUSH3 0xC63 JUMPI PUSH1 0x40 MLOAD PUSH32 0x42301C2300000000000000000000000000000000000000000000000000000000 DUP2 MSTORE PUSH1 0x4 ADD PUSH1 0x40 MLOAD DUP1 SWAP2 SUB SWAP1 REVERT JUMPDEST PUSH0 DUP1 PUSH1 0x13 SLOAD PUSH1 0x14 SLOAD SWAP2 POP SWAP2 POP DUP2 DUP8 LT ISZERO DUP1 PUSH3 0xC7F JUMPI POP DUP1 DUP7 LT ISZERO JUMPDEST ISZERO PUSH3 0xCB7 JUMPI PUSH1 0x40 MLOAD PUSH32 0xBB55FD2700000000000000000000000000000000000000000000000000000000 DUP2 MSTORE PUSH1 0x4 ADD PUSH1 0x40 MLOAD DUP1 SWAP2 SUB SWAP1 REVERT JUMPDEST PUSH0 DUP1 PUSH0 DUP1 PUSH1 0xC PUSH0 SWAP1 SLOAD SWAP1 PUSH2 0x100 EXP SWAP1 DIV PUSH20 0xFFFFFFFFFFFFFFFFFFFFFFFFFFFFFFFFFFFFFFFF AND PUSH1 0xD PUSH0 SWAP1 SLOAD SWAP1 PUSH2 0x100 EXP SWAP1 DIV PUSH20 0xFFFFFFFFFFFFFFFFFFFFFFFFFFFFFFFFFFFFFFFF AND SWAP2 POP SWAP2 POP DUP2 PUSH20 0xFFFFFFFFFFFFFFFFFFFFFFFFFFFFFFFFFFFFFFFF AND DUP10 PUSH20 0xFFFFFFFFFFFFFFFFFFFFFFFFFFFFFFFFFFFFFFFF AND EQ DUP1 PUSH3 0xD69 JUMPI POP DUP1 PUSH20 0xFFFFFFFFFFFFFFFFFFFFFFFFFFFFFFFFFFFFFFFF AND DUP10 PUSH20 0xFFFFFFFFFFFFFFFFFFFFFFFFFFFFFFFFFFFFFFFF AND EQ JUMPDEST ISZERO PUSH3 0xDA1 JUMPI PUSH1 0x40 MLOAD PUSH32 0x290FA18800000000000000000000000000000000000000000000000000000000 DUP2 MSTORE PUSH1 0x4 ADD PUSH1 0x40 MLOAD DUP1 SWAP2 SUB SWAP1 REVERT JUMPDEST PUSH0 DUP12 GT ISZERO PUSH3 0xDD8 JUMPI PUSH3 0xDD7 DUP10 DUP13 DUP5 PUSH20 0xFFFFFFFFFFFFFFFFFFFFFFFFFFFFFFFFFFFFFFFF AND PUSH3 0x359C SWAP1 SWAP3 SWAP2 SWAP1 PUSH4 0xFFFFFFFF AND JUMP JUMPDEST JUMPDEST PUSH0 DUP11 GT ISZERO PUSH3 0xE0F JUMPI PUSH3 0xE0E DUP10 DUP12 DUP4 PUSH20 0xFFFFFFFFFFFFFFFFFFFFFFFFFFFFFFFFFFFFFFFF AND PUSH3 0x359C SWAP1 SWAP3 SWAP2 SWAP1 PUSH4 0xFFFFFFFF AND JUMP JUMPDEST JUMPDEST PUSH0 DUP9 DUP9 SWAP1 POP GT ISZERO PUSH3 0xE97 JUMPI DUP9 PUSH20 0xFFFFFFFFFFFFFFFFFFFFFFFFFFFFFFFFFFFFFFFF AND PUSH4 0x9A7BFF79 PUSH3 0xE41 PUSH3 0x361F JUMP JUMPDEST DUP14 DUP14 DUP13 DUP13 PUSH1 0x40 MLOAD DUP7 PUSH4 0xFFFFFFFF AND PUSH1 0xE0 SHL DUP2 MSTORE PUSH1 0x4 ADD PUSH3 0xE67 SWAP6 SWAP5 SWAP4 SWAP3 SWAP2 SWAP1 PUSH3 0x61D3 JUMP JUMPDEST PUSH0 PUSH1 0x40 MLOAD DUP1 DUP4 SUB DUP2 PUSH0 DUP8 DUP1 EXTCODESIZE ISZERO DUP1 ISZERO PUSH3 0xE7F JUMPI PUSH0 DUP1 REVERT JUMPDEST POP GAS CALL ISZERO DUP1 ISZERO PUSH3 0xE92 JUMPI RETURNDATASIZE PUSH0 DUP1 RETURNDATACOPY RETURNDATASIZE PUSH0 REVERT JUMPDEST POP POP POP POP JUMPDEST DUP2 PUSH20 0xFFFFFFFFFFFFFFFFFFFFFFFFFFFFFFFFFFFFFFFF AND PUSH4 0x70A08231 ADDRESS PUSH1 0x40 MLOAD DUP3 PUSH4 0xFFFFFFFF AND PUSH1 0xE0 SHL DUP2 MSTORE PUSH1 0x4 ADD PUSH3 0xED2 SWAP2 SWAP1 PUSH3 0x5963 JUMP JUMPDEST PUSH1 0x20 PUSH1 0x40 MLOAD DUP1 DUP4 SUB DUP2 DUP7 GAS STATICCALL ISZERO DUP1 ISZERO PUSH3 0xEEE JUMPI RETURNDATASIZE PUSH0 DUP1 RETURNDATACOPY RETURNDATASIZE PUSH0 REVERT JUMPDEST POP POP POP POP PUSH1 0x40 MLOAD RETURNDATASIZE PUSH1 0x1F NOT PUSH1 0x1F DUP3 ADD AND DUP3 ADD DUP1 PUSH1 0x40 MSTORE POP DUP2 ADD SWAP1 PUSH3 0xF14 SWAP2 SWAP1 PUSH3 0x623D JUMP JUMPDEST SWAP4 POP DUP1 PUSH20 0xFFFFFFFFFFFFFFFFFFFFFFFFFFFFFFFFFFFFFFFF AND PUSH4 0x70A08231 ADDRESS PUSH1 0x40 MLOAD DUP3 PUSH4 0xFFFFFFFF AND PUSH1 0xE0 SHL DUP2 MSTORE PUSH1 0x4 ADD PUSH3 0xF51 SWAP2 SWAP1 PUSH3 0x5963 JUMP JUMPDEST PUSH1 0x20 PUSH1 0x40 MLOAD DUP1 DUP4 SUB DUP2 DUP7 GAS STATICCALL ISZERO DUP1 ISZERO PUSH3 0xF6D JUMPI RETURNDATASIZE PUSH0 DUP1 RETURNDATACOPY RETURNDATASIZE PUSH0 REVERT JUMPDEST POP POP POP POP PUSH1 0x40 MLOAD RETURNDATASIZE PUSH1 0x1F NOT PUSH1 0x1F DUP3 ADD AND DUP3 ADD DUP1 PUSH1 0x40 MSTORE POP DUP2 ADD SWAP1 PUSH3 0xF93 SWAP2 SWAP1 PUSH3 0x623D JUMP JUMPDEST SWAP3 POP POP POP PUSH0 DUP10 DUP6 PUSH3 0xFA6 SWAP2 SWAP1 PUSH3 0x629A JUMP JUMPDEST DUP4 GT PUSH3 0xFB4 JUMPI PUSH0 PUSH3 0xFD0 JUMP JUMPDEST DUP10 DUP6 PUSH3 0xFC2 SWAP2 SWAP1 PUSH3 0x629A JUMP JUMPDEST DUP4 PUSH3 0xFCF SWAP2 SWAP1 PUSH3 0x629A JUMP JUMPDEST JUMPDEST SWAP1 POP PUSH0 DUP10 DUP6 PUSH3 0xFE1 SWAP2 SWAP1 PUSH3 0x629A JUMP JUMPDEST DUP4 GT PUSH3 0xFEF JUMPI PUSH0 PUSH3 0x100B JUMP JUMPDEST DUP10 DUP6 PUSH3 0xFFD SWAP2 SWAP1 PUSH3 0x629A JUMP JUMPDEST DUP4 PUSH3 0x100A SWAP2 SWAP1 PUSH3 0x629A JUMP JUMPDEST JUMPDEST SWAP1 POP PUSH0 DUP3 EQ DUP1 ISZERO PUSH3 0x101C JUMPI POP PUSH0 DUP2 EQ JUMPDEST ISZERO PUSH3 0x1054 JUMPI PUSH1 0x40 MLOAD PUSH32 0x98FB56100000000000000000000000000000000000000000000000000000000 DUP2 MSTORE PUSH1 0x4 ADD PUSH1 0x40 MLOAD DUP1 SWAP2 SUB SWAP1 REVERT JUMPDEST PUSH0 DUP1 PUSH1 0xC PUSH0 SWAP1 SLOAD SWAP1 PUSH2 0x100 EXP SWAP1 DIV PUSH20 0xFFFFFFFFFFFFFFFFFFFFFFFFFFFFFFFFFFFFFFFF AND PUSH1 0xD PUSH0 SWAP1 SLOAD SWAP1 PUSH2 0x100 EXP SWAP1 DIV PUSH20 0xFFFFFFFFFFFFFFFFFFFFFFFFFFFFFFFFFFFFFFFF AND SWAP2 POP SWAP2 POP PUSH0 DUP5 GT ISZERO PUSH3 0x117D JUMPI PUSH3 0x117C PUSH2 0x2710 PUSH1 0xF PUSH0 SWAP1 SLOAD SWAP1 PUSH2 0x100 EXP SWAP1 DIV PUSH20 0xFFFFFFFFFFFFFFFFFFFFFFFFFFFFFFFFFFFFFFFF AND PUSH20 0xFFFFFFFFFFFFFFFFFFFFFFFFFFFFFFFFFFFFFFFF AND PUSH4 0xCC56B2C5 ADDRESS PUSH1 0xB PUSH1 0x14 SWAP1 SLOAD SWAP1 PUSH2 0x100 EXP SWAP1 DIV PUSH1 0xFF AND PUSH1 0x40 MLOAD DUP4 PUSH4 0xFFFFFFFF AND PUSH1 0xE0 SHL DUP2 MSTORE PUSH1 0x4 ADD PUSH3 0x111B SWAP3 SWAP2 SWAP1 PUSH3 0x62D4 JUMP JUMPDEST PUSH1 0x20 PUSH1 0x40 MLOAD DUP1 DUP4 SUB DUP2 DUP7 GAS STATICCALL ISZERO DUP1 ISZERO PUSH3 0x1137 JUMPI RETURNDATASIZE PUSH0 DUP1 RETURNDATACOPY RETURNDATASIZE PUSH0 REVERT JUMPDEST POP POP POP POP PUSH1 0x40 MLOAD RETURNDATASIZE PUSH1 0x1F NOT PUSH1 0x1F DUP3 ADD AND DUP3 ADD DUP1 PUSH1 0x40 MSTORE POP DUP2 ADD SWAP1 PUSH3 0x115D SWAP2 SWAP1 PUSH3 0x623D JUMP JUMPDEST DUP7 PUSH3 0x116A SWAP2 SWAP1 PUSH3 0x62FF JUMP JUMPDEST PUSH3 0x1176 SWAP2 SWAP1 PUSH3 0x6376 JUMP JUMPDEST PUSH3 0x3626 JUMP JUMPDEST JUMPDEST PUSH0 DUP4 GT ISZERO PUSH3 0x125C JUMPI PUSH3 0x125B PUSH2 0x2710 PUSH1 0xF PUSH0 SWAP1 SLOAD SWAP1 PUSH2 0x100 EXP SWAP1 DIV PUSH20 0xFFFFFFFFFFFFFFFFFFFFFFFFFFFFFFFFFFFFFFFF AND PUSH20 0xFFFFFFFFFFFFFFFFFFFFFFFFFFFFFFFFFFFFFFFF AND PUSH4 0xCC56B2C5 ADDRESS PUSH1 0xB PUSH1 0x14 SWAP1 SLOAD SWAP1 PUSH2 0x100 EXP SWAP1 DIV PUSH1 0xFF AND PUSH1 0x40 MLOAD DUP4 PUSH4 0xFFFFFFFF AND PUSH1 0xE0 SHL DUP2 MSTORE PUSH1 0x4 ADD PUSH3 0x11FA SWAP3 SWAP2 SWAP1 PUSH3 0x62D4 JUMP JUMPDEST PUSH1 0x20 PUSH1 0x40 MLOAD DUP1 DUP4 SUB DUP2 DUP7 GAS STATICCALL ISZERO DUP1 ISZERO PUSH3 0x1216 JUMPI RETURNDATASIZE PUSH0 DUP1 RETURNDATACOPY RETURNDATASIZE PUSH0 REVERT JUMPDEST POP POP POP POP PUSH1 0x40 MLOAD RETURNDATASIZE PUSH1 0x1F NOT PUSH1 0x1F DUP3 ADD AND DUP3 ADD DUP1 PUSH1 0x40 MSTORE POP DUP2 ADD SWAP1 PUSH3 0x123C SWAP2 SWAP1 PUSH3 0x623D JUMP JUMPDEST DUP6 PUSH3 0x1249 SWAP2 SWAP1 PUSH3 0x62FF JUMP JUMPDEST PUSH3 0x1255 SWAP2 SWAP1 PUSH3 0x6376 JUMP JUMPDEST PUSH3 0x3751 JUMP JUMPDEST JUMPDEST DUP2 PUSH20 0xFFFFFFFFFFFFFFFFFFFFFFFFFFFFFFFFFFFFFFFF AND PUSH4 0x70A08231 ADDRESS PUSH1 0x40 MLOAD DUP3 PUSH4 0xFFFFFFFF AND PUSH1 0xE0 SHL DUP2 MSTORE PUSH1 0x4 ADD PUSH3 0x1297 SWAP2 SWAP1 PUSH3 0x5963 JUMP JUMPDEST PUSH1 0x20 PUSH1 0x40 MLOAD DUP1 DUP4 SUB DUP2 DUP7 GAS STATICCALL ISZERO DUP1 ISZERO PUSH3 0x12B3 JUMPI RETURNDATASIZE PUSH0 DUP1 RETURNDATACOPY RETURNDATASIZE PUSH0 REVERT JUMPDEST POP POP POP POP PUSH1 0x40 MLOAD RETURNDATASIZE PUSH1 0x1F NOT PUSH1 0x1F DUP3 ADD AND DUP3 ADD DUP1 PUSH1 0x40 MSTORE POP DUP2 ADD SWAP1 PUSH3 0x12D9 SWAP2 SWAP1 PUSH3 0x623D JUMP JUMPDEST SWAP6 POP DUP1 PUSH20 0xFFFFFFFFFFFFFFFFFFFFFFFFFFFFFFFFFFFFFFFF AND PUSH4 0x70A08231 ADDRESS PUSH1 0x40 MLOAD DUP3 PUSH4 0xFFFFFFFF AND PUSH1 0xE0 SHL DUP2 MSTORE PUSH1 0x4 ADD PUSH3 0x1316 SWAP2 SWAP1 PUSH3 0x5963 JUMP JUMPDEST PUSH1 0x20 PUSH1 0x40 MLOAD DUP1 DUP4 SUB DUP2 DUP7 GAS STATICCALL ISZERO DUP1 ISZERO PUSH3 0x1332 JUMPI RETURNDATASIZE PUSH0 DUP1 RETURNDATACOPY RETURNDATASIZE PUSH0 REVERT JUMPDEST POP POP POP POP PUSH1 0x40 MLOAD RETURNDATASIZE PUSH1 0x1F NOT PUSH1 0x1F DUP3 ADD AND DUP3 ADD DUP1 PUSH1 0x40 MSTORE POP DUP2 ADD SWAP1 PUSH3 0x1358 SWAP2 SWAP1 PUSH3 0x623D JUMP JUMPDEST SWAP5 POP PUSH3 0x1366 DUP9 DUP9 PUSH3 0x387C JUMP JUMPDEST PUSH3 0x1372 DUP8 DUP8 PUSH3 0x387C JUMP JUMPDEST LT ISZERO PUSH3 0x13AB JUMPI PUSH1 0x40 MLOAD PUSH32 0xA932492F00000000000000000000000000000000000000000000000000000000 DUP2 MSTORE PUSH1 0x4 ADD PUSH1 0x40 MLOAD DUP1 SWAP2 SUB SWAP1 REVERT JUMPDEST POP POP PUSH3 0x13BB DUP5 DUP5 DUP9 DUP9 PUSH3 0x39A4 JUMP JUMPDEST DUP9 PUSH20 0xFFFFFFFFFFFFFFFFFFFFFFFFFFFFFFFFFFFFFFFF AND PUSH3 0x13DC PUSH3 0x361F JUMP JUMPDEST PUSH20 0xFFFFFFFFFFFFFFFFFFFFFFFFFFFFFFFFFFFFFFFF AND PUSH32 0xB3E2773606ABFD36B5BD91394B3A54D1398336C65005BAF7BF7A05EFEFFAF75B DUP5 DUP5 DUP16 DUP16 PUSH1 0x40 MLOAD PUSH3 0x1429 SWAP5 SWAP4 SWAP3 SWAP2 SWAP1 PUSH3 0x63AD JUMP JUMPDEST PUSH1 0x40 MLOAD DUP1 SWAP2 SUB SWAP1 LOG3 POP POP POP POP POP POP PUSH3 0x1441 PUSH3 0x3B1B JUMP JUMPDEST POP POP POP POP POP JUMP JUMPDEST PUSH1 0x60 PUSH1 0x9 DUP1 SLOAD PUSH3 0x1459 SWAP1 PUSH3 0x6425 JUMP JUMPDEST DUP1 PUSH1 0x1F ADD PUSH1 0x20 DUP1 SWAP2 DIV MUL PUSH1 0x20 ADD PUSH1 0x40 MLOAD SWAP1 DUP2 ADD PUSH1 0x40 MSTORE DUP1 SWAP3 SWAP2 SWAP1 DUP2 DUP2 MSTORE PUSH1 0x20 ADD DUP3 DUP1 SLOAD PUSH3 0x1487 SWAP1 PUSH3 0x6425 JUMP JUMPDEST DUP1 ISZERO PUSH3 0x14D6 JUMPI DUP1 PUSH1 0x1F LT PUSH3 0x14AC JUMPI PUSH2 0x100 DUP1 DUP4 SLOAD DIV MUL DUP4 MSTORE SWAP2 PUSH1 0x20 ADD SWAP2 PUSH3 0x14D6 JUMP JUMPDEST DUP3 ADD SWAP2 SWAP1 PUSH0 MSTORE PUSH1 0x20 PUSH0 KECCAK256 SWAP1 JUMPDEST DUP2 SLOAD DUP2 MSTORE SWAP1 PUSH1 0x1 ADD SWAP1 PUSH1 0x20 ADD DUP1 DUP4 GT PUSH3 0x14B8 JUMPI DUP3 SWAP1 SUB PUSH1 0x1F AND DUP3 ADD SWAP2 JUMPDEST POP POP POP POP POP SWAP1 POP SWAP1 JUMP JUMPDEST PUSH0 DUP1 PUSH0 PUSH1 0x13 SLOAD SWAP3 POP PUSH1 0x14 SLOAD SWAP2 POP PUSH1 0x15 SLOAD SWAP1 POP SWAP1 SWAP2 SWAP3 JUMP JUMPDEST PUSH0 DUP1 PUSH3 0x1503 PUSH3 0x361F JUMP JUMPDEST SWAP1 POP PUSH3 0x1512 DUP2 DUP6 DUP6 PUSH3 0x3B25 JUMP JUMPDEST PUSH1 0x1 SWAP2 POP POP SWAP3 SWAP2 POP POP JUMP JUMPDEST PUSH1 0xC PUSH0 SWAP1 SLOAD SWAP1 PUSH2 0x100 EXP SWAP1 DIV PUSH20 0xFFFFFFFFFFFFFFFFFFFFFFFFFFFFFFFFFFFFFFFF AND DUP2 JUMP JUMPDEST PUSH1 0x60 PUSH0 DUP4 PUSH8 0xFFFFFFFFFFFFFFFF DUP2 GT ISZERO PUSH3 0x1562 JUMPI PUSH3 0x1561 PUSH3 0x6459 JUMP JUMPDEST JUMPDEST PUSH1 0x40 MLOAD SWAP1 DUP1 DUP3 MSTORE DUP1 PUSH1 0x20 MUL PUSH1 0x20 ADD DUP3 ADD PUSH1 0x40 MSTORE DUP1 ISZERO PUSH3 0x1591 JUMPI DUP2 PUSH1 0x20 ADD PUSH1 0x20 DUP3 MUL DUP1 CALLDATASIZE DUP4 CALLDATACOPY DUP1 DUP3 ADD SWAP2 POP POP SWAP1 POP JUMPDEST POP SWAP1 POP PUSH0 PUSH1 0x1 PUSH1 0x10 DUP1 SLOAD SWAP1 POP PUSH3 0x15A9 SWAP2 SWAP1 PUSH3 0x629A JUMP JUMPDEST SWAP1 POP PUSH0 DUP5 DUP7 PUSH3 0x15BA SWAP2 SWAP1 PUSH3 0x62FF JUMP JUMPDEST DUP3 PUSH3 0x15C7 SWAP2 SWAP1 PUSH3 0x629A JUMP JUMPDEST SWAP1 POP PUSH0 DUP1 JUMPDEST DUP4 DUP4 LT ISZERO PUSH3 0x1763 JUMPI DUP7 DUP4 PUSH3 0x15E3 SWAP2 SWAP1 PUSH3 0x6486 JUMP JUMPDEST SWAP2 POP PUSH0 PUSH1 0x10 DUP5 DUP2 SLOAD DUP2 LT PUSH3 0x15FD JUMPI PUSH3 0x15FC PUSH3 0x64C0 JUMP JUMPDEST JUMPDEST SWAP1 PUSH0 MSTORE PUSH1 0x20 PUSH0 KECCAK256 SWAP1 PUSH1 0x3 MUL ADD PUSH0 ADD SLOAD PUSH1 0x10 DUP5 DUP2 SLOAD DUP2 LT PUSH3 0x1623 JUMPI PUSH3 0x1622 PUSH3 0x64C0 JUMP JUMPDEST JUMPDEST SWAP1 PUSH0 MSTORE PUSH1 0x20 PUSH0 KECCAK256 SWAP1 PUSH1 0x3 MUL ADD PUSH0 ADD SLOAD PUSH3 0x163E SWAP2 SWAP1 PUSH3 0x629A JUMP JUMPDEST SWAP1 POP PUSH0 DUP2 PUSH1 0x10 DUP7 DUP2 SLOAD DUP2 LT PUSH3 0x1659 JUMPI PUSH3 0x1658 PUSH3 0x64C0 JUMP JUMPDEST JUMPDEST SWAP1 PUSH0 MSTORE PUSH1 0x20 PUSH0 KECCAK256 SWAP1 PUSH1 0x3 MUL ADD PUSH1 0x1 ADD SLOAD PUSH1 0x10 DUP7 DUP2 SLOAD DUP2 LT PUSH3 0x1680 JUMPI PUSH3 0x167F PUSH3 0x64C0 JUMP JUMPDEST JUMPDEST SWAP1 PUSH0 MSTORE PUSH1 0x20 PUSH0 KECCAK256 SWAP1 PUSH1 0x3 MUL ADD PUSH1 0x1 ADD SLOAD PUSH3 0x169C SWAP2 SWAP1 PUSH3 0x629A JUMP JUMPDEST PUSH3 0x16A8 SWAP2 SWAP1 PUSH3 0x6376 JUMP JUMPDEST SWAP1 POP PUSH0 DUP3 PUSH1 0x10 DUP8 DUP2 SLOAD DUP2 LT PUSH3 0x16C3 JUMPI PUSH3 0x16C2 PUSH3 0x64C0 JUMP JUMPDEST JUMPDEST SWAP1 PUSH0 MSTORE PUSH1 0x20 PUSH0 KECCAK256 SWAP1 PUSH1 0x3 MUL ADD PUSH1 0x2 ADD SLOAD PUSH1 0x10 DUP8 DUP2 SLOAD DUP2 LT PUSH3 0x16EA JUMPI PUSH3 0x16E9 PUSH3 0x64C0 JUMP JUMPDEST JUMPDEST SWAP1 PUSH0 MSTORE PUSH1 0x20 PUSH0 KECCAK256 SWAP1 PUSH1 0x3 MUL ADD PUSH1 0x2 ADD SLOAD PUSH3 0x1706 SWAP2 SWAP1 PUSH3 0x629A JUMP JUMPDEST PUSH3 0x1712 SWAP2 SWAP1 PUSH3 0x6376 JUMP JUMPDEST SWAP1 POP PUSH3 0x1722 DUP13 DUP15 DUP5 DUP5 PUSH3 0x3B39 JUMP JUMPDEST DUP9 DUP6 DUP2 MLOAD DUP2 LT PUSH3 0x1738 JUMPI PUSH3 0x1737 PUSH3 0x64C0 JUMP JUMPDEST JUMPDEST PUSH1 0x20 MUL PUSH1 0x20 ADD ADD DUP2 DUP2 MSTORE POP POP PUSH1 0x1 DUP5 ADD SWAP4 POP POP POP POP DUP7 DUP4 PUSH3 0x175B SWAP2 SWAP1 PUSH3 0x6486 JUMP JUMPDEST SWAP3 POP PUSH3 0x15CC JUMP JUMPDEST DUP5 SWAP6 POP POP POP POP POP POP SWAP5 SWAP4 POP POP POP POP JUMP JUMPDEST PUSH0 PUSH1 0x2 SLOAD SWAP1 POP SWAP1 JUMP JUMPDEST PUSH0 DUP1 PUSH0 TIMESTAMP SWAP1 POP PUSH1 0x16 SLOAD SWAP3 POP PUSH1 0x17 SLOAD SWAP2 POP PUSH0 DUP1 PUSH0 PUSH3 0x1799 PUSH3 0x14E0 JUMP JUMPDEST SWAP3 POP SWAP3 POP SWAP3 POP DUP4 DUP2 EQ PUSH3 0x17F4 JUMPI PUSH0 DUP2 DUP6 PUSH3 0x17B6 SWAP2 SWAP1 PUSH3 0x629A JUMP JUMPDEST SWAP1 POP DUP1 DUP5 PUSH3 0x17C6 SWAP2 SWAP1 PUSH3 0x62FF JUMP JUMPDEST DUP8 PUSH3 0x17D3 SWAP2 SWAP1 PUSH3 0x6486 JUMP JUMPDEST SWAP7 POP DUP1 DUP4 PUSH3 0x17E3 SWAP2 SWAP1 PUSH3 0x62FF JUMP JUMPDEST DUP7 PUSH3 0x17F0 SWAP2 SWAP1 PUSH3 0x6486 JUMP JUMPDEST SWAP6 POP POP JUMPDEST POP POP POP SWAP1 SWAP2 SWAP3 JUMP JUMPDEST PUSH1 0x1B PUSH1 0x20 MSTORE DUP1 PUSH0 MSTORE PUSH1 0x40 PUSH0 KECCAK256 PUSH0 SWAP2 POP SWAP1 POP SLOAD DUP2 JUMP JUMPDEST PUSH1 0xB PUSH1 0x14 SWAP1 SLOAD SWAP1 PUSH2 0x100 EXP SWAP1 DIV PUSH1 0xFF AND DUP2 JUMP JUMPDEST PUSH0 DUP1 PUSH3 0x1830 PUSH3 0x361F JUMP JUMPDEST SWAP1 POP PUSH3 0x183F DUP6 DUP3 DUP6 PUSH3 0x3E10 JUMP JUMPDEST PUSH3 0x184C DUP6 DUP6 DUP6 PUSH3 0x3EAA JUMP JUMPDEST PUSH1 0x1 SWAP2 POP POP SWAP4 SWAP3 POP POP POP JUMP JUMPDEST PUSH1 0x10 DUP2 DUP2 SLOAD DUP2 LT PUSH3 0x1868 JUMPI PUSH0 DUP1 REVERT JUMPDEST SWAP1 PUSH0 MSTORE PUSH1 0x20 PUSH0 KECCAK256 SWAP1 PUSH1 0x3 MUL ADD PUSH0 SWAP2 POP SWAP1 POP DUP1 PUSH0 ADD SLOAD SWAP1 DUP1 PUSH1 0x1 ADD SLOAD SWAP1 DUP1 PUSH1 0x2 ADD SLOAD SWAP1 POP DUP4 JUMP JUMPDEST PUSH0 PUSH1 0x12 SWAP1 POP SWAP1 JUMP JUMPDEST PUSH1 0x18 SLOAD DUP2 JUMP JUMPDEST PUSH1 0xE PUSH0 SWAP1 SLOAD SWAP1 PUSH2 0x100 EXP SWAP1 DIV PUSH20 0xFFFFFFFFFFFFFFFFFFFFFFFFFFFFFFFFFFFFFFFF AND DUP2 JUMP JUMPDEST PUSH0 PUSH3 0x18CC PUSH3 0x3FA2 JUMP JUMPDEST SWAP1 POP SWAP1 JUMP JUMPDEST PUSH0 DUP1 PUSH0 DUP1 PUSH0 DUP1 PUSH0 PUSH1 0x11 SLOAD PUSH1 0x12 SLOAD PUSH1 0x13 SLOAD PUSH1 0x14 SLOAD PUSH1 0xB PUSH1 0x14 SWAP1 SLOAD SWAP1 PUSH2 0x100 EXP SWAP1 DIV PUSH1 0xFF AND PUSH1 0xC PUSH0 SWAP1 SLOAD SWAP1 PUSH2 0x100 EXP SWAP1 DIV PUSH20 0xFFFFFFFFFFFFFFFFFFFFFFFFFFFFFFFFFFFFFFFF AND PUSH1 0xD PUSH0 SWAP1 SLOAD SWAP1 PUSH2 0x100 EXP SWAP1 DIV PUSH20 0xFFFFFFFFFFFFFFFFFFFFFFFFFFFFFFFFFFFFFFFF AND SWAP7 POP SWAP7 POP SWAP7 POP SWAP7 POP SWAP7 POP SWAP7 POP SWAP7 POP SWAP1 SWAP2 SWAP3 SWAP4 SWAP5 SWAP6 SWAP7 JUMP JUMPDEST PUSH1 0x13 SLOAD DUP2 JUMP JUMPDEST PUSH1 0x1C PUSH1 0x20 MSTORE DUP1 PUSH0 MSTORE PUSH1 0x40 PUSH0 KECCAK256 PUSH0 SWAP2 POP SWAP1 POP SLOAD DUP2 JUMP JUMPDEST PUSH1 0x60 PUSH3 0x197B DUP5 DUP5 DUP5 PUSH1 0x1 PUSH3 0x1542 JUMP JUMPDEST SWAP1 POP SWAP4 SWAP3 POP POP POP JUMP JUMPDEST PUSH1 0x14 SLOAD DUP2 JUMP JUMPDEST PUSH0 PUSH3 0x1995 PUSH3 0x3555 JUMP JUMPDEST PUSH0 DUP1 PUSH1 0x13 SLOAD PUSH1 0x14 SLOAD SWAP2 POP SWAP2 POP PUSH0 PUSH1 0xC PUSH0 SWAP1 SLOAD SWAP1 PUSH2 0x100 EXP SWAP1 DIV PUSH20 0xFFFFFFFFFFFFFFFFFFFFFFFFFFFFFFFFFFFFFFFF AND PUSH20 0xFFFFFFFFFFFFFFFFFFFFFFFFFFFFFFFFFFFFFFFF AND PUSH4 0x70A08231 ADDRESS PUSH1 0x40 MLOAD DUP3 PUSH4 0xFFFFFFFF AND PUSH1 0xE0 SHL DUP2 MSTORE PUSH1 0x4 ADD PUSH3 0x19FE SWAP2 SWAP1 PUSH3 0x5963 JUMP JUMPDEST PUSH1 0x20 PUSH1 0x40 MLOAD DUP1 DUP4 SUB DUP2 DUP7 GAS STATICCALL ISZERO DUP1 ISZERO PUSH3 0x1A1A JUMPI RETURNDATASIZE PUSH0 DUP1 RETURNDATACOPY RETURNDATASIZE PUSH0 REVERT JUMPDEST POP POP POP POP PUSH1 0x40 MLOAD RETURNDATASIZE PUSH1 0x1F NOT PUSH1 0x1F DUP3 ADD AND DUP3 ADD DUP1 PUSH1 0x40 MSTORE POP DUP2 ADD SWAP1 PUSH3 0x1A40 SWAP2 SWAP1 PUSH3 0x623D JUMP JUMPDEST SWAP1 POP PUSH0 PUSH1 0xD PUSH0 SWAP1 SLOAD SWAP1 PUSH2 0x100 EXP SWAP1 DIV PUSH20 0xFFFFFFFFFFFFFFFFFFFFFFFFFFFFFFFFFFFFFFFF AND PUSH20 0xFFFFFFFFFFFFFFFFFFFFFFFFFFFFFFFFFFFFFFFF AND PUSH4 0x70A08231 ADDRESS PUSH1 0x40 MLOAD DUP3 PUSH4 0xFFFFFFFF AND PUSH1 0xE0 SHL DUP2 MSTORE PUSH1 0x4 ADD PUSH3 0x1A9F SWAP2 SWAP1 PUSH3 0x5963 JUMP JUMPDEST PUSH1 0x20 PUSH1 0x40 MLOAD DUP1 DUP4 SUB DUP2 DUP7 GAS STATICCALL ISZERO DUP1 ISZERO PUSH3 0x1ABB JUMPI RETURNDATASIZE PUSH0 DUP1 RETURNDATACOPY RETURNDATASIZE PUSH0 REVERT JUMPDEST POP POP POP POP PUSH1 0x40 MLOAD RETURNDATASIZE PUSH1 0x1F NOT PUSH1 0x1F DUP3 ADD AND DUP3 ADD DUP1 PUSH1 0x40 MSTORE POP DUP2 ADD SWAP1 PUSH3 0x1AE1 SWAP2 SWAP1 PUSH3 0x623D JUMP JUMPDEST SWAP1 POP PUSH0 DUP5 DUP4 PUSH3 0x1AF2 SWAP2 SWAP1 PUSH3 0x629A JUMP JUMPDEST SWAP1 POP PUSH0 DUP5 DUP4 PUSH3 0x1B03 SWAP2 SWAP1 PUSH3 0x629A JUMP JUMPDEST SWAP1 POP PUSH0 PUSH3 0x1B10 PUSH3 0x1773 JUMP JUMPDEST SWAP1 POP PUSH0 DUP2 SUB PUSH3 0x1C3B JUMPI PUSH2 0x3E8 PUSH3 0x1B35 DUP4 DUP6 PUSH3 0x1B2F SWAP2 SWAP1 PUSH3 0x62FF JUMP JUMPDEST PUSH3 0x405D JUMP JUMPDEST PUSH3 0x1B41 SWAP2 SWAP1 PUSH3 0x629A JUMP JUMPDEST SWAP8 POP PUSH3 0x1B52 PUSH1 0x1 PUSH2 0x3E8 PUSH3 0x4171 JUMP JUMPDEST PUSH1 0xB PUSH1 0x14 SWAP1 SLOAD SWAP1 PUSH2 0x100 EXP SWAP1 DIV PUSH1 0xFF AND ISZERO PUSH3 0x1C35 JUMPI PUSH1 0x12 SLOAD PUSH8 0xDE0B6B3A7640000 DUP4 PUSH3 0x1B81 SWAP2 SWAP1 PUSH3 0x62FF JUMP JUMPDEST PUSH3 0x1B8D SWAP2 SWAP1 PUSH3 0x6376 JUMP JUMPDEST PUSH1 0x11 SLOAD PUSH8 0xDE0B6B3A7640000 DUP6 PUSH3 0x1BA6 SWAP2 SWAP1 PUSH3 0x62FF JUMP JUMPDEST PUSH3 0x1BB2 SWAP2 SWAP1 PUSH3 0x6376 JUMP JUMPDEST EQ PUSH3 0x1BEA JUMPI PUSH1 0x40 MLOAD PUSH32 0xA04D7FA00000000000000000000000000000000000000000000000000000000 DUP2 MSTORE PUSH1 0x4 ADD PUSH1 0x40 MLOAD DUP1 SWAP2 SUB SWAP1 REVERT JUMPDEST PUSH5 0x2540BE400 PUSH3 0x1BFC DUP5 DUP5 PUSH3 0x387C JUMP JUMPDEST GT PUSH3 0x1C34 JUMPI PUSH1 0x40 MLOAD PUSH32 0x438D3ADE00000000000000000000000000000000000000000000000000000000 DUP2 MSTORE PUSH1 0x4 ADD PUSH1 0x40 MLOAD DUP1 SWAP2 SUB SWAP1 REVERT JUMPDEST JUMPDEST PUSH3 0x1C7E JUMP JUMPDEST PUSH3 0x1C7B DUP8 DUP3 DUP6 PUSH3 0x1C4E SWAP2 SWAP1 PUSH3 0x62FF JUMP JUMPDEST PUSH3 0x1C5A SWAP2 SWAP1 PUSH3 0x6376 JUMP JUMPDEST DUP8 DUP4 DUP6 PUSH3 0x1C69 SWAP2 SWAP1 PUSH3 0x62FF JUMP JUMPDEST PUSH3 0x1C75 SWAP2 SWAP1 PUSH3 0x6376 JUMP JUMPDEST PUSH3 0x41F5 JUMP JUMPDEST SWAP8 POP JUMPDEST PUSH0 DUP9 SUB PUSH3 0x1CB8 JUMPI PUSH1 0x40 MLOAD PUSH32 0xD226F9D400000000000000000000000000000000000000000000000000000000 DUP2 MSTORE PUSH1 0x4 ADD PUSH1 0x40 MLOAD DUP1 SWAP2 SUB SWAP1 REVERT JUMPDEST PUSH3 0x1CC4 DUP10 DUP10 PUSH3 0x4171 JUMP JUMPDEST PUSH3 0x1CD2 DUP6 DUP6 DUP10 DUP10 PUSH3 0x39A4 JUMP JUMPDEST PUSH3 0x1CDC PUSH3 0x361F JUMP JUMPDEST PUSH20 0xFFFFFFFFFFFFFFFFFFFFFFFFFFFFFFFFFFFFFFFF AND PUSH32 0x4C209B5FC8AD50758F13E2E1088BA56A560DFF690A1C6FEF26394F4C03821C4F DUP5 DUP5 PUSH1 0x40 MLOAD PUSH3 0x1D25 SWAP3 SWAP2 SWAP1 PUSH3 0x5DB7 JUMP JUMPDEST PUSH1 0x40 MLOAD DUP1 SWAP2 SUB SWAP1 LOG2 POP POP POP POP POP POP POP PUSH3 0x1D3E PUSH3 0x3B1B JUMP JUMPDEST SWAP2 SWAP1 POP JUMP JUMPDEST PUSH0 DUP1 PUSH0 DUP4 PUSH20 0xFFFFFFFFFFFFFFFFFFFFFFFFFFFFFFFFFFFFFFFF AND PUSH20 0xFFFFFFFFFFFFFFFFFFFFFFFFFFFFFFFFFFFFFFFF AND DUP2 MSTORE PUSH1 0x20 ADD SWAP1 DUP2 MSTORE PUSH1 0x20 ADD PUSH0 KECCAK256 SLOAD SWAP1 POP SWAP2 SWAP1 POP JUMP JUMPDEST PUSH0 PUSH3 0x1D94 DUP3 PUSH3 0x420F JUMP JUMPDEST SWAP1 POP SWAP2 SWAP1 POP JUMP JUMPDEST PUSH0 PUSH1 0x60 DUP1 PUSH0 DUP1 PUSH0 PUSH1 0x60 PUSH3 0x1DAE PUSH3 0x4255 JUMP JUMPDEST PUSH3 0x1DB8 PUSH3 0x4292 JUMP JUMPDEST CHAINID ADDRESS PUSH0 DUP1 SHL PUSH0 PUSH8 0xFFFFFFFFFFFFFFFF DUP2 GT ISZERO PUSH3 0x1DDA JUMPI PUSH3 0x1DD9 PUSH3 0x6459 JUMP JUMPDEST JUMPDEST PUSH1 0x40 MLOAD SWAP1 DUP1 DUP3 MSTORE DUP1 PUSH1 0x20 MUL PUSH1 0x20 ADD DUP3 ADD PUSH1 0x40 MSTORE DUP1 ISZERO PUSH3 0x1E09 JUMPI DUP2 PUSH1 0x20 ADD PUSH1 0x20 DUP3 MUL DUP1 CALLDATASIZE DUP4 CALLDATACOPY DUP1 DUP3 ADD SWAP2 POP POP SWAP1 POP JUMPDEST POP PUSH32 0xF00000000000000000000000000000000000000000000000000000000000000 SWAP6 SWAP5 SWAP4 SWAP3 SWAP2 SWAP1 SWAP7 POP SWAP7 POP SWAP7 POP SWAP7 POP SWAP7 POP SWAP7 POP SWAP7 POP SWAP1 SWAP2 SWAP3 SWAP4 SWAP5 SWAP6 SWAP7 JUMP JUMPDEST PUSH0 DUP1 PUSH3 0x1E54 PUSH3 0x3555 JUMP JUMPDEST PUSH0 DUP1 PUSH1 0x13 SLOAD PUSH1 0x14 SLOAD SWAP2 POP SWAP2 POP PUSH0 DUP1 PUSH1 0xC PUSH0 SWAP1 SLOAD SWAP1 PUSH2 0x100 EXP SWAP1 DIV PUSH20 0xFFFFFFFFFFFFFFFFFFFFFFFFFFFFFFFFFFFFFFFF AND PUSH1 0xD PUSH0 SWAP1 SLOAD SWAP1 PUSH2 0x100 EXP SWAP1 DIV PUSH20 0xFFFFFFFFFFFFFFFFFFFFFFFFFFFFFFFFFFFFFFFF AND SWAP2 POP SWAP2 POP PUSH0 DUP3 PUSH20 0xFFFFFFFFFFFFFFFFFFFFFFFFFFFFFFFFFFFFFFFF AND PUSH4 0x70A08231 ADDRESS PUSH1 0x40 MLOAD DUP3 PUSH4 0xFFFFFFFF AND PUSH1 0xE0 SHL DUP2 MSTORE PUSH1 0x4 ADD PUSH3 0x1EE6 SWAP2 SWAP1 PUSH3 0x5963 JUMP JUMPDEST PUSH1 0x20 PUSH1 0x40 MLOAD DUP1 DUP4 SUB DUP2 DUP7 GAS STATICCALL ISZERO DUP1 ISZERO PUSH3 0x1F02 JUMPI RETURNDATASIZE PUSH0 DUP1 RETURNDATACOPY RETURNDATASIZE PUSH0 REVERT JUMPDEST POP POP POP POP PUSH1 0x40 MLOAD RETURNDATASIZE PUSH1 0x1F NOT PUSH1 0x1F DUP3 ADD AND DUP3 ADD DUP1 PUSH1 0x40 MSTORE POP DUP2 ADD SWAP1 PUSH3 0x1F28 SWAP2 SWAP1 PUSH3 0x623D JUMP JUMPDEST SWAP1 POP PUSH0 DUP3 PUSH20 0xFFFFFFFFFFFFFFFFFFFFFFFFFFFFFFFFFFFFFFFF AND PUSH4 0x70A08231 ADDRESS PUSH1 0x40 MLOAD DUP3 PUSH4 0xFFFFFFFF AND PUSH1 0xE0 SHL DUP2 MSTORE PUSH1 0x4 ADD PUSH3 0x1F66 SWAP2 SWAP1 PUSH3 0x5963 JUMP JUMPDEST PUSH1 0x20 PUSH1 0x40 MLOAD DUP1 DUP4 SUB DUP2 DUP7 GAS STATICCALL ISZERO DUP1 ISZERO PUSH3 0x1F82 JUMPI RETURNDATASIZE PUSH0 DUP1 RETURNDATACOPY RETURNDATASIZE PUSH0 REVERT JUMPDEST POP POP POP POP PUSH1 0x40 MLOAD RETURNDATASIZE PUSH1 0x1F NOT PUSH1 0x1F DUP3 ADD AND DUP3 ADD DUP1 PUSH1 0x40 MSTORE POP DUP2 ADD SWAP1 PUSH3 0x1FA8 SWAP2 SWAP1 PUSH3 0x623D JUMP JUMPDEST SWAP1 POP PUSH0 PUSH3 0x1FB6 ADDRESS PUSH3 0x1D43 JUMP JUMPDEST SWAP1 POP PUSH0 PUSH3 0x1FC3 PUSH3 0x1773 JUMP JUMPDEST SWAP1 POP DUP1 DUP5 DUP4 PUSH3 0x1FD4 SWAP2 SWAP1 PUSH3 0x62FF JUMP JUMPDEST PUSH3 0x1FE0 SWAP2 SWAP1 PUSH3 0x6376 JUMP JUMPDEST SWAP10 POP DUP1 DUP4 DUP4 PUSH3 0x1FF1 SWAP2 SWAP1 PUSH3 0x62FF JUMP JUMPDEST PUSH3 0x1FFD SWAP2 SWAP1 PUSH3 0x6376 JUMP JUMPDEST SWAP9 POP PUSH0 DUP11 EQ DUP1 PUSH3 0x200D JUMPI POP PUSH0 DUP10 EQ JUMPDEST ISZERO PUSH3 0x2045 JUMPI PUSH1 0x40 MLOAD PUSH32 0x749383AD00000000000000000000000000000000000000000000000000000000 DUP2 MSTORE PUSH1 0x4 ADD PUSH1 0x40 MLOAD DUP1 SWAP2 SUB SWAP1 REVERT JUMPDEST PUSH3 0x2051 ADDRESS DUP4 PUSH3 0x42CF JUMP JUMPDEST PUSH3 0x207E DUP12 DUP12 DUP9 PUSH20 0xFFFFFFFFFFFFFFFFFFFFFFFFFFFFFFFFFFFFFFFF AND PUSH3 0x359C SWAP1 SWAP3 SWAP2 SWAP1 PUSH4 0xFFFFFFFF AND JUMP JUMPDEST PUSH3 0x20AB DUP12 DUP11 DUP8 PUSH20 0xFFFFFFFFFFFFFFFFFFFFFFFFFFFFFFFFFFFFFFFF AND PUSH3 0x359C SWAP1 SWAP3 SWAP2 SWAP1 PUSH4 0xFFFFFFFF AND JUMP JUMPDEST DUP6 PUSH20 0xFFFFFFFFFFFFFFFFFFFFFFFFFFFFFFFFFFFFFFFF AND PUSH4 0x70A08231 ADDRESS PUSH1 0x40 MLOAD DUP3 PUSH4 0xFFFFFFFF AND PUSH1 0xE0 SHL DUP2 MSTORE PUSH1 0x4 ADD PUSH3 0x20E6 SWAP2 SWAP1 PUSH3 0x5963 JUMP JUMPDEST PUSH1 0x20 PUSH1 0x40 MLOAD DUP1 DUP4 SUB DUP2 DUP7 GAS STATICCALL ISZERO DUP1 ISZERO PUSH3 0x2102 JUMPI RETURNDATASIZE PUSH0 DUP1 RETURNDATACOPY RETURNDATASIZE PUSH0 REVERT JUMPDEST POP POP POP POP PUSH1 0x40 MLOAD RETURNDATASIZE PUSH1 0x1F NOT PUSH1 0x1F DUP3 ADD AND DUP3 ADD DUP1 PUSH1 0x40 MSTORE POP DUP2 ADD SWAP1 PUSH3 0x2128 SWAP2 SWAP1 PUSH3 0x623D JUMP JUMPDEST SWAP4 POP DUP5 PUSH20 0xFFFFFFFFFFFFFFFFFFFFFFFFFFFFFFFFFFFFFFFF AND PUSH4 0x70A08231 ADDRESS PUSH1 0x40 MLOAD DUP3 PUSH4 0xFFFFFFFF AND PUSH1 0xE0 SHL DUP2 MSTORE PUSH1 0x4 ADD PUSH3 0x2165 SWAP2 SWAP1 PUSH3 0x5963 JUMP JUMPDEST PUSH1 0x20 PUSH1 0x40 MLOAD DUP1 DUP4 SUB DUP2 DUP7 GAS STATICCALL ISZERO DUP1 ISZERO PUSH3 0x2181 JUMPI RETURNDATASIZE PUSH0 DUP1 RETURNDATACOPY RETURNDATASIZE PUSH0 REVERT JUMPDEST POP POP POP POP PUSH1 0x40 MLOAD RETURNDATASIZE PUSH1 0x1F NOT PUSH1 0x1F DUP3 ADD AND DUP3 ADD DUP1 PUSH1 0x40 MSTORE POP DUP2 ADD SWAP1 PUSH3 0x21A7 SWAP2 SWAP1 PUSH3 0x623D JUMP JUMPDEST SWAP3 POP PUSH3 0x21B7 DUP5 DUP5 DUP11 DUP11 PUSH3 0x39A4 JUMP JUMPDEST DUP11 PUSH20 0xFFFFFFFFFFFFFFFFFFFFFFFFFFFFFFFFFFFFFFFF AND PUSH3 0x21D8 PUSH3 0x361F JUMP JUMPDEST PUSH20 0xFFFFFFFFFFFFFFFFFFFFFFFFFFFFFFFFFFFFFFFF AND PUSH32 0x5D624AA9C148153AB3446C1B154F660EE7701E549FE9B62DAB7171B1C80E6FA2 DUP13 DUP13 PUSH1 0x40 MLOAD PUSH3 0x2221 SWAP3 SWAP2 SWAP1 PUSH3 0x5DB7 JUMP JUMPDEST PUSH1 0x40 MLOAD DUP1 SWAP2 SUB SWAP1 LOG3 POP POP POP POP POP POP POP POP PUSH3 0x223B PUSH3 0x3B1B JUMP JUMPDEST SWAP2 POP SWAP2 JUMP JUMPDEST PUSH3 0x224A PUSH3 0x5602 JUMP JUMPDEST PUSH1 0x10 PUSH1 0x1 PUSH1 0x10 DUP1 SLOAD SWAP1 POP PUSH3 0x2260 SWAP2 SWAP1 PUSH3 0x629A JUMP JUMPDEST DUP2 SLOAD DUP2 LT PUSH3 0x2274 JUMPI PUSH3 0x2273 PUSH3 0x64C0 JUMP JUMPDEST JUMPDEST SWAP1 PUSH0 MSTORE PUSH1 0x20 PUSH0 KECCAK256 SWAP1 PUSH1 0x3 MUL ADD PUSH1 0x40 MLOAD DUP1 PUSH1 0x60 ADD PUSH1 0x40 MSTORE SWAP1 DUP2 PUSH0 DUP3 ADD SLOAD DUP2 MSTORE PUSH1 0x20 ADD PUSH1 0x1 DUP3 ADD SLOAD DUP2 MSTORE PUSH1 0x20 ADD PUSH1 0x2 DUP3 ADD SLOAD DUP2 MSTORE POP POP SWAP1 POP SWAP1 JUMP JUMPDEST PUSH1 0x60 PUSH1 0xA DUP1 SLOAD PUSH3 0x22BE SWAP1 PUSH3 0x6425 JUMP JUMPDEST DUP1 PUSH1 0x1F ADD PUSH1 0x20 DUP1 SWAP2 DIV MUL PUSH1 0x20 ADD PUSH1 0x40 MLOAD SWAP1 DUP2 ADD PUSH1 0x40 MSTORE DUP1 SWAP3 SWAP2 SWAP1 DUP2 DUP2 MSTORE PUSH1 0x20 ADD DUP3 DUP1 SLOAD PUSH3 0x22EC SWAP1 PUSH3 0x6425 JUMP JUMPDEST DUP1 ISZERO PUSH3 0x233B JUMPI DUP1 PUSH1 0x1F LT PUSH3 0x2311 JUMPI PUSH2 0x100 DUP1 DUP4 SLOAD DIV MUL DUP4 MSTORE SWAP2 PUSH1 0x20 ADD SWAP2 PUSH3 0x233B JUMP JUMPDEST DUP3 ADD SWAP2 SWAP1 PUSH0 MSTORE PUSH1 0x20 PUSH0 KECCAK256 SWAP1 JUMPDEST DUP2 SLOAD DUP2 MSTORE SWAP1 PUSH1 0x1 ADD SWAP1 PUSH1 0x20 ADD DUP1 DUP4 GT PUSH3 0x231D JUMPI DUP3 SWAP1 SUB PUSH1 0x1F AND DUP3 ADD SWAP2 JUMPDEST POP POP POP POP POP SWAP1 POP SWAP1 JUMP JUMPDEST PUSH0 DUP1 PUSH1 0xC PUSH0 SWAP1 SLOAD SWAP1 PUSH2 0x100 EXP SWAP1 DIV PUSH20 0xFFFFFFFFFFFFFFFFFFFFFFFFFFFFFFFFFFFFFFFF AND PUSH1 0xD PUSH0 SWAP1 SLOAD SWAP1 PUSH2 0x100 EXP SWAP1 DIV PUSH20 0xFFFFFFFFFFFFFFFFFFFFFFFFFFFFFFFFFFFFFFFF AND SWAP2 POP SWAP2 POP SWAP1 SWAP2 JUMP JUMPDEST PUSH0 DUP1 PUSH3 0x23A4 DUP6 DUP6 DUP6 PUSH1 0x1 PUSH3 0x1542 JUMP JUMPDEST SWAP1 POP PUSH0 DUP1 DUP3 MLOAD SWAP1 POP PUSH0 JUMPDEST DUP2 DUP2 LT ISZERO PUSH3 0x23FA JUMPI DUP4 DUP2 DUP2 MLOAD DUP2 LT PUSH3 0x23CD JUMPI PUSH3 0x23CC PUSH3 0x64C0 JUMP JUMPDEST JUMPDEST PUSH1 0x20 MUL PUSH1 0x20 ADD ADD MLOAD DUP4 PUSH3 0x23E2 SWAP2 SWAP1 PUSH3 0x6486 JUMP JUMPDEST SWAP3 POP DUP1 DUP1 PUSH3 0x23F1 SWAP1 PUSH3 0x64ED JUMP JUMPDEST SWAP2 POP POP PUSH3 0x23AE JUMP JUMPDEST POP DUP5 DUP3 PUSH3 0x2409 SWAP2 SWAP1 PUSH3 0x6376 JUMP JUMPDEST SWAP4 POP POP POP POP SWAP4 SWAP3 POP POP POP JUMP JUMPDEST PUSH1 0x1A PUSH1 0x20 MSTORE DUP1 PUSH0 MSTORE PUSH1 0x40 PUSH0 KECCAK256 PUSH0 SWAP2 POP SWAP1 POP SLOAD DUP2 JUMP JUMPDEST PUSH1 0x1D PUSH1 0x20 MSTORE DUP1 PUSH0 MSTORE PUSH1 0x40 PUSH0 KECCAK256 PUSH0 SWAP2 POP SWAP1 POP SLOAD DUP2 JUMP JUMPDEST PUSH0 DUP1 PUSH3 0x244B PUSH3 0x361F JUMP JUMPDEST SWAP1 POP PUSH3 0x245A DUP2 DUP6 DUP6 PUSH3 0x3EAA JUMP JUMPDEST PUSH1 0x1 SWAP2 POP POP SWAP3 SWAP2 POP POP JUMP JUMPDEST PUSH1 0xB PUSH0 SWAP1 SLOAD SWAP1 PUSH2 0x100 EXP SWAP1 DIV PUSH20 0xFFFFFFFFFFFFFFFFFFFFFFFFFFFFFFFFFFFFFFFF AND PUSH20 0xFFFFFFFFFFFFFFFFFFFFFFFFFFFFFFFFFFFFFFFF AND PUSH4 0x7778960E PUSH1 0x40 MLOAD DUP2 PUSH4 0xFFFFFFFF AND PUSH1 0xE0 SHL DUP2 MSTORE PUSH1 0x4 ADD PUSH1 0x20 PUSH1 0x40 MLOAD DUP1 DUP4 SUB DUP2 DUP7 GAS STATICCALL ISZERO DUP1 ISZERO PUSH3 0x24D0 JUMPI RETURNDATASIZE PUSH0 DUP1 RETURNDATACOPY RETURNDATASIZE PUSH0 REVERT JUMPDEST POP POP POP POP PUSH1 0x40 MLOAD RETURNDATASIZE PUSH1 0x1F NOT PUSH1 0x1F DUP3 ADD AND DUP3 ADD DUP1 PUSH1 0x40 MSTORE POP DUP2 ADD SWAP1 PUSH3 0x24F6 SWAP2 SWAP1 PUSH3 0x654F JUMP JUMPDEST PUSH20 0xFFFFFFFFFFFFFFFFFFFFFFFFFFFFFFFFFFFFFFFF AND CALLER PUSH20 0xFFFFFFFFFFFFFFFFFFFFFFFFFFFFFFFFFFFFFFFF AND EQ PUSH3 0x255B JUMPI PUSH1 0x40 MLOAD PUSH32 0xC560129300000000000000000000000000000000000000000000000000000000 DUP2 MSTORE PUSH1 0x4 ADD PUSH1 0x40 MLOAD DUP1 SWAP2 SUB SWAP1 REVERT JUMPDEST DUP2 DUP2 PUSH1 0xA SWAP2 DUP3 PUSH3 0x256E SWAP3 SWAP2 SWAP1 PUSH3 0x674C JUMP JUMPDEST POP POP POP JUMP JUMPDEST PUSH3 0x257D PUSH3 0x3555 JUMP JUMPDEST PUSH0 DUP1 PUSH1 0xC PUSH0 SWAP1 SLOAD SWAP1 PUSH2 0x100 EXP SWAP1 DIV PUSH20 0xFFFFFFFFFFFFFFFFFFFFFFFFFFFFFFFFFFFFFFFF AND PUSH1 0xD PUSH0 SWAP1 SLOAD SWAP1 PUSH2 0x100 EXP SWAP1 DIV PUSH20 0xFFFFFFFFFFFFFFFFFFFFFFFFFFFFFFFFFFFFFFFF AND SWAP2 POP SWAP2 POP PUSH3 0x267F DUP4 PUSH1 0x13 SLOAD DUP5 PUSH20 0xFFFFFFFFFFFFFFFFFFFFFFFFFFFFFFFFFFFFFFFF AND PUSH4 0x70A08231 ADDRESS PUSH1 0x40 MLOAD DUP3 PUSH4 0xFFFFFFFF AND PUSH1 0xE0 SHL DUP2 MSTORE PUSH1 0x4 ADD PUSH3 0x260A SWAP2 SWAP1 PUSH3 0x5963 JUMP JUMPDEST PUSH1 0x20 PUSH1 0x40 MLOAD DUP1 DUP4 SUB DUP2 DUP7 GAS STATICCALL ISZERO DUP1 ISZERO PUSH3 0x2626 JUMPI RETURNDATASIZE PUSH0 DUP1 RETURNDATACOPY RETURNDATASIZE PUSH0 REVERT JUMPDEST POP POP POP POP PUSH1 0x40 MLOAD RETURNDATASIZE PUSH1 0x1F NOT PUSH1 0x1F DUP3 ADD AND DUP3 ADD DUP1 PUSH1 0x40 MSTORE POP DUP2 ADD SWAP1 PUSH3 0x264C SWAP2 SWAP1 PUSH3 0x623D JUMP JUMPDEST PUSH3 0x2658 SWAP2 SWAP1 PUSH3 0x629A JUMP JUMPDEST DUP5 PUSH20 0xFFFFFFFFFFFFFFFFFFFFFFFFFFFFFFFFFFFFFFFF AND PUSH3 0x359C SWAP1 SWAP3 SWAP2 SWAP1 PUSH4 0xFFFFFFFF AND JUMP JUMPDEST PUSH3 0x2737 DUP4 PUSH1 0x14 SLOAD DUP4 PUSH20 0xFFFFFFFFFFFFFFFFFFFFFFFFFFFFFFFFFFFFFFFF AND PUSH4 0x70A08231 ADDRESS PUSH1 0x40 MLOAD DUP3 PUSH4 0xFFFFFFFF AND PUSH1 0xE0 SHL DUP2 MSTORE PUSH1 0x4 ADD PUSH3 0x26C2 SWAP2 SWAP1 PUSH3 0x5963 JUMP JUMPDEST PUSH1 0x20 PUSH1 0x40 MLOAD DUP1 DUP4 SUB DUP2 DUP7 GAS STATICCALL ISZERO DUP1 ISZERO PUSH3 0x26DE JUMPI RETURNDATASIZE PUSH0 DUP1 RETURNDATACOPY RETURNDATASIZE PUSH0 REVERT JUMPDEST POP POP POP POP PUSH1 0x40 MLOAD RETURNDATASIZE PUSH1 0x1F NOT PUSH1 0x1F DUP3 ADD AND DUP3 ADD DUP1 PUSH1 0x40 MSTORE POP DUP2 ADD SWAP1 PUSH3 0x2704 SWAP2 SWAP1 PUSH3 0x623D JUMP JUMPDEST PUSH3 0x2710 SWAP2 SWAP1 PUSH3 0x629A JUMP JUMPDEST DUP4 PUSH20 0xFFFFFFFFFFFFFFFFFFFFFFFFFFFFFFFFFFFFFFFF AND PUSH3 0x359C SWAP1 SWAP3 SWAP2 SWAP1 PUSH4 0xFFFFFFFF AND JUMP JUMPDEST POP POP PUSH3 0x2743 PUSH3 0x3B1B JUMP JUMPDEST POP JUMP JUMPDEST PUSH1 0x19 SLOAD DUP2 JUMP JUMPDEST PUSH1 0x16 SLOAD DUP2 JUMP JUMPDEST PUSH1 0x17 SLOAD DUP2 JUMP JUMPDEST PUSH1 0xF PUSH0 SWAP1 SLOAD SWAP1 PUSH2 0x100 EXP SWAP1 DIV PUSH20 0xFFFFFFFFFFFFFFFFFFFFFFFFFFFFFFFFFFFFFFFF AND DUP2 JUMP JUMPDEST PUSH1 0xB PUSH0 SWAP1 SLOAD SWAP1 PUSH2 0x100 EXP SWAP1 DIV PUSH20 0xFFFFFFFFFFFFFFFFFFFFFFFFFFFFFFFFFFFFFFFF AND PUSH20 0xFFFFFFFFFFFFFFFFFFFFFFFFFFFFFFFFFFFFFFFF AND PUSH4 0x7778960E PUSH1 0x40 MLOAD DUP2 PUSH4 0xFFFFFFFF AND PUSH1 0xE0 SHL DUP2 MSTORE PUSH1 0x4 ADD PUSH1 0x20 PUSH1 0x40 MLOAD DUP1 DUP4 SUB DUP2 DUP7 GAS STATICCALL ISZERO DUP1 ISZERO PUSH3 0x27E8 JUMPI RETURNDATASIZE PUSH0 DUP1 RETURNDATACOPY RETURNDATASIZE PUSH0 REVERT JUMPDEST POP POP POP POP PUSH1 0x40 MLOAD RETURNDATASIZE PUSH1 0x1F NOT PUSH1 0x1F DUP3 ADD AND DUP3 ADD DUP1 PUSH1 0x40 MSTORE POP DUP2 ADD SWAP1 PUSH3 0x280E SWAP2 SWAP1 PUSH3 0x654F JUMP JUMPDEST PUSH20 0xFFFFFFFFFFFFFFFFFFFFFFFFFFFFFFFFFFFFFFFF AND CALLER PUSH20 0xFFFFFFFFFFFFFFFFFFFFFFFFFFFFFFFFFFFFFFFF AND EQ PUSH3 0x2873 JUMPI PUSH1 0x40 MLOAD PUSH32 0xC560129300000000000000000000000000000000000000000000000000000000 DUP2 MSTORE PUSH1 0x4 ADD PUSH1 0x40 MLOAD DUP1 SWAP2 SUB SWAP1 REVERT JUMPDEST DUP2 DUP2 PUSH1 0x9 SWAP2 DUP3 PUSH3 0x2886 SWAP3 SWAP2 SWAP1 PUSH3 0x674C JUMP JUMPDEST POP POP POP JUMP JUMPDEST PUSH1 0x15 SLOAD DUP2 JUMP JUMPDEST PUSH1 0xD PUSH0 SWAP1 SLOAD SWAP1 PUSH2 0x100 EXP SWAP1 DIV PUSH20 0xFFFFFFFFFFFFFFFFFFFFFFFFFFFFFFFFFFFFFFFF AND DUP2 JUMP JUMPDEST PUSH0 DUP1 PUSH0 PUSH3 0x28C3 PUSH3 0x361F JUMP JUMPDEST SWAP1 POP PUSH3 0x28D0 DUP2 PUSH3 0x4353 JUMP JUMPDEST PUSH1 0x1C PUSH0 DUP3 PUSH20 0xFFFFFFFFFFFFFFFFFFFFFFFFFFFFFFFFFFFFFFFF AND PUSH20 0xFFFFFFFFFFFFFFFFFFFFFFFFFFFFFFFFFFFFFFFF AND DUP2 MSTORE PUSH1 0x20 ADD SWAP1 DUP2 MSTORE PUSH1 0x20 ADD PUSH0 KECCAK256 SLOAD SWAP3 POP PUSH1 0x1D PUSH0 DUP3 PUSH20 0xFFFFFFFFFFFFFFFFFFFFFFFFFFFFFFFFFFFFFFFF AND PUSH20 0xFFFFFFFFFFFFFFFFFFFFFFFFFFFFFFFFFFFFFFFF AND DUP2 MSTORE PUSH1 0x20 ADD SWAP1 DUP2 MSTORE PUSH1 0x20 ADD PUSH0 KECCAK256 SLOAD SWAP2 POP PUSH0 DUP4 GT DUP1 PUSH3 0x295E JUMPI POP PUSH0 DUP3 GT JUMPDEST ISZERO PUSH3 0x2AE1 JUMPI PUSH0 PUSH1 0x1C PUSH0 DUP4 PUSH20 0xFFFFFFFFFFFFFFFFFFFFFFFFFFFFFFFFFFFFFFFF AND PUSH20 0xFFFFFFFFFFFFFFFFFFFFFFFFFFFFFFFFFFFFFFFF AND DUP2 MSTORE PUSH1 0x20 ADD SWAP1 DUP2 MSTORE PUSH1 0x20 ADD PUSH0 KECCAK256 DUP2 SWAP1 SSTORE POP PUSH0 PUSH1 0x1D PUSH0 DUP4 PUSH20 0xFFFFFFFFFFFFFFFFFFFFFFFFFFFFFFFFFFFFFFFF AND PUSH20 0xFFFFFFFFFFFFFFFFFFFFFFFFFFFFFFFFFFFFFFFF AND DUP2 MSTORE PUSH1 0x20 ADD SWAP1 DUP2 MSTORE PUSH1 0x20 ADD PUSH0 KECCAK256 DUP2 SWAP1 SSTORE POP PUSH1 0xE PUSH0 SWAP1 SLOAD SWAP1 PUSH2 0x100 EXP SWAP1 DIV PUSH20 0xFFFFFFFFFFFFFFFFFFFFFFFFFFFFFFFFFFFFFFFF AND PUSH20 0xFFFFFFFFFFFFFFFFFFFFFFFFFFFFFFFFFFFFFFFF AND PUSH4 0x533CF5CE DUP3 DUP6 DUP6 PUSH1 0x40 MLOAD DUP5 PUSH4 0xFFFFFFFF AND PUSH1 0xE0 SHL DUP2 MSTORE PUSH1 0x4 ADD PUSH3 0x2A48 SWAP4 SWAP3 SWAP2 SWAP1 PUSH3 0x682E JUMP JUMPDEST PUSH0 PUSH1 0x40 MLOAD DUP1 DUP4 SUB DUP2 PUSH0 DUP8 DUP1 EXTCODESIZE ISZERO DUP1 ISZERO PUSH3 0x2A60 JUMPI PUSH0 DUP1 REVERT JUMPDEST POP GAS CALL ISZERO DUP1 ISZERO PUSH3 0x2A73 JUMPI RETURNDATASIZE PUSH0 DUP1 RETURNDATACOPY RETURNDATASIZE PUSH0 REVERT JUMPDEST POP POP POP POP DUP1 PUSH20 0xFFFFFFFFFFFFFFFFFFFFFFFFFFFFFFFFFFFFFFFF AND DUP2 PUSH20 0xFFFFFFFFFFFFFFFFFFFFFFFFFFFFFFFFFFFFFFFF AND PUSH32 0x865CA08D59F5CB456E85CD2F7EF63664EA4F73327414E9D8152C4158B0E94645 DUP6 DUP6 PUSH1 0x40 MLOAD PUSH3 0x2AD8 SWAP3 SWAP2 SWAP1 PUSH3 0x5DB7 JUMP JUMPDEST PUSH1 0x40 MLOAD DUP1 SWAP2 SUB SWAP1 LOG3 JUMPDEST POP SWAP1 SWAP2 JUMP JUMPDEST DUP4 TIMESTAMP GT ISZERO PUSH3 0x2B2E JUMPI DUP4 PUSH1 0x40 MLOAD PUSH32 0x6279130200000000000000000000000000000000000000000000000000000000 DUP2 MSTORE PUSH1 0x4 ADD PUSH3 0x2B25 SWAP2 SWAP1 PUSH3 0x5AD6 JUMP JUMPDEST PUSH1 0x40 MLOAD DUP1 SWAP2 SUB SWAP1 REVERT JUMPDEST PUSH0 PUSH32 0x6E71EDAE12B1B97F4D1F60370FEF10105FA2FAAE0126114A169C64845D6126C9 DUP9 DUP9 DUP9 PUSH3 0x2B5E DUP13 PUSH3 0x4643 JUMP JUMPDEST DUP10 PUSH1 0x40 MLOAD PUSH1 0x20 ADD PUSH3 0x2B76 SWAP7 SWAP6 SWAP5 SWAP4 SWAP3 SWAP2 SWAP1 PUSH3 0x6869 JUMP JUMPDEST PUSH1 0x40 MLOAD PUSH1 0x20 DUP2 DUP4 SUB SUB DUP2 MSTORE SWAP1 PUSH1 0x40 MSTORE DUP1 MLOAD SWAP1 PUSH1 0x20 ADD KECCAK256 SWAP1 POP PUSH0 PUSH3 0x2B9A DUP3 PUSH3 0x4696 JUMP JUMPDEST SWAP1 POP PUSH0 PUSH3 0x2BAB DUP3 DUP8 DUP8 DUP8 PUSH3 0x46B3 JUMP JUMPDEST SWAP1 POP DUP10 PUSH20 0xFFFFFFFFFFFFFFFFFFFFFFFFFFFFFFFFFFFFFFFF AND DUP2 PUSH20 0xFFFFFFFFFFFFFFFFFFFFFFFFFFFFFFFFFFFFFFFF AND EQ PUSH3 0x2C22 JUMPI DUP1 DUP11 PUSH1 0x40 MLOAD PUSH32 0x4B800E4600000000000000000000000000000000000000000000000000000000 DUP2 MSTORE PUSH1 0x4 ADD PUSH3 0x2C19 SWAP3 SWAP2 SWAP1 PUSH3 0x5E43 JUMP JUMPDEST PUSH1 0x40 MLOAD DUP1 SWAP2 SUB SWAP1 REVERT JUMPDEST PUSH3 0x2C2F DUP11 DUP11 DUP11 PUSH3 0x3B25 JUMP JUMPDEST POP POP POP POP POP POP POP POP POP POP JUMP JUMPDEST PUSH0 PUSH1 0x1 PUSH0 DUP5 PUSH20 0xFFFFFFFFFFFFFFFFFFFFFFFFFFFFFFFFFFFFFFFF AND PUSH20 0xFFFFFFFFFFFFFFFFFFFFFFFFFFFFFFFFFFFFFFFF AND DUP2 MSTORE PUSH1 0x20 ADD SWAP1 DUP2 MSTORE PUSH1 0x20 ADD PUSH0 KECCAK256 PUSH0 DUP4 PUSH20 0xFFFFFFFFFFFFFFFFFFFFFFFFFFFFFFFFFFFFFFFF AND PUSH20 0xFFFFFFFFFFFFFFFFFFFFFFFFFFFFFFFFFFFFFFFF AND DUP2 MSTORE PUSH1 0x20 ADD SWAP1 DUP2 MSTORE PUSH1 0x20 ADD PUSH0 KECCAK256 SLOAD SWAP1 POP SWAP3 SWAP2 POP POP JUMP JUMPDEST PUSH2 0x708 DUP2 JUMP JUMPDEST PUSH0 PUSH20 0xFFFFFFFFFFFFFFFFFFFFFFFFFFFFFFFFFFFFFFFF AND PUSH1 0xF PUSH0 SWAP1 SLOAD SWAP1 PUSH2 0x100 EXP SWAP1 DIV PUSH20 0xFFFFFFFFFFFFFFFFFFFFFFFFFFFFFFFFFFFFFFFF AND PUSH20 0xFFFFFFFFFFFFFFFFFFFFFFFFFFFFFFFFFFFFFFFF AND EQ PUSH3 0x2D4A JUMPI PUSH1 0x40 MLOAD PUSH32 0x154C51B800000000000000000000000000000000000000000000000000000000 DUP2 MSTORE PUSH1 0x4 ADD PUSH1 0x40 MLOAD DUP1 SWAP2 SUB SWAP1 REVERT JUMPDEST PUSH3 0x2D54 PUSH3 0x361F JUMP JUMPDEST PUSH1 0xF PUSH0 PUSH2 0x100 EXP DUP2 SLOAD DUP2 PUSH20 0xFFFFFFFFFFFFFFFFFFFFFFFFFFFFFFFFFFFFFFFF MUL NOT AND SWAP1 DUP4 PUSH20 0xFFFFFFFFFFFFFFFFFFFFFFFFFFFFFFFFFFFFFFFF AND MUL OR SWAP1 SSTORE POP PUSH1 0xF PUSH0 SWAP1 SLOAD SWAP1 PUSH2 0x100 EXP SWAP1 DIV PUSH20 0xFFFFFFFFFFFFFFFFFFFFFFFFFFFFFFFFFFFFFFFF AND PUSH20 0xFFFFFFFFFFFFFFFFFFFFFFFFFFFFFFFFFFFFFFFF AND PUSH4 0x46C96AAC PUSH1 0x40 MLOAD DUP2 PUSH4 0xFFFFFFFF AND PUSH1 0xE0 SHL DUP2 MSTORE PUSH1 0x4 ADD PUSH1 0x20 PUSH1 0x40 MLOAD DUP1 DUP4 SUB DUP2 DUP7 GAS STATICCALL ISZERO DUP1 ISZERO PUSH3 0x2DFE JUMPI RETURNDATASIZE PUSH0 DUP1 RETURNDATACOPY RETURNDATASIZE PUSH0 REVERT JUMPDEST POP POP POP POP PUSH1 0x40 MLOAD RETURNDATASIZE PUSH1 0x1F NOT PUSH1 0x1F DUP3 ADD AND DUP3 ADD DUP1 PUSH1 0x40 MSTORE POP DUP2 ADD SWAP1 PUSH3 0x2E24 SWAP2 SWAP1 PUSH3 0x654F JUMP JUMPDEST PUSH1 0xB PUSH0 PUSH2 0x100 EXP DUP2 SLOAD DUP2 PUSH20 0xFFFFFFFFFFFFFFFFFFFFFFFFFFFFFFFFFFFFFFFF MUL NOT AND SWAP1 DUP4 PUSH20 0xFFFFFFFFFFFFFFFFFFFFFFFFFFFFFFFFFFFFFFFF AND MUL OR SWAP1 SSTORE POP DUP3 DUP3 DUP3 PUSH1 0xC PUSH0 PUSH1 0xD PUSH0 PUSH1 0xB PUSH1 0x14 DUP7 SWAP2 SWAP1 PUSH2 0x100 EXP DUP2 SLOAD DUP2 PUSH1 0xFF MUL NOT AND SWAP1 DUP4 ISZERO ISZERO MUL OR SWAP1 SSTORE POP DUP6 SWAP2 SWAP1 PUSH2 0x100 EXP DUP2 SLOAD DUP2 PUSH20 0xFFFFFFFFFFFFFFFFFFFFFFFFFFFFFFFFFFFFFFFF MUL NOT AND SWAP1 DUP4 PUSH20 0xFFFFFFFFFFFFFFFFFFFFFFFFFFFFFFFFFFFFFFFF AND MUL OR SWAP1 SSTORE POP DUP5 SWAP2 SWAP1 PUSH2 0x100 EXP DUP2 SLOAD DUP2 PUSH20 0xFFFFFFFFFFFFFFFFFFFFFFFFFFFFFFFFFFFFFFFF MUL NOT AND SWAP1 DUP4 PUSH20 0xFFFFFFFFFFFFFFFFFFFFFFFFFFFFFFFFFFFFFFFF AND MUL OR SWAP1 SSTORE POP POP POP POP DUP3 DUP3 PUSH1 0x40 MLOAD PUSH3 0x2F19 SWAP1 PUSH3 0x5620 JUMP JUMPDEST PUSH3 0x2F26 SWAP3 SWAP2 SWAP1 PUSH3 0x5E43 JUMP JUMPDEST PUSH1 0x40 MLOAD DUP1 SWAP2 SUB SWAP1 PUSH0 CREATE DUP1 ISZERO DUP1 ISZERO PUSH3 0x2F40 JUMPI RETURNDATASIZE PUSH0 DUP1 RETURNDATACOPY RETURNDATASIZE PUSH0 REVERT JUMPDEST POP PUSH1 0xE PUSH0 PUSH2 0x100 EXP DUP2 SLOAD DUP2 PUSH20 0xFFFFFFFFFFFFFFFFFFFFFFFFFFFFFFFFFFFFFFFF MUL NOT AND SWAP1 DUP4 PUSH20 0xFFFFFFFFFFFFFFFFFFFFFFFFFFFFFFFFFFFFFFFF AND MUL OR SWAP1 SSTORE POP PUSH0 DUP4 PUSH20 0xFFFFFFFFFFFFFFFFFFFFFFFFFFFFFFFFFFFFFFFF AND PUSH4 0x95D89B41 PUSH1 0x40 MLOAD DUP2 PUSH4 0xFFFFFFFF AND PUSH1 0xE0 SHL DUP2 MSTORE PUSH1 0x4 ADD PUSH0 PUSH1 0x40 MLOAD DUP1 DUP4 SUB DUP2 DUP7 GAS STATICCALL ISZERO DUP1 ISZERO PUSH3 0x2FCA JUMPI RETURNDATASIZE PUSH0 DUP1 RETURNDATACOPY RETURNDATASIZE PUSH0 REVERT JUMPDEST POP POP POP POP PUSH1 0x40 MLOAD RETURNDATASIZE PUSH0 DUP3 RETURNDATACOPY RETURNDATASIZE PUSH1 0x1F NOT PUSH1 0x1F DUP3 ADD AND DUP3 ADD DUP1 PUSH1 0x40 MSTORE POP DUP2 ADD SWAP1 PUSH3 0x2FF4 SWAP2 SWAP1 PUSH3 0x69DD JUMP JUMPDEST SWAP1 POP PUSH0 DUP4 PUSH20 0xFFFFFFFFFFFFFFFFFFFFFFFFFFFFFFFFFFFFFFFF AND PUSH4 0x95D89B41 PUSH1 0x40 MLOAD DUP2 PUSH4 0xFFFFFFFF AND PUSH1 0xE0 SHL DUP2 MSTORE PUSH1 0x4 ADD PUSH0 PUSH1 0x40 MLOAD DUP1 DUP4 SUB DUP2 DUP7 GAS STATICCALL ISZERO DUP1 ISZERO PUSH3 0x3040 JUMPI RETURNDATASIZE PUSH0 DUP1 RETURNDATACOPY RETURNDATASIZE PUSH0 REVERT JUMPDEST POP POP POP POP PUSH1 0x40 MLOAD RETURNDATASIZE PUSH0 DUP3 RETURNDATACOPY RETURNDATASIZE PUSH1 0x1F NOT PUSH1 0x1F DUP3 ADD AND DUP3 ADD DUP1 PUSH1 0x40 MSTORE POP DUP2 ADD SWAP1 PUSH3 0x306A SWAP2 SWAP1 PUSH3 0x69DD JUMP JUMPDEST SWAP1 POP DUP3 ISZERO PUSH3 0x30E3 JUMPI DUP2 DUP2 PUSH1 0x40 MLOAD PUSH1 0x20 ADD PUSH3 0x3088 SWAP3 SWAP2 SWAP1 PUSH3 0x6B08 JUMP JUMPDEST PUSH1 0x40 MLOAD PUSH1 0x20 DUP2 DUP4 SUB SUB DUP2 MSTORE SWAP1 PUSH1 0x40 MSTORE PUSH1 0x9 SWAP1 DUP2 PUSH3 0x30A7 SWAP2 SWAP1 PUSH3 0x6B49 JUMP JUMPDEST POP DUP2 DUP2 PUSH1 0x40 MLOAD PUSH1 0x20 ADD PUSH3 0x30BD SWAP3 SWAP2 SWAP1 PUSH3 0x6C7B JUMP JUMPDEST PUSH1 0x40 MLOAD PUSH1 0x20 DUP2 DUP4 SUB SUB DUP2 MSTORE SWAP1 PUSH1 0x40 MSTORE PUSH1 0xA SWAP1 DUP2 PUSH3 0x30DC SWAP2 SWAP1 PUSH3 0x6B49 JUMP JUMPDEST POP PUSH3 0x314E JUMP JUMPDEST DUP2 DUP2 PUSH1 0x40 MLOAD PUSH1 0x20 ADD PUSH3 0x30F8 SWAP3 SWAP2 SWAP1 PUSH3 0x6D0A JUMP JUMPDEST PUSH1 0x40 MLOAD PUSH1 0x20 DUP2 DUP4 SUB SUB DUP2 MSTORE SWAP1 PUSH1 0x40 MSTORE PUSH1 0x9 SWAP1 DUP2 PUSH3 0x3117 SWAP2 SWAP1 PUSH3 0x6B49 JUMP JUMPDEST POP DUP2 DUP2 PUSH1 0x40 MLOAD PUSH1 0x20 ADD PUSH3 0x312D SWAP3 SWAP2 SWAP1 PUSH3 0x6D99 JUMP JUMPDEST PUSH1 0x40 MLOAD PUSH1 0x20 DUP2 DUP4 SUB SUB DUP2 MSTORE SWAP1 PUSH1 0x40 MSTORE PUSH1 0xA SWAP1 DUP2 PUSH3 0x314C SWAP2 SWAP1 PUSH3 0x6B49 JUMP JUMPDEST POP JUMPDEST DUP5 PUSH20 0xFFFFFFFFFFFFFFFFFFFFFFFFFFFFFFFFFFFFFFFF AND PUSH4 0x313CE567 PUSH1 0x40 MLOAD DUP2 PUSH4 0xFFFFFFFF AND PUSH1 0xE0 SHL DUP2 MSTORE PUSH1 0x4 ADD PUSH1 0x20 PUSH1 0x40 MLOAD DUP1 DUP4 SUB DUP2 DUP7 GAS STATICCALL ISZERO DUP1 ISZERO PUSH3 0x3198 JUMPI RETURNDATASIZE PUSH0 DUP1 RETURNDATACOPY RETURNDATASIZE PUSH0 REVERT JUMPDEST POP POP POP POP PUSH1 0x40 MLOAD RETURNDATASIZE PUSH1 0x1F NOT PUSH1 0x1F DUP3 ADD AND DUP3 ADD DUP1 PUSH1 0x40 MSTORE POP DUP2 ADD SWAP1 PUSH3 0x31BE SWAP2 SWAP1 PUSH3 0x6DF0 JUMP JUMPDEST PUSH1 0xA PUSH3 0x31CC SWAP2 SWAP1 PUSH3 0x6F70 JUMP JUMPDEST PUSH1 0x11 DUP2 SWAP1 SSTORE POP DUP4 PUSH20 0xFFFFFFFFFFFFFFFFFFFFFFFFFFFFFFFFFFFFFFFF AND PUSH4 0x313CE567 PUSH1 0x40 MLOAD DUP2 PUSH4 0xFFFFFFFF AND PUSH1 0xE0 SHL DUP2 MSTORE PUSH1 0x4 ADD PUSH1 0x20 PUSH1 0x40 MLOAD DUP1 DUP4 SUB DUP2 DUP7 GAS STATICCALL ISZERO DUP1 ISZERO PUSH3 0x321C JUMPI RETURNDATASIZE PUSH0 DUP1 RETURNDATACOPY RETURNDATASIZE PUSH0 REVERT JUMPDEST POP POP POP POP PUSH1 0x40 MLOAD RETURNDATASIZE PUSH1 0x1F NOT PUSH1 0x1F DUP3 ADD AND DUP3 ADD DUP1 PUSH1 0x40 MSTORE POP DUP2 ADD SWAP1 PUSH3 0x3242 SWAP2 SWAP1 PUSH3 0x6DF0 JUMP JUMPDEST PUSH1 0xA PUSH3 0x3250 SWAP2 SWAP1 PUSH3 0x6F70 JUMP JUMPDEST PUSH1 0x12 DUP2 SWAP1 SSTORE POP PUSH1 0x10 PUSH1 0x40 MLOAD DUP1 PUSH1 0x60 ADD PUSH1 0x40 MSTORE DUP1 TIMESTAMP DUP2 MSTORE PUSH1 0x20 ADD PUSH0 DUP2 MSTORE PUSH1 0x20 ADD PUSH0 DUP2 MSTORE POP SWAP1 DUP1 PUSH1 0x1 DUP2 SLOAD ADD DUP1 DUP3 SSTORE DUP1 SWAP2 POP POP PUSH1 0x1 SWAP1 SUB SWAP1 PUSH0 MSTORE PUSH1 0x20 PUSH0 KECCAK256 SWAP1 PUSH1 0x3 MUL ADD PUSH0 SWAP1 SWAP2 SWAP1 SWAP2 SWAP1 SWAP2 POP PUSH0 DUP3 ADD MLOAD DUP2 PUSH0 ADD SSTORE PUSH1 0x20 DUP3 ADD MLOAD DUP2 PUSH1 0x1 ADD SSTORE PUSH1 0x40 DUP3 ADD MLOAD DUP2 PUSH1 0x2 ADD SSTORE POP POP POP POP POP POP POP JUMP JUMPDEST PUSH0 PUSH1 0x10 DUP1 SLOAD SWAP1 POP SWAP1 POP SWAP1 JUMP JUMPDEST PUSH0 PUSH3 0x32D5 PUSH3 0x3555 JUMP JUMPDEST PUSH3 0x32E5 PUSH1 0x13 SLOAD PUSH1 0x14 SLOAD PUSH3 0x387C JUMP JUMPDEST SWAP1 POP PUSH3 0x32F1 PUSH3 0x3B1B JUMP JUMPDEST SWAP1 JUMP JUMPDEST PUSH0 DUP1 PUSH0 PUSH1 0x13 SLOAD PUSH1 0x14 SLOAD SWAP2 POP SWAP2 POP PUSH2 0x2710 PUSH1 0xF PUSH0 SWAP1 SLOAD SWAP1 PUSH2 0x100 EXP SWAP1 DIV PUSH20 0xFFFFFFFFFFFFFFFFFFFFFFFFFFFFFFFFFFFFFFFF AND PUSH20 0xFFFFFFFFFFFFFFFFFFFFFFFFFFFFFFFFFFFFFFFF AND PUSH4 0xCC56B2C5 ADDRESS PUSH1 0xB PUSH1 0x14 SWAP1 SLOAD SWAP1 PUSH2 0x100 EXP SWAP1 DIV PUSH1 0xFF AND PUSH1 0x40 MLOAD DUP4 PUSH4 0xFFFFFFFF AND PUSH1 0xE0 SHL DUP2 MSTORE PUSH1 0x4 ADD PUSH3 0x3371 SWAP3 SWAP2 SWAP1 PUSH3 0x62D4 JUMP JUMPDEST PUSH1 0x20 PUSH1 0x40 MLOAD DUP1 DUP4 SUB DUP2 DUP7 GAS STATICCALL ISZERO DUP1 ISZERO PUSH3 0x338D JUMPI RETURNDATASIZE PUSH0 DUP1 RETURNDATACOPY RETURNDATASIZE PUSH0 REVERT JUMPDEST POP POP POP POP PUSH1 0x40 MLOAD RETURNDATASIZE PUSH1 0x1F NOT PUSH1 0x1F DUP3 ADD AND DUP3 ADD DUP1 PUSH1 0x40 MSTORE POP DUP2 ADD SWAP1 PUSH3 0x33B3 SWAP2 SWAP1 PUSH3 0x623D JUMP JUMPDEST DUP7 PUSH3 0x33C0 SWAP2 SWAP1 PUSH3 0x62FF JUMP JUMPDEST PUSH3 0x33CC SWAP2 SWAP1 PUSH3 0x6376 JUMP JUMPDEST DUP6 PUSH3 0x33D9 SWAP2 SWAP1 PUSH3 0x629A JUMP JUMPDEST SWAP5 POP PUSH3 0x33E9 DUP6 DUP6 DUP5 DUP5 PUSH3 0x3B39 JUMP JUMPDEST SWAP3 POP POP POP SWAP3 SWAP2 POP POP JUMP JUMPDEST PUSH3 0x33FD PUSH3 0x3555 JUMP JUMPDEST PUSH3 0x3549 PUSH1 0xC PUSH0 SWAP1 SLOAD SWAP1 PUSH2 0x100 EXP SWAP1 DIV PUSH20 0xFFFFFFFFFFFFFFFFFFFFFFFFFFFFFFFFFFFFFFFF AND PUSH20 0xFFFFFFFFFFFFFFFFFFFFFFFFFFFFFFFFFFFFFFFF AND PUSH4 0x70A08231 ADDRESS PUSH1 0x40 MLOAD DUP3 PUSH4 0xFFFFFFFF AND PUSH1 0xE0 SHL DUP2 MSTORE PUSH1 0x4 ADD PUSH3 0x345D SWAP2 SWAP1 PUSH3 0x5963 JUMP JUMPDEST PUSH1 0x20 PUSH1 0x40 MLOAD DUP1 DUP4 SUB DUP2 DUP7 GAS STATICCALL ISZERO DUP1 ISZERO PUSH3 0x3479 JUMPI RETURNDATASIZE PUSH0 DUP1 RETURNDATACOPY RETURNDATASIZE PUSH0 REVERT JUMPDEST POP POP POP POP PUSH1 0x40 MLOAD RETURNDATASIZE PUSH1 0x1F NOT PUSH1 0x1F DUP3 ADD AND DUP3 ADD DUP1 PUSH1 0x40 MSTORE POP DUP2 ADD SWAP1 PUSH3 0x349F SWAP2 SWAP1 PUSH3 0x623D JUMP JUMPDEST PUSH1 0xD PUSH0 SWAP1 SLOAD SWAP1 PUSH2 0x100 EXP SWAP1 DIV PUSH20 0xFFFFFFFFFFFFFFFFFFFFFFFFFFFFFFFFFFFFFFFF AND PUSH20 0xFFFFFFFFFFFFFFFFFFFFFFFFFFFFFFFFFFFFFFFF AND PUSH4 0x70A08231 ADDRESS PUSH1 0x40 MLOAD DUP3 PUSH4 0xFFFFFFFF AND PUSH1 0xE0 SHL DUP2 MSTORE PUSH1 0x4 ADD PUSH3 0x34FB SWAP2 SWAP1 PUSH3 0x5963 JUMP JUMPDEST PUSH1 0x20 PUSH1 0x40 MLOAD DUP1 DUP4 SUB DUP2 DUP7 GAS STATICCALL ISZERO DUP1 ISZERO PUSH3 0x3517 JUMPI RETURNDATASIZE PUSH0 DUP1 RETURNDATACOPY RETURNDATASIZE PUSH0 REVERT JUMPDEST POP POP POP POP PUSH1 0x40 MLOAD RETURNDATASIZE PUSH1 0x1F NOT PUSH1 0x1F DUP3 ADD AND DUP3 ADD DUP1 PUSH1 0x40 MSTORE POP DUP2 ADD SWAP1 PUSH3 0x353D SWAP2 SWAP1 PUSH3 0x623D JUMP JUMPDEST PUSH1 0x13 SLOAD PUSH1 0x14 SLOAD PUSH3 0x39A4 JUMP JUMPDEST PUSH3 0x3553 PUSH3 0x3B1B JUMP JUMPDEST JUMP JUMPDEST PUSH1 0x2 PUSH1 0x8 SLOAD SUB PUSH3 0x3592 JUMPI PUSH1 0x40 MLOAD PUSH32 0x3EE5AEB500000000000000000000000000000000000000000000000000000000 DUP2 MSTORE PUSH1 0x4 ADD PUSH1 0x40 MLOAD DUP1 SWAP2 SUB SWAP1 REVERT JUMPDEST PUSH1 0x2 PUSH1 0x8 DUP2 SWAP1 SSTORE POP JUMP JUMPDEST PUSH3 0x361A DUP4 DUP5 PUSH20 0xFFFFFFFFFFFFFFFFFFFFFFFFFFFFFFFFFFFFFFFF AND PUSH4 0xA9059CBB DUP6 DUP6 PUSH1 0x40 MLOAD PUSH1 0x24 ADD PUSH3 0x35D2 SWAP3 SWAP2 SWAP1 PUSH3 0x6FC0 JUMP JUMPDEST PUSH1 0x40 MLOAD PUSH1 0x20 DUP2 DUP4 SUB SUB DUP2 MSTORE SWAP1 PUSH1 0x40 MSTORE SWAP2 POP PUSH1 0xE0 SHL PUSH1 0x20 DUP3 ADD DUP1 MLOAD PUSH28 0xFFFFFFFFFFFFFFFFFFFFFFFFFFFFFFFFFFFFFFFFFFFFFFFFFFFFFFFF DUP4 DUP2 DUP4 AND OR DUP4 MSTORE POP POP POP POP PUSH3 0x46E5 JUMP JUMPDEST POP POP POP JUMP JUMPDEST PUSH0 CALLER SWAP1 POP SWAP1 JUMP JUMPDEST PUSH0 DUP2 SUB ISZERO PUSH3 0x374E JUMPI PUSH3 0x369E PUSH1 0xE PUSH0 SWAP1 SLOAD SWAP1 PUSH2 0x100 EXP SWAP1 DIV PUSH20 0xFFFFFFFFFFFFFFFFFFFFFFFFFFFFFFFFFFFFFFFF AND DUP3 PUSH1 0xC PUSH0 SWAP1 SLOAD SWAP1 PUSH2 0x100 EXP SWAP1 DIV PUSH20 0xFFFFFFFFFFFFFFFFFFFFFFFFFFFFFFFFFFFFFFFF AND PUSH20 0xFFFFFFFFFFFFFFFFFFFFFFFFFFFFFFFFFFFFFFFF AND PUSH3 0x359C SWAP1 SWAP3 SWAP2 SWAP1 PUSH4 0xFFFFFFFF AND JUMP JUMPDEST PUSH0 PUSH3 0x36A9 PUSH3 0x1773 JUMP JUMPDEST PUSH8 0xDE0B6B3A7640000 DUP4 PUSH3 0x36BF SWAP2 SWAP1 PUSH3 0x62FF JUMP JUMPDEST PUSH3 0x36CB SWAP2 SWAP1 PUSH3 0x6376 JUMP JUMPDEST SWAP1 POP PUSH0 DUP2 GT ISZERO PUSH3 0x36F1 JUMPI DUP1 PUSH1 0x18 PUSH0 DUP3 DUP3 SLOAD PUSH3 0x36E9 SWAP2 SWAP1 PUSH3 0x6486 JUMP JUMPDEST SWAP3 POP POP DUP2 SWAP1 SSTORE POP JUMPDEST PUSH3 0x36FB PUSH3 0x361F JUMP JUMPDEST PUSH20 0xFFFFFFFFFFFFFFFFFFFFFFFFFFFFFFFFFFFFFFFF AND PUSH32 0x112C256902BF554B6ED882D2936687AAEB4225E8CD5B51303C90CA6CF43A8602 DUP4 PUSH0 PUSH1 0x40 MLOAD PUSH3 0x3744 SWAP3 SWAP2 SWAP1 PUSH3 0x702C JUMP JUMPDEST PUSH1 0x40 MLOAD DUP1 SWAP2 SUB SWAP1 LOG2 POP JUMPDEST POP JUMP JUMPDEST PUSH0 DUP2 SUB ISZERO PUSH3 0x3879 JUMPI PUSH3 0x37C9 PUSH1 0xE PUSH0 SWAP1 SLOAD SWAP1 PUSH2 0x100 EXP SWAP1 DIV PUSH20 0xFFFFFFFFFFFFFFFFFFFFFFFFFFFFFFFFFFFFFFFF AND DUP3 PUSH1 0xD PUSH0 SWAP1 SLOAD SWAP1 PUSH2 0x100 EXP SWAP1 DIV PUSH20 0xFFFFFFFFFFFFFFFFFFFFFFFFFFFFFFFFFFFFFFFF AND PUSH20 0xFFFFFFFFFFFFFFFFFFFFFFFFFFFFFFFFFFFFFFFF AND PUSH3 0x359C SWAP1 SWAP3 SWAP2 SWAP1 PUSH4 0xFFFFFFFF AND JUMP JUMPDEST PUSH0 PUSH3 0x37D4 PUSH3 0x1773 JUMP JUMPDEST PUSH8 0xDE0B6B3A7640000 DUP4 PUSH3 0x37EA SWAP2 SWAP1 PUSH3 0x62FF JUMP JUMPDEST PUSH3 0x37F6 SWAP2 SWAP1 PUSH3 0x6376 JUMP JUMPDEST SWAP1 POP PUSH0 DUP2 GT ISZERO PUSH3 0x381C JUMPI DUP1 PUSH1 0x19 PUSH0 DUP3 DUP3 SLOAD PUSH3 0x3814 SWAP2 SWAP1 PUSH3 0x6486 JUMP JUMPDEST SWAP3 POP POP DUP2 SWAP1 SSTORE POP JUMPDEST PUSH3 0x3826 PUSH3 0x361F JUMP JUMPDEST PUSH20 0xFFFFFFFFFFFFFFFFFFFFFFFFFFFFFFFFFFFFFFFF AND PUSH32 0x112C256902BF554B6ED882D2936687AAEB4225E8CD5B51303C90CA6CF43A8602 PUSH0 DUP5 PUSH1 0x40 MLOAD PUSH3 0x386F SWAP3 SWAP2 SWAP1 PUSH3 0x7057 JUMP JUMPDEST PUSH1 0x40 MLOAD DUP1 SWAP2 SUB SWAP1 LOG2 POP JUMPDEST POP JUMP JUMPDEST PUSH0 PUSH1 0xB PUSH1 0x14 SWAP1 SLOAD SWAP1 PUSH2 0x100 EXP SWAP1 DIV PUSH1 0xFF AND ISZERO PUSH3 0x398D JUMPI PUSH0 PUSH1 0x11 SLOAD PUSH8 0xDE0B6B3A7640000 DUP6 PUSH3 0x38AD SWAP2 SWAP1 PUSH3 0x62FF JUMP JUMPDEST PUSH3 0x38B9 SWAP2 SWAP1 PUSH3 0x6376 JUMP JUMPDEST SWAP1 POP PUSH0 PUSH1 0x12 SLOAD PUSH8 0xDE0B6B3A7640000 DUP6 PUSH3 0x38D5 SWAP2 SWAP1 PUSH3 0x62FF JUMP JUMPDEST PUSH3 0x38E1 SWAP2 SWAP1 PUSH3 0x6376 JUMP JUMPDEST SWAP1 POP PUSH0 PUSH8 0xDE0B6B3A7640000 DUP3 DUP5 PUSH3 0x38FB SWAP2 SWAP1 PUSH3 0x62FF JUMP JUMPDEST PUSH3 0x3907 SWAP2 SWAP1 PUSH3 0x6376 JUMP JUMPDEST SWAP1 POP PUSH0 PUSH8 0xDE0B6B3A7640000 DUP4 DUP5 PUSH3 0x3921 SWAP2 SWAP1 PUSH3 0x62FF JUMP JUMPDEST PUSH3 0x392D SWAP2 SWAP1 PUSH3 0x6376 JUMP JUMPDEST PUSH8 0xDE0B6B3A7640000 DUP6 DUP7 PUSH3 0x3944 SWAP2 SWAP1 PUSH3 0x62FF JUMP JUMPDEST PUSH3 0x3950 SWAP2 SWAP1 PUSH3 0x6376 JUMP JUMPDEST PUSH3 0x395C SWAP2 SWAP1 PUSH3 0x6486 JUMP JUMPDEST SWAP1 POP PUSH8 0xDE0B6B3A7640000 DUP2 DUP4 PUSH3 0x3975 SWAP2 SWAP1 PUSH3 0x62FF JUMP JUMPDEST PUSH3 0x3981 SWAP2 SWAP1 PUSH3 0x6376 JUMP JUMPDEST SWAP5 POP POP POP POP POP PUSH3 0x399E JUMP JUMPDEST DUP2 DUP4 PUSH3 0x399B SWAP2 SWAP1 PUSH3 0x62FF JUMP JUMPDEST SWAP1 POP JUMPDEST SWAP3 SWAP2 POP POP JUMP JUMPDEST PUSH0 TIMESTAMP SWAP1 POP PUSH0 PUSH1 0x15 SLOAD DUP3 PUSH3 0x39B9 SWAP2 SWAP1 PUSH3 0x629A JUMP JUMPDEST SWAP1 POP PUSH0 DUP2 GT DUP1 ISZERO PUSH3 0x39CB JUMPI POP PUSH0 DUP5 EQ ISZERO JUMPDEST DUP1 ISZERO PUSH3 0x39D8 JUMPI POP PUSH0 DUP4 EQ ISZERO JUMPDEST ISZERO PUSH3 0x3A2D JUMPI DUP1 DUP5 PUSH3 0x39EC SWAP2 SWAP1 PUSH3 0x62FF JUMP JUMPDEST PUSH1 0x16 PUSH0 DUP3 DUP3 SLOAD PUSH3 0x39FE SWAP2 SWAP1 PUSH3 0x6486 JUMP JUMPDEST SWAP3 POP POP DUP2 SWAP1 SSTORE POP DUP1 DUP4 PUSH3 0x3A13 SWAP2 SWAP1 PUSH3 0x62FF JUMP JUMPDEST PUSH1 0x17 PUSH0 DUP3 DUP3 SLOAD PUSH3 0x3A25 SWAP2 SWAP1 PUSH3 0x6486 JUMP JUMPDEST SWAP3 POP POP DUP2 SWAP1 SSTORE POP JUMPDEST PUSH0 PUSH3 0x3A38 PUSH3 0x2240 JUMP JUMPDEST SWAP1 POP DUP1 PUSH0 ADD MLOAD DUP4 PUSH3 0x3A4B SWAP2 SWAP1 PUSH3 0x629A JUMP JUMPDEST SWAP2 POP PUSH2 0x708 DUP3 GT ISZERO PUSH3 0x3ABE JUMPI PUSH1 0x10 PUSH1 0x40 MLOAD DUP1 PUSH1 0x60 ADD PUSH1 0x40 MSTORE DUP1 DUP6 DUP2 MSTORE PUSH1 0x20 ADD PUSH1 0x16 SLOAD DUP2 MSTORE PUSH1 0x20 ADD PUSH1 0x17 SLOAD DUP2 MSTORE POP SWAP1 DUP1 PUSH1 0x1 DUP2 SLOAD ADD DUP1 DUP3 SSTORE DUP1 SWAP2 POP POP PUSH1 0x1 SWAP1 SUB SWAP1 PUSH0 MSTORE PUSH1 0x20 PUSH0 KECCAK256 SWAP1 PUSH1 0x3 MUL ADD PUSH0 SWAP1 SWAP2 SWAP1 SWAP2 SWAP1 SWAP2 POP PUSH0 DUP3 ADD MLOAD DUP2 PUSH0 ADD SSTORE PUSH1 0x20 DUP3 ADD MLOAD DUP2 PUSH1 0x1 ADD SSTORE PUSH1 0x40 DUP3 ADD MLOAD DUP2 PUSH1 0x2 ADD SSTORE POP POP JUMPDEST DUP7 PUSH1 0x13 DUP2 SWAP1 SSTORE POP DUP6 PUSH1 0x14 DUP2 SWAP1 SSTORE POP DUP3 PUSH1 0x15 DUP2 SWAP1 SSTORE POP PUSH32 0xCF2AA50876CDFBB541206F89AF0EE78D44A2ABF8D328E37FA4917F982149848A PUSH1 0x13 SLOAD PUSH1 0x14 SLOAD PUSH1 0x40 MLOAD PUSH3 0x3B0A SWAP3 SWAP2 SWAP1 PUSH3 0x5DB7 JUMP JUMPDEST PUSH1 0x40 MLOAD DUP1 SWAP2 SUB SWAP1 LOG1 POP POP POP POP POP POP POP JUMP JUMPDEST PUSH1 0x1 PUSH1 0x8 DUP2 SWAP1 SSTORE POP JUMP JUMPDEST PUSH3 0x3B34 DUP4 DUP4 DUP4 PUSH1 0x1 PUSH3 0x4782 JUMP JUMPDEST POP POP POP JUMP JUMPDEST PUSH0 PUSH1 0xB PUSH1 0x14 SWAP1 SLOAD SWAP1 PUSH2 0x100 EXP SWAP1 DIV PUSH1 0xFF AND ISZERO PUSH3 0x3D75 JUMPI PUSH0 PUSH3 0x3B5D DUP5 DUP5 PUSH3 0x387C JUMP JUMPDEST SWAP1 POP PUSH1 0x11 SLOAD PUSH8 0xDE0B6B3A7640000 DUP6 PUSH3 0x3B78 SWAP2 SWAP1 PUSH3 0x62FF JUMP JUMPDEST PUSH3 0x3B84 SWAP2 SWAP1 PUSH3 0x6376 JUMP JUMPDEST SWAP4 POP PUSH1 0x12 SLOAD PUSH8 0xDE0B6B3A7640000 DUP5 PUSH3 0x3B9F SWAP2 SWAP1 PUSH3 0x62FF JUMP JUMPDEST PUSH3 0x3BAB SWAP2 SWAP1 PUSH3 0x6376 JUMP JUMPDEST SWAP3 POP PUSH0 DUP1 PUSH1 0xC PUSH0 SWAP1 SLOAD SWAP1 PUSH2 0x100 EXP SWAP1 DIV PUSH20 0xFFFFFFFFFFFFFFFFFFFFFFFFFFFFFFFFFFFFFFFF AND PUSH20 0xFFFFFFFFFFFFFFFFFFFFFFFFFFFFFFFFFFFFFFFF AND DUP8 PUSH20 0xFFFFFFFFFFFFFFFFFFFFFFFFFFFFFFFFFFFFFFFF AND EQ PUSH3 0x3C0C JUMPI DUP5 DUP7 PUSH3 0x3C0F JUMP JUMPDEST DUP6 DUP6 JUMPDEST SWAP2 POP SWAP2 POP PUSH1 0xC PUSH0 SWAP1 SLOAD SWAP1 PUSH2 0x100 EXP SWAP1 DIV PUSH20 0xFFFFFFFFFFFFFFFFFFFFFFFFFFFFFFFFFFFFFFFF AND PUSH20 0xFFFFFFFFFFFFFFFFFFFFFFFFFFFFFFFFFFFFFFFF AND DUP8 PUSH20 0xFFFFFFFFFFFFFFFFFFFFFFFFFFFFFFFFFFFFFFFF AND EQ PUSH3 0x3C93 JUMPI PUSH1 0x12 SLOAD PUSH8 0xDE0B6B3A7640000 DUP10 PUSH3 0x3C81 SWAP2 SWAP1 PUSH3 0x62FF JUMP JUMPDEST PUSH3 0x3C8D SWAP2 SWAP1 PUSH3 0x6376 JUMP JUMPDEST PUSH3 0x3CB9 JUMP JUMPDEST PUSH1 0x11 SLOAD PUSH8 0xDE0B6B3A7640000 DUP10 PUSH3 0x3CAC SWAP2 SWAP1 PUSH3 0x62FF JUMP JUMPDEST PUSH3 0x3CB8 SWAP2 SWAP1 PUSH3 0x6376 JUMP JUMPDEST JUMPDEST SWAP8 POP PUSH0 PUSH3 0x3CD6 DUP4 DUP11 PUSH3 0x3CCE SWAP2 SWAP1 PUSH3 0x6486 JUMP JUMPDEST DUP6 DUP5 PUSH3 0x495A JUMP JUMPDEST DUP3 PUSH3 0x3CE3 SWAP2 SWAP1 PUSH3 0x629A JUMP JUMPDEST SWAP1 POP PUSH8 0xDE0B6B3A7640000 PUSH1 0xC PUSH0 SWAP1 SLOAD SWAP1 PUSH2 0x100 EXP SWAP1 DIV PUSH20 0xFFFFFFFFFFFFFFFFFFFFFFFFFFFFFFFFFFFFFFFF AND PUSH20 0xFFFFFFFFFFFFFFFFFFFFFFFFFFFFFFFFFFFFFFFF AND DUP10 PUSH20 0xFFFFFFFFFFFFFFFFFFFFFFFFFFFFFFFFFFFFFFFF AND EQ PUSH3 0x3D4C JUMPI PUSH1 0x11 SLOAD PUSH3 0x3D50 JUMP JUMPDEST PUSH1 0x12 SLOAD JUMPDEST DUP3 PUSH3 0x3D5D SWAP2 SWAP1 PUSH3 0x62FF JUMP JUMPDEST PUSH3 0x3D69 SWAP2 SWAP1 PUSH3 0x6376 JUMP JUMPDEST SWAP5 POP POP POP POP POP PUSH3 0x3E08 JUMP JUMPDEST PUSH0 DUP1 PUSH1 0xC PUSH0 SWAP1 SLOAD SWAP1 PUSH2 0x100 EXP SWAP1 DIV PUSH20 0xFFFFFFFFFFFFFFFFFFFFFFFFFFFFFFFFFFFFFFFF AND PUSH20 0xFFFFFFFFFFFFFFFFFFFFFFFFFFFFFFFFFFFFFFFF AND DUP7 PUSH20 0xFFFFFFFFFFFFFFFFFFFFFFFFFFFFFFFFFFFFFFFF AND EQ PUSH3 0x3DD4 JUMPI DUP4 DUP6 PUSH3 0x3DD7 JUMP JUMPDEST DUP5 DUP5 JUMPDEST SWAP2 POP SWAP2 POP DUP7 DUP3 PUSH3 0x3DE9 SWAP2 SWAP1 PUSH3 0x6486 JUMP JUMPDEST DUP2 DUP9 PUSH3 0x3DF7 SWAP2 SWAP1 PUSH3 0x62FF JUMP JUMPDEST PUSH3 0x3E03 SWAP2 SWAP1 PUSH3 0x6376 JUMP JUMPDEST SWAP3 POP POP POP JUMPDEST SWAP5 SWAP4 POP POP POP POP JUMP JUMPDEST PUSH0 PUSH3 0x3E1D DUP5 DUP5 PUSH3 0x2C3B JUMP JUMPDEST SWAP1 POP PUSH32 0xFFFFFFFFFFFFFFFFFFFFFFFFFFFFFFFFFFFFFFFFFFFFFFFFFFFFFFFFFFFFFFFF DUP2 EQ PUSH3 0x3EA4 JUMPI DUP2 DUP2 LT ISZERO PUSH3 0x3E93 JUMPI DUP3 DUP2 DUP4 PUSH1 0x40 MLOAD PUSH32 0xFB8F41B200000000000000000000000000000000000000000000000000000000 DUP2 MSTORE PUSH1 0x4 ADD PUSH3 0x3E8A SWAP4 SWAP3 SWAP2 SWAP1 PUSH3 0x682E JUMP JUMPDEST PUSH1 0x40 MLOAD DUP1 SWAP2 SUB SWAP1 REVERT JUMPDEST PUSH3 0x3EA3 DUP5 DUP5 DUP5 DUP5 SUB PUSH0 PUSH3 0x4782 JUMP JUMPDEST JUMPDEST POP POP POP POP JUMP JUMPDEST PUSH0 PUSH20 0xFFFFFFFFFFFFFFFFFFFFFFFFFFFFFFFFFFFFFFFF AND DUP4 PUSH20 0xFFFFFFFFFFFFFFFFFFFFFFFFFFFFFFFFFFFFFFFF AND SUB PUSH3 0x3F1D JUMPI PUSH0 PUSH1 0x40 MLOAD PUSH32 0x96C6FD1E00000000000000000000000000000000000000000000000000000000 DUP2 MSTORE PUSH1 0x4 ADD PUSH3 0x3F14 SWAP2 SWAP1 PUSH3 0x5963 JUMP JUMPDEST PUSH1 0x40 MLOAD DUP1 SWAP2 SUB SWAP1 REVERT JUMPDEST PUSH0 PUSH20 0xFFFFFFFFFFFFFFFFFFFFFFFFFFFFFFFFFFFFFFFF AND DUP3 PUSH20 0xFFFFFFFFFFFFFFFFFFFFFFFFFFFFFFFFFFFFFFFF AND SUB PUSH3 0x3F90 JUMPI PUSH0 PUSH1 0x40 MLOAD PUSH32 0xEC442F0500000000000000000000000000000000000000000000000000000000 DUP2 MSTORE PUSH1 0x4 ADD PUSH3 0x3F87 SWAP2 SWAP1 PUSH3 0x5963 JUMP JUMPDEST PUSH1 0x40 MLOAD DUP1 SWAP2 SUB SWAP1 REVERT JUMPDEST PUSH3 0x3F9D DUP4 DUP4 DUP4 PUSH3 0x4B26 JUMP JUMPDEST POP POP POP JUMP JUMPDEST PUSH0 PUSH32 0x0 PUSH20 0xFFFFFFFFFFFFFFFFFFFFFFFFFFFFFFFFFFFFFFFF AND ADDRESS PUSH20 0xFFFFFFFFFFFFFFFFFFFFFFFFFFFFFFFFFFFFFFFF AND EQ DUP1 ISZERO PUSH3 0x401E JUMPI POP PUSH32 0x0 CHAINID EQ JUMPDEST ISZERO PUSH3 0x404D JUMPI PUSH32 0x0 SWAP1 POP PUSH3 0x405A JUMP JUMPDEST PUSH3 0x4057 PUSH3 0x4D4A JUMP JUMPDEST SWAP1 POP JUMPDEST SWAP1 JUMP JUMPDEST PUSH0 DUP1 DUP3 SUB PUSH3 0x406F JUMPI PUSH0 SWAP1 POP PUSH3 0x416C JUMP JUMPDEST PUSH0 PUSH1 0x1 PUSH3 0x407D DUP5 PUSH3 0x4DE1 JUMP JUMPDEST SWAP1 SHR PUSH1 0x1 SWAP1 SHL SWAP1 POP PUSH1 0x1 DUP2 DUP5 DUP2 PUSH3 0x409A JUMPI PUSH3 0x4099 PUSH3 0x6349 JUMP JUMPDEST JUMPDEST DIV DUP3 ADD SWAP1 SHR SWAP1 POP PUSH1 0x1 DUP2 DUP5 DUP2 PUSH3 0x40B6 JUMPI PUSH3 0x40B5 PUSH3 0x6349 JUMP JUMPDEST JUMPDEST DIV DUP3 ADD SWAP1 SHR SWAP1 POP PUSH1 0x1 DUP2 DUP5 DUP2 PUSH3 0x40D2 JUMPI PUSH3 0x40D1 PUSH3 0x6349 JUMP JUMPDEST JUMPDEST DIV DUP3 ADD SWAP1 SHR SWAP1 POP PUSH1 0x1 DUP2 DUP5 DUP2 PUSH3 0x40EE JUMPI PUSH3 0x40ED PUSH3 0x6349 JUMP JUMPDEST JUMPDEST DIV DUP3 ADD SWAP1 SHR SWAP1 POP PUSH1 0x1 DUP2 DUP5 DUP2 PUSH3 0x410A JUMPI PUSH3 0x4109 PUSH3 0x6349 JUMP JUMPDEST JUMPDEST DIV DUP3 ADD SWAP1 SHR SWAP1 POP PUSH1 0x1 DUP2 DUP5 DUP2 PUSH3 0x4126 JUMPI PUSH3 0x4125 PUSH3 0x6349 JUMP JUMPDEST JUMPDEST DIV DUP3 ADD SWAP1 SHR SWAP1 POP PUSH1 0x1 DUP2 DUP5 DUP2 PUSH3 0x4142 JUMPI PUSH3 0x4141 PUSH3 0x6349 JUMP JUMPDEST JUMPDEST DIV DUP3 ADD SWAP1 SHR SWAP1 POP PUSH3 0x4168 DUP2 DUP3 DUP6 DUP2 PUSH3 0x4161 JUMPI PUSH3 0x4160 PUSH3 0x6349 JUMP JUMPDEST JUMPDEST DIV PUSH3 0x41F5 JUMP JUMPDEST SWAP2 POP POP JUMPDEST SWAP2 SWAP1 POP JUMP JUMPDEST PUSH0 PUSH20 0xFFFFFFFFFFFFFFFFFFFFFFFFFFFFFFFFFFFFFFFF AND DUP3 PUSH20 0xFFFFFFFFFFFFFFFFFFFFFFFFFFFFFFFFFFFFFFFF AND SUB PUSH3 0x41E4 JUMPI PUSH0 PUSH1 0x40 MLOAD PUSH32 0xEC442F0500000000000000000000000000000000000000000000000000000000 DUP2 MSTORE PUSH1 0x4 ADD PUSH3 0x41DB SWAP2 SWAP1 PUSH3 0x5963 JUMP JUMPDEST PUSH1 0x40 MLOAD DUP1 SWAP2 SUB SWAP1 REVERT JUMPDEST PUSH3 0x41F1 PUSH0 DUP4 DUP4 PUSH3 0x4B26 JUMP JUMPDEST POP POP JUMP JUMPDEST PUSH0 DUP2 DUP4 LT PUSH3 0x4205 JUMPI DUP2 PUSH3 0x4207 JUMP JUMPDEST DUP3 JUMPDEST SWAP1 POP SWAP3 SWAP2 POP POP JUMP JUMPDEST PUSH0 PUSH1 0x7 PUSH0 DUP4 PUSH20 0xFFFFFFFFFFFFFFFFFFFFFFFFFFFFFFFFFFFFFFFF AND PUSH20 0xFFFFFFFFFFFFFFFFFFFFFFFFFFFFFFFFFFFFFFFF AND DUP2 MSTORE PUSH1 0x20 ADD SWAP1 DUP2 MSTORE PUSH1 0x20 ADD PUSH0 KECCAK256 SLOAD SWAP1 POP SWAP2 SWAP1 POP JUMP JUMPDEST PUSH1 0x60 PUSH3 0x428D PUSH1 0x5 PUSH32 0x0 PUSH3 0x4EC0 SWAP1 SWAP2 SWAP1 PUSH4 0xFFFFFFFF AND JUMP JUMPDEST SWAP1 POP SWAP1 JUMP JUMPDEST PUSH1 0x60 PUSH3 0x42CA PUSH1 0x6 PUSH32 0x0 PUSH3 0x4EC0 SWAP1 SWAP2 SWAP1 PUSH4 0xFFFFFFFF AND JUMP JUMPDEST SWAP1 POP SWAP1 JUMP JUMPDEST PUSH0 PUSH20 0xFFFFFFFFFFFFFFFFFFFFFFFFFFFFFFFFFFFFFFFF AND DUP3 PUSH20 0xFFFFFFFFFFFFFFFFFFFFFFFFFFFFFFFFFFFFFFFF AND SUB PUSH3 0x4342 JUMPI PUSH0 PUSH1 0x40 MLOAD PUSH32 0x96C6FD1E00000000000000000000000000000000000000000000000000000000 DUP2 MSTORE PUSH1 0x4 ADD PUSH3 0x4339 SWAP2 SWAP1 PUSH3 0x5963 JUMP JUMPDEST PUSH1 0x40 MLOAD DUP1 SWAP2 SUB SWAP1 REVERT JUMPDEST PUSH3 0x434F DUP3 PUSH0 DUP4 PUSH3 0x4B26 JUMP JUMPDEST POP POP JUMP JUMPDEST PUSH0 PUSH3 0x435F DUP3 PUSH3 0x1D43 JUMP JUMPDEST SWAP1 POP PUSH0 DUP2 GT ISZERO PUSH3 0x45B6 JUMPI PUSH0 PUSH1 0x1A PUSH0 DUP5 PUSH20 0xFFFFFFFFFFFFFFFFFFFFFFFFFFFFFFFFFFFFFFFF AND PUSH20 0xFFFFFFFFFFFFFFFFFFFFFFFFFFFFFFFFFFFFFFFF AND DUP2 MSTORE PUSH1 0x20 ADD SWAP1 DUP2 MSTORE PUSH1 0x20 ADD PUSH0 KECCAK256 SLOAD SWAP1 POP PUSH0 PUSH1 0x1B PUSH0 DUP6 PUSH20 0xFFFFFFFFFFFFFFFFFFFFFFFFFFFFFFFFFFFFFFFF AND PUSH20 0xFFFFFFFFFFFFFFFFFFFFFFFFFFFFFFFFFFFFFFFF AND DUP2 MSTORE PUSH1 0x20 ADD SWAP1 DUP2 MSTORE PUSH1 0x20 ADD PUSH0 KECCAK256 SLOAD SWAP1 POP PUSH0 PUSH1 0x18 SLOAD SWAP1 POP PUSH0 PUSH1 0x19 SLOAD SWAP1 POP DUP2 PUSH1 0x1A PUSH0 DUP9 PUSH20 0xFFFFFFFFFFFFFFFFFFFFFFFFFFFFFFFFFFFFFFFF AND PUSH20 0xFFFFFFFFFFFFFFFFFFFFFFFFFFFFFFFFFFFFFFFF AND DUP2 MSTORE PUSH1 0x20 ADD SWAP1 DUP2 MSTORE PUSH1 0x20 ADD PUSH0 KECCAK256 DUP2 SWAP1 SSTORE POP DUP1 PUSH1 0x1B PUSH0 DUP9 PUSH20 0xFFFFFFFFFFFFFFFFFFFFFFFFFFFFFFFFFFFFFFFF AND PUSH20 0xFFFFFFFFFFFFFFFFFFFFFFFFFFFFFFFFFFFFFFFF AND DUP2 MSTORE PUSH1 0x20 ADD SWAP1 DUP2 MSTORE PUSH1 0x20 ADD PUSH0 KECCAK256 DUP2 SWAP1 SSTORE POP PUSH0 DUP5 DUP4 PUSH3 0x448B SWAP2 SWAP1 PUSH3 0x629A JUMP JUMPDEST SWAP1 POP PUSH0 DUP5 DUP4 PUSH3 0x449C SWAP2 SWAP1 PUSH3 0x629A JUMP JUMPDEST SWAP1 POP PUSH0 DUP3 GT ISZERO PUSH3 0x4524 JUMPI PUSH0 PUSH8 0xDE0B6B3A7640000 DUP4 DUP10 PUSH3 0x44BF SWAP2 SWAP1 PUSH3 0x62FF JUMP JUMPDEST PUSH3 0x44CB SWAP2 SWAP1 PUSH3 0x6376 JUMP JUMPDEST SWAP1 POP DUP1 PUSH1 0x1C PUSH0 DUP12 PUSH20 0xFFFFFFFFFFFFFFFFFFFFFFFFFFFFFFFFFFFFFFFF AND PUSH20 0xFFFFFFFFFFFFFFFFFFFFFFFFFFFFFFFFFFFFFFFF AND DUP2 MSTORE PUSH1 0x20 ADD SWAP1 DUP2 MSTORE PUSH1 0x20 ADD PUSH0 KECCAK256 PUSH0 DUP3 DUP3 SLOAD PUSH3 0x451B SWAP2 SWAP1 PUSH3 0x6486 JUMP JUMPDEST SWAP3 POP POP DUP2 SWAP1 SSTORE POP POP JUMPDEST PUSH0 DUP2 GT ISZERO PUSH3 0x45AA JUMPI PUSH0 PUSH8 0xDE0B6B3A7640000 DUP3 DUP10 PUSH3 0x4545 SWAP2 SWAP1 PUSH3 0x62FF JUMP JUMPDEST PUSH3 0x4551 SWAP2 SWAP1 PUSH3 0x6376 JUMP JUMPDEST SWAP1 POP DUP1 PUSH1 0x1D PUSH0 DUP12 PUSH20 0xFFFFFFFFFFFFFFFFFFFFFFFFFFFFFFFFFFFFFFFF AND PUSH20 0xFFFFFFFFFFFFFFFFFFFFFFFFFFFFFFFFFFFFFFFF AND DUP2 MSTORE PUSH1 0x20 ADD SWAP1 DUP2 MSTORE PUSH1 0x20 ADD PUSH0 KECCAK256 PUSH0 DUP3 DUP3 SLOAD PUSH3 0x45A1 SWAP2 SWAP1 PUSH3 0x6486 JUMP JUMPDEST SWAP3 POP POP DUP2 SWAP1 SSTORE POP POP JUMPDEST POP POP POP POP POP POP PUSH3 0x463F JUMP JUMPDEST PUSH1 0x18 SLOAD PUSH1 0x1A PUSH0 DUP5 PUSH20 0xFFFFFFFFFFFFFFFFFFFFFFFFFFFFFFFFFFFFFFFF AND PUSH20 0xFFFFFFFFFFFFFFFFFFFFFFFFFFFFFFFFFFFFFFFF AND DUP2 MSTORE PUSH1 0x20 ADD SWAP1 DUP2 MSTORE PUSH1 0x20 ADD PUSH0 KECCAK256 DUP2 SWAP1 SSTORE POP PUSH1 0x19 SLOAD PUSH1 0x1B PUSH0 DUP5 PUSH20 0xFFFFFFFFFFFFFFFFFFFFFFFFFFFFFFFFFFFFFFFF AND PUSH20 0xFFFFFFFFFFFFFFFFFFFFFFFFFFFFFFFFFFFFFFFF AND DUP2 MSTORE PUSH1 0x20 ADD SWAP1 DUP2 MSTORE PUSH1 0x20 ADD PUSH0 KECCAK256 DUP2 SWAP1 SSTORE POP JUMPDEST POP POP JUMP JUMPDEST PUSH0 PUSH1 0x7 PUSH0 DUP4 PUSH20 0xFFFFFFFFFFFFFFFFFFFFFFFFFFFFFFFFFFFFFFFF AND PUSH20 0xFFFFFFFFFFFFFFFFFFFFFFFFFFFFFFFFFFFFFFFF AND DUP2 MSTORE PUSH1 0x20 ADD SWAP1 DUP2 MSTORE PUSH1 0x20 ADD PUSH0 KECCAK256 PUSH0 DUP2 SLOAD DUP1 SWAP3 SWAP2 SWAP1 PUSH1 0x1 ADD SWAP2 SWAP1 POP SSTORE SWAP1 POP SWAP2 SWAP1 POP JUMP JUMPDEST PUSH0 PUSH3 0x46AC PUSH3 0x46A5 PUSH3 0x3FA2 JUMP JUMPDEST DUP4 PUSH3 0x4F79 JUMP JUMPDEST SWAP1 POP SWAP2 SWAP1 POP JUMP JUMPDEST PUSH0 DUP1 PUSH0 DUP1 PUSH3 0x46C5 DUP9 DUP9 DUP9 DUP9 PUSH3 0x4FB9 JUMP JUMPDEST SWAP3 POP SWAP3 POP SWAP3 POP PUSH3 0x46D7 DUP3 DUP3 PUSH3 0x50A7 JUMP JUMPDEST DUP3 SWAP4 POP POP POP POP SWAP5 SWAP4 POP POP POP POP JUMP JUMPDEST PUSH0 PUSH3 0x4711 DUP3 DUP5 PUSH20 0xFFFFFFFFFFFFFFFFFFFFFFFFFFFFFFFFFFFFFFFF AND PUSH3 0x5229 SWAP1 SWAP2 SWAP1 PUSH4 0xFFFFFFFF AND JUMP JUMPDEST SWAP1 POP PUSH0 DUP2 MLOAD EQ ISZERO DUP1 ISZERO PUSH3 0x4738 JUMPI POP DUP1 DUP1 PUSH1 0x20 ADD SWAP1 MLOAD DUP2 ADD SWAP1 PUSH3 0x4736 SWAP2 SWAP1 PUSH3 0x6153 JUMP JUMPDEST ISZERO JUMPDEST ISZERO PUSH3 0x477D JUMPI DUP3 PUSH1 0x40 MLOAD PUSH32 0x5274AFE700000000000000000000000000000000000000000000000000000000 DUP2 MSTORE PUSH1 0x4 ADD PUSH3 0x4774 SWAP2 SWAP1 PUSH3 0x5963 JUMP JUMPDEST PUSH1 0x40 MLOAD DUP1 SWAP2 SUB SWAP1 REVERT JUMPDEST POP POP POP JUMP JUMPDEST PUSH0 PUSH20 0xFFFFFFFFFFFFFFFFFFFFFFFFFFFFFFFFFFFFFFFF AND DUP5 PUSH20 0xFFFFFFFFFFFFFFFFFFFFFFFFFFFFFFFFFFFFFFFF AND SUB PUSH3 0x47F5 JUMPI PUSH0 PUSH1 0x40 MLOAD PUSH32 0xE602DF0500000000000000000000000000000000000000000000000000000000 DUP2 MSTORE PUSH1 0x4 ADD PUSH3 0x47EC SWAP2 SWAP1 PUSH3 0x5963 JUMP JUMPDEST PUSH1 0x40 MLOAD DUP1 SWAP2 SUB SWAP1 REVERT JUMPDEST PUSH0 PUSH20 0xFFFFFFFFFFFFFFFFFFFFFFFFFFFFFFFFFFFFFFFF AND DUP4 PUSH20 0xFFFFFFFFFFFFFFFFFFFFFFFFFFFFFFFFFFFFFFFF AND SUB PUSH3 0x4868 JUMPI PUSH0 PUSH1 0x40 MLOAD PUSH32 0x94280D6200000000000000000000000000000000000000000000000000000000 DUP2 MSTORE PUSH1 0x4 ADD PUSH3 0x485F SWAP2 SWAP1 PUSH3 0x5963 JUMP JUMPDEST PUSH1 0x40 MLOAD DUP1 SWAP2 SUB SWAP1 REVERT JUMPDEST DUP2 PUSH1 0x1 PUSH0 DUP7 PUSH20 0xFFFFFFFFFFFFFFFFFFFFFFFFFFFFFFFFFFFFFFFF AND PUSH20 0xFFFFFFFFFFFFFFFFFFFFFFFFFFFFFFFFFFFFFFFF AND DUP2 MSTORE PUSH1 0x20 ADD SWAP1 DUP2 MSTORE PUSH1 0x20 ADD PUSH0 KECCAK256 PUSH0 DUP6 PUSH20 0xFFFFFFFFFFFFFFFFFFFFFFFFFFFFFFFFFFFFFFFF AND PUSH20 0xFFFFFFFFFFFFFFFFFFFFFFFFFFFFFFFFFFFFFFFF AND DUP2 MSTORE PUSH1 0x20 ADD SWAP1 DUP2 MSTORE PUSH1 0x20 ADD PUSH0 KECCAK256 DUP2 SWAP1 SSTORE POP DUP1 ISZERO PUSH3 0x4954 JUMPI DUP3 PUSH20 0xFFFFFFFFFFFFFFFFFFFFFFFFFFFFFFFFFFFFFFFF AND DUP5 PUSH20 0xFFFFFFFFFFFFFFFFFFFFFFFFFFFFFFFFFFFFFFFF AND PUSH32 0x8C5BE1E5EBEC7D5BD14F71427D1E84F3DD0314C0F7B2291E5B200AC8C7C3B925 DUP5 PUSH1 0x40 MLOAD PUSH3 0x494B SWAP2 SWAP1 PUSH3 0x5AD6 JUMP JUMPDEST PUSH1 0x40 MLOAD DUP1 SWAP2 SUB SWAP1 LOG3 JUMPDEST POP POP POP POP JUMP JUMPDEST PUSH0 DUP1 PUSH0 SWAP1 POP JUMPDEST PUSH1 0xFF DUP2 LT ISZERO PUSH3 0x4AE1 JUMPI PUSH0 PUSH3 0x4977 DUP7 DUP6 PUSH3 0x5240 JUMP JUMPDEST SWAP1 POP DUP5 DUP2 LT ISZERO PUSH3 0x4A34 JUMPI PUSH0 PUSH3 0x498F DUP8 DUP7 PUSH3 0x52E9 JUMP JUMPDEST PUSH8 0xDE0B6B3A7640000 DUP4 DUP9 PUSH3 0x49A6 SWAP2 SWAP1 PUSH3 0x629A JUMP JUMPDEST PUSH3 0x49B2 SWAP2 SWAP1 PUSH3 0x62FF JUMP JUMPDEST PUSH3 0x49BE SWAP2 SWAP1 PUSH3 0x6376 JUMP JUMPDEST SWAP1 POP PUSH0 DUP2 SUB PUSH3 0x4A1D JUMPI DUP6 DUP3 SUB PUSH3 0x49DC JUMPI DUP5 SWAP4 POP POP POP POP PUSH3 0x4B1F JUMP JUMPDEST DUP6 PUSH3 0x49F7 DUP9 PUSH1 0x1 DUP9 PUSH3 0x49F1 SWAP2 SWAP1 PUSH3 0x6486 JUMP JUMPDEST PUSH3 0x387C JUMP JUMPDEST GT ISZERO PUSH3 0x4A18 JUMPI PUSH1 0x1 DUP6 PUSH3 0x4A0D SWAP2 SWAP1 PUSH3 0x6486 JUMP JUMPDEST SWAP4 POP POP POP POP PUSH3 0x4B1F JUMP JUMPDEST PUSH1 0x1 SWAP1 POP JUMPDEST DUP1 DUP6 PUSH3 0x4A2B SWAP2 SWAP1 PUSH3 0x6486 JUMP JUMPDEST SWAP5 POP POP PUSH3 0x4ACA JUMP JUMPDEST PUSH0 PUSH3 0x4A41 DUP8 DUP7 PUSH3 0x52E9 JUMP JUMPDEST PUSH8 0xDE0B6B3A7640000 DUP8 DUP5 PUSH3 0x4A58 SWAP2 SWAP1 PUSH3 0x629A JUMP JUMPDEST PUSH3 0x4A64 SWAP2 SWAP1 PUSH3 0x62FF JUMP JUMPDEST PUSH3 0x4A70 SWAP2 SWAP1 PUSH3 0x6376 JUMP JUMPDEST SWAP1 POP PUSH0 DUP2 SUB PUSH3 0x4AB8 JUMPI DUP6 DUP3 EQ DUP1 PUSH3 0x4AA1 JUMPI POP DUP6 PUSH3 0x4A9F DUP9 PUSH1 0x1 DUP9 PUSH3 0x4A99 SWAP2 SWAP1 PUSH3 0x629A JUMP JUMPDEST PUSH3 0x5240 JUMP JUMPDEST LT JUMPDEST ISZERO PUSH3 0x4AB3 JUMPI DUP5 SWAP4 POP POP POP POP PUSH3 0x4B1F JUMP JUMPDEST PUSH1 0x1 SWAP1 POP JUMPDEST DUP1 DUP6 PUSH3 0x4AC6 SWAP2 SWAP1 PUSH3 0x629A JUMP JUMPDEST SWAP5 POP POP JUMPDEST POP DUP1 DUP1 PUSH3 0x4AD8 SWAP1 PUSH3 0x64ED JUMP JUMPDEST SWAP2 POP POP PUSH3 0x4960 JUMP JUMPDEST POP PUSH1 0x40 MLOAD PUSH32 0x8C379A000000000000000000000000000000000000000000000000000000000 DUP2 MSTORE PUSH1 0x4 ADD PUSH3 0x4B16 SWAP1 PUSH3 0x70D0 JUMP JUMPDEST PUSH1 0x40 MLOAD DUP1 SWAP2 SUB SWAP1 REVERT JUMPDEST SWAP4 SWAP3 POP POP POP JUMP JUMPDEST PUSH0 PUSH20 0xFFFFFFFFFFFFFFFFFFFFFFFFFFFFFFFFFFFFFFFF AND DUP4 PUSH20 0xFFFFFFFFFFFFFFFFFFFFFFFFFFFFFFFFFFFFFFFF AND SUB PUSH3 0x4B7A JUMPI DUP1 PUSH1 0x2 PUSH0 DUP3 DUP3 SLOAD PUSH3 0x4B6D SWAP2 SWAP1 PUSH3 0x6486 JUMP JUMPDEST SWAP3 POP POP DUP2 SWAP1 SSTORE POP PUSH3 0x4C4B JUMP JUMPDEST PUSH0 DUP1 PUSH0 DUP6 PUSH20 0xFFFFFFFFFFFFFFFFFFFFFFFFFFFFFFFFFFFFFFFF AND PUSH20 0xFFFFFFFFFFFFFFFFFFFFFFFFFFFFFFFFFFFFFFFF AND DUP2 MSTORE PUSH1 0x20 ADD SWAP1 DUP2 MSTORE PUSH1 0x20 ADD PUSH0 KECCAK256 SLOAD SWAP1 POP DUP2 DUP2 LT ISZERO PUSH3 0x4C06 JUMPI DUP4 DUP2 DUP4 PUSH1 0x40 MLOAD PUSH32 0xE450D38C00000000000000000000000000000000000000000000000000000000 DUP2 MSTORE PUSH1 0x4 ADD PUSH3 0x4BFD SWAP4 SWAP3 SWAP2 SWAP1 PUSH3 0x682E JUMP JUMPDEST PUSH1 0x40 MLOAD DUP1 SWAP2 SUB SWAP1 REVERT JUMPDEST DUP2 DUP2 SUB PUSH0 DUP1 DUP7 PUSH20 0xFFFFFFFFFFFFFFFFFFFFFFFFFFFFFFFFFFFFFFFF AND PUSH20 0xFFFFFFFFFFFFFFFFFFFFFFFFFFFFFFFFFFFFFFFF AND DUP2 MSTORE PUSH1 0x20 ADD SWAP1 DUP2 MSTORE PUSH1 0x20 ADD PUSH0 KECCAK256 DUP2 SWAP1 SSTORE POP POP JUMPDEST PUSH0 PUSH20 0xFFFFFFFFFFFFFFFFFFFFFFFFFFFFFFFFFFFFFFFF AND DUP3 PUSH20 0xFFFFFFFFFFFFFFFFFFFFFFFFFFFFFFFFFFFFFFFF AND SUB PUSH3 0x4C94 JUMPI DUP1 PUSH1 0x2 PUSH0 DUP3 DUP3 SLOAD SUB SWAP3 POP POP DUP2 SWAP1 SSTORE POP PUSH3 0x4CDE JUMP JUMPDEST DUP1 PUSH0 DUP1 DUP5 PUSH20 0xFFFFFFFFFFFFFFFFFFFFFFFFFFFFFFFFFFFFFFFF AND PUSH20 0xFFFFFFFFFFFFFFFFFFFFFFFFFFFFFFFFFFFFFFFF AND DUP2 MSTORE PUSH1 0x20 ADD SWAP1 DUP2 MSTORE PUSH1 0x20 ADD PUSH0 KECCAK256 PUSH0 DUP3 DUP3 SLOAD ADD SWAP3 POP POP DUP2 SWAP1 SSTORE POP JUMPDEST DUP2 PUSH20 0xFFFFFFFFFFFFFFFFFFFFFFFFFFFFFFFFFFFFFFFF AND DUP4 PUSH20 0xFFFFFFFFFFFFFFFFFFFFFFFFFFFFFFFFFFFFFFFF AND PUSH32 0xDDF252AD1BE2C89B69C2B068FC378DAA952BA7F163C4A11628F55A4DF523B3EF DUP4 PUSH1 0x40 MLOAD PUSH3 0x4D3D SWAP2 SWAP1 PUSH3 0x5AD6 JUMP JUMPDEST PUSH1 0x40 MLOAD DUP1 SWAP2 SUB SWAP1 LOG3 POP POP POP JUMP JUMPDEST PUSH0 PUSH32 0x8B73C3C69BB8FE3D512ECC4CF759CC79239F7B179B0FFACAA9A75D522B39400F PUSH32 0x0 PUSH32 0x0 CHAINID ADDRESS PUSH1 0x40 MLOAD PUSH1 0x20 ADD PUSH3 0x4DC6 SWAP6 SWAP5 SWAP4 SWAP3 SWAP2 SWAP1 PUSH3 0x70F0 JUMP JUMPDEST PUSH1 0x40 MLOAD PUSH1 0x20 DUP2 DUP4 SUB SUB DUP2 MSTORE SWAP1 PUSH1 0x40 MSTORE DUP1 MLOAD SWAP1 PUSH1 0x20 ADD KECCAK256 SWAP1 POP SWAP1 JUMP JUMPDEST PUSH0 DUP1 PUSH0 SWAP1 POP PUSH0 PUSH1 0x80 DUP5 SWAP1 SHR GT ISZERO PUSH3 0x4E01 JUMPI PUSH1 0x80 DUP4 SWAP1 SHR SWAP3 POP PUSH1 0x80 DUP2 ADD SWAP1 POP JUMPDEST PUSH0 PUSH1 0x40 DUP5 SWAP1 SHR GT ISZERO PUSH3 0x4E1C JUMPI PUSH1 0x40 DUP4 SWAP1 SHR SWAP3 POP PUSH1 0x40 DUP2 ADD SWAP1 POP JUMPDEST PUSH0 PUSH1 0x20 DUP5 SWAP1 SHR GT ISZERO PUSH3 0x4E37 JUMPI PUSH1 0x20 DUP4 SWAP1 SHR SWAP3 POP PUSH1 0x20 DUP2 ADD SWAP1 POP JUMPDEST PUSH0 PUSH1 0x10 DUP5 SWAP1 SHR GT ISZERO PUSH3 0x4E52 JUMPI PUSH1 0x10 DUP4 SWAP1 SHR SWAP3 POP PUSH1 0x10 DUP2 ADD SWAP1 POP JUMPDEST PUSH0 PUSH1 0x8 DUP5 SWAP1 SHR GT ISZERO PUSH3 0x4E6D JUMPI PUSH1 0x8 DUP4 SWAP1 SHR SWAP3 POP PUSH1 0x8 DUP2 ADD SWAP1 POP JUMPDEST PUSH0 PUSH1 0x4 DUP5 SWAP1 SHR GT ISZERO PUSH3 0x4E88 JUMPI PUSH1 0x4 DUP4 SWAP1 SHR SWAP3 POP PUSH1 0x4 DUP2 ADD SWAP1 POP JUMPDEST PUSH0 PUSH1 0x2 DUP5 SWAP1 SHR GT ISZERO PUSH3 0x4EA3 JUMPI PUSH1 0x2 DUP4 SWAP1 SHR SWAP3 POP PUSH1 0x2 DUP2 ADD SWAP1 POP JUMPDEST PUSH0 PUSH1 0x1 DUP5 SWAP1 SHR GT ISZERO PUSH3 0x4EB7 JUMPI PUSH1 0x1 DUP2 ADD SWAP1 POP JUMPDEST DUP1 SWAP2 POP POP SWAP2 SWAP1 POP JUMP JUMPDEST PUSH1 0x60 PUSH1 0xFF PUSH0 SHL DUP4 EQ PUSH3 0x4EE0 JUMPI PUSH3 0x4ED8 DUP4 PUSH3 0x538E JUMP JUMPDEST SWAP1 POP PUSH3 0x4F73 JUMP JUMPDEST DUP2 DUP1 SLOAD PUSH3 0x4EEE SWAP1 PUSH3 0x6425 JUMP JUMPDEST DUP1 PUSH1 0x1F ADD PUSH1 0x20 DUP1 SWAP2 DIV MUL PUSH1 0x20 ADD PUSH1 0x40 MLOAD SWAP1 DUP2 ADD PUSH1 0x40 MSTORE DUP1 SWAP3 SWAP2 SWAP1 DUP2 DUP2 MSTORE PUSH1 0x20 ADD DUP3 DUP1 SLOAD PUSH3 0x4F1C SWAP1 PUSH3 0x6425 JUMP JUMPDEST DUP1 ISZERO PUSH3 0x4F6B JUMPI DUP1 PUSH1 0x1F LT PUSH3 0x4F41 JUMPI PUSH2 0x100 DUP1 DUP4 SLOAD DIV MUL DUP4 MSTORE SWAP2 PUSH1 0x20 ADD SWAP2 PUSH3 0x4F6B JUMP JUMPDEST DUP3 ADD SWAP2 SWAP1 PUSH0 MSTORE PUSH1 0x20 PUSH0 KECCAK256 SWAP1 JUMPDEST DUP2 SLOAD DUP2 MSTORE SWAP1 PUSH1 0x1 ADD SWAP1 PUSH1 0x20 ADD DUP1 DUP4 GT PUSH3 0x4F4D JUMPI DUP3 SWAP1 SUB PUSH1 0x1F AND DUP3 ADD SWAP2 JUMPDEST POP POP POP POP POP SWAP1 POP JUMPDEST SWAP3 SWAP2 POP POP JUMP JUMPDEST PUSH0 PUSH1 0x40 MLOAD PUSH32 0x1901000000000000000000000000000000000000000000000000000000000000 DUP2 MSTORE DUP4 PUSH1 0x2 DUP3 ADD MSTORE DUP3 PUSH1 0x22 DUP3 ADD MSTORE PUSH1 0x42 DUP2 KECCAK256 SWAP2 POP POP SWAP3 SWAP2 POP POP JUMP JUMPDEST PUSH0 DUP1 PUSH0 PUSH32 0x7FFFFFFFFFFFFFFFFFFFFFFFFFFFFFFF5D576E7357A4501DDFE92F46681B20A0 DUP5 PUSH0 SHR GT ISZERO PUSH3 0x4FF7 JUMPI PUSH0 PUSH1 0x3 DUP6 SWAP3 POP SWAP3 POP SWAP3 POP PUSH3 0x509D JUMP JUMPDEST PUSH0 PUSH1 0x1 DUP9 DUP9 DUP9 DUP9 PUSH1 0x40 MLOAD PUSH0 DUP2 MSTORE PUSH1 0x20 ADD PUSH1 0x40 MSTORE PUSH1 0x40 MLOAD PUSH3 0x501C SWAP5 SWAP4 SWAP3 SWAP2 SWAP1 PUSH3 0x714B JUMP JUMPDEST PUSH1 0x20 PUSH1 0x40 MLOAD PUSH1 0x20 DUP2 SUB SWAP1 DUP1 DUP5 SUB SWAP1 DUP6 GAS STATICCALL ISZERO DUP1 ISZERO PUSH3 0x503D JUMPI RETURNDATASIZE PUSH0 DUP1 RETURNDATACOPY RETURNDATASIZE PUSH0 REVERT JUMPDEST POP POP POP PUSH1 0x20 PUSH1 0x40 MLOAD SUB MLOAD SWAP1 POP PUSH0 PUSH20 0xFFFFFFFFFFFFFFFFFFFFFFFFFFFFFFFFFFFFFFFF AND DUP2 PUSH20 0xFFFFFFFFFFFFFFFFFFFFFFFFFFFFFFFFFFFFFFFF AND SUB PUSH3 0x5090 JUMPI PUSH0 PUSH1 0x1 PUSH0 DUP1 SHL SWAP4 POP SWAP4 POP SWAP4 POP POP PUSH3 0x509D JUMP JUMPDEST DUP1 PUSH0 DUP1 PUSH0 SHL SWAP4 POP SWAP4 POP SWAP4 POP POP JUMPDEST SWAP5 POP SWAP5 POP SWAP5 SWAP2 POP POP JUMP JUMPDEST PUSH0 PUSH1 0x3 DUP2 GT ISZERO PUSH3 0x50BD JUMPI PUSH3 0x50BC PUSH3 0x7196 JUMP JUMPDEST JUMPDEST DUP3 PUSH1 0x3 DUP2 GT ISZERO PUSH3 0x50D3 JUMPI PUSH3 0x50D2 PUSH3 0x7196 JUMP JUMPDEST JUMPDEST SUB ISZERO PUSH3 0x5225 JUMPI PUSH1 0x1 PUSH1 0x3 DUP2 GT ISZERO PUSH3 0x50F1 JUMPI PUSH3 0x50F0 PUSH3 0x7196 JUMP JUMPDEST JUMPDEST DUP3 PUSH1 0x3 DUP2 GT ISZERO PUSH3 0x5107 JUMPI PUSH3 0x5106 PUSH3 0x7196 JUMP JUMPDEST JUMPDEST SUB PUSH3 0x513F JUMPI PUSH1 0x40 MLOAD PUSH32 0xF645EEDF00000000000000000000000000000000000000000000000000000000 DUP2 MSTORE PUSH1 0x4 ADD PUSH1 0x40 MLOAD DUP1 SWAP2 SUB SWAP1 REVERT JUMPDEST PUSH1 0x2 PUSH1 0x3 DUP2 GT ISZERO PUSH3 0x5156 JUMPI PUSH3 0x5155 PUSH3 0x7196 JUMP JUMPDEST JUMPDEST DUP3 PUSH1 0x3 DUP2 GT ISZERO PUSH3 0x516C JUMPI PUSH3 0x516B PUSH3 0x7196 JUMP JUMPDEST JUMPDEST SUB PUSH3 0x51B3 JUMPI DUP1 PUSH0 SHR PUSH1 0x40 MLOAD PUSH32 0xFCE698F700000000000000000000000000000000000000000000000000000000 DUP2 MSTORE PUSH1 0x4 ADD PUSH3 0x51AA SWAP2 SWAP1 PUSH3 0x5AD6 JUMP JUMPDEST PUSH1 0x40 MLOAD DUP1 SWAP2 SUB SWAP1 REVERT JUMPDEST PUSH1 0x3 DUP1 DUP2 GT ISZERO PUSH3 0x51C9 JUMPI PUSH3 0x51C8 PUSH3 0x7196 JUMP JUMPDEST JUMPDEST DUP3 PUSH1 0x3 DUP2 GT ISZERO PUSH3 0x51DF JUMPI PUSH3 0x51DE PUSH3 0x7196 JUMP JUMPDEST JUMPDEST SUB PUSH3 0x5224 JUMPI DUP1 PUSH1 0x40 MLOAD PUSH32 0xD78BCE0C00000000000000000000000000000000000000000000000000000000 DUP2 MSTORE PUSH1 0x4 ADD PUSH3 0x521B SWAP2 SWAP1 PUSH3 0x5BFC JUMP JUMPDEST PUSH1 0x40 MLOAD DUP1 SWAP2 SUB SWAP1 REVERT JUMPDEST JUMPDEST POP POP JUMP JUMPDEST PUSH1 0x60 PUSH3 0x5238 DUP4 DUP4 PUSH0 PUSH3 0x5406 JUMP JUMPDEST SWAP1 POP SWAP3 SWAP2 POP POP JUMP JUMPDEST PUSH0 DUP1 PUSH8 0xDE0B6B3A7640000 DUP4 DUP6 PUSH3 0x5259 SWAP2 SWAP1 PUSH3 0x62FF JUMP JUMPDEST PUSH3 0x5265 SWAP2 SWAP1 PUSH3 0x6376 JUMP JUMPDEST SWAP1 POP PUSH0 PUSH8 0xDE0B6B3A7640000 DUP5 DUP6 PUSH3 0x527F SWAP2 SWAP1 PUSH3 0x62FF JUMP JUMPDEST PUSH3 0x528B SWAP2 SWAP1 PUSH3 0x6376 JUMP JUMPDEST PUSH8 0xDE0B6B3A7640000 DUP7 DUP8 PUSH3 0x52A2 SWAP2 SWAP1 PUSH3 0x62FF JUMP JUMPDEST PUSH3 0x52AE SWAP2 SWAP1 PUSH3 0x6376 JUMP JUMPDEST PUSH3 0x52BA SWAP2 SWAP1 PUSH3 0x6486 JUMP JUMPDEST SWAP1 POP PUSH8 0xDE0B6B3A7640000 DUP2 DUP4 PUSH3 0x52D3 SWAP2 SWAP1 PUSH3 0x62FF JUMP JUMPDEST PUSH3 0x52DF SWAP2 SWAP1 PUSH3 0x6376 JUMP JUMPDEST SWAP3 POP POP POP SWAP3 SWAP2 POP POP JUMP JUMPDEST PUSH0 PUSH8 0xDE0B6B3A7640000 DUP4 PUSH8 0xDE0B6B3A7640000 DUP6 DUP7 PUSH3 0x530B SWAP2 SWAP1 PUSH3 0x62FF JUMP JUMPDEST PUSH3 0x5317 SWAP2 SWAP1 PUSH3 0x6376 JUMP JUMPDEST PUSH3 0x5323 SWAP2 SWAP1 PUSH3 0x62FF JUMP JUMPDEST PUSH3 0x532F SWAP2 SWAP1 PUSH3 0x6376 JUMP JUMPDEST PUSH8 0xDE0B6B3A7640000 DUP1 DUP5 DUP6 PUSH3 0x5347 SWAP2 SWAP1 PUSH3 0x62FF JUMP JUMPDEST PUSH3 0x5353 SWAP2 SWAP1 PUSH3 0x6376 JUMP JUMPDEST DUP6 PUSH1 0x3 PUSH3 0x5362 SWAP2 SWAP1 PUSH3 0x62FF JUMP JUMPDEST PUSH3 0x536E SWAP2 SWAP1 PUSH3 0x62FF JUMP JUMPDEST PUSH3 0x537A SWAP2 SWAP1 PUSH3 0x6376 JUMP JUMPDEST PUSH3 0x5386 SWAP2 SWAP1 PUSH3 0x6486 JUMP JUMPDEST SWAP1 POP SWAP3 SWAP2 POP POP JUMP JUMPDEST PUSH1 0x60 PUSH0 PUSH3 0x539C DUP4 PUSH3 0x54D8 JUMP JUMPDEST SWAP1 POP PUSH0 PUSH1 0x20 PUSH8 0xFFFFFFFFFFFFFFFF DUP2 GT ISZERO PUSH3 0x53BD JUMPI PUSH3 0x53BC PUSH3 0x6459 JUMP JUMPDEST JUMPDEST PUSH1 0x40 MLOAD SWAP1 DUP1 DUP3 MSTORE DUP1 PUSH1 0x1F ADD PUSH1 0x1F NOT AND PUSH1 0x20 ADD DUP3 ADD PUSH1 0x40 MSTORE DUP1 ISZERO PUSH3 0x53F0 JUMPI DUP2 PUSH1 0x20 ADD PUSH1 0x1 DUP3 MUL DUP1 CALLDATASIZE DUP4 CALLDATACOPY DUP1 DUP3 ADD SWAP2 POP POP SWAP1 POP JUMPDEST POP SWAP1 POP DUP2 DUP2 MSTORE DUP4 PUSH1 0x20 DUP3 ADD MSTORE DUP1 SWAP3 POP POP POP SWAP2 SWAP1 POP JUMP JUMPDEST PUSH1 0x60 DUP2 SELFBALANCE LT ISZERO PUSH3 0x5450 JUMPI ADDRESS PUSH1 0x40 MLOAD PUSH32 0xCD78605900000000000000000000000000000000000000000000000000000000 DUP2 MSTORE PUSH1 0x4 ADD PUSH3 0x5447 SWAP2 SWAP1 PUSH3 0x5963 JUMP JUMPDEST PUSH1 0x40 MLOAD DUP1 SWAP2 SUB SWAP1 REVERT JUMPDEST PUSH0 DUP1 DUP6 PUSH20 0xFFFFFFFFFFFFFFFFFFFFFFFFFFFFFFFFFFFFFFFF AND DUP5 DUP7 PUSH1 0x40 MLOAD PUSH3 0x547A SWAP2 SWAP1 PUSH3 0x720D JUMP JUMPDEST PUSH0 PUSH1 0x40 MLOAD DUP1 DUP4 SUB DUP2 DUP6 DUP8 GAS CALL SWAP3 POP POP POP RETURNDATASIZE DUP1 PUSH0 DUP2 EQ PUSH3 0x54B6 JUMPI PUSH1 0x40 MLOAD SWAP2 POP PUSH1 0x1F NOT PUSH1 0x3F RETURNDATASIZE ADD AND DUP3 ADD PUSH1 0x40 MSTORE RETURNDATASIZE DUP3 MSTORE RETURNDATASIZE PUSH0 PUSH1 0x20 DUP5 ADD RETURNDATACOPY PUSH3 0x54BB JUMP JUMPDEST PUSH1 0x60 SWAP2 POP JUMPDEST POP SWAP2 POP SWAP2 POP PUSH3 0x54CD DUP7 DUP4 DUP4 PUSH3 0x5527 JUMP JUMPDEST SWAP3 POP POP POP SWAP4 SWAP3 POP POP POP JUMP JUMPDEST PUSH0 DUP1 PUSH1 0xFF DUP4 PUSH0 SHR AND SWAP1 POP PUSH1 0x1F DUP2 GT ISZERO PUSH3 0x551E JUMPI PUSH1 0x40 MLOAD PUSH32 0xB3512B0C00000000000000000000000000000000000000000000000000000000 DUP2 MSTORE PUSH1 0x4 ADD PUSH1 0x40 MLOAD DUP1 SWAP2 SUB SWAP1 REVERT JUMPDEST DUP1 SWAP2 POP POP SWAP2 SWAP1 POP JUMP JUMPDEST PUSH1 0x60 DUP3 PUSH3 0x5540 JUMPI PUSH3 0x553A DUP3 PUSH3 0x55BD JUMP JUMPDEST PUSH3 0x55B5 JUMP JUMPDEST PUSH0 DUP3 MLOAD EQ DUP1 ISZERO PUSH3 0x5567 JUMPI POP PUSH0 DUP5 PUSH20 0xFFFFFFFFFFFFFFFFFFFFFFFFFFFFFFFFFFFFFFFF AND EXTCODESIZE EQ JUMPDEST ISZERO PUSH3 0x55AC JUMPI DUP4 PUSH1 0x40 MLOAD PUSH32 0x9996B31500000000000000000000000000000000000000000000000000000000 DUP2 MSTORE PUSH1 0x4 ADD PUSH3 0x55A3 SWAP2 SWAP1 PUSH3 0x5963 JUMP JUMPDEST PUSH1 0x40 MLOAD DUP1 SWAP2 SUB SWAP1 REVERT JUMPDEST DUP2 SWAP1 POP PUSH3 0x55B6 JUMP JUMPDEST JUMPDEST SWAP4 SWAP3 POP POP POP JUMP JUMPDEST PUSH0 DUP2 MLOAD GT ISZERO PUSH3 0x55D0 JUMPI DUP1 MLOAD DUP1 DUP3 PUSH1 0x20 ADD REVERT JUMPDEST PUSH1 0x40 MLOAD PUSH32 0x1425EA4200000000000000000000000000000000000000000000000000000000 DUP2 MSTORE PUSH1 0x4 ADD PUSH1 0x40 MLOAD DUP1 SWAP2 SUB SWAP1 REVERT JUMPDEST PUSH1 0x40 MLOAD DUP1 PUSH1 0x60 ADD PUSH1 0x40 MSTORE DUP1 PUSH0 DUP2 MSTORE PUSH1 0x20 ADD PUSH0 DUP2 MSTORE PUSH1 0x20 ADD PUSH0 DUP2 MSTORE POP SWAP1 JUMP JUMPDEST PUSH2 0x82D DUP1 PUSH3 0x7226 DUP4 CODECOPY ADD SWAP1 JUMP JUMPDEST PUSH0 PUSH1 0x40 MLOAD SWAP1 POP SWAP1 JUMP JUMPDEST PUSH0 DUP1 REVERT JUMPDEST PUSH0 DUP1 REVERT JUMPDEST PUSH0 DUP2 SWAP1 POP SWAP2 SWAP1 POP JUMP JUMPDEST PUSH3 0x5653 DUP2 PUSH3 0x563F JUMP JUMPDEST DUP2 EQ PUSH3 0x565E JUMPI PUSH0 DUP1 REVERT JUMPDEST POP JUMP JUMPDEST PUSH0 DUP2 CALLDATALOAD SWAP1 POP PUSH3 0x5671 DUP2 PUSH3 0x5648 JUMP JUMPDEST SWAP3 SWAP2 POP POP JUMP JUMPDEST PUSH0 PUSH20 0xFFFFFFFFFFFFFFFFFFFFFFFFFFFFFFFFFFFFFFFF DUP3 AND SWAP1 POP SWAP2 SWAP1 POP JUMP JUMPDEST PUSH0 PUSH3 0x56A2 DUP3 PUSH3 0x5677 JUMP JUMPDEST SWAP1 POP SWAP2 SWAP1 POP JUMP JUMPDEST PUSH3 0x56B4 DUP2 PUSH3 0x5696 JUMP JUMPDEST DUP2 EQ PUSH3 0x56BF JUMPI PUSH0 DUP1 REVERT JUMPDEST POP JUMP JUMPDEST PUSH0 DUP2 CALLDATALOAD SWAP1 POP PUSH3 0x56D2 DUP2 PUSH3 0x56A9 JUMP JUMPDEST SWAP3 SWAP2 POP POP JUMP JUMPDEST PUSH0 DUP1 REVERT JUMPDEST PUSH0 DUP1 REVERT JUMPDEST PUSH0 DUP1 REVERT JUMPDEST PUSH0 DUP1 DUP4 PUSH1 0x1F DUP5 ADD SLT PUSH3 0x56FC JUMPI PUSH3 0x56FB PUSH3 0x56D8 JUMP JUMPDEST JUMPDEST DUP3 CALLDATALOAD SWAP1 POP PUSH8 0xFFFFFFFFFFFFFFFF DUP2 GT ISZERO PUSH3 0x571C JUMPI PUSH3 0x571B PUSH3 0x56DC JUMP JUMPDEST JUMPDEST PUSH1 0x20 DUP4 ADD SWAP2 POP DUP4 PUSH1 0x1 DUP3 MUL DUP4 ADD GT ISZERO PUSH3 0x573B JUMPI PUSH3 0x573A PUSH3 0x56E0 JUMP JUMPDEST JUMPDEST SWAP3 POP SWAP3 SWAP1 POP JUMP JUMPDEST PUSH0 DUP1 PUSH0 DUP1 PUSH0 PUSH1 0x80 DUP7 DUP9 SUB SLT ISZERO PUSH3 0x575E JUMPI PUSH3 0x575D PUSH3 0x5637 JUMP JUMPDEST JUMPDEST PUSH0 PUSH3 0x576D DUP9 DUP3 DUP10 ADD PUSH3 0x5661 JUMP JUMPDEST SWAP6 POP POP PUSH1 0x20 PUSH3 0x5780 DUP9 DUP3 DUP10 ADD PUSH3 0x5661 JUMP JUMPDEST SWAP5 POP POP PUSH1 0x40 PUSH3 0x5793 DUP9 DUP3 DUP10 ADD PUSH3 0x56C2 JUMP JUMPDEST SWAP4 POP POP PUSH1 0x60 DUP7 ADD CALLDATALOAD PUSH8 0xFFFFFFFFFFFFFFFF DUP2 GT ISZERO PUSH3 0x57B7 JUMPI PUSH3 0x57B6 PUSH3 0x563B JUMP JUMPDEST JUMPDEST PUSH3 0x57C5 DUP9 DUP3 DUP10 ADD PUSH3 0x56E4 JUMP JUMPDEST SWAP3 POP SWAP3 POP POP SWAP3 SWAP6 POP SWAP3 SWAP6 SWAP1 SWAP4 POP JUMP JUMPDEST PUSH0 DUP2 MLOAD SWAP1 POP SWAP2 SWAP1 POP JUMP JUMPDEST PUSH0 DUP3 DUP3 MSTORE PUSH1 0x20 DUP3 ADD SWAP1 POP SWAP3 SWAP2 POP POP JUMP JUMPDEST PUSH0 JUMPDEST DUP4 DUP2 LT ISZERO PUSH3 0x580D JUMPI DUP1 DUP3 ADD MLOAD DUP2 DUP5 ADD MSTORE PUSH1 0x20 DUP2 ADD SWAP1 POP PUSH3 0x57F0 JUMP JUMPDEST PUSH0 DUP5 DUP5 ADD MSTORE POP POP POP POP JUMP JUMPDEST PUSH0 PUSH1 0x1F NOT PUSH1 0x1F DUP4 ADD AND SWAP1 POP SWAP2 SWAP1 POP JUMP JUMPDEST PUSH0 PUSH3 0x5834 DUP3 PUSH3 0x57D4 JUMP JUMPDEST PUSH3 0x5840 DUP2 DUP6 PUSH3 0x57DE JUMP JUMPDEST SWAP4 POP PUSH3 0x5852 DUP2 DUP6 PUSH1 0x20 DUP7 ADD PUSH3 0x57EE JUMP JUMPDEST PUSH3 0x585D DUP2 PUSH3 0x5818 JUMP JUMPDEST DUP5 ADD SWAP2 POP POP SWAP3 SWAP2 POP POP JUMP JUMPDEST PUSH0 PUSH1 0x20 DUP3 ADD SWAP1 POP DUP2 DUP2 SUB PUSH0 DUP4 ADD MSTORE PUSH3 0x5882 DUP2 DUP5 PUSH3 0x5828 JUMP JUMPDEST SWAP1 POP SWAP3 SWAP2 POP POP JUMP JUMPDEST PUSH3 0x5895 DUP2 PUSH3 0x563F JUMP JUMPDEST DUP3 MSTORE POP POP JUMP JUMPDEST PUSH0 PUSH1 0x60 DUP3 ADD SWAP1 POP PUSH3 0x58B0 PUSH0 DUP4 ADD DUP7 PUSH3 0x588A JUMP JUMPDEST PUSH3 0x58BF PUSH1 0x20 DUP4 ADD DUP6 PUSH3 0x588A JUMP JUMPDEST PUSH3 0x58CE PUSH1 0x40 DUP4 ADD DUP5 PUSH3 0x588A JUMP JUMPDEST SWAP5 SWAP4 POP POP POP POP JUMP JUMPDEST PUSH0 DUP1 PUSH1 0x40 DUP4 DUP6 SUB SLT ISZERO PUSH3 0x58EF JUMPI PUSH3 0x58EE PUSH3 0x5637 JUMP JUMPDEST JUMPDEST PUSH0 PUSH3 0x58FE DUP6 DUP3 DUP7 ADD PUSH3 0x56C2 JUMP JUMPDEST SWAP3 POP POP PUSH1 0x20 PUSH3 0x5911 DUP6 DUP3 DUP7 ADD PUSH3 0x5661 JUMP JUMPDEST SWAP2 POP POP SWAP3 POP SWAP3 SWAP1 POP JUMP JUMPDEST PUSH0 DUP2 ISZERO ISZERO SWAP1 POP SWAP2 SWAP1 POP JUMP JUMPDEST PUSH3 0x5931 DUP2 PUSH3 0x591B JUMP JUMPDEST DUP3 MSTORE POP POP JUMP JUMPDEST PUSH0 PUSH1 0x20 DUP3 ADD SWAP1 POP PUSH3 0x594C PUSH0 DUP4 ADD DUP5 PUSH3 0x5926 JUMP JUMPDEST SWAP3 SWAP2 POP POP JUMP JUMPDEST PUSH3 0x595D DUP2 PUSH3 0x5696 JUMP JUMPDEST DUP3 MSTORE POP POP JUMP JUMPDEST PUSH0 PUSH1 0x20 DUP3 ADD SWAP1 POP PUSH3 0x5978 PUSH0 DUP4 ADD DUP5 PUSH3 0x5952 JUMP JUMPDEST SWAP3 SWAP2 POP POP JUMP JUMPDEST PUSH0 DUP1 PUSH0 DUP1 PUSH1 0x80 DUP6 DUP8 SUB SLT ISZERO PUSH3 0x5999 JUMPI PUSH3 0x5998 PUSH3 0x5637 JUMP JUMPDEST JUMPDEST PUSH0 PUSH3 0x59A8 DUP8 DUP3 DUP9 ADD PUSH3 0x56C2 JUMP JUMPDEST SWAP5 POP POP PUSH1 0x20 PUSH3 0x59BB DUP8 DUP3 DUP9 ADD PUSH3 0x5661 JUMP JUMPDEST SWAP4 POP POP PUSH1 0x40 PUSH3 0x59CE DUP8 DUP3 DUP9 ADD PUSH3 0x5661 JUMP JUMPDEST SWAP3 POP POP PUSH1 0x60 PUSH3 0x59E1 DUP8 DUP3 DUP9 ADD PUSH3 0x5661 JUMP JUMPDEST SWAP2 POP POP SWAP3 SWAP6 SWAP2 SWAP5 POP SWAP3 POP JUMP JUMPDEST PUSH0 DUP2 MLOAD SWAP1 POP SWAP2 SWAP1 POP JUMP JUMPDEST PUSH0 DUP3 DUP3 MSTORE PUSH1 0x20 DUP3 ADD SWAP1 POP SWAP3 SWAP2 POP POP JUMP JUMPDEST PUSH0 DUP2 SWAP1 POP PUSH1 0x20 DUP3 ADD SWAP1 POP SWAP2 SWAP1 POP JUMP JUMPDEST PUSH3 0x5A21 DUP2 PUSH3 0x563F JUMP JUMPDEST DUP3 MSTORE POP POP JUMP JUMPDEST PUSH0 PUSH3 0x5A34 DUP4 DUP4 PUSH3 0x5A16 JUMP JUMPDEST PUSH1 0x20 DUP4 ADD SWAP1 POP SWAP3 SWAP2 POP POP JUMP JUMPDEST PUSH0 PUSH1 0x20 DUP3 ADD SWAP1 POP SWAP2 SWAP1 POP JUMP JUMPDEST PUSH0 PUSH3 0x5A58 DUP3 PUSH3 0x59ED JUMP JUMPDEST PUSH3 0x5A64 DUP2 DUP6 PUSH3 0x59F7 JUMP JUMPDEST SWAP4 POP PUSH3 0x5A71 DUP4 PUSH3 0x5A07 JUMP JUMPDEST DUP1 PUSH0 JUMPDEST DUP4 DUP2 LT ISZERO PUSH3 0x5AA7 JUMPI DUP2 MLOAD PUSH3 0x5A8B DUP9 DUP3 PUSH3 0x5A27 JUMP JUMPDEST SWAP8 POP PUSH3 0x5A98 DUP4 PUSH3 0x5A40 JUMP JUMPDEST SWAP3 POP POP PUSH1 0x1 DUP2 ADD SWAP1 POP PUSH3 0x5A74 JUMP JUMPDEST POP DUP6 SWAP4 POP POP POP POP SWAP3 SWAP2 POP POP JUMP JUMPDEST PUSH0 PUSH1 0x20 DUP3 ADD SWAP1 POP DUP2 DUP2 SUB PUSH0 DUP4 ADD MSTORE PUSH3 0x5ACE DUP2 DUP5 PUSH3 0x5A4C JUMP JUMPDEST SWAP1 POP SWAP3 SWAP2 POP POP JUMP JUMPDEST PUSH0 PUSH1 0x20 DUP3 ADD SWAP1 POP PUSH3 0x5AEB PUSH0 DUP4 ADD DUP5 PUSH3 0x588A JUMP JUMPDEST SWAP3 SWAP2 POP POP JUMP JUMPDEST PUSH0 PUSH1 0x20 DUP3 DUP5 SUB SLT ISZERO PUSH3 0x5B09 JUMPI PUSH3 0x5B08 PUSH3 0x5637 JUMP JUMPDEST JUMPDEST PUSH0 PUSH3 0x5B18 DUP5 DUP3 DUP6 ADD PUSH3 0x56C2 JUMP JUMPDEST SWAP2 POP POP SWAP3 SWAP2 POP POP JUMP JUMPDEST PUSH0 DUP1 PUSH0 PUSH1 0x60 DUP5 DUP7 SUB SLT ISZERO PUSH3 0x5B3B JUMPI PUSH3 0x5B3A PUSH3 0x5637 JUMP JUMPDEST JUMPDEST PUSH0 PUSH3 0x5B4A DUP7 DUP3 DUP8 ADD PUSH3 0x56C2 JUMP JUMPDEST SWAP4 POP POP PUSH1 0x20 PUSH3 0x5B5D DUP7 DUP3 DUP8 ADD PUSH3 0x56C2 JUMP JUMPDEST SWAP3 POP POP PUSH1 0x40 PUSH3 0x5B70 DUP7 DUP3 DUP8 ADD PUSH3 0x5661 JUMP JUMPDEST SWAP2 POP POP SWAP3 POP SWAP3 POP SWAP3 JUMP JUMPDEST PUSH0 PUSH1 0x20 DUP3 DUP5 SUB SLT ISZERO PUSH3 0x5B92 JUMPI PUSH3 0x5B91 PUSH3 0x5637 JUMP JUMPDEST JUMPDEST PUSH0 PUSH3 0x5BA1 DUP5 DUP3 DUP6 ADD PUSH3 0x5661 JUMP JUMPDEST SWAP2 POP POP SWAP3 SWAP2 POP POP JUMP JUMPDEST PUSH0 PUSH1 0xFF DUP3 AND SWAP1 POP SWAP2 SWAP1 POP JUMP JUMPDEST PUSH3 0x5BC1 DUP2 PUSH3 0x5BAA JUMP JUMPDEST DUP3 MSTORE POP POP JUMP JUMPDEST PUSH0 PUSH1 0x20 DUP3 ADD SWAP1 POP PUSH3 0x5BDC PUSH0 DUP4 ADD DUP5 PUSH3 0x5BB6 JUMP JUMPDEST SWAP3 SWAP2 POP POP JUMP JUMPDEST PUSH0 DUP2 SWAP1 POP SWAP2 SWAP1 POP JUMP JUMPDEST PUSH3 0x5BF6 DUP2 PUSH3 0x5BE2 JUMP JUMPDEST DUP3 MSTORE POP POP JUMP JUMPDEST PUSH0 PUSH1 0x20 DUP3 ADD SWAP1 POP PUSH3 0x5C11 PUSH0 DUP4 ADD DUP5 PUSH3 0x5BEB JUMP JUMPDEST SWAP3 SWAP2 POP POP JUMP JUMPDEST PUSH0 PUSH1 0xE0 DUP3 ADD SWAP1 POP PUSH3 0x5C2C PUSH0 DUP4 ADD DUP11 PUSH3 0x588A JUMP JUMPDEST PUSH3 0x5C3B PUSH1 0x20 DUP4 ADD DUP10 PUSH3 0x588A JUMP JUMPDEST PUSH3 0x5C4A PUSH1 0x40 DUP4 ADD DUP9 PUSH3 0x588A JUMP JUMPDEST PUSH3 0x5C59 PUSH1 0x60 DUP4 ADD DUP8 PUSH3 0x588A JUMP JUMPDEST PUSH3 0x5C68 PUSH1 0x80 DUP4 ADD DUP7 PUSH3 0x5926 JUMP JUMPDEST PUSH3 0x5C77 PUSH1 0xA0 DUP4 ADD DUP6 PUSH3 0x5952 JUMP JUMPDEST PUSH3 0x5C86 PUSH1 0xC0 DUP4 ADD DUP5 PUSH3 0x5952 JUMP JUMPDEST SWAP9 SWAP8 POP POP POP POP POP POP POP POP JUMP JUMPDEST PUSH0 DUP1 PUSH0 PUSH1 0x60 DUP5 DUP7 SUB SLT ISZERO PUSH3 0x5CAC JUMPI PUSH3 0x5CAB PUSH3 0x5637 JUMP JUMPDEST JUMPDEST PUSH0 PUSH3 0x5CBB DUP7 DUP3 DUP8 ADD PUSH3 0x56C2 JUMP JUMPDEST SWAP4 POP POP PUSH1 0x20 PUSH3 0x5CCE DUP7 DUP3 DUP8 ADD PUSH3 0x5661 JUMP JUMPDEST SWAP3 POP POP PUSH1 0x40 PUSH3 0x5CE1 DUP7 DUP3 DUP8 ADD PUSH3 0x5661 JUMP JUMPDEST SWAP2 POP POP SWAP3 POP SWAP3 POP SWAP3 JUMP JUMPDEST PUSH0 PUSH32 0xFF00000000000000000000000000000000000000000000000000000000000000 DUP3 AND SWAP1 POP SWAP2 SWAP1 POP JUMP JUMPDEST PUSH3 0x5D21 DUP2 PUSH3 0x5CEB JUMP JUMPDEST DUP3 MSTORE POP POP JUMP JUMPDEST PUSH0 PUSH1 0xE0 DUP3 ADD SWAP1 POP PUSH3 0x5D3C PUSH0 DUP4 ADD DUP11 PUSH3 0x5D16 JUMP JUMPDEST DUP2 DUP2 SUB PUSH1 0x20 DUP4 ADD MSTORE PUSH3 0x5D50 DUP2 DUP10 PUSH3 0x5828 JUMP JUMPDEST SWAP1 POP DUP2 DUP2 SUB PUSH1 0x40 DUP4 ADD MSTORE PUSH3 0x5D66 DUP2 DUP9 PUSH3 0x5828 JUMP JUMPDEST SWAP1 POP PUSH3 0x5D77 PUSH1 0x60 DUP4 ADD DUP8 PUSH3 0x588A JUMP JUMPDEST PUSH3 0x5D86 PUSH1 0x80 DUP4 ADD DUP7 PUSH3 0x5952 JUMP JUMPDEST PUSH3 0x5D95 PUSH1 0xA0 DUP4 ADD DUP6 PUSH3 0x5BEB JUMP JUMPDEST DUP2 DUP2 SUB PUSH1 0xC0 DUP4 ADD MSTORE PUSH3 0x5DA9 DUP2 DUP5 PUSH3 0x5A4C JUMP JUMPDEST SWAP1 POP SWAP9 SWAP8 POP POP POP POP POP POP POP POP JUMP JUMPDEST PUSH0 PUSH1 0x40 DUP3 ADD SWAP1 POP PUSH3 0x5DCC PUSH0 DUP4 ADD DUP6 PUSH3 0x588A JUMP JUMPDEST PUSH3 0x5DDB PUSH1 0x20 DUP4 ADD DUP5 PUSH3 0x588A JUMP JUMPDEST SWAP4 SWAP3 POP POP POP JUMP JUMPDEST PUSH1 0x60 DUP3 ADD PUSH0 DUP3 ADD MLOAD PUSH3 0x5DF8 PUSH0 DUP6 ADD DUP3 PUSH3 0x5A16 JUMP JUMPDEST POP PUSH1 0x20 DUP3 ADD MLOAD PUSH3 0x5E0D PUSH1 0x20 DUP6 ADD DUP3 PUSH3 0x5A16 JUMP JUMPDEST POP PUSH1 0x40 DUP3 ADD MLOAD PUSH3 0x5E22 PUSH1 0x40 DUP6 ADD DUP3 PUSH3 0x5A16 JUMP JUMPDEST POP POP POP POP JUMP JUMPDEST PUSH0 PUSH1 0x60 DUP3 ADD SWAP1 POP PUSH3 0x5E3D PUSH0 DUP4 ADD DUP5 PUSH3 0x5DE2 JUMP JUMPDEST SWAP3 SWAP2 POP POP JUMP JUMPDEST PUSH0 PUSH1 0x40 DUP3 ADD SWAP1 POP PUSH3 0x5E58 PUSH0 DUP4 ADD DUP6 PUSH3 0x5952 JUMP JUMPDEST PUSH3 0x5E67 PUSH1 0x20 DUP4 ADD DUP5 PUSH3 0x5952 JUMP JUMPDEST SWAP4 SWAP3 POP POP POP JUMP JUMPDEST PUSH0 DUP1 DUP4 PUSH1 0x1F DUP5 ADD SLT PUSH3 0x5E86 JUMPI PUSH3 0x5E85 PUSH3 0x56D8 JUMP JUMPDEST JUMPDEST DUP3 CALLDATALOAD SWAP1 POP PUSH8 0xFFFFFFFFFFFFFFFF DUP2 GT ISZERO PUSH3 0x5EA6 JUMPI PUSH3 0x5EA5 PUSH3 0x56DC JUMP JUMPDEST JUMPDEST PUSH1 0x20 DUP4 ADD SWAP2 POP DUP4 PUSH1 0x1 DUP3 MUL DUP4 ADD GT ISZERO PUSH3 0x5EC5 JUMPI PUSH3 0x5EC4 PUSH3 0x56E0 JUMP JUMPDEST JUMPDEST SWAP3 POP SWAP3 SWAP1 POP JUMP JUMPDEST PUSH0 DUP1 PUSH1 0x20 DUP4 DUP6 SUB SLT ISZERO PUSH3 0x5EE5 JUMPI PUSH3 0x5EE4 PUSH3 0x5637 JUMP JUMPDEST JUMPDEST PUSH0 DUP4 ADD CALLDATALOAD PUSH8 0xFFFFFFFFFFFFFFFF DUP2 GT ISZERO PUSH3 0x5F05 JUMPI PUSH3 0x5F04 PUSH3 0x563B JUMP JUMPDEST JUMPDEST PUSH3 0x5F13 DUP6 DUP3 DUP7 ADD PUSH3 0x5E6E JUMP JUMPDEST SWAP3 POP SWAP3 POP POP SWAP3 POP SWAP3 SWAP1 POP JUMP JUMPDEST PUSH3 0x5F2A DUP2 PUSH3 0x5BAA JUMP JUMPDEST DUP2 EQ PUSH3 0x5F35 JUMPI PUSH0 DUP1 REVERT JUMPDEST POP JUMP JUMPDEST PUSH0 DUP2 CALLDATALOAD SWAP1 POP PUSH3 0x5F48 DUP2 PUSH3 0x5F1F JUMP JUMPDEST SWAP3 SWAP2 POP POP JUMP JUMPDEST PUSH3 0x5F59 DUP2 PUSH3 0x5BE2 JUMP JUMPDEST DUP2 EQ PUSH3 0x5F64 JUMPI PUSH0 DUP1 REVERT JUMPDEST POP JUMP JUMPDEST PUSH0 DUP2 CALLDATALOAD SWAP1 POP PUSH3 0x5F77 DUP2 PUSH3 0x5F4E JUMP JUMPDEST SWAP3 SWAP2 POP POP JUMP JUMPDEST PUSH0 DUP1 PUSH0 DUP1 PUSH0 DUP1 PUSH0 PUSH1 0xE0 DUP9 DUP11 SUB SLT ISZERO PUSH3 0x5F9B JUMPI PUSH3 0x5F9A PUSH3 0x5637 JUMP JUMPDEST JUMPDEST PUSH0 PUSH3 0x5FAA DUP11 DUP3 DUP12 ADD PUSH3 0x56C2 JUMP JUMPDEST SWAP8 POP POP PUSH1 0x20 PUSH3 0x5FBD DUP11 DUP3 DUP12 ADD PUSH3 0x56C2 JUMP JUMPDEST SWAP7 POP POP PUSH1 0x40 PUSH3 0x5FD0 DUP11 DUP3 DUP12 ADD PUSH3 0x5661 JUMP JUMPDEST SWAP6 POP POP PUSH1 0x60 PUSH3 0x5FE3 DUP11 DUP3 DUP12 ADD PUSH3 0x5661 JUMP JUMPDEST SWAP5 POP POP PUSH1 0x80 PUSH3 0x5FF6 DUP11 DUP3 DUP12 ADD PUSH3 0x5F38 JUMP JUMPDEST SWAP4 POP POP PUSH1 0xA0 PUSH3 0x6009 DUP11 DUP3 DUP12 ADD PUSH3 0x5F67 JUMP JUMPDEST SWAP3 POP POP PUSH1 0xC0 PUSH3 0x601C DUP11 DUP3 DUP12 ADD PUSH3 0x5F67 JUMP JUMPDEST SWAP2 POP POP SWAP3 SWAP6 SWAP9 SWAP2 SWAP5 SWAP8 POP SWAP3 SWAP6 POP JUMP JUMPDEST PUSH0 DUP1 PUSH1 0x40 DUP4 DUP6 SUB SLT ISZERO PUSH3 0x6044 JUMPI PUSH3 0x6043 PUSH3 0x5637 JUMP JUMPDEST JUMPDEST PUSH0 PUSH3 0x6053 DUP6 DUP3 DUP7 ADD PUSH3 0x56C2 JUMP JUMPDEST SWAP3 POP POP PUSH1 0x20 PUSH3 0x6066 DUP6 DUP3 DUP7 ADD PUSH3 0x56C2 JUMP JUMPDEST SWAP2 POP POP SWAP3 POP SWAP3 SWAP1 POP JUMP JUMPDEST PUSH3 0x607B DUP2 PUSH3 0x591B JUMP JUMPDEST DUP2 EQ PUSH3 0x6086 JUMPI PUSH0 DUP1 REVERT JUMPDEST POP JUMP JUMPDEST PUSH0 DUP2 CALLDATALOAD SWAP1 POP PUSH3 0x6099 DUP2 PUSH3 0x6070 JUMP JUMPDEST SWAP3 SWAP2 POP POP JUMP JUMPDEST PUSH0 DUP1 PUSH0 PUSH1 0x60 DUP5 DUP7 SUB SLT ISZERO PUSH3 0x60B9 JUMPI PUSH3 0x60B8 PUSH3 0x5637 JUMP JUMPDEST JUMPDEST PUSH0 PUSH3 0x60C8 DUP7 DUP3 DUP8 ADD PUSH3 0x56C2 JUMP JUMPDEST SWAP4 POP POP PUSH1 0x20 PUSH3 0x60DB DUP7 DUP3 DUP8 ADD PUSH3 0x56C2 JUMP JUMPDEST SWAP3 POP POP PUSH1 0x40 PUSH3 0x60EE DUP7 DUP3 DUP8 ADD PUSH3 0x6089 JUMP JUMPDEST SWAP2 POP POP SWAP3 POP SWAP3 POP SWAP3 JUMP JUMPDEST PUSH0 DUP1 PUSH1 0x40 DUP4 DUP6 SUB SLT ISZERO PUSH3 0x6111 JUMPI PUSH3 0x6110 PUSH3 0x5637 JUMP JUMPDEST JUMPDEST PUSH0 PUSH3 0x6120 DUP6 DUP3 DUP7 ADD PUSH3 0x5661 JUMP JUMPDEST SWAP3 POP POP PUSH1 0x20 PUSH3 0x6133 DUP6 DUP3 DUP7 ADD PUSH3 0x56C2 JUMP JUMPDEST SWAP2 POP POP SWAP3 POP SWAP3 SWAP1 POP JUMP JUMPDEST PUSH0 DUP2 MLOAD SWAP1 POP PUSH3 0x614D DUP2 PUSH3 0x6070 JUMP JUMPDEST SWAP3 SWAP2 POP POP JUMP JUMPDEST PUSH0 PUSH1 0x20 DUP3 DUP5 SUB SLT ISZERO PUSH3 0x616B JUMPI PUSH3 0x616A PUSH3 0x5637 JUMP JUMPDEST JUMPDEST PUSH0 PUSH3 0x617A DUP5 DUP3 DUP6 ADD PUSH3 0x613D JUMP JUMPDEST SWAP2 POP POP SWAP3 SWAP2 POP POP JUMP JUMPDEST PUSH0 DUP3 DUP3 MSTORE PUSH1 0x20 DUP3 ADD SWAP1 POP SWAP3 SWAP2 POP POP JUMP JUMPDEST DUP3 DUP2 DUP4 CALLDATACOPY PUSH0 DUP4 DUP4 ADD MSTORE POP POP POP JUMP JUMPDEST PUSH0 PUSH3 0x61AE DUP4 DUP6 PUSH3 0x6183 JUMP JUMPDEST SWAP4 POP PUSH3 0x61BD DUP4 DUP6 DUP5 PUSH3 0x6193 JUMP JUMPDEST PUSH3 0x61C8 DUP4 PUSH3 0x5818 JUMP JUMPDEST DUP5 ADD SWAP1 POP SWAP4 SWAP3 POP POP POP JUMP JUMPDEST PUSH0 PUSH1 0x80 DUP3 ADD SWAP1 POP PUSH3 0x61E8 PUSH0 DUP4 ADD DUP9 PUSH3 0x5952 JUMP JUMPDEST PUSH3 0x61F7 PUSH1 0x20 DUP4 ADD DUP8 PUSH3 0x588A JUMP JUMPDEST PUSH3 0x6206 PUSH1 0x40 DUP4 ADD DUP7 PUSH3 0x588A JUMP JUMPDEST DUP2 DUP2 SUB PUSH1 0x60 DUP4 ADD MSTORE PUSH3 0x621B DUP2 DUP5 DUP7 PUSH3 0x61A1 JUMP JUMPDEST SWAP1 POP SWAP7 SWAP6 POP POP POP POP POP POP JUMP JUMPDEST PUSH0 DUP2 MLOAD SWAP1 POP PUSH3 0x6237 DUP2 PUSH3 0x5648 JUMP JUMPDEST SWAP3 SWAP2 POP POP JUMP JUMPDEST PUSH0 PUSH1 0x20 DUP3 DUP5 SUB SLT ISZERO PUSH3 0x6255 JUMPI PUSH3 0x6254 PUSH3 0x5637 JUMP JUMPDEST JUMPDEST PUSH0 PUSH3 0x6264 DUP5 DUP3 DUP6 ADD PUSH3 0x6227 JUMP JUMPDEST SWAP2 POP POP SWAP3 SWAP2 POP POP JUMP JUMPDEST PUSH32 0x4E487B7100000000000000000000000000000000000000000000000000000000 PUSH0 MSTORE PUSH1 0x11 PUSH1 0x4 MSTORE PUSH1 0x24 PUSH0 REVERT JUMPDEST PUSH0 PUSH3 0x62A6 DUP3 PUSH3 0x563F JUMP JUMPDEST SWAP2 POP PUSH3 0x62B3 DUP4 PUSH3 0x563F JUMP JUMPDEST SWAP3 POP DUP3 DUP3 SUB SWAP1 POP DUP2 DUP2 GT ISZERO PUSH3 0x62CE JUMPI PUSH3 0x62CD PUSH3 0x626D JUMP JUMPDEST JUMPDEST SWAP3 SWAP2 POP POP JUMP JUMPDEST PUSH0 PUSH1 0x40 DUP3 ADD SWAP1 POP PUSH3 0x62E9 PUSH0 DUP4 ADD DUP6 PUSH3 0x5952 JUMP JUMPDEST PUSH3 0x62F8 PUSH1 0x20 DUP4 ADD DUP5 PUSH3 0x5926 JUMP JUMPDEST SWAP4 SWAP3 POP POP POP JUMP JUMPDEST PUSH0 PUSH3 0x630B DUP3 PUSH3 0x563F JUMP JUMPDEST SWAP2 POP PUSH3 0x6318 DUP4 PUSH3 0x563F JUMP JUMPDEST SWAP3 POP DUP3 DUP3 MUL PUSH3 0x6328 DUP2 PUSH3 0x563F JUMP JUMPDEST SWAP2 POP DUP3 DUP3 DIV DUP5 EQ DUP4 ISZERO OR PUSH3 0x6342 JUMPI PUSH3 0x6341 PUSH3 0x626D JUMP JUMPDEST JUMPDEST POP SWAP3 SWAP2 POP POP JUMP JUMPDEST PUSH32 0x4E487B7100000000000000000000000000000000000000000000000000000000 PUSH0 MSTORE PUSH1 0x12 PUSH1 0x4 MSTORE PUSH1 0x24 PUSH0 REVERT JUMPDEST PUSH0 PUSH3 0x6382 DUP3 PUSH3 0x563F JUMP JUMPDEST SWAP2 POP PUSH3 0x638F DUP4 PUSH3 0x563F JUMP JUMPDEST SWAP3 POP DUP3 PUSH3 0x63A2 JUMPI PUSH3 0x63A1 PUSH3 0x6349 JUMP JUMPDEST JUMPDEST DUP3 DUP3 DIV SWAP1 POP SWAP3 SWAP2 POP POP JUMP JUMPDEST PUSH0 PUSH1 0x80 DUP3 ADD SWAP1 POP PUSH3 0x63C2 PUSH0 DUP4 ADD DUP8 PUSH3 0x588A JUMP JUMPDEST PUSH3 0x63D1 PUSH1 0x20 DUP4 ADD DUP7 PUSH3 0x588A JUMP JUMPDEST PUSH3 0x63E0 PUSH1 0x40 DUP4 ADD DUP6 PUSH3 0x588A JUMP JUMPDEST PUSH3 0x63EF PUSH1 0x60 DUP4 ADD DUP5 PUSH3 0x588A JUMP JUMPDEST SWAP6 SWAP5 POP POP POP POP POP JUMP JUMPDEST PUSH32 0x4E487B7100000000000000000000000000000000000000000000000000000000 PUSH0 MSTORE PUSH1 0x22 PUSH1 0x4 MSTORE PUSH1 0x24 PUSH0 REVERT JUMPDEST PUSH0 PUSH1 0x2 DUP3 DIV SWAP1 POP PUSH1 0x1 DUP3 AND DUP1 PUSH3 0x643D JUMPI PUSH1 0x7F DUP3 AND SWAP2 POP JUMPDEST PUSH1 0x20 DUP3 LT DUP2 SUB PUSH3 0x6453 JUMPI PUSH3 0x6452 PUSH3 0x63F8 JUMP JUMPDEST JUMPDEST POP SWAP2 SWAP1 POP JUMP JUMPDEST PUSH32 0x4E487B7100000000000000000000000000000000000000000000000000000000 PUSH0 MSTORE PUSH1 0x41 PUSH1 0x4 MSTORE PUSH1 0x24 PUSH0 REVERT JUMPDEST PUSH0 PUSH3 0x6492 DUP3 PUSH3 0x563F JUMP JUMPDEST SWAP2 POP PUSH3 0x649F DUP4 PUSH3 0x563F JUMP JUMPDEST SWAP3 POP DUP3 DUP3 ADD SWAP1 POP DUP1 DUP3 GT ISZERO PUSH3 0x64BA JUMPI PUSH3 0x64B9 PUSH3 0x626D JUMP JUMPDEST JUMPDEST SWAP3 SWAP2 POP POP JUMP JUMPDEST PUSH32 0x4E487B7100000000000000000000000000000000000000000000000000000000 PUSH0 MSTORE PUSH1 0x32 PUSH1 0x4 MSTORE PUSH1 0x24 PUSH0 REVERT JUMPDEST PUSH0 PUSH3 0x64F9 DUP3 PUSH3 0x563F JUMP JUMPDEST SWAP2 POP PUSH32 0xFFFFFFFFFFFFFFFFFFFFFFFFFFFFFFFFFFFFFFFFFFFFFFFFFFFFFFFFFFFFFFFF DUP3 SUB PUSH3 0x652E JUMPI PUSH3 0x652D PUSH3 0x626D JUMP JUMPDEST JUMPDEST PUSH1 0x1 DUP3 ADD SWAP1 POP SWAP2 SWAP1 POP JUMP JUMPDEST PUSH0 DUP2 MLOAD SWAP1 POP PUSH3 0x6549 DUP2 PUSH3 0x56A9 JUMP JUMPDEST SWAP3 SWAP2 POP POP JUMP JUMPDEST PUSH0 PUSH1 0x20 DUP3 DUP5 SUB SLT ISZERO PUSH3 0x6567 JUMPI PUSH3 0x6566 PUSH3 0x5637 JUMP JUMPDEST JUMPDEST PUSH0 PUSH3 0x6576 DUP5 DUP3 DUP6 ADD PUSH3 0x6539 JUMP JUMPDEST SWAP2 POP POP SWAP3 SWAP2 POP POP JUMP JUMPDEST PUSH0 DUP3 SWAP1 POP SWAP3 SWAP2 POP POP JUMP JUMPDEST PUSH0 DUP2 SWAP1 POP DUP2 PUSH0 MSTORE PUSH1 0x20 PUSH0 KECCAK256 SWAP1 POP SWAP2 SWAP1 POP JUMP JUMPDEST PUSH0 PUSH1 0x20 PUSH1 0x1F DUP4 ADD DIV SWAP1 POP SWAP2 SWAP1 POP JUMP JUMPDEST PUSH0 DUP3 DUP3 SHL SWAP1 POP SWAP3 SWAP2 POP POP JUMP JUMPDEST PUSH0 PUSH1 0x8 DUP4 MUL PUSH3 0x65E7 PUSH32 0xFFFFFFFFFFFFFFFFFFFFFFFFFFFFFFFFFFFFFFFFFFFFFFFFFFFFFFFFFFFFFFFF DUP3 PUSH3 0x65AA JUMP JUMPDEST PUSH3 0x65F3 DUP7 DUP4 PUSH3 0x65AA JUMP JUMPDEST SWAP6 POP DUP1 NOT DUP5 AND SWAP4 POP DUP1 DUP7 AND DUP5 OR SWAP3 POP POP POP SWAP4 SWAP3 POP POP POP JUMP JUMPDEST PUSH0 DUP2 SWAP1 POP SWAP2 SWAP1 POP JUMP JUMPDEST PUSH0 PUSH3 0x6634 PUSH3 0x662E PUSH3 0x6628 DUP5 PUSH3 0x563F JUMP JUMPDEST PUSH3 0x660B JUMP JUMPDEST PUSH3 0x563F JUMP JUMPDEST SWAP1 POP SWAP2 SWAP1 POP JUMP JUMPDEST PUSH0 DUP2 SWAP1 POP SWAP2 SWAP1 POP JUMP JUMPDEST PUSH3 0x664F DUP4 PUSH3 0x6614 JUMP JUMPDEST PUSH3 0x6667 PUSH3 0x665E DUP3 PUSH3 0x663B JUMP JUMPDEST DUP5 DUP5 SLOAD PUSH3 0x65B6 JUMP JUMPDEST DUP3 SSTORE POP POP POP POP JUMP JUMPDEST PUSH0 SWAP1 JUMP JUMPDEST PUSH3 0x667D PUSH3 0x666F JUMP JUMPDEST PUSH3 0x668A DUP2 DUP5 DUP5 PUSH3 0x6644 JUMP JUMPDEST POP POP POP JUMP JUMPDEST JUMPDEST DUP2 DUP2 LT ISZERO PUSH3 0x66B1 JUMPI PUSH3 0x66A5 PUSH0 DUP3 PUSH3 0x6673 JUMP JUMPDEST PUSH1 0x1 DUP2 ADD SWAP1 POP PUSH3 0x6690 JUMP JUMPDEST POP POP JUMP JUMPDEST PUSH1 0x1F DUP3 GT ISZERO PUSH3 0x6700 JUMPI PUSH3 0x66CA DUP2 PUSH3 0x6589 JUMP JUMPDEST PUSH3 0x66D5 DUP5 PUSH3 0x659B JUMP JUMPDEST DUP2 ADD PUSH1 0x20 DUP6 LT ISZERO PUSH3 0x66E5 JUMPI DUP2 SWAP1 POP JUMPDEST PUSH3 0x66FD PUSH3 0x66F4 DUP6 PUSH3 0x659B JUMP JUMPDEST DUP4 ADD DUP3 PUSH3 0x668F JUMP JUMPDEST POP POP JUMPDEST POP POP POP JUMP JUMPDEST PUSH0 DUP3 DUP3 SHR SWAP1 POP SWAP3 SWAP2 POP POP JUMP JUMPDEST PUSH0 PUSH3 0x6722 PUSH0 NOT DUP5 PUSH1 0x8 MUL PUSH3 0x6705 JUMP JUMPDEST NOT DUP1 DUP4 AND SWAP2 POP POP SWAP3 SWAP2 POP POP JUMP JUMPDEST PUSH0 PUSH3 0x673C DUP4 DUP4 PUSH3 0x6711 JUMP JUMPDEST SWAP2 POP DUP3 PUSH1 0x2 MUL DUP3 OR SWAP1 POP SWAP3 SWAP2 POP POP JUMP JUMPDEST PUSH3 0x6758 DUP4 DUP4 PUSH3 0x657F JUMP JUMPDEST PUSH8 0xFFFFFFFFFFFFFFFF DUP2 GT ISZERO PUSH3 0x6774 JUMPI PUSH3 0x6773 PUSH3 0x6459 JUMP JUMPDEST JUMPDEST PUSH3 0x6780 DUP3 SLOAD PUSH3 0x6425 JUMP JUMPDEST PUSH3 0x678D DUP3 DUP3 DUP6 PUSH3 0x66B5 JUMP JUMPDEST PUSH0 PUSH1 0x1F DUP4 GT PUSH1 0x1 DUP2 EQ PUSH3 0x67BF JUMPI PUSH0 DUP5 ISZERO PUSH3 0x67AA JUMPI DUP3 DUP8 ADD CALLDATALOAD SWAP1 POP JUMPDEST PUSH3 0x67B6 DUP6 DUP3 PUSH3 0x672F JUMP JUMPDEST DUP7 SSTORE POP PUSH3 0x6825 JUMP JUMPDEST PUSH1 0x1F NOT DUP5 AND PUSH3 0x67CF DUP7 PUSH3 0x6589 JUMP JUMPDEST PUSH0 JUMPDEST DUP3 DUP2 LT ISZERO PUSH3 0x67F8 JUMPI DUP5 DUP10 ADD CALLDATALOAD DUP3 SSTORE PUSH1 0x1 DUP3 ADD SWAP2 POP PUSH1 0x20 DUP6 ADD SWAP5 POP PUSH1 0x20 DUP2 ADD SWAP1 POP PUSH3 0x67D1 JUMP JUMPDEST DUP7 DUP4 LT ISZERO PUSH3 0x6818 JUMPI DUP5 DUP10 ADD CALLDATALOAD PUSH3 0x6814 PUSH1 0x1F DUP10 AND DUP3 PUSH3 0x6711 JUMP JUMPDEST DUP4 SSTORE POP JUMPDEST PUSH1 0x1 PUSH1 0x2 DUP9 MUL ADD DUP9 SSTORE POP POP POP JUMPDEST POP POP POP POP POP POP POP JUMP JUMPDEST PUSH0 PUSH1 0x60 DUP3 ADD SWAP1 POP PUSH3 0x6843 PUSH0 DUP4 ADD DUP7 PUSH3 0x5952 JUMP JUMPDEST PUSH3 0x6852 PUSH1 0x20 DUP4 ADD DUP6 PUSH3 0x588A JUMP JUMPDEST PUSH3 0x6861 PUSH1 0x40 DUP4 ADD DUP5 PUSH3 0x588A JUMP JUMPDEST SWAP5 SWAP4 POP POP POP POP JUMP JUMPDEST PUSH0 PUSH1 0xC0 DUP3 ADD SWAP1 POP PUSH3 0x687E PUSH0 DUP4 ADD DUP10 PUSH3 0x5BEB JUMP JUMPDEST PUSH3 0x688D PUSH1 0x20 DUP4 ADD DUP9 PUSH3 0x5952 JUMP JUMPDEST PUSH3 0x689C PUSH1 0x40 DUP4 ADD DUP8 PUSH3 0x5952 JUMP JUMPDEST PUSH3 0x68AB PUSH1 0x60 DUP4 ADD DUP7 PUSH3 0x588A JUMP JUMPDEST PUSH3 0x68BA PUSH1 0x80 DUP4 ADD DUP6 PUSH3 0x588A JUMP JUMPDEST PUSH3 0x68C9 PUSH1 0xA0 DUP4 ADD DUP5 PUSH3 0x588A JUMP JUMPDEST SWAP8 SWAP7 POP POP POP POP POP POP POP JUMP JUMPDEST PUSH0 DUP1 REVERT JUMPDEST PUSH3 0x68E3 DUP3 PUSH3 0x5818 JUMP JUMPDEST DUP2 ADD DUP2 DUP2 LT PUSH8 0xFFFFFFFFFFFFFFFF DUP3 GT OR ISZERO PUSH3 0x6905 JUMPI PUSH3 0x6904 PUSH3 0x6459 JUMP JUMPDEST JUMPDEST DUP1 PUSH1 0x40 MSTORE POP POP POP JUMP JUMPDEST PUSH0 PUSH3 0x6919 PUSH3 0x562E JUMP JUMPDEST SWAP1 POP PUSH3 0x6927 DUP3 DUP3 PUSH3 0x68D8 JUMP JUMPDEST SWAP2 SWAP1 POP JUMP JUMPDEST PUSH0 PUSH8 0xFFFFFFFFFFFFFFFF DUP3 GT ISZERO PUSH3 0x6949 JUMPI PUSH3 0x6948 PUSH3 0x6459 JUMP JUMPDEST JUMPDEST PUSH3 0x6954 DUP3 PUSH3 0x5818 JUMP JUMPDEST SWAP1 POP PUSH1 0x20 DUP2 ADD SWAP1 POP SWAP2 SWAP1 POP JUMP JUMPDEST PUSH0 PUSH3 0x6977 PUSH3 0x6971 DUP5 PUSH3 0x692C JUMP JUMPDEST PUSH3 0x690E JUMP JUMPDEST SWAP1 POP DUP3 DUP2 MSTORE PUSH1 0x20 DUP2 ADD DUP5 DUP5 DUP5 ADD GT ISZERO PUSH3 0x6996 JUMPI PUSH3 0x6995 PUSH3 0x68D4 JUMP JUMPDEST JUMPDEST PUSH3 0x69A3 DUP5 DUP3 DUP6 PUSH3 0x57EE JUMP JUMPDEST POP SWAP4 SWAP3 POP POP POP JUMP JUMPDEST PUSH0 DUP3 PUSH1 0x1F DUP4 ADD SLT PUSH3 0x69C2 JUMPI PUSH3 0x69C1 PUSH3 0x56D8 JUMP JUMPDEST JUMPDEST DUP2 MLOAD PUSH3 0x69D4 DUP5 DUP3 PUSH1 0x20 DUP7 ADD PUSH3 0x6961 JUMP JUMPDEST SWAP2 POP POP SWAP3 SWAP2 POP POP JUMP JUMPDEST PUSH0 PUSH1 0x20 DUP3 DUP5 SUB SLT ISZERO PUSH3 0x69F5 JUMPI PUSH3 0x69F4 PUSH3 0x5637 JUMP JUMPDEST JUMPDEST PUSH0 DUP3 ADD MLOAD PUSH8 0xFFFFFFFFFFFFFFFF DUP2 GT ISZERO PUSH3 0x6A15 JUMPI PUSH3 0x6A14 PUSH3 0x563B JUMP JUMPDEST JUMPDEST PUSH3 0x6A23 DUP5 DUP3 DUP6 ADD PUSH3 0x69AB JUMP JUMPDEST SWAP2 POP POP SWAP3 SWAP2 POP POP JUMP JUMPDEST PUSH0 DUP2 SWAP1 POP SWAP3 SWAP2 POP POP JUMP JUMPDEST PUSH32 0x537461626C6520414D4D202D2000000000000000000000000000000000000000 PUSH0 DUP3 ADD MSTORE POP JUMP JUMPDEST PUSH0 PUSH3 0x6A6C PUSH1 0xD DUP4 PUSH3 0x6A2C JUMP JUMPDEST SWAP2 POP PUSH3 0x6A79 DUP3 PUSH3 0x6A36 JUMP JUMPDEST PUSH1 0xD DUP3 ADD SWAP1 POP SWAP2 SWAP1 POP JUMP JUMPDEST PUSH0 PUSH3 0x6A90 DUP3 PUSH3 0x57D4 JUMP JUMPDEST PUSH3 0x6A9C DUP2 DUP6 PUSH3 0x6A2C JUMP JUMPDEST SWAP4 POP PUSH3 0x6AAE DUP2 DUP6 PUSH1 0x20 DUP7 ADD PUSH3 0x57EE JUMP JUMPDEST DUP1 DUP5 ADD SWAP2 POP POP SWAP3 SWAP2 POP POP JUMP JUMPDEST PUSH32 0x2F00000000000000000000000000000000000000000000000000000000000000 PUSH0 DUP3 ADD MSTORE POP JUMP JUMPDEST PUSH0 PUSH3 0x6AF0 PUSH1 0x1 DUP4 PUSH3 0x6A2C JUMP JUMPDEST SWAP2 POP PUSH3 0x6AFD DUP3 PUSH3 0x6ABA JUMP JUMPDEST PUSH1 0x1 DUP3 ADD SWAP1 POP SWAP2 SWAP1 POP JUMP JUMPDEST PUSH0 PUSH3 0x6B14 DUP3 PUSH3 0x6A5E JUMP JUMPDEST SWAP2 POP PUSH3 0x6B22 DUP3 DUP6 PUSH3 0x6A84 JUMP JUMPDEST SWAP2 POP PUSH3 0x6B2F DUP3 PUSH3 0x6AE2 JUMP JUMPDEST SWAP2 POP PUSH3 0x6B3D DUP3 DUP5 PUSH3 0x6A84 JUMP JUMPDEST SWAP2 POP DUP2 SWAP1 POP SWAP4 SWAP3 POP POP POP JUMP JUMPDEST PUSH3 0x6B54 DUP3 PUSH3 0x57D4 JUMP JUMPDEST PUSH8 0xFFFFFFFFFFFFFFFF DUP2 GT ISZERO PUSH3 0x6B70 JUMPI PUSH3 0x6B6F PUSH3 0x6459 JUMP JUMPDEST JUMPDEST PUSH3 0x6B7C DUP3 SLOAD PUSH3 0x6425 JUMP JUMPDEST PUSH3 0x6B89 DUP3 DUP3 DUP6 PUSH3 0x66B5 JUMP JUMPDEST PUSH0 PUSH1 0x20 SWAP1 POP PUSH1 0x1F DUP4 GT PUSH1 0x1 DUP2 EQ PUSH3 0x6BBF JUMPI PUSH0 DUP5 ISZERO PUSH3 0x6BAA JUMPI DUP3 DUP8 ADD MLOAD SWAP1 POP JUMPDEST PUSH3 0x6BB6 DUP6 DUP3 PUSH3 0x672F JUMP JUMPDEST DUP7 SSTORE POP PUSH3 0x6C25 JUMP JUMPDEST PUSH1 0x1F NOT DUP5 AND PUSH3 0x6BCF DUP7 PUSH3 0x6589 JUMP JUMPDEST PUSH0 JUMPDEST DUP3 DUP2 LT ISZERO PUSH3 0x6BF8 JUMPI DUP5 DUP10 ADD MLOAD DUP3 SSTORE PUSH1 0x1 DUP3 ADD SWAP2 POP PUSH1 0x20 DUP6 ADD SWAP5 POP PUSH1 0x20 DUP2 ADD SWAP1 POP PUSH3 0x6BD1 JUMP JUMPDEST DUP7 DUP4 LT ISZERO PUSH3 0x6C18 JUMPI DUP5 DUP10 ADD MLOAD PUSH3 0x6C14 PUSH1 0x1F DUP10 AND DUP3 PUSH3 0x6711 JUMP JUMPDEST DUP4 SSTORE POP JUMPDEST PUSH1 0x1 PUSH1 0x2 DUP9 MUL ADD DUP9 SSTORE POP POP POP JUMPDEST POP POP POP POP POP POP JUMP JUMPDEST PUSH32 0x73414D4D2D000000000000000000000000000000000000000000000000000000 PUSH0 DUP3 ADD MSTORE POP JUMP JUMPDEST PUSH0 PUSH3 0x6C63 PUSH1 0x5 DUP4 PUSH3 0x6A2C JUMP JUMPDEST SWAP2 POP PUSH3 0x6C70 DUP3 PUSH3 0x6C2D JUMP JUMPDEST PUSH1 0x5 DUP3 ADD SWAP1 POP SWAP2 SWAP1 POP JUMP JUMPDEST PUSH0 PUSH3 0x6C87 DUP3 PUSH3 0x6C55 JUMP JUMPDEST SWAP2 POP PUSH3 0x6C95 DUP3 DUP6 PUSH3 0x6A84 JUMP JUMPDEST SWAP2 POP PUSH3 0x6CA2 DUP3 PUSH3 0x6AE2 JUMP JUMPDEST SWAP2 POP PUSH3 0x6CB0 DUP3 DUP5 PUSH3 0x6A84 JUMP JUMPDEST SWAP2 POP DUP2 SWAP1 POP SWAP4 SWAP3 POP POP POP JUMP JUMPDEST PUSH32 0x566F6C6174696C6520414D4D202D200000000000000000000000000000000000 PUSH0 DUP3 ADD MSTORE POP JUMP JUMPDEST PUSH0 PUSH3 0x6CF2 PUSH1 0xF DUP4 PUSH3 0x6A2C JUMP JUMPDEST SWAP2 POP PUSH3 0x6CFF DUP3 PUSH3 0x6CBC JUMP JUMPDEST PUSH1 0xF DUP3 ADD SWAP1 POP SWAP2 SWAP1 POP JUMP JUMPDEST PUSH0 PUSH3 0x6D16 DUP3 PUSH3 0x6CE4 JUMP JUMPDEST SWAP2 POP PUSH3 0x6D24 DUP3 DUP6 PUSH3 0x6A84 JUMP JUMPDEST SWAP2 POP PUSH3 0x6D31 DUP3 PUSH3 0x6AE2 JUMP JUMPDEST SWAP2 POP PUSH3 0x6D3F DUP3 DUP5 PUSH3 0x6A84 JUMP JUMPDEST SWAP2 POP DUP2 SWAP1 POP SWAP4 SWAP3 POP POP POP JUMP JUMPDEST PUSH32 0x76414D4D2D000000000000000000000000000000000000000000000000000000 PUSH0 DUP3 ADD MSTORE POP JUMP JUMPDEST PUSH0 PUSH3 0x6D81 PUSH1 0x5 DUP4 PUSH3 0x6A2C JUMP JUMPDEST SWAP2 POP PUSH3 0x6D8E DUP3 PUSH3 0x6D4B JUMP JUMPDEST PUSH1 0x5 DUP3 ADD SWAP1 POP SWAP2 SWAP1 POP JUMP JUMPDEST PUSH0 PUSH3 0x6DA5 DUP3 PUSH3 0x6D73 JUMP JUMPDEST SWAP2 POP PUSH3 0x6DB3 DUP3 DUP6 PUSH3 0x6A84 JUMP JUMPDEST SWAP2 POP PUSH3 0x6DC0 DUP3 PUSH3 0x6AE2 JUMP JUMPDEST SWAP2 POP PUSH3 0x6DCE DUP3 DUP5 PUSH3 0x6A84 JUMP JUMPDEST SWAP2 POP DUP2 SWAP1 POP SWAP4 SWAP3 POP POP POP JUMP JUMPDEST PUSH0 DUP2 MLOAD SWAP1 POP PUSH3 0x6DEA DUP2 PUSH3 0x5F1F JUMP JUMPDEST SWAP3 SWAP2 POP POP JUMP JUMPDEST PUSH0 PUSH1 0x20 DUP3 DUP5 SUB SLT ISZERO PUSH3 0x6E08 JUMPI PUSH3 0x6E07 PUSH3 0x5637 JUMP JUMPDEST JUMPDEST PUSH0 PUSH3 0x6E17 DUP5 DUP3 DUP6 ADD PUSH3 0x6DDA JUMP JUMPDEST SWAP2 POP POP SWAP3 SWAP2 POP POP JUMP JUMPDEST PUSH0 DUP2 PUSH1 0x1 SHR SWAP1 POP SWAP2 SWAP1 POP JUMP JUMPDEST PUSH0 DUP1 DUP3 SWAP2 POP DUP4 SWAP1 POP JUMPDEST PUSH1 0x1 DUP6 GT ISZERO PUSH3 0x6E7D JUMPI DUP1 DUP7 DIV DUP2 GT ISZERO PUSH3 0x6E55 JUMPI PUSH3 0x6E54 PUSH3 0x626D JUMP JUMPDEST JUMPDEST PUSH1 0x1 DUP6 AND ISZERO PUSH3 0x6E65 JUMPI DUP1 DUP3 MUL SWAP2 POP JUMPDEST DUP1 DUP2 MUL SWAP1 POP PUSH3 0x6E75 DUP6 PUSH3 0x6E20 JUMP JUMPDEST SWAP5 POP PUSH3 0x6E35 JUMP JUMPDEST SWAP5 POP SWAP5 SWAP3 POP POP POP JUMP JUMPDEST PUSH0 DUP3 PUSH3 0x6E97 JUMPI PUSH1 0x1 SWAP1 POP PUSH3 0x6F69 JUMP JUMPDEST DUP2 PUSH3 0x6EA6 JUMPI PUSH0 SWAP1 POP PUSH3 0x6F69 JUMP JUMPDEST DUP2 PUSH1 0x1 DUP2 EQ PUSH3 0x6EBF JUMPI PUSH1 0x2 DUP2 EQ PUSH3 0x6ECA JUMPI PUSH3 0x6F00 JUMP JUMPDEST PUSH1 0x1 SWAP2 POP POP PUSH3 0x6F69 JUMP JUMPDEST PUSH1 0xFF DUP5 GT ISZERO PUSH3 0x6EDF JUMPI PUSH3 0x6EDE PUSH3 0x626D JUMP JUMPDEST JUMPDEST DUP4 PUSH1 0x2 EXP SWAP2 POP DUP5 DUP3 GT ISZERO PUSH3 0x6EF9 JUMPI PUSH3 0x6EF8 PUSH3 0x626D JUMP JUMPDEST JUMPDEST POP PUSH3 0x6F69 JUMP JUMPDEST POP PUSH1 0x20 DUP4 LT PUSH2 0x133 DUP4 LT AND PUSH1 0x4E DUP5 LT PUSH1 0xB DUP5 LT AND OR ISZERO PUSH3 0x6F3A JUMPI DUP3 DUP3 EXP SWAP1 POP DUP4 DUP2 GT ISZERO PUSH3 0x6F34 JUMPI PUSH3 0x6F33 PUSH3 0x626D JUMP JUMPDEST JUMPDEST PUSH3 0x6F69 JUMP JUMPDEST PUSH3 0x6F49 DUP5 DUP5 DUP5 PUSH1 0x1 PUSH3 0x6E2C JUMP JUMPDEST SWAP3 POP SWAP1 POP DUP2 DUP5 DIV DUP2 GT ISZERO PUSH3 0x6F63 JUMPI PUSH3 0x6F62 PUSH3 0x626D JUMP JUMPDEST JUMPDEST DUP2 DUP2 MUL SWAP1 POP JUMPDEST SWAP4 SWAP3 POP POP POP JUMP JUMPDEST PUSH0 PUSH3 0x6F7C DUP3 PUSH3 0x563F JUMP JUMPDEST SWAP2 POP PUSH3 0x6F89 DUP4 PUSH3 0x5BAA JUMP JUMPDEST SWAP3 POP PUSH3 0x6FB8 PUSH32 0xFFFFFFFFFFFFFFFFFFFFFFFFFFFFFFFFFFFFFFFFFFFFFFFFFFFFFFFFFFFFFFFF DUP5 DUP5 PUSH3 0x6E86 JUMP JUMPDEST SWAP1 POP SWAP3 SWAP2 POP POP JUMP JUMPDEST PUSH0 PUSH1 0x40 DUP3 ADD SWAP1 POP PUSH3 0x6FD5 PUSH0 DUP4 ADD DUP6 PUSH3 0x5952 JUMP JUMPDEST PUSH3 0x6FE4 PUSH1 0x20 DUP4 ADD DUP5 PUSH3 0x588A JUMP JUMPDEST SWAP4 SWAP3 POP POP POP JUMP JUMPDEST PUSH0 DUP2 SWAP1 POP SWAP2 SWAP1 POP JUMP JUMPDEST PUSH0 PUSH3 0x7014 PUSH3 0x700E PUSH3 0x7008 DUP5 PUSH3 0x6FEB JUMP JUMPDEST PUSH3 0x660B JUMP JUMPDEST PUSH3 0x563F JUMP JUMPDEST SWAP1 POP SWAP2 SWAP1 POP JUMP JUMPDEST PUSH3 0x7026 DUP2 PUSH3 0x6FF4 JUMP JUMPDEST DUP3 MSTORE POP POP JUMP JUMPDEST PUSH0 PUSH1 0x40 DUP3 ADD SWAP1 POP PUSH3 0x7041 PUSH0 DUP4 ADD DUP6 PUSH3 0x588A JUMP JUMPDEST PUSH3 0x7050 PUSH1 0x20 DUP4 ADD DUP5 PUSH3 0x701B JUMP JUMPDEST SWAP4 SWAP3 POP POP POP JUMP JUMPDEST PUSH0 PUSH1 0x40 DUP3 ADD SWAP1 POP PUSH3 0x706C PUSH0 DUP4 ADD DUP6 PUSH3 0x701B JUMP JUMPDEST PUSH3 0x707B PUSH1 0x20 DUP4 ADD DUP5 PUSH3 0x588A JUMP JUMPDEST SWAP4 SWAP3 POP POP POP JUMP JUMPDEST PUSH32 0x2179000000000000000000000000000000000000000000000000000000000000 PUSH0 DUP3 ADD MSTORE POP JUMP JUMPDEST PUSH0 PUSH3 0x70B8 PUSH1 0x2 DUP4 PUSH3 0x57DE JUMP JUMPDEST SWAP2 POP PUSH3 0x70C5 DUP3 PUSH3 0x7082 JUMP JUMPDEST PUSH1 0x20 DUP3 ADD SWAP1 POP SWAP2 SWAP1 POP JUMP JUMPDEST PUSH0 PUSH1 0x20 DUP3 ADD SWAP1 POP DUP2 DUP2 SUB PUSH0 DUP4 ADD MSTORE PUSH3 0x70E9 DUP2 PUSH3 0x70AA JUMP JUMPDEST SWAP1 POP SWAP2 SWAP1 POP JUMP JUMPDEST PUSH0 PUSH1 0xA0 DUP3 ADD SWAP1 POP PUSH3 0x7105 PUSH0 DUP4 ADD DUP9 PUSH3 0x5BEB JUMP JUMPDEST PUSH3 0x7114 PUSH1 0x20 DUP4 ADD DUP8 PUSH3 0x5BEB JUMP JUMPDEST PUSH3 0x7123 PUSH1 0x40 DUP4 ADD DUP7 PUSH3 0x5BEB JUMP JUMPDEST PUSH3 0x7132 PUSH1 0x60 DUP4 ADD DUP6 PUSH3 0x588A JUMP JUMPDEST PUSH3 0x7141 PUSH1 0x80 DUP4 ADD DUP5 PUSH3 0x5952 JUMP JUMPDEST SWAP7 SWAP6 POP POP POP POP POP POP JUMP JUMPDEST PUSH0 PUSH1 0x80 DUP3 ADD SWAP1 POP PUSH3 0x7160 PUSH0 DUP4 ADD DUP8 PUSH3 0x5BEB JUMP JUMPDEST PUSH3 0x716F PUSH1 0x20 DUP4 ADD DUP7 PUSH3 0x5BB6 JUMP JUMPDEST PUSH3 0x717E PUSH1 0x40 DUP4 ADD DUP6 PUSH3 0x5BEB JUMP JUMPDEST PUSH3 0x718D PUSH1 0x60 DUP4 ADD DUP5 PUSH3 0x5BEB JUMP JUMPDEST SWAP6 SWAP5 POP POP POP POP POP JUMP JUMPDEST PUSH32 0x4E487B7100000000000000000000000000000000000000000000000000000000 PUSH0 MSTORE PUSH1 0x21 PUSH1 0x4 MSTORE PUSH1 0x24 PUSH0 REVERT JUMPDEST PUSH0 DUP2 MLOAD SWAP1 POP SWAP2 SWAP1 POP JUMP JUMPDEST PUSH0 DUP2 SWAP1 POP SWAP3 SWAP2 POP POP JUMP JUMPDEST PUSH0 PUSH3 0x71E3 DUP3 PUSH3 0x71C3 JUMP JUMPDEST PUSH3 0x71EF DUP2 DUP6 PUSH3 0x71CD JUMP JUMPDEST SWAP4 POP PUSH3 0x7201 DUP2 DUP6 PUSH1 0x20 DUP7 ADD PUSH3 0x57EE JUMP JUMPDEST DUP1 DUP5 ADD SWAP2 POP POP SWAP3 SWAP2 POP POP JUMP JUMPDEST PUSH0 PUSH3 0x721A DUP3 DUP5 PUSH3 0x71D7 JUMP JUMPDEST SWAP2 POP DUP2 SWAP1 POP SWAP3 SWAP2 POP POP JUMP INVALID PUSH1 0xE0 PUSH1 0x40 MSTORE CALLVALUE DUP1 ISZERO PUSH2 0xF JUMPI PUSH0 DUP1 REVERT JUMPDEST POP PUSH1 0x40 MLOAD PUSH2 0x82D CODESIZE SUB DUP1 PUSH2 0x82D DUP4 CODECOPY DUP2 DUP2 ADD PUSH1 0x40 MSTORE DUP2 ADD SWAP1 PUSH2 0x31 SWAP2 SWAP1 PUSH2 0x132 JUMP JUMPDEST CALLER PUSH20 0xFFFFFFFFFFFFFFFFFFFFFFFFFFFFFFFFFFFFFFFF AND PUSH1 0x80 DUP2 PUSH20 0xFFFFFFFFFFFFFFFFFFFFFFFFFFFFFFFFFFFFFFFF AND DUP2 MSTORE POP POP DUP2 PUSH20 0xFFFFFFFFFFFFFFFFFFFFFFFFFFFFFFFFFFFFFFFF AND PUSH1 0xA0 DUP2 PUSH20 0xFFFFFFFFFFFFFFFFFFFFFFFFFFFFFFFFFFFFFFFF AND DUP2 MSTORE POP POP DUP1 PUSH20 0xFFFFFFFFFFFFFFFFFFFFFFFFFFFFFFFFFFFFFFFF AND PUSH1 0xC0 DUP2 PUSH20 0xFFFFFFFFFFFFFFFFFFFFFFFFFFFFFFFFFFFFFFFF AND DUP2 MSTORE POP POP POP POP PUSH2 0x170 JUMP JUMPDEST PUSH0 DUP1 REVERT JUMPDEST PUSH0 PUSH20 0xFFFFFFFFFFFFFFFFFFFFFFFFFFFFFFFFFFFFFFFF DUP3 AND SWAP1 POP SWAP2 SWAP1 POP JUMP JUMPDEST PUSH0 PUSH2 0x101 DUP3 PUSH2 0xD8 JUMP JUMPDEST SWAP1 POP SWAP2 SWAP1 POP JUMP JUMPDEST PUSH2 0x111 DUP2 PUSH2 0xF7 JUMP JUMPDEST DUP2 EQ PUSH2 0x11B JUMPI PUSH0 DUP1 REVERT JUMPDEST POP JUMP JUMPDEST PUSH0 DUP2 MLOAD SWAP1 POP PUSH2 0x12C DUP2 PUSH2 0x108 JUMP JUMPDEST SWAP3 SWAP2 POP POP JUMP JUMPDEST PUSH0 DUP1 PUSH1 0x40 DUP4 DUP6 SUB SLT ISZERO PUSH2 0x148 JUMPI PUSH2 0x147 PUSH2 0xD4 JUMP JUMPDEST JUMPDEST PUSH0 PUSH2 0x155 DUP6 DUP3 DUP7 ADD PUSH2 0x11E JUMP JUMPDEST SWAP3 POP POP PUSH1 0x20 PUSH2 0x166 DUP6 DUP3 DUP7 ADD PUSH2 0x11E JUMP JUMPDEST SWAP2 POP POP SWAP3 POP SWAP3 SWAP1 POP JUMP JUMPDEST PUSH1 0x80 MLOAD PUSH1 0xA0 MLOAD PUSH1 0xC0 MLOAD PUSH2 0x695 PUSH2 0x198 PUSH0 CODECOPY PUSH0 PUSH2 0x131 ADD MSTORE PUSH0 PUSH1 0xDD ADD MSTORE PUSH0 PUSH1 0x4B ADD MSTORE PUSH2 0x695 PUSH0 RETURN INVALID PUSH1 0x80 PUSH1 0x40 MSTORE CALLVALUE DUP1 ISZERO PUSH2 0xF JUMPI PUSH0 DUP1 REVERT JUMPDEST POP PUSH1 0x4 CALLDATASIZE LT PUSH2 0x29 JUMPI PUSH0 CALLDATALOAD PUSH1 0xE0 SHR DUP1 PUSH4 0x533CF5CE EQ PUSH2 0x2D JUMPI JUMPDEST PUSH0 DUP1 REVERT JUMPDEST PUSH2 0x47 PUSH1 0x4 DUP1 CALLDATASIZE SUB DUP2 ADD SWAP1 PUSH2 0x42 SWAP2 SWAP1 PUSH2 0x4CF JUMP JUMPDEST PUSH2 0x49 JUMP JUMPDEST STOP JUMPDEST PUSH32 0x0 PUSH20 0xFFFFFFFFFFFFFFFFFFFFFFFFFFFFFFFFFFFFFFFF AND CALLER PUSH20 0xFFFFFFFFFFFFFFFFFFFFFFFFFFFFFFFFFFFFFFFF AND EQ PUSH2 0xCE JUMPI PUSH1 0x40 MLOAD PUSH32 0x6F61F64100000000000000000000000000000000000000000000000000000000 DUP2 MSTORE PUSH1 0x4 ADD PUSH1 0x40 MLOAD DUP1 SWAP2 SUB SWAP1 REVERT JUMPDEST PUSH0 DUP3 GT ISZERO PUSH2 0x122 JUMPI PUSH2 0x121 DUP4 DUP4 PUSH32 0x0 PUSH20 0xFFFFFFFFFFFFFFFFFFFFFFFFFFFFFFFFFFFFFFFF AND PUSH2 0x17B SWAP1 SWAP3 SWAP2 SWAP1 PUSH4 0xFFFFFFFF AND JUMP JUMPDEST JUMPDEST PUSH0 DUP2 GT ISZERO PUSH2 0x176 JUMPI PUSH2 0x175 DUP4 DUP3 PUSH32 0x0 PUSH20 0xFFFFFFFFFFFFFFFFFFFFFFFFFFFFFFFFFFFFFFFF AND PUSH2 0x17B SWAP1 SWAP3 SWAP2 SWAP1 PUSH4 0xFFFFFFFF AND JUMP JUMPDEST JUMPDEST POP POP POP JUMP JUMPDEST PUSH2 0x1F5 DUP4 DUP5 PUSH20 0xFFFFFFFFFFFFFFFFFFFFFFFFFFFFFFFFFFFFFFFF AND PUSH4 0xA9059CBB DUP6 DUP6 PUSH1 0x40 MLOAD PUSH1 0x24 ADD PUSH2 0x1AE SWAP3 SWAP2 SWAP1 PUSH2 0x53D JUMP JUMPDEST PUSH1 0x40 MLOAD PUSH1 0x20 DUP2 DUP4 SUB SUB DUP2 MSTORE SWAP1 PUSH1 0x40 MSTORE SWAP2 POP PUSH1 0xE0 SHL PUSH1 0x20 DUP3 ADD DUP1 MLOAD PUSH28 0xFFFFFFFFFFFFFFFFFFFFFFFFFFFFFFFFFFFFFFFFFFFFFFFFFFFFFFFF DUP4 DUP2 DUP4 AND OR DUP4 MSTORE POP POP POP POP PUSH2 0x1FA JUMP JUMPDEST POP POP POP JUMP JUMPDEST PUSH0 PUSH2 0x224 DUP3 DUP5 PUSH20 0xFFFFFFFFFFFFFFFFFFFFFFFFFFFFFFFFFFFFFFFF AND PUSH2 0x28F SWAP1 SWAP2 SWAP1 PUSH4 0xFFFFFFFF AND JUMP JUMPDEST SWAP1 POP PUSH0 DUP2 MLOAD EQ ISZERO DUP1 ISZERO PUSH2 0x248 JUMPI POP DUP1 DUP1 PUSH1 0x20 ADD SWAP1 MLOAD DUP2 ADD SWAP1 PUSH2 0x246 SWAP2 SWAP1 PUSH2 0x599 JUMP JUMPDEST ISZERO JUMPDEST ISZERO PUSH2 0x28A JUMPI DUP3 PUSH1 0x40 MLOAD PUSH32 0x5274AFE700000000000000000000000000000000000000000000000000000000 DUP2 MSTORE PUSH1 0x4 ADD PUSH2 0x281 SWAP2 SWAP1 PUSH2 0x5C4 JUMP JUMPDEST PUSH1 0x40 MLOAD DUP1 SWAP2 SUB SWAP1 REVERT JUMPDEST POP POP POP JUMP JUMPDEST PUSH1 0x60 PUSH2 0x29C DUP4 DUP4 PUSH0 PUSH2 0x2A4 JUMP JUMPDEST SWAP1 POP SWAP3 SWAP2 POP POP JUMP JUMPDEST PUSH1 0x60 DUP2 SELFBALANCE LT ISZERO PUSH2 0x2EB JUMPI ADDRESS PUSH1 0x40 MLOAD PUSH32 0xCD78605900000000000000000000000000000000000000000000000000000000 DUP2 MSTORE PUSH1 0x4 ADD PUSH2 0x2E2 SWAP2 SWAP1 PUSH2 0x5C4 JUMP JUMPDEST PUSH1 0x40 MLOAD DUP1 SWAP2 SUB SWAP1 REVERT JUMPDEST PUSH0 DUP1 DUP6 PUSH20 0xFFFFFFFFFFFFFFFFFFFFFFFFFFFFFFFFFFFFFFFF AND DUP5 DUP7 PUSH1 0x40 MLOAD PUSH2 0x313 SWAP2 SWAP1 PUSH2 0x649 JUMP JUMPDEST PUSH0 PUSH1 0x40 MLOAD DUP1 DUP4 SUB DUP2 DUP6 DUP8 GAS CALL SWAP3 POP POP POP RETURNDATASIZE DUP1 PUSH0 DUP2 EQ PUSH2 0x34D JUMPI PUSH1 0x40 MLOAD SWAP2 POP PUSH1 0x1F NOT PUSH1 0x3F RETURNDATASIZE ADD AND DUP3 ADD PUSH1 0x40 MSTORE RETURNDATASIZE DUP3 MSTORE RETURNDATASIZE PUSH0 PUSH1 0x20 DUP5 ADD RETURNDATACOPY PUSH2 0x352 JUMP JUMPDEST PUSH1 0x60 SWAP2 POP JUMPDEST POP SWAP2 POP SWAP2 POP PUSH2 0x362 DUP7 DUP4 DUP4 PUSH2 0x36D JUMP JUMPDEST SWAP3 POP POP POP SWAP4 SWAP3 POP POP POP JUMP JUMPDEST PUSH1 0x60 DUP3 PUSH2 0x382 JUMPI PUSH2 0x37D DUP3 PUSH2 0x3FA JUMP JUMPDEST PUSH2 0x3F2 JUMP JUMPDEST PUSH0 DUP3 MLOAD EQ DUP1 ISZERO PUSH2 0x3A8 JUMPI POP PUSH0 DUP5 PUSH20 0xFFFFFFFFFFFFFFFFFFFFFFFFFFFFFFFFFFFFFFFF AND EXTCODESIZE EQ JUMPDEST ISZERO PUSH2 0x3EA JUMPI DUP4 PUSH1 0x40 MLOAD PUSH32 0x9996B31500000000000000000000000000000000000000000000000000000000 DUP2 MSTORE PUSH1 0x4 ADD PUSH2 0x3E1 SWAP2 SWAP1 PUSH2 0x5C4 JUMP JUMPDEST PUSH1 0x40 MLOAD DUP1 SWAP2 SUB SWAP1 REVERT JUMPDEST DUP2 SWAP1 POP PUSH2 0x3F3 JUMP JUMPDEST JUMPDEST SWAP4 SWAP3 POP POP POP JUMP JUMPDEST PUSH0 DUP2 MLOAD GT ISZERO PUSH2 0x40C JUMPI DUP1 MLOAD DUP1 DUP3 PUSH1 0x20 ADD REVERT JUMPDEST PUSH1 0x40 MLOAD PUSH32 0x1425EA4200000000000000000000000000000000000000000000000000000000 DUP2 MSTORE PUSH1 0x4 ADD PUSH1 0x40 MLOAD DUP1 SWAP2 SUB SWAP1 REVERT JUMPDEST PUSH0 DUP1 REVERT JUMPDEST PUSH0 PUSH20 0xFFFFFFFFFFFFFFFFFFFFFFFFFFFFFFFFFFFFFFFF DUP3 AND SWAP1 POP SWAP2 SWAP1 POP JUMP JUMPDEST PUSH0 PUSH2 0x46B DUP3 PUSH2 0x442 JUMP JUMPDEST SWAP1 POP SWAP2 SWAP1 POP JUMP JUMPDEST PUSH2 0x47B DUP2 PUSH2 0x461 JUMP JUMPDEST DUP2 EQ PUSH2 0x485 JUMPI PUSH0 DUP1 REVERT JUMPDEST POP JUMP JUMPDEST PUSH0 DUP2 CALLDATALOAD SWAP1 POP PUSH2 0x496 DUP2 PUSH2 0x472 JUMP JUMPDEST SWAP3 SWAP2 POP POP JUMP JUMPDEST PUSH0 DUP2 SWAP1 POP SWAP2 SWAP1 POP JUMP JUMPDEST PUSH2 0x4AE DUP2 PUSH2 0x49C JUMP JUMPDEST DUP2 EQ PUSH2 0x4B8 JUMPI PUSH0 DUP1 REVERT JUMPDEST POP JUMP JUMPDEST PUSH0 DUP2 CALLDATALOAD SWAP1 POP PUSH2 0x4C9 DUP2 PUSH2 0x4A5 JUMP JUMPDEST SWAP3 SWAP2 POP POP JUMP JUMPDEST PUSH0 DUP1 PUSH0 PUSH1 0x60 DUP5 DUP7 SUB SLT ISZERO PUSH2 0x4E6 JUMPI PUSH2 0x4E5 PUSH2 0x43E JUMP JUMPDEST JUMPDEST PUSH0 PUSH2 0x4F3 DUP7 DUP3 DUP8 ADD PUSH2 0x488 JUMP JUMPDEST SWAP4 POP POP PUSH1 0x20 PUSH2 0x504 DUP7 DUP3 DUP8 ADD PUSH2 0x4BB JUMP JUMPDEST SWAP3 POP POP PUSH1 0x40 PUSH2 0x515 DUP7 DUP3 DUP8 ADD PUSH2 0x4BB JUMP JUMPDEST SWAP2 POP POP SWAP3 POP SWAP3 POP SWAP3 JUMP JUMPDEST PUSH2 0x528 DUP2 PUSH2 0x461 JUMP JUMPDEST DUP3 MSTORE POP POP JUMP JUMPDEST PUSH2 0x537 DUP2 PUSH2 0x49C JUMP JUMPDEST DUP3 MSTORE POP POP JUMP JUMPDEST PUSH0 PUSH1 0x40 DUP3 ADD SWAP1 POP PUSH2 0x550 PUSH0 DUP4 ADD DUP6 PUSH2 0x51F JUMP JUMPDEST PUSH2 0x55D PUSH1 0x20 DUP4 ADD DUP5 PUSH2 0x52E JUMP JUMPDEST SWAP4 SWAP3 POP POP POP JUMP JUMPDEST PUSH0 DUP2 ISZERO ISZERO SWAP1 POP SWAP2 SWAP1 POP JUMP JUMPDEST PUSH2 0x578 DUP2 PUSH2 0x564 JUMP JUMPDEST DUP2 EQ PUSH2 0x582 JUMPI PUSH0 DUP1 REVERT JUMPDEST POP JUMP JUMPDEST PUSH0 DUP2 MLOAD SWAP1 POP PUSH2 0x593 DUP2 PUSH2 0x56F JUMP JUMPDEST SWAP3 SWAP2 POP POP JUMP JUMPDEST PUSH0 PUSH1 0x20 DUP3 DUP5 SUB SLT ISZERO PUSH2 0x5AE JUMPI PUSH2 0x5AD PUSH2 0x43E JUMP JUMPDEST JUMPDEST PUSH0 PUSH2 0x5BB DUP5 DUP3 DUP6 ADD PUSH2 0x585 JUMP JUMPDEST SWAP2 POP POP SWAP3 SWAP2 POP POP JUMP JUMPDEST PUSH0 PUSH1 0x20 DUP3 ADD SWAP1 POP PUSH2 0x5D7 PUSH0 DUP4 ADD DUP5 PUSH2 0x51F JUMP JUMPDEST SWAP3 SWAP2 POP POP JUMP JUMPDEST PUSH0 DUP2 MLOAD SWAP1 POP SWAP2 SWAP1 POP JUMP JUMPDEST PUSH0 DUP2 SWAP1 POP SWAP3 SWAP2 POP POP JUMP JUMPDEST PUSH0 JUMPDEST DUP4 DUP2 LT ISZERO PUSH2 0x60E JUMPI DUP1 DUP3 ADD MLOAD DUP2 DUP5 ADD MSTORE PUSH1 0x20 DUP2 ADD SWAP1 POP PUSH2 0x5F3 JUMP JUMPDEST PUSH0 DUP5 DUP5 ADD MSTORE POP POP POP POP JUMP JUMPDEST PUSH0 PUSH2 0x623 DUP3 PUSH2 0x5DD JUMP JUMPDEST PUSH2 0x62D DUP2 DUP6 PUSH2 0x5E7 JUMP JUMPDEST SWAP4 POP PUSH2 0x63D DUP2 DUP6 PUSH1 0x20 DUP7 ADD PUSH2 0x5F1 JUMP JUMPDEST DUP1 DUP5 ADD SWAP2 POP POP SWAP3 SWAP2 POP POP JUMP JUMPDEST PUSH0 PUSH2 0x654 DUP3 DUP5 PUSH2 0x619 JUMP JUMPDEST SWAP2 POP DUP2 SWAP1 POP SWAP3 SWAP2 POP POP JUMP INVALID LOG2 PUSH5 0x6970667358 0x22 SLT KECCAK256 EXTCODESIZE 0xFB EXTCODECOPY 0xB4 0xAA 0xF 0xFC JUMP 0x49 0xC 0xAD 0xEC 0xD4 0xA8 PUSH30 0x36622F5FCC244C61575E550E1391A42B6164736F6C63430008140033A264 PUSH10 0x70667358221220AB4D74 PUSH21 0x34A88F6F809C1C579811DA1EF2446FB63FB4DFFEA1 0x4F JUMPDEST 0x4B 0xD7 0xBB SWAP12 0xAE PUSH5 0x736F6C6343 STOP ADDMOD EQ STOP CALLER "
		},
		"gasEstimates": {
			"creation": {
				"codeDepositCost": "6273600",
				"executionCost": "infinite",
				"totalCost": "infinite"
			},
			"external": {
				"DOMAIN_SEPARATOR()": "infinite",
				"allowance(address,address)": "infinite",
				"approve(address,uint256)": "infinite",
				"balanceOf(address)": "2918",
				"blockTimestampLast()": "2514",
				"burn(address)": "infinite",
				"claimFees()": "infinite",
				"claimable0(address)": "2870",
				"claimable1(address)": "2870",
				"currentCumulativePrices()": "infinite",
				"decimals()": "384",
				"eip712Domain()": "infinite",
				"factory()": "2553",
				"getAmountOut(uint256,address)": "infinite",
				"getK()": "infinite",
				"getReserves()": "infinite",
				"index0()": "2493",
				"index1()": "2514",
				"initialize(address,address,bool)": "infinite",
				"lastObservation()": "infinite",
				"metadata()": "infinite",
				"mint(address)": "infinite",
				"name()": "infinite",
				"nonces(address)": "2982",
				"observationLength()": "2506",
				"observations(uint256)": "infinite",
				"periodSize()": "414",
				"permit(address,address,uint256,uint256,uint8,bytes32,bytes32)": "infinite",
				"poolFees()": "2598",
				"prices(address,uint256,uint256)": "infinite",
				"quote(address,uint256,uint256)": "infinite",
				"reserve0()": "2581",
				"reserve0CumulativeLast()": "2536",
				"reserve1()": "2537",
				"reserve1CumulativeLast()": "2558",
				"sample(address,uint256,uint256,uint256)": "infinite",
				"setName(string)": "infinite",
				"setSymbol(string)": "infinite",
				"skim(address)": "infinite",
				"stable()": "2629",
				"supplyIndex0(address)": "2958",
				"supplyIndex1(address)": "2892",
				"swap(uint256,uint256,address,bytes)": "infinite",
				"symbol()": "infinite",
				"sync()": "infinite",
				"token0()": "2643",
				"token1()": "2619",
				"tokens()": "infinite",
				"totalSupply()": "2478",
				"transfer(address,uint256)": "infinite",
				"transferFrom(address,address,uint256)": "infinite"
			},
			"internal": {
				"_beforeTokenTransfer(address,address,uint256)": "infinite",
				"_d(uint256,uint256)": "infinite",
				"_f(uint256,uint256)": "infinite",
				"_getAmountOut(uint256,address,uint256,uint256)": "infinite",
				"_get_y(uint256,uint256,uint256)": "infinite",
				"_k(uint256,uint256)": "infinite",
				"_update(uint256,uint256,uint256,uint256)": "infinite",
				"_update0(uint256)": "infinite",
				"_update1(uint256)": "infinite",
				"_updateFor(address)": "infinite"
			}
		},
		"methodIdentifiers": {
			"DOMAIN_SEPARATOR()": "3644e515",
			"allowance(address,address)": "dd62ed3e",
			"approve(address,uint256)": "095ea7b3",
			"balanceOf(address)": "70a08231",
			"blockTimestampLast()": "c5700a02",
			"burn(address)": "89afcb44",
			"claimFees()": "d294f093",
			"claimable0(address)": "4d5a9f8a",
			"claimable1(address)": "a1ac4d13",
			"currentCumulativePrices()": "1df8c717",
			"decimals()": "313ce567",
			"eip712Domain()": "84b0196e",
			"factory()": "c45a0155",
			"getAmountOut(uint256,address)": "f140a35a",
			"getK()": "ee39e7a0",
			"getReserves()": "0902f1ac",
			"index0()": "32c0defd",
			"index1()": "bda39cad",
			"initialize(address,address,bool)": "e4bbb5a8",
			"lastObservation()": "8a7b8cf2",
			"metadata()": "392f37e9",
			"mint(address)": "6a627842",
			"name()": "06fdde03",
			"nonces(address)": "7ecebe00",
			"observationLength()": "ebeb31db",
			"observations(uint256)": "252c09d7",
			"periodSize()": "e4463eb2",
			"permit(address,address,uint256,uint256,uint8,bytes32,bytes32)": "d505accf",
			"poolFees()": "33580959",
			"prices(address,uint256,uint256)": "5881c475",
			"quote(address,uint256,uint256)": "9e8cc04b",
			"reserve0()": "443cb4bc",
			"reserve0CumulativeLast()": "bf944dbc",
			"reserve1()": "5a76f25e",
			"reserve1CumulativeLast()": "c245febc",
			"sample(address,uint256,uint256,uint256)": "13345fe1",
			"setName(string)": "c47f0027",
			"setSymbol(string)": "b84c8246",
			"skim(address)": "bc25cf77",
			"stable()": "22be3de1",
			"supplyIndex0(address)": "9f767c88",
			"supplyIndex1(address)": "205aabf1",
			"swap(uint256,uint256,address,bytes)": "022c0d9f",
			"symbol()": "95d89b41",
			"sync()": "fff6cae9",
			"token0()": "0dfe1681",
			"token1()": "d21220a7",
			"tokens()": "9d63848a",
			"totalSupply()": "18160ddd",
			"transfer(address,uint256)": "a9059cbb",
			"transferFrom(address,address,uint256)": "23b872dd"
		}
	},
	"abi": [
		{
			"inputs": [],
			"stateMutability": "nonpayable",
			"type": "constructor"
		},
		{
			"inputs": [
				{
					"internalType": "address",
					"name": "target",
					"type": "address"
				}
			],
			"name": "AddressEmptyCode",
			"type": "error"
		},
		{
			"inputs": [
				{
					"internalType": "address",
					"name": "account",
					"type": "address"
				}
			],
			"name": "AddressInsufficientBalance",
			"type": "error"
		},
		{
			"inputs": [],
			"name": "BelowMinimumK",
			"type": "error"
		},
		{
			"inputs": [],
			"name": "DepositsNotEqual",
			"type": "error"
		},
		{
			"inputs": [],
			"name": "ECDSAInvalidSignature",
			"type": "error"
		},
		{
			"inputs": [
				{
					"internalType": "uint256",
					"name": "length",
					"type": "uint256"
				}
			],
			"name": "ECDSAInvalidSignatureLength",
			"type": "error"
		},
		{
			"inputs": [
				{
					"internalType": "bytes32",
					"name": "s",
					"type": "bytes32"
				}
			],
			"name": "ECDSAInvalidSignatureS",
			"type": "error"
		},
		{
			"inputs": [
				{
					"internalType": "address",
					"name": "spender",
					"type": "address"
				},
				{
					"internalType": "uint256",
					"name": "allowance",
					"type": "uint256"
				},
				{
					"internalType": "uint256",
					"name": "needed",
					"type": "uint256"
				}
			],
			"name": "ERC20InsufficientAllowance",
			"type": "error"
		},
		{
			"inputs": [
				{
					"internalType": "address",
					"name": "sender",
					"type": "address"
				},
				{
					"internalType": "uint256",
					"name": "balance",
					"type": "uint256"
				},
				{
					"internalType": "uint256",
					"name": "needed",
					"type": "uint256"
				}
			],
			"name": "ERC20InsufficientBalance",
			"type": "error"
		},
		{
			"inputs": [
				{
					"internalType": "address",
					"name": "approver",
					"type": "address"
				}
			],
			"name": "ERC20InvalidApprover",
			"type": "error"
		},
		{
			"inputs": [
				{
					"internalType": "address",
					"name": "receiver",
					"type": "address"
				}
			],
			"name": "ERC20InvalidReceiver",
			"type": "error"
		},
		{
			"inputs": [
				{
					"internalType": "address",
					"name": "sender",
					"type": "address"
				}
			],
			"name": "ERC20InvalidSender",
			"type": "error"
		},
		{
			"inputs": [
				{
					"internalType": "address",
					"name": "spender",
					"type": "address"
				}
			],
			"name": "ERC20InvalidSpender",
			"type": "error"
		},
		{
			"inputs": [
				{
					"internalType": "uint256",
					"name": "deadline",
					"type": "uint256"
				}
			],
			"name": "ERC2612ExpiredSignature",
			"type": "error"
		},
		{
			"inputs": [
				{
					"internalType": "address",
					"name": "signer",
					"type": "address"
				},
				{
					"internalType": "address",
					"name": "owner",
					"type": "address"
				}
			],
			"name": "ERC2612InvalidSigner",
			"type": "error"
		},
		{
			"inputs": [],
			"name": "FactoryAlreadySet",
			"type": "error"
		},
		{
			"inputs": [],
			"name": "FailedInnerCall",
			"type": "error"
		},
		{
			"inputs": [],
			"name": "InsufficientInputAmount",
			"type": "error"
		},
		{
			"inputs": [],
			"name": "InsufficientLiquidity",
			"type": "error"
		},
		{
			"inputs": [],
			"name": "InsufficientLiquidityBurned",
			"type": "error"
		},
		{
			"inputs": [],
			"name": "InsufficientLiquidityMinted",
			"type": "error"
		},
		{
			"inputs": [],
			"name": "InsufficientOutputAmount",
			"type": "error"
		},
		{
			"inputs": [
				{
					"internalType": "address",
					"name": "account",
					"type": "address"
				},
				{
					"internalType": "uint256",
					"name": "currentNonce",
					"type": "uint256"
				}
			],
			"name": "InvalidAccountNonce",
			"type": "error"
		},
		{
			"inputs": [],
			"name": "InvalidShortString",
			"type": "error"
		},
		{
			"inputs": [],
			"name": "InvalidTo",
			"type": "error"
		},
		{
			"inputs": [],
			"name": "IsPaused",
			"type": "error"
		},
		{
			"inputs": [],
			"name": "K",
			"type": "error"
		},
		{
			"inputs": [],
			"name": "NotEmergencyCouncil",
			"type": "error"
		},
		{
			"inputs": [],
			"name": "ReentrancyGuardReentrantCall",
			"type": "error"
		},
		{
			"inputs": [
				{
					"internalType": "address",
					"name": "token",
					"type": "address"
				}
			],
			"name": "SafeERC20FailedOperation",
			"type": "error"
		},
		{
			"inputs": [
				{
					"internalType": "string",
					"name": "str",
					"type": "string"
				}
			],
			"name": "StringTooLong",
			"type": "error"
		},
		{
			"anonymous": false,
			"inputs": [
				{
					"indexed": true,
					"internalType": "address",
					"name": "owner",
					"type": "address"
				},
				{
					"indexed": true,
					"internalType": "address",
					"name": "spender",
					"type": "address"
				},
				{
					"indexed": false,
					"internalType": "uint256",
					"name": "value",
					"type": "uint256"
				}
			],
			"name": "Approval",
			"type": "event"
		},
		{
			"anonymous": false,
			"inputs": [
				{
					"indexed": true,
					"internalType": "address",
					"name": "sender",
					"type": "address"
				},
				{
					"indexed": true,
					"internalType": "address",
					"name": "to",
					"type": "address"
				},
				{
					"indexed": false,
					"internalType": "uint256",
					"name": "amount0",
					"type": "uint256"
				},
				{
					"indexed": false,
					"internalType": "uint256",
					"name": "amount1",
					"type": "uint256"
				}
			],
			"name": "Burn",
			"type": "event"
		},
		{
			"anonymous": false,
			"inputs": [
				{
					"indexed": true,
					"internalType": "address",
					"name": "sender",
					"type": "address"
				},
				{
					"indexed": true,
					"internalType": "address",
					"name": "recipient",
					"type": "address"
				},
				{
					"indexed": false,
					"internalType": "uint256",
					"name": "amount0",
					"type": "uint256"
				},
				{
					"indexed": false,
					"internalType": "uint256",
					"name": "amount1",
					"type": "uint256"
				}
			],
			"name": "Claim",
			"type": "event"
		},
		{
			"anonymous": false,
			"inputs": [],
			"name": "EIP712DomainChanged",
			"type": "event"
		},
		{
			"anonymous": false,
			"inputs": [
				{
					"indexed": true,
					"internalType": "address",
					"name": "sender",
					"type": "address"
				},
				{
					"indexed": false,
					"internalType": "uint256",
					"name": "amount0",
					"type": "uint256"
				},
				{
					"indexed": false,
					"internalType": "uint256",
					"name": "amount1",
					"type": "uint256"
				}
			],
			"name": "Fees",
			"type": "event"
		},
		{
			"anonymous": false,
			"inputs": [
				{
					"indexed": true,
					"internalType": "address",
					"name": "sender",
					"type": "address"
				},
				{
					"indexed": false,
					"internalType": "uint256",
					"name": "amount0",
					"type": "uint256"
				},
				{
					"indexed": false,
					"internalType": "uint256",
					"name": "amount1",
					"type": "uint256"
				}
			],
			"name": "Mint",
			"type": "event"
		},
		{
			"anonymous": false,
			"inputs": [
				{
					"indexed": true,
					"internalType": "address",
					"name": "sender",
					"type": "address"
				},
				{
					"indexed": true,
					"internalType": "address",
					"name": "to",
					"type": "address"
				},
				{
					"indexed": false,
					"internalType": "uint256",
					"name": "amount0In",
					"type": "uint256"
				},
				{
					"indexed": false,
					"internalType": "uint256",
					"name": "amount1In",
					"type": "uint256"
				},
				{
					"indexed": false,
					"internalType": "uint256",
					"name": "amount0Out",
					"type": "uint256"
				},
				{
					"indexed": false,
					"internalType": "uint256",
					"name": "amount1Out",
					"type": "uint256"
				}
			],
			"name": "Swap",
			"type": "event"
		},
		{
			"anonymous": false,
			"inputs": [
				{
					"indexed": false,
					"internalType": "uint256",
					"name": "reserve0",
					"type": "uint256"
				},
				{
					"indexed": false,
					"internalType": "uint256",
					"name": "reserve1",
					"type": "uint256"
				}
			],
			"name": "Sync",
			"type": "event"
		},
		{
			"anonymous": false,
			"inputs": [
				{
					"indexed": true,
					"internalType": "address",
					"name": "from",
					"type": "address"
				},
				{
					"indexed": true,
					"internalType": "address",
					"name": "to",
					"type": "address"
				},
				{
					"indexed": false,
					"internalType": "uint256",
					"name": "value",
					"type": "uint256"
				}
			],
			"name": "Transfer",
			"type": "event"
		},
		{
			"inputs": [],
			"name": "DOMAIN_SEPARATOR",
			"outputs": [
				{
					"internalType": "bytes32",
					"name": "",
					"type": "bytes32"
				}
			],
			"stateMutability": "view",
			"type": "function"
		},
		{
			"inputs": [
				{
					"internalType": "address",
					"name": "owner",
					"type": "address"
				},
				{
					"internalType": "address",
					"name": "spender",
					"type": "address"
				}
			],
			"name": "allowance",
			"outputs": [
				{
					"internalType": "uint256",
					"name": "",
					"type": "uint256"
				}
			],
			"stateMutability": "view",
			"type": "function"
		},
		{
			"inputs": [
				{
					"internalType": "address",
					"name": "spender",
					"type": "address"
				},
				{
					"internalType": "uint256",
					"name": "value",
					"type": "uint256"
				}
			],
			"name": "approve",
			"outputs": [
				{
					"internalType": "bool",
					"name": "",
					"type": "bool"
				}
			],
			"stateMutability": "nonpayable",
			"type": "function"
		},
		{
			"inputs": [
				{
					"internalType": "address",
					"name": "account",
					"type": "address"
				}
			],
			"name": "balanceOf",
			"outputs": [
				{
					"internalType": "uint256",
					"name": "",
					"type": "uint256"
				}
			],
			"stateMutability": "view",
			"type": "function"
		},
		{
			"inputs": [],
			"name": "blockTimestampLast",
			"outputs": [
				{
					"internalType": "uint256",
					"name": "",
					"type": "uint256"
				}
			],
			"stateMutability": "view",
			"type": "function"
		},
		{
			"inputs": [
				{
					"internalType": "address",
					"name": "to",
					"type": "address"
				}
			],
			"name": "burn",
			"outputs": [
				{
					"internalType": "uint256",
					"name": "amount0",
					"type": "uint256"
				},
				{
					"internalType": "uint256",
					"name": "amount1",
					"type": "uint256"
				}
			],
			"stateMutability": "nonpayable",
			"type": "function"
		},
		{
			"inputs": [],
			"name": "claimFees",
			"outputs": [
				{
					"internalType": "uint256",
					"name": "claimed0",
					"type": "uint256"
				},
				{
					"internalType": "uint256",
					"name": "claimed1",
					"type": "uint256"
				}
			],
			"stateMutability": "nonpayable",
			"type": "function"
		},
		{
			"inputs": [
				{
					"internalType": "address",
					"name": "",
					"type": "address"
				}
			],
			"name": "claimable0",
			"outputs": [
				{
					"internalType": "uint256",
					"name": "",
					"type": "uint256"
				}
			],
			"stateMutability": "view",
			"type": "function"
		},
		{
			"inputs": [
				{
					"internalType": "address",
					"name": "",
					"type": "address"
				}
			],
			"name": "claimable1",
			"outputs": [
				{
					"internalType": "uint256",
					"name": "",
					"type": "uint256"
				}
			],
			"stateMutability": "view",
			"type": "function"
		},
		{
			"inputs": [],
			"name": "currentCumulativePrices",
			"outputs": [
				{
					"internalType": "uint256",
					"name": "reserve0Cumulative",
					"type": "uint256"
				},
				{
					"internalType": "uint256",
					"name": "reserve1Cumulative",
					"type": "uint256"
				},
				{
					"internalType": "uint256",
					"name": "blockTimestamp",
					"type": "uint256"
				}
			],
			"stateMutability": "view",
			"type": "function"
		},
		{
			"inputs": [],
			"name": "decimals",
			"outputs": [
				{
					"internalType": "uint8",
					"name": "",
					"type": "uint8"
				}
			],
			"stateMutability": "view",
			"type": "function"
		},
		{
			"inputs": [],
			"name": "eip712Domain",
			"outputs": [
				{
					"internalType": "bytes1",
					"name": "fields",
					"type": "bytes1"
				},
				{
					"internalType": "string",
					"name": "name",
					"type": "string"
				},
				{
					"internalType": "string",
					"name": "version",
					"type": "string"
				},
				{
					"internalType": "uint256",
					"name": "chainId",
					"type": "uint256"
				},
				{
					"internalType": "address",
					"name": "verifyingContract",
					"type": "address"
				},
				{
					"internalType": "bytes32",
					"name": "salt",
					"type": "bytes32"
				},
				{
					"internalType": "uint256[]",
					"name": "extensions",
					"type": "uint256[]"
				}
			],
			"stateMutability": "view",
			"type": "function"
		},
		{
			"inputs": [],
			"name": "factory",
			"outputs": [
				{
					"internalType": "address",
					"name": "",
					"type": "address"
				}
			],
			"stateMutability": "view",
			"type": "function"
		},
		{
			"inputs": [
				{
					"internalType": "uint256",
					"name": "amountIn",
					"type": "uint256"
				},
				{
					"internalType": "address",
					"name": "tokenIn",
					"type": "address"
				}
			],
			"name": "getAmountOut",
			"outputs": [
				{
					"internalType": "uint256",
					"name": "",
					"type": "uint256"
				}
			],
			"stateMutability": "view",
			"type": "function"
		},
		{
			"inputs": [],
			"name": "getK",
			"outputs": [
				{
					"internalType": "uint256",
					"name": "",
					"type": "uint256"
				}
			],
			"stateMutability": "nonpayable",
			"type": "function"
		},
		{
			"inputs": [],
			"name": "getReserves",
			"outputs": [
				{
					"internalType": "uint256",
					"name": "_reserve0",
					"type": "uint256"
				},
				{
					"internalType": "uint256",
					"name": "_reserve1",
					"type": "uint256"
				},
				{
					"internalType": "uint256",
					"name": "_blockTimestampLast",
					"type": "uint256"
				}
			],
			"stateMutability": "view",
			"type": "function"
		},
		{
			"inputs": [],
			"name": "index0",
			"outputs": [
				{
					"internalType": "uint256",
					"name": "",
					"type": "uint256"
				}
			],
			"stateMutability": "view",
			"type": "function"
		},
		{
			"inputs": [],
			"name": "index1",
			"outputs": [
				{
					"internalType": "uint256",
					"name": "",
					"type": "uint256"
				}
			],
			"stateMutability": "view",
			"type": "function"
		},
		{
			"inputs": [
				{
					"internalType": "address",
					"name": "_token0",
					"type": "address"
				},
				{
					"internalType": "address",
					"name": "_token1",
					"type": "address"
				},
				{
					"internalType": "bool",
					"name": "_stable",
					"type": "bool"
				}
			],
			"name": "initialize",
			"outputs": [],
			"stateMutability": "nonpayable",
			"type": "function"
		},
		{
			"inputs": [],
			"name": "lastObservation",
			"outputs": [
				{
					"components": [
						{
							"internalType": "uint256",
							"name": "timestamp",
							"type": "uint256"
						},
						{
							"internalType": "uint256",
							"name": "reserve0Cumulative",
							"type": "uint256"
						},
						{
							"internalType": "uint256",
							"name": "reserve1Cumulative",
							"type": "uint256"
						}
					],
					"internalType": "struct IPool.Observation",
					"name": "",
					"type": "tuple"
				}
			],
			"stateMutability": "view",
			"type": "function"
		},
		{
			"inputs": [],
			"name": "metadata",
			"outputs": [
				{
					"internalType": "uint256",
					"name": "dec0",
					"type": "uint256"
				},
				{
					"internalType": "uint256",
					"name": "dec1",
					"type": "uint256"
				},
				{
					"internalType": "uint256",
					"name": "r0",
					"type": "uint256"
				},
				{
					"internalType": "uint256",
					"name": "r1",
					"type": "uint256"
				},
				{
					"internalType": "bool",
					"name": "st",
					"type": "bool"
				},
				{
					"internalType": "address",
					"name": "t0",
					"type": "address"
				},
				{
					"internalType": "address",
					"name": "t1",
					"type": "address"
				}
			],
			"stateMutability": "view",
			"type": "function"
		},
		{
			"inputs": [
				{
					"internalType": "address",
					"name": "to",
					"type": "address"
				}
			],
			"name": "mint",
			"outputs": [
				{
					"internalType": "uint256",
					"name": "liquidity",
					"type": "uint256"
				}
			],
			"stateMutability": "nonpayable",
			"type": "function"
		},
		{
			"inputs": [],
			"name": "name",
			"outputs": [
				{
					"internalType": "string",
					"name": "",
					"type": "string"
				}
			],
			"stateMutability": "view",
			"type": "function"
		},
		{
			"inputs": [
				{
					"internalType": "address",
					"name": "owner",
					"type": "address"
				}
			],
			"name": "nonces",
			"outputs": [
				{
					"internalType": "uint256",
					"name": "",
					"type": "uint256"
				}
			],
			"stateMutability": "view",
			"type": "function"
		},
		{
			"inputs": [],
			"name": "observationLength",
			"outputs": [
				{
					"internalType": "uint256",
					"name": "",
					"type": "uint256"
				}
			],
			"stateMutability": "view",
			"type": "function"
		},
		{
			"inputs": [
				{
					"internalType": "uint256",
					"name": "",
					"type": "uint256"
				}
			],
			"name": "observations",
			"outputs": [
				{
					"internalType": "uint256",
					"name": "timestamp",
					"type": "uint256"
				},
				{
					"internalType": "uint256",
					"name": "reserve0Cumulative",
					"type": "uint256"
				},
				{
					"internalType": "uint256",
					"name": "reserve1Cumulative",
					"type": "uint256"
				}
			],
			"stateMutability": "view",
			"type": "function"
		},
		{
			"inputs": [],
			"name": "periodSize",
			"outputs": [
				{
					"internalType": "uint256",
					"name": "",
					"type": "uint256"
				}
			],
			"stateMutability": "view",
			"type": "function"
		},
		{
			"inputs": [
				{
					"internalType": "address",
					"name": "owner",
					"type": "address"
				},
				{
					"internalType": "address",
					"name": "spender",
					"type": "address"
				},
				{
					"internalType": "uint256",
					"name": "value",
					"type": "uint256"
				},
				{
					"internalType": "uint256",
					"name": "deadline",
					"type": "uint256"
				},
				{
					"internalType": "uint8",
					"name": "v",
					"type": "uint8"
				},
				{
					"internalType": "bytes32",
					"name": "r",
					"type": "bytes32"
				},
				{
					"internalType": "bytes32",
					"name": "s",
					"type": "bytes32"
				}
			],
			"name": "permit",
			"outputs": [],
			"stateMutability": "nonpayable",
			"type": "function"
		},
		{
			"inputs": [],
			"name": "poolFees",
			"outputs": [
				{
					"internalType": "address",
					"name": "",
					"type": "address"
				}
			],
			"stateMutability": "view",
			"type": "function"
		},
		{
			"inputs": [
				{
					"internalType": "address",
					"name": "tokenIn",
					"type": "address"
				},
				{
					"internalType": "uint256",
					"name": "amountIn",
					"type": "uint256"
				},
				{
					"internalType": "uint256",
					"name": "points",
					"type": "uint256"
				}
			],
			"name": "prices",
			"outputs": [
				{
					"internalType": "uint256[]",
					"name": "",
					"type": "uint256[]"
				}
			],
			"stateMutability": "view",
			"type": "function"
		},
		{
			"inputs": [
				{
					"internalType": "address",
					"name": "tokenIn",
					"type": "address"
				},
				{
					"internalType": "uint256",
					"name": "amountIn",
					"type": "uint256"
				},
				{
					"internalType": "uint256",
					"name": "granularity",
					"type": "uint256"
				}
			],
			"name": "quote",
			"outputs": [
				{
					"internalType": "uint256",
					"name": "amountOut",
					"type": "uint256"
				}
			],
			"stateMutability": "view",
			"type": "function"
		},
		{
			"inputs": [],
			"name": "reserve0",
			"outputs": [
				{
					"internalType": "uint256",
					"name": "",
					"type": "uint256"
				}
			],
			"stateMutability": "view",
			"type": "function"
		},
		{
			"inputs": [],
			"name": "reserve0CumulativeLast",
			"outputs": [
				{
					"internalType": "uint256",
					"name": "",
					"type": "uint256"
				}
			],
			"stateMutability": "view",
			"type": "function"
		},
		{
			"inputs": [],
			"name": "reserve1",
			"outputs": [
				{
					"internalType": "uint256",
					"name": "",
					"type": "uint256"
				}
			],
			"stateMutability": "view",
			"type": "function"
		},
		{
			"inputs": [],
			"name": "reserve1CumulativeLast",
			"outputs": [
				{
					"internalType": "uint256",
					"name": "",
					"type": "uint256"
				}
			],
			"stateMutability": "view",
			"type": "function"
		},
		{
			"inputs": [
				{
					"internalType": "address",
					"name": "tokenIn",
					"type": "address"
				},
				{
					"internalType": "uint256",
					"name": "amountIn",
					"type": "uint256"
				},
				{
					"internalType": "uint256",
					"name": "points",
					"type": "uint256"
				},
				{
					"internalType": "uint256",
					"name": "window",
					"type": "uint256"
				}
			],
			"name": "sample",
			"outputs": [
				{
					"internalType": "uint256[]",
					"name": "",
					"type": "uint256[]"
				}
			],
			"stateMutability": "view",
			"type": "function"
		},
		{
			"inputs": [
				{
					"internalType": "string",
					"name": "__name",
					"type": "string"
				}
			],
			"name": "setName",
			"outputs": [],
			"stateMutability": "nonpayable",
			"type": "function"
		},
		{
			"inputs": [
				{
					"internalType": "string",
					"name": "__symbol",
					"type": "string"
				}
			],
			"name": "setSymbol",
			"outputs": [],
			"stateMutability": "nonpayable",
			"type": "function"
		},
		{
			"inputs": [
				{
					"internalType": "address",
					"name": "to",
					"type": "address"
				}
			],
			"name": "skim",
			"outputs": [],
			"stateMutability": "nonpayable",
			"type": "function"
		},
		{
			"inputs": [],
			"name": "stable",
			"outputs": [
				{
					"internalType": "bool",
					"name": "",
					"type": "bool"
				}
			],
			"stateMutability": "view",
			"type": "function"
		},
		{
			"inputs": [
				{
					"internalType": "address",
					"name": "",
					"type": "address"
				}
			],
			"name": "supplyIndex0",
			"outputs": [
				{
					"internalType": "uint256",
					"name": "",
					"type": "uint256"
				}
			],
			"stateMutability": "view",
			"type": "function"
		},
		{
			"inputs": [
				{
					"internalType": "address",
					"name": "",
					"type": "address"
				}
			],
			"name": "supplyIndex1",
			"outputs": [
				{
					"internalType": "uint256",
					"name": "",
					"type": "uint256"
				}
			],
			"stateMutability": "view",
			"type": "function"
		},
		{
			"inputs": [
				{
					"internalType": "uint256",
					"name": "amount0Out",
					"type": "uint256"
				},
				{
					"internalType": "uint256",
					"name": "amount1Out",
					"type": "uint256"
				},
				{
					"internalType": "address",
					"name": "to",
					"type": "address"
				},
				{
					"internalType": "bytes",
					"name": "data",
					"type": "bytes"
				}
			],
			"name": "swap",
			"outputs": [],
			"stateMutability": "nonpayable",
			"type": "function"
		},
		{
			"inputs": [],
			"name": "symbol",
			"outputs": [
				{
					"internalType": "string",
					"name": "",
					"type": "string"
				}
			],
			"stateMutability": "view",
			"type": "function"
		},
		{
			"inputs": [],
			"name": "sync",
			"outputs": [],
			"stateMutability": "nonpayable",
			"type": "function"
		},
		{
			"inputs": [],
			"name": "token0",
			"outputs": [
				{
					"internalType": "address",
					"name": "",
					"type": "address"
				}
			],
			"stateMutability": "view",
			"type": "function"
		},
		{
			"inputs": [],
			"name": "token1",
			"outputs": [
				{
					"internalType": "address",
					"name": "",
					"type": "address"
				}
			],
			"stateMutability": "view",
			"type": "function"
		},
		{
			"inputs": [],
			"name": "tokens",
			"outputs": [
				{
					"internalType": "address",
					"name": "",
					"type": "address"
				},
				{
					"internalType": "address",
					"name": "",
					"type": "address"
				}
			],
			"stateMutability": "view",
			"type": "function"
		},
		{
			"inputs": [],
			"name": "totalSupply",
			"outputs": [
				{
					"internalType": "uint256",
					"name": "",
					"type": "uint256"
				}
			],
			"stateMutability": "view",
			"type": "function"
		},
		{
			"inputs": [
				{
					"internalType": "address",
					"name": "to",
					"type": "address"
				},
				{
					"internalType": "uint256",
					"name": "value",
					"type": "uint256"
				}
			],
			"name": "transfer",
			"outputs": [
				{
					"internalType": "bool",
					"name": "",
					"type": "bool"
				}
			],
			"stateMutability": "nonpayable",
			"type": "function"
		},
		{
			"inputs": [
				{
					"internalType": "address",
					"name": "from",
					"type": "address"
				},
				{
					"internalType": "address",
					"name": "to",
					"type": "address"
				},
				{
					"internalType": "uint256",
					"name": "value",
					"type": "uint256"
				}
			],
			"name": "transferFrom",
			"outputs": [
				{
					"internalType": "bool",
					"name": "",
					"type": "bool"
				}
			],
			"stateMutability": "nonpayable",
			"type": "function"
		}
	]
}