{
	"data": {
		"bytecode": {
			"linkReferences": {},
			"object": "61012060405234801562000011575f80fd5b5060405162007f6c38038062007f6c8339818101604052810190620000379190620001ae565b848073ffffffffffffffffffffffffffffffffffffffff1660808173ffffffffffffffffffffffffffffffffffffffff1681525050508373ffffffffffffffffffffffffffffffffffffffff1660a08173ffffffffffffffffffffffffffffffffffffffff16815250508273ffffffffffffffffffffffffffffffffffffffff1660c08173ffffffffffffffffffffffffffffffffffffffff16815250508173ffffffffffffffffffffffffffffffffffffffff1660e08173ffffffffffffffffffffffffffffffffffffffff16815250508073ffffffffffffffffffffffffffffffffffffffff166101008173ffffffffffffffffffffffffffffffffffffffff1681525050505050505062000232565b5f80fd5b5f73ffffffffffffffffffffffffffffffffffffffff82169050919050565b5f62000178826200014d565b9050919050565b6200018a816200016c565b811462000195575f80fd5b50565b5f81519050620001a8816200017f565b92915050565b5f805f805f60a08688031215620001ca57620001c962000149565b5b5f620001d98882890162000198565b9550506020620001ec8882890162000198565b9450506040620001ff8882890162000198565b9350506060620002128882890162000198565b9250506080620002258882890162000198565b9150509295509295909350565b60805160a05160c05160e05161010051617c07620003655f395f81816101d701528181610bc201528181610dce01528181610ea201528181610f6a0152818161101c01528181611099015281816113fb015281816122dd0152818161244d015281816124e40152818161273b01528181612af301528181612b2b01528181612b8801528181612c0501528181612d680152818161305001528181613778015281816137b701528181613b8901528181613bac01528181614047015281816140fb01528181615365015261540701525f81816115b80152613d6c01525f8181610a050152818161182f01528181611a9b01528181611cfe01528181612b4d0152818161374401528181614d2501528181614df60152614e9e01525f8181610f3c0152611d5f01525f611cd60152617c075ff3fe6080604052600436106101d0575f3560e01c8063874029d9116100f6578063c92de3ec11610094578063d7b0e0a511610063578063d7b0e0a5146107a8578063f5ba53c7146107e5578063fb49bafd14610821578063fe411f14146108515761025c565b8063c92de3ec146106c7578063cac88ea914610704578063ce700c2914610740578063d4b6846d1461077e5761025c565b8063903638a4116100d0578063903638a414610601578063a81b915914610631578063b7e0d4c014610659578063c6b7f1b61461068b5761025c565b8063874029d91461056057806388cd821e1461059c5780638c0037dc146105c45761025c565b806342cb1fbc1161016e578063572b6c051161013d578063572b6c051461047d5780635a47ddc3146104b95780637539d413146104f75780637da0a877146105365761025c565b806342cb1fbc146103b057806346c96aac146103da578063544caa56146104045780635509a1ac146104415761025c565b80633bf0c9fb116101aa5780633bf0c9fb146103045780633da5acba1461032e5780633fc8cef31461034a5780634111d597146103745761025c565b806307db50fa146102605780630dede6c41461029f57806312bc3aca146102dc5761025c565b3661025c577f000000000000000000000000000000000000000000000000000000000000000073ffffffffffffffffffffffffffffffffffffffff163373ffffffffffffffffffffffffffffffffffffffff161461025a576040517f01f180c900000000000000000000000000000000000000000000000000000000815260040160405180910390fd5b005b5f80fd5b34801561026b575f80fd5b50610286600480360381019061028191906163c5565b61088d565b60405161029694939291906164c5565b60405180910390f35b3480156102aa575f80fd5b506102c560048036038101906102c09190616508565b6109f0565b6040516102d39291906165b9565b60405180910390f35b3480156102e7575f80fd5b5061030260048036038101906102fd91906165e0565b610bb6565b005b34801561030f575f80fd5b50610318610f3a565b6040516103259190616685565b60405180910390f35b6103486004803603810190610343919061669e565b610f5e565b005b348015610355575f80fd5b5061035e6113f9565b60405161036b919061677d565b60405180910390f35b34801561037f575f80fd5b5061039a600480360381019061039591906168de565b61141d565b6040516103a79190616a35565b60405180910390f35b3480156103bb575f80fd5b506103c461159e565b6040516103d19190616685565b60405180910390f35b3480156103e5575f80fd5b506103ee6115b6565b6040516103fb9190616685565b60405180910390f35b34801561040f575f80fd5b5061042a60048036038101906104259190616a55565b6115da565b604051610438929190616a93565b60405180910390f35b34801561044c575f80fd5b5061046760048036038101906104629190616bf3565b6116f2565b6040516104749190616a35565b60405180910390f35b348015610488575f80fd5b506104a3600480360381019061049e9190616c4d565b611a30565b6040516104b09190616c87565b60405180910390f35b3480156104c4575f80fd5b506104df60048036038101906104da9190616ca0565b611a6e565b6040516104ee93929190616d64565b60405180910390f35b348015610502575f80fd5b5061051d60048036038101906105189190616d99565b611b73565b60405161052d94939291906164c5565b60405180910390f35b348015610541575f80fd5b5061054a611cd3565b6040516105579190616685565b60405180910390f35b34801561056b575f80fd5b5061058660048036038101906105819190616e75565b611cfa565b6040516105939190616685565b60405180910390f35b3480156105a7575f80fd5b506105c260048036038101906105bd91906165e0565b611eef565b005b3480156105cf575f80fd5b506105ea60048036038101906105e59190616e75565b6121ef565b6040516105f89291906165b9565b60405180910390f35b61061b6004803603810190610616919061669e565b6122cf565b6040516106289190616a35565b60405180910390f35b34801561063c575f80fd5b5061065760048036038101906106529190616efc565b6126c0565b005b610673600480360381019061066e9190616fb6565b612ae0565b60405161068293929190616d64565b60405180910390f35b348015610696575f80fd5b506106b160048036038101906106ac91906165e0565b612d5a565b6040516106be9190616a35565b60405180910390f35b3480156106d2575f80fd5b506106ed60048036038101906106e89190617053565b613137565b6040516106fb9291906165b9565b60405180910390f35b34801561070f575f80fd5b5061072a600480360381019061072591906165e0565b6132ba565b6040516107379190616a35565b60405180910390f35b34801561074b575f80fd5b50610766600480360381019061076191906170ca565b6134fb565b60405161077593929190616d64565b60405180910390f35b348015610789575f80fd5b50610792613742565b60405161079f9190616685565b60405180910390f35b3480156107b3575f80fd5b506107ce60048036038101906107c99190616fb6565b613766565b6040516107dc9291906165b9565b60405180910390f35b3480156107f0575f80fd5b5061080b60048036038101906108069190617153565b613852565b60405161081891906171a3565b60405180910390f35b61083b600480360381019061083691906171bc565b613aef565b60405161084891906171a3565b60405180910390f35b34801561085c575f80fd5b5061087760048036038101906108729190616fb6565b614036565b60405161088491906171a3565b60405180910390f35b5f805f8089935088925060605f898990501115610930576109038b8a8a808060200260200160405190810160405280939291908181526020015f905b828210156108f9578484839050608002018036038101906108ea91906172b1565b815260200190600101906108c9565b50505050506116f2565b905080600182516109149190617309565b815181106109255761092461733c565b5b602002602001015194505b5f8787905011156109c75761099a8a8888808060200260200160405190810160405280939291908181526020015f905b828210156109905784848390506080020180360381019061098191906172b1565b81526020019060010190610960565b50505050506116f2565b905080600182516109ab9190617309565b815181106109bc576109bb61733c565b5b602002602001015193505b6109d58f8f8f8f89896134fb565b508093508194505050509a509a509a509a9650505050505050565b5f80826109fc81614195565b5f610a298c8c8c7f0000000000000000000000000000000000000000000000000000000000000000611cfa565b9050610a5f610a366141d2565b828b8473ffffffffffffffffffffffffffffffffffffffff16614243909392919063ffffffff16565b5f808273ffffffffffffffffffffffffffffffffffffffff166389afcb44896040518263ffffffff1660e01b8152600401610a9a9190616685565b60408051808303815f875af1158015610ab5573d5f803e3d5ffd5b505050506040513d601f19601f82011682018060405250810190610ad9919061737d565b915091505f610ae88f8f6115da565b5090508073ffffffffffffffffffffffffffffffffffffffff168f73ffffffffffffffffffffffffffffffffffffffff1614610b25578183610b28565b82825b80975081985050508a871015610b6a576040517f8f66ec1400000000000000000000000000000000000000000000000000000000815260040160405180910390fd5b89861015610ba4576040517f34c9062400000000000000000000000000000000000000000000000000000000815260040160405180910390fd5b50505050509850989650505050505050565b80610bc081614195565b7f000000000000000000000000000000000000000000000000000000000000000073ffffffffffffffffffffffffffffffffffffffff168585600188889050610c099190617309565b818110610c1957610c1861733c565b5b9050608002016020016020810190610c319190616c4d565b73ffffffffffffffffffffffffffffffffffffffff1614610c7e576040517f20db826700000000000000000000000000000000000000000000000000000000815260040160405180910390fd5b610d6c85855f818110610c9457610c9361733c565b5b9050608002015f016020810190610cab9190616c4d565b610cb36141d2565b610d6688885f818110610cc957610cc861733c565b5b9050608002015f016020810190610ce09190616c4d565b89895f818110610cf357610cf261733c565b5b9050608002016020016020810190610d0b9190616c4d565b8a8a5f818110610d1e57610d1d61733c565b5b9050608002016040016020810190610d3691906173bb565b8b8b5f818110610d4957610d4861733c565b5b9050608002016060016020810190610d619190616c4d565b611cfa565b8a6142c5565b610dcb8585808060200260200160405190810160405280939291908181526020015f905b82821015610dc057848483905060800201803603810190610db191906172b1565b81526020019060010190610d90565b505050505030614402565b5f7f000000000000000000000000000000000000000000000000000000000000000073ffffffffffffffffffffffffffffffffffffffff166370a08231306040518263ffffffff1660e01b8152600401610e259190616685565b602060405180830381865afa158015610e40573d5f803e3d5ffd5b505050506040513d601f19601f82011682018060405250810190610e6491906173e6565b905086811015610ea0576040517f42301c2300000000000000000000000000000000000000000000000000000000815260040160405180910390fd5b7f000000000000000000000000000000000000000000000000000000000000000073ffffffffffffffffffffffffffffffffffffffff16632e1a7d4d826040518263ffffffff1660e01b8152600401610ef991906171a3565b5f604051808303815f87803b158015610f10575f80fd5b505af1158015610f22573d5f803e3d5ffd5b50505050610f3084826148ae565b5050505050505050565b7f000000000000000000000000000000000000000000000000000000000000000081565b80610f6881614195565b7f000000000000000000000000000000000000000000000000000000000000000073ffffffffffffffffffffffffffffffffffffffff1685855f818110610fb257610fb161733c565b5b9050608002015f016020810190610fc99190616c4d565b73ffffffffffffffffffffffffffffffffffffffff1614611016576040517f20db826700000000000000000000000000000000000000000000000000000000815260040160405180910390fd5b5f3490507f000000000000000000000000000000000000000000000000000000000000000073ffffffffffffffffffffffffffffffffffffffff1663d0e30db0826040518263ffffffff1660e01b81526004015f604051808303818588803b158015611080575f80fd5b505af1158015611092573d5f803e3d5ffd5b50505050507f000000000000000000000000000000000000000000000000000000000000000073ffffffffffffffffffffffffffffffffffffffff1663a9059cbb61118688885f8181106110e9576110e861733c565b5b9050608002015f0160208101906111009190616c4d565b89895f8181106111135761111261733c565b5b905060800201602001602081019061112b9190616c4d565b8a8a5f81811061113e5761113d61733c565b5b905060800201604001602081019061115691906173bb565b8b8b5f8181106111695761116861733c565b5b90506080020160600160208101906111819190616c4d565b611cfa565b836040518363ffffffff1660e01b81526004016111a4929190617411565b6020604051808303815f875af11580156111c0573d5f803e3d5ffd5b505050506040513d601f19601f820116820180604052508101906111e4919061744c565b6111f1576111f0617477565b5b5f6001878790506112029190617309565b90505f8787838181106112185761121761733c565b5b90506080020160200160208101906112309190616c4d565b73ffffffffffffffffffffffffffffffffffffffff166370a08231876040518263ffffffff1660e01b81526004016112689190616685565b602060405180830381865afa158015611283573d5f803e3d5ffd5b505050506040513d601f19601f820116820180604052508101906112a791906173e6565b90506113088888808060200260200160405190810160405280939291908181526020015f905b828210156112fd578484839050608002018036038101906112ee91906172b1565b815260200190600101906112cd565b505050505087614402565b888189898581811061131d5761131c61733c565b5b90506080020160200160208101906113359190616c4d565b73ffffffffffffffffffffffffffffffffffffffff166370a08231896040518263ffffffff1660e01b815260040161136d9190616685565b602060405180830381865afa158015611388573d5f803e3d5ffd5b505050506040513d601f19601f820116820180604052508101906113ac91906173e6565b6113b69190617309565b10156113ee576040517f42301c2300000000000000000000000000000000000000000000000000000000815260040160405180910390fd5b505050505050505050565b7f000000000000000000000000000000000000000000000000000000000000000081565b60608161142981614195565b61153186865f81811061143f5761143e61733c565b5b9050608002015f0160208101906114569190616c4d565b61145e6141d2565b61151189895f8181106114745761147361733c565b5b9050608002015f01602081019061148b9190616c4d565b8a8a5f81811061149e5761149d61733c565b5b90506080020160200160208101906114b69190616c4d565b8b8b5f8181106114c9576114c861733c565b5b90506080020160400160208101906114e191906173bb565b8c8c5f8181106114f4576114f361733c565b5b905060800201606001602081019061150c9190616c4d565b611cfa565b8a5f815181106115245761152361733c565b5b60200260200101516142c5565b611591878787808060200260200160405190810160405280939291908181526020015f905b828210156115865784848390506080020180360381019061157791906172b1565b81526020019060010190611556565b5050505050866149a0565b8691505095945050505050565b73eeeeeeeeeeeeeeeeeeeeeeeeeeeeeeeeeeeeeeee81565b7f000000000000000000000000000000000000000000000000000000000000000081565b5f808273ffffffffffffffffffffffffffffffffffffffff168473ffffffffffffffffffffffffffffffffffffffff1603611641576040517fca57cff400000000000000000000000000000000000000000000000000000000815260040160405180910390fd5b8273ffffffffffffffffffffffffffffffffffffffff168473ffffffffffffffffffffffffffffffffffffffff161061167b57828461167e565b83835b80925081935050505f73ffffffffffffffffffffffffffffffffffffffff168273ffffffffffffffffffffffffffffffffffffffff16036116eb576040517fd92e233d00000000000000000000000000000000000000000000000000000000815260040160405180910390fd5b9250929050565b6060600182511015611730576040517f20db826700000000000000000000000000000000000000000000000000000000815260040160405180910390fd5b6001825161173e91906174a4565b67ffffffffffffffff811115611757576117566167a6565b5b6040519080825280602002602001820160405280156117855781602001602082028036833780820191505090505b50905082815f8151811061179c5761179b61733c565b5b6020026020010181815250505f825190505f5b81811015611a28575f8073ffffffffffffffffffffffffffffffffffffffff168583815181106117e2576117e161733c565b5b60200260200101516060015173ffffffffffffffffffffffffffffffffffffffff161461182d5784828151811061181c5761181b61733c565b5b60200260200101516060015161184f565b7f00000000000000000000000000000000000000000000000000000000000000005b90505f6118b78684815181106118685761186761733c565b5b60200260200101515f01518785815181106118865761188561733c565b5b6020026020010151602001518886815181106118a5576118a461733c565b5b60200260200101516040015185611cfa565b90508173ffffffffffffffffffffffffffffffffffffffff16635b16ebb7826040518263ffffffff1660e01b81526004016118f29190616685565b602060405180830381865afa15801561190d573d5f803e3d5ffd5b505050506040513d601f19601f82011682018060405250810190611931919061744c565b15611a13578073ffffffffffffffffffffffffffffffffffffffff1663f140a35a8685815181106119655761196461733c565b5b60200260200101518886815181106119805761197f61733c565b5b60200260200101515f01516040518363ffffffff1660e01b81526004016119a89291906174d7565b602060405180830381865afa1580156119c3573d5f803e3d5ffd5b505050506040513d601f19601f820116820180604052508101906119e791906173e6565b856001856119f591906174a4565b81518110611a0657611a0561733c565b5b6020026020010181815250505b50508080611a20906174fe565b9150506117af565b505092915050565b5f611a39611cd3565b73ffffffffffffffffffffffffffffffffffffffff168273ffffffffffffffffffffffffffffffffffffffff16149050919050565b5f805f83611a7b81614195565b611a8a8d8d8d8d8d8d8d614cac565b80945081955050505f611abf8e8e8e7f0000000000000000000000000000000000000000000000000000000000000000611cfa565b9050611ad48e611acd6141d2565b83886142c5565b611ae78d611ae06141d2565b83876142c5565b8073ffffffffffffffffffffffffffffffffffffffff16636a627842886040518263ffffffff1660e01b8152600401611b209190616685565b6020604051808303815f875af1158015611b3c573d5f803e3d5ffd5b505050506040513d601f19601f82011682018060405250810190611b6091906173e6565b9250505099509950999650505050505050565b5f805f80611b848d8d8d8d8d613137565b809250819350505081935080925060605f898990501115611c2b57611bfe838a8a808060200260200160405190810160405280939291908181526020015f905b82821015611bf457848483905060800201803603810190611be591906172b1565b81526020019060010190611bc4565b50505050506116f2565b90508060018251611c0f9190617309565b81518110611c2057611c1f61733c565b5b602002602001015194505b5f878790501115611cc257611c95828888808060200260200160405190810160405280939291908181526020015f905b82821015611c8b57848483905060800201803603810190611c7c91906172b1565b81526020019060010190611c5b565b50505050506116f2565b90508060018251611ca69190617309565b81518110611cb757611cb661733c565b5b602002602001015193505b509950995099509995505050505050565b5f7f0000000000000000000000000000000000000000000000000000000000000000905090565b5f807f000000000000000000000000000000000000000000000000000000000000000090505f8073ffffffffffffffffffffffffffffffffffffffff168473ffffffffffffffffffffffffffffffffffffffff1614611d595783611d5b565b815b90507f000000000000000000000000000000000000000000000000000000000000000073ffffffffffffffffffffffffffffffffffffffff1663d1ea0a1d826040518263ffffffff1660e01b8152600401611db69190616685565b602060405180830381865afa158015611dd1573d5f803e3d5ffd5b505050506040513d601f19601f82011682018060405250810190611df5919061744c565b611e2b576040517f9a73ab4600000000000000000000000000000000000000000000000000000000815260040160405180910390fd5b5f80611e3789896115da565b915091505f828289604051602001611e51939291906175cf565b604051602081830303815290604052805190602001209050611ee08473ffffffffffffffffffffffffffffffffffffffff16635c60da1b6040518163ffffffff1660e01b8152600401602060405180830381865afa158015611eb5573d5f803e3d5ffd5b505050506040513d601f19601f82011682018060405250810190611ed9919061761f565b8286614fbc565b95505050505050949350505050565b80611ef981614195565b611fe785855f818110611f0f57611f0e61733c565b5b9050608002015f016020810190611f269190616c4d565b611f2e6141d2565b611fe188885f818110611f4457611f4361733c565b5b9050608002015f016020810190611f5b9190616c4d565b89895f818110611f6e57611f6d61733c565b5b9050608002016020016020810190611f869190616c4d565b8a8a5f818110611f9957611f9861733c565b5b9050608002016040016020810190611fb191906173bb565b8b8b5f818110611fc457611fc361733c565b5b9050608002016060016020810190611fdc9190616c4d565b611cfa565b8a6142c5565b5f600186869050611ff89190617309565b90505f86868381811061200e5761200d61733c565b5b90506080020160200160208101906120269190616c4d565b73ffffffffffffffffffffffffffffffffffffffff166370a08231866040518263ffffffff1660e01b815260040161205e9190616685565b602060405180830381865afa158015612079573d5f803e3d5ffd5b505050506040513d601f19601f8201168201806040525081019061209d91906173e6565b90506120fe8787808060200260200160405190810160405280939291908181526020015f905b828210156120f3578484839050608002018036038101906120e491906172b1565b815260200190600101906120c3565b505050505086614402565b87818888858181106121135761211261733c565b5b905060800201602001602081019061212b9190616c4d565b73ffffffffffffffffffffffffffffffffffffffff166370a08231886040518263ffffffff1660e01b81526004016121639190616685565b602060405180830381865afa15801561217e573d5f803e3d5ffd5b505050506040513d601f19601f820116820180604052508101906121a291906173e6565b6121ac9190617309565b10156121e4576040517f42301c2300000000000000000000000000000000000000000000000000000000815260040160405180910390fd5b505050505050505050565b5f805f6121fc87876115da565b5090505f8061220d89898989611cfa565b73ffffffffffffffffffffffffffffffffffffffff16630902f1ac6040518163ffffffff1660e01b8152600401606060405180830381865afa158015612255573d5f803e3d5ffd5b505050506040513d601f19601f82011682018060405250810190612279919061764a565b50915091508273ffffffffffffffffffffffffffffffffffffffff168973ffffffffffffffffffffffffffffffffffffffff16146122b85780826122bb565b81815b809550819650505050505094509492505050565b6060816122db81614195565b7f000000000000000000000000000000000000000000000000000000000000000073ffffffffffffffffffffffffffffffffffffffff1686865f8181106123255761232461733c565b5b9050608002015f01602081019061233c9190616c4d565b73ffffffffffffffffffffffffffffffffffffffff1614612389576040517f20db826700000000000000000000000000000000000000000000000000000000815260040160405180910390fd5b6123e8348787808060200260200160405190810160405280939291908181526020015f905b828210156123de578484839050608002018036038101906123cf91906172b1565b815260200190600101906123ae565b50505050506116f2565b91508682600184516123fa9190617309565b8151811061240b5761240a61733c565b5b6020026020010151101561244b576040517f42301c2300000000000000000000000000000000000000000000000000000000815260040160405180910390fd5b7f000000000000000000000000000000000000000000000000000000000000000073ffffffffffffffffffffffffffffffffffffffff1663d0e30db0835f8151811061249a5761249961733c565b5b60200260200101516040518263ffffffff1660e01b81526004015f604051808303818588803b1580156124cb575f80fd5b505af11580156124dd573d5f803e3d5ffd5b50505050507f000000000000000000000000000000000000000000000000000000000000000073ffffffffffffffffffffffffffffffffffffffff1663a9059cbb6125d188885f8181106125345761253361733c565b5b9050608002015f01602081019061254b9190616c4d565b89895f81811061255e5761255d61733c565b5b90506080020160200160208101906125769190616c4d565b8a8a5f8181106125895761258861733c565b5b90506080020160400160208101906125a191906173bb565b8b8b5f8181106125b4576125b361733c565b5b90506080020160600160208101906125cc9190616c4d565b611cfa565b845f815181106125e4576125e361733c565b5b60200260200101516040518363ffffffff1660e01b8152600401612609929190617411565b6020604051808303815f875af1158015612625573d5f803e3d5ffd5b505050506040513d601f19601f82011682018060405250810190612649919061744c565b61265657612655617477565b5b6126b6828787808060200260200160405190810160405280939291908181526020015f905b828210156126ab5784848390506080020180360381019061269c91906172b1565b8152602001906001019061267b565b5050505050866149a0565b5095945050505050565b5f855f0160208101906126d39190616c4d565b90505f8660200160208101906126e99190616c4d565b90505f73eeeeeeeeeeeeeeeeeeeeeeeeeeeeeeeeeeeeeeee73ffffffffffffffffffffffffffffffffffffffff168a73ffffffffffffffffffffffffffffffffffffffff1614612739578961275b565b7f00000000000000000000000000000000000000000000000000000000000000005b9050612767898961501c565b5f8173ffffffffffffffffffffffffffffffffffffffff168473ffffffffffffffffffffffffffffffffffffffff1614612919578373ffffffffffffffffffffffffffffffffffffffff166370a08231306040518263ffffffff1660e01b81526004016127d49190616685565b602060405180830381865afa1580156127ef573d5f803e3d5ffd5b505050506040513d601f19601f8201168201806040525081019061281391906173e6565b90508173ffffffffffffffffffffffffffffffffffffffff16888860018b8b905061283e9190617309565b81811061284e5761284d61733c565b5b90506080020160200160208101906128669190616c4d565b73ffffffffffffffffffffffffffffffffffffffff16146128b3576040517f4ea0e33800000000000000000000000000000000000000000000000000000000815260040160405180910390fd5b61291884828b608001358b8b808060200260200160405190810160405280939291908181526020015f905b8282101561290e578484839050608002018036038101906128ff91906172b1565b815260200190600101906128de565b50505050506151fe565b5b8173ffffffffffffffffffffffffffffffffffffffff168373ffffffffffffffffffffffffffffffffffffffff1614612aca578273ffffffffffffffffffffffffffffffffffffffff166370a08231306040518263ffffffff1660e01b81526004016129859190616685565b602060405180830381865afa1580156129a0573d5f803e3d5ffd5b505050506040513d601f19601f820116820180604052508101906129c491906173e6565b90508173ffffffffffffffffffffffffffffffffffffffff1686866001898990506129ef9190617309565b8181106129ff576129fe61733c565b5b9050608002016020016020810190612a179190616c4d565b73ffffffffffffffffffffffffffffffffffffffff1614612a64576040517fcac9040c00000000000000000000000000000000000000000000000000000000815260040160405180910390fd5b612ac983828b60a001358989808060200260200160405190810160405280939291908181526020015f905b82821015612abf57848483905060800201803603810190612ab091906172b1565b81526020019060010190612a8f565b50505050506151fe565b5b612ad38b615310565b5050505050505050505050565b5f805f83612aed81614195565b612b1c8b7f00000000000000000000000000000000000000000000000000000000000000008c8c348d8d614cac565b80945081955050505f612b718c7f00000000000000000000000000000000000000000000000000000000000000008d7f0000000000000000000000000000000000000000000000000000000000000000611cfa565b9050612b868c612b7f6141d2565b83886142c5565b7f000000000000000000000000000000000000000000000000000000000000000073ffffffffffffffffffffffffffffffffffffffff1663d0e30db0856040518263ffffffff1660e01b81526004015f604051808303818588803b158015612bec575f80fd5b505af1158015612bfe573d5f803e3d5ffd5b50505050507f000000000000000000000000000000000000000000000000000000000000000073ffffffffffffffffffffffffffffffffffffffff1663a9059cbb82866040518363ffffffff1660e01b8152600401612c5e929190617411565b6020604051808303815f875af1158015612c7a573d5f803e3d5ffd5b505050506040513d601f19601f82011682018060405250810190612c9e919061744c565b612cab57612caa617477565b5b8073ffffffffffffffffffffffffffffffffffffffff16636a627842886040518263ffffffff1660e01b8152600401612ce49190616685565b6020604051808303815f875af1158015612d00573d5f803e3d5ffd5b505050506040513d601f19601f82011682018060405250810190612d2491906173e6565b925083341115612d4b57612d4a612d396141d2565b8534612d459190617309565b6148ae565b5b50509750975097945050505050565b606081612d6681614195565b7f000000000000000000000000000000000000000000000000000000000000000073ffffffffffffffffffffffffffffffffffffffff168686600189899050612daf9190617309565b818110612dbf57612dbe61733c565b5b9050608002016020016020810190612dd79190616c4d565b73ffffffffffffffffffffffffffffffffffffffff1614612e24576040517f20db826700000000000000000000000000000000000000000000000000000000815260040160405180910390fd5b612e83888787808060200260200160405190810160405280939291908181526020015f905b82821015612e7957848483905060800201803603810190612e6a91906172b1565b81526020019060010190612e49565b50505050506116f2565b9150868260018451612e959190617309565b81518110612ea657612ea561733c565b5b60200260200101511015612ee6576040517f42301c2300000000000000000000000000000000000000000000000000000000815260040160405180910390fd5b612fee86865f818110612efc57612efb61733c565b5b9050608002015f016020810190612f139190616c4d565b612f1b6141d2565b612fce89895f818110612f3157612f3061733c565b5b9050608002015f016020810190612f489190616c4d565b8a8a5f818110612f5b57612f5a61733c565b5b9050608002016020016020810190612f739190616c4d565b8b8b5f818110612f8657612f8561733c565b5b9050608002016040016020810190612f9e91906173bb565b8c8c5f818110612fb157612fb061733c565b5b9050608002016060016020810190612fc99190616c4d565b611cfa565b855f81518110612fe157612fe061733c565b5b60200260200101516142c5565b61304e828787808060200260200160405190810160405280939291908181526020015f905b828210156130435784848390506080020180360381019061303491906172b1565b81526020019060010190613013565b5050505050306149a0565b7f000000000000000000000000000000000000000000000000000000000000000073ffffffffffffffffffffffffffffffffffffffff16632e1a7d4d83600185516130999190617309565b815181106130aa576130a961733c565b5b60200260200101516040518263ffffffff1660e01b81526004016130ce91906171a3565b5f604051808303815f87803b1580156130e5575f80fd5b505af11580156130f7573d5f803e3d5ffd5b5050505061312c84836001855161310e9190617309565b8151811061311f5761311e61733c565b5b60200260200101516148ae565b509695505050505050565b5f805f8473ffffffffffffffffffffffffffffffffffffffff166379bc57d58989896040518463ffffffff1660e01b81526004016131779392919061769a565b602060405180830381865afa158015613192573d5f803e3d5ffd5b505050506040513d601f19601f820116820180604052508101906131b6919061761f565b90505f73ffffffffffffffffffffffffffffffffffffffff168173ffffffffffffffffffffffffffffffffffffffff16036131f7575f8092509250506132b0565b5f806132058a8a8a8a6121ef565b915091505f8373ffffffffffffffffffffffffffffffffffffffff166318160ddd6040518163ffffffff1660e01b8152600401602060405180830381865afa158015613253573d5f803e3d5ffd5b505050506040513d601f19601f8201168201806040525081019061327791906173e6565b905080838861328691906176cf565b613290919061773d565b955080828861329f91906176cf565b6132a9919061773d565b9450505050505b9550959350505050565b6060816132c681614195565b613325888787808060200260200160405190810160405280939291908181526020015f905b8282101561331b5784848390506080020180360381019061330c91906172b1565b815260200190600101906132eb565b50505050506116f2565b91508682600184516133379190617309565b815181106133485761334761733c565b5b60200260200101511015613388576040517f42301c2300000000000000000000000000000000000000000000000000000000815260040160405180910390fd5b61349086865f81811061339e5761339d61733c565b5b9050608002015f0160208101906133b59190616c4d565b6133bd6141d2565b61347089895f8181106133d3576133d261733c565b5b9050608002015f0160208101906133ea9190616c4d565b8a8a5f8181106133fd576133fc61733c565b5b90506080020160200160208101906134159190616c4d565b8b8b5f8181106134285761342761733c565b5b905060800201604001602081019061344091906173bb565b8c8c5f8181106134535761345261733c565b5b905060800201606001602081019061346b9190616c4d565b611cfa565b855f815181106134835761348261733c565b5b60200260200101516142c5565b6134f0828787808060200260200160405190810160405280939291908181526020015f905b828210156134e5578484839050608002018036038101906134d691906172b1565b815260200190600101906134b5565b5050505050866149a0565b509695505050505050565b5f805f808673ffffffffffffffffffffffffffffffffffffffff166379bc57d58b8b8b6040518463ffffffff1660e01b815260040161353c9392919061769a565b602060405180830381865afa158015613557573d5f803e3d5ffd5b505050506040513d601f19601f8201168201806040525081019061357b919061761f565b90505f805f80915091505f8073ffffffffffffffffffffffffffffffffffffffff168473ffffffffffffffffffffffffffffffffffffffff161461363d578373ffffffffffffffffffffffffffffffffffffffff166318160ddd6040518163ffffffff1660e01b8152600401602060405180830381865afa158015613602573d5f803e3d5ffd5b505050506040513d601f19601f8201168201806040525081019061362691906173e6565b90506136348d8d8d8d6121ef565b80935081945050505b5f8314801561364b57505f82145b1561368257888880975081985050506103e8613671878961366c91906176cf565b61554f565b61367b9190617309565b9450613732565b5f61368e8a8585615645565b90508881116136de57898180985081995050506136d784838a6136b191906176cf565b6136bb919061773d565b84848a6136c891906176cf565b6136d2919061773d565b6156e3565b9550613730565b5f6136ea8a8587615645565b9050808a809950819a50505061372c85848b61370691906176cf565b613710919061773d565b85858b61371d91906176cf565b613727919061773d565b6156e3565b9650505b505b5050505096509650969350505050565b7f000000000000000000000000000000000000000000000000000000000000000081565b5f808261377281614195565b6137a28a7f00000000000000000000000000000000000000000000000000000000000000008b8b8b8b308b6109f0565b80935081945050506137b58a86856156fb565b7f000000000000000000000000000000000000000000000000000000000000000073ffffffffffffffffffffffffffffffffffffffff16632e1a7d4d836040518263ffffffff1660e01b815260040161380e91906171a3565b5f604051808303815f87803b158015613825575f80fd5b505af1158015613837573d5f803e3d5ffd5b5050505061384585836148ae565b5097509795505050505050565b5f806138618585600186611cfa565b90505f8573ffffffffffffffffffffffffffffffffffffffff1663313ce5676040518163ffffffff1660e01b8152600401602060405180830381865afa1580156138ad573d5f803e3d5ffd5b505050506040513d601f19601f820116820180604052508101906138d191906177a3565b600a6138dd91906178fd565b90505f8573ffffffffffffffffffffffffffffffffffffffff1663313ce5676040518163ffffffff1660e01b8152600401602060405180830381865afa158015613929573d5f803e3d5ffd5b505050506040513d601f19601f8201168201806040525081019061394d91906177a3565b600a61395991906178fd565b90505f8290505f8473ffffffffffffffffffffffffffffffffffffffff1663f140a35a838b6040518363ffffffff1660e01b815260040161399b9291906174d7565b602060405180830381865afa1580156139b6573d5f803e3d5ffd5b505050506040513d601f19601f820116820180604052508101906139da91906173e6565b90505f806139ed8b8b60018c88886134fb565b509150915085670de0b6b3a764000083613a0791906176cf565b613a11919061773d565b915084670de0b6b3a764000082613a2891906176cf565b613a32919061773d565b905084670de0b6b3a764000084613a4991906176cf565b613a53919061773d565b925085670de0b6b3a764000085613a6a91906176cf565b613a74919061773d565b9350808285670de0b6b3a764000086613a8d91906176cf565b613a97919061773d565b613aa191906176cf565b613aab919061773d565b9750670de0b6b3a764000088613ac191906174a4565b670de0b6b3a764000085613ad591906176cf565b613adf919061773d565b9750505050505050509392505050565b5f80898b613afd91906174a4565b90505f8c90505f34905073eeeeeeeeeeeeeeeeeeeeeeeeeeeeeeeeeeeeeeee73ffffffffffffffffffffffffffffffffffffffff168e73ffffffffffffffffffffffffffffffffffffffff1603613c2c57808314613b87576040517f70a3fb9200000000000000000000000000000000000000000000000000000000815260040160405180910390fd5b7f000000000000000000000000000000000000000000000000000000000000000091507f000000000000000000000000000000000000000000000000000000000000000073ffffffffffffffffffffffffffffffffffffffff1663d0e30db0826040518263ffffffff1660e01b81526004015f604051808303818588803b158015613c10575f80fd5b505af1158015613c22573d5f803e3d5ffd5b5050505050613c79565b5f8114613c65576040517fae6d566f00000000000000000000000000000000000000000000000000000000815260040160405180910390fd5b613c7882613c716141d2565b30866142c5565b5b613c89828e8e8e8e8e8e8e615835565b613c928b615bd8565b5f613ce68c5f016020810190613ca89190616c4d565b8d6020016020810190613cbb9190616c4d565b8e6040016020810190613cce91906173bb565b8f6060016020810190613ce19190616c4d565b611cfa565b90508515613f6a578073ffffffffffffffffffffffffffffffffffffffff16636a627842306040518263ffffffff1660e01b8152600401613d279190616685565b6020604051808303815f875af1158015613d43573d5f803e3d5ffd5b505050506040513d601f19601f82011682018060405250810190613d6791906173e6565b94505f7f000000000000000000000000000000000000000000000000000000000000000073ffffffffffffffffffffffffffffffffffffffff1663b9a09fd5836040518263ffffffff1660e01b8152600401613dc39190616685565b602060405180830381865afa158015613dde573d5f803e3d5ffd5b505050506040513d601f19601f82011682018060405250810190613e02919061761f565b90508173ffffffffffffffffffffffffffffffffffffffff1663095ea7b382886040518363ffffffff1660e01b8152600401613e3f929190617411565b6020604051808303815f875af1158015613e5b573d5f803e3d5ffd5b505050506040513d601f19601f82011682018060405250810190613e7f919061744c565b508073ffffffffffffffffffffffffffffffffffffffff16636e553f65878a6040518363ffffffff1660e01b8152600401613ebb9291906174d7565b5f604051808303815f87803b158015613ed2575f80fd5b505af1158015613ee4573d5f803e3d5ffd5b505050508173ffffffffffffffffffffffffffffffffffffffff1663095ea7b3825f6040518363ffffffff1660e01b8152600401613f23929190617980565b6020604051808303815f875af1158015613f3f573d5f803e3d5ffd5b505050506040513d601f19601f82011682018060405250810190613f63919061744c565b5050613fe6565b8073ffffffffffffffffffffffffffffffffffffffff16636a627842886040518263ffffffff1660e01b8152600401613fa39190616685565b6020604051808303815f875af1158015613fbf573d5f803e3d5ffd5b505050506040513d601f19601f82011682018060405250810190613fe391906173e6565b94505b613fef8f615310565b6140098c5f0160208101906140049190616c4d565b615310565b6140248c602001602081019061401f9190616c4d565b615310565b505050509a9950505050505050505050565b5f8161404181614195565b614071897f00000000000000000000000000000000000000000000000000000000000000008a8a8a8a308a6109f0565b9050809250506140f989858b73ffffffffffffffffffffffffffffffffffffffff166370a08231306040518263ffffffff1660e01b81526004016140b59190616685565b602060405180830381865afa1580156140d0573d5f803e3d5ffd5b505050506040513d601f19601f820116820180604052508101906140f491906173e6565b6156fb565b7f000000000000000000000000000000000000000000000000000000000000000073ffffffffffffffffffffffffffffffffffffffff16632e1a7d4d836040518263ffffffff1660e01b815260040161415291906171a3565b5f604051808303815f87803b158015614169575f80fd5b505af115801561417b573d5f803e3d5ffd5b5050505061418984836148ae565b50979650505050505050565b428110156141cf576040517f203d82d800000000000000000000000000000000000000000000000000000000815260040160405180910390fd5b50565b5f805f36905090505f6141e3615d6a565b90506141ee33611a30565b80156141fa5750808210155b15614233575f36828461420d9190617309565b90809261421c939291906179af565b906142279190617a2a565b60601c92505050614240565b61423b615d72565b925050505b90565b6142bf848573ffffffffffffffffffffffffffffffffffffffff166323b872dd86868660405160240161427893929190617a88565b604051602081830303815290604052915060e01b6020820180517bffffffffffffffffffffffffffffffffffffffffffffffffffffffff8381831617835250505050615d79565b50505050565b5f8473ffffffffffffffffffffffffffffffffffffffff163b116142e7575f80fd5b5f808573ffffffffffffffffffffffffffffffffffffffff166323b872dd60e01b86868660405160240161431d93929190617a88565b604051602081830303815290604052907bffffffffffffffffffffffffffffffffffffffffffffffffffffffff19166020820180517bffffffffffffffffffffffffffffffffffffffffffffffffffffffff83818316178352505050506040516143879190617b29565b5f604051808303815f865af19150503d805f81146143c0576040519150601f19603f3d011682016040523d82523d5f602084013e6143c5565b606091505b50915091508180156143f257505f815114806143f15750808060200190518101906143f0919061744c565b5b5b6143fa575f80fd5b505050505050565b5f825190505f5b818110156148a8575f6144578583815181106144285761442761733c565b5b60200260200101515f01518684815181106144465761444561733c565b5b6020026020010151602001516115da565b5090505f6144de8684815181106144715761447061733c565b5b60200260200101515f015187858151811061448f5761448e61733c565b5b6020026020010151602001518886815181106144ae576144ad61733c565b5b6020026020010151604001518987815181106144cd576144cc61733c565b5b602002602001015160600151611cfa565b90505f805f6145668987815181106144f9576144f861733c565b5b60200260200101515f01518a88815181106145175761451661733c565b5b6020026020010151602001518b89815181106145365761453561733c565b5b6020026020010151604001518c8a815181106145555761455461733c565b5b6020026020010151606001516121ef565b5090508089878151811061457d5761457c61733c565b5b60200260200101515f015173ffffffffffffffffffffffffffffffffffffffff166370a08231866040518263ffffffff1660e01b81526004016145c09190616685565b602060405180830381865afa1580156145db573d5f803e3d5ffd5b505050506040513d601f19601f820116820180604052508101906145ff91906173e6565b6146099190617309565b9250508273ffffffffffffffffffffffffffffffffffffffff1663f140a35a838a888151811061463c5761463b61733c565b5b60200260200101515f01516040518363ffffffff1660e01b81526004016146649291906174d7565b602060405180830381865afa15801561467f573d5f803e3d5ffd5b505050506040513d601f19601f820116820180604052508101906146a391906173e6565b90505f808573ffffffffffffffffffffffffffffffffffffffff168a88815181106146d1576146d061733c565b5b60200260200101515f015173ffffffffffffffffffffffffffffffffffffffff16146146fe57825f614701565b5f835b915091505f60018b516147149190617309565b881061472057896147d4565b6147d38b60018a61473191906174a4565b815181106147425761474161733c565b5b60200260200101515f01518c60018b61475b91906174a4565b8151811061476c5761476b61733c565b5b6020026020010151602001518d60018c61478691906174a4565b815181106147975761479661733c565b5b6020026020010151604001518e60018d6147b191906174a4565b815181106147c2576147c161733c565b5b602002602001015160600151611cfa565b5b90508573ffffffffffffffffffffffffffffffffffffffff1663022c0d9f8484845f67ffffffffffffffff81111561480f5761480e6167a6565b5b6040519080825280601f01601f1916602001820160405280156148415781602001600182028036833780820191505090505b506040518563ffffffff1660e01b81526004016148619493929190617b87565b5f604051808303815f87803b158015614878575f80fd5b505af115801561488a573d5f803e3d5ffd5b505050505050505050505080806148a0906174fe565b915050614409565b50505050565b5f8273ffffffffffffffffffffffffffffffffffffffff16825f67ffffffffffffffff8111156148e1576148e06167a6565b5b6040519080825280601f01601f1916602001820160405280156149135781602001600182028036833780820191505090505b506040516149219190617b29565b5f6040518083038185875af1925050503d805f811461495b576040519150601f19603f3d011682016040523d82523d5f602084013e614960565b606091505b505090508061499b576040517fb12d13eb00000000000000000000000000000000000000000000000000000000815260040160405180910390fd5b505050565b5f825190505f5b81811015614ca5575f6149f58583815181106149c6576149c561733c565b5b60200260200101515f01518684815181106149e4576149e361733c565b5b6020026020010151602001516115da565b5090505f86600184614a0791906174a4565b81518110614a1857614a1761733c565b5b602002602001015190505f808373ffffffffffffffffffffffffffffffffffffffff16888681518110614a4e57614a4d61733c565b5b60200260200101515f015173ffffffffffffffffffffffffffffffffffffffff1614614a7b57825f614a7e565b5f835b915091505f60018951614a919190617309565b8610614a9d5787614b51565b614b5089600188614aae91906174a4565b81518110614abf57614abe61733c565b5b60200260200101515f01518a600189614ad891906174a4565b81518110614ae957614ae861733c565b5b6020026020010151602001518b60018a614b0391906174a4565b81518110614b1457614b1361733c565b5b6020026020010151604001518c60018b614b2e91906174a4565b81518110614b3f57614b3e61733c565b5b602002602001015160600151611cfa565b5b9050614bd6898781518110614b6957614b6861733c565b5b60200260200101515f01518a8881518110614b8757614b8661733c565b5b6020026020010151602001518b8981518110614ba657614ba561733c565b5b6020026020010151604001518c8a81518110614bc557614bc461733c565b5b602002602001015160600151611cfa565b73ffffffffffffffffffffffffffffffffffffffff1663022c0d9f8484845f67ffffffffffffffff811115614c0e57614c0d6167a6565b5b6040519080825280601f01601f191660200182016040528015614c405781602001600182028036833780820191505090505b506040518563ffffffff1660e01b8152600401614c609493929190617b87565b5f604051808303815f87803b158015614c77575f80fd5b505af1158015614c89573d5f803e3d5ffd5b5050505050505050508080614c9d906174fe565b9150506149a7565b5050505050565b5f8083861015614ce8576040517fdc6b2ef200000000000000000000000000000000000000000000000000000000815260040160405180910390fd5b82851015614d22576040517facee051300000000000000000000000000000000000000000000000000000000815260040160405180910390fd5b5f7f000000000000000000000000000000000000000000000000000000000000000073ffffffffffffffffffffffffffffffffffffffff166379bc57d58b8b8b6040518463ffffffff1660e01b8152600401614d809392919061769a565b602060405180830381865afa158015614d9b573d5f803e3d5ffd5b505050506040513d601f19601f82011682018060405250810190614dbf919061761f565b90505f73ffffffffffffffffffffffffffffffffffffffff168173ffffffffffffffffffffffffffffffffffffffff1603614e94577f000000000000000000000000000000000000000000000000000000000000000073ffffffffffffffffffffffffffffffffffffffff166336bf95a08b8b8b6040518463ffffffff1660e01b8152600401614e519392919061769a565b6020604051808303815f875af1158015614e6d573d5f803e3d5ffd5b505050506040513d601f19601f82011682018060405250810190614e91919061761f565b90505b5f80614ec28c8c8c7f00000000000000000000000000000000000000000000000000000000000000006121ef565b915091505f82148015614ed457505f81145b15614ee85788888095508196505050614fad565b5f614ef48a8484615645565b9050888111614f465786811015614f37576040517f34c9062400000000000000000000000000000000000000000000000000000000815260040160405180910390fd5b89818096508197505050614fab565b5f614f528a8486615645565b90508a811115614f6557614f64617477565b5b88811015614f9f576040517f8f66ec1400000000000000000000000000000000000000000000000000000000815260040160405180910390fd5b808a8097508198505050505b505b50505097509795505050505050565b5f6040518260388201526f5af43d82803e903d91602b57fd5bf3ff6024820152846014820152733d602d80600a3d3981f3363d3d373d3d3d363d7381528360588201526037600c8201206078820152605560438201209150509392505050565b5f815f01602081019061502f9190616c4d565b90505f8260200160208101906150459190616c4d565b90505f615078838386604001602081019061506091906173bb565b8760600160208101906150739190616c4d565b611cfa565b90506150a73382878473ffffffffffffffffffffffffffffffffffffffff16614243909392919063ffffffff16565b5f6150b284846115da565b5090505f808373ffffffffffffffffffffffffffffffffffffffff166389afcb44306040518263ffffffff1660e01b81526004016150f09190616685565b60408051808303815f875af115801561510b573d5f803e3d5ffd5b505050506040513d601f19601f8201168201806040525081019061512f919061737d565b915091505f808473ffffffffffffffffffffffffffffffffffffffff168873ffffffffffffffffffffffffffffffffffffffff161461516f578284615172565b83835b915091508860c001358210156151b4576040517f8f66ec1400000000000000000000000000000000000000000000000000000000815260040160405180910390fd5b8860e001358110156151f2576040517f34c9062400000000000000000000000000000000000000000000000000000000815260040160405180910390fd5b50505050505050505050565b5f61520984836116f2565b905082816001835161521b9190617309565b8151811061522c5761522b61733c565b5b6020026020010151101561526c576040517f42301c2300000000000000000000000000000000000000000000000000000000815260040160405180910390fd5b5f6152f0835f815181106152835761528261733c565b5b60200260200101515f0151845f815181106152a1576152a061733c565b5b602002602001015160200151855f815181106152c0576152bf61733c565b5b602002602001015160400151865f815181106152df576152de61733c565b5b602002602001015160600151611cfa565b90506152fd8682876156fb565b6153088284306149a0565b505050505050565b5f6153196141d2565b90505f73eeeeeeeeeeeeeeeeeeeeeeeeeeeeeeeeeeeeeeee73ffffffffffffffffffffffffffffffffffffffff168373ffffffffffffffffffffffffffffffffffffffff160361549b577f000000000000000000000000000000000000000000000000000000000000000073ffffffffffffffffffffffffffffffffffffffff166370a08231306040518263ffffffff1660e01b81526004016153bc9190616685565b602060405180830381865afa1580156153d7573d5f803e3d5ffd5b505050506040513d601f19601f820116820180604052508101906153fb91906173e6565b90505f811115615496577f000000000000000000000000000000000000000000000000000000000000000073ffffffffffffffffffffffffffffffffffffffff16632e1a7d4d826040518263ffffffff1660e01b815260040161545e91906171a3565b5f604051808303815f87803b158015615475575f80fd5b505af1158015615487573d5f803e3d5ffd5b5050505061549582826148ae565b5b61554a565b8273ffffffffffffffffffffffffffffffffffffffff166370a08231306040518263ffffffff1660e01b81526004016154d49190616685565b602060405180830381865afa1580156154ef573d5f803e3d5ffd5b505050506040513d601f19601f8201168201806040525081019061551391906173e6565b90505f8111156155495761554882828573ffffffffffffffffffffffffffffffffffffffff16615e0e9092919063ffffffff16565b5b5b505050565b5f80820361555f575f9050615640565b5f600161556b84615e8d565b901c6001901b9050600181848161558557615584617710565b5b048201901c9050600181848161559e5761559d617710565b5b048201901c905060018184816155b7576155b6617710565b5b048201901c905060018184816155d0576155cf617710565b5b048201901c905060018184816155e9576155e8617710565b5b048201901c9050600181848161560257615601617710565b5b048201901c9050600181848161561b5761561a617710565b5b048201901c905061563c8182858161563657615635617710565b5b046156e3565b9150505b919050565b5f80840361567f576040517f5945ea5600000000000000000000000000000000000000000000000000000000815260040160405180910390fd5b5f83148061568c57505f82145b156156c3576040517fbb55fd2700000000000000000000000000000000000000000000000000000000815260040160405180910390fd5b8282856156d091906176cf565b6156da919061773d565b90509392505050565b5f8183106156f157816156f3565b825b905092915050565b5f8373ffffffffffffffffffffffffffffffffffffffff163b1161571d575f80fd5b5f808473ffffffffffffffffffffffffffffffffffffffff1663a9059cbb60e01b8585604051602401615751929190617411565b604051602081830303815290604052907bffffffffffffffffffffffffffffffffffffffffffffffffffffffff19166020820180517bffffffffffffffffffffffffffffffffffffffffffffffffffffffff83818316178352505050506040516157bb9190617b29565b5f604051808303815f865af19150503d805f81146157f4576040519150601f19603f3d011682016040523d82523d5f602084013e6157f9565b606091505b509150915081801561582657505f81511480615825575080806020019051810190615824919061744c565b5b5b61582e575f80fd5b5050505050565b5f855f0160208101906158489190616c4d565b90505f86602001602081019061585e9190616c4d565b90505f87604001602081019061587491906173bb565b90505f88606001602081019061588a9190616c4d565b90505f61589985858585611cfa565b90505f808273ffffffffffffffffffffffffffffffffffffffff16630902f1ac6040518163ffffffff1660e01b8152600401606060405180830381865afa1580156158e6573d5f803e3d5ffd5b505050506040513d601f19601f8201168201806040525081019061590a919061764a565b50915091506103e88211158061592257506103e88111155b15615959576040517f9c8787c000000000000000000000000000000000000000000000000000000000815260040160405180910390fd5b50508473ffffffffffffffffffffffffffffffffffffffff168d73ffffffffffffffffffffffffffffffffffffffff1614615a92578473ffffffffffffffffffffffffffffffffffffffff16898960018c8c90506159b79190617309565b8181106159c7576159c661733c565b5b90506080020160200160208101906159df9190616c4d565b73ffffffffffffffffffffffffffffffffffffffff1614615a2c576040517f4ea0e33800000000000000000000000000000000000000000000000000000000815260040160405180910390fd5b615a918d8d8c608001358c8c808060200260200160405190810160405280939291908181526020015f905b82821015615a8757848483905060800201803603810190615a7891906172b1565b81526020019060010190615a57565b50505050506151fe565b5b8373ffffffffffffffffffffffffffffffffffffffff168d73ffffffffffffffffffffffffffffffffffffffff1614615bc9578373ffffffffffffffffffffffffffffffffffffffff16878760018a8a9050615aee9190617309565b818110615afe57615afd61733c565b5b9050608002016020016020810190615b169190616c4d565b73ffffffffffffffffffffffffffffffffffffffff1614615b63576040517fcac9040c00000000000000000000000000000000000000000000000000000000815260040160405180910390fd5b615bc88d8c8c60a001358a8a808060200260200160405190810160405280939291908181526020015f905b82821015615bbe57848483905060800201803603810190615baf91906172b1565b81526020019060010190615b8e565b50505050506151fe565b5b50505050505050505050505050565b5f815f016020810190615beb9190616c4d565b90505f826020016020810190615c019190616c4d565b90505f836040016020810190615c1791906173bb565b90505f846060016020810190615c2d9190616c4d565b90505f615c3c85858585611cfa565b90505f80615d46878787878b73ffffffffffffffffffffffffffffffffffffffff166370a08231306040518263ffffffff1660e01b8152600401615c809190616685565b602060405180830381865afa158015615c9b573d5f803e3d5ffd5b505050506040513d601f19601f82011682018060405250810190615cbf91906173e6565b8b73ffffffffffffffffffffffffffffffffffffffff166370a08231306040518263ffffffff1660e01b8152600401615cf89190616685565b602060405180830381865afa158015615d13573d5f803e3d5ffd5b505050506040513d601f19601f82011682018060405250810190615d3791906173e6565b8e60c001358f60e00135615f64565b91509150615d558784846156fb565b615d608684836156fb565b5050505050505050565b5f6014905090565b5f33905090565b5f615da3828473ffffffffffffffffffffffffffffffffffffffff166160e290919063ffffffff16565b90505f815114158015615dc7575080806020019051810190615dc5919061744c565b155b15615e0957826040517f5274afe7000000000000000000000000000000000000000000000000000000008152600401615e009190616685565b60405180910390fd5b505050565b615e88838473ffffffffffffffffffffffffffffffffffffffff1663a9059cbb8585604051602401615e41929190617411565b604051602081830303815290604052915060e01b6020820180517bffffffffffffffffffffffffffffffffffffffffffffffffffffffff8381831617835250505050615d79565b505050565b5f805f90505f608084901c1115615eac57608083901c92506080810190505b5f604084901c1115615ec657604083901c92506040810190505b5f602084901c1115615ee057602083901c92506020810190505b5f601084901c1115615efa57601083901c92506010810190505b5f600884901c1115615f1457600883901c92506008810190505b5f600484901c1115615f2e57600483901c92506004810190505b5f600284901c1115615f4857600283901c92506002810190505b5f600184901c1115615f5b576001810190505b80915050919050565b5f8083861015615fa0576040517fdc6b2ef200000000000000000000000000000000000000000000000000000000815260040160405180910390fd5b82851015615fda576040517facee051300000000000000000000000000000000000000000000000000000000815260040160405180910390fd5b5f80615fe88c8c8c8c6121ef565b915091505f82148015615ffa57505f81145b1561600e57878780945081955050506160d3565b5f61601a898484615645565b905087811161606c578581101561605d576040517f34c9062400000000000000000000000000000000000000000000000000000000815260040160405180910390fd5b888180955081965050506160d1565b5f616078898486615645565b90508981111561608b5761608a617477565b5b878110156160c5576040517f8f66ec1400000000000000000000000000000000000000000000000000000000815260040160405180910390fd5b80898096508197505050505b505b50509850989650505050505050565b60606160ef83835f6160f7565b905092915050565b60608147101561613e57306040517fcd7860590000000000000000000000000000000000000000000000000000000081526004016161359190616685565b60405180910390fd5b5f808573ffffffffffffffffffffffffffffffffffffffff1684866040516161669190617b29565b5f6040518083038185875af1925050503d805f81146161a0576040519150601f19603f3d011682016040523d82523d5f602084013e6161a5565b606091505b50915091506161b58683836161c0565b925050509392505050565b6060826161d5576161d08261624d565b616245565b5f82511480156161fb57505f8473ffffffffffffffffffffffffffffffffffffffff163b145b1561623d57836040517f9996b3150000000000000000000000000000000000000000000000000000000081526004016162349190616685565b60405180910390fd5b819050616246565b5b9392505050565b5f8151111561625f5780518082602001fd5b6040517f1425ea4200000000000000000000000000000000000000000000000000000000815260040160405180910390fd5b5f604051905090565b5f80fd5b5f80fd5b5f73ffffffffffffffffffffffffffffffffffffffff82169050919050565b5f6162cb826162a2565b9050919050565b6162db816162c1565b81146162e5575f80fd5b50565b5f813590506162f6816162d2565b92915050565b5f8115159050919050565b616310816162fc565b811461631a575f80fd5b50565b5f8135905061632b81616307565b92915050565b5f819050919050565b61634381616331565b811461634d575f80fd5b50565b5f8135905061635e8161633a565b92915050565b5f80fd5b5f80fd5b5f80fd5b5f8083601f84011261638557616384616364565b5b8235905067ffffffffffffffff8111156163a2576163a1616368565b5b6020830191508360808202830111156163be576163bd61636c565b5b9250929050565b5f805f805f805f805f806101008b8d0312156163e4576163e361629a565b5b5f6163f18d828e016162e8565b9a505060206164028d828e016162e8565b99505060406164138d828e0161631d565b98505060606164248d828e016162e8565b97505060806164358d828e01616350565b96505060a06164468d828e01616350565b95505060c08b013567ffffffffffffffff8111156164675761646661629e565b5b6164738d828e01616370565b945094505060e08b013567ffffffffffffffff8111156164965761649561629e565b5b6164a28d828e01616370565b92509250509295989b9194979a5092959850565b6164bf81616331565b82525050565b5f6080820190506164d85f8301876164b6565b6164e560208301866164b6565b6164f260408301856164b6565b6164ff60608301846164b6565b95945050505050565b5f805f805f805f80610100898b0312156165255761652461629a565b5b5f6165328b828c016162e8565b98505060206165438b828c016162e8565b97505060406165548b828c0161631d565b96505060606165658b828c01616350565b95505060806165768b828c01616350565b94505060a06165878b828c01616350565b93505060c06165988b828c016162e8565b92505060e06165a98b828c01616350565b9150509295985092959890939650565b5f6040820190506165cc5f8301856164b6565b6165d960208301846164b6565b9392505050565b5f805f805f8060a087890312156165fa576165f961629a565b5b5f61660789828a01616350565b965050602061661889828a01616350565b955050604087013567ffffffffffffffff8111156166395761663861629e565b5b61664589828a01616370565b9450945050606061665889828a016162e8565b925050608061666989828a01616350565b9150509295509295509295565b61667f816162c1565b82525050565b5f6020820190506166985f830184616676565b92915050565b5f805f805f608086880312156166b7576166b661629a565b5b5f6166c488828901616350565b955050602086013567ffffffffffffffff8111156166e5576166e461629e565b5b6166f188828901616370565b94509450506040616704888289016162e8565b925050606061671588828901616350565b9150509295509295909350565b5f819050919050565b5f61674561674061673b846162a2565b616722565b6162a2565b9050919050565b5f6167568261672b565b9050919050565b5f6167678261674c565b9050919050565b6167778161675d565b82525050565b5f6020820190506167905f83018461676e565b92915050565b5f601f19601f8301169050919050565b7f4e487b71000000000000000000000000000000000000000000000000000000005f52604160045260245ffd5b6167dc82616796565b810181811067ffffffffffffffff821117156167fb576167fa6167a6565b5b80604052505050565b5f61680d616291565b905061681982826167d3565b919050565b5f67ffffffffffffffff821115616838576168376167a6565b5b602082029050602081019050919050565b5f61685b6168568461681e565b616804565b9050808382526020820190506020840283018581111561687e5761687d61636c565b5b835b818110156168a757806168938882616350565b845260208401935050602081019050616880565b5050509392505050565b5f82601f8301126168c5576168c4616364565b5b81356168d5848260208601616849565b91505092915050565b5f805f805f608086880312156168f7576168f661629a565b5b5f86013567ffffffffffffffff8111156169145761691361629e565b5b616920888289016168b1565b955050602086013567ffffffffffffffff8111156169415761694061629e565b5b61694d88828901616370565b94509450506040616960888289016162e8565b925050606061697188828901616350565b9150509295509295909350565b5f81519050919050565b5f82825260208201905092915050565b5f819050602082019050919050565b6169b081616331565b82525050565b5f6169c183836169a7565b60208301905092915050565b5f602082019050919050565b5f6169e38261697e565b6169ed8185616988565b93506169f883616998565b805f5b83811015616a28578151616a0f88826169b6565b9750616a1a836169cd565b9250506001810190506169fb565b5085935050505092915050565b5f6020820190508181035f830152616a4d81846169d9565b905092915050565b5f8060408385031215616a6b57616a6a61629a565b5b5f616a78858286016162e8565b9250506020616a89858286016162e8565b9150509250929050565b5f604082019050616aa65f830185616676565b616ab36020830184616676565b9392505050565b5f67ffffffffffffffff821115616ad457616ad36167a6565b5b602082029050602081019050919050565b5f80fd5b5f60808284031215616afe57616afd616ae5565b5b616b086080616804565b90505f616b17848285016162e8565b5f830152506020616b2a848285016162e8565b6020830152506040616b3e8482850161631d565b6040830152506060616b52848285016162e8565b60608301525092915050565b5f616b70616b6b84616aba565b616804565b90508083825260208201905060808402830185811115616b9357616b9261636c565b5b835b81811015616bbc5780616ba88882616ae9565b845260208401935050608081019050616b95565b5050509392505050565b5f82601f830112616bda57616bd9616364565b5b8135616bea848260208601616b5e565b91505092915050565b5f8060408385031215616c0957616c0861629a565b5b5f616c1685828601616350565b925050602083013567ffffffffffffffff811115616c3757616c3661629e565b5b616c4385828601616bc6565b9150509250929050565b5f60208284031215616c6257616c6161629a565b5b5f616c6f848285016162e8565b91505092915050565b616c81816162fc565b82525050565b5f602082019050616c9a5f830184616c78565b92915050565b5f805f805f805f805f6101208a8c031215616cbe57616cbd61629a565b5b5f616ccb8c828d016162e8565b9950506020616cdc8c828d016162e8565b9850506040616ced8c828d0161631d565b9750506060616cfe8c828d01616350565b9650506080616d0f8c828d01616350565b95505060a0616d208c828d01616350565b94505060c0616d318c828d01616350565b93505060e0616d428c828d016162e8565b925050610100616d548c828d01616350565b9150509295985092959850929598565b5f606082019050616d775f8301866164b6565b616d8460208301856164b6565b616d9160408301846164b6565b949350505050565b5f805f805f805f805f60e08a8c031215616db657616db561629a565b5b5f616dc38c828d016162e8565b9950506020616dd48c828d016162e8565b9850506040616de58c828d0161631d565b9750506060616df68c828d016162e8565b9650506080616e078c828d01616350565b95505060a08a013567ffffffffffffffff811115616e2857616e2761629e565b5b616e348c828d01616370565b945094505060c08a013567ffffffffffffffff811115616e5757616e5661629e565b5b616e638c828d01616370565b92509250509295985092959850929598565b5f805f8060808587031215616e8d57616e8c61629a565b5b5f616e9a878288016162e8565b9450506020616eab878288016162e8565b9350506040616ebc8782880161631d565b9250506060616ecd878288016162e8565b91505092959194509250565b5f80fd5b5f6101008284031215616ef357616ef2616ed9565b5b81905092915050565b5f805f805f805f610180888a031215616f1857616f1761629a565b5b5f616f258a828b016162e8565b9750506020616f368a828b01616350565b9650506040616f478a828b01616edd565b95505061014088013567ffffffffffffffff811115616f6957616f6861629e565b5b616f758a828b01616370565b945094505061016088013567ffffffffffffffff811115616f9957616f9861629e565b5b616fa58a828b01616370565b925092505092959891949750929550565b5f805f805f805f60e0888a031215616fd157616fd061629a565b5b5f616fde8a828b016162e8565b9750506020616fef8a828b0161631d565b96505060406170008a828b01616350565b95505060606170118a828b01616350565b94505060806170228a828b01616350565b93505060a06170338a828b016162e8565b92505060c06170448a828b01616350565b91505092959891949750929550565b5f805f805f60a0868803121561706c5761706b61629a565b5b5f617079888289016162e8565b955050602061708a888289016162e8565b945050604061709b8882890161631d565b93505060606170ac888289016162e8565b92505060806170bd88828901616350565b9150509295509295909350565b5f805f805f8060c087890312156170e4576170e361629a565b5b5f6170f189828a016162e8565b965050602061710289828a016162e8565b955050604061711389828a0161631d565b945050606061712489828a016162e8565b935050608061713589828a01616350565b92505060a061714689828a01616350565b9150509295509295509295565b5f805f6060848603121561716a5761716961629a565b5b5f617177868287016162e8565b9350506020617188868287016162e8565b9250506040617199868287016162e8565b9150509250925092565b5f6020820190506171b65f8301846164b6565b92915050565b5f805f805f805f805f806101e08b8d0312156171db576171da61629a565b5b5f6171e88d828e016162e8565b9a505060206171f98d828e01616350565b995050604061720a8d828e01616350565b985050606061721b8d828e01616edd565b9750506101608b013567ffffffffffffffff81111561723d5761723c61629e565b5b6172498d828e01616370565b96509650506101808b013567ffffffffffffffff81111561726d5761726c61629e565b5b6172798d828e01616370565b94509450506101a061728d8d828e016162e8565b9250506101c061729f8d828e0161631d565b9150509295989b9194979a5092959850565b5f608082840312156172c6576172c561629a565b5b5f6172d384828501616ae9565b91505092915050565b7f4e487b71000000000000000000000000000000000000000000000000000000005f52601160045260245ffd5b5f61731382616331565b915061731e83616331565b9250828203905081811115617336576173356172dc565b5b92915050565b7f4e487b71000000000000000000000000000000000000000000000000000000005f52603260045260245ffd5b5f815190506173778161633a565b92915050565b5f80604083850312156173935761739261629a565b5b5f6173a085828601617369565b92505060206173b185828601617369565b9150509250929050565b5f602082840312156173d0576173cf61629a565b5b5f6173dd8482850161631d565b91505092915050565b5f602082840312156173fb576173fa61629a565b5b5f61740884828501617369565b91505092915050565b5f6040820190506174245f830185616676565b61743160208301846164b6565b9392505050565b5f8151905061744681616307565b92915050565b5f602082840312156174615761746061629a565b5b5f61746e84828501617438565b91505092915050565b7f4e487b71000000000000000000000000000000000000000000000000000000005f52600160045260245ffd5b5f6174ae82616331565b91506174b983616331565b92508282019050808211156174d1576174d06172dc565b5b92915050565b5f6040820190506174ea5f8301856164b6565b6174f76020830184616676565b9392505050565b5f61750882616331565b91507fffffffffffffffffffffffffffffffffffffffffffffffffffffffffffffffff820361753a576175396172dc565b5b600182019050919050565b5f8160601b9050919050565b5f61755b82617545565b9050919050565b5f61756c82617551565b9050919050565b61758461757f826162c1565b617562565b82525050565b5f8160f81b9050919050565b5f6175a08261758a565b9050919050565b5f6175b182617596565b9050919050565b6175c96175c4826162fc565b6175a7565b82525050565b5f6175da8286617573565b6014820191506175ea8285617573565b6014820191506175fa82846175b8565b600182019150819050949350505050565b5f81519050617619816162d2565b92915050565b5f602082840312156176345761763361629a565b5b5f6176418482850161760b565b91505092915050565b5f805f606084860312156176615761766061629a565b5b5f61766e86828701617369565b935050602061767f86828701617369565b925050604061769086828701617369565b9150509250925092565b5f6060820190506176ad5f830186616676565b6176ba6020830185616676565b6176c76040830184616c78565b949350505050565b5f6176d982616331565b91506176e483616331565b92508282026176f281616331565b91508282048414831517617709576177086172dc565b5b5092915050565b7f4e487b71000000000000000000000000000000000000000000000000000000005f52601260045260245ffd5b5f61774782616331565b915061775283616331565b92508261776257617761617710565b5b828204905092915050565b5f60ff82169050919050565b6177828161776d565b811461778c575f80fd5b50565b5f8151905061779d81617779565b92915050565b5f602082840312156177b8576177b761629a565b5b5f6177c58482850161778f565b91505092915050565b5f8160011c9050919050565b5f808291508390505b6001851115617823578086048111156177ff576177fe6172dc565b5b600185161561780e5780820291505b808102905061781c856177ce565b94506177e3565b94509492505050565b5f8261783b57600190506178f6565b81617848575f90506178f6565b816001811461785e576002811461786857617897565b60019150506178f6565b60ff84111561787a576178796172dc565b5b8360020a915084821115617891576178906172dc565b5b506178f6565b5060208310610133831016604e8410600b84101617156178cc5782820a9050838111156178c7576178c66172dc565b5b6178f6565b6178d984848460016177da565b925090508184048111156178f0576178ef6172dc565b5b81810290505b9392505050565b5f61790782616331565b91506179128361776d565b925061793f7fffffffffffffffffffffffffffffffffffffffffffffffffffffffffffffffff848461782c565b905092915050565b5f819050919050565b5f61796a61796561796084617947565b616722565b616331565b9050919050565b61797a81617950565b82525050565b5f6040820190506179935f830185616676565b6179a06020830184617971565b9392505050565b5f80fd5b5f80fd5b5f80858511156179c2576179c16179a7565b5b838611156179d3576179d26179ab565b5b6001850283019150848603905094509492505050565b5f82905092915050565b5f7fffffffffffffffffffffffffffffffffffffffff00000000000000000000000082169050919050565b5f82821b905092915050565b5f617a3583836179e9565b82617a4081356179f3565b92506014821015617a8057617a7b7fffffffffffffffffffffffffffffffffffffffff00000000000000000000000083601403600802617a1e565b831692505b505092915050565b5f606082019050617a9b5f830186616676565b617aa86020830185616676565b617ab560408301846164b6565b949350505050565b5f81519050919050565b5f81905092915050565b5f5b83811015617aee578082015181840152602081019050617ad3565b5f8484015250505050565b5f617b0382617abd565b617b0d8185617ac7565b9350617b1d818560208601617ad1565b80840191505092915050565b5f617b348284617af9565b915081905092915050565b5f82825260208201905092915050565b5f617b5982617abd565b617b638185617b3f565b9350617b73818560208601617ad1565b617b7c81616796565b840191505092915050565b5f608082019050617b9a5f8301876164b6565b617ba760208301866164b6565b617bb46040830185616676565b8181036060830152617bc68184617b4f565b90509594505050505056fea2646970667358221220730560fc07ac3f336d85d32241a19e5241d3360e7baf4f59e5191ffc79e3847264736f6c63430008140033",
			"opcodes": "PUSH2 0x120 PUSH1 0x40 MSTORE CALLVALUE DUP1 ISZERO PUSH3 0x11 JUMPI PUSH0 DUP1 REVERT JUMPDEST POP PUSH1 0x40 MLOAD PUSH3 0x7F6C CODESIZE SUB DUP1 PUSH3 0x7F6C DUP4 CODECOPY DUP2 DUP2 ADD PUSH1 0x40 MSTORE DUP2 ADD SWAP1 PUSH3 0x37 SWAP2 SWAP1 PUSH3 0x1AE JUMP JUMPDEST DUP5 DUP1 PUSH20 0xFFFFFFFFFFFFFFFFFFFFFFFFFFFFFFFFFFFFFFFF AND PUSH1 0x80 DUP2 PUSH20 0xFFFFFFFFFFFFFFFFFFFFFFFFFFFFFFFFFFFFFFFF AND DUP2 MSTORE POP POP POP DUP4 PUSH20 0xFFFFFFFFFFFFFFFFFFFFFFFFFFFFFFFFFFFFFFFF AND PUSH1 0xA0 DUP2 PUSH20 0xFFFFFFFFFFFFFFFFFFFFFFFFFFFFFFFFFFFFFFFF AND DUP2 MSTORE POP POP DUP3 PUSH20 0xFFFFFFFFFFFFFFFFFFFFFFFFFFFFFFFFFFFFFFFF AND PUSH1 0xC0 DUP2 PUSH20 0xFFFFFFFFFFFFFFFFFFFFFFFFFFFFFFFFFFFFFFFF AND DUP2 MSTORE POP POP DUP2 PUSH20 0xFFFFFFFFFFFFFFFFFFFFFFFFFFFFFFFFFFFFFFFF AND PUSH1 0xE0 DUP2 PUSH20 0xFFFFFFFFFFFFFFFFFFFFFFFFFFFFFFFFFFFFFFFF AND DUP2 MSTORE POP POP DUP1 PUSH20 0xFFFFFFFFFFFFFFFFFFFFFFFFFFFFFFFFFFFFFFFF AND PUSH2 0x100 DUP2 PUSH20 0xFFFFFFFFFFFFFFFFFFFFFFFFFFFFFFFFFFFFFFFF AND DUP2 MSTORE POP POP POP POP POP POP POP PUSH3 0x232 JUMP JUMPDEST PUSH0 DUP1 REVERT JUMPDEST PUSH0 PUSH20 0xFFFFFFFFFFFFFFFFFFFFFFFFFFFFFFFFFFFFFFFF DUP3 AND SWAP1 POP SWAP2 SWAP1 POP JUMP JUMPDEST PUSH0 PUSH3 0x178 DUP3 PUSH3 0x14D JUMP JUMPDEST SWAP1 POP SWAP2 SWAP1 POP JUMP JUMPDEST PUSH3 0x18A DUP2 PUSH3 0x16C JUMP JUMPDEST DUP2 EQ PUSH3 0x195 JUMPI PUSH0 DUP1 REVERT JUMPDEST POP JUMP JUMPDEST PUSH0 DUP2 MLOAD SWAP1 POP PUSH3 0x1A8 DUP2 PUSH3 0x17F JUMP JUMPDEST SWAP3 SWAP2 POP POP JUMP JUMPDEST PUSH0 DUP1 PUSH0 DUP1 PUSH0 PUSH1 0xA0 DUP7 DUP9 SUB SLT ISZERO PUSH3 0x1CA JUMPI PUSH3 0x1C9 PUSH3 0x149 JUMP JUMPDEST JUMPDEST PUSH0 PUSH3 0x1D9 DUP9 DUP3 DUP10 ADD PUSH3 0x198 JUMP JUMPDEST SWAP6 POP POP PUSH1 0x20 PUSH3 0x1EC DUP9 DUP3 DUP10 ADD PUSH3 0x198 JUMP JUMPDEST SWAP5 POP POP PUSH1 0x40 PUSH3 0x1FF DUP9 DUP3 DUP10 ADD PUSH3 0x198 JUMP JUMPDEST SWAP4 POP POP PUSH1 0x60 PUSH3 0x212 DUP9 DUP3 DUP10 ADD PUSH3 0x198 JUMP JUMPDEST SWAP3 POP POP PUSH1 0x80 PUSH3 0x225 DUP9 DUP3 DUP10 ADD PUSH3 0x198 JUMP JUMPDEST SWAP2 POP POP SWAP3 SWAP6 POP SWAP3 SWAP6 SWAP1 SWAP4 POP JUMP JUMPDEST PUSH1 0x80 MLOAD PUSH1 0xA0 MLOAD PUSH1 0xC0 MLOAD PUSH1 0xE0 MLOAD PUSH2 0x100 MLOAD PUSH2 0x7C07 PUSH3 0x365 PUSH0 CODECOPY PUSH0 DUP2 DUP2 PUSH2 0x1D7 ADD MSTORE DUP2 DUP2 PUSH2 0xBC2 ADD MSTORE DUP2 DUP2 PUSH2 0xDCE ADD MSTORE DUP2 DUP2 PUSH2 0xEA2 ADD MSTORE DUP2 DUP2 PUSH2 0xF6A ADD MSTORE DUP2 DUP2 PUSH2 0x101C ADD MSTORE DUP2 DUP2 PUSH2 0x1099 ADD MSTORE DUP2 DUP2 PUSH2 0x13FB ADD MSTORE DUP2 DUP2 PUSH2 0x22DD ADD MSTORE DUP2 DUP2 PUSH2 0x244D ADD MSTORE DUP2 DUP2 PUSH2 0x24E4 ADD MSTORE DUP2 DUP2 PUSH2 0x273B ADD MSTORE DUP2 DUP2 PUSH2 0x2AF3 ADD MSTORE DUP2 DUP2 PUSH2 0x2B2B ADD MSTORE DUP2 DUP2 PUSH2 0x2B88 ADD MSTORE DUP2 DUP2 PUSH2 0x2C05 ADD MSTORE DUP2 DUP2 PUSH2 0x2D68 ADD MSTORE DUP2 DUP2 PUSH2 0x3050 ADD MSTORE DUP2 DUP2 PUSH2 0x3778 ADD MSTORE DUP2 DUP2 PUSH2 0x37B7 ADD MSTORE DUP2 DUP2 PUSH2 0x3B89 ADD MSTORE DUP2 DUP2 PUSH2 0x3BAC ADD MSTORE DUP2 DUP2 PUSH2 0x4047 ADD MSTORE DUP2 DUP2 PUSH2 0x40FB ADD MSTORE DUP2 DUP2 PUSH2 0x5365 ADD MSTORE PUSH2 0x5407 ADD MSTORE PUSH0 DUP2 DUP2 PUSH2 0x15B8 ADD MSTORE PUSH2 0x3D6C ADD MSTORE PUSH0 DUP2 DUP2 PUSH2 0xA05 ADD MSTORE DUP2 DUP2 PUSH2 0x182F ADD MSTORE DUP2 DUP2 PUSH2 0x1A9B ADD MSTORE DUP2 DUP2 PUSH2 0x1CFE ADD MSTORE DUP2 DUP2 PUSH2 0x2B4D ADD MSTORE DUP2 DUP2 PUSH2 0x3744 ADD MSTORE DUP2 DUP2 PUSH2 0x4D25 ADD MSTORE DUP2 DUP2 PUSH2 0x4DF6 ADD MSTORE PUSH2 0x4E9E ADD MSTORE PUSH0 DUP2 DUP2 PUSH2 0xF3C ADD MSTORE PUSH2 0x1D5F ADD MSTORE PUSH0 PUSH2 0x1CD6 ADD MSTORE PUSH2 0x7C07 PUSH0 RETURN INVALID PUSH1 0x80 PUSH1 0x40 MSTORE PUSH1 0x4 CALLDATASIZE LT PUSH2 0x1D0 JUMPI PUSH0 CALLDATALOAD PUSH1 0xE0 SHR DUP1 PUSH4 0x874029D9 GT PUSH2 0xF6 JUMPI DUP1 PUSH4 0xC92DE3EC GT PUSH2 0x94 JUMPI DUP1 PUSH4 0xD7B0E0A5 GT PUSH2 0x63 JUMPI DUP1 PUSH4 0xD7B0E0A5 EQ PUSH2 0x7A8 JUMPI DUP1 PUSH4 0xF5BA53C7 EQ PUSH2 0x7E5 JUMPI DUP1 PUSH4 0xFB49BAFD EQ PUSH2 0x821 JUMPI DUP1 PUSH4 0xFE411F14 EQ PUSH2 0x851 JUMPI PUSH2 0x25C JUMP JUMPDEST DUP1 PUSH4 0xC92DE3EC EQ PUSH2 0x6C7 JUMPI DUP1 PUSH4 0xCAC88EA9 EQ PUSH2 0x704 JUMPI DUP1 PUSH4 0xCE700C29 EQ PUSH2 0x740 JUMPI DUP1 PUSH4 0xD4B6846D EQ PUSH2 0x77E JUMPI PUSH2 0x25C JUMP JUMPDEST DUP1 PUSH4 0x903638A4 GT PUSH2 0xD0 JUMPI DUP1 PUSH4 0x903638A4 EQ PUSH2 0x601 JUMPI DUP1 PUSH4 0xA81B9159 EQ PUSH2 0x631 JUMPI DUP1 PUSH4 0xB7E0D4C0 EQ PUSH2 0x659 JUMPI DUP1 PUSH4 0xC6B7F1B6 EQ PUSH2 0x68B JUMPI PUSH2 0x25C JUMP JUMPDEST DUP1 PUSH4 0x874029D9 EQ PUSH2 0x560 JUMPI DUP1 PUSH4 0x88CD821E EQ PUSH2 0x59C JUMPI DUP1 PUSH4 0x8C0037DC EQ PUSH2 0x5C4 JUMPI PUSH2 0x25C JUMP JUMPDEST DUP1 PUSH4 0x42CB1FBC GT PUSH2 0x16E JUMPI DUP1 PUSH4 0x572B6C05 GT PUSH2 0x13D JUMPI DUP1 PUSH4 0x572B6C05 EQ PUSH2 0x47D JUMPI DUP1 PUSH4 0x5A47DDC3 EQ PUSH2 0x4B9 JUMPI DUP1 PUSH4 0x7539D413 EQ PUSH2 0x4F7 JUMPI DUP1 PUSH4 0x7DA0A877 EQ PUSH2 0x536 JUMPI PUSH2 0x25C JUMP JUMPDEST DUP1 PUSH4 0x42CB1FBC EQ PUSH2 0x3B0 JUMPI DUP1 PUSH4 0x46C96AAC EQ PUSH2 0x3DA JUMPI DUP1 PUSH4 0x544CAA56 EQ PUSH2 0x404 JUMPI DUP1 PUSH4 0x5509A1AC EQ PUSH2 0x441 JUMPI PUSH2 0x25C JUMP JUMPDEST DUP1 PUSH4 0x3BF0C9FB GT PUSH2 0x1AA JUMPI DUP1 PUSH4 0x3BF0C9FB EQ PUSH2 0x304 JUMPI DUP1 PUSH4 0x3DA5ACBA EQ PUSH2 0x32E JUMPI DUP1 PUSH4 0x3FC8CEF3 EQ PUSH2 0x34A JUMPI DUP1 PUSH4 0x4111D597 EQ PUSH2 0x374 JUMPI PUSH2 0x25C JUMP JUMPDEST DUP1 PUSH4 0x7DB50FA EQ PUSH2 0x260 JUMPI DUP1 PUSH4 0xDEDE6C4 EQ PUSH2 0x29F JUMPI DUP1 PUSH4 0x12BC3ACA EQ PUSH2 0x2DC JUMPI PUSH2 0x25C JUMP JUMPDEST CALLDATASIZE PUSH2 0x25C JUMPI PUSH32 0x0 PUSH20 0xFFFFFFFFFFFFFFFFFFFFFFFFFFFFFFFFFFFFFFFF AND CALLER PUSH20 0xFFFFFFFFFFFFFFFFFFFFFFFFFFFFFFFFFFFFFFFF AND EQ PUSH2 0x25A JUMPI PUSH1 0x40 MLOAD PUSH32 0x1F180C900000000000000000000000000000000000000000000000000000000 DUP2 MSTORE PUSH1 0x4 ADD PUSH1 0x40 MLOAD DUP1 SWAP2 SUB SWAP1 REVERT JUMPDEST STOP JUMPDEST PUSH0 DUP1 REVERT JUMPDEST CALLVALUE DUP1 ISZERO PUSH2 0x26B JUMPI PUSH0 DUP1 REVERT JUMPDEST POP PUSH2 0x286 PUSH1 0x4 DUP1 CALLDATASIZE SUB DUP2 ADD SWAP1 PUSH2 0x281 SWAP2 SWAP1 PUSH2 0x63C5 JUMP JUMPDEST PUSH2 0x88D JUMP JUMPDEST PUSH1 0x40 MLOAD PUSH2 0x296 SWAP5 SWAP4 SWAP3 SWAP2 SWAP1 PUSH2 0x64C5 JUMP JUMPDEST PUSH1 0x40 MLOAD DUP1 SWAP2 SUB SWAP1 RETURN JUMPDEST CALLVALUE DUP1 ISZERO PUSH2 0x2AA JUMPI PUSH0 DUP1 REVERT JUMPDEST POP PUSH2 0x2C5 PUSH1 0x4 DUP1 CALLDATASIZE SUB DUP2 ADD SWAP1 PUSH2 0x2C0 SWAP2 SWAP1 PUSH2 0x6508 JUMP JUMPDEST PUSH2 0x9F0 JUMP JUMPDEST PUSH1 0x40 MLOAD PUSH2 0x2D3 SWAP3 SWAP2 SWAP1 PUSH2 0x65B9 JUMP JUMPDEST PUSH1 0x40 MLOAD DUP1 SWAP2 SUB SWAP1 RETURN JUMPDEST CALLVALUE DUP1 ISZERO PUSH2 0x2E7 JUMPI PUSH0 DUP1 REVERT JUMPDEST POP PUSH2 0x302 PUSH1 0x4 DUP1 CALLDATASIZE SUB DUP2 ADD SWAP1 PUSH2 0x2FD SWAP2 SWAP1 PUSH2 0x65E0 JUMP JUMPDEST PUSH2 0xBB6 JUMP JUMPDEST STOP JUMPDEST CALLVALUE DUP1 ISZERO PUSH2 0x30F JUMPI PUSH0 DUP1 REVERT JUMPDEST POP PUSH2 0x318 PUSH2 0xF3A JUMP JUMPDEST PUSH1 0x40 MLOAD PUSH2 0x325 SWAP2 SWAP1 PUSH2 0x6685 JUMP JUMPDEST PUSH1 0x40 MLOAD DUP1 SWAP2 SUB SWAP1 RETURN JUMPDEST PUSH2 0x348 PUSH1 0x4 DUP1 CALLDATASIZE SUB DUP2 ADD SWAP1 PUSH2 0x343 SWAP2 SWAP1 PUSH2 0x669E JUMP JUMPDEST PUSH2 0xF5E JUMP JUMPDEST STOP JUMPDEST CALLVALUE DUP1 ISZERO PUSH2 0x355 JUMPI PUSH0 DUP1 REVERT JUMPDEST POP PUSH2 0x35E PUSH2 0x13F9 JUMP JUMPDEST PUSH1 0x40 MLOAD PUSH2 0x36B SWAP2 SWAP1 PUSH2 0x677D JUMP JUMPDEST PUSH1 0x40 MLOAD DUP1 SWAP2 SUB SWAP1 RETURN JUMPDEST CALLVALUE DUP1 ISZERO PUSH2 0x37F JUMPI PUSH0 DUP1 REVERT JUMPDEST POP PUSH2 0x39A PUSH1 0x4 DUP1 CALLDATASIZE SUB DUP2 ADD SWAP1 PUSH2 0x395 SWAP2 SWAP1 PUSH2 0x68DE JUMP JUMPDEST PUSH2 0x141D JUMP JUMPDEST PUSH1 0x40 MLOAD PUSH2 0x3A7 SWAP2 SWAP1 PUSH2 0x6A35 JUMP JUMPDEST PUSH1 0x40 MLOAD DUP1 SWAP2 SUB SWAP1 RETURN JUMPDEST CALLVALUE DUP1 ISZERO PUSH2 0x3BB JUMPI PUSH0 DUP1 REVERT JUMPDEST POP PUSH2 0x3C4 PUSH2 0x159E JUMP JUMPDEST PUSH1 0x40 MLOAD PUSH2 0x3D1 SWAP2 SWAP1 PUSH2 0x6685 JUMP JUMPDEST PUSH1 0x40 MLOAD DUP1 SWAP2 SUB SWAP1 RETURN JUMPDEST CALLVALUE DUP1 ISZERO PUSH2 0x3E5 JUMPI PUSH0 DUP1 REVERT JUMPDEST POP PUSH2 0x3EE PUSH2 0x15B6 JUMP JUMPDEST PUSH1 0x40 MLOAD PUSH2 0x3FB SWAP2 SWAP1 PUSH2 0x6685 JUMP JUMPDEST PUSH1 0x40 MLOAD DUP1 SWAP2 SUB SWAP1 RETURN JUMPDEST CALLVALUE DUP1 ISZERO PUSH2 0x40F JUMPI PUSH0 DUP1 REVERT JUMPDEST POP PUSH2 0x42A PUSH1 0x4 DUP1 CALLDATASIZE SUB DUP2 ADD SWAP1 PUSH2 0x425 SWAP2 SWAP1 PUSH2 0x6A55 JUMP JUMPDEST PUSH2 0x15DA JUMP JUMPDEST PUSH1 0x40 MLOAD PUSH2 0x438 SWAP3 SWAP2 SWAP1 PUSH2 0x6A93 JUMP JUMPDEST PUSH1 0x40 MLOAD DUP1 SWAP2 SUB SWAP1 RETURN JUMPDEST CALLVALUE DUP1 ISZERO PUSH2 0x44C JUMPI PUSH0 DUP1 REVERT JUMPDEST POP PUSH2 0x467 PUSH1 0x4 DUP1 CALLDATASIZE SUB DUP2 ADD SWAP1 PUSH2 0x462 SWAP2 SWAP1 PUSH2 0x6BF3 JUMP JUMPDEST PUSH2 0x16F2 JUMP JUMPDEST PUSH1 0x40 MLOAD PUSH2 0x474 SWAP2 SWAP1 PUSH2 0x6A35 JUMP JUMPDEST PUSH1 0x40 MLOAD DUP1 SWAP2 SUB SWAP1 RETURN JUMPDEST CALLVALUE DUP1 ISZERO PUSH2 0x488 JUMPI PUSH0 DUP1 REVERT JUMPDEST POP PUSH2 0x4A3 PUSH1 0x4 DUP1 CALLDATASIZE SUB DUP2 ADD SWAP1 PUSH2 0x49E SWAP2 SWAP1 PUSH2 0x6C4D JUMP JUMPDEST PUSH2 0x1A30 JUMP JUMPDEST PUSH1 0x40 MLOAD PUSH2 0x4B0 SWAP2 SWAP1 PUSH2 0x6C87 JUMP JUMPDEST PUSH1 0x40 MLOAD DUP1 SWAP2 SUB SWAP1 RETURN JUMPDEST CALLVALUE DUP1 ISZERO PUSH2 0x4C4 JUMPI PUSH0 DUP1 REVERT JUMPDEST POP PUSH2 0x4DF PUSH1 0x4 DUP1 CALLDATASIZE SUB DUP2 ADD SWAP1 PUSH2 0x4DA SWAP2 SWAP1 PUSH2 0x6CA0 JUMP JUMPDEST PUSH2 0x1A6E JUMP JUMPDEST PUSH1 0x40 MLOAD PUSH2 0x4EE SWAP4 SWAP3 SWAP2 SWAP1 PUSH2 0x6D64 JUMP JUMPDEST PUSH1 0x40 MLOAD DUP1 SWAP2 SUB SWAP1 RETURN JUMPDEST CALLVALUE DUP1 ISZERO PUSH2 0x502 JUMPI PUSH0 DUP1 REVERT JUMPDEST POP PUSH2 0x51D PUSH1 0x4 DUP1 CALLDATASIZE SUB DUP2 ADD SWAP1 PUSH2 0x518 SWAP2 SWAP1 PUSH2 0x6D99 JUMP JUMPDEST PUSH2 0x1B73 JUMP JUMPDEST PUSH1 0x40 MLOAD PUSH2 0x52D SWAP5 SWAP4 SWAP3 SWAP2 SWAP1 PUSH2 0x64C5 JUMP JUMPDEST PUSH1 0x40 MLOAD DUP1 SWAP2 SUB SWAP1 RETURN JUMPDEST CALLVALUE DUP1 ISZERO PUSH2 0x541 JUMPI PUSH0 DUP1 REVERT JUMPDEST POP PUSH2 0x54A PUSH2 0x1CD3 JUMP JUMPDEST PUSH1 0x40 MLOAD PUSH2 0x557 SWAP2 SWAP1 PUSH2 0x6685 JUMP JUMPDEST PUSH1 0x40 MLOAD DUP1 SWAP2 SUB SWAP1 RETURN JUMPDEST CALLVALUE DUP1 ISZERO PUSH2 0x56B JUMPI PUSH0 DUP1 REVERT JUMPDEST POP PUSH2 0x586 PUSH1 0x4 DUP1 CALLDATASIZE SUB DUP2 ADD SWAP1 PUSH2 0x581 SWAP2 SWAP1 PUSH2 0x6E75 JUMP JUMPDEST PUSH2 0x1CFA JUMP JUMPDEST PUSH1 0x40 MLOAD PUSH2 0x593 SWAP2 SWAP1 PUSH2 0x6685 JUMP JUMPDEST PUSH1 0x40 MLOAD DUP1 SWAP2 SUB SWAP1 RETURN JUMPDEST CALLVALUE DUP1 ISZERO PUSH2 0x5A7 JUMPI PUSH0 DUP1 REVERT JUMPDEST POP PUSH2 0x5C2 PUSH1 0x4 DUP1 CALLDATASIZE SUB DUP2 ADD SWAP1 PUSH2 0x5BD SWAP2 SWAP1 PUSH2 0x65E0 JUMP JUMPDEST PUSH2 0x1EEF JUMP JUMPDEST STOP JUMPDEST CALLVALUE DUP1 ISZERO PUSH2 0x5CF JUMPI PUSH0 DUP1 REVERT JUMPDEST POP PUSH2 0x5EA PUSH1 0x4 DUP1 CALLDATASIZE SUB DUP2 ADD SWAP1 PUSH2 0x5E5 SWAP2 SWAP1 PUSH2 0x6E75 JUMP JUMPDEST PUSH2 0x21EF JUMP JUMPDEST PUSH1 0x40 MLOAD PUSH2 0x5F8 SWAP3 SWAP2 SWAP1 PUSH2 0x65B9 JUMP JUMPDEST PUSH1 0x40 MLOAD DUP1 SWAP2 SUB SWAP1 RETURN JUMPDEST PUSH2 0x61B PUSH1 0x4 DUP1 CALLDATASIZE SUB DUP2 ADD SWAP1 PUSH2 0x616 SWAP2 SWAP1 PUSH2 0x669E JUMP JUMPDEST PUSH2 0x22CF JUMP JUMPDEST PUSH1 0x40 MLOAD PUSH2 0x628 SWAP2 SWAP1 PUSH2 0x6A35 JUMP JUMPDEST PUSH1 0x40 MLOAD DUP1 SWAP2 SUB SWAP1 RETURN JUMPDEST CALLVALUE DUP1 ISZERO PUSH2 0x63C JUMPI PUSH0 DUP1 REVERT JUMPDEST POP PUSH2 0x657 PUSH1 0x4 DUP1 CALLDATASIZE SUB DUP2 ADD SWAP1 PUSH2 0x652 SWAP2 SWAP1 PUSH2 0x6EFC JUMP JUMPDEST PUSH2 0x26C0 JUMP JUMPDEST STOP JUMPDEST PUSH2 0x673 PUSH1 0x4 DUP1 CALLDATASIZE SUB DUP2 ADD SWAP1 PUSH2 0x66E SWAP2 SWAP1 PUSH2 0x6FB6 JUMP JUMPDEST PUSH2 0x2AE0 JUMP JUMPDEST PUSH1 0x40 MLOAD PUSH2 0x682 SWAP4 SWAP3 SWAP2 SWAP1 PUSH2 0x6D64 JUMP JUMPDEST PUSH1 0x40 MLOAD DUP1 SWAP2 SUB SWAP1 RETURN JUMPDEST CALLVALUE DUP1 ISZERO PUSH2 0x696 JUMPI PUSH0 DUP1 REVERT JUMPDEST POP PUSH2 0x6B1 PUSH1 0x4 DUP1 CALLDATASIZE SUB DUP2 ADD SWAP1 PUSH2 0x6AC SWAP2 SWAP1 PUSH2 0x65E0 JUMP JUMPDEST PUSH2 0x2D5A JUMP JUMPDEST PUSH1 0x40 MLOAD PUSH2 0x6BE SWAP2 SWAP1 PUSH2 0x6A35 JUMP JUMPDEST PUSH1 0x40 MLOAD DUP1 SWAP2 SUB SWAP1 RETURN JUMPDEST CALLVALUE DUP1 ISZERO PUSH2 0x6D2 JUMPI PUSH0 DUP1 REVERT JUMPDEST POP PUSH2 0x6ED PUSH1 0x4 DUP1 CALLDATASIZE SUB DUP2 ADD SWAP1 PUSH2 0x6E8 SWAP2 SWAP1 PUSH2 0x7053 JUMP JUMPDEST PUSH2 0x3137 JUMP JUMPDEST PUSH1 0x40 MLOAD PUSH2 0x6FB SWAP3 SWAP2 SWAP1 PUSH2 0x65B9 JUMP JUMPDEST PUSH1 0x40 MLOAD DUP1 SWAP2 SUB SWAP1 RETURN JUMPDEST CALLVALUE DUP1 ISZERO PUSH2 0x70F JUMPI PUSH0 DUP1 REVERT JUMPDEST POP PUSH2 0x72A PUSH1 0x4 DUP1 CALLDATASIZE SUB DUP2 ADD SWAP1 PUSH2 0x725 SWAP2 SWAP1 PUSH2 0x65E0 JUMP JUMPDEST PUSH2 0x32BA JUMP JUMPDEST PUSH1 0x40 MLOAD PUSH2 0x737 SWAP2 SWAP1 PUSH2 0x6A35 JUMP JUMPDEST PUSH1 0x40 MLOAD DUP1 SWAP2 SUB SWAP1 RETURN JUMPDEST CALLVALUE DUP1 ISZERO PUSH2 0x74B JUMPI PUSH0 DUP1 REVERT JUMPDEST POP PUSH2 0x766 PUSH1 0x4 DUP1 CALLDATASIZE SUB DUP2 ADD SWAP1 PUSH2 0x761 SWAP2 SWAP1 PUSH2 0x70CA JUMP JUMPDEST PUSH2 0x34FB JUMP JUMPDEST PUSH1 0x40 MLOAD PUSH2 0x775 SWAP4 SWAP3 SWAP2 SWAP1 PUSH2 0x6D64 JUMP JUMPDEST PUSH1 0x40 MLOAD DUP1 SWAP2 SUB SWAP1 RETURN JUMPDEST CALLVALUE DUP1 ISZERO PUSH2 0x789 JUMPI PUSH0 DUP1 REVERT JUMPDEST POP PUSH2 0x792 PUSH2 0x3742 JUMP JUMPDEST PUSH1 0x40 MLOAD PUSH2 0x79F SWAP2 SWAP1 PUSH2 0x6685 JUMP JUMPDEST PUSH1 0x40 MLOAD DUP1 SWAP2 SUB SWAP1 RETURN JUMPDEST CALLVALUE DUP1 ISZERO PUSH2 0x7B3 JUMPI PUSH0 DUP1 REVERT JUMPDEST POP PUSH2 0x7CE PUSH1 0x4 DUP1 CALLDATASIZE SUB DUP2 ADD SWAP1 PUSH2 0x7C9 SWAP2 SWAP1 PUSH2 0x6FB6 JUMP JUMPDEST PUSH2 0x3766 JUMP JUMPDEST PUSH1 0x40 MLOAD PUSH2 0x7DC SWAP3 SWAP2 SWAP1 PUSH2 0x65B9 JUMP JUMPDEST PUSH1 0x40 MLOAD DUP1 SWAP2 SUB SWAP1 RETURN JUMPDEST CALLVALUE DUP1 ISZERO PUSH2 0x7F0 JUMPI PUSH0 DUP1 REVERT JUMPDEST POP PUSH2 0x80B PUSH1 0x4 DUP1 CALLDATASIZE SUB DUP2 ADD SWAP1 PUSH2 0x806 SWAP2 SWAP1 PUSH2 0x7153 JUMP JUMPDEST PUSH2 0x3852 JUMP JUMPDEST PUSH1 0x40 MLOAD PUSH2 0x818 SWAP2 SWAP1 PUSH2 0x71A3 JUMP JUMPDEST PUSH1 0x40 MLOAD DUP1 SWAP2 SUB SWAP1 RETURN JUMPDEST PUSH2 0x83B PUSH1 0x4 DUP1 CALLDATASIZE SUB DUP2 ADD SWAP1 PUSH2 0x836 SWAP2 SWAP1 PUSH2 0x71BC JUMP JUMPDEST PUSH2 0x3AEF JUMP JUMPDEST PUSH1 0x40 MLOAD PUSH2 0x848 SWAP2 SWAP1 PUSH2 0x71A3 JUMP JUMPDEST PUSH1 0x40 MLOAD DUP1 SWAP2 SUB SWAP1 RETURN JUMPDEST CALLVALUE DUP1 ISZERO PUSH2 0x85C JUMPI PUSH0 DUP1 REVERT JUMPDEST POP PUSH2 0x877 PUSH1 0x4 DUP1 CALLDATASIZE SUB DUP2 ADD SWAP1 PUSH2 0x872 SWAP2 SWAP1 PUSH2 0x6FB6 JUMP JUMPDEST PUSH2 0x4036 JUMP JUMPDEST PUSH1 0x40 MLOAD PUSH2 0x884 SWAP2 SWAP1 PUSH2 0x71A3 JUMP JUMPDEST PUSH1 0x40 MLOAD DUP1 SWAP2 SUB SWAP1 RETURN JUMPDEST PUSH0 DUP1 PUSH0 DUP1 DUP10 SWAP4 POP DUP9 SWAP3 POP PUSH1 0x60 PUSH0 DUP10 DUP10 SWAP1 POP GT ISZERO PUSH2 0x930 JUMPI PUSH2 0x903 DUP12 DUP11 DUP11 DUP1 DUP1 PUSH1 0x20 MUL PUSH1 0x20 ADD PUSH1 0x40 MLOAD SWAP1 DUP2 ADD PUSH1 0x40 MSTORE DUP1 SWAP4 SWAP3 SWAP2 SWAP1 DUP2 DUP2 MSTORE PUSH1 0x20 ADD PUSH0 SWAP1 JUMPDEST DUP3 DUP3 LT ISZERO PUSH2 0x8F9 JUMPI DUP5 DUP5 DUP4 SWAP1 POP PUSH1 0x80 MUL ADD DUP1 CALLDATASIZE SUB DUP2 ADD SWAP1 PUSH2 0x8EA SWAP2 SWAP1 PUSH2 0x72B1 JUMP JUMPDEST DUP2 MSTORE PUSH1 0x20 ADD SWAP1 PUSH1 0x1 ADD SWAP1 PUSH2 0x8C9 JUMP JUMPDEST POP POP POP POP POP PUSH2 0x16F2 JUMP JUMPDEST SWAP1 POP DUP1 PUSH1 0x1 DUP3 MLOAD PUSH2 0x914 SWAP2 SWAP1 PUSH2 0x7309 JUMP JUMPDEST DUP2 MLOAD DUP2 LT PUSH2 0x925 JUMPI PUSH2 0x924 PUSH2 0x733C JUMP JUMPDEST JUMPDEST PUSH1 0x20 MUL PUSH1 0x20 ADD ADD MLOAD SWAP5 POP JUMPDEST PUSH0 DUP8 DUP8 SWAP1 POP GT ISZERO PUSH2 0x9C7 JUMPI PUSH2 0x99A DUP11 DUP9 DUP9 DUP1 DUP1 PUSH1 0x20 MUL PUSH1 0x20 ADD PUSH1 0x40 MLOAD SWAP1 DUP2 ADD PUSH1 0x40 MSTORE DUP1 SWAP4 SWAP3 SWAP2 SWAP1 DUP2 DUP2 MSTORE PUSH1 0x20 ADD PUSH0 SWAP1 JUMPDEST DUP3 DUP3 LT ISZERO PUSH2 0x990 JUMPI DUP5 DUP5 DUP4 SWAP1 POP PUSH1 0x80 MUL ADD DUP1 CALLDATASIZE SUB DUP2 ADD SWAP1 PUSH2 0x981 SWAP2 SWAP1 PUSH2 0x72B1 JUMP JUMPDEST DUP2 MSTORE PUSH1 0x20 ADD SWAP1 PUSH1 0x1 ADD SWAP1 PUSH2 0x960 JUMP JUMPDEST POP POP POP POP POP PUSH2 0x16F2 JUMP JUMPDEST SWAP1 POP DUP1 PUSH1 0x1 DUP3 MLOAD PUSH2 0x9AB SWAP2 SWAP1 PUSH2 0x7309 JUMP JUMPDEST DUP2 MLOAD DUP2 LT PUSH2 0x9BC JUMPI PUSH2 0x9BB PUSH2 0x733C JUMP JUMPDEST JUMPDEST PUSH1 0x20 MUL PUSH1 0x20 ADD ADD MLOAD SWAP4 POP JUMPDEST PUSH2 0x9D5 DUP16 DUP16 DUP16 DUP16 DUP10 DUP10 PUSH2 0x34FB JUMP JUMPDEST POP DUP1 SWAP4 POP DUP2 SWAP5 POP POP POP POP SWAP11 POP SWAP11 POP SWAP11 POP SWAP11 SWAP7 POP POP POP POP POP POP POP JUMP JUMPDEST PUSH0 DUP1 DUP3 PUSH2 0x9FC DUP2 PUSH2 0x4195 JUMP JUMPDEST PUSH0 PUSH2 0xA29 DUP13 DUP13 DUP13 PUSH32 0x0 PUSH2 0x1CFA JUMP JUMPDEST SWAP1 POP PUSH2 0xA5F PUSH2 0xA36 PUSH2 0x41D2 JUMP JUMPDEST DUP3 DUP12 DUP5 PUSH20 0xFFFFFFFFFFFFFFFFFFFFFFFFFFFFFFFFFFFFFFFF AND PUSH2 0x4243 SWAP1 SWAP4 SWAP3 SWAP2 SWAP1 PUSH4 0xFFFFFFFF AND JUMP JUMPDEST PUSH0 DUP1 DUP3 PUSH20 0xFFFFFFFFFFFFFFFFFFFFFFFFFFFFFFFFFFFFFFFF AND PUSH4 0x89AFCB44 DUP10 PUSH1 0x40 MLOAD DUP3 PUSH4 0xFFFFFFFF AND PUSH1 0xE0 SHL DUP2 MSTORE PUSH1 0x4 ADD PUSH2 0xA9A SWAP2 SWAP1 PUSH2 0x6685 JUMP JUMPDEST PUSH1 0x40 DUP1 MLOAD DUP1 DUP4 SUB DUP2 PUSH0 DUP8 GAS CALL ISZERO DUP1 ISZERO PUSH2 0xAB5 JUMPI RETURNDATASIZE PUSH0 DUP1 RETURNDATACOPY RETURNDATASIZE PUSH0 REVERT JUMPDEST POP POP POP POP PUSH1 0x40 MLOAD RETURNDATASIZE PUSH1 0x1F NOT PUSH1 0x1F DUP3 ADD AND DUP3 ADD DUP1 PUSH1 0x40 MSTORE POP DUP2 ADD SWAP1 PUSH2 0xAD9 SWAP2 SWAP1 PUSH2 0x737D JUMP JUMPDEST SWAP2 POP SWAP2 POP PUSH0 PUSH2 0xAE8 DUP16 DUP16 PUSH2 0x15DA JUMP JUMPDEST POP SWAP1 POP DUP1 PUSH20 0xFFFFFFFFFFFFFFFFFFFFFFFFFFFFFFFFFFFFFFFF AND DUP16 PUSH20 0xFFFFFFFFFFFFFFFFFFFFFFFFFFFFFFFFFFFFFFFF AND EQ PUSH2 0xB25 JUMPI DUP2 DUP4 PUSH2 0xB28 JUMP JUMPDEST DUP3 DUP3 JUMPDEST DUP1 SWAP8 POP DUP2 SWAP9 POP POP POP DUP11 DUP8 LT ISZERO PUSH2 0xB6A JUMPI PUSH1 0x40 MLOAD PUSH32 0x8F66EC1400000000000000000000000000000000000000000000000000000000 DUP2 MSTORE PUSH1 0x4 ADD PUSH1 0x40 MLOAD DUP1 SWAP2 SUB SWAP1 REVERT JUMPDEST DUP10 DUP7 LT ISZERO PUSH2 0xBA4 JUMPI PUSH1 0x40 MLOAD PUSH32 0x34C9062400000000000000000000000000000000000000000000000000000000 DUP2 MSTORE PUSH1 0x4 ADD PUSH1 0x40 MLOAD DUP1 SWAP2 SUB SWAP1 REVERT JUMPDEST POP POP POP POP POP SWAP9 POP SWAP9 SWAP7 POP POP POP POP POP POP POP JUMP JUMPDEST DUP1 PUSH2 0xBC0 DUP2 PUSH2 0x4195 JUMP JUMPDEST PUSH32 0x0 PUSH20 0xFFFFFFFFFFFFFFFFFFFFFFFFFFFFFFFFFFFFFFFF AND DUP6 DUP6 PUSH1 0x1 DUP9 DUP9 SWAP1 POP PUSH2 0xC09 SWAP2 SWAP1 PUSH2 0x7309 JUMP JUMPDEST DUP2 DUP2 LT PUSH2 0xC19 JUMPI PUSH2 0xC18 PUSH2 0x733C JUMP JUMPDEST JUMPDEST SWAP1 POP PUSH1 0x80 MUL ADD PUSH1 0x20 ADD PUSH1 0x20 DUP2 ADD SWAP1 PUSH2 0xC31 SWAP2 SWAP1 PUSH2 0x6C4D JUMP JUMPDEST PUSH20 0xFFFFFFFFFFFFFFFFFFFFFFFFFFFFFFFFFFFFFFFF AND EQ PUSH2 0xC7E JUMPI PUSH1 0x40 MLOAD PUSH32 0x20DB826700000000000000000000000000000000000000000000000000000000 DUP2 MSTORE PUSH1 0x4 ADD PUSH1 0x40 MLOAD DUP1 SWAP2 SUB SWAP1 REVERT JUMPDEST PUSH2 0xD6C DUP6 DUP6 PUSH0 DUP2 DUP2 LT PUSH2 0xC94 JUMPI PUSH2 0xC93 PUSH2 0x733C JUMP JUMPDEST JUMPDEST SWAP1 POP PUSH1 0x80 MUL ADD PUSH0 ADD PUSH1 0x20 DUP2 ADD SWAP1 PUSH2 0xCAB SWAP2 SWAP1 PUSH2 0x6C4D JUMP JUMPDEST PUSH2 0xCB3 PUSH2 0x41D2 JUMP JUMPDEST PUSH2 0xD66 DUP9 DUP9 PUSH0 DUP2 DUP2 LT PUSH2 0xCC9 JUMPI PUSH2 0xCC8 PUSH2 0x733C JUMP JUMPDEST JUMPDEST SWAP1 POP PUSH1 0x80 MUL ADD PUSH0 ADD PUSH1 0x20 DUP2 ADD SWAP1 PUSH2 0xCE0 SWAP2 SWAP1 PUSH2 0x6C4D JUMP JUMPDEST DUP10 DUP10 PUSH0 DUP2 DUP2 LT PUSH2 0xCF3 JUMPI PUSH2 0xCF2 PUSH2 0x733C JUMP JUMPDEST JUMPDEST SWAP1 POP PUSH1 0x80 MUL ADD PUSH1 0x20 ADD PUSH1 0x20 DUP2 ADD SWAP1 PUSH2 0xD0B SWAP2 SWAP1 PUSH2 0x6C4D JUMP JUMPDEST DUP11 DUP11 PUSH0 DUP2 DUP2 LT PUSH2 0xD1E JUMPI PUSH2 0xD1D PUSH2 0x733C JUMP JUMPDEST JUMPDEST SWAP1 POP PUSH1 0x80 MUL ADD PUSH1 0x40 ADD PUSH1 0x20 DUP2 ADD SWAP1 PUSH2 0xD36 SWAP2 SWAP1 PUSH2 0x73BB JUMP JUMPDEST DUP12 DUP12 PUSH0 DUP2 DUP2 LT PUSH2 0xD49 JUMPI PUSH2 0xD48 PUSH2 0x733C JUMP JUMPDEST JUMPDEST SWAP1 POP PUSH1 0x80 MUL ADD PUSH1 0x60 ADD PUSH1 0x20 DUP2 ADD SWAP1 PUSH2 0xD61 SWAP2 SWAP1 PUSH2 0x6C4D JUMP JUMPDEST PUSH2 0x1CFA JUMP JUMPDEST DUP11 PUSH2 0x42C5 JUMP JUMPDEST PUSH2 0xDCB DUP6 DUP6 DUP1 DUP1 PUSH1 0x20 MUL PUSH1 0x20 ADD PUSH1 0x40 MLOAD SWAP1 DUP2 ADD PUSH1 0x40 MSTORE DUP1 SWAP4 SWAP3 SWAP2 SWAP1 DUP2 DUP2 MSTORE PUSH1 0x20 ADD PUSH0 SWAP1 JUMPDEST DUP3 DUP3 LT ISZERO PUSH2 0xDC0 JUMPI DUP5 DUP5 DUP4 SWAP1 POP PUSH1 0x80 MUL ADD DUP1 CALLDATASIZE SUB DUP2 ADD SWAP1 PUSH2 0xDB1 SWAP2 SWAP1 PUSH2 0x72B1 JUMP JUMPDEST DUP2 MSTORE PUSH1 0x20 ADD SWAP1 PUSH1 0x1 ADD SWAP1 PUSH2 0xD90 JUMP JUMPDEST POP POP POP POP POP ADDRESS PUSH2 0x4402 JUMP JUMPDEST PUSH0 PUSH32 0x0 PUSH20 0xFFFFFFFFFFFFFFFFFFFFFFFFFFFFFFFFFFFFFFFF AND PUSH4 0x70A08231 ADDRESS PUSH1 0x40 MLOAD DUP3 PUSH4 0xFFFFFFFF AND PUSH1 0xE0 SHL DUP2 MSTORE PUSH1 0x4 ADD PUSH2 0xE25 SWAP2 SWAP1 PUSH2 0x6685 JUMP JUMPDEST PUSH1 0x20 PUSH1 0x40 MLOAD DUP1 DUP4 SUB DUP2 DUP7 GAS STATICCALL ISZERO DUP1 ISZERO PUSH2 0xE40 JUMPI RETURNDATASIZE PUSH0 DUP1 RETURNDATACOPY RETURNDATASIZE PUSH0 REVERT JUMPDEST POP POP POP POP PUSH1 0x40 MLOAD RETURNDATASIZE PUSH1 0x1F NOT PUSH1 0x1F DUP3 ADD AND DUP3 ADD DUP1 PUSH1 0x40 MSTORE POP DUP2 ADD SWAP1 PUSH2 0xE64 SWAP2 SWAP1 PUSH2 0x73E6 JUMP JUMPDEST SWAP1 POP DUP7 DUP2 LT ISZERO PUSH2 0xEA0 JUMPI PUSH1 0x40 MLOAD PUSH32 0x42301C2300000000000000000000000000000000000000000000000000000000 DUP2 MSTORE PUSH1 0x4 ADD PUSH1 0x40 MLOAD DUP1 SWAP2 SUB SWAP1 REVERT JUMPDEST PUSH32 0x0 PUSH20 0xFFFFFFFFFFFFFFFFFFFFFFFFFFFFFFFFFFFFFFFF AND PUSH4 0x2E1A7D4D DUP3 PUSH1 0x40 MLOAD DUP3 PUSH4 0xFFFFFFFF AND PUSH1 0xE0 SHL DUP2 MSTORE PUSH1 0x4 ADD PUSH2 0xEF9 SWAP2 SWAP1 PUSH2 0x71A3 JUMP JUMPDEST PUSH0 PUSH1 0x40 MLOAD DUP1 DUP4 SUB DUP2 PUSH0 DUP8 DUP1 EXTCODESIZE ISZERO DUP1 ISZERO PUSH2 0xF10 JUMPI PUSH0 DUP1 REVERT JUMPDEST POP GAS CALL ISZERO DUP1 ISZERO PUSH2 0xF22 JUMPI RETURNDATASIZE PUSH0 DUP1 RETURNDATACOPY RETURNDATASIZE PUSH0 REVERT JUMPDEST POP POP POP POP PUSH2 0xF30 DUP5 DUP3 PUSH2 0x48AE JUMP JUMPDEST POP POP POP POP POP POP POP POP JUMP JUMPDEST PUSH32 0x0 DUP2 JUMP JUMPDEST DUP1 PUSH2 0xF68 DUP2 PUSH2 0x4195 JUMP JUMPDEST PUSH32 0x0 PUSH20 0xFFFFFFFFFFFFFFFFFFFFFFFFFFFFFFFFFFFFFFFF AND DUP6 DUP6 PUSH0 DUP2 DUP2 LT PUSH2 0xFB2 JUMPI PUSH2 0xFB1 PUSH2 0x733C JUMP JUMPDEST JUMPDEST SWAP1 POP PUSH1 0x80 MUL ADD PUSH0 ADD PUSH1 0x20 DUP2 ADD SWAP1 PUSH2 0xFC9 SWAP2 SWAP1 PUSH2 0x6C4D JUMP JUMPDEST PUSH20 0xFFFFFFFFFFFFFFFFFFFFFFFFFFFFFFFFFFFFFFFF AND EQ PUSH2 0x1016 JUMPI PUSH1 0x40 MLOAD PUSH32 0x20DB826700000000000000000000000000000000000000000000000000000000 DUP2 MSTORE PUSH1 0x4 ADD PUSH1 0x40 MLOAD DUP1 SWAP2 SUB SWAP1 REVERT JUMPDEST PUSH0 CALLVALUE SWAP1 POP PUSH32 0x0 PUSH20 0xFFFFFFFFFFFFFFFFFFFFFFFFFFFFFFFFFFFFFFFF AND PUSH4 0xD0E30DB0 DUP3 PUSH1 0x40 MLOAD DUP3 PUSH4 0xFFFFFFFF AND PUSH1 0xE0 SHL DUP2 MSTORE PUSH1 0x4 ADD PUSH0 PUSH1 0x40 MLOAD DUP1 DUP4 SUB DUP2 DUP6 DUP9 DUP1 EXTCODESIZE ISZERO DUP1 ISZERO PUSH2 0x1080 JUMPI PUSH0 DUP1 REVERT JUMPDEST POP GAS CALL ISZERO DUP1 ISZERO PUSH2 0x1092 JUMPI RETURNDATASIZE PUSH0 DUP1 RETURNDATACOPY RETURNDATASIZE PUSH0 REVERT JUMPDEST POP POP POP POP POP PUSH32 0x0 PUSH20 0xFFFFFFFFFFFFFFFFFFFFFFFFFFFFFFFFFFFFFFFF AND PUSH4 0xA9059CBB PUSH2 0x1186 DUP9 DUP9 PUSH0 DUP2 DUP2 LT PUSH2 0x10E9 JUMPI PUSH2 0x10E8 PUSH2 0x733C JUMP JUMPDEST JUMPDEST SWAP1 POP PUSH1 0x80 MUL ADD PUSH0 ADD PUSH1 0x20 DUP2 ADD SWAP1 PUSH2 0x1100 SWAP2 SWAP1 PUSH2 0x6C4D JUMP JUMPDEST DUP10 DUP10 PUSH0 DUP2 DUP2 LT PUSH2 0x1113 JUMPI PUSH2 0x1112 PUSH2 0x733C JUMP JUMPDEST JUMPDEST SWAP1 POP PUSH1 0x80 MUL ADD PUSH1 0x20 ADD PUSH1 0x20 DUP2 ADD SWAP1 PUSH2 0x112B SWAP2 SWAP1 PUSH2 0x6C4D JUMP JUMPDEST DUP11 DUP11 PUSH0 DUP2 DUP2 LT PUSH2 0x113E JUMPI PUSH2 0x113D PUSH2 0x733C JUMP JUMPDEST JUMPDEST SWAP1 POP PUSH1 0x80 MUL ADD PUSH1 0x40 ADD PUSH1 0x20 DUP2 ADD SWAP1 PUSH2 0x1156 SWAP2 SWAP1 PUSH2 0x73BB JUMP JUMPDEST DUP12 DUP12 PUSH0 DUP2 DUP2 LT PUSH2 0x1169 JUMPI PUSH2 0x1168 PUSH2 0x733C JUMP JUMPDEST JUMPDEST SWAP1 POP PUSH1 0x80 MUL ADD PUSH1 0x60 ADD PUSH1 0x20 DUP2 ADD SWAP1 PUSH2 0x1181 SWAP2 SWAP1 PUSH2 0x6C4D JUMP JUMPDEST PUSH2 0x1CFA JUMP JUMPDEST DUP4 PUSH1 0x40 MLOAD DUP4 PUSH4 0xFFFFFFFF AND PUSH1 0xE0 SHL DUP2 MSTORE PUSH1 0x4 ADD PUSH2 0x11A4 SWAP3 SWAP2 SWAP1 PUSH2 0x7411 JUMP JUMPDEST PUSH1 0x20 PUSH1 0x40 MLOAD DUP1 DUP4 SUB DUP2 PUSH0 DUP8 GAS CALL ISZERO DUP1 ISZERO PUSH2 0x11C0 JUMPI RETURNDATASIZE PUSH0 DUP1 RETURNDATACOPY RETURNDATASIZE PUSH0 REVERT JUMPDEST POP POP POP POP PUSH1 0x40 MLOAD RETURNDATASIZE PUSH1 0x1F NOT PUSH1 0x1F DUP3 ADD AND DUP3 ADD DUP1 PUSH1 0x40 MSTORE POP DUP2 ADD SWAP1 PUSH2 0x11E4 SWAP2 SWAP1 PUSH2 0x744C JUMP JUMPDEST PUSH2 0x11F1 JUMPI PUSH2 0x11F0 PUSH2 0x7477 JUMP JUMPDEST JUMPDEST PUSH0 PUSH1 0x1 DUP8 DUP8 SWAP1 POP PUSH2 0x1202 SWAP2 SWAP1 PUSH2 0x7309 JUMP JUMPDEST SWAP1 POP PUSH0 DUP8 DUP8 DUP4 DUP2 DUP2 LT PUSH2 0x1218 JUMPI PUSH2 0x1217 PUSH2 0x733C JUMP JUMPDEST JUMPDEST SWAP1 POP PUSH1 0x80 MUL ADD PUSH1 0x20 ADD PUSH1 0x20 DUP2 ADD SWAP1 PUSH2 0x1230 SWAP2 SWAP1 PUSH2 0x6C4D JUMP JUMPDEST PUSH20 0xFFFFFFFFFFFFFFFFFFFFFFFFFFFFFFFFFFFFFFFF AND PUSH4 0x70A08231 DUP8 PUSH1 0x40 MLOAD DUP3 PUSH4 0xFFFFFFFF AND PUSH1 0xE0 SHL DUP2 MSTORE PUSH1 0x4 ADD PUSH2 0x1268 SWAP2 SWAP1 PUSH2 0x6685 JUMP JUMPDEST PUSH1 0x20 PUSH1 0x40 MLOAD DUP1 DUP4 SUB DUP2 DUP7 GAS STATICCALL ISZERO DUP1 ISZERO PUSH2 0x1283 JUMPI RETURNDATASIZE PUSH0 DUP1 RETURNDATACOPY RETURNDATASIZE PUSH0 REVERT JUMPDEST POP POP POP POP PUSH1 0x40 MLOAD RETURNDATASIZE PUSH1 0x1F NOT PUSH1 0x1F DUP3 ADD AND DUP3 ADD DUP1 PUSH1 0x40 MSTORE POP DUP2 ADD SWAP1 PUSH2 0x12A7 SWAP2 SWAP1 PUSH2 0x73E6 JUMP JUMPDEST SWAP1 POP PUSH2 0x1308 DUP9 DUP9 DUP1 DUP1 PUSH1 0x20 MUL PUSH1 0x20 ADD PUSH1 0x40 MLOAD SWAP1 DUP2 ADD PUSH1 0x40 MSTORE DUP1 SWAP4 SWAP3 SWAP2 SWAP1 DUP2 DUP2 MSTORE PUSH1 0x20 ADD PUSH0 SWAP1 JUMPDEST DUP3 DUP3 LT ISZERO PUSH2 0x12FD JUMPI DUP5 DUP5 DUP4 SWAP1 POP PUSH1 0x80 MUL ADD DUP1 CALLDATASIZE SUB DUP2 ADD SWAP1 PUSH2 0x12EE SWAP2 SWAP1 PUSH2 0x72B1 JUMP JUMPDEST DUP2 MSTORE PUSH1 0x20 ADD SWAP1 PUSH1 0x1 ADD SWAP1 PUSH2 0x12CD JUMP JUMPDEST POP POP POP POP POP DUP8 PUSH2 0x4402 JUMP JUMPDEST DUP9 DUP2 DUP10 DUP10 DUP6 DUP2 DUP2 LT PUSH2 0x131D JUMPI PUSH2 0x131C PUSH2 0x733C JUMP JUMPDEST JUMPDEST SWAP1 POP PUSH1 0x80 MUL ADD PUSH1 0x20 ADD PUSH1 0x20 DUP2 ADD SWAP1 PUSH2 0x1335 SWAP2 SWAP1 PUSH2 0x6C4D JUMP JUMPDEST PUSH20 0xFFFFFFFFFFFFFFFFFFFFFFFFFFFFFFFFFFFFFFFF AND PUSH4 0x70A08231 DUP10 PUSH1 0x40 MLOAD DUP3 PUSH4 0xFFFFFFFF AND PUSH1 0xE0 SHL DUP2 MSTORE PUSH1 0x4 ADD PUSH2 0x136D SWAP2 SWAP1 PUSH2 0x6685 JUMP JUMPDEST PUSH1 0x20 PUSH1 0x40 MLOAD DUP1 DUP4 SUB DUP2 DUP7 GAS STATICCALL ISZERO DUP1 ISZERO PUSH2 0x1388 JUMPI RETURNDATASIZE PUSH0 DUP1 RETURNDATACOPY RETURNDATASIZE PUSH0 REVERT JUMPDEST POP POP POP POP PUSH1 0x40 MLOAD RETURNDATASIZE PUSH1 0x1F NOT PUSH1 0x1F DUP3 ADD AND DUP3 ADD DUP1 PUSH1 0x40 MSTORE POP DUP2 ADD SWAP1 PUSH2 0x13AC SWAP2 SWAP1 PUSH2 0x73E6 JUMP JUMPDEST PUSH2 0x13B6 SWAP2 SWAP1 PUSH2 0x7309 JUMP JUMPDEST LT ISZERO PUSH2 0x13EE JUMPI PUSH1 0x40 MLOAD PUSH32 0x42301C2300000000000000000000000000000000000000000000000000000000 DUP2 MSTORE PUSH1 0x4 ADD PUSH1 0x40 MLOAD DUP1 SWAP2 SUB SWAP1 REVERT JUMPDEST POP POP POP POP POP POP POP POP POP JUMP JUMPDEST PUSH32 0x0 DUP2 JUMP JUMPDEST PUSH1 0x60 DUP2 PUSH2 0x1429 DUP2 PUSH2 0x4195 JUMP JUMPDEST PUSH2 0x1531 DUP7 DUP7 PUSH0 DUP2 DUP2 LT PUSH2 0x143F JUMPI PUSH2 0x143E PUSH2 0x733C JUMP JUMPDEST JUMPDEST SWAP1 POP PUSH1 0x80 MUL ADD PUSH0 ADD PUSH1 0x20 DUP2 ADD SWAP1 PUSH2 0x1456 SWAP2 SWAP1 PUSH2 0x6C4D JUMP JUMPDEST PUSH2 0x145E PUSH2 0x41D2 JUMP JUMPDEST PUSH2 0x1511 DUP10 DUP10 PUSH0 DUP2 DUP2 LT PUSH2 0x1474 JUMPI PUSH2 0x1473 PUSH2 0x733C JUMP JUMPDEST JUMPDEST SWAP1 POP PUSH1 0x80 MUL ADD PUSH0 ADD PUSH1 0x20 DUP2 ADD SWAP1 PUSH2 0x148B SWAP2 SWAP1 PUSH2 0x6C4D JUMP JUMPDEST DUP11 DUP11 PUSH0 DUP2 DUP2 LT PUSH2 0x149E JUMPI PUSH2 0x149D PUSH2 0x733C JUMP JUMPDEST JUMPDEST SWAP1 POP PUSH1 0x80 MUL ADD PUSH1 0x20 ADD PUSH1 0x20 DUP2 ADD SWAP1 PUSH2 0x14B6 SWAP2 SWAP1 PUSH2 0x6C4D JUMP JUMPDEST DUP12 DUP12 PUSH0 DUP2 DUP2 LT PUSH2 0x14C9 JUMPI PUSH2 0x14C8 PUSH2 0x733C JUMP JUMPDEST JUMPDEST SWAP1 POP PUSH1 0x80 MUL ADD PUSH1 0x40 ADD PUSH1 0x20 DUP2 ADD SWAP1 PUSH2 0x14E1 SWAP2 SWAP1 PUSH2 0x73BB JUMP JUMPDEST DUP13 DUP13 PUSH0 DUP2 DUP2 LT PUSH2 0x14F4 JUMPI PUSH2 0x14F3 PUSH2 0x733C JUMP JUMPDEST JUMPDEST SWAP1 POP PUSH1 0x80 MUL ADD PUSH1 0x60 ADD PUSH1 0x20 DUP2 ADD SWAP1 PUSH2 0x150C SWAP2 SWAP1 PUSH2 0x6C4D JUMP JUMPDEST PUSH2 0x1CFA JUMP JUMPDEST DUP11 PUSH0 DUP2 MLOAD DUP2 LT PUSH2 0x1524 JUMPI PUSH2 0x1523 PUSH2 0x733C JUMP JUMPDEST JUMPDEST PUSH1 0x20 MUL PUSH1 0x20 ADD ADD MLOAD PUSH2 0x42C5 JUMP JUMPDEST PUSH2 0x1591 DUP8 DUP8 DUP8 DUP1 DUP1 PUSH1 0x20 MUL PUSH1 0x20 ADD PUSH1 0x40 MLOAD SWAP1 DUP2 ADD PUSH1 0x40 MSTORE DUP1 SWAP4 SWAP3 SWAP2 SWAP1 DUP2 DUP2 MSTORE PUSH1 0x20 ADD PUSH0 SWAP1 JUMPDEST DUP3 DUP3 LT ISZERO PUSH2 0x1586 JUMPI DUP5 DUP5 DUP4 SWAP1 POP PUSH1 0x80 MUL ADD DUP1 CALLDATASIZE SUB DUP2 ADD SWAP1 PUSH2 0x1577 SWAP2 SWAP1 PUSH2 0x72B1 JUMP JUMPDEST DUP2 MSTORE PUSH1 0x20 ADD SWAP1 PUSH1 0x1 ADD SWAP1 PUSH2 0x1556 JUMP JUMPDEST POP POP POP POP POP DUP7 PUSH2 0x49A0 JUMP JUMPDEST DUP7 SWAP2 POP POP SWAP6 SWAP5 POP POP POP POP POP JUMP JUMPDEST PUSH20 0xEEEEEEEEEEEEEEEEEEEEEEEEEEEEEEEEEEEEEEEE DUP2 JUMP JUMPDEST PUSH32 0x0 DUP2 JUMP JUMPDEST PUSH0 DUP1 DUP3 PUSH20 0xFFFFFFFFFFFFFFFFFFFFFFFFFFFFFFFFFFFFFFFF AND DUP5 PUSH20 0xFFFFFFFFFFFFFFFFFFFFFFFFFFFFFFFFFFFFFFFF AND SUB PUSH2 0x1641 JUMPI PUSH1 0x40 MLOAD PUSH32 0xCA57CFF400000000000000000000000000000000000000000000000000000000 DUP2 MSTORE PUSH1 0x4 ADD PUSH1 0x40 MLOAD DUP1 SWAP2 SUB SWAP1 REVERT JUMPDEST DUP3 PUSH20 0xFFFFFFFFFFFFFFFFFFFFFFFFFFFFFFFFFFFFFFFF AND DUP5 PUSH20 0xFFFFFFFFFFFFFFFFFFFFFFFFFFFFFFFFFFFFFFFF AND LT PUSH2 0x167B JUMPI DUP3 DUP5 PUSH2 0x167E JUMP JUMPDEST DUP4 DUP4 JUMPDEST DUP1 SWAP3 POP DUP2 SWAP4 POP POP POP PUSH0 PUSH20 0xFFFFFFFFFFFFFFFFFFFFFFFFFFFFFFFFFFFFFFFF AND DUP3 PUSH20 0xFFFFFFFFFFFFFFFFFFFFFFFFFFFFFFFFFFFFFFFF AND SUB PUSH2 0x16EB JUMPI PUSH1 0x40 MLOAD PUSH32 0xD92E233D00000000000000000000000000000000000000000000000000000000 DUP2 MSTORE PUSH1 0x4 ADD PUSH1 0x40 MLOAD DUP1 SWAP2 SUB SWAP1 REVERT JUMPDEST SWAP3 POP SWAP3 SWAP1 POP JUMP JUMPDEST PUSH1 0x60 PUSH1 0x1 DUP3 MLOAD LT ISZERO PUSH2 0x1730 JUMPI PUSH1 0x40 MLOAD PUSH32 0x20DB826700000000000000000000000000000000000000000000000000000000 DUP2 MSTORE PUSH1 0x4 ADD PUSH1 0x40 MLOAD DUP1 SWAP2 SUB SWAP1 REVERT JUMPDEST PUSH1 0x1 DUP3 MLOAD PUSH2 0x173E SWAP2 SWAP1 PUSH2 0x74A4 JUMP JUMPDEST PUSH8 0xFFFFFFFFFFFFFFFF DUP2 GT ISZERO PUSH2 0x1757 JUMPI PUSH2 0x1756 PUSH2 0x67A6 JUMP JUMPDEST JUMPDEST PUSH1 0x40 MLOAD SWAP1 DUP1 DUP3 MSTORE DUP1 PUSH1 0x20 MUL PUSH1 0x20 ADD DUP3 ADD PUSH1 0x40 MSTORE DUP1 ISZERO PUSH2 0x1785 JUMPI DUP2 PUSH1 0x20 ADD PUSH1 0x20 DUP3 MUL DUP1 CALLDATASIZE DUP4 CALLDATACOPY DUP1 DUP3 ADD SWAP2 POP POP SWAP1 POP JUMPDEST POP SWAP1 POP DUP3 DUP2 PUSH0 DUP2 MLOAD DUP2 LT PUSH2 0x179C JUMPI PUSH2 0x179B PUSH2 0x733C JUMP JUMPDEST JUMPDEST PUSH1 0x20 MUL PUSH1 0x20 ADD ADD DUP2 DUP2 MSTORE POP POP PUSH0 DUP3 MLOAD SWAP1 POP PUSH0 JUMPDEST DUP2 DUP2 LT ISZERO PUSH2 0x1A28 JUMPI PUSH0 DUP1 PUSH20 0xFFFFFFFFFFFFFFFFFFFFFFFFFFFFFFFFFFFFFFFF AND DUP6 DUP4 DUP2 MLOAD DUP2 LT PUSH2 0x17E2 JUMPI PUSH2 0x17E1 PUSH2 0x733C JUMP JUMPDEST JUMPDEST PUSH1 0x20 MUL PUSH1 0x20 ADD ADD MLOAD PUSH1 0x60 ADD MLOAD PUSH20 0xFFFFFFFFFFFFFFFFFFFFFFFFFFFFFFFFFFFFFFFF AND EQ PUSH2 0x182D JUMPI DUP5 DUP3 DUP2 MLOAD DUP2 LT PUSH2 0x181C JUMPI PUSH2 0x181B PUSH2 0x733C JUMP JUMPDEST JUMPDEST PUSH1 0x20 MUL PUSH1 0x20 ADD ADD MLOAD PUSH1 0x60 ADD MLOAD PUSH2 0x184F JUMP JUMPDEST PUSH32 0x0 JUMPDEST SWAP1 POP PUSH0 PUSH2 0x18B7 DUP7 DUP5 DUP2 MLOAD DUP2 LT PUSH2 0x1868 JUMPI PUSH2 0x1867 PUSH2 0x733C JUMP JUMPDEST JUMPDEST PUSH1 0x20 MUL PUSH1 0x20 ADD ADD MLOAD PUSH0 ADD MLOAD DUP8 DUP6 DUP2 MLOAD DUP2 LT PUSH2 0x1886 JUMPI PUSH2 0x1885 PUSH2 0x733C JUMP JUMPDEST JUMPDEST PUSH1 0x20 MUL PUSH1 0x20 ADD ADD MLOAD PUSH1 0x20 ADD MLOAD DUP9 DUP7 DUP2 MLOAD DUP2 LT PUSH2 0x18A5 JUMPI PUSH2 0x18A4 PUSH2 0x733C JUMP JUMPDEST JUMPDEST PUSH1 0x20 MUL PUSH1 0x20 ADD ADD MLOAD PUSH1 0x40 ADD MLOAD DUP6 PUSH2 0x1CFA JUMP JUMPDEST SWAP1 POP DUP2 PUSH20 0xFFFFFFFFFFFFFFFFFFFFFFFFFFFFFFFFFFFFFFFF AND PUSH4 0x5B16EBB7 DUP3 PUSH1 0x40 MLOAD DUP3 PUSH4 0xFFFFFFFF AND PUSH1 0xE0 SHL DUP2 MSTORE PUSH1 0x4 ADD PUSH2 0x18F2 SWAP2 SWAP1 PUSH2 0x6685 JUMP JUMPDEST PUSH1 0x20 PUSH1 0x40 MLOAD DUP1 DUP4 SUB DUP2 DUP7 GAS STATICCALL ISZERO DUP1 ISZERO PUSH2 0x190D JUMPI RETURNDATASIZE PUSH0 DUP1 RETURNDATACOPY RETURNDATASIZE PUSH0 REVERT JUMPDEST POP POP POP POP PUSH1 0x40 MLOAD RETURNDATASIZE PUSH1 0x1F NOT PUSH1 0x1F DUP3 ADD AND DUP3 ADD DUP1 PUSH1 0x40 MSTORE POP DUP2 ADD SWAP1 PUSH2 0x1931 SWAP2 SWAP1 PUSH2 0x744C JUMP JUMPDEST ISZERO PUSH2 0x1A13 JUMPI DUP1 PUSH20 0xFFFFFFFFFFFFFFFFFFFFFFFFFFFFFFFFFFFFFFFF AND PUSH4 0xF140A35A DUP7 DUP6 DUP2 MLOAD DUP2 LT PUSH2 0x1965 JUMPI PUSH2 0x1964 PUSH2 0x733C JUMP JUMPDEST JUMPDEST PUSH1 0x20 MUL PUSH1 0x20 ADD ADD MLOAD DUP9 DUP7 DUP2 MLOAD DUP2 LT PUSH2 0x1980 JUMPI PUSH2 0x197F PUSH2 0x733C JUMP JUMPDEST JUMPDEST PUSH1 0x20 MUL PUSH1 0x20 ADD ADD MLOAD PUSH0 ADD MLOAD PUSH1 0x40 MLOAD DUP4 PUSH4 0xFFFFFFFF AND PUSH1 0xE0 SHL DUP2 MSTORE PUSH1 0x4 ADD PUSH2 0x19A8 SWAP3 SWAP2 SWAP1 PUSH2 0x74D7 JUMP JUMPDEST PUSH1 0x20 PUSH1 0x40 MLOAD DUP1 DUP4 SUB DUP2 DUP7 GAS STATICCALL ISZERO DUP1 ISZERO PUSH2 0x19C3 JUMPI RETURNDATASIZE PUSH0 DUP1 RETURNDATACOPY RETURNDATASIZE PUSH0 REVERT JUMPDEST POP POP POP POP PUSH1 0x40 MLOAD RETURNDATASIZE PUSH1 0x1F NOT PUSH1 0x1F DUP3 ADD AND DUP3 ADD DUP1 PUSH1 0x40 MSTORE POP DUP2 ADD SWAP1 PUSH2 0x19E7 SWAP2 SWAP1 PUSH2 0x73E6 JUMP JUMPDEST DUP6 PUSH1 0x1 DUP6 PUSH2 0x19F5 SWAP2 SWAP1 PUSH2 0x74A4 JUMP JUMPDEST DUP2 MLOAD DUP2 LT PUSH2 0x1A06 JUMPI PUSH2 0x1A05 PUSH2 0x733C JUMP JUMPDEST JUMPDEST PUSH1 0x20 MUL PUSH1 0x20 ADD ADD DUP2 DUP2 MSTORE POP POP JUMPDEST POP POP DUP1 DUP1 PUSH2 0x1A20 SWAP1 PUSH2 0x74FE JUMP JUMPDEST SWAP2 POP POP PUSH2 0x17AF JUMP JUMPDEST POP POP SWAP3 SWAP2 POP POP JUMP JUMPDEST PUSH0 PUSH2 0x1A39 PUSH2 0x1CD3 JUMP JUMPDEST PUSH20 0xFFFFFFFFFFFFFFFFFFFFFFFFFFFFFFFFFFFFFFFF AND DUP3 PUSH20 0xFFFFFFFFFFFFFFFFFFFFFFFFFFFFFFFFFFFFFFFF AND EQ SWAP1 POP SWAP2 SWAP1 POP JUMP JUMPDEST PUSH0 DUP1 PUSH0 DUP4 PUSH2 0x1A7B DUP2 PUSH2 0x4195 JUMP JUMPDEST PUSH2 0x1A8A DUP14 DUP14 DUP14 DUP14 DUP14 DUP14 DUP14 PUSH2 0x4CAC JUMP JUMPDEST DUP1 SWAP5 POP DUP2 SWAP6 POP POP POP PUSH0 PUSH2 0x1ABF DUP15 DUP15 DUP15 PUSH32 0x0 PUSH2 0x1CFA JUMP JUMPDEST SWAP1 POP PUSH2 0x1AD4 DUP15 PUSH2 0x1ACD PUSH2 0x41D2 JUMP JUMPDEST DUP4 DUP9 PUSH2 0x42C5 JUMP JUMPDEST PUSH2 0x1AE7 DUP14 PUSH2 0x1AE0 PUSH2 0x41D2 JUMP JUMPDEST DUP4 DUP8 PUSH2 0x42C5 JUMP JUMPDEST DUP1 PUSH20 0xFFFFFFFFFFFFFFFFFFFFFFFFFFFFFFFFFFFFFFFF AND PUSH4 0x6A627842 DUP9 PUSH1 0x40 MLOAD DUP3 PUSH4 0xFFFFFFFF AND PUSH1 0xE0 SHL DUP2 MSTORE PUSH1 0x4 ADD PUSH2 0x1B20 SWAP2 SWAP1 PUSH2 0x6685 JUMP JUMPDEST PUSH1 0x20 PUSH1 0x40 MLOAD DUP1 DUP4 SUB DUP2 PUSH0 DUP8 GAS CALL ISZERO DUP1 ISZERO PUSH2 0x1B3C JUMPI RETURNDATASIZE PUSH0 DUP1 RETURNDATACOPY RETURNDATASIZE PUSH0 REVERT JUMPDEST POP POP POP POP PUSH1 0x40 MLOAD RETURNDATASIZE PUSH1 0x1F NOT PUSH1 0x1F DUP3 ADD AND DUP3 ADD DUP1 PUSH1 0x40 MSTORE POP DUP2 ADD SWAP1 PUSH2 0x1B60 SWAP2 SWAP1 PUSH2 0x73E6 JUMP JUMPDEST SWAP3 POP POP POP SWAP10 POP SWAP10 POP SWAP10 SWAP7 POP POP POP POP POP POP POP JUMP JUMPDEST PUSH0 DUP1 PUSH0 DUP1 PUSH2 0x1B84 DUP14 DUP14 DUP14 DUP14 DUP14 PUSH2 0x3137 JUMP JUMPDEST DUP1 SWAP3 POP DUP2 SWAP4 POP POP POP DUP2 SWAP4 POP DUP1 SWAP3 POP PUSH1 0x60 PUSH0 DUP10 DUP10 SWAP1 POP GT ISZERO PUSH2 0x1C2B JUMPI PUSH2 0x1BFE DUP4 DUP11 DUP11 DUP1 DUP1 PUSH1 0x20 MUL PUSH1 0x20 ADD PUSH1 0x40 MLOAD SWAP1 DUP2 ADD PUSH1 0x40 MSTORE DUP1 SWAP4 SWAP3 SWAP2 SWAP1 DUP2 DUP2 MSTORE PUSH1 0x20 ADD PUSH0 SWAP1 JUMPDEST DUP3 DUP3 LT ISZERO PUSH2 0x1BF4 JUMPI DUP5 DUP5 DUP4 SWAP1 POP PUSH1 0x80 MUL ADD DUP1 CALLDATASIZE SUB DUP2 ADD SWAP1 PUSH2 0x1BE5 SWAP2 SWAP1 PUSH2 0x72B1 JUMP JUMPDEST DUP2 MSTORE PUSH1 0x20 ADD SWAP1 PUSH1 0x1 ADD SWAP1 PUSH2 0x1BC4 JUMP JUMPDEST POP POP POP POP POP PUSH2 0x16F2 JUMP JUMPDEST SWAP1 POP DUP1 PUSH1 0x1 DUP3 MLOAD PUSH2 0x1C0F SWAP2 SWAP1 PUSH2 0x7309 JUMP JUMPDEST DUP2 MLOAD DUP2 LT PUSH2 0x1C20 JUMPI PUSH2 0x1C1F PUSH2 0x733C JUMP JUMPDEST JUMPDEST PUSH1 0x20 MUL PUSH1 0x20 ADD ADD MLOAD SWAP5 POP JUMPDEST PUSH0 DUP8 DUP8 SWAP1 POP GT ISZERO PUSH2 0x1CC2 JUMPI PUSH2 0x1C95 DUP3 DUP9 DUP9 DUP1 DUP1 PUSH1 0x20 MUL PUSH1 0x20 ADD PUSH1 0x40 MLOAD SWAP1 DUP2 ADD PUSH1 0x40 MSTORE DUP1 SWAP4 SWAP3 SWAP2 SWAP1 DUP2 DUP2 MSTORE PUSH1 0x20 ADD PUSH0 SWAP1 JUMPDEST DUP3 DUP3 LT ISZERO PUSH2 0x1C8B JUMPI DUP5 DUP5 DUP4 SWAP1 POP PUSH1 0x80 MUL ADD DUP1 CALLDATASIZE SUB DUP2 ADD SWAP1 PUSH2 0x1C7C SWAP2 SWAP1 PUSH2 0x72B1 JUMP JUMPDEST DUP2 MSTORE PUSH1 0x20 ADD SWAP1 PUSH1 0x1 ADD SWAP1 PUSH2 0x1C5B JUMP JUMPDEST POP POP POP POP POP PUSH2 0x16F2 JUMP JUMPDEST SWAP1 POP DUP1 PUSH1 0x1 DUP3 MLOAD PUSH2 0x1CA6 SWAP2 SWAP1 PUSH2 0x7309 JUMP JUMPDEST DUP2 MLOAD DUP2 LT PUSH2 0x1CB7 JUMPI PUSH2 0x1CB6 PUSH2 0x733C JUMP JUMPDEST JUMPDEST PUSH1 0x20 MUL PUSH1 0x20 ADD ADD MLOAD SWAP4 POP JUMPDEST POP SWAP10 POP SWAP10 POP SWAP10 POP SWAP10 SWAP6 POP POP POP POP POP POP JUMP JUMPDEST PUSH0 PUSH32 0x0 SWAP1 POP SWAP1 JUMP JUMPDEST PUSH0 DUP1 PUSH32 0x0 SWAP1 POP PUSH0 DUP1 PUSH20 0xFFFFFFFFFFFFFFFFFFFFFFFFFFFFFFFFFFFFFFFF AND DUP5 PUSH20 0xFFFFFFFFFFFFFFFFFFFFFFFFFFFFFFFFFFFFFFFF AND EQ PUSH2 0x1D59 JUMPI DUP4 PUSH2 0x1D5B JUMP JUMPDEST DUP2 JUMPDEST SWAP1 POP PUSH32 0x0 PUSH20 0xFFFFFFFFFFFFFFFFFFFFFFFFFFFFFFFFFFFFFFFF AND PUSH4 0xD1EA0A1D DUP3 PUSH1 0x40 MLOAD DUP3 PUSH4 0xFFFFFFFF AND PUSH1 0xE0 SHL DUP2 MSTORE PUSH1 0x4 ADD PUSH2 0x1DB6 SWAP2 SWAP1 PUSH2 0x6685 JUMP JUMPDEST PUSH1 0x20 PUSH1 0x40 MLOAD DUP1 DUP4 SUB DUP2 DUP7 GAS STATICCALL ISZERO DUP1 ISZERO PUSH2 0x1DD1 JUMPI RETURNDATASIZE PUSH0 DUP1 RETURNDATACOPY RETURNDATASIZE PUSH0 REVERT JUMPDEST POP POP POP POP PUSH1 0x40 MLOAD RETURNDATASIZE PUSH1 0x1F NOT PUSH1 0x1F DUP3 ADD AND DUP3 ADD DUP1 PUSH1 0x40 MSTORE POP DUP2 ADD SWAP1 PUSH2 0x1DF5 SWAP2 SWAP1 PUSH2 0x744C JUMP JUMPDEST PUSH2 0x1E2B JUMPI PUSH1 0x40 MLOAD PUSH32 0x9A73AB4600000000000000000000000000000000000000000000000000000000 DUP2 MSTORE PUSH1 0x4 ADD PUSH1 0x40 MLOAD DUP1 SWAP2 SUB SWAP1 REVERT JUMPDEST PUSH0 DUP1 PUSH2 0x1E37 DUP10 DUP10 PUSH2 0x15DA JUMP JUMPDEST SWAP2 POP SWAP2 POP PUSH0 DUP3 DUP3 DUP10 PUSH1 0x40 MLOAD PUSH1 0x20 ADD PUSH2 0x1E51 SWAP4 SWAP3 SWAP2 SWAP1 PUSH2 0x75CF JUMP JUMPDEST PUSH1 0x40 MLOAD PUSH1 0x20 DUP2 DUP4 SUB SUB DUP2 MSTORE SWAP1 PUSH1 0x40 MSTORE DUP1 MLOAD SWAP1 PUSH1 0x20 ADD KECCAK256 SWAP1 POP PUSH2 0x1EE0 DUP5 PUSH20 0xFFFFFFFFFFFFFFFFFFFFFFFFFFFFFFFFFFFFFFFF AND PUSH4 0x5C60DA1B PUSH1 0x40 MLOAD DUP2 PUSH4 0xFFFFFFFF AND PUSH1 0xE0 SHL DUP2 MSTORE PUSH1 0x4 ADD PUSH1 0x20 PUSH1 0x40 MLOAD DUP1 DUP4 SUB DUP2 DUP7 GAS STATICCALL ISZERO DUP1 ISZERO PUSH2 0x1EB5 JUMPI RETURNDATASIZE PUSH0 DUP1 RETURNDATACOPY RETURNDATASIZE PUSH0 REVERT JUMPDEST POP POP POP POP PUSH1 0x40 MLOAD RETURNDATASIZE PUSH1 0x1F NOT PUSH1 0x1F DUP3 ADD AND DUP3 ADD DUP1 PUSH1 0x40 MSTORE POP DUP2 ADD SWAP1 PUSH2 0x1ED9 SWAP2 SWAP1 PUSH2 0x761F JUMP JUMPDEST DUP3 DUP7 PUSH2 0x4FBC JUMP JUMPDEST SWAP6 POP POP POP POP POP POP SWAP5 SWAP4 POP POP POP POP JUMP JUMPDEST DUP1 PUSH2 0x1EF9 DUP2 PUSH2 0x4195 JUMP JUMPDEST PUSH2 0x1FE7 DUP6 DUP6 PUSH0 DUP2 DUP2 LT PUSH2 0x1F0F JUMPI PUSH2 0x1F0E PUSH2 0x733C JUMP JUMPDEST JUMPDEST SWAP1 POP PUSH1 0x80 MUL ADD PUSH0 ADD PUSH1 0x20 DUP2 ADD SWAP1 PUSH2 0x1F26 SWAP2 SWAP1 PUSH2 0x6C4D JUMP JUMPDEST PUSH2 0x1F2E PUSH2 0x41D2 JUMP JUMPDEST PUSH2 0x1FE1 DUP9 DUP9 PUSH0 DUP2 DUP2 LT PUSH2 0x1F44 JUMPI PUSH2 0x1F43 PUSH2 0x733C JUMP JUMPDEST JUMPDEST SWAP1 POP PUSH1 0x80 MUL ADD PUSH0 ADD PUSH1 0x20 DUP2 ADD SWAP1 PUSH2 0x1F5B SWAP2 SWAP1 PUSH2 0x6C4D JUMP JUMPDEST DUP10 DUP10 PUSH0 DUP2 DUP2 LT PUSH2 0x1F6E JUMPI PUSH2 0x1F6D PUSH2 0x733C JUMP JUMPDEST JUMPDEST SWAP1 POP PUSH1 0x80 MUL ADD PUSH1 0x20 ADD PUSH1 0x20 DUP2 ADD SWAP1 PUSH2 0x1F86 SWAP2 SWAP1 PUSH2 0x6C4D JUMP JUMPDEST DUP11 DUP11 PUSH0 DUP2 DUP2 LT PUSH2 0x1F99 JUMPI PUSH2 0x1F98 PUSH2 0x733C JUMP JUMPDEST JUMPDEST SWAP1 POP PUSH1 0x80 MUL ADD PUSH1 0x40 ADD PUSH1 0x20 DUP2 ADD SWAP1 PUSH2 0x1FB1 SWAP2 SWAP1 PUSH2 0x73BB JUMP JUMPDEST DUP12 DUP12 PUSH0 DUP2 DUP2 LT PUSH2 0x1FC4 JUMPI PUSH2 0x1FC3 PUSH2 0x733C JUMP JUMPDEST JUMPDEST SWAP1 POP PUSH1 0x80 MUL ADD PUSH1 0x60 ADD PUSH1 0x20 DUP2 ADD SWAP1 PUSH2 0x1FDC SWAP2 SWAP1 PUSH2 0x6C4D JUMP JUMPDEST PUSH2 0x1CFA JUMP JUMPDEST DUP11 PUSH2 0x42C5 JUMP JUMPDEST PUSH0 PUSH1 0x1 DUP7 DUP7 SWAP1 POP PUSH2 0x1FF8 SWAP2 SWAP1 PUSH2 0x7309 JUMP JUMPDEST SWAP1 POP PUSH0 DUP7 DUP7 DUP4 DUP2 DUP2 LT PUSH2 0x200E JUMPI PUSH2 0x200D PUSH2 0x733C JUMP JUMPDEST JUMPDEST SWAP1 POP PUSH1 0x80 MUL ADD PUSH1 0x20 ADD PUSH1 0x20 DUP2 ADD SWAP1 PUSH2 0x2026 SWAP2 SWAP1 PUSH2 0x6C4D JUMP JUMPDEST PUSH20 0xFFFFFFFFFFFFFFFFFFFFFFFFFFFFFFFFFFFFFFFF AND PUSH4 0x70A08231 DUP7 PUSH1 0x40 MLOAD DUP3 PUSH4 0xFFFFFFFF AND PUSH1 0xE0 SHL DUP2 MSTORE PUSH1 0x4 ADD PUSH2 0x205E SWAP2 SWAP1 PUSH2 0x6685 JUMP JUMPDEST PUSH1 0x20 PUSH1 0x40 MLOAD DUP1 DUP4 SUB DUP2 DUP7 GAS STATICCALL ISZERO DUP1 ISZERO PUSH2 0x2079 JUMPI RETURNDATASIZE PUSH0 DUP1 RETURNDATACOPY RETURNDATASIZE PUSH0 REVERT JUMPDEST POP POP POP POP PUSH1 0x40 MLOAD RETURNDATASIZE PUSH1 0x1F NOT PUSH1 0x1F DUP3 ADD AND DUP3 ADD DUP1 PUSH1 0x40 MSTORE POP DUP2 ADD SWAP1 PUSH2 0x209D SWAP2 SWAP1 PUSH2 0x73E6 JUMP JUMPDEST SWAP1 POP PUSH2 0x20FE DUP8 DUP8 DUP1 DUP1 PUSH1 0x20 MUL PUSH1 0x20 ADD PUSH1 0x40 MLOAD SWAP1 DUP2 ADD PUSH1 0x40 MSTORE DUP1 SWAP4 SWAP3 SWAP2 SWAP1 DUP2 DUP2 MSTORE PUSH1 0x20 ADD PUSH0 SWAP1 JUMPDEST DUP3 DUP3 LT ISZERO PUSH2 0x20F3 JUMPI DUP5 DUP5 DUP4 SWAP1 POP PUSH1 0x80 MUL ADD DUP1 CALLDATASIZE SUB DUP2 ADD SWAP1 PUSH2 0x20E4 SWAP2 SWAP1 PUSH2 0x72B1 JUMP JUMPDEST DUP2 MSTORE PUSH1 0x20 ADD SWAP1 PUSH1 0x1 ADD SWAP1 PUSH2 0x20C3 JUMP JUMPDEST POP POP POP POP POP DUP7 PUSH2 0x4402 JUMP JUMPDEST DUP8 DUP2 DUP9 DUP9 DUP6 DUP2 DUP2 LT PUSH2 0x2113 JUMPI PUSH2 0x2112 PUSH2 0x733C JUMP JUMPDEST JUMPDEST SWAP1 POP PUSH1 0x80 MUL ADD PUSH1 0x20 ADD PUSH1 0x20 DUP2 ADD SWAP1 PUSH2 0x212B SWAP2 SWAP1 PUSH2 0x6C4D JUMP JUMPDEST PUSH20 0xFFFFFFFFFFFFFFFFFFFFFFFFFFFFFFFFFFFFFFFF AND PUSH4 0x70A08231 DUP9 PUSH1 0x40 MLOAD DUP3 PUSH4 0xFFFFFFFF AND PUSH1 0xE0 SHL DUP2 MSTORE PUSH1 0x4 ADD PUSH2 0x2163 SWAP2 SWAP1 PUSH2 0x6685 JUMP JUMPDEST PUSH1 0x20 PUSH1 0x40 MLOAD DUP1 DUP4 SUB DUP2 DUP7 GAS STATICCALL ISZERO DUP1 ISZERO PUSH2 0x217E JUMPI RETURNDATASIZE PUSH0 DUP1 RETURNDATACOPY RETURNDATASIZE PUSH0 REVERT JUMPDEST POP POP POP POP PUSH1 0x40 MLOAD RETURNDATASIZE PUSH1 0x1F NOT PUSH1 0x1F DUP3 ADD AND DUP3 ADD DUP1 PUSH1 0x40 MSTORE POP DUP2 ADD SWAP1 PUSH2 0x21A2 SWAP2 SWAP1 PUSH2 0x73E6 JUMP JUMPDEST PUSH2 0x21AC SWAP2 SWAP1 PUSH2 0x7309 JUMP JUMPDEST LT ISZERO PUSH2 0x21E4 JUMPI PUSH1 0x40 MLOAD PUSH32 0x42301C2300000000000000000000000000000000000000000000000000000000 DUP2 MSTORE PUSH1 0x4 ADD PUSH1 0x40 MLOAD DUP1 SWAP2 SUB SWAP1 REVERT JUMPDEST POP POP POP POP POP POP POP POP POP JUMP JUMPDEST PUSH0 DUP1 PUSH0 PUSH2 0x21FC DUP8 DUP8 PUSH2 0x15DA JUMP JUMPDEST POP SWAP1 POP PUSH0 DUP1 PUSH2 0x220D DUP10 DUP10 DUP10 DUP10 PUSH2 0x1CFA JUMP JUMPDEST PUSH20 0xFFFFFFFFFFFFFFFFFFFFFFFFFFFFFFFFFFFFFFFF AND PUSH4 0x902F1AC PUSH1 0x40 MLOAD DUP2 PUSH4 0xFFFFFFFF AND PUSH1 0xE0 SHL DUP2 MSTORE PUSH1 0x4 ADD PUSH1 0x60 PUSH1 0x40 MLOAD DUP1 DUP4 SUB DUP2 DUP7 GAS STATICCALL ISZERO DUP1 ISZERO PUSH2 0x2255 JUMPI RETURNDATASIZE PUSH0 DUP1 RETURNDATACOPY RETURNDATASIZE PUSH0 REVERT JUMPDEST POP POP POP POP PUSH1 0x40 MLOAD RETURNDATASIZE PUSH1 0x1F NOT PUSH1 0x1F DUP3 ADD AND DUP3 ADD DUP1 PUSH1 0x40 MSTORE POP DUP2 ADD SWAP1 PUSH2 0x2279 SWAP2 SWAP1 PUSH2 0x764A JUMP JUMPDEST POP SWAP2 POP SWAP2 POP DUP3 PUSH20 0xFFFFFFFFFFFFFFFFFFFFFFFFFFFFFFFFFFFFFFFF AND DUP10 PUSH20 0xFFFFFFFFFFFFFFFFFFFFFFFFFFFFFFFFFFFFFFFF AND EQ PUSH2 0x22B8 JUMPI DUP1 DUP3 PUSH2 0x22BB JUMP JUMPDEST DUP2 DUP2 JUMPDEST DUP1 SWAP6 POP DUP2 SWAP7 POP POP POP POP POP POP SWAP5 POP SWAP5 SWAP3 POP POP POP JUMP JUMPDEST PUSH1 0x60 DUP2 PUSH2 0x22DB DUP2 PUSH2 0x4195 JUMP JUMPDEST PUSH32 0x0 PUSH20 0xFFFFFFFFFFFFFFFFFFFFFFFFFFFFFFFFFFFFFFFF AND DUP7 DUP7 PUSH0 DUP2 DUP2 LT PUSH2 0x2325 JUMPI PUSH2 0x2324 PUSH2 0x733C JUMP JUMPDEST JUMPDEST SWAP1 POP PUSH1 0x80 MUL ADD PUSH0 ADD PUSH1 0x20 DUP2 ADD SWAP1 PUSH2 0x233C SWAP2 SWAP1 PUSH2 0x6C4D JUMP JUMPDEST PUSH20 0xFFFFFFFFFFFFFFFFFFFFFFFFFFFFFFFFFFFFFFFF AND EQ PUSH2 0x2389 JUMPI PUSH1 0x40 MLOAD PUSH32 0x20DB826700000000000000000000000000000000000000000000000000000000 DUP2 MSTORE PUSH1 0x4 ADD PUSH1 0x40 MLOAD DUP1 SWAP2 SUB SWAP1 REVERT JUMPDEST PUSH2 0x23E8 CALLVALUE DUP8 DUP8 DUP1 DUP1 PUSH1 0x20 MUL PUSH1 0x20 ADD PUSH1 0x40 MLOAD SWAP1 DUP2 ADD PUSH1 0x40 MSTORE DUP1 SWAP4 SWAP3 SWAP2 SWAP1 DUP2 DUP2 MSTORE PUSH1 0x20 ADD PUSH0 SWAP1 JUMPDEST DUP3 DUP3 LT ISZERO PUSH2 0x23DE JUMPI DUP5 DUP5 DUP4 SWAP1 POP PUSH1 0x80 MUL ADD DUP1 CALLDATASIZE SUB DUP2 ADD SWAP1 PUSH2 0x23CF SWAP2 SWAP1 PUSH2 0x72B1 JUMP JUMPDEST DUP2 MSTORE PUSH1 0x20 ADD SWAP1 PUSH1 0x1 ADD SWAP1 PUSH2 0x23AE JUMP JUMPDEST POP POP POP POP POP PUSH2 0x16F2 JUMP JUMPDEST SWAP2 POP DUP7 DUP3 PUSH1 0x1 DUP5 MLOAD PUSH2 0x23FA SWAP2 SWAP1 PUSH2 0x7309 JUMP JUMPDEST DUP2 MLOAD DUP2 LT PUSH2 0x240B JUMPI PUSH2 0x240A PUSH2 0x733C JUMP JUMPDEST JUMPDEST PUSH1 0x20 MUL PUSH1 0x20 ADD ADD MLOAD LT ISZERO PUSH2 0x244B JUMPI PUSH1 0x40 MLOAD PUSH32 0x42301C2300000000000000000000000000000000000000000000000000000000 DUP2 MSTORE PUSH1 0x4 ADD PUSH1 0x40 MLOAD DUP1 SWAP2 SUB SWAP1 REVERT JUMPDEST PUSH32 0x0 PUSH20 0xFFFFFFFFFFFFFFFFFFFFFFFFFFFFFFFFFFFFFFFF AND PUSH4 0xD0E30DB0 DUP4 PUSH0 DUP2 MLOAD DUP2 LT PUSH2 0x249A JUMPI PUSH2 0x2499 PUSH2 0x733C JUMP JUMPDEST JUMPDEST PUSH1 0x20 MUL PUSH1 0x20 ADD ADD MLOAD PUSH1 0x40 MLOAD DUP3 PUSH4 0xFFFFFFFF AND PUSH1 0xE0 SHL DUP2 MSTORE PUSH1 0x4 ADD PUSH0 PUSH1 0x40 MLOAD DUP1 DUP4 SUB DUP2 DUP6 DUP9 DUP1 EXTCODESIZE ISZERO DUP1 ISZERO PUSH2 0x24CB JUMPI PUSH0 DUP1 REVERT JUMPDEST POP GAS CALL ISZERO DUP1 ISZERO PUSH2 0x24DD JUMPI RETURNDATASIZE PUSH0 DUP1 RETURNDATACOPY RETURNDATASIZE PUSH0 REVERT JUMPDEST POP POP POP POP POP PUSH32 0x0 PUSH20 0xFFFFFFFFFFFFFFFFFFFFFFFFFFFFFFFFFFFFFFFF AND PUSH4 0xA9059CBB PUSH2 0x25D1 DUP9 DUP9 PUSH0 DUP2 DUP2 LT PUSH2 0x2534 JUMPI PUSH2 0x2533 PUSH2 0x733C JUMP JUMPDEST JUMPDEST SWAP1 POP PUSH1 0x80 MUL ADD PUSH0 ADD PUSH1 0x20 DUP2 ADD SWAP1 PUSH2 0x254B SWAP2 SWAP1 PUSH2 0x6C4D JUMP JUMPDEST DUP10 DUP10 PUSH0 DUP2 DUP2 LT PUSH2 0x255E JUMPI PUSH2 0x255D PUSH2 0x733C JUMP JUMPDEST JUMPDEST SWAP1 POP PUSH1 0x80 MUL ADD PUSH1 0x20 ADD PUSH1 0x20 DUP2 ADD SWAP1 PUSH2 0x2576 SWAP2 SWAP1 PUSH2 0x6C4D JUMP JUMPDEST DUP11 DUP11 PUSH0 DUP2 DUP2 LT PUSH2 0x2589 JUMPI PUSH2 0x2588 PUSH2 0x733C JUMP JUMPDEST JUMPDEST SWAP1 POP PUSH1 0x80 MUL ADD PUSH1 0x40 ADD PUSH1 0x20 DUP2 ADD SWAP1 PUSH2 0x25A1 SWAP2 SWAP1 PUSH2 0x73BB JUMP JUMPDEST DUP12 DUP12 PUSH0 DUP2 DUP2 LT PUSH2 0x25B4 JUMPI PUSH2 0x25B3 PUSH2 0x733C JUMP JUMPDEST JUMPDEST SWAP1 POP PUSH1 0x80 MUL ADD PUSH1 0x60 ADD PUSH1 0x20 DUP2 ADD SWAP1 PUSH2 0x25CC SWAP2 SWAP1 PUSH2 0x6C4D JUMP JUMPDEST PUSH2 0x1CFA JUMP JUMPDEST DUP5 PUSH0 DUP2 MLOAD DUP2 LT PUSH2 0x25E4 JUMPI PUSH2 0x25E3 PUSH2 0x733C JUMP JUMPDEST JUMPDEST PUSH1 0x20 MUL PUSH1 0x20 ADD ADD MLOAD PUSH1 0x40 MLOAD DUP4 PUSH4 0xFFFFFFFF AND PUSH1 0xE0 SHL DUP2 MSTORE PUSH1 0x4 ADD PUSH2 0x2609 SWAP3 SWAP2 SWAP1 PUSH2 0x7411 JUMP JUMPDEST PUSH1 0x20 PUSH1 0x40 MLOAD DUP1 DUP4 SUB DUP2 PUSH0 DUP8 GAS CALL ISZERO DUP1 ISZERO PUSH2 0x2625 JUMPI RETURNDATASIZE PUSH0 DUP1 RETURNDATACOPY RETURNDATASIZE PUSH0 REVERT JUMPDEST POP POP POP POP PUSH1 0x40 MLOAD RETURNDATASIZE PUSH1 0x1F NOT PUSH1 0x1F DUP3 ADD AND DUP3 ADD DUP1 PUSH1 0x40 MSTORE POP DUP2 ADD SWAP1 PUSH2 0x2649 SWAP2 SWAP1 PUSH2 0x744C JUMP JUMPDEST PUSH2 0x2656 JUMPI PUSH2 0x2655 PUSH2 0x7477 JUMP JUMPDEST JUMPDEST PUSH2 0x26B6 DUP3 DUP8 DUP8 DUP1 DUP1 PUSH1 0x20 MUL PUSH1 0x20 ADD PUSH1 0x40 MLOAD SWAP1 DUP2 ADD PUSH1 0x40 MSTORE DUP1 SWAP4 SWAP3 SWAP2 SWAP1 DUP2 DUP2 MSTORE PUSH1 0x20 ADD PUSH0 SWAP1 JUMPDEST DUP3 DUP3 LT ISZERO PUSH2 0x26AB JUMPI DUP5 DUP5 DUP4 SWAP1 POP PUSH1 0x80 MUL ADD DUP1 CALLDATASIZE SUB DUP2 ADD SWAP1 PUSH2 0x269C SWAP2 SWAP1 PUSH2 0x72B1 JUMP JUMPDEST DUP2 MSTORE PUSH1 0x20 ADD SWAP1 PUSH1 0x1 ADD SWAP1 PUSH2 0x267B JUMP JUMPDEST POP POP POP POP POP DUP7 PUSH2 0x49A0 JUMP JUMPDEST POP SWAP6 SWAP5 POP POP POP POP POP JUMP JUMPDEST PUSH0 DUP6 PUSH0 ADD PUSH1 0x20 DUP2 ADD SWAP1 PUSH2 0x26D3 SWAP2 SWAP1 PUSH2 0x6C4D JUMP JUMPDEST SWAP1 POP PUSH0 DUP7 PUSH1 0x20 ADD PUSH1 0x20 DUP2 ADD SWAP1 PUSH2 0x26E9 SWAP2 SWAP1 PUSH2 0x6C4D JUMP JUMPDEST SWAP1 POP PUSH0 PUSH20 0xEEEEEEEEEEEEEEEEEEEEEEEEEEEEEEEEEEEEEEEE PUSH20 0xFFFFFFFFFFFFFFFFFFFFFFFFFFFFFFFFFFFFFFFF AND DUP11 PUSH20 0xFFFFFFFFFFFFFFFFFFFFFFFFFFFFFFFFFFFFFFFF AND EQ PUSH2 0x2739 JUMPI DUP10 PUSH2 0x275B JUMP JUMPDEST PUSH32 0x0 JUMPDEST SWAP1 POP PUSH2 0x2767 DUP10 DUP10 PUSH2 0x501C JUMP JUMPDEST PUSH0 DUP2 PUSH20 0xFFFFFFFFFFFFFFFFFFFFFFFFFFFFFFFFFFFFFFFF AND DUP5 PUSH20 0xFFFFFFFFFFFFFFFFFFFFFFFFFFFFFFFFFFFFFFFF AND EQ PUSH2 0x2919 JUMPI DUP4 PUSH20 0xFFFFFFFFFFFFFFFFFFFFFFFFFFFFFFFFFFFFFFFF AND PUSH4 0x70A08231 ADDRESS PUSH1 0x40 MLOAD DUP3 PUSH4 0xFFFFFFFF AND PUSH1 0xE0 SHL DUP2 MSTORE PUSH1 0x4 ADD PUSH2 0x27D4 SWAP2 SWAP1 PUSH2 0x6685 JUMP JUMPDEST PUSH1 0x20 PUSH1 0x40 MLOAD DUP1 DUP4 SUB DUP2 DUP7 GAS STATICCALL ISZERO DUP1 ISZERO PUSH2 0x27EF JUMPI RETURNDATASIZE PUSH0 DUP1 RETURNDATACOPY RETURNDATASIZE PUSH0 REVERT JUMPDEST POP POP POP POP PUSH1 0x40 MLOAD RETURNDATASIZE PUSH1 0x1F NOT PUSH1 0x1F DUP3 ADD AND DUP3 ADD DUP1 PUSH1 0x40 MSTORE POP DUP2 ADD SWAP1 PUSH2 0x2813 SWAP2 SWAP1 PUSH2 0x73E6 JUMP JUMPDEST SWAP1 POP DUP2 PUSH20 0xFFFFFFFFFFFFFFFFFFFFFFFFFFFFFFFFFFFFFFFF AND DUP9 DUP9 PUSH1 0x1 DUP12 DUP12 SWAP1 POP PUSH2 0x283E SWAP2 SWAP1 PUSH2 0x7309 JUMP JUMPDEST DUP2 DUP2 LT PUSH2 0x284E JUMPI PUSH2 0x284D PUSH2 0x733C JUMP JUMPDEST JUMPDEST SWAP1 POP PUSH1 0x80 MUL ADD PUSH1 0x20 ADD PUSH1 0x20 DUP2 ADD SWAP1 PUSH2 0x2866 SWAP2 SWAP1 PUSH2 0x6C4D JUMP JUMPDEST PUSH20 0xFFFFFFFFFFFFFFFFFFFFFFFFFFFFFFFFFFFFFFFF AND EQ PUSH2 0x28B3 JUMPI PUSH1 0x40 MLOAD PUSH32 0x4EA0E33800000000000000000000000000000000000000000000000000000000 DUP2 MSTORE PUSH1 0x4 ADD PUSH1 0x40 MLOAD DUP1 SWAP2 SUB SWAP1 REVERT JUMPDEST PUSH2 0x2918 DUP5 DUP3 DUP12 PUSH1 0x80 ADD CALLDATALOAD DUP12 DUP12 DUP1 DUP1 PUSH1 0x20 MUL PUSH1 0x20 ADD PUSH1 0x40 MLOAD SWAP1 DUP2 ADD PUSH1 0x40 MSTORE DUP1 SWAP4 SWAP3 SWAP2 SWAP1 DUP2 DUP2 MSTORE PUSH1 0x20 ADD PUSH0 SWAP1 JUMPDEST DUP3 DUP3 LT ISZERO PUSH2 0x290E JUMPI DUP5 DUP5 DUP4 SWAP1 POP PUSH1 0x80 MUL ADD DUP1 CALLDATASIZE SUB DUP2 ADD SWAP1 PUSH2 0x28FF SWAP2 SWAP1 PUSH2 0x72B1 JUMP JUMPDEST DUP2 MSTORE PUSH1 0x20 ADD SWAP1 PUSH1 0x1 ADD SWAP1 PUSH2 0x28DE JUMP JUMPDEST POP POP POP POP POP PUSH2 0x51FE JUMP JUMPDEST JUMPDEST DUP2 PUSH20 0xFFFFFFFFFFFFFFFFFFFFFFFFFFFFFFFFFFFFFFFF AND DUP4 PUSH20 0xFFFFFFFFFFFFFFFFFFFFFFFFFFFFFFFFFFFFFFFF AND EQ PUSH2 0x2ACA JUMPI DUP3 PUSH20 0xFFFFFFFFFFFFFFFFFFFFFFFFFFFFFFFFFFFFFFFF AND PUSH4 0x70A08231 ADDRESS PUSH1 0x40 MLOAD DUP3 PUSH4 0xFFFFFFFF AND PUSH1 0xE0 SHL DUP2 MSTORE PUSH1 0x4 ADD PUSH2 0x2985 SWAP2 SWAP1 PUSH2 0x6685 JUMP JUMPDEST PUSH1 0x20 PUSH1 0x40 MLOAD DUP1 DUP4 SUB DUP2 DUP7 GAS STATICCALL ISZERO DUP1 ISZERO PUSH2 0x29A0 JUMPI RETURNDATASIZE PUSH0 DUP1 RETURNDATACOPY RETURNDATASIZE PUSH0 REVERT JUMPDEST POP POP POP POP PUSH1 0x40 MLOAD RETURNDATASIZE PUSH1 0x1F NOT PUSH1 0x1F DUP3 ADD AND DUP3 ADD DUP1 PUSH1 0x40 MSTORE POP DUP2 ADD SWAP1 PUSH2 0x29C4 SWAP2 SWAP1 PUSH2 0x73E6 JUMP JUMPDEST SWAP1 POP DUP2 PUSH20 0xFFFFFFFFFFFFFFFFFFFFFFFFFFFFFFFFFFFFFFFF AND DUP7 DUP7 PUSH1 0x1 DUP10 DUP10 SWAP1 POP PUSH2 0x29EF SWAP2 SWAP1 PUSH2 0x7309 JUMP JUMPDEST DUP2 DUP2 LT PUSH2 0x29FF JUMPI PUSH2 0x29FE PUSH2 0x733C JUMP JUMPDEST JUMPDEST SWAP1 POP PUSH1 0x80 MUL ADD PUSH1 0x20 ADD PUSH1 0x20 DUP2 ADD SWAP1 PUSH2 0x2A17 SWAP2 SWAP1 PUSH2 0x6C4D JUMP JUMPDEST PUSH20 0xFFFFFFFFFFFFFFFFFFFFFFFFFFFFFFFFFFFFFFFF AND EQ PUSH2 0x2A64 JUMPI PUSH1 0x40 MLOAD PUSH32 0xCAC9040C00000000000000000000000000000000000000000000000000000000 DUP2 MSTORE PUSH1 0x4 ADD PUSH1 0x40 MLOAD DUP1 SWAP2 SUB SWAP1 REVERT JUMPDEST PUSH2 0x2AC9 DUP4 DUP3 DUP12 PUSH1 0xA0 ADD CALLDATALOAD DUP10 DUP10 DUP1 DUP1 PUSH1 0x20 MUL PUSH1 0x20 ADD PUSH1 0x40 MLOAD SWAP1 DUP2 ADD PUSH1 0x40 MSTORE DUP1 SWAP4 SWAP3 SWAP2 SWAP1 DUP2 DUP2 MSTORE PUSH1 0x20 ADD PUSH0 SWAP1 JUMPDEST DUP3 DUP3 LT ISZERO PUSH2 0x2ABF JUMPI DUP5 DUP5 DUP4 SWAP1 POP PUSH1 0x80 MUL ADD DUP1 CALLDATASIZE SUB DUP2 ADD SWAP1 PUSH2 0x2AB0 SWAP2 SWAP1 PUSH2 0x72B1 JUMP JUMPDEST DUP2 MSTORE PUSH1 0x20 ADD SWAP1 PUSH1 0x1 ADD SWAP1 PUSH2 0x2A8F JUMP JUMPDEST POP POP POP POP POP PUSH2 0x51FE JUMP JUMPDEST JUMPDEST PUSH2 0x2AD3 DUP12 PUSH2 0x5310 JUMP JUMPDEST POP POP POP POP POP POP POP POP POP POP POP JUMP JUMPDEST PUSH0 DUP1 PUSH0 DUP4 PUSH2 0x2AED DUP2 PUSH2 0x4195 JUMP JUMPDEST PUSH2 0x2B1C DUP12 PUSH32 0x0 DUP13 DUP13 CALLVALUE DUP14 DUP14 PUSH2 0x4CAC JUMP JUMPDEST DUP1 SWAP5 POP DUP2 SWAP6 POP POP POP PUSH0 PUSH2 0x2B71 DUP13 PUSH32 0x0 DUP14 PUSH32 0x0 PUSH2 0x1CFA JUMP JUMPDEST SWAP1 POP PUSH2 0x2B86 DUP13 PUSH2 0x2B7F PUSH2 0x41D2 JUMP JUMPDEST DUP4 DUP9 PUSH2 0x42C5 JUMP JUMPDEST PUSH32 0x0 PUSH20 0xFFFFFFFFFFFFFFFFFFFFFFFFFFFFFFFFFFFFFFFF AND PUSH4 0xD0E30DB0 DUP6 PUSH1 0x40 MLOAD DUP3 PUSH4 0xFFFFFFFF AND PUSH1 0xE0 SHL DUP2 MSTORE PUSH1 0x4 ADD PUSH0 PUSH1 0x40 MLOAD DUP1 DUP4 SUB DUP2 DUP6 DUP9 DUP1 EXTCODESIZE ISZERO DUP1 ISZERO PUSH2 0x2BEC JUMPI PUSH0 DUP1 REVERT JUMPDEST POP GAS CALL ISZERO DUP1 ISZERO PUSH2 0x2BFE JUMPI RETURNDATASIZE PUSH0 DUP1 RETURNDATACOPY RETURNDATASIZE PUSH0 REVERT JUMPDEST POP POP POP POP POP PUSH32 0x0 PUSH20 0xFFFFFFFFFFFFFFFFFFFFFFFFFFFFFFFFFFFFFFFF AND PUSH4 0xA9059CBB DUP3 DUP7 PUSH1 0x40 MLOAD DUP4 PUSH4 0xFFFFFFFF AND PUSH1 0xE0 SHL DUP2 MSTORE PUSH1 0x4 ADD PUSH2 0x2C5E SWAP3 SWAP2 SWAP1 PUSH2 0x7411 JUMP JUMPDEST PUSH1 0x20 PUSH1 0x40 MLOAD DUP1 DUP4 SUB DUP2 PUSH0 DUP8 GAS CALL ISZERO DUP1 ISZERO PUSH2 0x2C7A JUMPI RETURNDATASIZE PUSH0 DUP1 RETURNDATACOPY RETURNDATASIZE PUSH0 REVERT JUMPDEST POP POP POP POP PUSH1 0x40 MLOAD RETURNDATASIZE PUSH1 0x1F NOT PUSH1 0x1F DUP3 ADD AND DUP3 ADD DUP1 PUSH1 0x40 MSTORE POP DUP2 ADD SWAP1 PUSH2 0x2C9E SWAP2 SWAP1 PUSH2 0x744C JUMP JUMPDEST PUSH2 0x2CAB JUMPI PUSH2 0x2CAA PUSH2 0x7477 JUMP JUMPDEST JUMPDEST DUP1 PUSH20 0xFFFFFFFFFFFFFFFFFFFFFFFFFFFFFFFFFFFFFFFF AND PUSH4 0x6A627842 DUP9 PUSH1 0x40 MLOAD DUP3 PUSH4 0xFFFFFFFF AND PUSH1 0xE0 SHL DUP2 MSTORE PUSH1 0x4 ADD PUSH2 0x2CE4 SWAP2 SWAP1 PUSH2 0x6685 JUMP JUMPDEST PUSH1 0x20 PUSH1 0x40 MLOAD DUP1 DUP4 SUB DUP2 PUSH0 DUP8 GAS CALL ISZERO DUP1 ISZERO PUSH2 0x2D00 JUMPI RETURNDATASIZE PUSH0 DUP1 RETURNDATACOPY RETURNDATASIZE PUSH0 REVERT JUMPDEST POP POP POP POP PUSH1 0x40 MLOAD RETURNDATASIZE PUSH1 0x1F NOT PUSH1 0x1F DUP3 ADD AND DUP3 ADD DUP1 PUSH1 0x40 MSTORE POP DUP2 ADD SWAP1 PUSH2 0x2D24 SWAP2 SWAP1 PUSH2 0x73E6 JUMP JUMPDEST SWAP3 POP DUP4 CALLVALUE GT ISZERO PUSH2 0x2D4B JUMPI PUSH2 0x2D4A PUSH2 0x2D39 PUSH2 0x41D2 JUMP JUMPDEST DUP6 CALLVALUE PUSH2 0x2D45 SWAP2 SWAP1 PUSH2 0x7309 JUMP JUMPDEST PUSH2 0x48AE JUMP JUMPDEST JUMPDEST POP POP SWAP8 POP SWAP8 POP SWAP8 SWAP5 POP POP POP POP POP JUMP JUMPDEST PUSH1 0x60 DUP2 PUSH2 0x2D66 DUP2 PUSH2 0x4195 JUMP JUMPDEST PUSH32 0x0 PUSH20 0xFFFFFFFFFFFFFFFFFFFFFFFFFFFFFFFFFFFFFFFF AND DUP7 DUP7 PUSH1 0x1 DUP10 DUP10 SWAP1 POP PUSH2 0x2DAF SWAP2 SWAP1 PUSH2 0x7309 JUMP JUMPDEST DUP2 DUP2 LT PUSH2 0x2DBF JUMPI PUSH2 0x2DBE PUSH2 0x733C JUMP JUMPDEST JUMPDEST SWAP1 POP PUSH1 0x80 MUL ADD PUSH1 0x20 ADD PUSH1 0x20 DUP2 ADD SWAP1 PUSH2 0x2DD7 SWAP2 SWAP1 PUSH2 0x6C4D JUMP JUMPDEST PUSH20 0xFFFFFFFFFFFFFFFFFFFFFFFFFFFFFFFFFFFFFFFF AND EQ PUSH2 0x2E24 JUMPI PUSH1 0x40 MLOAD PUSH32 0x20DB826700000000000000000000000000000000000000000000000000000000 DUP2 MSTORE PUSH1 0x4 ADD PUSH1 0x40 MLOAD DUP1 SWAP2 SUB SWAP1 REVERT JUMPDEST PUSH2 0x2E83 DUP9 DUP8 DUP8 DUP1 DUP1 PUSH1 0x20 MUL PUSH1 0x20 ADD PUSH1 0x40 MLOAD SWAP1 DUP2 ADD PUSH1 0x40 MSTORE DUP1 SWAP4 SWAP3 SWAP2 SWAP1 DUP2 DUP2 MSTORE PUSH1 0x20 ADD PUSH0 SWAP1 JUMPDEST DUP3 DUP3 LT ISZERO PUSH2 0x2E79 JUMPI DUP5 DUP5 DUP4 SWAP1 POP PUSH1 0x80 MUL ADD DUP1 CALLDATASIZE SUB DUP2 ADD SWAP1 PUSH2 0x2E6A SWAP2 SWAP1 PUSH2 0x72B1 JUMP JUMPDEST DUP2 MSTORE PUSH1 0x20 ADD SWAP1 PUSH1 0x1 ADD SWAP1 PUSH2 0x2E49 JUMP JUMPDEST POP POP POP POP POP PUSH2 0x16F2 JUMP JUMPDEST SWAP2 POP DUP7 DUP3 PUSH1 0x1 DUP5 MLOAD PUSH2 0x2E95 SWAP2 SWAP1 PUSH2 0x7309 JUMP JUMPDEST DUP2 MLOAD DUP2 LT PUSH2 0x2EA6 JUMPI PUSH2 0x2EA5 PUSH2 0x733C JUMP JUMPDEST JUMPDEST PUSH1 0x20 MUL PUSH1 0x20 ADD ADD MLOAD LT ISZERO PUSH2 0x2EE6 JUMPI PUSH1 0x40 MLOAD PUSH32 0x42301C2300000000000000000000000000000000000000000000000000000000 DUP2 MSTORE PUSH1 0x4 ADD PUSH1 0x40 MLOAD DUP1 SWAP2 SUB SWAP1 REVERT JUMPDEST PUSH2 0x2FEE DUP7 DUP7 PUSH0 DUP2 DUP2 LT PUSH2 0x2EFC JUMPI PUSH2 0x2EFB PUSH2 0x733C JUMP JUMPDEST JUMPDEST SWAP1 POP PUSH1 0x80 MUL ADD PUSH0 ADD PUSH1 0x20 DUP2 ADD SWAP1 PUSH2 0x2F13 SWAP2 SWAP1 PUSH2 0x6C4D JUMP JUMPDEST PUSH2 0x2F1B PUSH2 0x41D2 JUMP JUMPDEST PUSH2 0x2FCE DUP10 DUP10 PUSH0 DUP2 DUP2 LT PUSH2 0x2F31 JUMPI PUSH2 0x2F30 PUSH2 0x733C JUMP JUMPDEST JUMPDEST SWAP1 POP PUSH1 0x80 MUL ADD PUSH0 ADD PUSH1 0x20 DUP2 ADD SWAP1 PUSH2 0x2F48 SWAP2 SWAP1 PUSH2 0x6C4D JUMP JUMPDEST DUP11 DUP11 PUSH0 DUP2 DUP2 LT PUSH2 0x2F5B JUMPI PUSH2 0x2F5A PUSH2 0x733C JUMP JUMPDEST JUMPDEST SWAP1 POP PUSH1 0x80 MUL ADD PUSH1 0x20 ADD PUSH1 0x20 DUP2 ADD SWAP1 PUSH2 0x2F73 SWAP2 SWAP1 PUSH2 0x6C4D JUMP JUMPDEST DUP12 DUP12 PUSH0 DUP2 DUP2 LT PUSH2 0x2F86 JUMPI PUSH2 0x2F85 PUSH2 0x733C JUMP JUMPDEST JUMPDEST SWAP1 POP PUSH1 0x80 MUL ADD PUSH1 0x40 ADD PUSH1 0x20 DUP2 ADD SWAP1 PUSH2 0x2F9E SWAP2 SWAP1 PUSH2 0x73BB JUMP JUMPDEST DUP13 DUP13 PUSH0 DUP2 DUP2 LT PUSH2 0x2FB1 JUMPI PUSH2 0x2FB0 PUSH2 0x733C JUMP JUMPDEST JUMPDEST SWAP1 POP PUSH1 0x80 MUL ADD PUSH1 0x60 ADD PUSH1 0x20 DUP2 ADD SWAP1 PUSH2 0x2FC9 SWAP2 SWAP1 PUSH2 0x6C4D JUMP JUMPDEST PUSH2 0x1CFA JUMP JUMPDEST DUP6 PUSH0 DUP2 MLOAD DUP2 LT PUSH2 0x2FE1 JUMPI PUSH2 0x2FE0 PUSH2 0x733C JUMP JUMPDEST JUMPDEST PUSH1 0x20 MUL PUSH1 0x20 ADD ADD MLOAD PUSH2 0x42C5 JUMP JUMPDEST PUSH2 0x304E DUP3 DUP8 DUP8 DUP1 DUP1 PUSH1 0x20 MUL PUSH1 0x20 ADD PUSH1 0x40 MLOAD SWAP1 DUP2 ADD PUSH1 0x40 MSTORE DUP1 SWAP4 SWAP3 SWAP2 SWAP1 DUP2 DUP2 MSTORE PUSH1 0x20 ADD PUSH0 SWAP1 JUMPDEST DUP3 DUP3 LT ISZERO PUSH2 0x3043 JUMPI DUP5 DUP5 DUP4 SWAP1 POP PUSH1 0x80 MUL ADD DUP1 CALLDATASIZE SUB DUP2 ADD SWAP1 PUSH2 0x3034 SWAP2 SWAP1 PUSH2 0x72B1 JUMP JUMPDEST DUP2 MSTORE PUSH1 0x20 ADD SWAP1 PUSH1 0x1 ADD SWAP1 PUSH2 0x3013 JUMP JUMPDEST POP POP POP POP POP ADDRESS PUSH2 0x49A0 JUMP JUMPDEST PUSH32 0x0 PUSH20 0xFFFFFFFFFFFFFFFFFFFFFFFFFFFFFFFFFFFFFFFF AND PUSH4 0x2E1A7D4D DUP4 PUSH1 0x1 DUP6 MLOAD PUSH2 0x3099 SWAP2 SWAP1 PUSH2 0x7309 JUMP JUMPDEST DUP2 MLOAD DUP2 LT PUSH2 0x30AA JUMPI PUSH2 0x30A9 PUSH2 0x733C JUMP JUMPDEST JUMPDEST PUSH1 0x20 MUL PUSH1 0x20 ADD ADD MLOAD PUSH1 0x40 MLOAD DUP3 PUSH4 0xFFFFFFFF AND PUSH1 0xE0 SHL DUP2 MSTORE PUSH1 0x4 ADD PUSH2 0x30CE SWAP2 SWAP1 PUSH2 0x71A3 JUMP JUMPDEST PUSH0 PUSH1 0x40 MLOAD DUP1 DUP4 SUB DUP2 PUSH0 DUP8 DUP1 EXTCODESIZE ISZERO DUP1 ISZERO PUSH2 0x30E5 JUMPI PUSH0 DUP1 REVERT JUMPDEST POP GAS CALL ISZERO DUP1 ISZERO PUSH2 0x30F7 JUMPI RETURNDATASIZE PUSH0 DUP1 RETURNDATACOPY RETURNDATASIZE PUSH0 REVERT JUMPDEST POP POP POP POP PUSH2 0x312C DUP5 DUP4 PUSH1 0x1 DUP6 MLOAD PUSH2 0x310E SWAP2 SWAP1 PUSH2 0x7309 JUMP JUMPDEST DUP2 MLOAD DUP2 LT PUSH2 0x311F JUMPI PUSH2 0x311E PUSH2 0x733C JUMP JUMPDEST JUMPDEST PUSH1 0x20 MUL PUSH1 0x20 ADD ADD MLOAD PUSH2 0x48AE JUMP JUMPDEST POP SWAP7 SWAP6 POP POP POP POP POP POP JUMP JUMPDEST PUSH0 DUP1 PUSH0 DUP5 PUSH20 0xFFFFFFFFFFFFFFFFFFFFFFFFFFFFFFFFFFFFFFFF AND PUSH4 0x79BC57D5 DUP10 DUP10 DUP10 PUSH1 0x40 MLOAD DUP5 PUSH4 0xFFFFFFFF AND PUSH1 0xE0 SHL DUP2 MSTORE PUSH1 0x4 ADD PUSH2 0x3177 SWAP4 SWAP3 SWAP2 SWAP1 PUSH2 0x769A JUMP JUMPDEST PUSH1 0x20 PUSH1 0x40 MLOAD DUP1 DUP4 SUB DUP2 DUP7 GAS STATICCALL ISZERO DUP1 ISZERO PUSH2 0x3192 JUMPI RETURNDATASIZE PUSH0 DUP1 RETURNDATACOPY RETURNDATASIZE PUSH0 REVERT JUMPDEST POP POP POP POP PUSH1 0x40 MLOAD RETURNDATASIZE PUSH1 0x1F NOT PUSH1 0x1F DUP3 ADD AND DUP3 ADD DUP1 PUSH1 0x40 MSTORE POP DUP2 ADD SWAP1 PUSH2 0x31B6 SWAP2 SWAP1 PUSH2 0x761F JUMP JUMPDEST SWAP1 POP PUSH0 PUSH20 0xFFFFFFFFFFFFFFFFFFFFFFFFFFFFFFFFFFFFFFFF AND DUP2 PUSH20 0xFFFFFFFFFFFFFFFFFFFFFFFFFFFFFFFFFFFFFFFF AND SUB PUSH2 0x31F7 JUMPI PUSH0 DUP1 SWAP3 POP SWAP3 POP POP PUSH2 0x32B0 JUMP JUMPDEST PUSH0 DUP1 PUSH2 0x3205 DUP11 DUP11 DUP11 DUP11 PUSH2 0x21EF JUMP JUMPDEST SWAP2 POP SWAP2 POP PUSH0 DUP4 PUSH20 0xFFFFFFFFFFFFFFFFFFFFFFFFFFFFFFFFFFFFFFFF AND PUSH4 0x18160DDD PUSH1 0x40 MLOAD DUP2 PUSH4 0xFFFFFFFF AND PUSH1 0xE0 SHL DUP2 MSTORE PUSH1 0x4 ADD PUSH1 0x20 PUSH1 0x40 MLOAD DUP1 DUP4 SUB DUP2 DUP7 GAS STATICCALL ISZERO DUP1 ISZERO PUSH2 0x3253 JUMPI RETURNDATASIZE PUSH0 DUP1 RETURNDATACOPY RETURNDATASIZE PUSH0 REVERT JUMPDEST POP POP POP POP PUSH1 0x40 MLOAD RETURNDATASIZE PUSH1 0x1F NOT PUSH1 0x1F DUP3 ADD AND DUP3 ADD DUP1 PUSH1 0x40 MSTORE POP DUP2 ADD SWAP1 PUSH2 0x3277 SWAP2 SWAP1 PUSH2 0x73E6 JUMP JUMPDEST SWAP1 POP DUP1 DUP4 DUP9 PUSH2 0x3286 SWAP2 SWAP1 PUSH2 0x76CF JUMP JUMPDEST PUSH2 0x3290 SWAP2 SWAP1 PUSH2 0x773D JUMP JUMPDEST SWAP6 POP DUP1 DUP3 DUP9 PUSH2 0x329F SWAP2 SWAP1 PUSH2 0x76CF JUMP JUMPDEST PUSH2 0x32A9 SWAP2 SWAP1 PUSH2 0x773D JUMP JUMPDEST SWAP5 POP POP POP POP POP JUMPDEST SWAP6 POP SWAP6 SWAP4 POP POP POP POP JUMP JUMPDEST PUSH1 0x60 DUP2 PUSH2 0x32C6 DUP2 PUSH2 0x4195 JUMP JUMPDEST PUSH2 0x3325 DUP9 DUP8 DUP8 DUP1 DUP1 PUSH1 0x20 MUL PUSH1 0x20 ADD PUSH1 0x40 MLOAD SWAP1 DUP2 ADD PUSH1 0x40 MSTORE DUP1 SWAP4 SWAP3 SWAP2 SWAP1 DUP2 DUP2 MSTORE PUSH1 0x20 ADD PUSH0 SWAP1 JUMPDEST DUP3 DUP3 LT ISZERO PUSH2 0x331B JUMPI DUP5 DUP5 DUP4 SWAP1 POP PUSH1 0x80 MUL ADD DUP1 CALLDATASIZE SUB DUP2 ADD SWAP1 PUSH2 0x330C SWAP2 SWAP1 PUSH2 0x72B1 JUMP JUMPDEST DUP2 MSTORE PUSH1 0x20 ADD SWAP1 PUSH1 0x1 ADD SWAP1 PUSH2 0x32EB JUMP JUMPDEST POP POP POP POP POP PUSH2 0x16F2 JUMP JUMPDEST SWAP2 POP DUP7 DUP3 PUSH1 0x1 DUP5 MLOAD PUSH2 0x3337 SWAP2 SWAP1 PUSH2 0x7309 JUMP JUMPDEST DUP2 MLOAD DUP2 LT PUSH2 0x3348 JUMPI PUSH2 0x3347 PUSH2 0x733C JUMP JUMPDEST JUMPDEST PUSH1 0x20 MUL PUSH1 0x20 ADD ADD MLOAD LT ISZERO PUSH2 0x3388 JUMPI PUSH1 0x40 MLOAD PUSH32 0x42301C2300000000000000000000000000000000000000000000000000000000 DUP2 MSTORE PUSH1 0x4 ADD PUSH1 0x40 MLOAD DUP1 SWAP2 SUB SWAP1 REVERT JUMPDEST PUSH2 0x3490 DUP7 DUP7 PUSH0 DUP2 DUP2 LT PUSH2 0x339E JUMPI PUSH2 0x339D PUSH2 0x733C JUMP JUMPDEST JUMPDEST SWAP1 POP PUSH1 0x80 MUL ADD PUSH0 ADD PUSH1 0x20 DUP2 ADD SWAP1 PUSH2 0x33B5 SWAP2 SWAP1 PUSH2 0x6C4D JUMP JUMPDEST PUSH2 0x33BD PUSH2 0x41D2 JUMP JUMPDEST PUSH2 0x3470 DUP10 DUP10 PUSH0 DUP2 DUP2 LT PUSH2 0x33D3 JUMPI PUSH2 0x33D2 PUSH2 0x733C JUMP JUMPDEST JUMPDEST SWAP1 POP PUSH1 0x80 MUL ADD PUSH0 ADD PUSH1 0x20 DUP2 ADD SWAP1 PUSH2 0x33EA SWAP2 SWAP1 PUSH2 0x6C4D JUMP JUMPDEST DUP11 DUP11 PUSH0 DUP2 DUP2 LT PUSH2 0x33FD JUMPI PUSH2 0x33FC PUSH2 0x733C JUMP JUMPDEST JUMPDEST SWAP1 POP PUSH1 0x80 MUL ADD PUSH1 0x20 ADD PUSH1 0x20 DUP2 ADD SWAP1 PUSH2 0x3415 SWAP2 SWAP1 PUSH2 0x6C4D JUMP JUMPDEST DUP12 DUP12 PUSH0 DUP2 DUP2 LT PUSH2 0x3428 JUMPI PUSH2 0x3427 PUSH2 0x733C JUMP JUMPDEST JUMPDEST SWAP1 POP PUSH1 0x80 MUL ADD PUSH1 0x40 ADD PUSH1 0x20 DUP2 ADD SWAP1 PUSH2 0x3440 SWAP2 SWAP1 PUSH2 0x73BB JUMP JUMPDEST DUP13 DUP13 PUSH0 DUP2 DUP2 LT PUSH2 0x3453 JUMPI PUSH2 0x3452 PUSH2 0x733C JUMP JUMPDEST JUMPDEST SWAP1 POP PUSH1 0x80 MUL ADD PUSH1 0x60 ADD PUSH1 0x20 DUP2 ADD SWAP1 PUSH2 0x346B SWAP2 SWAP1 PUSH2 0x6C4D JUMP JUMPDEST PUSH2 0x1CFA JUMP JUMPDEST DUP6 PUSH0 DUP2 MLOAD DUP2 LT PUSH2 0x3483 JUMPI PUSH2 0x3482 PUSH2 0x733C JUMP JUMPDEST JUMPDEST PUSH1 0x20 MUL PUSH1 0x20 ADD ADD MLOAD PUSH2 0x42C5 JUMP JUMPDEST PUSH2 0x34F0 DUP3 DUP8 DUP8 DUP1 DUP1 PUSH1 0x20 MUL PUSH1 0x20 ADD PUSH1 0x40 MLOAD SWAP1 DUP2 ADD PUSH1 0x40 MSTORE DUP1 SWAP4 SWAP3 SWAP2 SWAP1 DUP2 DUP2 MSTORE PUSH1 0x20 ADD PUSH0 SWAP1 JUMPDEST DUP3 DUP3 LT ISZERO PUSH2 0x34E5 JUMPI DUP5 DUP5 DUP4 SWAP1 POP PUSH1 0x80 MUL ADD DUP1 CALLDATASIZE SUB DUP2 ADD SWAP1 PUSH2 0x34D6 SWAP2 SWAP1 PUSH2 0x72B1 JUMP JUMPDEST DUP2 MSTORE PUSH1 0x20 ADD SWAP1 PUSH1 0x1 ADD SWAP1 PUSH2 0x34B5 JUMP JUMPDEST POP POP POP POP POP DUP7 PUSH2 0x49A0 JUMP JUMPDEST POP SWAP7 SWAP6 POP POP POP POP POP POP JUMP JUMPDEST PUSH0 DUP1 PUSH0 DUP1 DUP7 PUSH20 0xFFFFFFFFFFFFFFFFFFFFFFFFFFFFFFFFFFFFFFFF AND PUSH4 0x79BC57D5 DUP12 DUP12 DUP12 PUSH1 0x40 MLOAD DUP5 PUSH4 0xFFFFFFFF AND PUSH1 0xE0 SHL DUP2 MSTORE PUSH1 0x4 ADD PUSH2 0x353C SWAP4 SWAP3 SWAP2 SWAP1 PUSH2 0x769A JUMP JUMPDEST PUSH1 0x20 PUSH1 0x40 MLOAD DUP1 DUP4 SUB DUP2 DUP7 GAS STATICCALL ISZERO DUP1 ISZERO PUSH2 0x3557 JUMPI RETURNDATASIZE PUSH0 DUP1 RETURNDATACOPY RETURNDATASIZE PUSH0 REVERT JUMPDEST POP POP POP POP PUSH1 0x40 MLOAD RETURNDATASIZE PUSH1 0x1F NOT PUSH1 0x1F DUP3 ADD AND DUP3 ADD DUP1 PUSH1 0x40 MSTORE POP DUP2 ADD SWAP1 PUSH2 0x357B SWAP2 SWAP1 PUSH2 0x761F JUMP JUMPDEST SWAP1 POP PUSH0 DUP1 PUSH0 DUP1 SWAP2 POP SWAP2 POP PUSH0 DUP1 PUSH20 0xFFFFFFFFFFFFFFFFFFFFFFFFFFFFFFFFFFFFFFFF AND DUP5 PUSH20 0xFFFFFFFFFFFFFFFFFFFFFFFFFFFFFFFFFFFFFFFF AND EQ PUSH2 0x363D JUMPI DUP4 PUSH20 0xFFFFFFFFFFFFFFFFFFFFFFFFFFFFFFFFFFFFFFFF AND PUSH4 0x18160DDD PUSH1 0x40 MLOAD DUP2 PUSH4 0xFFFFFFFF AND PUSH1 0xE0 SHL DUP2 MSTORE PUSH1 0x4 ADD PUSH1 0x20 PUSH1 0x40 MLOAD DUP1 DUP4 SUB DUP2 DUP7 GAS STATICCALL ISZERO DUP1 ISZERO PUSH2 0x3602 JUMPI RETURNDATASIZE PUSH0 DUP1 RETURNDATACOPY RETURNDATASIZE PUSH0 REVERT JUMPDEST POP POP POP POP PUSH1 0x40 MLOAD RETURNDATASIZE PUSH1 0x1F NOT PUSH1 0x1F DUP3 ADD AND DUP3 ADD DUP1 PUSH1 0x40 MSTORE POP DUP2 ADD SWAP1 PUSH2 0x3626 SWAP2 SWAP1 PUSH2 0x73E6 JUMP JUMPDEST SWAP1 POP PUSH2 0x3634 DUP14 DUP14 DUP14 DUP14 PUSH2 0x21EF JUMP JUMPDEST DUP1 SWAP4 POP DUP2 SWAP5 POP POP POP JUMPDEST PUSH0 DUP4 EQ DUP1 ISZERO PUSH2 0x364B JUMPI POP PUSH0 DUP3 EQ JUMPDEST ISZERO PUSH2 0x3682 JUMPI DUP9 DUP9 DUP1 SWAP8 POP DUP2 SWAP9 POP POP POP PUSH2 0x3E8 PUSH2 0x3671 DUP8 DUP10 PUSH2 0x366C SWAP2 SWAP1 PUSH2 0x76CF JUMP JUMPDEST PUSH2 0x554F JUMP JUMPDEST PUSH2 0x367B SWAP2 SWAP1 PUSH2 0x7309 JUMP JUMPDEST SWAP5 POP PUSH2 0x3732 JUMP JUMPDEST PUSH0 PUSH2 0x368E DUP11 DUP6 DUP6 PUSH2 0x5645 JUMP JUMPDEST SWAP1 POP DUP9 DUP2 GT PUSH2 0x36DE JUMPI DUP10 DUP2 DUP1 SWAP9 POP DUP2 SWAP10 POP POP POP PUSH2 0x36D7 DUP5 DUP4 DUP11 PUSH2 0x36B1 SWAP2 SWAP1 PUSH2 0x76CF JUMP JUMPDEST PUSH2 0x36BB SWAP2 SWAP1 PUSH2 0x773D JUMP JUMPDEST DUP5 DUP5 DUP11 PUSH2 0x36C8 SWAP2 SWAP1 PUSH2 0x76CF JUMP JUMPDEST PUSH2 0x36D2 SWAP2 SWAP1 PUSH2 0x773D JUMP JUMPDEST PUSH2 0x56E3 JUMP JUMPDEST SWAP6 POP PUSH2 0x3730 JUMP JUMPDEST PUSH0 PUSH2 0x36EA DUP11 DUP6 DUP8 PUSH2 0x5645 JUMP JUMPDEST SWAP1 POP DUP1 DUP11 DUP1 SWAP10 POP DUP2 SWAP11 POP POP POP PUSH2 0x372C DUP6 DUP5 DUP12 PUSH2 0x3706 SWAP2 SWAP1 PUSH2 0x76CF JUMP JUMPDEST PUSH2 0x3710 SWAP2 SWAP1 PUSH2 0x773D JUMP JUMPDEST DUP6 DUP6 DUP12 PUSH2 0x371D SWAP2 SWAP1 PUSH2 0x76CF JUMP JUMPDEST PUSH2 0x3727 SWAP2 SWAP1 PUSH2 0x773D JUMP JUMPDEST PUSH2 0x56E3 JUMP JUMPDEST SWAP7 POP POP JUMPDEST POP JUMPDEST POP POP POP POP SWAP7 POP SWAP7 POP SWAP7 SWAP4 POP POP POP POP JUMP JUMPDEST PUSH32 0x0 DUP2 JUMP JUMPDEST PUSH0 DUP1 DUP3 PUSH2 0x3772 DUP2 PUSH2 0x4195 JUMP JUMPDEST PUSH2 0x37A2 DUP11 PUSH32 0x0 DUP12 DUP12 DUP12 DUP12 ADDRESS DUP12 PUSH2 0x9F0 JUMP JUMPDEST DUP1 SWAP4 POP DUP2 SWAP5 POP POP POP PUSH2 0x37B5 DUP11 DUP7 DUP6 PUSH2 0x56FB JUMP JUMPDEST PUSH32 0x0 PUSH20 0xFFFFFFFFFFFFFFFFFFFFFFFFFFFFFFFFFFFFFFFF AND PUSH4 0x2E1A7D4D DUP4 PUSH1 0x40 MLOAD DUP3 PUSH4 0xFFFFFFFF AND PUSH1 0xE0 SHL DUP2 MSTORE PUSH1 0x4 ADD PUSH2 0x380E SWAP2 SWAP1 PUSH2 0x71A3 JUMP JUMPDEST PUSH0 PUSH1 0x40 MLOAD DUP1 DUP4 SUB DUP2 PUSH0 DUP8 DUP1 EXTCODESIZE ISZERO DUP1 ISZERO PUSH2 0x3825 JUMPI PUSH0 DUP1 REVERT JUMPDEST POP GAS CALL ISZERO DUP1 ISZERO PUSH2 0x3837 JUMPI RETURNDATASIZE PUSH0 DUP1 RETURNDATACOPY RETURNDATASIZE PUSH0 REVERT JUMPDEST POP POP POP POP PUSH2 0x3845 DUP6 DUP4 PUSH2 0x48AE JUMP JUMPDEST POP SWAP8 POP SWAP8 SWAP6 POP POP POP POP POP POP JUMP JUMPDEST PUSH0 DUP1 PUSH2 0x3861 DUP6 DUP6 PUSH1 0x1 DUP7 PUSH2 0x1CFA JUMP JUMPDEST SWAP1 POP PUSH0 DUP6 PUSH20 0xFFFFFFFFFFFFFFFFFFFFFFFFFFFFFFFFFFFFFFFF AND PUSH4 0x313CE567 PUSH1 0x40 MLOAD DUP2 PUSH4 0xFFFFFFFF AND PUSH1 0xE0 SHL DUP2 MSTORE PUSH1 0x4 ADD PUSH1 0x20 PUSH1 0x40 MLOAD DUP1 DUP4 SUB DUP2 DUP7 GAS STATICCALL ISZERO DUP1 ISZERO PUSH2 0x38AD JUMPI RETURNDATASIZE PUSH0 DUP1 RETURNDATACOPY RETURNDATASIZE PUSH0 REVERT JUMPDEST POP POP POP POP PUSH1 0x40 MLOAD RETURNDATASIZE PUSH1 0x1F NOT PUSH1 0x1F DUP3 ADD AND DUP3 ADD DUP1 PUSH1 0x40 MSTORE POP DUP2 ADD SWAP1 PUSH2 0x38D1 SWAP2 SWAP1 PUSH2 0x77A3 JUMP JUMPDEST PUSH1 0xA PUSH2 0x38DD SWAP2 SWAP1 PUSH2 0x78FD JUMP JUMPDEST SWAP1 POP PUSH0 DUP6 PUSH20 0xFFFFFFFFFFFFFFFFFFFFFFFFFFFFFFFFFFFFFFFF AND PUSH4 0x313CE567 PUSH1 0x40 MLOAD DUP2 PUSH4 0xFFFFFFFF AND PUSH1 0xE0 SHL DUP2 MSTORE PUSH1 0x4 ADD PUSH1 0x20 PUSH1 0x40 MLOAD DUP1 DUP4 SUB DUP2 DUP7 GAS STATICCALL ISZERO DUP1 ISZERO PUSH2 0x3929 JUMPI RETURNDATASIZE PUSH0 DUP1 RETURNDATACOPY RETURNDATASIZE PUSH0 REVERT JUMPDEST POP POP POP POP PUSH1 0x40 MLOAD RETURNDATASIZE PUSH1 0x1F NOT PUSH1 0x1F DUP3 ADD AND DUP3 ADD DUP1 PUSH1 0x40 MSTORE POP DUP2 ADD SWAP1 PUSH2 0x394D SWAP2 SWAP1 PUSH2 0x77A3 JUMP JUMPDEST PUSH1 0xA PUSH2 0x3959 SWAP2 SWAP1 PUSH2 0x78FD JUMP JUMPDEST SWAP1 POP PUSH0 DUP3 SWAP1 POP PUSH0 DUP5 PUSH20 0xFFFFFFFFFFFFFFFFFFFFFFFFFFFFFFFFFFFFFFFF AND PUSH4 0xF140A35A DUP4 DUP12 PUSH1 0x40 MLOAD DUP4 PUSH4 0xFFFFFFFF AND PUSH1 0xE0 SHL DUP2 MSTORE PUSH1 0x4 ADD PUSH2 0x399B SWAP3 SWAP2 SWAP1 PUSH2 0x74D7 JUMP JUMPDEST PUSH1 0x20 PUSH1 0x40 MLOAD DUP1 DUP4 SUB DUP2 DUP7 GAS STATICCALL ISZERO DUP1 ISZERO PUSH2 0x39B6 JUMPI RETURNDATASIZE PUSH0 DUP1 RETURNDATACOPY RETURNDATASIZE PUSH0 REVERT JUMPDEST POP POP POP POP PUSH1 0x40 MLOAD RETURNDATASIZE PUSH1 0x1F NOT PUSH1 0x1F DUP3 ADD AND DUP3 ADD DUP1 PUSH1 0x40 MSTORE POP DUP2 ADD SWAP1 PUSH2 0x39DA SWAP2 SWAP1 PUSH2 0x73E6 JUMP JUMPDEST SWAP1 POP PUSH0 DUP1 PUSH2 0x39ED DUP12 DUP12 PUSH1 0x1 DUP13 DUP9 DUP9 PUSH2 0x34FB JUMP JUMPDEST POP SWAP2 POP SWAP2 POP DUP6 PUSH8 0xDE0B6B3A7640000 DUP4 PUSH2 0x3A07 SWAP2 SWAP1 PUSH2 0x76CF JUMP JUMPDEST PUSH2 0x3A11 SWAP2 SWAP1 PUSH2 0x773D JUMP JUMPDEST SWAP2 POP DUP5 PUSH8 0xDE0B6B3A7640000 DUP3 PUSH2 0x3A28 SWAP2 SWAP1 PUSH2 0x76CF JUMP JUMPDEST PUSH2 0x3A32 SWAP2 SWAP1 PUSH2 0x773D JUMP JUMPDEST SWAP1 POP DUP5 PUSH8 0xDE0B6B3A7640000 DUP5 PUSH2 0x3A49 SWAP2 SWAP1 PUSH2 0x76CF JUMP JUMPDEST PUSH2 0x3A53 SWAP2 SWAP1 PUSH2 0x773D JUMP JUMPDEST SWAP3 POP DUP6 PUSH8 0xDE0B6B3A7640000 DUP6 PUSH2 0x3A6A SWAP2 SWAP1 PUSH2 0x76CF JUMP JUMPDEST PUSH2 0x3A74 SWAP2 SWAP1 PUSH2 0x773D JUMP JUMPDEST SWAP4 POP DUP1 DUP3 DUP6 PUSH8 0xDE0B6B3A7640000 DUP7 PUSH2 0x3A8D SWAP2 SWAP1 PUSH2 0x76CF JUMP JUMPDEST PUSH2 0x3A97 SWAP2 SWAP1 PUSH2 0x773D JUMP JUMPDEST PUSH2 0x3AA1 SWAP2 SWAP1 PUSH2 0x76CF JUMP JUMPDEST PUSH2 0x3AAB SWAP2 SWAP1 PUSH2 0x773D JUMP JUMPDEST SWAP8 POP PUSH8 0xDE0B6B3A7640000 DUP9 PUSH2 0x3AC1 SWAP2 SWAP1 PUSH2 0x74A4 JUMP JUMPDEST PUSH8 0xDE0B6B3A7640000 DUP6 PUSH2 0x3AD5 SWAP2 SWAP1 PUSH2 0x76CF JUMP JUMPDEST PUSH2 0x3ADF SWAP2 SWAP1 PUSH2 0x773D JUMP JUMPDEST SWAP8 POP POP POP POP POP POP POP POP SWAP4 SWAP3 POP POP POP JUMP JUMPDEST PUSH0 DUP1 DUP10 DUP12 PUSH2 0x3AFD SWAP2 SWAP1 PUSH2 0x74A4 JUMP JUMPDEST SWAP1 POP PUSH0 DUP13 SWAP1 POP PUSH0 CALLVALUE SWAP1 POP PUSH20 0xEEEEEEEEEEEEEEEEEEEEEEEEEEEEEEEEEEEEEEEE PUSH20 0xFFFFFFFFFFFFFFFFFFFFFFFFFFFFFFFFFFFFFFFF AND DUP15 PUSH20 0xFFFFFFFFFFFFFFFFFFFFFFFFFFFFFFFFFFFFFFFF AND SUB PUSH2 0x3C2C JUMPI DUP1 DUP4 EQ PUSH2 0x3B87 JUMPI PUSH1 0x40 MLOAD PUSH32 0x70A3FB9200000000000000000000000000000000000000000000000000000000 DUP2 MSTORE PUSH1 0x4 ADD PUSH1 0x40 MLOAD DUP1 SWAP2 SUB SWAP1 REVERT JUMPDEST PUSH32 0x0 SWAP2 POP PUSH32 0x0 PUSH20 0xFFFFFFFFFFFFFFFFFFFFFFFFFFFFFFFFFFFFFFFF AND PUSH4 0xD0E30DB0 DUP3 PUSH1 0x40 MLOAD DUP3 PUSH4 0xFFFFFFFF AND PUSH1 0xE0 SHL DUP2 MSTORE PUSH1 0x4 ADD PUSH0 PUSH1 0x40 MLOAD DUP1 DUP4 SUB DUP2 DUP6 DUP9 DUP1 EXTCODESIZE ISZERO DUP1 ISZERO PUSH2 0x3C10 JUMPI PUSH0 DUP1 REVERT JUMPDEST POP GAS CALL ISZERO DUP1 ISZERO PUSH2 0x3C22 JUMPI RETURNDATASIZE PUSH0 DUP1 RETURNDATACOPY RETURNDATASIZE PUSH0 REVERT JUMPDEST POP POP POP POP POP PUSH2 0x3C79 JUMP JUMPDEST PUSH0 DUP2 EQ PUSH2 0x3C65 JUMPI PUSH1 0x40 MLOAD PUSH32 0xAE6D566F00000000000000000000000000000000000000000000000000000000 DUP2 MSTORE PUSH1 0x4 ADD PUSH1 0x40 MLOAD DUP1 SWAP2 SUB SWAP1 REVERT JUMPDEST PUSH2 0x3C78 DUP3 PUSH2 0x3C71 PUSH2 0x41D2 JUMP JUMPDEST ADDRESS DUP7 PUSH2 0x42C5 JUMP JUMPDEST JUMPDEST PUSH2 0x3C89 DUP3 DUP15 DUP15 DUP15 DUP15 DUP15 DUP15 DUP15 PUSH2 0x5835 JUMP JUMPDEST PUSH2 0x3C92 DUP12 PUSH2 0x5BD8 JUMP JUMPDEST PUSH0 PUSH2 0x3CE6 DUP13 PUSH0 ADD PUSH1 0x20 DUP2 ADD SWAP1 PUSH2 0x3CA8 SWAP2 SWAP1 PUSH2 0x6C4D JUMP JUMPDEST DUP14 PUSH1 0x20 ADD PUSH1 0x20 DUP2 ADD SWAP1 PUSH2 0x3CBB SWAP2 SWAP1 PUSH2 0x6C4D JUMP JUMPDEST DUP15 PUSH1 0x40 ADD PUSH1 0x20 DUP2 ADD SWAP1 PUSH2 0x3CCE SWAP2 SWAP1 PUSH2 0x73BB JUMP JUMPDEST DUP16 PUSH1 0x60 ADD PUSH1 0x20 DUP2 ADD SWAP1 PUSH2 0x3CE1 SWAP2 SWAP1 PUSH2 0x6C4D JUMP JUMPDEST PUSH2 0x1CFA JUMP JUMPDEST SWAP1 POP DUP6 ISZERO PUSH2 0x3F6A JUMPI DUP1 PUSH20 0xFFFFFFFFFFFFFFFFFFFFFFFFFFFFFFFFFFFFFFFF AND PUSH4 0x6A627842 ADDRESS PUSH1 0x40 MLOAD DUP3 PUSH4 0xFFFFFFFF AND PUSH1 0xE0 SHL DUP2 MSTORE PUSH1 0x4 ADD PUSH2 0x3D27 SWAP2 SWAP1 PUSH2 0x6685 JUMP JUMPDEST PUSH1 0x20 PUSH1 0x40 MLOAD DUP1 DUP4 SUB DUP2 PUSH0 DUP8 GAS CALL ISZERO DUP1 ISZERO PUSH2 0x3D43 JUMPI RETURNDATASIZE PUSH0 DUP1 RETURNDATACOPY RETURNDATASIZE PUSH0 REVERT JUMPDEST POP POP POP POP PUSH1 0x40 MLOAD RETURNDATASIZE PUSH1 0x1F NOT PUSH1 0x1F DUP3 ADD AND DUP3 ADD DUP1 PUSH1 0x40 MSTORE POP DUP2 ADD SWAP1 PUSH2 0x3D67 SWAP2 SWAP1 PUSH2 0x73E6 JUMP JUMPDEST SWAP5 POP PUSH0 PUSH32 0x0 PUSH20 0xFFFFFFFFFFFFFFFFFFFFFFFFFFFFFFFFFFFFFFFF AND PUSH4 0xB9A09FD5 DUP4 PUSH1 0x40 MLOAD DUP3 PUSH4 0xFFFFFFFF AND PUSH1 0xE0 SHL DUP2 MSTORE PUSH1 0x4 ADD PUSH2 0x3DC3 SWAP2 SWAP1 PUSH2 0x6685 JUMP JUMPDEST PUSH1 0x20 PUSH1 0x40 MLOAD DUP1 DUP4 SUB DUP2 DUP7 GAS STATICCALL ISZERO DUP1 ISZERO PUSH2 0x3DDE JUMPI RETURNDATASIZE PUSH0 DUP1 RETURNDATACOPY RETURNDATASIZE PUSH0 REVERT JUMPDEST POP POP POP POP PUSH1 0x40 MLOAD RETURNDATASIZE PUSH1 0x1F NOT PUSH1 0x1F DUP3 ADD AND DUP3 ADD DUP1 PUSH1 0x40 MSTORE POP DUP2 ADD SWAP1 PUSH2 0x3E02 SWAP2 SWAP1 PUSH2 0x761F JUMP JUMPDEST SWAP1 POP DUP2 PUSH20 0xFFFFFFFFFFFFFFFFFFFFFFFFFFFFFFFFFFFFFFFF AND PUSH4 0x95EA7B3 DUP3 DUP9 PUSH1 0x40 MLOAD DUP4 PUSH4 0xFFFFFFFF AND PUSH1 0xE0 SHL DUP2 MSTORE PUSH1 0x4 ADD PUSH2 0x3E3F SWAP3 SWAP2 SWAP1 PUSH2 0x7411 JUMP JUMPDEST PUSH1 0x20 PUSH1 0x40 MLOAD DUP1 DUP4 SUB DUP2 PUSH0 DUP8 GAS CALL ISZERO DUP1 ISZERO PUSH2 0x3E5B JUMPI RETURNDATASIZE PUSH0 DUP1 RETURNDATACOPY RETURNDATASIZE PUSH0 REVERT JUMPDEST POP POP POP POP PUSH1 0x40 MLOAD RETURNDATASIZE PUSH1 0x1F NOT PUSH1 0x1F DUP3 ADD AND DUP3 ADD DUP1 PUSH1 0x40 MSTORE POP DUP2 ADD SWAP1 PUSH2 0x3E7F SWAP2 SWAP1 PUSH2 0x744C JUMP JUMPDEST POP DUP1 PUSH20 0xFFFFFFFFFFFFFFFFFFFFFFFFFFFFFFFFFFFFFFFF AND PUSH4 0x6E553F65 DUP8 DUP11 PUSH1 0x40 MLOAD DUP4 PUSH4 0xFFFFFFFF AND PUSH1 0xE0 SHL DUP2 MSTORE PUSH1 0x4 ADD PUSH2 0x3EBB SWAP3 SWAP2 SWAP1 PUSH2 0x74D7 JUMP JUMPDEST PUSH0 PUSH1 0x40 MLOAD DUP1 DUP4 SUB DUP2 PUSH0 DUP8 DUP1 EXTCODESIZE ISZERO DUP1 ISZERO PUSH2 0x3ED2 JUMPI PUSH0 DUP1 REVERT JUMPDEST POP GAS CALL ISZERO DUP1 ISZERO PUSH2 0x3EE4 JUMPI RETURNDATASIZE PUSH0 DUP1 RETURNDATACOPY RETURNDATASIZE PUSH0 REVERT JUMPDEST POP POP POP POP DUP2 PUSH20 0xFFFFFFFFFFFFFFFFFFFFFFFFFFFFFFFFFFFFFFFF AND PUSH4 0x95EA7B3 DUP3 PUSH0 PUSH1 0x40 MLOAD DUP4 PUSH4 0xFFFFFFFF AND PUSH1 0xE0 SHL DUP2 MSTORE PUSH1 0x4 ADD PUSH2 0x3F23 SWAP3 SWAP2 SWAP1 PUSH2 0x7980 JUMP JUMPDEST PUSH1 0x20 PUSH1 0x40 MLOAD DUP1 DUP4 SUB DUP2 PUSH0 DUP8 GAS CALL ISZERO DUP1 ISZERO PUSH2 0x3F3F JUMPI RETURNDATASIZE PUSH0 DUP1 RETURNDATACOPY RETURNDATASIZE PUSH0 REVERT JUMPDEST POP POP POP POP PUSH1 0x40 MLOAD RETURNDATASIZE PUSH1 0x1F NOT PUSH1 0x1F DUP3 ADD AND DUP3 ADD DUP1 PUSH1 0x40 MSTORE POP DUP2 ADD SWAP1 PUSH2 0x3F63 SWAP2 SWAP1 PUSH2 0x744C JUMP JUMPDEST POP POP PUSH2 0x3FE6 JUMP JUMPDEST DUP1 PUSH20 0xFFFFFFFFFFFFFFFFFFFFFFFFFFFFFFFFFFFFFFFF AND PUSH4 0x6A627842 DUP9 PUSH1 0x40 MLOAD DUP3 PUSH4 0xFFFFFFFF AND PUSH1 0xE0 SHL DUP2 MSTORE PUSH1 0x4 ADD PUSH2 0x3FA3 SWAP2 SWAP1 PUSH2 0x6685 JUMP JUMPDEST PUSH1 0x20 PUSH1 0x40 MLOAD DUP1 DUP4 SUB DUP2 PUSH0 DUP8 GAS CALL ISZERO DUP1 ISZERO PUSH2 0x3FBF JUMPI RETURNDATASIZE PUSH0 DUP1 RETURNDATACOPY RETURNDATASIZE PUSH0 REVERT JUMPDEST POP POP POP POP PUSH1 0x40 MLOAD RETURNDATASIZE PUSH1 0x1F NOT PUSH1 0x1F DUP3 ADD AND DUP3 ADD DUP1 PUSH1 0x40 MSTORE POP DUP2 ADD SWAP1 PUSH2 0x3FE3 SWAP2 SWAP1 PUSH2 0x73E6 JUMP JUMPDEST SWAP5 POP JUMPDEST PUSH2 0x3FEF DUP16 PUSH2 0x5310 JUMP JUMPDEST PUSH2 0x4009 DUP13 PUSH0 ADD PUSH1 0x20 DUP2 ADD SWAP1 PUSH2 0x4004 SWAP2 SWAP1 PUSH2 0x6C4D JUMP JUMPDEST PUSH2 0x5310 JUMP JUMPDEST PUSH2 0x4024 DUP13 PUSH1 0x20 ADD PUSH1 0x20 DUP2 ADD SWAP1 PUSH2 0x401F SWAP2 SWAP1 PUSH2 0x6C4D JUMP JUMPDEST PUSH2 0x5310 JUMP JUMPDEST POP POP POP POP SWAP11 SWAP10 POP POP POP POP POP POP POP POP POP POP JUMP JUMPDEST PUSH0 DUP2 PUSH2 0x4041 DUP2 PUSH2 0x4195 JUMP JUMPDEST PUSH2 0x4071 DUP10 PUSH32 0x0 DUP11 DUP11 DUP11 DUP11 ADDRESS DUP11 PUSH2 0x9F0 JUMP JUMPDEST SWAP1 POP DUP1 SWAP3 POP POP PUSH2 0x40F9 DUP10 DUP6 DUP12 PUSH20 0xFFFFFFFFFFFFFFFFFFFFFFFFFFFFFFFFFFFFFFFF AND PUSH4 0x70A08231 ADDRESS PUSH1 0x40 MLOAD DUP3 PUSH4 0xFFFFFFFF AND PUSH1 0xE0 SHL DUP2 MSTORE PUSH1 0x4 ADD PUSH2 0x40B5 SWAP2 SWAP1 PUSH2 0x6685 JUMP JUMPDEST PUSH1 0x20 PUSH1 0x40 MLOAD DUP1 DUP4 SUB DUP2 DUP7 GAS STATICCALL ISZERO DUP1 ISZERO PUSH2 0x40D0 JUMPI RETURNDATASIZE PUSH0 DUP1 RETURNDATACOPY RETURNDATASIZE PUSH0 REVERT JUMPDEST POP POP POP POP PUSH1 0x40 MLOAD RETURNDATASIZE PUSH1 0x1F NOT PUSH1 0x1F DUP3 ADD AND DUP3 ADD DUP1 PUSH1 0x40 MSTORE POP DUP2 ADD SWAP1 PUSH2 0x40F4 SWAP2 SWAP1 PUSH2 0x73E6 JUMP JUMPDEST PUSH2 0x56FB JUMP JUMPDEST PUSH32 0x0 PUSH20 0xFFFFFFFFFFFFFFFFFFFFFFFFFFFFFFFFFFFFFFFF AND PUSH4 0x2E1A7D4D DUP4 PUSH1 0x40 MLOAD DUP3 PUSH4 0xFFFFFFFF AND PUSH1 0xE0 SHL DUP2 MSTORE PUSH1 0x4 ADD PUSH2 0x4152 SWAP2 SWAP1 PUSH2 0x71A3 JUMP JUMPDEST PUSH0 PUSH1 0x40 MLOAD DUP1 DUP4 SUB DUP2 PUSH0 DUP8 DUP1 EXTCODESIZE ISZERO DUP1 ISZERO PUSH2 0x4169 JUMPI PUSH0 DUP1 REVERT JUMPDEST POP GAS CALL ISZERO DUP1 ISZERO PUSH2 0x417B JUMPI RETURNDATASIZE PUSH0 DUP1 RETURNDATACOPY RETURNDATASIZE PUSH0 REVERT JUMPDEST POP POP POP POP PUSH2 0x4189 DUP5 DUP4 PUSH2 0x48AE JUMP JUMPDEST POP SWAP8 SWAP7 POP POP POP POP POP POP POP JUMP JUMPDEST TIMESTAMP DUP2 LT ISZERO PUSH2 0x41CF JUMPI PUSH1 0x40 MLOAD PUSH32 0x203D82D800000000000000000000000000000000000000000000000000000000 DUP2 MSTORE PUSH1 0x4 ADD PUSH1 0x40 MLOAD DUP1 SWAP2 SUB SWAP1 REVERT JUMPDEST POP JUMP JUMPDEST PUSH0 DUP1 PUSH0 CALLDATASIZE SWAP1 POP SWAP1 POP PUSH0 PUSH2 0x41E3 PUSH2 0x5D6A JUMP JUMPDEST SWAP1 POP PUSH2 0x41EE CALLER PUSH2 0x1A30 JUMP JUMPDEST DUP1 ISZERO PUSH2 0x41FA JUMPI POP DUP1 DUP3 LT ISZERO JUMPDEST ISZERO PUSH2 0x4233 JUMPI PUSH0 CALLDATASIZE DUP3 DUP5 PUSH2 0x420D SWAP2 SWAP1 PUSH2 0x7309 JUMP JUMPDEST SWAP1 DUP1 SWAP3 PUSH2 0x421C SWAP4 SWAP3 SWAP2 SWAP1 PUSH2 0x79AF JUMP JUMPDEST SWAP1 PUSH2 0x4227 SWAP2 SWAP1 PUSH2 0x7A2A JUMP JUMPDEST PUSH1 0x60 SHR SWAP3 POP POP POP PUSH2 0x4240 JUMP JUMPDEST PUSH2 0x423B PUSH2 0x5D72 JUMP JUMPDEST SWAP3 POP POP POP JUMPDEST SWAP1 JUMP JUMPDEST PUSH2 0x42BF DUP5 DUP6 PUSH20 0xFFFFFFFFFFFFFFFFFFFFFFFFFFFFFFFFFFFFFFFF AND PUSH4 0x23B872DD DUP7 DUP7 DUP7 PUSH1 0x40 MLOAD PUSH1 0x24 ADD PUSH2 0x4278 SWAP4 SWAP3 SWAP2 SWAP1 PUSH2 0x7A88 JUMP JUMPDEST PUSH1 0x40 MLOAD PUSH1 0x20 DUP2 DUP4 SUB SUB DUP2 MSTORE SWAP1 PUSH1 0x40 MSTORE SWAP2 POP PUSH1 0xE0 SHL PUSH1 0x20 DUP3 ADD DUP1 MLOAD PUSH28 0xFFFFFFFFFFFFFFFFFFFFFFFFFFFFFFFFFFFFFFFFFFFFFFFFFFFFFFFF DUP4 DUP2 DUP4 AND OR DUP4 MSTORE POP POP POP POP PUSH2 0x5D79 JUMP JUMPDEST POP POP POP POP JUMP JUMPDEST PUSH0 DUP5 PUSH20 0xFFFFFFFFFFFFFFFFFFFFFFFFFFFFFFFFFFFFFFFF AND EXTCODESIZE GT PUSH2 0x42E7 JUMPI PUSH0 DUP1 REVERT JUMPDEST PUSH0 DUP1 DUP6 PUSH20 0xFFFFFFFFFFFFFFFFFFFFFFFFFFFFFFFFFFFFFFFF AND PUSH4 0x23B872DD PUSH1 0xE0 SHL DUP7 DUP7 DUP7 PUSH1 0x40 MLOAD PUSH1 0x24 ADD PUSH2 0x431D SWAP4 SWAP3 SWAP2 SWAP1 PUSH2 0x7A88 JUMP JUMPDEST PUSH1 0x40 MLOAD PUSH1 0x20 DUP2 DUP4 SUB SUB DUP2 MSTORE SWAP1 PUSH1 0x40 MSTORE SWAP1 PUSH28 0xFFFFFFFFFFFFFFFFFFFFFFFFFFFFFFFFFFFFFFFFFFFFFFFFFFFFFFFF NOT AND PUSH1 0x20 DUP3 ADD DUP1 MLOAD PUSH28 0xFFFFFFFFFFFFFFFFFFFFFFFFFFFFFFFFFFFFFFFFFFFFFFFFFFFFFFFF DUP4 DUP2 DUP4 AND OR DUP4 MSTORE POP POP POP POP PUSH1 0x40 MLOAD PUSH2 0x4387 SWAP2 SWAP1 PUSH2 0x7B29 JUMP JUMPDEST PUSH0 PUSH1 0x40 MLOAD DUP1 DUP4 SUB DUP2 PUSH0 DUP7 GAS CALL SWAP2 POP POP RETURNDATASIZE DUP1 PUSH0 DUP2 EQ PUSH2 0x43C0 JUMPI PUSH1 0x40 MLOAD SWAP2 POP PUSH1 0x1F NOT PUSH1 0x3F RETURNDATASIZE ADD AND DUP3 ADD PUSH1 0x40 MSTORE RETURNDATASIZE DUP3 MSTORE RETURNDATASIZE PUSH0 PUSH1 0x20 DUP5 ADD RETURNDATACOPY PUSH2 0x43C5 JUMP JUMPDEST PUSH1 0x60 SWAP2 POP JUMPDEST POP SWAP2 POP SWAP2 POP DUP2 DUP1 ISZERO PUSH2 0x43F2 JUMPI POP PUSH0 DUP2 MLOAD EQ DUP1 PUSH2 0x43F1 JUMPI POP DUP1 DUP1 PUSH1 0x20 ADD SWAP1 MLOAD DUP2 ADD SWAP1 PUSH2 0x43F0 SWAP2 SWAP1 PUSH2 0x744C JUMP JUMPDEST JUMPDEST JUMPDEST PUSH2 0x43FA JUMPI PUSH0 DUP1 REVERT JUMPDEST POP POP POP POP POP POP JUMP JUMPDEST PUSH0 DUP3 MLOAD SWAP1 POP PUSH0 JUMPDEST DUP2 DUP2 LT ISZERO PUSH2 0x48A8 JUMPI PUSH0 PUSH2 0x4457 DUP6 DUP4 DUP2 MLOAD DUP2 LT PUSH2 0x4428 JUMPI PUSH2 0x4427 PUSH2 0x733C JUMP JUMPDEST JUMPDEST PUSH1 0x20 MUL PUSH1 0x20 ADD ADD MLOAD PUSH0 ADD MLOAD DUP7 DUP5 DUP2 MLOAD DUP2 LT PUSH2 0x4446 JUMPI PUSH2 0x4445 PUSH2 0x733C JUMP JUMPDEST JUMPDEST PUSH1 0x20 MUL PUSH1 0x20 ADD ADD MLOAD PUSH1 0x20 ADD MLOAD PUSH2 0x15DA JUMP JUMPDEST POP SWAP1 POP PUSH0 PUSH2 0x44DE DUP7 DUP5 DUP2 MLOAD DUP2 LT PUSH2 0x4471 JUMPI PUSH2 0x4470 PUSH2 0x733C JUMP JUMPDEST JUMPDEST PUSH1 0x20 MUL PUSH1 0x20 ADD ADD MLOAD PUSH0 ADD MLOAD DUP8 DUP6 DUP2 MLOAD DUP2 LT PUSH2 0x448F JUMPI PUSH2 0x448E PUSH2 0x733C JUMP JUMPDEST JUMPDEST PUSH1 0x20 MUL PUSH1 0x20 ADD ADD MLOAD PUSH1 0x20 ADD MLOAD DUP9 DUP7 DUP2 MLOAD DUP2 LT PUSH2 0x44AE JUMPI PUSH2 0x44AD PUSH2 0x733C JUMP JUMPDEST JUMPDEST PUSH1 0x20 MUL PUSH1 0x20 ADD ADD MLOAD PUSH1 0x40 ADD MLOAD DUP10 DUP8 DUP2 MLOAD DUP2 LT PUSH2 0x44CD JUMPI PUSH2 0x44CC PUSH2 0x733C JUMP JUMPDEST JUMPDEST PUSH1 0x20 MUL PUSH1 0x20 ADD ADD MLOAD PUSH1 0x60 ADD MLOAD PUSH2 0x1CFA JUMP JUMPDEST SWAP1 POP PUSH0 DUP1 PUSH0 PUSH2 0x4566 DUP10 DUP8 DUP2 MLOAD DUP2 LT PUSH2 0x44F9 JUMPI PUSH2 0x44F8 PUSH2 0x733C JUMP JUMPDEST JUMPDEST PUSH1 0x20 MUL PUSH1 0x20 ADD ADD MLOAD PUSH0 ADD MLOAD DUP11 DUP9 DUP2 MLOAD DUP2 LT PUSH2 0x4517 JUMPI PUSH2 0x4516 PUSH2 0x733C JUMP JUMPDEST JUMPDEST PUSH1 0x20 MUL PUSH1 0x20 ADD ADD MLOAD PUSH1 0x20 ADD MLOAD DUP12 DUP10 DUP2 MLOAD DUP2 LT PUSH2 0x4536 JUMPI PUSH2 0x4535 PUSH2 0x733C JUMP JUMPDEST JUMPDEST PUSH1 0x20 MUL PUSH1 0x20 ADD ADD MLOAD PUSH1 0x40 ADD MLOAD DUP13 DUP11 DUP2 MLOAD DUP2 LT PUSH2 0x4555 JUMPI PUSH2 0x4554 PUSH2 0x733C JUMP JUMPDEST JUMPDEST PUSH1 0x20 MUL PUSH1 0x20 ADD ADD MLOAD PUSH1 0x60 ADD MLOAD PUSH2 0x21EF JUMP JUMPDEST POP SWAP1 POP DUP1 DUP10 DUP8 DUP2 MLOAD DUP2 LT PUSH2 0x457D JUMPI PUSH2 0x457C PUSH2 0x733C JUMP JUMPDEST JUMPDEST PUSH1 0x20 MUL PUSH1 0x20 ADD ADD MLOAD PUSH0 ADD MLOAD PUSH20 0xFFFFFFFFFFFFFFFFFFFFFFFFFFFFFFFFFFFFFFFF AND PUSH4 0x70A08231 DUP7 PUSH1 0x40 MLOAD DUP3 PUSH4 0xFFFFFFFF AND PUSH1 0xE0 SHL DUP2 MSTORE PUSH1 0x4 ADD PUSH2 0x45C0 SWAP2 SWAP1 PUSH2 0x6685 JUMP JUMPDEST PUSH1 0x20 PUSH1 0x40 MLOAD DUP1 DUP4 SUB DUP2 DUP7 GAS STATICCALL ISZERO DUP1 ISZERO PUSH2 0x45DB JUMPI RETURNDATASIZE PUSH0 DUP1 RETURNDATACOPY RETURNDATASIZE PUSH0 REVERT JUMPDEST POP POP POP POP PUSH1 0x40 MLOAD RETURNDATASIZE PUSH1 0x1F NOT PUSH1 0x1F DUP3 ADD AND DUP3 ADD DUP1 PUSH1 0x40 MSTORE POP DUP2 ADD SWAP1 PUSH2 0x45FF SWAP2 SWAP1 PUSH2 0x73E6 JUMP JUMPDEST PUSH2 0x4609 SWAP2 SWAP1 PUSH2 0x7309 JUMP JUMPDEST SWAP3 POP POP DUP3 PUSH20 0xFFFFFFFFFFFFFFFFFFFFFFFFFFFFFFFFFFFFFFFF AND PUSH4 0xF140A35A DUP4 DUP11 DUP9 DUP2 MLOAD DUP2 LT PUSH2 0x463C JUMPI PUSH2 0x463B PUSH2 0x733C JUMP JUMPDEST JUMPDEST PUSH1 0x20 MUL PUSH1 0x20 ADD ADD MLOAD PUSH0 ADD MLOAD PUSH1 0x40 MLOAD DUP4 PUSH4 0xFFFFFFFF AND PUSH1 0xE0 SHL DUP2 MSTORE PUSH1 0x4 ADD PUSH2 0x4664 SWAP3 SWAP2 SWAP1 PUSH2 0x74D7 JUMP JUMPDEST PUSH1 0x20 PUSH1 0x40 MLOAD DUP1 DUP4 SUB DUP2 DUP7 GAS STATICCALL ISZERO DUP1 ISZERO PUSH2 0x467F JUMPI RETURNDATASIZE PUSH0 DUP1 RETURNDATACOPY RETURNDATASIZE PUSH0 REVERT JUMPDEST POP POP POP POP PUSH1 0x40 MLOAD RETURNDATASIZE PUSH1 0x1F NOT PUSH1 0x1F DUP3 ADD AND DUP3 ADD DUP1 PUSH1 0x40 MSTORE POP DUP2 ADD SWAP1 PUSH2 0x46A3 SWAP2 SWAP1 PUSH2 0x73E6 JUMP JUMPDEST SWAP1 POP PUSH0 DUP1 DUP6 PUSH20 0xFFFFFFFFFFFFFFFFFFFFFFFFFFFFFFFFFFFFFFFF AND DUP11 DUP9 DUP2 MLOAD DUP2 LT PUSH2 0x46D1 JUMPI PUSH2 0x46D0 PUSH2 0x733C JUMP JUMPDEST JUMPDEST PUSH1 0x20 MUL PUSH1 0x20 ADD ADD MLOAD PUSH0 ADD MLOAD PUSH20 0xFFFFFFFFFFFFFFFFFFFFFFFFFFFFFFFFFFFFFFFF AND EQ PUSH2 0x46FE JUMPI DUP3 PUSH0 PUSH2 0x4701 JUMP JUMPDEST PUSH0 DUP4 JUMPDEST SWAP2 POP SWAP2 POP PUSH0 PUSH1 0x1 DUP12 MLOAD PUSH2 0x4714 SWAP2 SWAP1 PUSH2 0x7309 JUMP JUMPDEST DUP9 LT PUSH2 0x4720 JUMPI DUP10 PUSH2 0x47D4 JUMP JUMPDEST PUSH2 0x47D3 DUP12 PUSH1 0x1 DUP11 PUSH2 0x4731 SWAP2 SWAP1 PUSH2 0x74A4 JUMP JUMPDEST DUP2 MLOAD DUP2 LT PUSH2 0x4742 JUMPI PUSH2 0x4741 PUSH2 0x733C JUMP JUMPDEST JUMPDEST PUSH1 0x20 MUL PUSH1 0x20 ADD ADD MLOAD PUSH0 ADD MLOAD DUP13 PUSH1 0x1 DUP12 PUSH2 0x475B SWAP2 SWAP1 PUSH2 0x74A4 JUMP JUMPDEST DUP2 MLOAD DUP2 LT PUSH2 0x476C JUMPI PUSH2 0x476B PUSH2 0x733C JUMP JUMPDEST JUMPDEST PUSH1 0x20 MUL PUSH1 0x20 ADD ADD MLOAD PUSH1 0x20 ADD MLOAD DUP14 PUSH1 0x1 DUP13 PUSH2 0x4786 SWAP2 SWAP1 PUSH2 0x74A4 JUMP JUMPDEST DUP2 MLOAD DUP2 LT PUSH2 0x4797 JUMPI PUSH2 0x4796 PUSH2 0x733C JUMP JUMPDEST JUMPDEST PUSH1 0x20 MUL PUSH1 0x20 ADD ADD MLOAD PUSH1 0x40 ADD MLOAD DUP15 PUSH1 0x1 DUP14 PUSH2 0x47B1 SWAP2 SWAP1 PUSH2 0x74A4 JUMP JUMPDEST DUP2 MLOAD DUP2 LT PUSH2 0x47C2 JUMPI PUSH2 0x47C1 PUSH2 0x733C JUMP JUMPDEST JUMPDEST PUSH1 0x20 MUL PUSH1 0x20 ADD ADD MLOAD PUSH1 0x60 ADD MLOAD PUSH2 0x1CFA JUMP JUMPDEST JUMPDEST SWAP1 POP DUP6 PUSH20 0xFFFFFFFFFFFFFFFFFFFFFFFFFFFFFFFFFFFFFFFF AND PUSH4 0x22C0D9F DUP5 DUP5 DUP5 PUSH0 PUSH8 0xFFFFFFFFFFFFFFFF DUP2 GT ISZERO PUSH2 0x480F JUMPI PUSH2 0x480E PUSH2 0x67A6 JUMP JUMPDEST JUMPDEST PUSH1 0x40 MLOAD SWAP1 DUP1 DUP3 MSTORE DUP1 PUSH1 0x1F ADD PUSH1 0x1F NOT AND PUSH1 0x20 ADD DUP3 ADD PUSH1 0x40 MSTORE DUP1 ISZERO PUSH2 0x4841 JUMPI DUP2 PUSH1 0x20 ADD PUSH1 0x1 DUP3 MUL DUP1 CALLDATASIZE DUP4 CALLDATACOPY DUP1 DUP3 ADD SWAP2 POP POP SWAP1 POP JUMPDEST POP PUSH1 0x40 MLOAD DUP6 PUSH4 0xFFFFFFFF AND PUSH1 0xE0 SHL DUP2 MSTORE PUSH1 0x4 ADD PUSH2 0x4861 SWAP5 SWAP4 SWAP3 SWAP2 SWAP1 PUSH2 0x7B87 JUMP JUMPDEST PUSH0 PUSH1 0x40 MLOAD DUP1 DUP4 SUB DUP2 PUSH0 DUP8 DUP1 EXTCODESIZE ISZERO DUP1 ISZERO PUSH2 0x4878 JUMPI PUSH0 DUP1 REVERT JUMPDEST POP GAS CALL ISZERO DUP1 ISZERO PUSH2 0x488A JUMPI RETURNDATASIZE PUSH0 DUP1 RETURNDATACOPY RETURNDATASIZE PUSH0 REVERT JUMPDEST POP POP POP POP POP POP POP POP POP POP POP DUP1 DUP1 PUSH2 0x48A0 SWAP1 PUSH2 0x74FE JUMP JUMPDEST SWAP2 POP POP PUSH2 0x4409 JUMP JUMPDEST POP POP POP POP JUMP JUMPDEST PUSH0 DUP3 PUSH20 0xFFFFFFFFFFFFFFFFFFFFFFFFFFFFFFFFFFFFFFFF AND DUP3 PUSH0 PUSH8 0xFFFFFFFFFFFFFFFF DUP2 GT ISZERO PUSH2 0x48E1 JUMPI PUSH2 0x48E0 PUSH2 0x67A6 JUMP JUMPDEST JUMPDEST PUSH1 0x40 MLOAD SWAP1 DUP1 DUP3 MSTORE DUP1 PUSH1 0x1F ADD PUSH1 0x1F NOT AND PUSH1 0x20 ADD DUP3 ADD PUSH1 0x40 MSTORE DUP1 ISZERO PUSH2 0x4913 JUMPI DUP2 PUSH1 0x20 ADD PUSH1 0x1 DUP3 MUL DUP1 CALLDATASIZE DUP4 CALLDATACOPY DUP1 DUP3 ADD SWAP2 POP POP SWAP1 POP JUMPDEST POP PUSH1 0x40 MLOAD PUSH2 0x4921 SWAP2 SWAP1 PUSH2 0x7B29 JUMP JUMPDEST PUSH0 PUSH1 0x40 MLOAD DUP1 DUP4 SUB DUP2 DUP6 DUP8 GAS CALL SWAP3 POP POP POP RETURNDATASIZE DUP1 PUSH0 DUP2 EQ PUSH2 0x495B JUMPI PUSH1 0x40 MLOAD SWAP2 POP PUSH1 0x1F NOT PUSH1 0x3F RETURNDATASIZE ADD AND DUP3 ADD PUSH1 0x40 MSTORE RETURNDATASIZE DUP3 MSTORE RETURNDATASIZE PUSH0 PUSH1 0x20 DUP5 ADD RETURNDATACOPY PUSH2 0x4960 JUMP JUMPDEST PUSH1 0x60 SWAP2 POP JUMPDEST POP POP SWAP1 POP DUP1 PUSH2 0x499B JUMPI PUSH1 0x40 MLOAD PUSH32 0xB12D13EB00000000000000000000000000000000000000000000000000000000 DUP2 MSTORE PUSH1 0x4 ADD PUSH1 0x40 MLOAD DUP1 SWAP2 SUB SWAP1 REVERT JUMPDEST POP POP POP JUMP JUMPDEST PUSH0 DUP3 MLOAD SWAP1 POP PUSH0 JUMPDEST DUP2 DUP2 LT ISZERO PUSH2 0x4CA5 JUMPI PUSH0 PUSH2 0x49F5 DUP6 DUP4 DUP2 MLOAD DUP2 LT PUSH2 0x49C6 JUMPI PUSH2 0x49C5 PUSH2 0x733C JUMP JUMPDEST JUMPDEST PUSH1 0x20 MUL PUSH1 0x20 ADD ADD MLOAD PUSH0 ADD MLOAD DUP7 DUP5 DUP2 MLOAD DUP2 LT PUSH2 0x49E4 JUMPI PUSH2 0x49E3 PUSH2 0x733C JUMP JUMPDEST JUMPDEST PUSH1 0x20 MUL PUSH1 0x20 ADD ADD MLOAD PUSH1 0x20 ADD MLOAD PUSH2 0x15DA JUMP JUMPDEST POP SWAP1 POP PUSH0 DUP7 PUSH1 0x1 DUP5 PUSH2 0x4A07 SWAP2 SWAP1 PUSH2 0x74A4 JUMP JUMPDEST DUP2 MLOAD DUP2 LT PUSH2 0x4A18 JUMPI PUSH2 0x4A17 PUSH2 0x733C JUMP JUMPDEST JUMPDEST PUSH1 0x20 MUL PUSH1 0x20 ADD ADD MLOAD SWAP1 POP PUSH0 DUP1 DUP4 PUSH20 0xFFFFFFFFFFFFFFFFFFFFFFFFFFFFFFFFFFFFFFFF AND DUP9 DUP7 DUP2 MLOAD DUP2 LT PUSH2 0x4A4E JUMPI PUSH2 0x4A4D PUSH2 0x733C JUMP JUMPDEST JUMPDEST PUSH1 0x20 MUL PUSH1 0x20 ADD ADD MLOAD PUSH0 ADD MLOAD PUSH20 0xFFFFFFFFFFFFFFFFFFFFFFFFFFFFFFFFFFFFFFFF AND EQ PUSH2 0x4A7B JUMPI DUP3 PUSH0 PUSH2 0x4A7E JUMP JUMPDEST PUSH0 DUP4 JUMPDEST SWAP2 POP SWAP2 POP PUSH0 PUSH1 0x1 DUP10 MLOAD PUSH2 0x4A91 SWAP2 SWAP1 PUSH2 0x7309 JUMP JUMPDEST DUP7 LT PUSH2 0x4A9D JUMPI DUP8 PUSH2 0x4B51 JUMP JUMPDEST PUSH2 0x4B50 DUP10 PUSH1 0x1 DUP9 PUSH2 0x4AAE SWAP2 SWAP1 PUSH2 0x74A4 JUMP JUMPDEST DUP2 MLOAD DUP2 LT PUSH2 0x4ABF JUMPI PUSH2 0x4ABE PUSH2 0x733C JUMP JUMPDEST JUMPDEST PUSH1 0x20 MUL PUSH1 0x20 ADD ADD MLOAD PUSH0 ADD MLOAD DUP11 PUSH1 0x1 DUP10 PUSH2 0x4AD8 SWAP2 SWAP1 PUSH2 0x74A4 JUMP JUMPDEST DUP2 MLOAD DUP2 LT PUSH2 0x4AE9 JUMPI PUSH2 0x4AE8 PUSH2 0x733C JUMP JUMPDEST JUMPDEST PUSH1 0x20 MUL PUSH1 0x20 ADD ADD MLOAD PUSH1 0x20 ADD MLOAD DUP12 PUSH1 0x1 DUP11 PUSH2 0x4B03 SWAP2 SWAP1 PUSH2 0x74A4 JUMP JUMPDEST DUP2 MLOAD DUP2 LT PUSH2 0x4B14 JUMPI PUSH2 0x4B13 PUSH2 0x733C JUMP JUMPDEST JUMPDEST PUSH1 0x20 MUL PUSH1 0x20 ADD ADD MLOAD PUSH1 0x40 ADD MLOAD DUP13 PUSH1 0x1 DUP12 PUSH2 0x4B2E SWAP2 SWAP1 PUSH2 0x74A4 JUMP JUMPDEST DUP2 MLOAD DUP2 LT PUSH2 0x4B3F JUMPI PUSH2 0x4B3E PUSH2 0x733C JUMP JUMPDEST JUMPDEST PUSH1 0x20 MUL PUSH1 0x20 ADD ADD MLOAD PUSH1 0x60 ADD MLOAD PUSH2 0x1CFA JUMP JUMPDEST JUMPDEST SWAP1 POP PUSH2 0x4BD6 DUP10 DUP8 DUP2 MLOAD DUP2 LT PUSH2 0x4B69 JUMPI PUSH2 0x4B68 PUSH2 0x733C JUMP JUMPDEST JUMPDEST PUSH1 0x20 MUL PUSH1 0x20 ADD ADD MLOAD PUSH0 ADD MLOAD DUP11 DUP9 DUP2 MLOAD DUP2 LT PUSH2 0x4B87 JUMPI PUSH2 0x4B86 PUSH2 0x733C JUMP JUMPDEST JUMPDEST PUSH1 0x20 MUL PUSH1 0x20 ADD ADD MLOAD PUSH1 0x20 ADD MLOAD DUP12 DUP10 DUP2 MLOAD DUP2 LT PUSH2 0x4BA6 JUMPI PUSH2 0x4BA5 PUSH2 0x733C JUMP JUMPDEST JUMPDEST PUSH1 0x20 MUL PUSH1 0x20 ADD ADD MLOAD PUSH1 0x40 ADD MLOAD DUP13 DUP11 DUP2 MLOAD DUP2 LT PUSH2 0x4BC5 JUMPI PUSH2 0x4BC4 PUSH2 0x733C JUMP JUMPDEST JUMPDEST PUSH1 0x20 MUL PUSH1 0x20 ADD ADD MLOAD PUSH1 0x60 ADD MLOAD PUSH2 0x1CFA JUMP JUMPDEST PUSH20 0xFFFFFFFFFFFFFFFFFFFFFFFFFFFFFFFFFFFFFFFF AND PUSH4 0x22C0D9F DUP5 DUP5 DUP5 PUSH0 PUSH8 0xFFFFFFFFFFFFFFFF DUP2 GT ISZERO PUSH2 0x4C0E JUMPI PUSH2 0x4C0D PUSH2 0x67A6 JUMP JUMPDEST JUMPDEST PUSH1 0x40 MLOAD SWAP1 DUP1 DUP3 MSTORE DUP1 PUSH1 0x1F ADD PUSH1 0x1F NOT AND PUSH1 0x20 ADD DUP3 ADD PUSH1 0x40 MSTORE DUP1 ISZERO PUSH2 0x4C40 JUMPI DUP2 PUSH1 0x20 ADD PUSH1 0x1 DUP3 MUL DUP1 CALLDATASIZE DUP4 CALLDATACOPY DUP1 DUP3 ADD SWAP2 POP POP SWAP1 POP JUMPDEST POP PUSH1 0x40 MLOAD DUP6 PUSH4 0xFFFFFFFF AND PUSH1 0xE0 SHL DUP2 MSTORE PUSH1 0x4 ADD PUSH2 0x4C60 SWAP5 SWAP4 SWAP3 SWAP2 SWAP1 PUSH2 0x7B87 JUMP JUMPDEST PUSH0 PUSH1 0x40 MLOAD DUP1 DUP4 SUB DUP2 PUSH0 DUP8 DUP1 EXTCODESIZE ISZERO DUP1 ISZERO PUSH2 0x4C77 JUMPI PUSH0 DUP1 REVERT JUMPDEST POP GAS CALL ISZERO DUP1 ISZERO PUSH2 0x4C89 JUMPI RETURNDATASIZE PUSH0 DUP1 RETURNDATACOPY RETURNDATASIZE PUSH0 REVERT JUMPDEST POP POP POP POP POP POP POP POP POP DUP1 DUP1 PUSH2 0x4C9D SWAP1 PUSH2 0x74FE JUMP JUMPDEST SWAP2 POP POP PUSH2 0x49A7 JUMP JUMPDEST POP POP POP POP POP JUMP JUMPDEST PUSH0 DUP1 DUP4 DUP7 LT ISZERO PUSH2 0x4CE8 JUMPI PUSH1 0x40 MLOAD PUSH32 0xDC6B2EF200000000000000000000000000000000000000000000000000000000 DUP2 MSTORE PUSH1 0x4 ADD PUSH1 0x40 MLOAD DUP1 SWAP2 SUB SWAP1 REVERT JUMPDEST DUP3 DUP6 LT ISZERO PUSH2 0x4D22 JUMPI PUSH1 0x40 MLOAD PUSH32 0xACEE051300000000000000000000000000000000000000000000000000000000 DUP2 MSTORE PUSH1 0x4 ADD PUSH1 0x40 MLOAD DUP1 SWAP2 SUB SWAP1 REVERT JUMPDEST PUSH0 PUSH32 0x0 PUSH20 0xFFFFFFFFFFFFFFFFFFFFFFFFFFFFFFFFFFFFFFFF AND PUSH4 0x79BC57D5 DUP12 DUP12 DUP12 PUSH1 0x40 MLOAD DUP5 PUSH4 0xFFFFFFFF AND PUSH1 0xE0 SHL DUP2 MSTORE PUSH1 0x4 ADD PUSH2 0x4D80 SWAP4 SWAP3 SWAP2 SWAP1 PUSH2 0x769A JUMP JUMPDEST PUSH1 0x20 PUSH1 0x40 MLOAD DUP1 DUP4 SUB DUP2 DUP7 GAS STATICCALL ISZERO DUP1 ISZERO PUSH2 0x4D9B JUMPI RETURNDATASIZE PUSH0 DUP1 RETURNDATACOPY RETURNDATASIZE PUSH0 REVERT JUMPDEST POP POP POP POP PUSH1 0x40 MLOAD RETURNDATASIZE PUSH1 0x1F NOT PUSH1 0x1F DUP3 ADD AND DUP3 ADD DUP1 PUSH1 0x40 MSTORE POP DUP2 ADD SWAP1 PUSH2 0x4DBF SWAP2 SWAP1 PUSH2 0x761F JUMP JUMPDEST SWAP1 POP PUSH0 PUSH20 0xFFFFFFFFFFFFFFFFFFFFFFFFFFFFFFFFFFFFFFFF AND DUP2 PUSH20 0xFFFFFFFFFFFFFFFFFFFFFFFFFFFFFFFFFFFFFFFF AND SUB PUSH2 0x4E94 JUMPI PUSH32 0x0 PUSH20 0xFFFFFFFFFFFFFFFFFFFFFFFFFFFFFFFFFFFFFFFF AND PUSH4 0x36BF95A0 DUP12 DUP12 DUP12 PUSH1 0x40 MLOAD DUP5 PUSH4 0xFFFFFFFF AND PUSH1 0xE0 SHL DUP2 MSTORE PUSH1 0x4 ADD PUSH2 0x4E51 SWAP4 SWAP3 SWAP2 SWAP1 PUSH2 0x769A JUMP JUMPDEST PUSH1 0x20 PUSH1 0x40 MLOAD DUP1 DUP4 SUB DUP2 PUSH0 DUP8 GAS CALL ISZERO DUP1 ISZERO PUSH2 0x4E6D JUMPI RETURNDATASIZE PUSH0 DUP1 RETURNDATACOPY RETURNDATASIZE PUSH0 REVERT JUMPDEST POP POP POP POP PUSH1 0x40 MLOAD RETURNDATASIZE PUSH1 0x1F NOT PUSH1 0x1F DUP3 ADD AND DUP3 ADD DUP1 PUSH1 0x40 MSTORE POP DUP2 ADD SWAP1 PUSH2 0x4E91 SWAP2 SWAP1 PUSH2 0x761F JUMP JUMPDEST SWAP1 POP JUMPDEST PUSH0 DUP1 PUSH2 0x4EC2 DUP13 DUP13 DUP13 PUSH32 0x0 PUSH2 0x21EF JUMP JUMPDEST SWAP2 POP SWAP2 POP PUSH0 DUP3 EQ DUP1 ISZERO PUSH2 0x4ED4 JUMPI POP PUSH0 DUP2 EQ JUMPDEST ISZERO PUSH2 0x4EE8 JUMPI DUP9 DUP9 DUP1 SWAP6 POP DUP2 SWAP7 POP POP POP PUSH2 0x4FAD JUMP JUMPDEST PUSH0 PUSH2 0x4EF4 DUP11 DUP5 DUP5 PUSH2 0x5645 JUMP JUMPDEST SWAP1 POP DUP9 DUP2 GT PUSH2 0x4F46 JUMPI DUP7 DUP2 LT ISZERO PUSH2 0x4F37 JUMPI PUSH1 0x40 MLOAD PUSH32 0x34C9062400000000000000000000000000000000000000000000000000000000 DUP2 MSTORE PUSH1 0x4 ADD PUSH1 0x40 MLOAD DUP1 SWAP2 SUB SWAP1 REVERT JUMPDEST DUP10 DUP2 DUP1 SWAP7 POP DUP2 SWAP8 POP POP POP PUSH2 0x4FAB JUMP JUMPDEST PUSH0 PUSH2 0x4F52 DUP11 DUP5 DUP7 PUSH2 0x5645 JUMP JUMPDEST SWAP1 POP DUP11 DUP2 GT ISZERO PUSH2 0x4F65 JUMPI PUSH2 0x4F64 PUSH2 0x7477 JUMP JUMPDEST JUMPDEST DUP9 DUP2 LT ISZERO PUSH2 0x4F9F JUMPI PUSH1 0x40 MLOAD PUSH32 0x8F66EC1400000000000000000000000000000000000000000000000000000000 DUP2 MSTORE PUSH1 0x4 ADD PUSH1 0x40 MLOAD DUP1 SWAP2 SUB SWAP1 REVERT JUMPDEST DUP1 DUP11 DUP1 SWAP8 POP DUP2 SWAP9 POP POP POP POP JUMPDEST POP JUMPDEST POP POP POP SWAP8 POP SWAP8 SWAP6 POP POP POP POP POP POP JUMP JUMPDEST PUSH0 PUSH1 0x40 MLOAD DUP3 PUSH1 0x38 DUP3 ADD MSTORE PUSH16 0x5AF43D82803E903D91602B57FD5BF3FF PUSH1 0x24 DUP3 ADD MSTORE DUP5 PUSH1 0x14 DUP3 ADD MSTORE PUSH20 0x3D602D80600A3D3981F3363D3D373D3D3D363D73 DUP2 MSTORE DUP4 PUSH1 0x58 DUP3 ADD MSTORE PUSH1 0x37 PUSH1 0xC DUP3 ADD KECCAK256 PUSH1 0x78 DUP3 ADD MSTORE PUSH1 0x55 PUSH1 0x43 DUP3 ADD KECCAK256 SWAP2 POP POP SWAP4 SWAP3 POP POP POP JUMP JUMPDEST PUSH0 DUP2 PUSH0 ADD PUSH1 0x20 DUP2 ADD SWAP1 PUSH2 0x502F SWAP2 SWAP1 PUSH2 0x6C4D JUMP JUMPDEST SWAP1 POP PUSH0 DUP3 PUSH1 0x20 ADD PUSH1 0x20 DUP2 ADD SWAP1 PUSH2 0x5045 SWAP2 SWAP1 PUSH2 0x6C4D JUMP JUMPDEST SWAP1 POP PUSH0 PUSH2 0x5078 DUP4 DUP4 DUP7 PUSH1 0x40 ADD PUSH1 0x20 DUP2 ADD SWAP1 PUSH2 0x5060 SWAP2 SWAP1 PUSH2 0x73BB JUMP JUMPDEST DUP8 PUSH1 0x60 ADD PUSH1 0x20 DUP2 ADD SWAP1 PUSH2 0x5073 SWAP2 SWAP1 PUSH2 0x6C4D JUMP JUMPDEST PUSH2 0x1CFA JUMP JUMPDEST SWAP1 POP PUSH2 0x50A7 CALLER DUP3 DUP8 DUP5 PUSH20 0xFFFFFFFFFFFFFFFFFFFFFFFFFFFFFFFFFFFFFFFF AND PUSH2 0x4243 SWAP1 SWAP4 SWAP3 SWAP2 SWAP1 PUSH4 0xFFFFFFFF AND JUMP JUMPDEST PUSH0 PUSH2 0x50B2 DUP5 DUP5 PUSH2 0x15DA JUMP JUMPDEST POP SWAP1 POP PUSH0 DUP1 DUP4 PUSH20 0xFFFFFFFFFFFFFFFFFFFFFFFFFFFFFFFFFFFFFFFF AND PUSH4 0x89AFCB44 ADDRESS PUSH1 0x40 MLOAD DUP3 PUSH4 0xFFFFFFFF AND PUSH1 0xE0 SHL DUP2 MSTORE PUSH1 0x4 ADD PUSH2 0x50F0 SWAP2 SWAP1 PUSH2 0x6685 JUMP JUMPDEST PUSH1 0x40 DUP1 MLOAD DUP1 DUP4 SUB DUP2 PUSH0 DUP8 GAS CALL ISZERO DUP1 ISZERO PUSH2 0x510B JUMPI RETURNDATASIZE PUSH0 DUP1 RETURNDATACOPY RETURNDATASIZE PUSH0 REVERT JUMPDEST POP POP POP POP PUSH1 0x40 MLOAD RETURNDATASIZE PUSH1 0x1F NOT PUSH1 0x1F DUP3 ADD AND DUP3 ADD DUP1 PUSH1 0x40 MSTORE POP DUP2 ADD SWAP1 PUSH2 0x512F SWAP2 SWAP1 PUSH2 0x737D JUMP JUMPDEST SWAP2 POP SWAP2 POP PUSH0 DUP1 DUP5 PUSH20 0xFFFFFFFFFFFFFFFFFFFFFFFFFFFFFFFFFFFFFFFF AND DUP9 PUSH20 0xFFFFFFFFFFFFFFFFFFFFFFFFFFFFFFFFFFFFFFFF AND EQ PUSH2 0x516F JUMPI DUP3 DUP5 PUSH2 0x5172 JUMP JUMPDEST DUP4 DUP4 JUMPDEST SWAP2 POP SWAP2 POP DUP9 PUSH1 0xC0 ADD CALLDATALOAD DUP3 LT ISZERO PUSH2 0x51B4 JUMPI PUSH1 0x40 MLOAD PUSH32 0x8F66EC1400000000000000000000000000000000000000000000000000000000 DUP2 MSTORE PUSH1 0x4 ADD PUSH1 0x40 MLOAD DUP1 SWAP2 SUB SWAP1 REVERT JUMPDEST DUP9 PUSH1 0xE0 ADD CALLDATALOAD DUP2 LT ISZERO PUSH2 0x51F2 JUMPI PUSH1 0x40 MLOAD PUSH32 0x34C9062400000000000000000000000000000000000000000000000000000000 DUP2 MSTORE PUSH1 0x4 ADD PUSH1 0x40 MLOAD DUP1 SWAP2 SUB SWAP1 REVERT JUMPDEST POP POP POP POP POP POP POP POP POP POP JUMP JUMPDEST PUSH0 PUSH2 0x5209 DUP5 DUP4 PUSH2 0x16F2 JUMP JUMPDEST SWAP1 POP DUP3 DUP2 PUSH1 0x1 DUP4 MLOAD PUSH2 0x521B SWAP2 SWAP1 PUSH2 0x7309 JUMP JUMPDEST DUP2 MLOAD DUP2 LT PUSH2 0x522C JUMPI PUSH2 0x522B PUSH2 0x733C JUMP JUMPDEST JUMPDEST PUSH1 0x20 MUL PUSH1 0x20 ADD ADD MLOAD LT ISZERO PUSH2 0x526C JUMPI PUSH1 0x40 MLOAD PUSH32 0x42301C2300000000000000000000000000000000000000000000000000000000 DUP2 MSTORE PUSH1 0x4 ADD PUSH1 0x40 MLOAD DUP1 SWAP2 SUB SWAP1 REVERT JUMPDEST PUSH0 PUSH2 0x52F0 DUP4 PUSH0 DUP2 MLOAD DUP2 LT PUSH2 0x5283 JUMPI PUSH2 0x5282 PUSH2 0x733C JUMP JUMPDEST JUMPDEST PUSH1 0x20 MUL PUSH1 0x20 ADD ADD MLOAD PUSH0 ADD MLOAD DUP5 PUSH0 DUP2 MLOAD DUP2 LT PUSH2 0x52A1 JUMPI PUSH2 0x52A0 PUSH2 0x733C JUMP JUMPDEST JUMPDEST PUSH1 0x20 MUL PUSH1 0x20 ADD ADD MLOAD PUSH1 0x20 ADD MLOAD DUP6 PUSH0 DUP2 MLOAD DUP2 LT PUSH2 0x52C0 JUMPI PUSH2 0x52BF PUSH2 0x733C JUMP JUMPDEST JUMPDEST PUSH1 0x20 MUL PUSH1 0x20 ADD ADD MLOAD PUSH1 0x40 ADD MLOAD DUP7 PUSH0 DUP2 MLOAD DUP2 LT PUSH2 0x52DF JUMPI PUSH2 0x52DE PUSH2 0x733C JUMP JUMPDEST JUMPDEST PUSH1 0x20 MUL PUSH1 0x20 ADD ADD MLOAD PUSH1 0x60 ADD MLOAD PUSH2 0x1CFA JUMP JUMPDEST SWAP1 POP PUSH2 0x52FD DUP7 DUP3 DUP8 PUSH2 0x56FB JUMP JUMPDEST PUSH2 0x5308 DUP3 DUP5 ADDRESS PUSH2 0x49A0 JUMP JUMPDEST POP POP POP POP POP POP JUMP JUMPDEST PUSH0 PUSH2 0x5319 PUSH2 0x41D2 JUMP JUMPDEST SWAP1 POP PUSH0 PUSH20 0xEEEEEEEEEEEEEEEEEEEEEEEEEEEEEEEEEEEEEEEE PUSH20 0xFFFFFFFFFFFFFFFFFFFFFFFFFFFFFFFFFFFFFFFF AND DUP4 PUSH20 0xFFFFFFFFFFFFFFFFFFFFFFFFFFFFFFFFFFFFFFFF AND SUB PUSH2 0x549B JUMPI PUSH32 0x0 PUSH20 0xFFFFFFFFFFFFFFFFFFFFFFFFFFFFFFFFFFFFFFFF AND PUSH4 0x70A08231 ADDRESS PUSH1 0x40 MLOAD DUP3 PUSH4 0xFFFFFFFF AND PUSH1 0xE0 SHL DUP2 MSTORE PUSH1 0x4 ADD PUSH2 0x53BC SWAP2 SWAP1 PUSH2 0x6685 JUMP JUMPDEST PUSH1 0x20 PUSH1 0x40 MLOAD DUP1 DUP4 SUB DUP2 DUP7 GAS STATICCALL ISZERO DUP1 ISZERO PUSH2 0x53D7 JUMPI RETURNDATASIZE PUSH0 DUP1 RETURNDATACOPY RETURNDATASIZE PUSH0 REVERT JUMPDEST POP POP POP POP PUSH1 0x40 MLOAD RETURNDATASIZE PUSH1 0x1F NOT PUSH1 0x1F DUP3 ADD AND DUP3 ADD DUP1 PUSH1 0x40 MSTORE POP DUP2 ADD SWAP1 PUSH2 0x53FB SWAP2 SWAP1 PUSH2 0x73E6 JUMP JUMPDEST SWAP1 POP PUSH0 DUP2 GT ISZERO PUSH2 0x5496 JUMPI PUSH32 0x0 PUSH20 0xFFFFFFFFFFFFFFFFFFFFFFFFFFFFFFFFFFFFFFFF AND PUSH4 0x2E1A7D4D DUP3 PUSH1 0x40 MLOAD DUP3 PUSH4 0xFFFFFFFF AND PUSH1 0xE0 SHL DUP2 MSTORE PUSH1 0x4 ADD PUSH2 0x545E SWAP2 SWAP1 PUSH2 0x71A3 JUMP JUMPDEST PUSH0 PUSH1 0x40 MLOAD DUP1 DUP4 SUB DUP2 PUSH0 DUP8 DUP1 EXTCODESIZE ISZERO DUP1 ISZERO PUSH2 0x5475 JUMPI PUSH0 DUP1 REVERT JUMPDEST POP GAS CALL ISZERO DUP1 ISZERO PUSH2 0x5487 JUMPI RETURNDATASIZE PUSH0 DUP1 RETURNDATACOPY RETURNDATASIZE PUSH0 REVERT JUMPDEST POP POP POP POP PUSH2 0x5495 DUP3 DUP3 PUSH2 0x48AE JUMP JUMPDEST JUMPDEST PUSH2 0x554A JUMP JUMPDEST DUP3 PUSH20 0xFFFFFFFFFFFFFFFFFFFFFFFFFFFFFFFFFFFFFFFF AND PUSH4 0x70A08231 ADDRESS PUSH1 0x40 MLOAD DUP3 PUSH4 0xFFFFFFFF AND PUSH1 0xE0 SHL DUP2 MSTORE PUSH1 0x4 ADD PUSH2 0x54D4 SWAP2 SWAP1 PUSH2 0x6685 JUMP JUMPDEST PUSH1 0x20 PUSH1 0x40 MLOAD DUP1 DUP4 SUB DUP2 DUP7 GAS STATICCALL ISZERO DUP1 ISZERO PUSH2 0x54EF JUMPI RETURNDATASIZE PUSH0 DUP1 RETURNDATACOPY RETURNDATASIZE PUSH0 REVERT JUMPDEST POP POP POP POP PUSH1 0x40 MLOAD RETURNDATASIZE PUSH1 0x1F NOT PUSH1 0x1F DUP3 ADD AND DUP3 ADD DUP1 PUSH1 0x40 MSTORE POP DUP2 ADD SWAP1 PUSH2 0x5513 SWAP2 SWAP1 PUSH2 0x73E6 JUMP JUMPDEST SWAP1 POP PUSH0 DUP2 GT ISZERO PUSH2 0x5549 JUMPI PUSH2 0x5548 DUP3 DUP3 DUP6 PUSH20 0xFFFFFFFFFFFFFFFFFFFFFFFFFFFFFFFFFFFFFFFF AND PUSH2 0x5E0E SWAP1 SWAP3 SWAP2 SWAP1 PUSH4 0xFFFFFFFF AND JUMP JUMPDEST JUMPDEST JUMPDEST POP POP POP JUMP JUMPDEST PUSH0 DUP1 DUP3 SUB PUSH2 0x555F JUMPI PUSH0 SWAP1 POP PUSH2 0x5640 JUMP JUMPDEST PUSH0 PUSH1 0x1 PUSH2 0x556B DUP5 PUSH2 0x5E8D JUMP JUMPDEST SWAP1 SHR PUSH1 0x1 SWAP1 SHL SWAP1 POP PUSH1 0x1 DUP2 DUP5 DUP2 PUSH2 0x5585 JUMPI PUSH2 0x5584 PUSH2 0x7710 JUMP JUMPDEST JUMPDEST DIV DUP3 ADD SWAP1 SHR SWAP1 POP PUSH1 0x1 DUP2 DUP5 DUP2 PUSH2 0x559E JUMPI PUSH2 0x559D PUSH2 0x7710 JUMP JUMPDEST JUMPDEST DIV DUP3 ADD SWAP1 SHR SWAP1 POP PUSH1 0x1 DUP2 DUP5 DUP2 PUSH2 0x55B7 JUMPI PUSH2 0x55B6 PUSH2 0x7710 JUMP JUMPDEST JUMPDEST DIV DUP3 ADD SWAP1 SHR SWAP1 POP PUSH1 0x1 DUP2 DUP5 DUP2 PUSH2 0x55D0 JUMPI PUSH2 0x55CF PUSH2 0x7710 JUMP JUMPDEST JUMPDEST DIV DUP3 ADD SWAP1 SHR SWAP1 POP PUSH1 0x1 DUP2 DUP5 DUP2 PUSH2 0x55E9 JUMPI PUSH2 0x55E8 PUSH2 0x7710 JUMP JUMPDEST JUMPDEST DIV DUP3 ADD SWAP1 SHR SWAP1 POP PUSH1 0x1 DUP2 DUP5 DUP2 PUSH2 0x5602 JUMPI PUSH2 0x5601 PUSH2 0x7710 JUMP JUMPDEST JUMPDEST DIV DUP3 ADD SWAP1 SHR SWAP1 POP PUSH1 0x1 DUP2 DUP5 DUP2 PUSH2 0x561B JUMPI PUSH2 0x561A PUSH2 0x7710 JUMP JUMPDEST JUMPDEST DIV DUP3 ADD SWAP1 SHR SWAP1 POP PUSH2 0x563C DUP2 DUP3 DUP6 DUP2 PUSH2 0x5636 JUMPI PUSH2 0x5635 PUSH2 0x7710 JUMP JUMPDEST JUMPDEST DIV PUSH2 0x56E3 JUMP JUMPDEST SWAP2 POP POP JUMPDEST SWAP2 SWAP1 POP JUMP JUMPDEST PUSH0 DUP1 DUP5 SUB PUSH2 0x567F JUMPI PUSH1 0x40 MLOAD PUSH32 0x5945EA5600000000000000000000000000000000000000000000000000000000 DUP2 MSTORE PUSH1 0x4 ADD PUSH1 0x40 MLOAD DUP1 SWAP2 SUB SWAP1 REVERT JUMPDEST PUSH0 DUP4 EQ DUP1 PUSH2 0x568C JUMPI POP PUSH0 DUP3 EQ JUMPDEST ISZERO PUSH2 0x56C3 JUMPI PUSH1 0x40 MLOAD PUSH32 0xBB55FD2700000000000000000000000000000000000000000000000000000000 DUP2 MSTORE PUSH1 0x4 ADD PUSH1 0x40 MLOAD DUP1 SWAP2 SUB SWAP1 REVERT JUMPDEST DUP3 DUP3 DUP6 PUSH2 0x56D0 SWAP2 SWAP1 PUSH2 0x76CF JUMP JUMPDEST PUSH2 0x56DA SWAP2 SWAP1 PUSH2 0x773D JUMP JUMPDEST SWAP1 POP SWAP4 SWAP3 POP POP POP JUMP JUMPDEST PUSH0 DUP2 DUP4 LT PUSH2 0x56F1 JUMPI DUP2 PUSH2 0x56F3 JUMP JUMPDEST DUP3 JUMPDEST SWAP1 POP SWAP3 SWAP2 POP POP JUMP JUMPDEST PUSH0 DUP4 PUSH20 0xFFFFFFFFFFFFFFFFFFFFFFFFFFFFFFFFFFFFFFFF AND EXTCODESIZE GT PUSH2 0x571D JUMPI PUSH0 DUP1 REVERT JUMPDEST PUSH0 DUP1 DUP5 PUSH20 0xFFFFFFFFFFFFFFFFFFFFFFFFFFFFFFFFFFFFFFFF AND PUSH4 0xA9059CBB PUSH1 0xE0 SHL DUP6 DUP6 PUSH1 0x40 MLOAD PUSH1 0x24 ADD PUSH2 0x5751 SWAP3 SWAP2 SWAP1 PUSH2 0x7411 JUMP JUMPDEST PUSH1 0x40 MLOAD PUSH1 0x20 DUP2 DUP4 SUB SUB DUP2 MSTORE SWAP1 PUSH1 0x40 MSTORE SWAP1 PUSH28 0xFFFFFFFFFFFFFFFFFFFFFFFFFFFFFFFFFFFFFFFFFFFFFFFFFFFFFFFF NOT AND PUSH1 0x20 DUP3 ADD DUP1 MLOAD PUSH28 0xFFFFFFFFFFFFFFFFFFFFFFFFFFFFFFFFFFFFFFFFFFFFFFFFFFFFFFFF DUP4 DUP2 DUP4 AND OR DUP4 MSTORE POP POP POP POP PUSH1 0x40 MLOAD PUSH2 0x57BB SWAP2 SWAP1 PUSH2 0x7B29 JUMP JUMPDEST PUSH0 PUSH1 0x40 MLOAD DUP1 DUP4 SUB DUP2 PUSH0 DUP7 GAS CALL SWAP2 POP POP RETURNDATASIZE DUP1 PUSH0 DUP2 EQ PUSH2 0x57F4 JUMPI PUSH1 0x40 MLOAD SWAP2 POP PUSH1 0x1F NOT PUSH1 0x3F RETURNDATASIZE ADD AND DUP3 ADD PUSH1 0x40 MSTORE RETURNDATASIZE DUP3 MSTORE RETURNDATASIZE PUSH0 PUSH1 0x20 DUP5 ADD RETURNDATACOPY PUSH2 0x57F9 JUMP JUMPDEST PUSH1 0x60 SWAP2 POP JUMPDEST POP SWAP2 POP SWAP2 POP DUP2 DUP1 ISZERO PUSH2 0x5826 JUMPI POP PUSH0 DUP2 MLOAD EQ DUP1 PUSH2 0x5825 JUMPI POP DUP1 DUP1 PUSH1 0x20 ADD SWAP1 MLOAD DUP2 ADD SWAP1 PUSH2 0x5824 SWAP2 SWAP1 PUSH2 0x744C JUMP JUMPDEST JUMPDEST JUMPDEST PUSH2 0x582E JUMPI PUSH0 DUP1 REVERT JUMPDEST POP POP POP POP POP JUMP JUMPDEST PUSH0 DUP6 PUSH0 ADD PUSH1 0x20 DUP2 ADD SWAP1 PUSH2 0x5848 SWAP2 SWAP1 PUSH2 0x6C4D JUMP JUMPDEST SWAP1 POP PUSH0 DUP7 PUSH1 0x20 ADD PUSH1 0x20 DUP2 ADD SWAP1 PUSH2 0x585E SWAP2 SWAP1 PUSH2 0x6C4D JUMP JUMPDEST SWAP1 POP PUSH0 DUP8 PUSH1 0x40 ADD PUSH1 0x20 DUP2 ADD SWAP1 PUSH2 0x5874 SWAP2 SWAP1 PUSH2 0x73BB JUMP JUMPDEST SWAP1 POP PUSH0 DUP9 PUSH1 0x60 ADD PUSH1 0x20 DUP2 ADD SWAP1 PUSH2 0x588A SWAP2 SWAP1 PUSH2 0x6C4D JUMP JUMPDEST SWAP1 POP PUSH0 PUSH2 0x5899 DUP6 DUP6 DUP6 DUP6 PUSH2 0x1CFA JUMP JUMPDEST SWAP1 POP PUSH0 DUP1 DUP3 PUSH20 0xFFFFFFFFFFFFFFFFFFFFFFFFFFFFFFFFFFFFFFFF AND PUSH4 0x902F1AC PUSH1 0x40 MLOAD DUP2 PUSH4 0xFFFFFFFF AND PUSH1 0xE0 SHL DUP2 MSTORE PUSH1 0x4 ADD PUSH1 0x60 PUSH1 0x40 MLOAD DUP1 DUP4 SUB DUP2 DUP7 GAS STATICCALL ISZERO DUP1 ISZERO PUSH2 0x58E6 JUMPI RETURNDATASIZE PUSH0 DUP1 RETURNDATACOPY RETURNDATASIZE PUSH0 REVERT JUMPDEST POP POP POP POP PUSH1 0x40 MLOAD RETURNDATASIZE PUSH1 0x1F NOT PUSH1 0x1F DUP3 ADD AND DUP3 ADD DUP1 PUSH1 0x40 MSTORE POP DUP2 ADD SWAP1 PUSH2 0x590A SWAP2 SWAP1 PUSH2 0x764A JUMP JUMPDEST POP SWAP2 POP SWAP2 POP PUSH2 0x3E8 DUP3 GT ISZERO DUP1 PUSH2 0x5922 JUMPI POP PUSH2 0x3E8 DUP2 GT ISZERO JUMPDEST ISZERO PUSH2 0x5959 JUMPI PUSH1 0x40 MLOAD PUSH32 0x9C8787C000000000000000000000000000000000000000000000000000000000 DUP2 MSTORE PUSH1 0x4 ADD PUSH1 0x40 MLOAD DUP1 SWAP2 SUB SWAP1 REVERT JUMPDEST POP POP DUP5 PUSH20 0xFFFFFFFFFFFFFFFFFFFFFFFFFFFFFFFFFFFFFFFF AND DUP14 PUSH20 0xFFFFFFFFFFFFFFFFFFFFFFFFFFFFFFFFFFFFFFFF AND EQ PUSH2 0x5A92 JUMPI DUP5 PUSH20 0xFFFFFFFFFFFFFFFFFFFFFFFFFFFFFFFFFFFFFFFF AND DUP10 DUP10 PUSH1 0x1 DUP13 DUP13 SWAP1 POP PUSH2 0x59B7 SWAP2 SWAP1 PUSH2 0x7309 JUMP JUMPDEST DUP2 DUP2 LT PUSH2 0x59C7 JUMPI PUSH2 0x59C6 PUSH2 0x733C JUMP JUMPDEST JUMPDEST SWAP1 POP PUSH1 0x80 MUL ADD PUSH1 0x20 ADD PUSH1 0x20 DUP2 ADD SWAP1 PUSH2 0x59DF SWAP2 SWAP1 PUSH2 0x6C4D JUMP JUMPDEST PUSH20 0xFFFFFFFFFFFFFFFFFFFFFFFFFFFFFFFFFFFFFFFF AND EQ PUSH2 0x5A2C JUMPI PUSH1 0x40 MLOAD PUSH32 0x4EA0E33800000000000000000000000000000000000000000000000000000000 DUP2 MSTORE PUSH1 0x4 ADD PUSH1 0x40 MLOAD DUP1 SWAP2 SUB SWAP1 REVERT JUMPDEST PUSH2 0x5A91 DUP14 DUP14 DUP13 PUSH1 0x80 ADD CALLDATALOAD DUP13 DUP13 DUP1 DUP1 PUSH1 0x20 MUL PUSH1 0x20 ADD PUSH1 0x40 MLOAD SWAP1 DUP2 ADD PUSH1 0x40 MSTORE DUP1 SWAP4 SWAP3 SWAP2 SWAP1 DUP2 DUP2 MSTORE PUSH1 0x20 ADD PUSH0 SWAP1 JUMPDEST DUP3 DUP3 LT ISZERO PUSH2 0x5A87 JUMPI DUP5 DUP5 DUP4 SWAP1 POP PUSH1 0x80 MUL ADD DUP1 CALLDATASIZE SUB DUP2 ADD SWAP1 PUSH2 0x5A78 SWAP2 SWAP1 PUSH2 0x72B1 JUMP JUMPDEST DUP2 MSTORE PUSH1 0x20 ADD SWAP1 PUSH1 0x1 ADD SWAP1 PUSH2 0x5A57 JUMP JUMPDEST POP POP POP POP POP PUSH2 0x51FE JUMP JUMPDEST JUMPDEST DUP4 PUSH20 0xFFFFFFFFFFFFFFFFFFFFFFFFFFFFFFFFFFFFFFFF AND DUP14 PUSH20 0xFFFFFFFFFFFFFFFFFFFFFFFFFFFFFFFFFFFFFFFF AND EQ PUSH2 0x5BC9 JUMPI DUP4 PUSH20 0xFFFFFFFFFFFFFFFFFFFFFFFFFFFFFFFFFFFFFFFF AND DUP8 DUP8 PUSH1 0x1 DUP11 DUP11 SWAP1 POP PUSH2 0x5AEE SWAP2 SWAP1 PUSH2 0x7309 JUMP JUMPDEST DUP2 DUP2 LT PUSH2 0x5AFE JUMPI PUSH2 0x5AFD PUSH2 0x733C JUMP JUMPDEST JUMPDEST SWAP1 POP PUSH1 0x80 MUL ADD PUSH1 0x20 ADD PUSH1 0x20 DUP2 ADD SWAP1 PUSH2 0x5B16 SWAP2 SWAP1 PUSH2 0x6C4D JUMP JUMPDEST PUSH20 0xFFFFFFFFFFFFFFFFFFFFFFFFFFFFFFFFFFFFFFFF AND EQ PUSH2 0x5B63 JUMPI PUSH1 0x40 MLOAD PUSH32 0xCAC9040C00000000000000000000000000000000000000000000000000000000 DUP2 MSTORE PUSH1 0x4 ADD PUSH1 0x40 MLOAD DUP1 SWAP2 SUB SWAP1 REVERT JUMPDEST PUSH2 0x5BC8 DUP14 DUP13 DUP13 PUSH1 0xA0 ADD CALLDATALOAD DUP11 DUP11 DUP1 DUP1 PUSH1 0x20 MUL PUSH1 0x20 ADD PUSH1 0x40 MLOAD SWAP1 DUP2 ADD PUSH1 0x40 MSTORE DUP1 SWAP4 SWAP3 SWAP2 SWAP1 DUP2 DUP2 MSTORE PUSH1 0x20 ADD PUSH0 SWAP1 JUMPDEST DUP3 DUP3 LT ISZERO PUSH2 0x5BBE JUMPI DUP5 DUP5 DUP4 SWAP1 POP PUSH1 0x80 MUL ADD DUP1 CALLDATASIZE SUB DUP2 ADD SWAP1 PUSH2 0x5BAF SWAP2 SWAP1 PUSH2 0x72B1 JUMP JUMPDEST DUP2 MSTORE PUSH1 0x20 ADD SWAP1 PUSH1 0x1 ADD SWAP1 PUSH2 0x5B8E JUMP JUMPDEST POP POP POP POP POP PUSH2 0x51FE JUMP JUMPDEST JUMPDEST POP POP POP POP POP POP POP POP POP POP POP POP POP JUMP JUMPDEST PUSH0 DUP2 PUSH0 ADD PUSH1 0x20 DUP2 ADD SWAP1 PUSH2 0x5BEB SWAP2 SWAP1 PUSH2 0x6C4D JUMP JUMPDEST SWAP1 POP PUSH0 DUP3 PUSH1 0x20 ADD PUSH1 0x20 DUP2 ADD SWAP1 PUSH2 0x5C01 SWAP2 SWAP1 PUSH2 0x6C4D JUMP JUMPDEST SWAP1 POP PUSH0 DUP4 PUSH1 0x40 ADD PUSH1 0x20 DUP2 ADD SWAP1 PUSH2 0x5C17 SWAP2 SWAP1 PUSH2 0x73BB JUMP JUMPDEST SWAP1 POP PUSH0 DUP5 PUSH1 0x60 ADD PUSH1 0x20 DUP2 ADD SWAP1 PUSH2 0x5C2D SWAP2 SWAP1 PUSH2 0x6C4D JUMP JUMPDEST SWAP1 POP PUSH0 PUSH2 0x5C3C DUP6 DUP6 DUP6 DUP6 PUSH2 0x1CFA JUMP JUMPDEST SWAP1 POP PUSH0 DUP1 PUSH2 0x5D46 DUP8 DUP8 DUP8 DUP8 DUP12 PUSH20 0xFFFFFFFFFFFFFFFFFFFFFFFFFFFFFFFFFFFFFFFF AND PUSH4 0x70A08231 ADDRESS PUSH1 0x40 MLOAD DUP3 PUSH4 0xFFFFFFFF AND PUSH1 0xE0 SHL DUP2 MSTORE PUSH1 0x4 ADD PUSH2 0x5C80 SWAP2 SWAP1 PUSH2 0x6685 JUMP JUMPDEST PUSH1 0x20 PUSH1 0x40 MLOAD DUP1 DUP4 SUB DUP2 DUP7 GAS STATICCALL ISZERO DUP1 ISZERO PUSH2 0x5C9B JUMPI RETURNDATASIZE PUSH0 DUP1 RETURNDATACOPY RETURNDATASIZE PUSH0 REVERT JUMPDEST POP POP POP POP PUSH1 0x40 MLOAD RETURNDATASIZE PUSH1 0x1F NOT PUSH1 0x1F DUP3 ADD AND DUP3 ADD DUP1 PUSH1 0x40 MSTORE POP DUP2 ADD SWAP1 PUSH2 0x5CBF SWAP2 SWAP1 PUSH2 0x73E6 JUMP JUMPDEST DUP12 PUSH20 0xFFFFFFFFFFFFFFFFFFFFFFFFFFFFFFFFFFFFFFFF AND PUSH4 0x70A08231 ADDRESS PUSH1 0x40 MLOAD DUP3 PUSH4 0xFFFFFFFF AND PUSH1 0xE0 SHL DUP2 MSTORE PUSH1 0x4 ADD PUSH2 0x5CF8 SWAP2 SWAP1 PUSH2 0x6685 JUMP JUMPDEST PUSH1 0x20 PUSH1 0x40 MLOAD DUP1 DUP4 SUB DUP2 DUP7 GAS STATICCALL ISZERO DUP1 ISZERO PUSH2 0x5D13 JUMPI RETURNDATASIZE PUSH0 DUP1 RETURNDATACOPY RETURNDATASIZE PUSH0 REVERT JUMPDEST POP POP POP POP PUSH1 0x40 MLOAD RETURNDATASIZE PUSH1 0x1F NOT PUSH1 0x1F DUP3 ADD AND DUP3 ADD DUP1 PUSH1 0x40 MSTORE POP DUP2 ADD SWAP1 PUSH2 0x5D37 SWAP2 SWAP1 PUSH2 0x73E6 JUMP JUMPDEST DUP15 PUSH1 0xC0 ADD CALLDATALOAD DUP16 PUSH1 0xE0 ADD CALLDATALOAD PUSH2 0x5F64 JUMP JUMPDEST SWAP2 POP SWAP2 POP PUSH2 0x5D55 DUP8 DUP5 DUP5 PUSH2 0x56FB JUMP JUMPDEST PUSH2 0x5D60 DUP7 DUP5 DUP4 PUSH2 0x56FB JUMP JUMPDEST POP POP POP POP POP POP POP POP JUMP JUMPDEST PUSH0 PUSH1 0x14 SWAP1 POP SWAP1 JUMP JUMPDEST PUSH0 CALLER SWAP1 POP SWAP1 JUMP JUMPDEST PUSH0 PUSH2 0x5DA3 DUP3 DUP5 PUSH20 0xFFFFFFFFFFFFFFFFFFFFFFFFFFFFFFFFFFFFFFFF AND PUSH2 0x60E2 SWAP1 SWAP2 SWAP1 PUSH4 0xFFFFFFFF AND JUMP JUMPDEST SWAP1 POP PUSH0 DUP2 MLOAD EQ ISZERO DUP1 ISZERO PUSH2 0x5DC7 JUMPI POP DUP1 DUP1 PUSH1 0x20 ADD SWAP1 MLOAD DUP2 ADD SWAP1 PUSH2 0x5DC5 SWAP2 SWAP1 PUSH2 0x744C JUMP JUMPDEST ISZERO JUMPDEST ISZERO PUSH2 0x5E09 JUMPI DUP3 PUSH1 0x40 MLOAD PUSH32 0x5274AFE700000000000000000000000000000000000000000000000000000000 DUP2 MSTORE PUSH1 0x4 ADD PUSH2 0x5E00 SWAP2 SWAP1 PUSH2 0x6685 JUMP JUMPDEST PUSH1 0x40 MLOAD DUP1 SWAP2 SUB SWAP1 REVERT JUMPDEST POP POP POP JUMP JUMPDEST PUSH2 0x5E88 DUP4 DUP5 PUSH20 0xFFFFFFFFFFFFFFFFFFFFFFFFFFFFFFFFFFFFFFFF AND PUSH4 0xA9059CBB DUP6 DUP6 PUSH1 0x40 MLOAD PUSH1 0x24 ADD PUSH2 0x5E41 SWAP3 SWAP2 SWAP1 PUSH2 0x7411 JUMP JUMPDEST PUSH1 0x40 MLOAD PUSH1 0x20 DUP2 DUP4 SUB SUB DUP2 MSTORE SWAP1 PUSH1 0x40 MSTORE SWAP2 POP PUSH1 0xE0 SHL PUSH1 0x20 DUP3 ADD DUP1 MLOAD PUSH28 0xFFFFFFFFFFFFFFFFFFFFFFFFFFFFFFFFFFFFFFFFFFFFFFFFFFFFFFFF DUP4 DUP2 DUP4 AND OR DUP4 MSTORE POP POP POP POP PUSH2 0x5D79 JUMP JUMPDEST POP POP POP JUMP JUMPDEST PUSH0 DUP1 PUSH0 SWAP1 POP PUSH0 PUSH1 0x80 DUP5 SWAP1 SHR GT ISZERO PUSH2 0x5EAC JUMPI PUSH1 0x80 DUP4 SWAP1 SHR SWAP3 POP PUSH1 0x80 DUP2 ADD SWAP1 POP JUMPDEST PUSH0 PUSH1 0x40 DUP5 SWAP1 SHR GT ISZERO PUSH2 0x5EC6 JUMPI PUSH1 0x40 DUP4 SWAP1 SHR SWAP3 POP PUSH1 0x40 DUP2 ADD SWAP1 POP JUMPDEST PUSH0 PUSH1 0x20 DUP5 SWAP1 SHR GT ISZERO PUSH2 0x5EE0 JUMPI PUSH1 0x20 DUP4 SWAP1 SHR SWAP3 POP PUSH1 0x20 DUP2 ADD SWAP1 POP JUMPDEST PUSH0 PUSH1 0x10 DUP5 SWAP1 SHR GT ISZERO PUSH2 0x5EFA JUMPI PUSH1 0x10 DUP4 SWAP1 SHR SWAP3 POP PUSH1 0x10 DUP2 ADD SWAP1 POP JUMPDEST PUSH0 PUSH1 0x8 DUP5 SWAP1 SHR GT ISZERO PUSH2 0x5F14 JUMPI PUSH1 0x8 DUP4 SWAP1 SHR SWAP3 POP PUSH1 0x8 DUP2 ADD SWAP1 POP JUMPDEST PUSH0 PUSH1 0x4 DUP5 SWAP1 SHR GT ISZERO PUSH2 0x5F2E JUMPI PUSH1 0x4 DUP4 SWAP1 SHR SWAP3 POP PUSH1 0x4 DUP2 ADD SWAP1 POP JUMPDEST PUSH0 PUSH1 0x2 DUP5 SWAP1 SHR GT ISZERO PUSH2 0x5F48 JUMPI PUSH1 0x2 DUP4 SWAP1 SHR SWAP3 POP PUSH1 0x2 DUP2 ADD SWAP1 POP JUMPDEST PUSH0 PUSH1 0x1 DUP5 SWAP1 SHR GT ISZERO PUSH2 0x5F5B JUMPI PUSH1 0x1 DUP2 ADD SWAP1 POP JUMPDEST DUP1 SWAP2 POP POP SWAP2 SWAP1 POP JUMP JUMPDEST PUSH0 DUP1 DUP4 DUP7 LT ISZERO PUSH2 0x5FA0 JUMPI PUSH1 0x40 MLOAD PUSH32 0xDC6B2EF200000000000000000000000000000000000000000000000000000000 DUP2 MSTORE PUSH1 0x4 ADD PUSH1 0x40 MLOAD DUP1 SWAP2 SUB SWAP1 REVERT JUMPDEST DUP3 DUP6 LT ISZERO PUSH2 0x5FDA JUMPI PUSH1 0x40 MLOAD PUSH32 0xACEE051300000000000000000000000000000000000000000000000000000000 DUP2 MSTORE PUSH1 0x4 ADD PUSH1 0x40 MLOAD DUP1 SWAP2 SUB SWAP1 REVERT JUMPDEST PUSH0 DUP1 PUSH2 0x5FE8 DUP13 DUP13 DUP13 DUP13 PUSH2 0x21EF JUMP JUMPDEST SWAP2 POP SWAP2 POP PUSH0 DUP3 EQ DUP1 ISZERO PUSH2 0x5FFA JUMPI POP PUSH0 DUP2 EQ JUMPDEST ISZERO PUSH2 0x600E JUMPI DUP8 DUP8 DUP1 SWAP5 POP DUP2 SWAP6 POP POP POP PUSH2 0x60D3 JUMP JUMPDEST PUSH0 PUSH2 0x601A DUP10 DUP5 DUP5 PUSH2 0x5645 JUMP JUMPDEST SWAP1 POP DUP8 DUP2 GT PUSH2 0x606C JUMPI DUP6 DUP2 LT ISZERO PUSH2 0x605D JUMPI PUSH1 0x40 MLOAD PUSH32 0x34C9062400000000000000000000000000000000000000000000000000000000 DUP2 MSTORE PUSH1 0x4 ADD PUSH1 0x40 MLOAD DUP1 SWAP2 SUB SWAP1 REVERT JUMPDEST DUP9 DUP2 DUP1 SWAP6 POP DUP2 SWAP7 POP POP POP PUSH2 0x60D1 JUMP JUMPDEST PUSH0 PUSH2 0x6078 DUP10 DUP5 DUP7 PUSH2 0x5645 JUMP JUMPDEST SWAP1 POP DUP10 DUP2 GT ISZERO PUSH2 0x608B JUMPI PUSH2 0x608A PUSH2 0x7477 JUMP JUMPDEST JUMPDEST DUP8 DUP2 LT ISZERO PUSH2 0x60C5 JUMPI PUSH1 0x40 MLOAD PUSH32 0x8F66EC1400000000000000000000000000000000000000000000000000000000 DUP2 MSTORE PUSH1 0x4 ADD PUSH1 0x40 MLOAD DUP1 SWAP2 SUB SWAP1 REVERT JUMPDEST DUP1 DUP10 DUP1 SWAP7 POP DUP2 SWAP8 POP POP POP POP JUMPDEST POP JUMPDEST POP POP SWAP9 POP SWAP9 SWAP7 POP POP POP POP POP POP POP JUMP JUMPDEST PUSH1 0x60 PUSH2 0x60EF DUP4 DUP4 PUSH0 PUSH2 0x60F7 JUMP JUMPDEST SWAP1 POP SWAP3 SWAP2 POP POP JUMP JUMPDEST PUSH1 0x60 DUP2 SELFBALANCE LT ISZERO PUSH2 0x613E JUMPI ADDRESS PUSH1 0x40 MLOAD PUSH32 0xCD78605900000000000000000000000000000000000000000000000000000000 DUP2 MSTORE PUSH1 0x4 ADD PUSH2 0x6135 SWAP2 SWAP1 PUSH2 0x6685 JUMP JUMPDEST PUSH1 0x40 MLOAD DUP1 SWAP2 SUB SWAP1 REVERT JUMPDEST PUSH0 DUP1 DUP6 PUSH20 0xFFFFFFFFFFFFFFFFFFFFFFFFFFFFFFFFFFFFFFFF AND DUP5 DUP7 PUSH1 0x40 MLOAD PUSH2 0x6166 SWAP2 SWAP1 PUSH2 0x7B29 JUMP JUMPDEST PUSH0 PUSH1 0x40 MLOAD DUP1 DUP4 SUB DUP2 DUP6 DUP8 GAS CALL SWAP3 POP POP POP RETURNDATASIZE DUP1 PUSH0 DUP2 EQ PUSH2 0x61A0 JUMPI PUSH1 0x40 MLOAD SWAP2 POP PUSH1 0x1F NOT PUSH1 0x3F RETURNDATASIZE ADD AND DUP3 ADD PUSH1 0x40 MSTORE RETURNDATASIZE DUP3 MSTORE RETURNDATASIZE PUSH0 PUSH1 0x20 DUP5 ADD RETURNDATACOPY PUSH2 0x61A5 JUMP JUMPDEST PUSH1 0x60 SWAP2 POP JUMPDEST POP SWAP2 POP SWAP2 POP PUSH2 0x61B5 DUP7 DUP4 DUP4 PUSH2 0x61C0 JUMP JUMPDEST SWAP3 POP POP POP SWAP4 SWAP3 POP POP POP JUMP JUMPDEST PUSH1 0x60 DUP3 PUSH2 0x61D5 JUMPI PUSH2 0x61D0 DUP3 PUSH2 0x624D JUMP JUMPDEST PUSH2 0x6245 JUMP JUMPDEST PUSH0 DUP3 MLOAD EQ DUP1 ISZERO PUSH2 0x61FB JUMPI POP PUSH0 DUP5 PUSH20 0xFFFFFFFFFFFFFFFFFFFFFFFFFFFFFFFFFFFFFFFF AND EXTCODESIZE EQ JUMPDEST ISZERO PUSH2 0x623D JUMPI DUP4 PUSH1 0x40 MLOAD PUSH32 0x9996B31500000000000000000000000000000000000000000000000000000000 DUP2 MSTORE PUSH1 0x4 ADD PUSH2 0x6234 SWAP2 SWAP1 PUSH2 0x6685 JUMP JUMPDEST PUSH1 0x40 MLOAD DUP1 SWAP2 SUB SWAP1 REVERT JUMPDEST DUP2 SWAP1 POP PUSH2 0x6246 JUMP JUMPDEST JUMPDEST SWAP4 SWAP3 POP POP POP JUMP JUMPDEST PUSH0 DUP2 MLOAD GT ISZERO PUSH2 0x625F JUMPI DUP1 MLOAD DUP1 DUP3 PUSH1 0x20 ADD REVERT JUMPDEST PUSH1 0x40 MLOAD PUSH32 0x1425EA4200000000000000000000000000000000000000000000000000000000 DUP2 MSTORE PUSH1 0x4 ADD PUSH1 0x40 MLOAD DUP1 SWAP2 SUB SWAP1 REVERT JUMPDEST PUSH0 PUSH1 0x40 MLOAD SWAP1 POP SWAP1 JUMP JUMPDEST PUSH0 DUP1 REVERT JUMPDEST PUSH0 DUP1 REVERT JUMPDEST PUSH0 PUSH20 0xFFFFFFFFFFFFFFFFFFFFFFFFFFFFFFFFFFFFFFFF DUP3 AND SWAP1 POP SWAP2 SWAP1 POP JUMP JUMPDEST PUSH0 PUSH2 0x62CB DUP3 PUSH2 0x62A2 JUMP JUMPDEST SWAP1 POP SWAP2 SWAP1 POP JUMP JUMPDEST PUSH2 0x62DB DUP2 PUSH2 0x62C1 JUMP JUMPDEST DUP2 EQ PUSH2 0x62E5 JUMPI PUSH0 DUP1 REVERT JUMPDEST POP JUMP JUMPDEST PUSH0 DUP2 CALLDATALOAD SWAP1 POP PUSH2 0x62F6 DUP2 PUSH2 0x62D2 JUMP JUMPDEST SWAP3 SWAP2 POP POP JUMP JUMPDEST PUSH0 DUP2 ISZERO ISZERO SWAP1 POP SWAP2 SWAP1 POP JUMP JUMPDEST PUSH2 0x6310 DUP2 PUSH2 0x62FC JUMP JUMPDEST DUP2 EQ PUSH2 0x631A JUMPI PUSH0 DUP1 REVERT JUMPDEST POP JUMP JUMPDEST PUSH0 DUP2 CALLDATALOAD SWAP1 POP PUSH2 0x632B DUP2 PUSH2 0x6307 JUMP JUMPDEST SWAP3 SWAP2 POP POP JUMP JUMPDEST PUSH0 DUP2 SWAP1 POP SWAP2 SWAP1 POP JUMP JUMPDEST PUSH2 0x6343 DUP2 PUSH2 0x6331 JUMP JUMPDEST DUP2 EQ PUSH2 0x634D JUMPI PUSH0 DUP1 REVERT JUMPDEST POP JUMP JUMPDEST PUSH0 DUP2 CALLDATALOAD SWAP1 POP PUSH2 0x635E DUP2 PUSH2 0x633A JUMP JUMPDEST SWAP3 SWAP2 POP POP JUMP JUMPDEST PUSH0 DUP1 REVERT JUMPDEST PUSH0 DUP1 REVERT JUMPDEST PUSH0 DUP1 REVERT JUMPDEST PUSH0 DUP1 DUP4 PUSH1 0x1F DUP5 ADD SLT PUSH2 0x6385 JUMPI PUSH2 0x6384 PUSH2 0x6364 JUMP JUMPDEST JUMPDEST DUP3 CALLDATALOAD SWAP1 POP PUSH8 0xFFFFFFFFFFFFFFFF DUP2 GT ISZERO PUSH2 0x63A2 JUMPI PUSH2 0x63A1 PUSH2 0x6368 JUMP JUMPDEST JUMPDEST PUSH1 0x20 DUP4 ADD SWAP2 POP DUP4 PUSH1 0x80 DUP3 MUL DUP4 ADD GT ISZERO PUSH2 0x63BE JUMPI PUSH2 0x63BD PUSH2 0x636C JUMP JUMPDEST JUMPDEST SWAP3 POP SWAP3 SWAP1 POP JUMP JUMPDEST PUSH0 DUP1 PUSH0 DUP1 PUSH0 DUP1 PUSH0 DUP1 PUSH0 DUP1 PUSH2 0x100 DUP12 DUP14 SUB SLT ISZERO PUSH2 0x63E4 JUMPI PUSH2 0x63E3 PUSH2 0x629A JUMP JUMPDEST JUMPDEST PUSH0 PUSH2 0x63F1 DUP14 DUP3 DUP15 ADD PUSH2 0x62E8 JUMP JUMPDEST SWAP11 POP POP PUSH1 0x20 PUSH2 0x6402 DUP14 DUP3 DUP15 ADD PUSH2 0x62E8 JUMP JUMPDEST SWAP10 POP POP PUSH1 0x40 PUSH2 0x6413 DUP14 DUP3 DUP15 ADD PUSH2 0x631D JUMP JUMPDEST SWAP9 POP POP PUSH1 0x60 PUSH2 0x6424 DUP14 DUP3 DUP15 ADD PUSH2 0x62E8 JUMP JUMPDEST SWAP8 POP POP PUSH1 0x80 PUSH2 0x6435 DUP14 DUP3 DUP15 ADD PUSH2 0x6350 JUMP JUMPDEST SWAP7 POP POP PUSH1 0xA0 PUSH2 0x6446 DUP14 DUP3 DUP15 ADD PUSH2 0x6350 JUMP JUMPDEST SWAP6 POP POP PUSH1 0xC0 DUP12 ADD CALLDATALOAD PUSH8 0xFFFFFFFFFFFFFFFF DUP2 GT ISZERO PUSH2 0x6467 JUMPI PUSH2 0x6466 PUSH2 0x629E JUMP JUMPDEST JUMPDEST PUSH2 0x6473 DUP14 DUP3 DUP15 ADD PUSH2 0x6370 JUMP JUMPDEST SWAP5 POP SWAP5 POP POP PUSH1 0xE0 DUP12 ADD CALLDATALOAD PUSH8 0xFFFFFFFFFFFFFFFF DUP2 GT ISZERO PUSH2 0x6496 JUMPI PUSH2 0x6495 PUSH2 0x629E JUMP JUMPDEST JUMPDEST PUSH2 0x64A2 DUP14 DUP3 DUP15 ADD PUSH2 0x6370 JUMP JUMPDEST SWAP3 POP SWAP3 POP POP SWAP3 SWAP6 SWAP9 SWAP12 SWAP2 SWAP5 SWAP8 SWAP11 POP SWAP3 SWAP6 SWAP9 POP JUMP JUMPDEST PUSH2 0x64BF DUP2 PUSH2 0x6331 JUMP JUMPDEST DUP3 MSTORE POP POP JUMP JUMPDEST PUSH0 PUSH1 0x80 DUP3 ADD SWAP1 POP PUSH2 0x64D8 PUSH0 DUP4 ADD DUP8 PUSH2 0x64B6 JUMP JUMPDEST PUSH2 0x64E5 PUSH1 0x20 DUP4 ADD DUP7 PUSH2 0x64B6 JUMP JUMPDEST PUSH2 0x64F2 PUSH1 0x40 DUP4 ADD DUP6 PUSH2 0x64B6 JUMP JUMPDEST PUSH2 0x64FF PUSH1 0x60 DUP4 ADD DUP5 PUSH2 0x64B6 JUMP JUMPDEST SWAP6 SWAP5 POP POP POP POP POP JUMP JUMPDEST PUSH0 DUP1 PUSH0 DUP1 PUSH0 DUP1 PUSH0 DUP1 PUSH2 0x100 DUP10 DUP12 SUB SLT ISZERO PUSH2 0x6525 JUMPI PUSH2 0x6524 PUSH2 0x629A JUMP JUMPDEST JUMPDEST PUSH0 PUSH2 0x6532 DUP12 DUP3 DUP13 ADD PUSH2 0x62E8 JUMP JUMPDEST SWAP9 POP POP PUSH1 0x20 PUSH2 0x6543 DUP12 DUP3 DUP13 ADD PUSH2 0x62E8 JUMP JUMPDEST SWAP8 POP POP PUSH1 0x40 PUSH2 0x6554 DUP12 DUP3 DUP13 ADD PUSH2 0x631D JUMP JUMPDEST SWAP7 POP POP PUSH1 0x60 PUSH2 0x6565 DUP12 DUP3 DUP13 ADD PUSH2 0x6350 JUMP JUMPDEST SWAP6 POP POP PUSH1 0x80 PUSH2 0x6576 DUP12 DUP3 DUP13 ADD PUSH2 0x6350 JUMP JUMPDEST SWAP5 POP POP PUSH1 0xA0 PUSH2 0x6587 DUP12 DUP3 DUP13 ADD PUSH2 0x6350 JUMP JUMPDEST SWAP4 POP POP PUSH1 0xC0 PUSH2 0x6598 DUP12 DUP3 DUP13 ADD PUSH2 0x62E8 JUMP JUMPDEST SWAP3 POP POP PUSH1 0xE0 PUSH2 0x65A9 DUP12 DUP3 DUP13 ADD PUSH2 0x6350 JUMP JUMPDEST SWAP2 POP POP SWAP3 SWAP6 SWAP9 POP SWAP3 SWAP6 SWAP9 SWAP1 SWAP4 SWAP7 POP JUMP JUMPDEST PUSH0 PUSH1 0x40 DUP3 ADD SWAP1 POP PUSH2 0x65CC PUSH0 DUP4 ADD DUP6 PUSH2 0x64B6 JUMP JUMPDEST PUSH2 0x65D9 PUSH1 0x20 DUP4 ADD DUP5 PUSH2 0x64B6 JUMP JUMPDEST SWAP4 SWAP3 POP POP POP JUMP JUMPDEST PUSH0 DUP1 PUSH0 DUP1 PUSH0 DUP1 PUSH1 0xA0 DUP8 DUP10 SUB SLT ISZERO PUSH2 0x65FA JUMPI PUSH2 0x65F9 PUSH2 0x629A JUMP JUMPDEST JUMPDEST PUSH0 PUSH2 0x6607 DUP10 DUP3 DUP11 ADD PUSH2 0x6350 JUMP JUMPDEST SWAP7 POP POP PUSH1 0x20 PUSH2 0x6618 DUP10 DUP3 DUP11 ADD PUSH2 0x6350 JUMP JUMPDEST SWAP6 POP POP PUSH1 0x40 DUP8 ADD CALLDATALOAD PUSH8 0xFFFFFFFFFFFFFFFF DUP2 GT ISZERO PUSH2 0x6639 JUMPI PUSH2 0x6638 PUSH2 0x629E JUMP JUMPDEST JUMPDEST PUSH2 0x6645 DUP10 DUP3 DUP11 ADD PUSH2 0x6370 JUMP JUMPDEST SWAP5 POP SWAP5 POP POP PUSH1 0x60 PUSH2 0x6658 DUP10 DUP3 DUP11 ADD PUSH2 0x62E8 JUMP JUMPDEST SWAP3 POP POP PUSH1 0x80 PUSH2 0x6669 DUP10 DUP3 DUP11 ADD PUSH2 0x6350 JUMP JUMPDEST SWAP2 POP POP SWAP3 SWAP6 POP SWAP3 SWAP6 POP SWAP3 SWAP6 JUMP JUMPDEST PUSH2 0x667F DUP2 PUSH2 0x62C1 JUMP JUMPDEST DUP3 MSTORE POP POP JUMP JUMPDEST PUSH0 PUSH1 0x20 DUP3 ADD SWAP1 POP PUSH2 0x6698 PUSH0 DUP4 ADD DUP5 PUSH2 0x6676 JUMP JUMPDEST SWAP3 SWAP2 POP POP JUMP JUMPDEST PUSH0 DUP1 PUSH0 DUP1 PUSH0 PUSH1 0x80 DUP7 DUP9 SUB SLT ISZERO PUSH2 0x66B7 JUMPI PUSH2 0x66B6 PUSH2 0x629A JUMP JUMPDEST JUMPDEST PUSH0 PUSH2 0x66C4 DUP9 DUP3 DUP10 ADD PUSH2 0x6350 JUMP JUMPDEST SWAP6 POP POP PUSH1 0x20 DUP7 ADD CALLDATALOAD PUSH8 0xFFFFFFFFFFFFFFFF DUP2 GT ISZERO PUSH2 0x66E5 JUMPI PUSH2 0x66E4 PUSH2 0x629E JUMP JUMPDEST JUMPDEST PUSH2 0x66F1 DUP9 DUP3 DUP10 ADD PUSH2 0x6370 JUMP JUMPDEST SWAP5 POP SWAP5 POP POP PUSH1 0x40 PUSH2 0x6704 DUP9 DUP3 DUP10 ADD PUSH2 0x62E8 JUMP JUMPDEST SWAP3 POP POP PUSH1 0x60 PUSH2 0x6715 DUP9 DUP3 DUP10 ADD PUSH2 0x6350 JUMP JUMPDEST SWAP2 POP POP SWAP3 SWAP6 POP SWAP3 SWAP6 SWAP1 SWAP4 POP JUMP JUMPDEST PUSH0 DUP2 SWAP1 POP SWAP2 SWAP1 POP JUMP JUMPDEST PUSH0 PUSH2 0x6745 PUSH2 0x6740 PUSH2 0x673B DUP5 PUSH2 0x62A2 JUMP JUMPDEST PUSH2 0x6722 JUMP JUMPDEST PUSH2 0x62A2 JUMP JUMPDEST SWAP1 POP SWAP2 SWAP1 POP JUMP JUMPDEST PUSH0 PUSH2 0x6756 DUP3 PUSH2 0x672B JUMP JUMPDEST SWAP1 POP SWAP2 SWAP1 POP JUMP JUMPDEST PUSH0 PUSH2 0x6767 DUP3 PUSH2 0x674C JUMP JUMPDEST SWAP1 POP SWAP2 SWAP1 POP JUMP JUMPDEST PUSH2 0x6777 DUP2 PUSH2 0x675D JUMP JUMPDEST DUP3 MSTORE POP POP JUMP JUMPDEST PUSH0 PUSH1 0x20 DUP3 ADD SWAP1 POP PUSH2 0x6790 PUSH0 DUP4 ADD DUP5 PUSH2 0x676E JUMP JUMPDEST SWAP3 SWAP2 POP POP JUMP JUMPDEST PUSH0 PUSH1 0x1F NOT PUSH1 0x1F DUP4 ADD AND SWAP1 POP SWAP2 SWAP1 POP JUMP JUMPDEST PUSH32 0x4E487B7100000000000000000000000000000000000000000000000000000000 PUSH0 MSTORE PUSH1 0x41 PUSH1 0x4 MSTORE PUSH1 0x24 PUSH0 REVERT JUMPDEST PUSH2 0x67DC DUP3 PUSH2 0x6796 JUMP JUMPDEST DUP2 ADD DUP2 DUP2 LT PUSH8 0xFFFFFFFFFFFFFFFF DUP3 GT OR ISZERO PUSH2 0x67FB JUMPI PUSH2 0x67FA PUSH2 0x67A6 JUMP JUMPDEST JUMPDEST DUP1 PUSH1 0x40 MSTORE POP POP POP JUMP JUMPDEST PUSH0 PUSH2 0x680D PUSH2 0x6291 JUMP JUMPDEST SWAP1 POP PUSH2 0x6819 DUP3 DUP3 PUSH2 0x67D3 JUMP JUMPDEST SWAP2 SWAP1 POP JUMP JUMPDEST PUSH0 PUSH8 0xFFFFFFFFFFFFFFFF DUP3 GT ISZERO PUSH2 0x6838 JUMPI PUSH2 0x6837 PUSH2 0x67A6 JUMP JUMPDEST JUMPDEST PUSH1 0x20 DUP3 MUL SWAP1 POP PUSH1 0x20 DUP2 ADD SWAP1 POP SWAP2 SWAP1 POP JUMP JUMPDEST PUSH0 PUSH2 0x685B PUSH2 0x6856 DUP5 PUSH2 0x681E JUMP JUMPDEST PUSH2 0x6804 JUMP JUMPDEST SWAP1 POP DUP1 DUP4 DUP3 MSTORE PUSH1 0x20 DUP3 ADD SWAP1 POP PUSH1 0x20 DUP5 MUL DUP4 ADD DUP6 DUP2 GT ISZERO PUSH2 0x687E JUMPI PUSH2 0x687D PUSH2 0x636C JUMP JUMPDEST JUMPDEST DUP4 JUMPDEST DUP2 DUP2 LT ISZERO PUSH2 0x68A7 JUMPI DUP1 PUSH2 0x6893 DUP9 DUP3 PUSH2 0x6350 JUMP JUMPDEST DUP5 MSTORE PUSH1 0x20 DUP5 ADD SWAP4 POP POP PUSH1 0x20 DUP2 ADD SWAP1 POP PUSH2 0x6880 JUMP JUMPDEST POP POP POP SWAP4 SWAP3 POP POP POP JUMP JUMPDEST PUSH0 DUP3 PUSH1 0x1F DUP4 ADD SLT PUSH2 0x68C5 JUMPI PUSH2 0x68C4 PUSH2 0x6364 JUMP JUMPDEST JUMPDEST DUP2 CALLDATALOAD PUSH2 0x68D5 DUP5 DUP3 PUSH1 0x20 DUP7 ADD PUSH2 0x6849 JUMP JUMPDEST SWAP2 POP POP SWAP3 SWAP2 POP POP JUMP JUMPDEST PUSH0 DUP1 PUSH0 DUP1 PUSH0 PUSH1 0x80 DUP7 DUP9 SUB SLT ISZERO PUSH2 0x68F7 JUMPI PUSH2 0x68F6 PUSH2 0x629A JUMP JUMPDEST JUMPDEST PUSH0 DUP7 ADD CALLDATALOAD PUSH8 0xFFFFFFFFFFFFFFFF DUP2 GT ISZERO PUSH2 0x6914 JUMPI PUSH2 0x6913 PUSH2 0x629E JUMP JUMPDEST JUMPDEST PUSH2 0x6920 DUP9 DUP3 DUP10 ADD PUSH2 0x68B1 JUMP JUMPDEST SWAP6 POP POP PUSH1 0x20 DUP7 ADD CALLDATALOAD PUSH8 0xFFFFFFFFFFFFFFFF DUP2 GT ISZERO PUSH2 0x6941 JUMPI PUSH2 0x6940 PUSH2 0x629E JUMP JUMPDEST JUMPDEST PUSH2 0x694D DUP9 DUP3 DUP10 ADD PUSH2 0x6370 JUMP JUMPDEST SWAP5 POP SWAP5 POP POP PUSH1 0x40 PUSH2 0x6960 DUP9 DUP3 DUP10 ADD PUSH2 0x62E8 JUMP JUMPDEST SWAP3 POP POP PUSH1 0x60 PUSH2 0x6971 DUP9 DUP3 DUP10 ADD PUSH2 0x6350 JUMP JUMPDEST SWAP2 POP POP SWAP3 SWAP6 POP SWAP3 SWAP6 SWAP1 SWAP4 POP JUMP JUMPDEST PUSH0 DUP2 MLOAD SWAP1 POP SWAP2 SWAP1 POP JUMP JUMPDEST PUSH0 DUP3 DUP3 MSTORE PUSH1 0x20 DUP3 ADD SWAP1 POP SWAP3 SWAP2 POP POP JUMP JUMPDEST PUSH0 DUP2 SWAP1 POP PUSH1 0x20 DUP3 ADD SWAP1 POP SWAP2 SWAP1 POP JUMP JUMPDEST PUSH2 0x69B0 DUP2 PUSH2 0x6331 JUMP JUMPDEST DUP3 MSTORE POP POP JUMP JUMPDEST PUSH0 PUSH2 0x69C1 DUP4 DUP4 PUSH2 0x69A7 JUMP JUMPDEST PUSH1 0x20 DUP4 ADD SWAP1 POP SWAP3 SWAP2 POP POP JUMP JUMPDEST PUSH0 PUSH1 0x20 DUP3 ADD SWAP1 POP SWAP2 SWAP1 POP JUMP JUMPDEST PUSH0 PUSH2 0x69E3 DUP3 PUSH2 0x697E JUMP JUMPDEST PUSH2 0x69ED DUP2 DUP6 PUSH2 0x6988 JUMP JUMPDEST SWAP4 POP PUSH2 0x69F8 DUP4 PUSH2 0x6998 JUMP JUMPDEST DUP1 PUSH0 JUMPDEST DUP4 DUP2 LT ISZERO PUSH2 0x6A28 JUMPI DUP2 MLOAD PUSH2 0x6A0F DUP9 DUP3 PUSH2 0x69B6 JUMP JUMPDEST SWAP8 POP PUSH2 0x6A1A DUP4 PUSH2 0x69CD JUMP JUMPDEST SWAP3 POP POP PUSH1 0x1 DUP2 ADD SWAP1 POP PUSH2 0x69FB JUMP JUMPDEST POP DUP6 SWAP4 POP POP POP POP SWAP3 SWAP2 POP POP JUMP JUMPDEST PUSH0 PUSH1 0x20 DUP3 ADD SWAP1 POP DUP2 DUP2 SUB PUSH0 DUP4 ADD MSTORE PUSH2 0x6A4D DUP2 DUP5 PUSH2 0x69D9 JUMP JUMPDEST SWAP1 POP SWAP3 SWAP2 POP POP JUMP JUMPDEST PUSH0 DUP1 PUSH1 0x40 DUP4 DUP6 SUB SLT ISZERO PUSH2 0x6A6B JUMPI PUSH2 0x6A6A PUSH2 0x629A JUMP JUMPDEST JUMPDEST PUSH0 PUSH2 0x6A78 DUP6 DUP3 DUP7 ADD PUSH2 0x62E8 JUMP JUMPDEST SWAP3 POP POP PUSH1 0x20 PUSH2 0x6A89 DUP6 DUP3 DUP7 ADD PUSH2 0x62E8 JUMP JUMPDEST SWAP2 POP POP SWAP3 POP SWAP3 SWAP1 POP JUMP JUMPDEST PUSH0 PUSH1 0x40 DUP3 ADD SWAP1 POP PUSH2 0x6AA6 PUSH0 DUP4 ADD DUP6 PUSH2 0x6676 JUMP JUMPDEST PUSH2 0x6AB3 PUSH1 0x20 DUP4 ADD DUP5 PUSH2 0x6676 JUMP JUMPDEST SWAP4 SWAP3 POP POP POP JUMP JUMPDEST PUSH0 PUSH8 0xFFFFFFFFFFFFFFFF DUP3 GT ISZERO PUSH2 0x6AD4 JUMPI PUSH2 0x6AD3 PUSH2 0x67A6 JUMP JUMPDEST JUMPDEST PUSH1 0x20 DUP3 MUL SWAP1 POP PUSH1 0x20 DUP2 ADD SWAP1 POP SWAP2 SWAP1 POP JUMP JUMPDEST PUSH0 DUP1 REVERT JUMPDEST PUSH0 PUSH1 0x80 DUP3 DUP5 SUB SLT ISZERO PUSH2 0x6AFE JUMPI PUSH2 0x6AFD PUSH2 0x6AE5 JUMP JUMPDEST JUMPDEST PUSH2 0x6B08 PUSH1 0x80 PUSH2 0x6804 JUMP JUMPDEST SWAP1 POP PUSH0 PUSH2 0x6B17 DUP5 DUP3 DUP6 ADD PUSH2 0x62E8 JUMP JUMPDEST PUSH0 DUP4 ADD MSTORE POP PUSH1 0x20 PUSH2 0x6B2A DUP5 DUP3 DUP6 ADD PUSH2 0x62E8 JUMP JUMPDEST PUSH1 0x20 DUP4 ADD MSTORE POP PUSH1 0x40 PUSH2 0x6B3E DUP5 DUP3 DUP6 ADD PUSH2 0x631D JUMP JUMPDEST PUSH1 0x40 DUP4 ADD MSTORE POP PUSH1 0x60 PUSH2 0x6B52 DUP5 DUP3 DUP6 ADD PUSH2 0x62E8 JUMP JUMPDEST PUSH1 0x60 DUP4 ADD MSTORE POP SWAP3 SWAP2 POP POP JUMP JUMPDEST PUSH0 PUSH2 0x6B70 PUSH2 0x6B6B DUP5 PUSH2 0x6ABA JUMP JUMPDEST PUSH2 0x6804 JUMP JUMPDEST SWAP1 POP DUP1 DUP4 DUP3 MSTORE PUSH1 0x20 DUP3 ADD SWAP1 POP PUSH1 0x80 DUP5 MUL DUP4 ADD DUP6 DUP2 GT ISZERO PUSH2 0x6B93 JUMPI PUSH2 0x6B92 PUSH2 0x636C JUMP JUMPDEST JUMPDEST DUP4 JUMPDEST DUP2 DUP2 LT ISZERO PUSH2 0x6BBC JUMPI DUP1 PUSH2 0x6BA8 DUP9 DUP3 PUSH2 0x6AE9 JUMP JUMPDEST DUP5 MSTORE PUSH1 0x20 DUP5 ADD SWAP4 POP POP PUSH1 0x80 DUP2 ADD SWAP1 POP PUSH2 0x6B95 JUMP JUMPDEST POP POP POP SWAP4 SWAP3 POP POP POP JUMP JUMPDEST PUSH0 DUP3 PUSH1 0x1F DUP4 ADD SLT PUSH2 0x6BDA JUMPI PUSH2 0x6BD9 PUSH2 0x6364 JUMP JUMPDEST JUMPDEST DUP2 CALLDATALOAD PUSH2 0x6BEA DUP5 DUP3 PUSH1 0x20 DUP7 ADD PUSH2 0x6B5E JUMP JUMPDEST SWAP2 POP POP SWAP3 SWAP2 POP POP JUMP JUMPDEST PUSH0 DUP1 PUSH1 0x40 DUP4 DUP6 SUB SLT ISZERO PUSH2 0x6C09 JUMPI PUSH2 0x6C08 PUSH2 0x629A JUMP JUMPDEST JUMPDEST PUSH0 PUSH2 0x6C16 DUP6 DUP3 DUP7 ADD PUSH2 0x6350 JUMP JUMPDEST SWAP3 POP POP PUSH1 0x20 DUP4 ADD CALLDATALOAD PUSH8 0xFFFFFFFFFFFFFFFF DUP2 GT ISZERO PUSH2 0x6C37 JUMPI PUSH2 0x6C36 PUSH2 0x629E JUMP JUMPDEST JUMPDEST PUSH2 0x6C43 DUP6 DUP3 DUP7 ADD PUSH2 0x6BC6 JUMP JUMPDEST SWAP2 POP POP SWAP3 POP SWAP3 SWAP1 POP JUMP JUMPDEST PUSH0 PUSH1 0x20 DUP3 DUP5 SUB SLT ISZERO PUSH2 0x6C62 JUMPI PUSH2 0x6C61 PUSH2 0x629A JUMP JUMPDEST JUMPDEST PUSH0 PUSH2 0x6C6F DUP5 DUP3 DUP6 ADD PUSH2 0x62E8 JUMP JUMPDEST SWAP2 POP POP SWAP3 SWAP2 POP POP JUMP JUMPDEST PUSH2 0x6C81 DUP2 PUSH2 0x62FC JUMP JUMPDEST DUP3 MSTORE POP POP JUMP JUMPDEST PUSH0 PUSH1 0x20 DUP3 ADD SWAP1 POP PUSH2 0x6C9A PUSH0 DUP4 ADD DUP5 PUSH2 0x6C78 JUMP JUMPDEST SWAP3 SWAP2 POP POP JUMP JUMPDEST PUSH0 DUP1 PUSH0 DUP1 PUSH0 DUP1 PUSH0 DUP1 PUSH0 PUSH2 0x120 DUP11 DUP13 SUB SLT ISZERO PUSH2 0x6CBE JUMPI PUSH2 0x6CBD PUSH2 0x629A JUMP JUMPDEST JUMPDEST PUSH0 PUSH2 0x6CCB DUP13 DUP3 DUP14 ADD PUSH2 0x62E8 JUMP JUMPDEST SWAP10 POP POP PUSH1 0x20 PUSH2 0x6CDC DUP13 DUP3 DUP14 ADD PUSH2 0x62E8 JUMP JUMPDEST SWAP9 POP POP PUSH1 0x40 PUSH2 0x6CED DUP13 DUP3 DUP14 ADD PUSH2 0x631D JUMP JUMPDEST SWAP8 POP POP PUSH1 0x60 PUSH2 0x6CFE DUP13 DUP3 DUP14 ADD PUSH2 0x6350 JUMP JUMPDEST SWAP7 POP POP PUSH1 0x80 PUSH2 0x6D0F DUP13 DUP3 DUP14 ADD PUSH2 0x6350 JUMP JUMPDEST SWAP6 POP POP PUSH1 0xA0 PUSH2 0x6D20 DUP13 DUP3 DUP14 ADD PUSH2 0x6350 JUMP JUMPDEST SWAP5 POP POP PUSH1 0xC0 PUSH2 0x6D31 DUP13 DUP3 DUP14 ADD PUSH2 0x6350 JUMP JUMPDEST SWAP4 POP POP PUSH1 0xE0 PUSH2 0x6D42 DUP13 DUP3 DUP14 ADD PUSH2 0x62E8 JUMP JUMPDEST SWAP3 POP POP PUSH2 0x100 PUSH2 0x6D54 DUP13 DUP3 DUP14 ADD PUSH2 0x6350 JUMP JUMPDEST SWAP2 POP POP SWAP3 SWAP6 SWAP9 POP SWAP3 SWAP6 SWAP9 POP SWAP3 SWAP6 SWAP9 JUMP JUMPDEST PUSH0 PUSH1 0x60 DUP3 ADD SWAP1 POP PUSH2 0x6D77 PUSH0 DUP4 ADD DUP7 PUSH2 0x64B6 JUMP JUMPDEST PUSH2 0x6D84 PUSH1 0x20 DUP4 ADD DUP6 PUSH2 0x64B6 JUMP JUMPDEST PUSH2 0x6D91 PUSH1 0x40 DUP4 ADD DUP5 PUSH2 0x64B6 JUMP JUMPDEST SWAP5 SWAP4 POP POP POP POP JUMP JUMPDEST PUSH0 DUP1 PUSH0 DUP1 PUSH0 DUP1 PUSH0 DUP1 PUSH0 PUSH1 0xE0 DUP11 DUP13 SUB SLT ISZERO PUSH2 0x6DB6 JUMPI PUSH2 0x6DB5 PUSH2 0x629A JUMP JUMPDEST JUMPDEST PUSH0 PUSH2 0x6DC3 DUP13 DUP3 DUP14 ADD PUSH2 0x62E8 JUMP JUMPDEST SWAP10 POP POP PUSH1 0x20 PUSH2 0x6DD4 DUP13 DUP3 DUP14 ADD PUSH2 0x62E8 JUMP JUMPDEST SWAP9 POP POP PUSH1 0x40 PUSH2 0x6DE5 DUP13 DUP3 DUP14 ADD PUSH2 0x631D JUMP JUMPDEST SWAP8 POP POP PUSH1 0x60 PUSH2 0x6DF6 DUP13 DUP3 DUP14 ADD PUSH2 0x62E8 JUMP JUMPDEST SWAP7 POP POP PUSH1 0x80 PUSH2 0x6E07 DUP13 DUP3 DUP14 ADD PUSH2 0x6350 JUMP JUMPDEST SWAP6 POP POP PUSH1 0xA0 DUP11 ADD CALLDATALOAD PUSH8 0xFFFFFFFFFFFFFFFF DUP2 GT ISZERO PUSH2 0x6E28 JUMPI PUSH2 0x6E27 PUSH2 0x629E JUMP JUMPDEST JUMPDEST PUSH2 0x6E34 DUP13 DUP3 DUP14 ADD PUSH2 0x6370 JUMP JUMPDEST SWAP5 POP SWAP5 POP POP PUSH1 0xC0 DUP11 ADD CALLDATALOAD PUSH8 0xFFFFFFFFFFFFFFFF DUP2 GT ISZERO PUSH2 0x6E57 JUMPI PUSH2 0x6E56 PUSH2 0x629E JUMP JUMPDEST JUMPDEST PUSH2 0x6E63 DUP13 DUP3 DUP14 ADD PUSH2 0x6370 JUMP JUMPDEST SWAP3 POP SWAP3 POP POP SWAP3 SWAP6 SWAP9 POP SWAP3 SWAP6 SWAP9 POP SWAP3 SWAP6 SWAP9 JUMP JUMPDEST PUSH0 DUP1 PUSH0 DUP1 PUSH1 0x80 DUP6 DUP8 SUB SLT ISZERO PUSH2 0x6E8D JUMPI PUSH2 0x6E8C PUSH2 0x629A JUMP JUMPDEST JUMPDEST PUSH0 PUSH2 0x6E9A DUP8 DUP3 DUP9 ADD PUSH2 0x62E8 JUMP JUMPDEST SWAP5 POP POP PUSH1 0x20 PUSH2 0x6EAB DUP8 DUP3 DUP9 ADD PUSH2 0x62E8 JUMP JUMPDEST SWAP4 POP POP PUSH1 0x40 PUSH2 0x6EBC DUP8 DUP3 DUP9 ADD PUSH2 0x631D JUMP JUMPDEST SWAP3 POP POP PUSH1 0x60 PUSH2 0x6ECD DUP8 DUP3 DUP9 ADD PUSH2 0x62E8 JUMP JUMPDEST SWAP2 POP POP SWAP3 SWAP6 SWAP2 SWAP5 POP SWAP3 POP JUMP JUMPDEST PUSH0 DUP1 REVERT JUMPDEST PUSH0 PUSH2 0x100 DUP3 DUP5 SUB SLT ISZERO PUSH2 0x6EF3 JUMPI PUSH2 0x6EF2 PUSH2 0x6ED9 JUMP JUMPDEST JUMPDEST DUP2 SWAP1 POP SWAP3 SWAP2 POP POP JUMP JUMPDEST PUSH0 DUP1 PUSH0 DUP1 PUSH0 DUP1 PUSH0 PUSH2 0x180 DUP9 DUP11 SUB SLT ISZERO PUSH2 0x6F18 JUMPI PUSH2 0x6F17 PUSH2 0x629A JUMP JUMPDEST JUMPDEST PUSH0 PUSH2 0x6F25 DUP11 DUP3 DUP12 ADD PUSH2 0x62E8 JUMP JUMPDEST SWAP8 POP POP PUSH1 0x20 PUSH2 0x6F36 DUP11 DUP3 DUP12 ADD PUSH2 0x6350 JUMP JUMPDEST SWAP7 POP POP PUSH1 0x40 PUSH2 0x6F47 DUP11 DUP3 DUP12 ADD PUSH2 0x6EDD JUMP JUMPDEST SWAP6 POP POP PUSH2 0x140 DUP9 ADD CALLDATALOAD PUSH8 0xFFFFFFFFFFFFFFFF DUP2 GT ISZERO PUSH2 0x6F69 JUMPI PUSH2 0x6F68 PUSH2 0x629E JUMP JUMPDEST JUMPDEST PUSH2 0x6F75 DUP11 DUP3 DUP12 ADD PUSH2 0x6370 JUMP JUMPDEST SWAP5 POP SWAP5 POP POP PUSH2 0x160 DUP9 ADD CALLDATALOAD PUSH8 0xFFFFFFFFFFFFFFFF DUP2 GT ISZERO PUSH2 0x6F99 JUMPI PUSH2 0x6F98 PUSH2 0x629E JUMP JUMPDEST JUMPDEST PUSH2 0x6FA5 DUP11 DUP3 DUP12 ADD PUSH2 0x6370 JUMP JUMPDEST SWAP3 POP SWAP3 POP POP SWAP3 SWAP6 SWAP9 SWAP2 SWAP5 SWAP8 POP SWAP3 SWAP6 POP JUMP JUMPDEST PUSH0 DUP1 PUSH0 DUP1 PUSH0 DUP1 PUSH0 PUSH1 0xE0 DUP9 DUP11 SUB SLT ISZERO PUSH2 0x6FD1 JUMPI PUSH2 0x6FD0 PUSH2 0x629A JUMP JUMPDEST JUMPDEST PUSH0 PUSH2 0x6FDE DUP11 DUP3 DUP12 ADD PUSH2 0x62E8 JUMP JUMPDEST SWAP8 POP POP PUSH1 0x20 PUSH2 0x6FEF DUP11 DUP3 DUP12 ADD PUSH2 0x631D JUMP JUMPDEST SWAP7 POP POP PUSH1 0x40 PUSH2 0x7000 DUP11 DUP3 DUP12 ADD PUSH2 0x6350 JUMP JUMPDEST SWAP6 POP POP PUSH1 0x60 PUSH2 0x7011 DUP11 DUP3 DUP12 ADD PUSH2 0x6350 JUMP JUMPDEST SWAP5 POP POP PUSH1 0x80 PUSH2 0x7022 DUP11 DUP3 DUP12 ADD PUSH2 0x6350 JUMP JUMPDEST SWAP4 POP POP PUSH1 0xA0 PUSH2 0x7033 DUP11 DUP3 DUP12 ADD PUSH2 0x62E8 JUMP JUMPDEST SWAP3 POP POP PUSH1 0xC0 PUSH2 0x7044 DUP11 DUP3 DUP12 ADD PUSH2 0x6350 JUMP JUMPDEST SWAP2 POP POP SWAP3 SWAP6 SWAP9 SWAP2 SWAP5 SWAP8 POP SWAP3 SWAP6 POP JUMP JUMPDEST PUSH0 DUP1 PUSH0 DUP1 PUSH0 PUSH1 0xA0 DUP7 DUP9 SUB SLT ISZERO PUSH2 0x706C JUMPI PUSH2 0x706B PUSH2 0x629A JUMP JUMPDEST JUMPDEST PUSH0 PUSH2 0x7079 DUP9 DUP3 DUP10 ADD PUSH2 0x62E8 JUMP JUMPDEST SWAP6 POP POP PUSH1 0x20 PUSH2 0x708A DUP9 DUP3 DUP10 ADD PUSH2 0x62E8 JUMP JUMPDEST SWAP5 POP POP PUSH1 0x40 PUSH2 0x709B DUP9 DUP3 DUP10 ADD PUSH2 0x631D JUMP JUMPDEST SWAP4 POP POP PUSH1 0x60 PUSH2 0x70AC DUP9 DUP3 DUP10 ADD PUSH2 0x62E8 JUMP JUMPDEST SWAP3 POP POP PUSH1 0x80 PUSH2 0x70BD DUP9 DUP3 DUP10 ADD PUSH2 0x6350 JUMP JUMPDEST SWAP2 POP POP SWAP3 SWAP6 POP SWAP3 SWAP6 SWAP1 SWAP4 POP JUMP JUMPDEST PUSH0 DUP1 PUSH0 DUP1 PUSH0 DUP1 PUSH1 0xC0 DUP8 DUP10 SUB SLT ISZERO PUSH2 0x70E4 JUMPI PUSH2 0x70E3 PUSH2 0x629A JUMP JUMPDEST JUMPDEST PUSH0 PUSH2 0x70F1 DUP10 DUP3 DUP11 ADD PUSH2 0x62E8 JUMP JUMPDEST SWAP7 POP POP PUSH1 0x20 PUSH2 0x7102 DUP10 DUP3 DUP11 ADD PUSH2 0x62E8 JUMP JUMPDEST SWAP6 POP POP PUSH1 0x40 PUSH2 0x7113 DUP10 DUP3 DUP11 ADD PUSH2 0x631D JUMP JUMPDEST SWAP5 POP POP PUSH1 0x60 PUSH2 0x7124 DUP10 DUP3 DUP11 ADD PUSH2 0x62E8 JUMP JUMPDEST SWAP4 POP POP PUSH1 0x80 PUSH2 0x7135 DUP10 DUP3 DUP11 ADD PUSH2 0x6350 JUMP JUMPDEST SWAP3 POP POP PUSH1 0xA0 PUSH2 0x7146 DUP10 DUP3 DUP11 ADD PUSH2 0x6350 JUMP JUMPDEST SWAP2 POP POP SWAP3 SWAP6 POP SWAP3 SWAP6 POP SWAP3 SWAP6 JUMP JUMPDEST PUSH0 DUP1 PUSH0 PUSH1 0x60 DUP5 DUP7 SUB SLT ISZERO PUSH2 0x716A JUMPI PUSH2 0x7169 PUSH2 0x629A JUMP JUMPDEST JUMPDEST PUSH0 PUSH2 0x7177 DUP7 DUP3 DUP8 ADD PUSH2 0x62E8 JUMP JUMPDEST SWAP4 POP POP PUSH1 0x20 PUSH2 0x7188 DUP7 DUP3 DUP8 ADD PUSH2 0x62E8 JUMP JUMPDEST SWAP3 POP POP PUSH1 0x40 PUSH2 0x7199 DUP7 DUP3 DUP8 ADD PUSH2 0x62E8 JUMP JUMPDEST SWAP2 POP POP SWAP3 POP SWAP3 POP SWAP3 JUMP JUMPDEST PUSH0 PUSH1 0x20 DUP3 ADD SWAP1 POP PUSH2 0x71B6 PUSH0 DUP4 ADD DUP5 PUSH2 0x64B6 JUMP JUMPDEST SWAP3 SWAP2 POP POP JUMP JUMPDEST PUSH0 DUP1 PUSH0 DUP1 PUSH0 DUP1 PUSH0 DUP1 PUSH0 DUP1 PUSH2 0x1E0 DUP12 DUP14 SUB SLT ISZERO PUSH2 0x71DB JUMPI PUSH2 0x71DA PUSH2 0x629A JUMP JUMPDEST JUMPDEST PUSH0 PUSH2 0x71E8 DUP14 DUP3 DUP15 ADD PUSH2 0x62E8 JUMP JUMPDEST SWAP11 POP POP PUSH1 0x20 PUSH2 0x71F9 DUP14 DUP3 DUP15 ADD PUSH2 0x6350 JUMP JUMPDEST SWAP10 POP POP PUSH1 0x40 PUSH2 0x720A DUP14 DUP3 DUP15 ADD PUSH2 0x6350 JUMP JUMPDEST SWAP9 POP POP PUSH1 0x60 PUSH2 0x721B DUP14 DUP3 DUP15 ADD PUSH2 0x6EDD JUMP JUMPDEST SWAP8 POP POP PUSH2 0x160 DUP12 ADD CALLDATALOAD PUSH8 0xFFFFFFFFFFFFFFFF DUP2 GT ISZERO PUSH2 0x723D JUMPI PUSH2 0x723C PUSH2 0x629E JUMP JUMPDEST JUMPDEST PUSH2 0x7249 DUP14 DUP3 DUP15 ADD PUSH2 0x6370 JUMP JUMPDEST SWAP7 POP SWAP7 POP POP PUSH2 0x180 DUP12 ADD CALLDATALOAD PUSH8 0xFFFFFFFFFFFFFFFF DUP2 GT ISZERO PUSH2 0x726D JUMPI PUSH2 0x726C PUSH2 0x629E JUMP JUMPDEST JUMPDEST PUSH2 0x7279 DUP14 DUP3 DUP15 ADD PUSH2 0x6370 JUMP JUMPDEST SWAP5 POP SWAP5 POP POP PUSH2 0x1A0 PUSH2 0x728D DUP14 DUP3 DUP15 ADD PUSH2 0x62E8 JUMP JUMPDEST SWAP3 POP POP PUSH2 0x1C0 PUSH2 0x729F DUP14 DUP3 DUP15 ADD PUSH2 0x631D JUMP JUMPDEST SWAP2 POP POP SWAP3 SWAP6 SWAP9 SWAP12 SWAP2 SWAP5 SWAP8 SWAP11 POP SWAP3 SWAP6 SWAP9 POP JUMP JUMPDEST PUSH0 PUSH1 0x80 DUP3 DUP5 SUB SLT ISZERO PUSH2 0x72C6 JUMPI PUSH2 0x72C5 PUSH2 0x629A JUMP JUMPDEST JUMPDEST PUSH0 PUSH2 0x72D3 DUP5 DUP3 DUP6 ADD PUSH2 0x6AE9 JUMP JUMPDEST SWAP2 POP POP SWAP3 SWAP2 POP POP JUMP JUMPDEST PUSH32 0x4E487B7100000000000000000000000000000000000000000000000000000000 PUSH0 MSTORE PUSH1 0x11 PUSH1 0x4 MSTORE PUSH1 0x24 PUSH0 REVERT JUMPDEST PUSH0 PUSH2 0x7313 DUP3 PUSH2 0x6331 JUMP JUMPDEST SWAP2 POP PUSH2 0x731E DUP4 PUSH2 0x6331 JUMP JUMPDEST SWAP3 POP DUP3 DUP3 SUB SWAP1 POP DUP2 DUP2 GT ISZERO PUSH2 0x7336 JUMPI PUSH2 0x7335 PUSH2 0x72DC JUMP JUMPDEST JUMPDEST SWAP3 SWAP2 POP POP JUMP JUMPDEST PUSH32 0x4E487B7100000000000000000000000000000000000000000000000000000000 PUSH0 MSTORE PUSH1 0x32 PUSH1 0x4 MSTORE PUSH1 0x24 PUSH0 REVERT JUMPDEST PUSH0 DUP2 MLOAD SWAP1 POP PUSH2 0x7377 DUP2 PUSH2 0x633A JUMP JUMPDEST SWAP3 SWAP2 POP POP JUMP JUMPDEST PUSH0 DUP1 PUSH1 0x40 DUP4 DUP6 SUB SLT ISZERO PUSH2 0x7393 JUMPI PUSH2 0x7392 PUSH2 0x629A JUMP JUMPDEST JUMPDEST PUSH0 PUSH2 0x73A0 DUP6 DUP3 DUP7 ADD PUSH2 0x7369 JUMP JUMPDEST SWAP3 POP POP PUSH1 0x20 PUSH2 0x73B1 DUP6 DUP3 DUP7 ADD PUSH2 0x7369 JUMP JUMPDEST SWAP2 POP POP SWAP3 POP SWAP3 SWAP1 POP JUMP JUMPDEST PUSH0 PUSH1 0x20 DUP3 DUP5 SUB SLT ISZERO PUSH2 0x73D0 JUMPI PUSH2 0x73CF PUSH2 0x629A JUMP JUMPDEST JUMPDEST PUSH0 PUSH2 0x73DD DUP5 DUP3 DUP6 ADD PUSH2 0x631D JUMP JUMPDEST SWAP2 POP POP SWAP3 SWAP2 POP POP JUMP JUMPDEST PUSH0 PUSH1 0x20 DUP3 DUP5 SUB SLT ISZERO PUSH2 0x73FB JUMPI PUSH2 0x73FA PUSH2 0x629A JUMP JUMPDEST JUMPDEST PUSH0 PUSH2 0x7408 DUP5 DUP3 DUP6 ADD PUSH2 0x7369 JUMP JUMPDEST SWAP2 POP POP SWAP3 SWAP2 POP POP JUMP JUMPDEST PUSH0 PUSH1 0x40 DUP3 ADD SWAP1 POP PUSH2 0x7424 PUSH0 DUP4 ADD DUP6 PUSH2 0x6676 JUMP JUMPDEST PUSH2 0x7431 PUSH1 0x20 DUP4 ADD DUP5 PUSH2 0x64B6 JUMP JUMPDEST SWAP4 SWAP3 POP POP POP JUMP JUMPDEST PUSH0 DUP2 MLOAD SWAP1 POP PUSH2 0x7446 DUP2 PUSH2 0x6307 JUMP JUMPDEST SWAP3 SWAP2 POP POP JUMP JUMPDEST PUSH0 PUSH1 0x20 DUP3 DUP5 SUB SLT ISZERO PUSH2 0x7461 JUMPI PUSH2 0x7460 PUSH2 0x629A JUMP JUMPDEST JUMPDEST PUSH0 PUSH2 0x746E DUP5 DUP3 DUP6 ADD PUSH2 0x7438 JUMP JUMPDEST SWAP2 POP POP SWAP3 SWAP2 POP POP JUMP JUMPDEST PUSH32 0x4E487B7100000000000000000000000000000000000000000000000000000000 PUSH0 MSTORE PUSH1 0x1 PUSH1 0x4 MSTORE PUSH1 0x24 PUSH0 REVERT JUMPDEST PUSH0 PUSH2 0x74AE DUP3 PUSH2 0x6331 JUMP JUMPDEST SWAP2 POP PUSH2 0x74B9 DUP4 PUSH2 0x6331 JUMP JUMPDEST SWAP3 POP DUP3 DUP3 ADD SWAP1 POP DUP1 DUP3 GT ISZERO PUSH2 0x74D1 JUMPI PUSH2 0x74D0 PUSH2 0x72DC JUMP JUMPDEST JUMPDEST SWAP3 SWAP2 POP POP JUMP JUMPDEST PUSH0 PUSH1 0x40 DUP3 ADD SWAP1 POP PUSH2 0x74EA PUSH0 DUP4 ADD DUP6 PUSH2 0x64B6 JUMP JUMPDEST PUSH2 0x74F7 PUSH1 0x20 DUP4 ADD DUP5 PUSH2 0x6676 JUMP JUMPDEST SWAP4 SWAP3 POP POP POP JUMP JUMPDEST PUSH0 PUSH2 0x7508 DUP3 PUSH2 0x6331 JUMP JUMPDEST SWAP2 POP PUSH32 0xFFFFFFFFFFFFFFFFFFFFFFFFFFFFFFFFFFFFFFFFFFFFFFFFFFFFFFFFFFFFFFFF DUP3 SUB PUSH2 0x753A JUMPI PUSH2 0x7539 PUSH2 0x72DC JUMP JUMPDEST JUMPDEST PUSH1 0x1 DUP3 ADD SWAP1 POP SWAP2 SWAP1 POP JUMP JUMPDEST PUSH0 DUP2 PUSH1 0x60 SHL SWAP1 POP SWAP2 SWAP1 POP JUMP JUMPDEST PUSH0 PUSH2 0x755B DUP3 PUSH2 0x7545 JUMP JUMPDEST SWAP1 POP SWAP2 SWAP1 POP JUMP JUMPDEST PUSH0 PUSH2 0x756C DUP3 PUSH2 0x7551 JUMP JUMPDEST SWAP1 POP SWAP2 SWAP1 POP JUMP JUMPDEST PUSH2 0x7584 PUSH2 0x757F DUP3 PUSH2 0x62C1 JUMP JUMPDEST PUSH2 0x7562 JUMP JUMPDEST DUP3 MSTORE POP POP JUMP JUMPDEST PUSH0 DUP2 PUSH1 0xF8 SHL SWAP1 POP SWAP2 SWAP1 POP JUMP JUMPDEST PUSH0 PUSH2 0x75A0 DUP3 PUSH2 0x758A JUMP JUMPDEST SWAP1 POP SWAP2 SWAP1 POP JUMP JUMPDEST PUSH0 PUSH2 0x75B1 DUP3 PUSH2 0x7596 JUMP JUMPDEST SWAP1 POP SWAP2 SWAP1 POP JUMP JUMPDEST PUSH2 0x75C9 PUSH2 0x75C4 DUP3 PUSH2 0x62FC JUMP JUMPDEST PUSH2 0x75A7 JUMP JUMPDEST DUP3 MSTORE POP POP JUMP JUMPDEST PUSH0 PUSH2 0x75DA DUP3 DUP7 PUSH2 0x7573 JUMP JUMPDEST PUSH1 0x14 DUP3 ADD SWAP2 POP PUSH2 0x75EA DUP3 DUP6 PUSH2 0x7573 JUMP JUMPDEST PUSH1 0x14 DUP3 ADD SWAP2 POP PUSH2 0x75FA DUP3 DUP5 PUSH2 0x75B8 JUMP JUMPDEST PUSH1 0x1 DUP3 ADD SWAP2 POP DUP2 SWAP1 POP SWAP5 SWAP4 POP POP POP POP JUMP JUMPDEST PUSH0 DUP2 MLOAD SWAP1 POP PUSH2 0x7619 DUP2 PUSH2 0x62D2 JUMP JUMPDEST SWAP3 SWAP2 POP POP JUMP JUMPDEST PUSH0 PUSH1 0x20 DUP3 DUP5 SUB SLT ISZERO PUSH2 0x7634 JUMPI PUSH2 0x7633 PUSH2 0x629A JUMP JUMPDEST JUMPDEST PUSH0 PUSH2 0x7641 DUP5 DUP3 DUP6 ADD PUSH2 0x760B JUMP JUMPDEST SWAP2 POP POP SWAP3 SWAP2 POP POP JUMP JUMPDEST PUSH0 DUP1 PUSH0 PUSH1 0x60 DUP5 DUP7 SUB SLT ISZERO PUSH2 0x7661 JUMPI PUSH2 0x7660 PUSH2 0x629A JUMP JUMPDEST JUMPDEST PUSH0 PUSH2 0x766E DUP7 DUP3 DUP8 ADD PUSH2 0x7369 JUMP JUMPDEST SWAP4 POP POP PUSH1 0x20 PUSH2 0x767F DUP7 DUP3 DUP8 ADD PUSH2 0x7369 JUMP JUMPDEST SWAP3 POP POP PUSH1 0x40 PUSH2 0x7690 DUP7 DUP3 DUP8 ADD PUSH2 0x7369 JUMP JUMPDEST SWAP2 POP POP SWAP3 POP SWAP3 POP SWAP3 JUMP JUMPDEST PUSH0 PUSH1 0x60 DUP3 ADD SWAP1 POP PUSH2 0x76AD PUSH0 DUP4 ADD DUP7 PUSH2 0x6676 JUMP JUMPDEST PUSH2 0x76BA PUSH1 0x20 DUP4 ADD DUP6 PUSH2 0x6676 JUMP JUMPDEST PUSH2 0x76C7 PUSH1 0x40 DUP4 ADD DUP5 PUSH2 0x6C78 JUMP JUMPDEST SWAP5 SWAP4 POP POP POP POP JUMP JUMPDEST PUSH0 PUSH2 0x76D9 DUP3 PUSH2 0x6331 JUMP JUMPDEST SWAP2 POP PUSH2 0x76E4 DUP4 PUSH2 0x6331 JUMP JUMPDEST SWAP3 POP DUP3 DUP3 MUL PUSH2 0x76F2 DUP2 PUSH2 0x6331 JUMP JUMPDEST SWAP2 POP DUP3 DUP3 DIV DUP5 EQ DUP4 ISZERO OR PUSH2 0x7709 JUMPI PUSH2 0x7708 PUSH2 0x72DC JUMP JUMPDEST JUMPDEST POP SWAP3 SWAP2 POP POP JUMP JUMPDEST PUSH32 0x4E487B7100000000000000000000000000000000000000000000000000000000 PUSH0 MSTORE PUSH1 0x12 PUSH1 0x4 MSTORE PUSH1 0x24 PUSH0 REVERT JUMPDEST PUSH0 PUSH2 0x7747 DUP3 PUSH2 0x6331 JUMP JUMPDEST SWAP2 POP PUSH2 0x7752 DUP4 PUSH2 0x6331 JUMP JUMPDEST SWAP3 POP DUP3 PUSH2 0x7762 JUMPI PUSH2 0x7761 PUSH2 0x7710 JUMP JUMPDEST JUMPDEST DUP3 DUP3 DIV SWAP1 POP SWAP3 SWAP2 POP POP JUMP JUMPDEST PUSH0 PUSH1 0xFF DUP3 AND SWAP1 POP SWAP2 SWAP1 POP JUMP JUMPDEST PUSH2 0x7782 DUP2 PUSH2 0x776D JUMP JUMPDEST DUP2 EQ PUSH2 0x778C JUMPI PUSH0 DUP1 REVERT JUMPDEST POP JUMP JUMPDEST PUSH0 DUP2 MLOAD SWAP1 POP PUSH2 0x779D DUP2 PUSH2 0x7779 JUMP JUMPDEST SWAP3 SWAP2 POP POP JUMP JUMPDEST PUSH0 PUSH1 0x20 DUP3 DUP5 SUB SLT ISZERO PUSH2 0x77B8 JUMPI PUSH2 0x77B7 PUSH2 0x629A JUMP JUMPDEST JUMPDEST PUSH0 PUSH2 0x77C5 DUP5 DUP3 DUP6 ADD PUSH2 0x778F JUMP JUMPDEST SWAP2 POP POP SWAP3 SWAP2 POP POP JUMP JUMPDEST PUSH0 DUP2 PUSH1 0x1 SHR SWAP1 POP SWAP2 SWAP1 POP JUMP JUMPDEST PUSH0 DUP1 DUP3 SWAP2 POP DUP4 SWAP1 POP JUMPDEST PUSH1 0x1 DUP6 GT ISZERO PUSH2 0x7823 JUMPI DUP1 DUP7 DIV DUP2 GT ISZERO PUSH2 0x77FF JUMPI PUSH2 0x77FE PUSH2 0x72DC JUMP JUMPDEST JUMPDEST PUSH1 0x1 DUP6 AND ISZERO PUSH2 0x780E JUMPI DUP1 DUP3 MUL SWAP2 POP JUMPDEST DUP1 DUP2 MUL SWAP1 POP PUSH2 0x781C DUP6 PUSH2 0x77CE JUMP JUMPDEST SWAP5 POP PUSH2 0x77E3 JUMP JUMPDEST SWAP5 POP SWAP5 SWAP3 POP POP POP JUMP JUMPDEST PUSH0 DUP3 PUSH2 0x783B JUMPI PUSH1 0x1 SWAP1 POP PUSH2 0x78F6 JUMP JUMPDEST DUP2 PUSH2 0x7848 JUMPI PUSH0 SWAP1 POP PUSH2 0x78F6 JUMP JUMPDEST DUP2 PUSH1 0x1 DUP2 EQ PUSH2 0x785E JUMPI PUSH1 0x2 DUP2 EQ PUSH2 0x7868 JUMPI PUSH2 0x7897 JUMP JUMPDEST PUSH1 0x1 SWAP2 POP POP PUSH2 0x78F6 JUMP JUMPDEST PUSH1 0xFF DUP5 GT ISZERO PUSH2 0x787A JUMPI PUSH2 0x7879 PUSH2 0x72DC JUMP JUMPDEST JUMPDEST DUP4 PUSH1 0x2 EXP SWAP2 POP DUP5 DUP3 GT ISZERO PUSH2 0x7891 JUMPI PUSH2 0x7890 PUSH2 0x72DC JUMP JUMPDEST JUMPDEST POP PUSH2 0x78F6 JUMP JUMPDEST POP PUSH1 0x20 DUP4 LT PUSH2 0x133 DUP4 LT AND PUSH1 0x4E DUP5 LT PUSH1 0xB DUP5 LT AND OR ISZERO PUSH2 0x78CC JUMPI DUP3 DUP3 EXP SWAP1 POP DUP4 DUP2 GT ISZERO PUSH2 0x78C7 JUMPI PUSH2 0x78C6 PUSH2 0x72DC JUMP JUMPDEST JUMPDEST PUSH2 0x78F6 JUMP JUMPDEST PUSH2 0x78D9 DUP5 DUP5 DUP5 PUSH1 0x1 PUSH2 0x77DA JUMP JUMPDEST SWAP3 POP SWAP1 POP DUP2 DUP5 DIV DUP2 GT ISZERO PUSH2 0x78F0 JUMPI PUSH2 0x78EF PUSH2 0x72DC JUMP JUMPDEST JUMPDEST DUP2 DUP2 MUL SWAP1 POP JUMPDEST SWAP4 SWAP3 POP POP POP JUMP JUMPDEST PUSH0 PUSH2 0x7907 DUP3 PUSH2 0x6331 JUMP JUMPDEST SWAP2 POP PUSH2 0x7912 DUP4 PUSH2 0x776D JUMP JUMPDEST SWAP3 POP PUSH2 0x793F PUSH32 0xFFFFFFFFFFFFFFFFFFFFFFFFFFFFFFFFFFFFFFFFFFFFFFFFFFFFFFFFFFFFFFFF DUP5 DUP5 PUSH2 0x782C JUMP JUMPDEST SWAP1 POP SWAP3 SWAP2 POP POP JUMP JUMPDEST PUSH0 DUP2 SWAP1 POP SWAP2 SWAP1 POP JUMP JUMPDEST PUSH0 PUSH2 0x796A PUSH2 0x7965 PUSH2 0x7960 DUP5 PUSH2 0x7947 JUMP JUMPDEST PUSH2 0x6722 JUMP JUMPDEST PUSH2 0x6331 JUMP JUMPDEST SWAP1 POP SWAP2 SWAP1 POP JUMP JUMPDEST PUSH2 0x797A DUP2 PUSH2 0x7950 JUMP JUMPDEST DUP3 MSTORE POP POP JUMP JUMPDEST PUSH0 PUSH1 0x40 DUP3 ADD SWAP1 POP PUSH2 0x7993 PUSH0 DUP4 ADD DUP6 PUSH2 0x6676 JUMP JUMPDEST PUSH2 0x79A0 PUSH1 0x20 DUP4 ADD DUP5 PUSH2 0x7971 JUMP JUMPDEST SWAP4 SWAP3 POP POP POP JUMP JUMPDEST PUSH0 DUP1 REVERT JUMPDEST PUSH0 DUP1 REVERT JUMPDEST PUSH0 DUP1 DUP6 DUP6 GT ISZERO PUSH2 0x79C2 JUMPI PUSH2 0x79C1 PUSH2 0x79A7 JUMP JUMPDEST JUMPDEST DUP4 DUP7 GT ISZERO PUSH2 0x79D3 JUMPI PUSH2 0x79D2 PUSH2 0x79AB JUMP JUMPDEST JUMPDEST PUSH1 0x1 DUP6 MUL DUP4 ADD SWAP2 POP DUP5 DUP7 SUB SWAP1 POP SWAP5 POP SWAP5 SWAP3 POP POP POP JUMP JUMPDEST PUSH0 DUP3 SWAP1 POP SWAP3 SWAP2 POP POP JUMP JUMPDEST PUSH0 PUSH32 0xFFFFFFFFFFFFFFFFFFFFFFFFFFFFFFFFFFFFFFFF000000000000000000000000 DUP3 AND SWAP1 POP SWAP2 SWAP1 POP JUMP JUMPDEST PUSH0 DUP3 DUP3 SHL SWAP1 POP SWAP3 SWAP2 POP POP JUMP JUMPDEST PUSH0 PUSH2 0x7A35 DUP4 DUP4 PUSH2 0x79E9 JUMP JUMPDEST DUP3 PUSH2 0x7A40 DUP2 CALLDATALOAD PUSH2 0x79F3 JUMP JUMPDEST SWAP3 POP PUSH1 0x14 DUP3 LT ISZERO PUSH2 0x7A80 JUMPI PUSH2 0x7A7B PUSH32 0xFFFFFFFFFFFFFFFFFFFFFFFFFFFFFFFFFFFFFFFF000000000000000000000000 DUP4 PUSH1 0x14 SUB PUSH1 0x8 MUL PUSH2 0x7A1E JUMP JUMPDEST DUP4 AND SWAP3 POP JUMPDEST POP POP SWAP3 SWAP2 POP POP JUMP JUMPDEST PUSH0 PUSH1 0x60 DUP3 ADD SWAP1 POP PUSH2 0x7A9B PUSH0 DUP4 ADD DUP7 PUSH2 0x6676 JUMP JUMPDEST PUSH2 0x7AA8 PUSH1 0x20 DUP4 ADD DUP6 PUSH2 0x6676 JUMP JUMPDEST PUSH2 0x7AB5 PUSH1 0x40 DUP4 ADD DUP5 PUSH2 0x64B6 JUMP JUMPDEST SWAP5 SWAP4 POP POP POP POP JUMP JUMPDEST PUSH0 DUP2 MLOAD SWAP1 POP SWAP2 SWAP1 POP JUMP JUMPDEST PUSH0 DUP2 SWAP1 POP SWAP3 SWAP2 POP POP JUMP JUMPDEST PUSH0 JUMPDEST DUP4 DUP2 LT ISZERO PUSH2 0x7AEE JUMPI DUP1 DUP3 ADD MLOAD DUP2 DUP5 ADD MSTORE PUSH1 0x20 DUP2 ADD SWAP1 POP PUSH2 0x7AD3 JUMP JUMPDEST PUSH0 DUP5 DUP5 ADD MSTORE POP POP POP POP JUMP JUMPDEST PUSH0 PUSH2 0x7B03 DUP3 PUSH2 0x7ABD JUMP JUMPDEST PUSH2 0x7B0D DUP2 DUP6 PUSH2 0x7AC7 JUMP JUMPDEST SWAP4 POP PUSH2 0x7B1D DUP2 DUP6 PUSH1 0x20 DUP7 ADD PUSH2 0x7AD1 JUMP JUMPDEST DUP1 DUP5 ADD SWAP2 POP POP SWAP3 SWAP2 POP POP JUMP JUMPDEST PUSH0 PUSH2 0x7B34 DUP3 DUP5 PUSH2 0x7AF9 JUMP JUMPDEST SWAP2 POP DUP2 SWAP1 POP SWAP3 SWAP2 POP POP JUMP JUMPDEST PUSH0 DUP3 DUP3 MSTORE PUSH1 0x20 DUP3 ADD SWAP1 POP SWAP3 SWAP2 POP POP JUMP JUMPDEST PUSH0 PUSH2 0x7B59 DUP3 PUSH2 0x7ABD JUMP JUMPDEST PUSH2 0x7B63 DUP2 DUP6 PUSH2 0x7B3F JUMP JUMPDEST SWAP4 POP PUSH2 0x7B73 DUP2 DUP6 PUSH1 0x20 DUP7 ADD PUSH2 0x7AD1 JUMP JUMPDEST PUSH2 0x7B7C DUP2 PUSH2 0x6796 JUMP JUMPDEST DUP5 ADD SWAP2 POP POP SWAP3 SWAP2 POP POP JUMP JUMPDEST PUSH0 PUSH1 0x80 DUP3 ADD SWAP1 POP PUSH2 0x7B9A PUSH0 DUP4 ADD DUP8 PUSH2 0x64B6 JUMP JUMPDEST PUSH2 0x7BA7 PUSH1 0x20 DUP4 ADD DUP7 PUSH2 0x64B6 JUMP JUMPDEST PUSH2 0x7BB4 PUSH1 0x40 DUP4 ADD DUP6 PUSH2 0x6676 JUMP JUMPDEST DUP2 DUP2 SUB PUSH1 0x60 DUP4 ADD MSTORE PUSH2 0x7BC6 DUP2 DUP5 PUSH2 0x7B4F JUMP JUMPDEST SWAP1 POP SWAP6 SWAP5 POP POP POP POP POP JUMP INVALID LOG2 PUSH5 0x6970667358 0x22 SLT KECCAK256 PUSH20 0x560FC07AC3F336D85D32241A19E5241D3360E7B 0xAF 0x4F MSIZE 0xE5 NOT 0x1F 0xFC PUSH26 0xE3847264736F6C63430008140033000000000000000000000000 "
		},
		"gasEstimates": {
			"creation": {
				"codeDepositCost": "6350200",
				"executionCost": "infinite",
				"totalCost": "infinite"
			},
			"external": {
				"ETHER()": "419",
				"UNSAFE_swapExactTokensForTokens(uint256[],(address,address,bool,address)[],address,uint256)": "infinite",
				"addLiquidity(address,address,bool,uint256,uint256,uint256,uint256,address,uint256)": "infinite",
				"addLiquidityETH(address,bool,uint256,uint256,uint256,address,uint256)": "infinite",
				"defaultFactory()": "infinite",
				"factoryRegistry()": "infinite",
				"generateZapInParams(address,address,bool,address,uint256,uint256,(address,address,bool,address)[],(address,address,bool,address)[])": "infinite",
				"generateZapOutParams(address,address,bool,address,uint256,(address,address,bool,address)[],(address,address,bool,address)[])": "infinite",
				"getAmountsOut(uint256,(address,address,bool,address)[])": "infinite",
				"getReserves(address,address,bool,address)": "infinite",
				"isTrustedForwarder(address)": "infinite",
				"poolFor(address,address,bool,address)": "infinite",
				"quoteAddLiquidity(address,address,bool,address,uint256,uint256)": "infinite",
				"quoteRemoveLiquidity(address,address,bool,address,uint256)": "infinite",
				"quoteStableLiquidityRatio(address,address,address)": "infinite",
				"removeLiquidity(address,address,bool,uint256,uint256,uint256,address,uint256)": "infinite",
				"removeLiquidityETH(address,bool,uint256,uint256,uint256,address,uint256)": "infinite",
				"removeLiquidityETHSupportingFeeOnTransferTokens(address,bool,uint256,uint256,uint256,address,uint256)": "infinite",
				"sortTokens(address,address)": "infinite",
				"swapExactETHForTokens(uint256,(address,address,bool,address)[],address,uint256)": "infinite",
				"swapExactETHForTokensSupportingFeeOnTransferTokens(uint256,(address,address,bool,address)[],address,uint256)": "infinite",
				"swapExactTokensForETH(uint256,uint256,(address,address,bool,address)[],address,uint256)": "infinite",
				"swapExactTokensForETHSupportingFeeOnTransferTokens(uint256,uint256,(address,address,bool,address)[],address,uint256)": "infinite",
				"swapExactTokensForTokens(uint256,uint256,(address,address,bool,address)[],address,uint256)": "infinite",
				"swapExactTokensForTokensSupportingFeeOnTransferTokens(uint256,uint256,(address,address,bool,address)[],address,uint256)": "infinite",
				"trustedForwarder()": "infinite",
				"voter()": "infinite",
				"weth()": "infinite",
				"zapIn(address,uint256,uint256,(address,address,bool,address,uint256,uint256,uint256,uint256),(address,address,bool,address)[],(address,address,bool,address)[],address,bool)": "infinite",
				"zapOut(address,uint256,(address,address,bool,address,uint256,uint256,uint256,uint256),(address,address,bool,address)[],(address,address,bool,address)[])": "infinite"
			},
			"internal": {
				"_addLiquidity(address,address,bool,uint256,uint256,uint256,uint256)": "infinite",
				"_ensureDeadline(uint256)": "infinite",
				"_internalSwap(address,uint256,uint256,struct IRouter.Route memory[] memory)": "infinite",
				"_quoteZapLiquidity(address,address,bool,address,uint256,uint256,uint256,uint256)": "infinite",
				"_returnAssets(address)": "infinite",
				"_safeTransfer(address,address,uint256)": "infinite",
				"_safeTransferETH(address,uint256)": "infinite",
				"_safeTransferFrom(address,address,address,uint256)": "infinite",
				"_swap(uint256[] memory,struct IRouter.Route memory[] memory,address)": "infinite",
				"_swapSupportingFeeOnTransferTokens(struct IRouter.Route memory[] memory,address)": "infinite",
				"_zapInLiquidity(struct IRouter.Zap calldata)": "infinite",
				"_zapOutLiquidity(uint256,struct IRouter.Zap calldata)": "infinite",
				"_zapSwap(address,uint256,uint256,struct IRouter.Zap calldata,struct IRouter.Route calldata[] calldata,struct IRouter.Route calldata[] calldata)": "infinite",
				"quoteLiquidity(uint256,uint256,uint256)": "infinite"
			}
		},
		"methodIdentifiers": {
			"ETHER()": "42cb1fbc",
			"UNSAFE_swapExactTokensForTokens(uint256[],(address,address,bool,address)[],address,uint256)": "4111d597",
			"addLiquidity(address,address,bool,uint256,uint256,uint256,uint256,address,uint256)": "5a47ddc3",
			"addLiquidityETH(address,bool,uint256,uint256,uint256,address,uint256)": "b7e0d4c0",
			"defaultFactory()": "d4b6846d",
			"factoryRegistry()": "3bf0c9fb",
			"generateZapInParams(address,address,bool,address,uint256,uint256,(address,address,bool,address)[],(address,address,bool,address)[])": "07db50fa",
			"generateZapOutParams(address,address,bool,address,uint256,(address,address,bool,address)[],(address,address,bool,address)[])": "7539d413",
			"getAmountsOut(uint256,(address,address,bool,address)[])": "5509a1ac",
			"getReserves(address,address,bool,address)": "8c0037dc",
			"isTrustedForwarder(address)": "572b6c05",
			"poolFor(address,address,bool,address)": "874029d9",
			"quoteAddLiquidity(address,address,bool,address,uint256,uint256)": "ce700c29",
			"quoteRemoveLiquidity(address,address,bool,address,uint256)": "c92de3ec",
			"quoteStableLiquidityRatio(address,address,address)": "f5ba53c7",
			"removeLiquidity(address,address,bool,uint256,uint256,uint256,address,uint256)": "0dede6c4",
			"removeLiquidityETH(address,bool,uint256,uint256,uint256,address,uint256)": "d7b0e0a5",
			"removeLiquidityETHSupportingFeeOnTransferTokens(address,bool,uint256,uint256,uint256,address,uint256)": "fe411f14",
			"sortTokens(address,address)": "544caa56",
			"swapExactETHForTokens(uint256,(address,address,bool,address)[],address,uint256)": "903638a4",
			"swapExactETHForTokensSupportingFeeOnTransferTokens(uint256,(address,address,bool,address)[],address,uint256)": "3da5acba",
			"swapExactTokensForETH(uint256,uint256,(address,address,bool,address)[],address,uint256)": "c6b7f1b6",
			"swapExactTokensForETHSupportingFeeOnTransferTokens(uint256,uint256,(address,address,bool,address)[],address,uint256)": "12bc3aca",
			"swapExactTokensForTokens(uint256,uint256,(address,address,bool,address)[],address,uint256)": "cac88ea9",
			"swapExactTokensForTokensSupportingFeeOnTransferTokens(uint256,uint256,(address,address,bool,address)[],address,uint256)": "88cd821e",
			"trustedForwarder()": "7da0a877",
			"voter()": "46c96aac",
			"weth()": "3fc8cef3",
			"zapIn(address,uint256,uint256,(address,address,bool,address,uint256,uint256,uint256,uint256),(address,address,bool,address)[],(address,address,bool,address)[],address,bool)": "fb49bafd",
			"zapOut(address,uint256,(address,address,bool,address,uint256,uint256,uint256,uint256),(address,address,bool,address)[],(address,address,bool,address)[])": "a81b9159"
		}
	},
	"abi": [
		{
			"inputs": [
				{
					"internalType": "address",
					"name": "_forwarder",
					"type": "address"
				},
				{
					"internalType": "address",
					"name": "_factoryRegistry",
					"type": "address"
				},
				{
					"internalType": "address",
					"name": "_factory",
					"type": "address"
				},
				{
					"internalType": "address",
					"name": "_voter",
					"type": "address"
				},
				{
					"internalType": "address",
					"name": "_weth",
					"type": "address"
				}
			],
			"stateMutability": "nonpayable",
			"type": "constructor"
		},
		{
			"inputs": [
				{
					"internalType": "address",
					"name": "target",
					"type": "address"
				}
			],
			"name": "AddressEmptyCode",
			"type": "error"
		},
		{
			"inputs": [
				{
					"internalType": "address",
					"name": "account",
					"type": "address"
				}
			],
			"name": "AddressInsufficientBalance",
			"type": "error"
		},
		{
			"inputs": [],
			"name": "ETHTransferFailed",
			"type": "error"
		},
		{
			"inputs": [],
			"name": "Expired",
			"type": "error"
		},
		{
			"inputs": [],
			"name": "FailedInnerCall",
			"type": "error"
		},
		{
			"inputs": [],
			"name": "InsufficientAmount",
			"type": "error"
		},
		{
			"inputs": [],
			"name": "InsufficientAmountA",
			"type": "error"
		},
		{
			"inputs": [],
			"name": "InsufficientAmountADesired",
			"type": "error"
		},
		{
			"inputs": [],
			"name": "InsufficientAmountAOptimal",
			"type": "error"
		},
		{
			"inputs": [],
			"name": "InsufficientAmountB",
			"type": "error"
		},
		{
			"inputs": [],
			"name": "InsufficientAmountBDesired",
			"type": "error"
		},
		{
			"inputs": [],
			"name": "InsufficientLiquidity",
			"type": "error"
		},
		{
			"inputs": [],
			"name": "InsufficientOutputAmount",
			"type": "error"
		},
		{
			"inputs": [],
			"name": "InvalidAmountInForETHDeposit",
			"type": "error"
		},
		{
			"inputs": [],
			"name": "InvalidPath",
			"type": "error"
		},
		{
			"inputs": [],
			"name": "InvalidRouteA",
			"type": "error"
		},
		{
			"inputs": [],
			"name": "InvalidRouteB",
			"type": "error"
		},
		{
			"inputs": [],
			"name": "InvalidTokenInForETHDeposit",
			"type": "error"
		},
		{
			"inputs": [],
			"name": "OnlyWETH",
			"type": "error"
		},
		{
			"inputs": [],
			"name": "PoolDoesNotExist",
			"type": "error"
		},
		{
			"inputs": [],
			"name": "PoolFactoryDoesNotExist",
			"type": "error"
		},
		{
			"inputs": [
				{
					"internalType": "address",
					"name": "token",
					"type": "address"
				}
			],
			"name": "SafeERC20FailedOperation",
			"type": "error"
		},
		{
			"inputs": [],
			"name": "SameAddresses",
			"type": "error"
		},
		{
			"inputs": [],
			"name": "ZeroAddress",
			"type": "error"
		},
		{
			"inputs": [],
			"name": "ETHER",
			"outputs": [
				{
					"internalType": "address",
					"name": "",
					"type": "address"
				}
			],
			"stateMutability": "view",
			"type": "function"
		},
		{
			"inputs": [
				{
					"internalType": "uint256[]",
					"name": "amounts",
					"type": "uint256[]"
				},
				{
					"components": [
						{
							"internalType": "address",
							"name": "from",
							"type": "address"
						},
						{
							"internalType": "address",
							"name": "to",
							"type": "address"
						},
						{
							"internalType": "bool",
							"name": "stable",
							"type": "bool"
						},
						{
							"internalType": "address",
							"name": "factory",
							"type": "address"
						}
					],
					"internalType": "struct IRouter.Route[]",
					"name": "routes",
					"type": "tuple[]"
				},
				{
					"internalType": "address",
					"name": "to",
					"type": "address"
				},
				{
					"internalType": "uint256",
					"name": "deadline",
					"type": "uint256"
				}
			],
			"name": "UNSAFE_swapExactTokensForTokens",
			"outputs": [
				{
					"internalType": "uint256[]",
					"name": "",
					"type": "uint256[]"
				}
			],
			"stateMutability": "nonpayable",
			"type": "function"
		},
		{
			"inputs": [
				{
					"internalType": "address",
					"name": "tokenA",
					"type": "address"
				},
				{
					"internalType": "address",
					"name": "tokenB",
					"type": "address"
				},
				{
					"internalType": "bool",
					"name": "stable",
					"type": "bool"
				},
				{
					"internalType": "uint256",
					"name": "amountADesired",
					"type": "uint256"
				},
				{
					"internalType": "uint256",
					"name": "amountBDesired",
					"type": "uint256"
				},
				{
					"internalType": "uint256",
					"name": "amountAMin",
					"type": "uint256"
				},
				{
					"internalType": "uint256",
					"name": "amountBMin",
					"type": "uint256"
				},
				{
					"internalType": "address",
					"name": "to",
					"type": "address"
				},
				{
					"internalType": "uint256",
					"name": "deadline",
					"type": "uint256"
				}
			],
			"name": "addLiquidity",
			"outputs": [
				{
					"internalType": "uint256",
					"name": "amountA",
					"type": "uint256"
				},
				{
					"internalType": "uint256",
					"name": "amountB",
					"type": "uint256"
				},
				{
					"internalType": "uint256",
					"name": "liquidity",
					"type": "uint256"
				}
			],
			"stateMutability": "nonpayable",
			"type": "function"
		},
		{
			"inputs": [
				{
					"internalType": "address",
					"name": "token",
					"type": "address"
				},
				{
					"internalType": "bool",
					"name": "stable",
					"type": "bool"
				},
				{
					"internalType": "uint256",
					"name": "amountTokenDesired",
					"type": "uint256"
				},
				{
					"internalType": "uint256",
					"name": "amountTokenMin",
					"type": "uint256"
				},
				{
					"internalType": "uint256",
					"name": "amountETHMin",
					"type": "uint256"
				},
				{
					"internalType": "address",
					"name": "to",
					"type": "address"
				},
				{
					"internalType": "uint256",
					"name": "deadline",
					"type": "uint256"
				}
			],
			"name": "addLiquidityETH",
			"outputs": [
				{
					"internalType": "uint256",
					"name": "amountToken",
					"type": "uint256"
				},
				{
					"internalType": "uint256",
					"name": "amountETH",
					"type": "uint256"
				},
				{
					"internalType": "uint256",
					"name": "liquidity",
					"type": "uint256"
				}
			],
			"stateMutability": "payable",
			"type": "function"
		},
		{
			"inputs": [],
			"name": "defaultFactory",
			"outputs": [
				{
					"internalType": "address",
					"name": "",
					"type": "address"
				}
			],
			"stateMutability": "view",
			"type": "function"
		},
		{
			"inputs": [],
			"name": "factoryRegistry",
			"outputs": [
				{
					"internalType": "address",
					"name": "",
					"type": "address"
				}
			],
			"stateMutability": "view",
			"type": "function"
		},
		{
			"inputs": [
				{
					"internalType": "address",
					"name": "tokenA",
					"type": "address"
				},
				{
					"internalType": "address",
					"name": "tokenB",
					"type": "address"
				},
				{
					"internalType": "bool",
					"name": "stable",
					"type": "bool"
				},
				{
					"internalType": "address",
					"name": "_factory",
					"type": "address"
				},
				{
					"internalType": "uint256",
					"name": "amountInA",
					"type": "uint256"
				},
				{
					"internalType": "uint256",
					"name": "amountInB",
					"type": "uint256"
				},
				{
					"components": [
						{
							"internalType": "address",
							"name": "from",
							"type": "address"
						},
						{
							"internalType": "address",
							"name": "to",
							"type": "address"
						},
						{
							"internalType": "bool",
							"name": "stable",
							"type": "bool"
						},
						{
							"internalType": "address",
							"name": "factory",
							"type": "address"
						}
					],
					"internalType": "struct IRouter.Route[]",
					"name": "routesA",
					"type": "tuple[]"
				},
				{
					"components": [
						{
							"internalType": "address",
							"name": "from",
							"type": "address"
						},
						{
							"internalType": "address",
							"name": "to",
							"type": "address"
						},
						{
							"internalType": "bool",
							"name": "stable",
							"type": "bool"
						},
						{
							"internalType": "address",
							"name": "factory",
							"type": "address"
						}
					],
					"internalType": "struct IRouter.Route[]",
					"name": "routesB",
					"type": "tuple[]"
				}
			],
			"name": "generateZapInParams",
			"outputs": [
				{
					"internalType": "uint256",
					"name": "amountOutMinA",
					"type": "uint256"
				},
				{
					"internalType": "uint256",
					"name": "amountOutMinB",
					"type": "uint256"
				},
				{
					"internalType": "uint256",
					"name": "amountAMin",
					"type": "uint256"
				},
				{
					"internalType": "uint256",
					"name": "amountBMin",
					"type": "uint256"
				}
			],
			"stateMutability": "view",
			"type": "function"
		},
		{
			"inputs": [
				{
					"internalType": "address",
					"name": "tokenA",
					"type": "address"
				},
				{
					"internalType": "address",
					"name": "tokenB",
					"type": "address"
				},
				{
					"internalType": "bool",
					"name": "stable",
					"type": "bool"
				},
				{
					"internalType": "address",
					"name": "_factory",
					"type": "address"
				},
				{
					"internalType": "uint256",
					"name": "liquidity",
					"type": "uint256"
				},
				{
					"components": [
						{
							"internalType": "address",
							"name": "from",
							"type": "address"
						},
						{
							"internalType": "address",
							"name": "to",
							"type": "address"
						},
						{
							"internalType": "bool",
							"name": "stable",
							"type": "bool"
						},
						{
							"internalType": "address",
							"name": "factory",
							"type": "address"
						}
					],
					"internalType": "struct IRouter.Route[]",
					"name": "routesA",
					"type": "tuple[]"
				},
				{
					"components": [
						{
							"internalType": "address",
							"name": "from",
							"type": "address"
						},
						{
							"internalType": "address",
							"name": "to",
							"type": "address"
						},
						{
							"internalType": "bool",
							"name": "stable",
							"type": "bool"
						},
						{
							"internalType": "address",
							"name": "factory",
							"type": "address"
						}
					],
					"internalType": "struct IRouter.Route[]",
					"name": "routesB",
					"type": "tuple[]"
				}
			],
			"name": "generateZapOutParams",
			"outputs": [
				{
					"internalType": "uint256",
					"name": "amountOutMinA",
					"type": "uint256"
				},
				{
					"internalType": "uint256",
					"name": "amountOutMinB",
					"type": "uint256"
				},
				{
					"internalType": "uint256",
					"name": "amountAMin",
					"type": "uint256"
				},
				{
					"internalType": "uint256",
					"name": "amountBMin",
					"type": "uint256"
				}
			],
			"stateMutability": "view",
			"type": "function"
		},
		{
			"inputs": [
				{
					"internalType": "uint256",
					"name": "amountIn",
					"type": "uint256"
				},
				{
					"components": [
						{
							"internalType": "address",
							"name": "from",
							"type": "address"
						},
						{
							"internalType": "address",
							"name": "to",
							"type": "address"
						},
						{
							"internalType": "bool",
							"name": "stable",
							"type": "bool"
						},
						{
							"internalType": "address",
							"name": "factory",
							"type": "address"
						}
					],
					"internalType": "struct IRouter.Route[]",
					"name": "routes",
					"type": "tuple[]"
				}
			],
			"name": "getAmountsOut",
			"outputs": [
				{
					"internalType": "uint256[]",
					"name": "amounts",
					"type": "uint256[]"
				}
			],
			"stateMutability": "view",
			"type": "function"
		},
		{
			"inputs": [
				{
					"internalType": "address",
					"name": "tokenA",
					"type": "address"
				},
				{
					"internalType": "address",
					"name": "tokenB",
					"type": "address"
				},
				{
					"internalType": "bool",
					"name": "stable",
					"type": "bool"
				},
				{
					"internalType": "address",
					"name": "_factory",
					"type": "address"
				}
			],
			"name": "getReserves",
			"outputs": [
				{
					"internalType": "uint256",
					"name": "reserveA",
					"type": "uint256"
				},
				{
					"internalType": "uint256",
					"name": "reserveB",
					"type": "uint256"
				}
			],
			"stateMutability": "view",
			"type": "function"
		},
		{
			"inputs": [
				{
					"internalType": "address",
					"name": "forwarder",
					"type": "address"
				}
			],
			"name": "isTrustedForwarder",
			"outputs": [
				{
					"internalType": "bool",
					"name": "",
					"type": "bool"
				}
			],
			"stateMutability": "view",
			"type": "function"
		},
		{
			"inputs": [
				{
					"internalType": "address",
					"name": "tokenA",
					"type": "address"
				},
				{
					"internalType": "address",
					"name": "tokenB",
					"type": "address"
				},
				{
					"internalType": "bool",
					"name": "stable",
					"type": "bool"
				},
				{
					"internalType": "address",
					"name": "_factory",
					"type": "address"
				}
			],
			"name": "poolFor",
			"outputs": [
				{
					"internalType": "address",
					"name": "pool",
					"type": "address"
				}
			],
			"stateMutability": "view",
			"type": "function"
		},
		{
			"inputs": [
				{
					"internalType": "address",
					"name": "tokenA",
					"type": "address"
				},
				{
					"internalType": "address",
					"name": "tokenB",
					"type": "address"
				},
				{
					"internalType": "bool",
					"name": "stable",
					"type": "bool"
				},
				{
					"internalType": "address",
					"name": "_factory",
					"type": "address"
				},
				{
					"internalType": "uint256",
					"name": "amountADesired",
					"type": "uint256"
				},
				{
					"internalType": "uint256",
					"name": "amountBDesired",
					"type": "uint256"
				}
			],
			"name": "quoteAddLiquidity",
			"outputs": [
				{
					"internalType": "uint256",
					"name": "amountA",
					"type": "uint256"
				},
				{
					"internalType": "uint256",
					"name": "amountB",
					"type": "uint256"
				},
				{
					"internalType": "uint256",
					"name": "liquidity",
					"type": "uint256"
				}
			],
			"stateMutability": "view",
			"type": "function"
		},
		{
			"inputs": [
				{
					"internalType": "address",
					"name": "tokenA",
					"type": "address"
				},
				{
					"internalType": "address",
					"name": "tokenB",
					"type": "address"
				},
				{
					"internalType": "bool",
					"name": "stable",
					"type": "bool"
				},
				{
					"internalType": "address",
					"name": "_factory",
					"type": "address"
				},
				{
					"internalType": "uint256",
					"name": "liquidity",
					"type": "uint256"
				}
			],
			"name": "quoteRemoveLiquidity",
			"outputs": [
				{
					"internalType": "uint256",
					"name": "amountA",
					"type": "uint256"
				},
				{
					"internalType": "uint256",
					"name": "amountB",
					"type": "uint256"
				}
			],
			"stateMutability": "view",
			"type": "function"
		},
		{
			"inputs": [
				{
					"internalType": "address",
					"name": "tokenA",
					"type": "address"
				},
				{
					"internalType": "address",
					"name": "tokenB",
					"type": "address"
				},
				{
					"internalType": "address",
					"name": "_factory",
					"type": "address"
				}
			],
			"name": "quoteStableLiquidityRatio",
			"outputs": [
				{
					"internalType": "uint256",
					"name": "ratio",
					"type": "uint256"
				}
			],
			"stateMutability": "view",
			"type": "function"
		},
		{
			"inputs": [
				{
					"internalType": "address",
					"name": "tokenA",
					"type": "address"
				},
				{
					"internalType": "address",
					"name": "tokenB",
					"type": "address"
				},
				{
					"internalType": "bool",
					"name": "stable",
					"type": "bool"
				},
				{
					"internalType": "uint256",
					"name": "liquidity",
					"type": "uint256"
				},
				{
					"internalType": "uint256",
					"name": "amountAMin",
					"type": "uint256"
				},
				{
					"internalType": "uint256",
					"name": "amountBMin",
					"type": "uint256"
				},
				{
					"internalType": "address",
					"name": "to",
					"type": "address"
				},
				{
					"internalType": "uint256",
					"name": "deadline",
					"type": "uint256"
				}
			],
			"name": "removeLiquidity",
			"outputs": [
				{
					"internalType": "uint256",
					"name": "amountA",
					"type": "uint256"
				},
				{
					"internalType": "uint256",
					"name": "amountB",
					"type": "uint256"
				}
			],
			"stateMutability": "nonpayable",
			"type": "function"
		},
		{
			"inputs": [
				{
					"internalType": "address",
					"name": "token",
					"type": "address"
				},
				{
					"internalType": "bool",
					"name": "stable",
					"type": "bool"
				},
				{
					"internalType": "uint256",
					"name": "liquidity",
					"type": "uint256"
				},
				{
					"internalType": "uint256",
					"name": "amountTokenMin",
					"type": "uint256"
				},
				{
					"internalType": "uint256",
					"name": "amountETHMin",
					"type": "uint256"
				},
				{
					"internalType": "address",
					"name": "to",
					"type": "address"
				},
				{
					"internalType": "uint256",
					"name": "deadline",
					"type": "uint256"
				}
			],
			"name": "removeLiquidityETH",
			"outputs": [
				{
					"internalType": "uint256",
					"name": "amountToken",
					"type": "uint256"
				},
				{
					"internalType": "uint256",
					"name": "amountETH",
					"type": "uint256"
				}
			],
			"stateMutability": "nonpayable",
			"type": "function"
		},
		{
			"inputs": [
				{
					"internalType": "address",
					"name": "token",
					"type": "address"
				},
				{
					"internalType": "bool",
					"name": "stable",
					"type": "bool"
				},
				{
					"internalType": "uint256",
					"name": "liquidity",
					"type": "uint256"
				},
				{
					"internalType": "uint256",
					"name": "amountTokenMin",
					"type": "uint256"
				},
				{
					"internalType": "uint256",
					"name": "amountETHMin",
					"type": "uint256"
				},
				{
					"internalType": "address",
					"name": "to",
					"type": "address"
				},
				{
					"internalType": "uint256",
					"name": "deadline",
					"type": "uint256"
				}
			],
			"name": "removeLiquidityETHSupportingFeeOnTransferTokens",
			"outputs": [
				{
					"internalType": "uint256",
					"name": "amountETH",
					"type": "uint256"
				}
			],
			"stateMutability": "nonpayable",
			"type": "function"
		},
		{
			"inputs": [
				{
					"internalType": "address",
					"name": "tokenA",
					"type": "address"
				},
				{
					"internalType": "address",
					"name": "tokenB",
					"type": "address"
				}
			],
			"name": "sortTokens",
			"outputs": [
				{
					"internalType": "address",
					"name": "token0",
					"type": "address"
				},
				{
					"internalType": "address",
					"name": "token1",
					"type": "address"
				}
			],
			"stateMutability": "pure",
			"type": "function"
		},
		{
			"inputs": [
				{
					"internalType": "uint256",
					"name": "amountOutMin",
					"type": "uint256"
				},
				{
					"components": [
						{
							"internalType": "address",
							"name": "from",
							"type": "address"
						},
						{
							"internalType": "address",
							"name": "to",
							"type": "address"
						},
						{
							"internalType": "bool",
							"name": "stable",
							"type": "bool"
						},
						{
							"internalType": "address",
							"name": "factory",
							"type": "address"
						}
					],
					"internalType": "struct IRouter.Route[]",
					"name": "routes",
					"type": "tuple[]"
				},
				{
					"internalType": "address",
					"name": "to",
					"type": "address"
				},
				{
					"internalType": "uint256",
					"name": "deadline",
					"type": "uint256"
				}
			],
			"name": "swapExactETHForTokens",
			"outputs": [
				{
					"internalType": "uint256[]",
					"name": "amounts",
					"type": "uint256[]"
				}
			],
			"stateMutability": "payable",
			"type": "function"
		},
		{
			"inputs": [
				{
					"internalType": "uint256",
					"name": "amountOutMin",
					"type": "uint256"
				},
				{
					"components": [
						{
							"internalType": "address",
							"name": "from",
							"type": "address"
						},
						{
							"internalType": "address",
							"name": "to",
							"type": "address"
						},
						{
							"internalType": "bool",
							"name": "stable",
							"type": "bool"
						},
						{
							"internalType": "address",
							"name": "factory",
							"type": "address"
						}
					],
					"internalType": "struct IRouter.Route[]",
					"name": "routes",
					"type": "tuple[]"
				},
				{
					"internalType": "address",
					"name": "to",
					"type": "address"
				},
				{
					"internalType": "uint256",
					"name": "deadline",
					"type": "uint256"
				}
			],
			"name": "swapExactETHForTokensSupportingFeeOnTransferTokens",
			"outputs": [],
			"stateMutability": "payable",
			"type": "function"
		},
		{
			"inputs": [
				{
					"internalType": "uint256",
					"name": "amountIn",
					"type": "uint256"
				},
				{
					"internalType": "uint256",
					"name": "amountOutMin",
					"type": "uint256"
				},
				{
					"components": [
						{
							"internalType": "address",
							"name": "from",
							"type": "address"
						},
						{
							"internalType": "address",
							"name": "to",
							"type": "address"
						},
						{
							"internalType": "bool",
							"name": "stable",
							"type": "bool"
						},
						{
							"internalType": "address",
							"name": "factory",
							"type": "address"
						}
					],
					"internalType": "struct IRouter.Route[]",
					"name": "routes",
					"type": "tuple[]"
				},
				{
					"internalType": "address",
					"name": "to",
					"type": "address"
				},
				{
					"internalType": "uint256",
					"name": "deadline",
					"type": "uint256"
				}
			],
			"name": "swapExactTokensForETH",
			"outputs": [
				{
					"internalType": "uint256[]",
					"name": "amounts",
					"type": "uint256[]"
				}
			],
			"stateMutability": "nonpayable",
			"type": "function"
		},
		{
			"inputs": [
				{
					"internalType": "uint256",
					"name": "amountIn",
					"type": "uint256"
				},
				{
					"internalType": "uint256",
					"name": "amountOutMin",
					"type": "uint256"
				},
				{
					"components": [
						{
							"internalType": "address",
							"name": "from",
							"type": "address"
						},
						{
							"internalType": "address",
							"name": "to",
							"type": "address"
						},
						{
							"internalType": "bool",
							"name": "stable",
							"type": "bool"
						},
						{
							"internalType": "address",
							"name": "factory",
							"type": "address"
						}
					],
					"internalType": "struct IRouter.Route[]",
					"name": "routes",
					"type": "tuple[]"
				},
				{
					"internalType": "address",
					"name": "to",
					"type": "address"
				},
				{
					"internalType": "uint256",
					"name": "deadline",
					"type": "uint256"
				}
			],
			"name": "swapExactTokensForETHSupportingFeeOnTransferTokens",
			"outputs": [],
			"stateMutability": "nonpayable",
			"type": "function"
		},
		{
			"inputs": [
				{
					"internalType": "uint256",
					"name": "amountIn",
					"type": "uint256"
				},
				{
					"internalType": "uint256",
					"name": "amountOutMin",
					"type": "uint256"
				},
				{
					"components": [
						{
							"internalType": "address",
							"name": "from",
							"type": "address"
						},
						{
							"internalType": "address",
							"name": "to",
							"type": "address"
						},
						{
							"internalType": "bool",
							"name": "stable",
							"type": "bool"
						},
						{
							"internalType": "address",
							"name": "factory",
							"type": "address"
						}
					],
					"internalType": "struct IRouter.Route[]",
					"name": "routes",
					"type": "tuple[]"
				},
				{
					"internalType": "address",
					"name": "to",
					"type": "address"
				},
				{
					"internalType": "uint256",
					"name": "deadline",
					"type": "uint256"
				}
			],
			"name": "swapExactTokensForTokens",
			"outputs": [
				{
					"internalType": "uint256[]",
					"name": "amounts",
					"type": "uint256[]"
				}
			],
			"stateMutability": "nonpayable",
			"type": "function"
		},
		{
			"inputs": [
				{
					"internalType": "uint256",
					"name": "amountIn",
					"type": "uint256"
				},
				{
					"internalType": "uint256",
					"name": "amountOutMin",
					"type": "uint256"
				},
				{
					"components": [
						{
							"internalType": "address",
							"name": "from",
							"type": "address"
						},
						{
							"internalType": "address",
							"name": "to",
							"type": "address"
						},
						{
							"internalType": "bool",
							"name": "stable",
							"type": "bool"
						},
						{
							"internalType": "address",
							"name": "factory",
							"type": "address"
						}
					],
					"internalType": "struct IRouter.Route[]",
					"name": "routes",
					"type": "tuple[]"
				},
				{
					"internalType": "address",
					"name": "to",
					"type": "address"
				},
				{
					"internalType": "uint256",
					"name": "deadline",
					"type": "uint256"
				}
			],
			"name": "swapExactTokensForTokensSupportingFeeOnTransferTokens",
			"outputs": [],
			"stateMutability": "nonpayable",
			"type": "function"
		},
		{
			"inputs": [],
			"name": "trustedForwarder",
			"outputs": [
				{
					"internalType": "address",
					"name": "",
					"type": "address"
				}
			],
			"stateMutability": "view",
			"type": "function"
		},
		{
			"inputs": [],
			"name": "voter",
			"outputs": [
				{
					"internalType": "address",
					"name": "",
					"type": "address"
				}
			],
			"stateMutability": "view",
			"type": "function"
		},
		{
			"inputs": [],
			"name": "weth",
			"outputs": [
				{
					"internalType": "contract IWETH",
					"name": "",
					"type": "address"
				}
			],
			"stateMutability": "view",
			"type": "function"
		},
		{
			"inputs": [
				{
					"internalType": "address",
					"name": "tokenIn",
					"type": "address"
				},
				{
					"internalType": "uint256",
					"name": "amountInA",
					"type": "uint256"
				},
				{
					"internalType": "uint256",
					"name": "amountInB",
					"type": "uint256"
				},
				{
					"components": [
						{
							"internalType": "address",
							"name": "tokenA",
							"type": "address"
						},
						{
							"internalType": "address",
							"name": "tokenB",
							"type": "address"
						},
						{
							"internalType": "bool",
							"name": "stable",
							"type": "bool"
						},
						{
							"internalType": "address",
							"name": "factory",
							"type": "address"
						},
						{
							"internalType": "uint256",
							"name": "amountOutMinA",
							"type": "uint256"
						},
						{
							"internalType": "uint256",
							"name": "amountOutMinB",
							"type": "uint256"
						},
						{
							"internalType": "uint256",
							"name": "amountAMin",
							"type": "uint256"
						},
						{
							"internalType": "uint256",
							"name": "amountBMin",
							"type": "uint256"
						}
					],
					"internalType": "struct IRouter.Zap",
					"name": "zapInPool",
					"type": "tuple"
				},
				{
					"components": [
						{
							"internalType": "address",
							"name": "from",
							"type": "address"
						},
						{
							"internalType": "address",
							"name": "to",
							"type": "address"
						},
						{
							"internalType": "bool",
							"name": "stable",
							"type": "bool"
						},
						{
							"internalType": "address",
							"name": "factory",
							"type": "address"
						}
					],
					"internalType": "struct IRouter.Route[]",
					"name": "routesA",
					"type": "tuple[]"
				},
				{
					"components": [
						{
							"internalType": "address",
							"name": "from",
							"type": "address"
						},
						{
							"internalType": "address",
							"name": "to",
							"type": "address"
						},
						{
							"internalType": "bool",
							"name": "stable",
							"type": "bool"
						},
						{
							"internalType": "address",
							"name": "factory",
							"type": "address"
						}
					],
					"internalType": "struct IRouter.Route[]",
					"name": "routesB",
					"type": "tuple[]"
				},
				{
					"internalType": "address",
					"name": "to",
					"type": "address"
				},
				{
					"internalType": "bool",
					"name": "stake",
					"type": "bool"
				}
			],
			"name": "zapIn",
			"outputs": [
				{
					"internalType": "uint256",
					"name": "liquidity",
					"type": "uint256"
				}
			],
			"stateMutability": "payable",
			"type": "function"
		},
		{
			"inputs": [
				{
					"internalType": "address",
					"name": "tokenOut",
					"type": "address"
				},
				{
					"internalType": "uint256",
					"name": "liquidity",
					"type": "uint256"
				},
				{
					"components": [
						{
							"internalType": "address",
							"name": "tokenA",
							"type": "address"
						},
						{
							"internalType": "address",
							"name": "tokenB",
							"type": "address"
						},
						{
							"internalType": "bool",
							"name": "stable",
							"type": "bool"
						},
						{
							"internalType": "address",
							"name": "factory",
							"type": "address"
						},
						{
							"internalType": "uint256",
							"name": "amountOutMinA",
							"type": "uint256"
						},
						{
							"internalType": "uint256",
							"name": "amountOutMinB",
							"type": "uint256"
						},
						{
							"internalType": "uint256",
							"name": "amountAMin",
							"type": "uint256"
						},
						{
							"internalType": "uint256",
							"name": "amountBMin",
							"type": "uint256"
						}
					],
					"internalType": "struct IRouter.Zap",
					"name": "zapOutPool",
					"type": "tuple"
				},
				{
					"components": [
						{
							"internalType": "address",
							"name": "from",
							"type": "address"
						},
						{
							"internalType": "address",
							"name": "to",
							"type": "address"
						},
						{
							"internalType": "bool",
							"name": "stable",
							"type": "bool"
						},
						{
							"internalType": "address",
							"name": "factory",
							"type": "address"
						}
					],
					"internalType": "struct IRouter.Route[]",
					"name": "routesA",
					"type": "tuple[]"
				},
				{
					"components": [
						{
							"internalType": "address",
							"name": "from",
							"type": "address"
						},
						{
							"internalType": "address",
							"name": "to",
							"type": "address"
						},
						{
							"internalType": "bool",
							"name": "stable",
							"type": "bool"
						},
						{
							"internalType": "address",
							"name": "factory",
							"type": "address"
						}
					],
					"internalType": "struct IRouter.Route[]",
					"name": "routesB",
					"type": "tuple[]"
				}
			],
			"name": "zapOut",
			"outputs": [],
			"stateMutability": "nonpayable",
			"type": "function"
		},
		{
			"stateMutability": "payable",
			"type": "receive"
		}
	]
}