{
	"data": {
		"bytecode": {
			"linkReferences": {},
			"object": "608060405234801561000f575f80fd5b506151c28061001d5f395ff3fe608060405234801561000f575f80fd5b5060043610610029575f3560e01c8063dabc8e831461002d575b5f80fd5b610047600480360381019061004291906101ba565b61005e565b604051610055929190610207565b60405180910390f35b5f80838360405161006e90610142565b610079929190610207565b604051809103905ff080158015610092573d5f803e3d5ffd5b50915083836040516100a39061014f565b6100ae929190610207565b604051809103905ff0801580156100c7573d5f803e3d5ffd5b5090508073ffffffffffffffffffffffffffffffffffffffff168273ffffffffffffffffffffffffffffffffffffffff168473ffffffffffffffffffffffffffffffffffffffff167f951f6f2ffc705efc870b0c6023fb94c7edece24c87077884b6d08a5cd44e6aa760405160405180910390a49250929050565b6127b68061022f83390190565b6127a8806129e583390190565b5f80fd5b5f73ffffffffffffffffffffffffffffffffffffffff82169050919050565b5f61018982610160565b9050919050565b6101998161017f565b81146101a3575f80fd5b50565b5f813590506101b481610190565b92915050565b5f80604083850312156101d0576101cf61015c565b5b5f6101dd858286016101a6565b92505060206101ee858286016101a6565b9150509250929050565b6102018161017f565b82525050565b5f60408201905061021a5f8301856101f8565b61022760208301846101f8565b939250505056fe60e060405234801562000010575f80fd5b50604051620027b6380380620027b683398181016040528101906200003691906200039c565b81818181818073ffffffffffffffffffffffffffffffffffffffff1660808173ffffffffffffffffffffffffffffffffffffffff16815250505060015f819055508073ffffffffffffffffffffffffffffffffffffffff1660a08173ffffffffffffffffffffffffffffffffffffffff16815250508073ffffffffffffffffffffffffffffffffffffffff16631f8507166040518163ffffffff1660e01b8152600401602060405180830381865afa158015620000f5573d5f803e3d5ffd5b505050506040513d601f19601f820116820180604052508101906200011b9190620003e1565b73ffffffffffffffffffffffffffffffffffffffff1660c08173ffffffffffffffffffffffffffffffffffffffff168152505050505f8173ffffffffffffffffffffffffffffffffffffffff16631f8507166040518163ffffffff1660e01b8152600401602060405180830381865afa1580156200019b573d5f803e3d5ffd5b505050506040513d601f19601f82011682018060405250810190620001c19190620003e1565b90505f8173ffffffffffffffffffffffffffffffffffffffff1663fc0c546a6040518163ffffffff1660e01b8152600401602060405180830381865afa1580156200020e573d5f803e3d5ffd5b505050506040513d601f19601f82011682018060405250810190620002349190620003e1565b9050600681908060018154018082558091505060019003905f5260205f20015f9091909190916101000a81548173ffffffffffffffffffffffffffffffffffffffff021916908373ffffffffffffffffffffffffffffffffffffffff160217905550600160075f8373ffffffffffffffffffffffffffffffffffffffff1673ffffffffffffffffffffffffffffffffffffffff1681526020019081526020015f205f6101000a81548160ff0219169083151502179055508160015f6101000a81548173ffffffffffffffffffffffffffffffffffffffff021916908373ffffffffffffffffffffffffffffffffffffffff16021790555050505050505062000411565b5f80fd5b5f73ffffffffffffffffffffffffffffffffffffffff82169050919050565b5f62000366826200033b565b9050919050565b62000378816200035a565b811462000383575f80fd5b50565b5f8151905062000396816200036d565b92915050565b5f8060408385031215620003b557620003b462000337565b5b5f620003c48582860162000386565b9250506020620003d78582860162000386565b9150509250929050565b5f60208284031215620003f957620003f862000337565b5b5f620004088482850162000386565b91505092915050565b60805160a05160c05161235e620004585f395f818161050b01528181610cde01528181610d630152818161103301526110f301525f6107c201525f6109b7015261235e5ff3fe608060405234801561000f575f80fd5b5060043610610156575f3560e01c806392777b29116100c1578063e8111a121161007a578063e8111a1214610415578063f25e55a514610433578063f301af4214610463578063f320772314610493578063f5f8d365146104af578063f7412baf146104cb57610156565b806392777b291461032f5780639cc7f7081461035f5780639e2bf22c1461038f578063a28d4c9c146103ab578063b66503cf146103db578063e6886396146103f757610156565b806349dcc2041161011357806349dcc204146102205780634d5ce038146102515780635058979314610281578063572b6c05146102b157806376f4be36146102e15780637da0a8771461031157610156565b806318160ddd1461015a5780631be05289146101785780631f850716146101965780633e491d47146101b4578063456cb7c6146101e457806346c96aac14610202575b5f80fd5b6101626104fc565b60405161016f9190611b84565b60405180910390f35b610180610502565b60405161018d9190611b84565b60405180910390f35b61019e610509565b6040516101ab9190611bdc565b60405180910390f35b6101ce60048036038101906101c99190611c5a565b61052d565b6040516101db9190611b84565b60405180910390f35b6101ec61079b565b6040516101f99190611bdc565b60405180910390f35b61020a6107c0565b6040516102179190611bdc565b60405180910390f35b61023a60048036038101906102359190611c98565b6107e4565b604051610248929190611cd6565b60405180910390f35b61026b60048036038101906102669190611cfd565b61080f565b6040516102789190611d42565b60405180910390f35b61029b60048036038101906102969190611d5b565b61082c565b6040516102a89190611b84565b60405180910390f35b6102cb60048036038101906102c69190611cfd565b610841565b6040516102d89190611d42565b60405180910390f35b6102fb60048036038101906102f69190611d5b565b61087f565b6040516103089190611b84565b60405180910390f35b6103196109b4565b6040516103269190611bdc565b60405180910390f35b61034960048036038101906103449190611c5a565b6109db565b6040516103569190611b84565b60405180910390f35b61037960048036038101906103749190611d5b565b6109fb565b6040516103869190611b84565b60405180910390f35b6103a960048036038101906103a49190611c98565b610a10565b005b6103c560048036038101906103c09190611c98565b610b57565b6040516103d29190611b84565b60405180910390f35b6103f560048036038101906103f09190611c5a565b610cc9565b005b6103ff610e6a565b60405161040c9190611b84565b60405180910390f35b61041d610e76565b60405161042a9190611b84565b60405180910390f35b61044d60048036038101906104489190611c5a565b610e7c565b60405161045a9190611b84565b60405180910390f35b61047d60048036038101906104789190611d5b565b610e9c565b60405161048a9190611bdc565b60405180910390f35b6104ad60048036038101906104a89190611c98565b610ed7565b005b6104c960048036038101906104c49190611ed6565b61101e565b005b6104e560048036038101906104e09190611d5b565b611214565b6040516104f3929190611cd6565b60405180910390f35b60025481565b62093a8081565b7f000000000000000000000000000000000000000000000000000000000000000081565b5f8060095f8481526020019081526020015f20540361054e575f9050610795565b5f80600190505f6105aa60055f8873ffffffffffffffffffffffffffffffffffffffff1673ffffffffffffffffffffffffffffffffffffffff1681526020019081526020015f205f8781526020019081526020015f2054611234565b90505f6105b78683610b57565b90505f60085f8881526020019081526020015f205f8381526020019081526020015f206040518060400160405290815f8201548152602001600182015481525050905061060f8361060a835f0151611234565b611252565b92505f62093a808461062042611234565b61062a9190611f5d565b6106349190611fbd565b90505f81111561078b575f5b818110156107895761066c89600162093a808861065d9190611fed565b6106679190611f5d565b610b57565b935060085f8a81526020019081526020015f205f8581526020019081526020015f206040518060400160405290815f820154815260200160018201548152505092506106ef600a5f6106d7600162093a808a6106c89190611fed565b6106d29190611f5d565b61087f565b81526020019081526020015f20600101546001611252565b95508560045f8c73ffffffffffffffffffffffffffffffffffffffff1673ffffffffffffffffffffffffffffffffffffffff1681526020019081526020015f205f8781526020019081526020015f2054846020015161074e9190612020565b6107589190611fbd565b876107639190611fed565b965062093a80856107749190611fed565b9450808061078190612061565b915050610640565b505b8596505050505050505b92915050565b60015f9054906101000a900473ffffffffffffffffffffffffffffffffffffffff1681565b7f000000000000000000000000000000000000000000000000000000000000000081565b6008602052815f5260405f20602052805f5260405f205f9150915050805f0154908060010154905082565b6007602052805f5260405f205f915054906101000a900460ff1681565b6009602052805f5260405f205f915090505481565b5f61084a6109b4565b73ffffffffffffffffffffffffffffffffffffffff168273ffffffffffffffffffffffffffffffffffffffff16149050919050565b5f80600b5490505f8103610896575f9150506109af565b82600a5f6001846108a79190611f5d565b81526020019081526020015f205f0154116108d1576001816108c99190611f5d565b9150506109af565b82600a5f8081526020019081526020015f205f015411156108f5575f9150506109af565b5f806001836109049190611f5d565b90505b818111156109a8575f6002838361091e9190611f5d565b6109289190611fbd565b826109339190611f5d565b90505f600a5f8381526020019081526020015f206040518060400160405290815f8201548152602001600182015481525050905086815f01510361097e5781955050505050506109af565b86815f01511015610991578193506109a1565b60018261099e9190611f5d565b92505b5050610907565b8193505050505b919050565b5f7f0000000000000000000000000000000000000000000000000000000000000000905090565b6004602052815f5260405f20602052805f5260405f205f91509150505481565b6003602052805f5260405f205f915090505481565b5f610a1961126a565b905060015f9054906101000a900473ffffffffffffffffffffffffffffffffffffffff1673ffffffffffffffffffffffffffffffffffffffff168173ffffffffffffffffffffffffffffffffffffffff1614610aa1576040517fea8e4eb500000000000000000000000000000000000000000000000000000000815260040160405180910390fd5b8260025f828254610ab29190611f5d565b925050819055508260035f8481526020019081526020015f205f828254610ad99190611f5d565b92505081905550610afb8260035f8581526020019081526020015f20546112db565b610b03611413565b818173ffffffffffffffffffffffffffffffffffffffff167ff279e6a1f5e320cca91135676d9cb6e44ca8a08c0b88342bcdb1144f6511b56885604051610b4a9190611b84565b60405180910390a3505050565b5f8060095f8581526020019081526020015f205490505f8103610b7d575f915050610cc3565b8260085f8681526020019081526020015f205f600184610b9d9190611f5d565b81526020019081526020015f205f015411610bc757600181610bbf9190611f5d565b915050610cc3565b8260085f8681526020019081526020015f205f8081526020019081526020015f205f01541115610bfa575f915050610cc3565b5f80600183610c099190611f5d565b90505b81811115610cbc575f60028383610c239190611f5d565b610c2d9190611fbd565b82610c389190611f5d565b90505f60085f8981526020019081526020015f205f8381526020019081526020015f206040518060400160405290815f8201548152602001600182015481525050905086815f015103610c92578195505050505050610cc3565b86815f01511015610ca557819350610cb5565b600182610cb29190611f5d565b92505b5050610c0c565b8193505050505b92915050565b610cd1611502565b5f610cda61126a565b90507f000000000000000000000000000000000000000000000000000000000000000073ffffffffffffffffffffffffffffffffffffffff168173ffffffffffffffffffffffffffffffffffffffff1614610d61576040517fd6e8dbe000000000000000000000000000000000000000000000000000000000815260040160405180910390fd5b7f000000000000000000000000000000000000000000000000000000000000000073ffffffffffffffffffffffffffffffffffffffff1663fc0c546a6040518163ffffffff1660e01b8152600401602060405180830381865afa158015610dca573d5f803e3d5ffd5b505050506040513d601f19601f82011682018060405250810190610dee91906120bc565b73ffffffffffffffffffffffffffffffffffffffff168373ffffffffffffffffffffffffffffffffffffffff1614610e52576040517fb9eb1c5000000000000000000000000000000000000000000000000000000000815260040160405180910390fd5b610e5d818484611546565b50610e66611686565b5050565b5f600680549050905090565b600b5481565b6005602052815f5260405f20602052805f5260405f205f91509150505481565b60068181548110610eab575f80fd5b905f5260205f20015f915054906101000a900473ffffffffffffffffffffffffffffffffffffffff1681565b5f610ee061126a565b905060015f9054906101000a900473ffffffffffffffffffffffffffffffffffffffff1673ffffffffffffffffffffffffffffffffffffffff168173ffffffffffffffffffffffffffffffffffffffff1614610f68576040517fea8e4eb500000000000000000000000000000000000000000000000000000000815260040160405180910390fd5b8260025f828254610f799190611fed565b925050819055508260035f8481526020019081526020015f205f828254610fa09190611fed565b92505081905550610fc28260035f8581526020019081526020015f20546112db565b610fca611413565b818173ffffffffffffffffffffffffffffffffffffffff167f90890809c654f11d6e72a28fa60149770a0d11ec6c92319d6ceb2bb0a4ea1a15856040516110119190611b84565b60405180910390a3505050565b611026611502565b5f61102f61126a565b90507f000000000000000000000000000000000000000000000000000000000000000073ffffffffffffffffffffffffffffffffffffffff168173ffffffffffffffffffffffffffffffffffffffff16146110b6576040517fd6e8dbe000000000000000000000000000000000000000000000000000000000815260040160405180910390fd5b60018251146110f1576040517f801f099f00000000000000000000000000000000000000000000000000000000815260040160405180910390fd5b7f000000000000000000000000000000000000000000000000000000000000000073ffffffffffffffffffffffffffffffffffffffff1663fc0c546a6040518163ffffffff1660e01b8152600401602060405180830381865afa15801561115a573d5f803e3d5ffd5b505050506040513d601f19601f8201168201806040525081019061117e91906120bc565b73ffffffffffffffffffffffffffffffffffffffff16825f815181106111a7576111a66120e7565b5b602002602001015173ffffffffffffffffffffffffffffffffffffffff16146111fc576040517fb9eb1c5000000000000000000000000000000000000000000000000000000000815260040160405180910390fd5b61120781848461168f565b50611210611686565b5050565b600a602052805f5260405f205f91509050805f0154908060010154905082565b5f62093a80828161124857611247611f90565b5b0682039050919050565b5f8183116112605781611262565b825b905092915050565b5f805f36905090505f61127b611818565b905061128633610841565b80156112925750808210155b156112cb575f3682846112a59190611f5d565b9080926112b49392919061211c565b906112bf9190612197565b60601c925050506112d8565b6112d3611820565b925050505b90565b5f60095f8481526020019081526020015f205490505f4290505f82118015611340575061130781611234565b61133e60085f8781526020019081526020015f205f6001866113299190611f5d565b81526020019081526020015f205f0154611234565b145b156113a05760405180604001604052808281526020018481525060085f8681526020019081526020015f205f6001856113799190611f5d565b81526020019081526020015f205f820151815f01556020820151816001015590505061140d565b60405180604001604052808281526020018481525060085f8681526020019081526020015f205f8481526020019081526020015f205f820151815f0155602082015181600101559050506001826113f79190611fed565b60095f8681526020019081526020015f20819055505b50505050565b5f600b5490505f4290505f8211801561145a575061143081611234565b611458600a5f6001866114439190611f5d565b81526020019081526020015f205f0154611234565b145b156114ad576040518060400160405280828152602001600254815250600a5f6001856114869190611f5d565b81526020019081526020015f205f820151815f0155602082015181600101559050506114fe565b6040518060400160405280828152602001600254815250600a5f8481526020019081526020015f205f820151815f0155602082015181600101559050506001826114f79190611fed565b600b819055505b5050565b60025f540361153d576040517f3ee5aeb500000000000000000000000000000000000000000000000000000000815260040160405180910390fd5b60025f81905550565b5f810361157f576040517f1f2a200500000000000000000000000000000000000000000000000000000000815260040160405180910390fd5b6115ac8330838573ffffffffffffffffffffffffffffffffffffffff16611827909392919063ffffffff16565b5f6115b642611234565b90508160045f8573ffffffffffffffffffffffffffffffffffffffff1673ffffffffffffffffffffffffffffffffffffffff1681526020019081526020015f205f8381526020019081526020015f205f8282546116139190611fed565b92505081905550808373ffffffffffffffffffffffffffffffffffffffff168573ffffffffffffffffffffffffffffffffffffffff167f52977ea98a2220a03ee9ba5cb003ada08d394ea10155483c95dc2dc77a7eb24b856040516116789190611b84565b60405180910390a450505050565b60015f81905550565b5f815190505f5b81811015611811575f6116c38483815181106116b5576116b46120e7565b5b60200260200101518661052d565b90504260055f8685815181106116dc576116db6120e7565b5b602002602001015173ffffffffffffffffffffffffffffffffffffffff1673ffffffffffffffffffffffffffffffffffffffff1681526020019081526020015f205f8781526020019081526020015f20819055505f81111561177e5761177d86828685815181106117505761174f6120e7565b5b602002602001015173ffffffffffffffffffffffffffffffffffffffff166118a99092919063ffffffff16565b5b838281518110611791576117906120e7565b5b602002602001015173ffffffffffffffffffffffffffffffffffffffff168673ffffffffffffffffffffffffffffffffffffffff167f9aa05b3d70a9e3e2f004f039648839560576334fb45c81f91b6db03ad9e2efc9836040516117f59190611b84565b60405180910390a350808061180990612061565b915050611696565b5050505050565b5f6014905090565b5f33905090565b6118a3848573ffffffffffffffffffffffffffffffffffffffff166323b872dd86868660405160240161185c939291906121f5565b604051602081830303815290604052915060e01b6020820180517bffffffffffffffffffffffffffffffffffffffffffffffffffffffff8381831617835250505050611928565b50505050565b611923838473ffffffffffffffffffffffffffffffffffffffff1663a9059cbb85856040516024016118dc92919061222a565b604051602081830303815290604052915060e01b6020820180517bffffffffffffffffffffffffffffffffffffffffffffffffffffffff8381831617835250505050611928565b505050565b5f611952828473ffffffffffffffffffffffffffffffffffffffff166119bd90919063ffffffff16565b90505f815114158015611976575080806020019051810190611974919061227b565b155b156119b857826040517f5274afe70000000000000000000000000000000000000000000000000000000081526004016119af9190611bdc565b60405180910390fd5b505050565b60606119ca83835f6119d2565b905092915050565b606081471015611a1957306040517fcd786059000000000000000000000000000000000000000000000000000000008152600401611a109190611bdc565b60405180910390fd5b5f808573ffffffffffffffffffffffffffffffffffffffff168486604051611a419190612312565b5f6040518083038185875af1925050503d805f8114611a7b576040519150601f19603f3d011682016040523d82523d5f602084013e611a80565b606091505b5091509150611a90868383611a9b565b925050509392505050565b606082611ab057611aab82611b28565b611b20565b5f8251148015611ad657505f8473ffffffffffffffffffffffffffffffffffffffff163b145b15611b1857836040517f9996b315000000000000000000000000000000000000000000000000000000008152600401611b0f9190611bdc565b60405180910390fd5b819050611b21565b5b9392505050565b5f81511115611b3a5780518082602001fd5b6040517f1425ea4200000000000000000000000000000000000000000000000000000000815260040160405180910390fd5b5f819050919050565b611b7e81611b6c565b82525050565b5f602082019050611b975f830184611b75565b92915050565b5f73ffffffffffffffffffffffffffffffffffffffff82169050919050565b5f611bc682611b9d565b9050919050565b611bd681611bbc565b82525050565b5f602082019050611bef5f830184611bcd565b92915050565b5f604051905090565b5f80fd5b5f80fd5b611c0f81611bbc565b8114611c19575f80fd5b50565b5f81359050611c2a81611c06565b92915050565b611c3981611b6c565b8114611c43575f80fd5b50565b5f81359050611c5481611c30565b92915050565b5f8060408385031215611c7057611c6f611bfe565b5b5f611c7d85828601611c1c565b9250506020611c8e85828601611c46565b9150509250929050565b5f8060408385031215611cae57611cad611bfe565b5b5f611cbb85828601611c46565b9250506020611ccc85828601611c46565b9150509250929050565b5f604082019050611ce95f830185611b75565b611cf66020830184611b75565b9392505050565b5f60208284031215611d1257611d11611bfe565b5b5f611d1f84828501611c1c565b91505092915050565b5f8115159050919050565b611d3c81611d28565b82525050565b5f602082019050611d555f830184611d33565b92915050565b5f60208284031215611d7057611d6f611bfe565b5b5f611d7d84828501611c46565b91505092915050565b5f80fd5b5f601f19601f8301169050919050565b7f4e487b71000000000000000000000000000000000000000000000000000000005f52604160045260245ffd5b611dd082611d8a565b810181811067ffffffffffffffff82111715611def57611dee611d9a565b5b80604052505050565b5f611e01611bf5565b9050611e0d8282611dc7565b919050565b5f67ffffffffffffffff821115611e2c57611e2b611d9a565b5b602082029050602081019050919050565b5f80fd5b5f611e53611e4e84611e12565b611df8565b90508083825260208201905060208402830185811115611e7657611e75611e3d565b5b835b81811015611e9f5780611e8b8882611c1c565b845260208401935050602081019050611e78565b5050509392505050565b5f82601f830112611ebd57611ebc611d86565b5b8135611ecd848260208601611e41565b91505092915050565b5f8060408385031215611eec57611eeb611bfe565b5b5f611ef985828601611c46565b925050602083013567ffffffffffffffff811115611f1a57611f19611c02565b5b611f2685828601611ea9565b9150509250929050565b7f4e487b71000000000000000000000000000000000000000000000000000000005f52601160045260245ffd5b5f611f6782611b6c565b9150611f7283611b6c565b9250828203905081811115611f8a57611f89611f30565b5b92915050565b7f4e487b71000000000000000000000000000000000000000000000000000000005f52601260045260245ffd5b5f611fc782611b6c565b9150611fd283611b6c565b925082611fe257611fe1611f90565b5b828204905092915050565b5f611ff782611b6c565b915061200283611b6c565b925082820190508082111561201a57612019611f30565b5b92915050565b5f61202a82611b6c565b915061203583611b6c565b925082820261204381611b6c565b9150828204841483151761205a57612059611f30565b5b5092915050565b5f61206b82611b6c565b91507fffffffffffffffffffffffffffffffffffffffffffffffffffffffffffffffff820361209d5761209c611f30565b5b600182019050919050565b5f815190506120b681611c06565b92915050565b5f602082840312156120d1576120d0611bfe565b5b5f6120de848285016120a8565b91505092915050565b7f4e487b71000000000000000000000000000000000000000000000000000000005f52603260045260245ffd5b5f80fd5b5f80fd5b5f808585111561212f5761212e612114565b5b838611156121405761213f612118565b5b6001850283019150848603905094509492505050565b5f82905092915050565b5f7fffffffffffffffffffffffffffffffffffffffff00000000000000000000000082169050919050565b5f82821b905092915050565b5f6121a28383612156565b826121ad8135612160565b925060148210156121ed576121e87fffffffffffffffffffffffffffffffffffffffff0000000000000000000000008360140360080261218b565b831692505b505092915050565b5f6060820190506122085f830186611bcd565b6122156020830185611bcd565b6122226040830184611b75565b949350505050565b5f60408201905061223d5f830185611bcd565b61224a6020830184611b75565b9392505050565b61225a81611d28565b8114612264575f80fd5b50565b5f8151905061227581612251565b92915050565b5f602082840312156122905761228f611bfe565b5b5f61229d84828501612267565b91505092915050565b5f81519050919050565b5f81905092915050565b5f5b838110156122d75780820151818401526020810190506122bc565b5f8484015250505050565b5f6122ec826122a6565b6122f681856122b0565b93506123068185602086016122ba565b80840191505092915050565b5f61231d82846122e2565b91508190509291505056fea264697066735822122075d5e485304ba92e6fd94c437d8845d95989d8c18b4f0a0399ab83187535c58064736f6c6343000814003360e060405234801562000010575f80fd5b50604051620027a8380380620027a883398181016040528101906200003691906200039c565b81818181818073ffffffffffffffffffffffffffffffffffffffff1660808173ffffffffffffffffffffffffffffffffffffffff16815250505060015f819055508073ffffffffffffffffffffffffffffffffffffffff1660a08173ffffffffffffffffffffffffffffffffffffffff16815250508073ffffffffffffffffffffffffffffffffffffffff16631f8507166040518163ffffffff1660e01b8152600401602060405180830381865afa158015620000f5573d5f803e3d5ffd5b505050506040513d601f19601f820116820180604052508101906200011b9190620003e1565b73ffffffffffffffffffffffffffffffffffffffff1660c08173ffffffffffffffffffffffffffffffffffffffff168152505050505f8173ffffffffffffffffffffffffffffffffffffffff16631f8507166040518163ffffffff1660e01b8152600401602060405180830381865afa1580156200019b573d5f803e3d5ffd5b505050506040513d601f19601f82011682018060405250810190620001c19190620003e1565b90505f8173ffffffffffffffffffffffffffffffffffffffff1663fc0c546a6040518163ffffffff1660e01b8152600401602060405180830381865afa1580156200020e573d5f803e3d5ffd5b505050506040513d601f19601f82011682018060405250810190620002349190620003e1565b9050600681908060018154018082558091505060019003905f5260205f20015f9091909190916101000a81548173ffffffffffffffffffffffffffffffffffffffff021916908373ffffffffffffffffffffffffffffffffffffffff160217905550600160075f8373ffffffffffffffffffffffffffffffffffffffff1673ffffffffffffffffffffffffffffffffffffffff1681526020019081526020015f205f6101000a81548160ff0219169083151502179055508160015f6101000a81548173ffffffffffffffffffffffffffffffffffffffff021916908373ffffffffffffffffffffffffffffffffffffffff16021790555050505050505062000411565b5f80fd5b5f73ffffffffffffffffffffffffffffffffffffffff82169050919050565b5f62000366826200033b565b9050919050565b62000378816200035a565b811462000383575f80fd5b50565b5f8151905062000396816200036d565b92915050565b5f8060408385031215620003b557620003b462000337565b5b5f620003c48582860162000386565b9250506020620003d78582860162000386565b9150509250929050565b5f60208284031215620003f957620003f862000337565b5b5f620004088482850162000386565b91505092915050565b60805160a05160c051612357620004515f395f818161050b01528181611084015261115d01525f81816107c20152610d2c01525f6109b701526123575ff3fe608060405234801561000f575f80fd5b5060043610610156575f3560e01c806392777b29116100c1578063e8111a121161007a578063e8111a1214610415578063f25e55a514610433578063f301af4214610463578063f320772314610493578063f5f8d365146104af578063f7412baf146104cb57610156565b806392777b291461032f5780639cc7f7081461035f5780639e2bf22c1461038f578063a28d4c9c146103ab578063b66503cf146103db578063e6886396146103f757610156565b806349dcc2041161011357806349dcc204146102205780634d5ce038146102515780635058979314610281578063572b6c05146102b157806376f4be36146102e15780637da0a8771461031157610156565b806318160ddd1461015a5780631be05289146101785780631f850716146101965780633e491d47146101b4578063456cb7c6146101e457806346c96aac14610202575b5f80fd5b6101626104fc565b60405161016f9190611b7d565b60405180910390f35b610180610502565b60405161018d9190611b7d565b60405180910390f35b61019e610509565b6040516101ab9190611bd5565b60405180910390f35b6101ce60048036038101906101c99190611c53565b61052d565b6040516101db9190611b7d565b60405180910390f35b6101ec61079b565b6040516101f99190611bd5565b60405180910390f35b61020a6107c0565b6040516102179190611bd5565b60405180910390f35b61023a60048036038101906102359190611c91565b6107e4565b604051610248929190611ccf565b60405180910390f35b61026b60048036038101906102669190611cf6565b61080f565b6040516102789190611d3b565b60405180910390f35b61029b60048036038101906102969190611d54565b61082c565b6040516102a89190611b7d565b60405180910390f35b6102cb60048036038101906102c69190611cf6565b610841565b6040516102d89190611d3b565b60405180910390f35b6102fb60048036038101906102f69190611d54565b61087f565b6040516103089190611b7d565b60405180910390f35b6103196109b4565b6040516103269190611bd5565b60405180910390f35b61034960048036038101906103449190611c53565b6109db565b6040516103569190611b7d565b60405180910390f35b61037960048036038101906103749190611d54565b6109fb565b6040516103869190611b7d565b60405180910390f35b6103a960048036038101906103a49190611c91565b610a10565b005b6103c560048036038101906103c09190611c91565b610b57565b6040516103d29190611b7d565b60405180910390f35b6103f560048036038101906103f09190611c53565b610cc9565b005b6103ff610ec6565b60405161040c9190611b7d565b60405180910390f35b61041d610ed2565b60405161042a9190611b7d565b60405180910390f35b61044d60048036038101906104489190611c53565b610ed8565b60405161045a9190611b7d565b60405180910390f35b61047d60048036038101906104789190611d54565b610ef8565b60405161048a9190611bd5565b60405180910390f35b6104ad60048036038101906104a89190611c91565b610f33565b005b6104c960048036038101906104c49190611ecf565b61107a565b005b6104e560048036038101906104e09190611d54565b61120d565b6040516104f3929190611ccf565b60405180910390f35b60025481565b62093a8081565b7f000000000000000000000000000000000000000000000000000000000000000081565b5f8060095f8481526020019081526020015f20540361054e575f9050610795565b5f80600190505f6105aa60055f8873ffffffffffffffffffffffffffffffffffffffff1673ffffffffffffffffffffffffffffffffffffffff1681526020019081526020015f205f8781526020019081526020015f205461122d565b90505f6105b78683610b57565b90505f60085f8881526020019081526020015f205f8381526020019081526020015f206040518060400160405290815f8201548152602001600182015481525050905061060f8361060a835f015161122d565b61124b565b92505f62093a80846106204261122d565b61062a9190611f56565b6106349190611fb6565b90505f81111561078b575f5b818110156107895761066c89600162093a808861065d9190611fe6565b6106679190611f56565b610b57565b935060085f8a81526020019081526020015f205f8581526020019081526020015f206040518060400160405290815f820154815260200160018201548152505092506106ef600a5f6106d7600162093a808a6106c89190611fe6565b6106d29190611f56565b61087f565b81526020019081526020015f2060010154600161124b565b95508560045f8c73ffffffffffffffffffffffffffffffffffffffff1673ffffffffffffffffffffffffffffffffffffffff1681526020019081526020015f205f8781526020019081526020015f2054846020015161074e9190612019565b6107589190611fb6565b876107639190611fe6565b965062093a80856107749190611fe6565b945080806107819061205a565b915050610640565b505b8596505050505050505b92915050565b60015f9054906101000a900473ffffffffffffffffffffffffffffffffffffffff1681565b7f000000000000000000000000000000000000000000000000000000000000000081565b6008602052815f5260405f20602052805f5260405f205f9150915050805f0154908060010154905082565b6007602052805f5260405f205f915054906101000a900460ff1681565b6009602052805f5260405f205f915090505481565b5f61084a6109b4565b73ffffffffffffffffffffffffffffffffffffffff168273ffffffffffffffffffffffffffffffffffffffff16149050919050565b5f80600b5490505f8103610896575f9150506109af565b82600a5f6001846108a79190611f56565b81526020019081526020015f205f0154116108d1576001816108c99190611f56565b9150506109af565b82600a5f8081526020019081526020015f205f015411156108f5575f9150506109af565b5f806001836109049190611f56565b90505b818111156109a8575f6002838361091e9190611f56565b6109289190611fb6565b826109339190611f56565b90505f600a5f8381526020019081526020015f206040518060400160405290815f8201548152602001600182015481525050905086815f01510361097e5781955050505050506109af565b86815f01511015610991578193506109a1565b60018261099e9190611f56565b92505b5050610907565b8193505050505b919050565b5f7f0000000000000000000000000000000000000000000000000000000000000000905090565b6004602052815f5260405f20602052805f5260405f205f91509150505481565b6003602052805f5260405f205f915090505481565b5f610a19611263565b905060015f9054906101000a900473ffffffffffffffffffffffffffffffffffffffff1673ffffffffffffffffffffffffffffffffffffffff168173ffffffffffffffffffffffffffffffffffffffff1614610aa1576040517fea8e4eb500000000000000000000000000000000000000000000000000000000815260040160405180910390fd5b8260025f828254610ab29190611f56565b925050819055508260035f8481526020019081526020015f205f828254610ad99190611f56565b92505081905550610afb8260035f8581526020019081526020015f20546112d4565b610b0361140c565b818173ffffffffffffffffffffffffffffffffffffffff167ff279e6a1f5e320cca91135676d9cb6e44ca8a08c0b88342bcdb1144f6511b56885604051610b4a9190611b7d565b60405180910390a3505050565b5f8060095f8581526020019081526020015f205490505f8103610b7d575f915050610cc3565b8260085f8681526020019081526020015f205f600184610b9d9190611f56565b81526020019081526020015f205f015411610bc757600181610bbf9190611f56565b915050610cc3565b8260085f8681526020019081526020015f205f8081526020019081526020015f205f01541115610bfa575f915050610cc3565b5f80600183610c099190611f56565b90505b81811115610cbc575f60028383610c239190611f56565b610c2d9190611fb6565b82610c389190611f56565b90505f60085f8981526020019081526020015f205f8381526020019081526020015f206040518060400160405290815f8201548152602001600182015481525050905086815f015103610c92578195505050505050610cc3565b86815f01511015610ca557819350610cb5565b600182610cb29190611f56565b92505b5050610c0c565b8193505050505b92915050565b610cd16114fb565b5f610cda611263565b905060075f8473ffffffffffffffffffffffffffffffffffffffff1673ffffffffffffffffffffffffffffffffffffffff1681526020019081526020015f205f9054906101000a900460ff16610eae577f000000000000000000000000000000000000000000000000000000000000000073ffffffffffffffffffffffffffffffffffffffff1663ab37f486846040518263ffffffff1660e01b8152600401610d839190611bd5565b602060405180830381865afa158015610d9e573d5f803e3d5ffd5b505050506040513d601f19601f82011682018060405250810190610dc291906120cb565b610df8576040517f584a793800000000000000000000000000000000000000000000000000000000815260040160405180910390fd5b600160075f8573ffffffffffffffffffffffffffffffffffffffff1673ffffffffffffffffffffffffffffffffffffffff1681526020019081526020015f205f6101000a81548160ff021916908315150217905550600683908060018154018082558091505060019003905f5260205f20015f9091909190916101000a81548173ffffffffffffffffffffffffffffffffffffffff021916908373ffffffffffffffffffffffffffffffffffffffff1602179055505b610eb981848461153f565b50610ec261167f565b5050565b5f600680549050905090565b600b5481565b6005602052815f5260405f20602052805f5260405f205f91509150505481565b60068181548110610f07575f80fd5b905f5260205f20015f915054906101000a900473ffffffffffffffffffffffffffffffffffffffff1681565b5f610f3c611263565b905060015f9054906101000a900473ffffffffffffffffffffffffffffffffffffffff1673ffffffffffffffffffffffffffffffffffffffff168173ffffffffffffffffffffffffffffffffffffffff1614610fc4576040517fea8e4eb500000000000000000000000000000000000000000000000000000000815260040160405180910390fd5b8260025f828254610fd59190611fe6565b925050819055508260035f8481526020019081526020015f205f828254610ffc9190611fe6565b9250508190555061101e8260035f8581526020019081526020015f20546112d4565b61102661140c565b818173ffffffffffffffffffffffffffffffffffffffff167f90890809c654f11d6e72a28fa60149770a0d11ec6c92319d6ceb2bb0a4ea1a158560405161106d9190611b7d565b60405180910390a3505050565b6110826114fb565b7f000000000000000000000000000000000000000000000000000000000000000073ffffffffffffffffffffffffffffffffffffffff1663430c20816110c6611263565b846040518363ffffffff1660e01b81526004016110e49291906120f6565b6020604051808303815f875af1158015611100573d5f803e3d5ffd5b505050506040513d601f19601f8201168201806040525081019061112491906120cb565b61115a576040517fea8e4eb500000000000000000000000000000000000000000000000000000000815260040160405180910390fd5b5f7f000000000000000000000000000000000000000000000000000000000000000073ffffffffffffffffffffffffffffffffffffffff16636352211e846040518263ffffffff1660e01b81526004016111b49190611b7d565b602060405180830381865afa1580156111cf573d5f803e3d5ffd5b505050506040513d601f19601f820116820180604052508101906111f39190612131565b9050611200818484611688565b5061120961167f565b5050565b600a602052805f5260405f205f91509050805f0154908060010154905082565b5f62093a80828161124157611240611f89565b5b0682039050919050565b5f818311611259578161125b565b825b905092915050565b5f805f36905090505f611274611811565b905061127f33610841565b801561128b5750808210155b156112c4575f36828461129e9190611f56565b9080926112ad93929190612164565b906112b891906121df565b60601c925050506112d1565b6112cc611819565b925050505b90565b5f60095f8481526020019081526020015f205490505f4290505f8211801561133957506113008161122d565b61133760085f8781526020019081526020015f205f6001866113229190611f56565b81526020019081526020015f205f015461122d565b145b156113995760405180604001604052808281526020018481525060085f8681526020019081526020015f205f6001856113729190611f56565b81526020019081526020015f205f820151815f015560208201518160010155905050611406565b60405180604001604052808281526020018481525060085f8681526020019081526020015f205f8481526020019081526020015f205f820151815f0155602082015181600101559050506001826113f09190611fe6565b60095f8681526020019081526020015f20819055505b50505050565b5f600b5490505f4290505f8211801561145357506114298161122d565b611451600a5f60018661143c9190611f56565b81526020019081526020015f205f015461122d565b145b156114a6576040518060400160405280828152602001600254815250600a5f60018561147f9190611f56565b81526020019081526020015f205f820151815f0155602082015181600101559050506114f7565b6040518060400160405280828152602001600254815250600a5f8481526020019081526020015f205f820151815f0155602082015181600101559050506001826114f09190611fe6565b600b819055505b5050565b60025f5403611536576040517f3ee5aeb500000000000000000000000000000000000000000000000000000000815260040160405180910390fd5b60025f81905550565b5f8103611578576040517f1f2a200500000000000000000000000000000000000000000000000000000000815260040160405180910390fd5b6115a58330838573ffffffffffffffffffffffffffffffffffffffff16611820909392919063ffffffff16565b5f6115af4261122d565b90508160045f8573ffffffffffffffffffffffffffffffffffffffff1673ffffffffffffffffffffffffffffffffffffffff1681526020019081526020015f205f8381526020019081526020015f205f82825461160c9190611fe6565b92505081905550808373ffffffffffffffffffffffffffffffffffffffff168573ffffffffffffffffffffffffffffffffffffffff167f52977ea98a2220a03ee9ba5cb003ada08d394ea10155483c95dc2dc77a7eb24b856040516116719190611b7d565b60405180910390a450505050565b60015f81905550565b5f815190505f5b8181101561180a575f6116bc8483815181106116ae576116ad61223d565b5b60200260200101518661052d565b90504260055f8685815181106116d5576116d461223d565b5b602002602001015173ffffffffffffffffffffffffffffffffffffffff1673ffffffffffffffffffffffffffffffffffffffff1681526020019081526020015f205f8781526020019081526020015f20819055505f8111156117775761177686828685815181106117495761174861223d565b5b602002602001015173ffffffffffffffffffffffffffffffffffffffff166118a29092919063ffffffff16565b5b83828151811061178a5761178961223d565b5b602002602001015173ffffffffffffffffffffffffffffffffffffffff168673ffffffffffffffffffffffffffffffffffffffff167f9aa05b3d70a9e3e2f004f039648839560576334fb45c81f91b6db03ad9e2efc9836040516117ee9190611b7d565b60405180910390a35080806118029061205a565b91505061168f565b5050505050565b5f6014905090565b5f33905090565b61189c848573ffffffffffffffffffffffffffffffffffffffff166323b872dd8686866040516024016118559392919061226a565b604051602081830303815290604052915060e01b6020820180517bffffffffffffffffffffffffffffffffffffffffffffffffffffffff8381831617835250505050611921565b50505050565b61191c838473ffffffffffffffffffffffffffffffffffffffff1663a9059cbb85856040516024016118d59291906120f6565b604051602081830303815290604052915060e01b6020820180517bffffffffffffffffffffffffffffffffffffffffffffffffffffffff8381831617835250505050611921565b505050565b5f61194b828473ffffffffffffffffffffffffffffffffffffffff166119b690919063ffffffff16565b90505f81511415801561196f57508080602001905181019061196d91906120cb565b155b156119b157826040517f5274afe70000000000000000000000000000000000000000000000000000000081526004016119a89190611bd5565b60405180910390fd5b505050565b60606119c383835f6119cb565b905092915050565b606081471015611a1257306040517fcd786059000000000000000000000000000000000000000000000000000000008152600401611a099190611bd5565b60405180910390fd5b5f808573ffffffffffffffffffffffffffffffffffffffff168486604051611a3a919061230b565b5f6040518083038185875af1925050503d805f8114611a74576040519150601f19603f3d011682016040523d82523d5f602084013e611a79565b606091505b5091509150611a89868383611a94565b925050509392505050565b606082611aa957611aa482611b21565b611b19565b5f8251148015611acf57505f8473ffffffffffffffffffffffffffffffffffffffff163b145b15611b1157836040517f9996b315000000000000000000000000000000000000000000000000000000008152600401611b089190611bd5565b60405180910390fd5b819050611b1a565b5b9392505050565b5f81511115611b335780518082602001fd5b6040517f1425ea4200000000000000000000000000000000000000000000000000000000815260040160405180910390fd5b5f819050919050565b611b7781611b65565b82525050565b5f602082019050611b905f830184611b6e565b92915050565b5f73ffffffffffffffffffffffffffffffffffffffff82169050919050565b5f611bbf82611b96565b9050919050565b611bcf81611bb5565b82525050565b5f602082019050611be85f830184611bc6565b92915050565b5f604051905090565b5f80fd5b5f80fd5b611c0881611bb5565b8114611c12575f80fd5b50565b5f81359050611c2381611bff565b92915050565b611c3281611b65565b8114611c3c575f80fd5b50565b5f81359050611c4d81611c29565b92915050565b5f8060408385031215611c6957611c68611bf7565b5b5f611c7685828601611c15565b9250506020611c8785828601611c3f565b9150509250929050565b5f8060408385031215611ca757611ca6611bf7565b5b5f611cb485828601611c3f565b9250506020611cc585828601611c3f565b9150509250929050565b5f604082019050611ce25f830185611b6e565b611cef6020830184611b6e565b9392505050565b5f60208284031215611d0b57611d0a611bf7565b5b5f611d1884828501611c15565b91505092915050565b5f8115159050919050565b611d3581611d21565b82525050565b5f602082019050611d4e5f830184611d2c565b92915050565b5f60208284031215611d6957611d68611bf7565b5b5f611d7684828501611c3f565b91505092915050565b5f80fd5b5f601f19601f8301169050919050565b7f4e487b71000000000000000000000000000000000000000000000000000000005f52604160045260245ffd5b611dc982611d83565b810181811067ffffffffffffffff82111715611de857611de7611d93565b5b80604052505050565b5f611dfa611bee565b9050611e068282611dc0565b919050565b5f67ffffffffffffffff821115611e2557611e24611d93565b5b602082029050602081019050919050565b5f80fd5b5f611e4c611e4784611e0b565b611df1565b90508083825260208201905060208402830185811115611e6f57611e6e611e36565b5b835b81811015611e985780611e848882611c15565b845260208401935050602081019050611e71565b5050509392505050565b5f82601f830112611eb657611eb5611d7f565b5b8135611ec6848260208601611e3a565b91505092915050565b5f8060408385031215611ee557611ee4611bf7565b5b5f611ef285828601611c3f565b925050602083013567ffffffffffffffff811115611f1357611f12611bfb565b5b611f1f85828601611ea2565b9150509250929050565b7f4e487b71000000000000000000000000000000000000000000000000000000005f52601160045260245ffd5b5f611f6082611b65565b9150611f6b83611b65565b9250828203905081811115611f8357611f82611f29565b5b92915050565b7f4e487b71000000000000000000000000000000000000000000000000000000005f52601260045260245ffd5b5f611fc082611b65565b9150611fcb83611b65565b925082611fdb57611fda611f89565b5b828204905092915050565b5f611ff082611b65565b9150611ffb83611b65565b925082820190508082111561201357612012611f29565b5b92915050565b5f61202382611b65565b915061202e83611b65565b925082820261203c81611b65565b9150828204841483151761205357612052611f29565b5b5092915050565b5f61206482611b65565b91507fffffffffffffffffffffffffffffffffffffffffffffffffffffffffffffffff820361209657612095611f29565b5b600182019050919050565b6120aa81611d21565b81146120b4575f80fd5b50565b5f815190506120c5816120a1565b92915050565b5f602082840312156120e0576120df611bf7565b5b5f6120ed848285016120b7565b91505092915050565b5f6040820190506121095f830185611bc6565b6121166020830184611b6e565b9392505050565b5f8151905061212b81611bff565b92915050565b5f6020828403121561214657612145611bf7565b5b5f6121538482850161211d565b91505092915050565b5f80fd5b5f80fd5b5f80858511156121775761217661215c565b5b8386111561218857612187612160565b5b6001850283019150848603905094509492505050565b5f82905092915050565b5f7fffffffffffffffffffffffffffffffffffffffff00000000000000000000000082169050919050565b5f82821b905092915050565b5f6121ea838361219e565b826121f581356121a8565b92506014821015612235576122307fffffffffffffffffffffffffffffffffffffffff000000000000000000000000836014036008026121d3565b831692505b505092915050565b7f4e487b71000000000000000000000000000000000000000000000000000000005f52603260045260245ffd5b5f60608201905061227d5f830186611bc6565b61228a6020830185611bc6565b6122976040830184611b6e565b949350505050565b5f81519050919050565b5f81905092915050565b5f5b838110156122d05780820151818401526020810190506122b5565b5f8484015250505050565b5f6122e58261229f565b6122ef81856122a9565b93506122ff8185602086016122b3565b80840191505092915050565b5f61231682846122db565b91508190509291505056fea26469706673582212202234d71bcba309dce7d8b4562f65e4d79836e0b440dc99aacaedbd7b50c03d1d64736f6c63430008140033a2646970667358221220ae0fcffecc41b0d2ad72d9f1d12e9a04908be57d3dfe8b4abe8370eabcd153d064736f6c63430008140033",
			"opcodes": "PUSH1 0x80 PUSH1 0x40 MSTORE CALLVALUE DUP1 ISZERO PUSH2 0xF JUMPI PUSH0 DUP1 REVERT JUMPDEST POP PUSH2 0x51C2 DUP1 PUSH2 0x1D PUSH0 CODECOPY PUSH0 RETURN INVALID PUSH1 0x80 PUSH1 0x40 MSTORE CALLVALUE DUP1 ISZERO PUSH2 0xF JUMPI PUSH0 DUP1 REVERT JUMPDEST POP PUSH1 0x4 CALLDATASIZE LT PUSH2 0x29 JUMPI PUSH0 CALLDATALOAD PUSH1 0xE0 SHR DUP1 PUSH4 0xDABC8E83 EQ PUSH2 0x2D JUMPI JUMPDEST PUSH0 DUP1 REVERT JUMPDEST PUSH2 0x47 PUSH1 0x4 DUP1 CALLDATASIZE SUB DUP2 ADD SWAP1 PUSH2 0x42 SWAP2 SWAP1 PUSH2 0x1BA JUMP JUMPDEST PUSH2 0x5E JUMP JUMPDEST PUSH1 0x40 MLOAD PUSH2 0x55 SWAP3 SWAP2 SWAP1 PUSH2 0x207 JUMP JUMPDEST PUSH1 0x40 MLOAD DUP1 SWAP2 SUB SWAP1 RETURN JUMPDEST PUSH0 DUP1 DUP4 DUP4 PUSH1 0x40 MLOAD PUSH2 0x6E SWAP1 PUSH2 0x142 JUMP JUMPDEST PUSH2 0x79 SWAP3 SWAP2 SWAP1 PUSH2 0x207 JUMP JUMPDEST PUSH1 0x40 MLOAD DUP1 SWAP2 SUB SWAP1 PUSH0 CREATE DUP1 ISZERO DUP1 ISZERO PUSH2 0x92 JUMPI RETURNDATASIZE PUSH0 DUP1 RETURNDATACOPY RETURNDATASIZE PUSH0 REVERT JUMPDEST POP SWAP2 POP DUP4 DUP4 PUSH1 0x40 MLOAD PUSH2 0xA3 SWAP1 PUSH2 0x14F JUMP JUMPDEST PUSH2 0xAE SWAP3 SWAP2 SWAP1 PUSH2 0x207 JUMP JUMPDEST PUSH1 0x40 MLOAD DUP1 SWAP2 SUB SWAP1 PUSH0 CREATE DUP1 ISZERO DUP1 ISZERO PUSH2 0xC7 JUMPI RETURNDATASIZE PUSH0 DUP1 RETURNDATACOPY RETURNDATASIZE PUSH0 REVERT JUMPDEST POP SWAP1 POP DUP1 PUSH20 0xFFFFFFFFFFFFFFFFFFFFFFFFFFFFFFFFFFFFFFFF AND DUP3 PUSH20 0xFFFFFFFFFFFFFFFFFFFFFFFFFFFFFFFFFFFFFFFF AND DUP5 PUSH20 0xFFFFFFFFFFFFFFFFFFFFFFFFFFFFFFFFFFFFFFFF AND PUSH32 0x951F6F2FFC705EFC870B0C6023FB94C7EDECE24C87077884B6D08A5CD44E6AA7 PUSH1 0x40 MLOAD PUSH1 0x40 MLOAD DUP1 SWAP2 SUB SWAP1 LOG4 SWAP3 POP SWAP3 SWAP1 POP JUMP JUMPDEST PUSH2 0x27B6 DUP1 PUSH2 0x22F DUP4 CODECOPY ADD SWAP1 JUMP JUMPDEST PUSH2 0x27A8 DUP1 PUSH2 0x29E5 DUP4 CODECOPY ADD SWAP1 JUMP JUMPDEST PUSH0 DUP1 REVERT JUMPDEST PUSH0 PUSH20 0xFFFFFFFFFFFFFFFFFFFFFFFFFFFFFFFFFFFFFFFF DUP3 AND SWAP1 POP SWAP2 SWAP1 POP JUMP JUMPDEST PUSH0 PUSH2 0x189 DUP3 PUSH2 0x160 JUMP JUMPDEST SWAP1 POP SWAP2 SWAP1 POP JUMP JUMPDEST PUSH2 0x199 DUP2 PUSH2 0x17F JUMP JUMPDEST DUP2 EQ PUSH2 0x1A3 JUMPI PUSH0 DUP1 REVERT JUMPDEST POP JUMP JUMPDEST PUSH0 DUP2 CALLDATALOAD SWAP1 POP PUSH2 0x1B4 DUP2 PUSH2 0x190 JUMP JUMPDEST SWAP3 SWAP2 POP POP JUMP JUMPDEST PUSH0 DUP1 PUSH1 0x40 DUP4 DUP6 SUB SLT ISZERO PUSH2 0x1D0 JUMPI PUSH2 0x1CF PUSH2 0x15C JUMP JUMPDEST JUMPDEST PUSH0 PUSH2 0x1DD DUP6 DUP3 DUP7 ADD PUSH2 0x1A6 JUMP JUMPDEST SWAP3 POP POP PUSH1 0x20 PUSH2 0x1EE DUP6 DUP3 DUP7 ADD PUSH2 0x1A6 JUMP JUMPDEST SWAP2 POP POP SWAP3 POP SWAP3 SWAP1 POP JUMP JUMPDEST PUSH2 0x201 DUP2 PUSH2 0x17F JUMP JUMPDEST DUP3 MSTORE POP POP JUMP JUMPDEST PUSH0 PUSH1 0x40 DUP3 ADD SWAP1 POP PUSH2 0x21A PUSH0 DUP4 ADD DUP6 PUSH2 0x1F8 JUMP JUMPDEST PUSH2 0x227 PUSH1 0x20 DUP4 ADD DUP5 PUSH2 0x1F8 JUMP JUMPDEST SWAP4 SWAP3 POP POP POP JUMP INVALID PUSH1 0xE0 PUSH1 0x40 MSTORE CALLVALUE DUP1 ISZERO PUSH3 0x10 JUMPI PUSH0 DUP1 REVERT JUMPDEST POP PUSH1 0x40 MLOAD PUSH3 0x27B6 CODESIZE SUB DUP1 PUSH3 0x27B6 DUP4 CODECOPY DUP2 DUP2 ADD PUSH1 0x40 MSTORE DUP2 ADD SWAP1 PUSH3 0x36 SWAP2 SWAP1 PUSH3 0x39C JUMP JUMPDEST DUP2 DUP2 DUP2 DUP2 DUP2 DUP1 PUSH20 0xFFFFFFFFFFFFFFFFFFFFFFFFFFFFFFFFFFFFFFFF AND PUSH1 0x80 DUP2 PUSH20 0xFFFFFFFFFFFFFFFFFFFFFFFFFFFFFFFFFFFFFFFF AND DUP2 MSTORE POP POP POP PUSH1 0x1 PUSH0 DUP2 SWAP1 SSTORE POP DUP1 PUSH20 0xFFFFFFFFFFFFFFFFFFFFFFFFFFFFFFFFFFFFFFFF AND PUSH1 0xA0 DUP2 PUSH20 0xFFFFFFFFFFFFFFFFFFFFFFFFFFFFFFFFFFFFFFFF AND DUP2 MSTORE POP POP DUP1 PUSH20 0xFFFFFFFFFFFFFFFFFFFFFFFFFFFFFFFFFFFFFFFF AND PUSH4 0x1F850716 PUSH1 0x40 MLOAD DUP2 PUSH4 0xFFFFFFFF AND PUSH1 0xE0 SHL DUP2 MSTORE PUSH1 0x4 ADD PUSH1 0x20 PUSH1 0x40 MLOAD DUP1 DUP4 SUB DUP2 DUP7 GAS STATICCALL ISZERO DUP1 ISZERO PUSH3 0xF5 JUMPI RETURNDATASIZE PUSH0 DUP1 RETURNDATACOPY RETURNDATASIZE PUSH0 REVERT JUMPDEST POP POP POP POP PUSH1 0x40 MLOAD RETURNDATASIZE PUSH1 0x1F NOT PUSH1 0x1F DUP3 ADD AND DUP3 ADD DUP1 PUSH1 0x40 MSTORE POP DUP2 ADD SWAP1 PUSH3 0x11B SWAP2 SWAP1 PUSH3 0x3E1 JUMP JUMPDEST PUSH20 0xFFFFFFFFFFFFFFFFFFFFFFFFFFFFFFFFFFFFFFFF AND PUSH1 0xC0 DUP2 PUSH20 0xFFFFFFFFFFFFFFFFFFFFFFFFFFFFFFFFFFFFFFFF AND DUP2 MSTORE POP POP POP POP PUSH0 DUP2 PUSH20 0xFFFFFFFFFFFFFFFFFFFFFFFFFFFFFFFFFFFFFFFF AND PUSH4 0x1F850716 PUSH1 0x40 MLOAD DUP2 PUSH4 0xFFFFFFFF AND PUSH1 0xE0 SHL DUP2 MSTORE PUSH1 0x4 ADD PUSH1 0x20 PUSH1 0x40 MLOAD DUP1 DUP4 SUB DUP2 DUP7 GAS STATICCALL ISZERO DUP1 ISZERO PUSH3 0x19B JUMPI RETURNDATASIZE PUSH0 DUP1 RETURNDATACOPY RETURNDATASIZE PUSH0 REVERT JUMPDEST POP POP POP POP PUSH1 0x40 MLOAD RETURNDATASIZE PUSH1 0x1F NOT PUSH1 0x1F DUP3 ADD AND DUP3 ADD DUP1 PUSH1 0x40 MSTORE POP DUP2 ADD SWAP1 PUSH3 0x1C1 SWAP2 SWAP1 PUSH3 0x3E1 JUMP JUMPDEST SWAP1 POP PUSH0 DUP2 PUSH20 0xFFFFFFFFFFFFFFFFFFFFFFFFFFFFFFFFFFFFFFFF AND PUSH4 0xFC0C546A PUSH1 0x40 MLOAD DUP2 PUSH4 0xFFFFFFFF AND PUSH1 0xE0 SHL DUP2 MSTORE PUSH1 0x4 ADD PUSH1 0x20 PUSH1 0x40 MLOAD DUP1 DUP4 SUB DUP2 DUP7 GAS STATICCALL ISZERO DUP1 ISZERO PUSH3 0x20E JUMPI RETURNDATASIZE PUSH0 DUP1 RETURNDATACOPY RETURNDATASIZE PUSH0 REVERT JUMPDEST POP POP POP POP PUSH1 0x40 MLOAD RETURNDATASIZE PUSH1 0x1F NOT PUSH1 0x1F DUP3 ADD AND DUP3 ADD DUP1 PUSH1 0x40 MSTORE POP DUP2 ADD SWAP1 PUSH3 0x234 SWAP2 SWAP1 PUSH3 0x3E1 JUMP JUMPDEST SWAP1 POP PUSH1 0x6 DUP2 SWAP1 DUP1 PUSH1 0x1 DUP2 SLOAD ADD DUP1 DUP3 SSTORE DUP1 SWAP2 POP POP PUSH1 0x1 SWAP1 SUB SWAP1 PUSH0 MSTORE PUSH1 0x20 PUSH0 KECCAK256 ADD PUSH0 SWAP1 SWAP2 SWAP1 SWAP2 SWAP1 SWAP2 PUSH2 0x100 EXP DUP2 SLOAD DUP2 PUSH20 0xFFFFFFFFFFFFFFFFFFFFFFFFFFFFFFFFFFFFFFFF MUL NOT AND SWAP1 DUP4 PUSH20 0xFFFFFFFFFFFFFFFFFFFFFFFFFFFFFFFFFFFFFFFF AND MUL OR SWAP1 SSTORE POP PUSH1 0x1 PUSH1 0x7 PUSH0 DUP4 PUSH20 0xFFFFFFFFFFFFFFFFFFFFFFFFFFFFFFFFFFFFFFFF AND PUSH20 0xFFFFFFFFFFFFFFFFFFFFFFFFFFFFFFFFFFFFFFFF AND DUP2 MSTORE PUSH1 0x20 ADD SWAP1 DUP2 MSTORE PUSH1 0x20 ADD PUSH0 KECCAK256 PUSH0 PUSH2 0x100 EXP DUP2 SLOAD DUP2 PUSH1 0xFF MUL NOT AND SWAP1 DUP4 ISZERO ISZERO MUL OR SWAP1 SSTORE POP DUP2 PUSH1 0x1 PUSH0 PUSH2 0x100 EXP DUP2 SLOAD DUP2 PUSH20 0xFFFFFFFFFFFFFFFFFFFFFFFFFFFFFFFFFFFFFFFF MUL NOT AND SWAP1 DUP4 PUSH20 0xFFFFFFFFFFFFFFFFFFFFFFFFFFFFFFFFFFFFFFFF AND MUL OR SWAP1 SSTORE POP POP POP POP POP POP POP PUSH3 0x411 JUMP JUMPDEST PUSH0 DUP1 REVERT JUMPDEST PUSH0 PUSH20 0xFFFFFFFFFFFFFFFFFFFFFFFFFFFFFFFFFFFFFFFF DUP3 AND SWAP1 POP SWAP2 SWAP1 POP JUMP JUMPDEST PUSH0 PUSH3 0x366 DUP3 PUSH3 0x33B JUMP JUMPDEST SWAP1 POP SWAP2 SWAP1 POP JUMP JUMPDEST PUSH3 0x378 DUP2 PUSH3 0x35A JUMP JUMPDEST DUP2 EQ PUSH3 0x383 JUMPI PUSH0 DUP1 REVERT JUMPDEST POP JUMP JUMPDEST PUSH0 DUP2 MLOAD SWAP1 POP PUSH3 0x396 DUP2 PUSH3 0x36D JUMP JUMPDEST SWAP3 SWAP2 POP POP JUMP JUMPDEST PUSH0 DUP1 PUSH1 0x40 DUP4 DUP6 SUB SLT ISZERO PUSH3 0x3B5 JUMPI PUSH3 0x3B4 PUSH3 0x337 JUMP JUMPDEST JUMPDEST PUSH0 PUSH3 0x3C4 DUP6 DUP3 DUP7 ADD PUSH3 0x386 JUMP JUMPDEST SWAP3 POP POP PUSH1 0x20 PUSH3 0x3D7 DUP6 DUP3 DUP7 ADD PUSH3 0x386 JUMP JUMPDEST SWAP2 POP POP SWAP3 POP SWAP3 SWAP1 POP JUMP JUMPDEST PUSH0 PUSH1 0x20 DUP3 DUP5 SUB SLT ISZERO PUSH3 0x3F9 JUMPI PUSH3 0x3F8 PUSH3 0x337 JUMP JUMPDEST JUMPDEST PUSH0 PUSH3 0x408 DUP5 DUP3 DUP6 ADD PUSH3 0x386 JUMP JUMPDEST SWAP2 POP POP SWAP3 SWAP2 POP POP JUMP JUMPDEST PUSH1 0x80 MLOAD PUSH1 0xA0 MLOAD PUSH1 0xC0 MLOAD PUSH2 0x235E PUSH3 0x458 PUSH0 CODECOPY PUSH0 DUP2 DUP2 PUSH2 0x50B ADD MSTORE DUP2 DUP2 PUSH2 0xCDE ADD MSTORE DUP2 DUP2 PUSH2 0xD63 ADD MSTORE DUP2 DUP2 PUSH2 0x1033 ADD MSTORE PUSH2 0x10F3 ADD MSTORE PUSH0 PUSH2 0x7C2 ADD MSTORE PUSH0 PUSH2 0x9B7 ADD MSTORE PUSH2 0x235E PUSH0 RETURN INVALID PUSH1 0x80 PUSH1 0x40 MSTORE CALLVALUE DUP1 ISZERO PUSH2 0xF JUMPI PUSH0 DUP1 REVERT JUMPDEST POP PUSH1 0x4 CALLDATASIZE LT PUSH2 0x156 JUMPI PUSH0 CALLDATALOAD PUSH1 0xE0 SHR DUP1 PUSH4 0x92777B29 GT PUSH2 0xC1 JUMPI DUP1 PUSH4 0xE8111A12 GT PUSH2 0x7A JUMPI DUP1 PUSH4 0xE8111A12 EQ PUSH2 0x415 JUMPI DUP1 PUSH4 0xF25E55A5 EQ PUSH2 0x433 JUMPI DUP1 PUSH4 0xF301AF42 EQ PUSH2 0x463 JUMPI DUP1 PUSH4 0xF3207723 EQ PUSH2 0x493 JUMPI DUP1 PUSH4 0xF5F8D365 EQ PUSH2 0x4AF JUMPI DUP1 PUSH4 0xF7412BAF EQ PUSH2 0x4CB JUMPI PUSH2 0x156 JUMP JUMPDEST DUP1 PUSH4 0x92777B29 EQ PUSH2 0x32F JUMPI DUP1 PUSH4 0x9CC7F708 EQ PUSH2 0x35F JUMPI DUP1 PUSH4 0x9E2BF22C EQ PUSH2 0x38F JUMPI DUP1 PUSH4 0xA28D4C9C EQ PUSH2 0x3AB JUMPI DUP1 PUSH4 0xB66503CF EQ PUSH2 0x3DB JUMPI DUP1 PUSH4 0xE6886396 EQ PUSH2 0x3F7 JUMPI PUSH2 0x156 JUMP JUMPDEST DUP1 PUSH4 0x49DCC204 GT PUSH2 0x113 JUMPI DUP1 PUSH4 0x49DCC204 EQ PUSH2 0x220 JUMPI DUP1 PUSH4 0x4D5CE038 EQ PUSH2 0x251 JUMPI DUP1 PUSH4 0x50589793 EQ PUSH2 0x281 JUMPI DUP1 PUSH4 0x572B6C05 EQ PUSH2 0x2B1 JUMPI DUP1 PUSH4 0x76F4BE36 EQ PUSH2 0x2E1 JUMPI DUP1 PUSH4 0x7DA0A877 EQ PUSH2 0x311 JUMPI PUSH2 0x156 JUMP JUMPDEST DUP1 PUSH4 0x18160DDD EQ PUSH2 0x15A JUMPI DUP1 PUSH4 0x1BE05289 EQ PUSH2 0x178 JUMPI DUP1 PUSH4 0x1F850716 EQ PUSH2 0x196 JUMPI DUP1 PUSH4 0x3E491D47 EQ PUSH2 0x1B4 JUMPI DUP1 PUSH4 0x456CB7C6 EQ PUSH2 0x1E4 JUMPI DUP1 PUSH4 0x46C96AAC EQ PUSH2 0x202 JUMPI JUMPDEST PUSH0 DUP1 REVERT JUMPDEST PUSH2 0x162 PUSH2 0x4FC JUMP JUMPDEST PUSH1 0x40 MLOAD PUSH2 0x16F SWAP2 SWAP1 PUSH2 0x1B84 JUMP JUMPDEST PUSH1 0x40 MLOAD DUP1 SWAP2 SUB SWAP1 RETURN JUMPDEST PUSH2 0x180 PUSH2 0x502 JUMP JUMPDEST PUSH1 0x40 MLOAD PUSH2 0x18D SWAP2 SWAP1 PUSH2 0x1B84 JUMP JUMPDEST PUSH1 0x40 MLOAD DUP1 SWAP2 SUB SWAP1 RETURN JUMPDEST PUSH2 0x19E PUSH2 0x509 JUMP JUMPDEST PUSH1 0x40 MLOAD PUSH2 0x1AB SWAP2 SWAP1 PUSH2 0x1BDC JUMP JUMPDEST PUSH1 0x40 MLOAD DUP1 SWAP2 SUB SWAP1 RETURN JUMPDEST PUSH2 0x1CE PUSH1 0x4 DUP1 CALLDATASIZE SUB DUP2 ADD SWAP1 PUSH2 0x1C9 SWAP2 SWAP1 PUSH2 0x1C5A JUMP JUMPDEST PUSH2 0x52D JUMP JUMPDEST PUSH1 0x40 MLOAD PUSH2 0x1DB SWAP2 SWAP1 PUSH2 0x1B84 JUMP JUMPDEST PUSH1 0x40 MLOAD DUP1 SWAP2 SUB SWAP1 RETURN JUMPDEST PUSH2 0x1EC PUSH2 0x79B JUMP JUMPDEST PUSH1 0x40 MLOAD PUSH2 0x1F9 SWAP2 SWAP1 PUSH2 0x1BDC JUMP JUMPDEST PUSH1 0x40 MLOAD DUP1 SWAP2 SUB SWAP1 RETURN JUMPDEST PUSH2 0x20A PUSH2 0x7C0 JUMP JUMPDEST PUSH1 0x40 MLOAD PUSH2 0x217 SWAP2 SWAP1 PUSH2 0x1BDC JUMP JUMPDEST PUSH1 0x40 MLOAD DUP1 SWAP2 SUB SWAP1 RETURN JUMPDEST PUSH2 0x23A PUSH1 0x4 DUP1 CALLDATASIZE SUB DUP2 ADD SWAP1 PUSH2 0x235 SWAP2 SWAP1 PUSH2 0x1C98 JUMP JUMPDEST PUSH2 0x7E4 JUMP JUMPDEST PUSH1 0x40 MLOAD PUSH2 0x248 SWAP3 SWAP2 SWAP1 PUSH2 0x1CD6 JUMP JUMPDEST PUSH1 0x40 MLOAD DUP1 SWAP2 SUB SWAP1 RETURN JUMPDEST PUSH2 0x26B PUSH1 0x4 DUP1 CALLDATASIZE SUB DUP2 ADD SWAP1 PUSH2 0x266 SWAP2 SWAP1 PUSH2 0x1CFD JUMP JUMPDEST PUSH2 0x80F JUMP JUMPDEST PUSH1 0x40 MLOAD PUSH2 0x278 SWAP2 SWAP1 PUSH2 0x1D42 JUMP JUMPDEST PUSH1 0x40 MLOAD DUP1 SWAP2 SUB SWAP1 RETURN JUMPDEST PUSH2 0x29B PUSH1 0x4 DUP1 CALLDATASIZE SUB DUP2 ADD SWAP1 PUSH2 0x296 SWAP2 SWAP1 PUSH2 0x1D5B JUMP JUMPDEST PUSH2 0x82C JUMP JUMPDEST PUSH1 0x40 MLOAD PUSH2 0x2A8 SWAP2 SWAP1 PUSH2 0x1B84 JUMP JUMPDEST PUSH1 0x40 MLOAD DUP1 SWAP2 SUB SWAP1 RETURN JUMPDEST PUSH2 0x2CB PUSH1 0x4 DUP1 CALLDATASIZE SUB DUP2 ADD SWAP1 PUSH2 0x2C6 SWAP2 SWAP1 PUSH2 0x1CFD JUMP JUMPDEST PUSH2 0x841 JUMP JUMPDEST PUSH1 0x40 MLOAD PUSH2 0x2D8 SWAP2 SWAP1 PUSH2 0x1D42 JUMP JUMPDEST PUSH1 0x40 MLOAD DUP1 SWAP2 SUB SWAP1 RETURN JUMPDEST PUSH2 0x2FB PUSH1 0x4 DUP1 CALLDATASIZE SUB DUP2 ADD SWAP1 PUSH2 0x2F6 SWAP2 SWAP1 PUSH2 0x1D5B JUMP JUMPDEST PUSH2 0x87F JUMP JUMPDEST PUSH1 0x40 MLOAD PUSH2 0x308 SWAP2 SWAP1 PUSH2 0x1B84 JUMP JUMPDEST PUSH1 0x40 MLOAD DUP1 SWAP2 SUB SWAP1 RETURN JUMPDEST PUSH2 0x319 PUSH2 0x9B4 JUMP JUMPDEST PUSH1 0x40 MLOAD PUSH2 0x326 SWAP2 SWAP1 PUSH2 0x1BDC JUMP JUMPDEST PUSH1 0x40 MLOAD DUP1 SWAP2 SUB SWAP1 RETURN JUMPDEST PUSH2 0x349 PUSH1 0x4 DUP1 CALLDATASIZE SUB DUP2 ADD SWAP1 PUSH2 0x344 SWAP2 SWAP1 PUSH2 0x1C5A JUMP JUMPDEST PUSH2 0x9DB JUMP JUMPDEST PUSH1 0x40 MLOAD PUSH2 0x356 SWAP2 SWAP1 PUSH2 0x1B84 JUMP JUMPDEST PUSH1 0x40 MLOAD DUP1 SWAP2 SUB SWAP1 RETURN JUMPDEST PUSH2 0x379 PUSH1 0x4 DUP1 CALLDATASIZE SUB DUP2 ADD SWAP1 PUSH2 0x374 SWAP2 SWAP1 PUSH2 0x1D5B JUMP JUMPDEST PUSH2 0x9FB JUMP JUMPDEST PUSH1 0x40 MLOAD PUSH2 0x386 SWAP2 SWAP1 PUSH2 0x1B84 JUMP JUMPDEST PUSH1 0x40 MLOAD DUP1 SWAP2 SUB SWAP1 RETURN JUMPDEST PUSH2 0x3A9 PUSH1 0x4 DUP1 CALLDATASIZE SUB DUP2 ADD SWAP1 PUSH2 0x3A4 SWAP2 SWAP1 PUSH2 0x1C98 JUMP JUMPDEST PUSH2 0xA10 JUMP JUMPDEST STOP JUMPDEST PUSH2 0x3C5 PUSH1 0x4 DUP1 CALLDATASIZE SUB DUP2 ADD SWAP1 PUSH2 0x3C0 SWAP2 SWAP1 PUSH2 0x1C98 JUMP JUMPDEST PUSH2 0xB57 JUMP JUMPDEST PUSH1 0x40 MLOAD PUSH2 0x3D2 SWAP2 SWAP1 PUSH2 0x1B84 JUMP JUMPDEST PUSH1 0x40 MLOAD DUP1 SWAP2 SUB SWAP1 RETURN JUMPDEST PUSH2 0x3F5 PUSH1 0x4 DUP1 CALLDATASIZE SUB DUP2 ADD SWAP1 PUSH2 0x3F0 SWAP2 SWAP1 PUSH2 0x1C5A JUMP JUMPDEST PUSH2 0xCC9 JUMP JUMPDEST STOP JUMPDEST PUSH2 0x3FF PUSH2 0xE6A JUMP JUMPDEST PUSH1 0x40 MLOAD PUSH2 0x40C SWAP2 SWAP1 PUSH2 0x1B84 JUMP JUMPDEST PUSH1 0x40 MLOAD DUP1 SWAP2 SUB SWAP1 RETURN JUMPDEST PUSH2 0x41D PUSH2 0xE76 JUMP JUMPDEST PUSH1 0x40 MLOAD PUSH2 0x42A SWAP2 SWAP1 PUSH2 0x1B84 JUMP JUMPDEST PUSH1 0x40 MLOAD DUP1 SWAP2 SUB SWAP1 RETURN JUMPDEST PUSH2 0x44D PUSH1 0x4 DUP1 CALLDATASIZE SUB DUP2 ADD SWAP1 PUSH2 0x448 SWAP2 SWAP1 PUSH2 0x1C5A JUMP JUMPDEST PUSH2 0xE7C JUMP JUMPDEST PUSH1 0x40 MLOAD PUSH2 0x45A SWAP2 SWAP1 PUSH2 0x1B84 JUMP JUMPDEST PUSH1 0x40 MLOAD DUP1 SWAP2 SUB SWAP1 RETURN JUMPDEST PUSH2 0x47D PUSH1 0x4 DUP1 CALLDATASIZE SUB DUP2 ADD SWAP1 PUSH2 0x478 SWAP2 SWAP1 PUSH2 0x1D5B JUMP JUMPDEST PUSH2 0xE9C JUMP JUMPDEST PUSH1 0x40 MLOAD PUSH2 0x48A SWAP2 SWAP1 PUSH2 0x1BDC JUMP JUMPDEST PUSH1 0x40 MLOAD DUP1 SWAP2 SUB SWAP1 RETURN JUMPDEST PUSH2 0x4AD PUSH1 0x4 DUP1 CALLDATASIZE SUB DUP2 ADD SWAP1 PUSH2 0x4A8 SWAP2 SWAP1 PUSH2 0x1C98 JUMP JUMPDEST PUSH2 0xED7 JUMP JUMPDEST STOP JUMPDEST PUSH2 0x4C9 PUSH1 0x4 DUP1 CALLDATASIZE SUB DUP2 ADD SWAP1 PUSH2 0x4C4 SWAP2 SWAP1 PUSH2 0x1ED6 JUMP JUMPDEST PUSH2 0x101E JUMP JUMPDEST STOP JUMPDEST PUSH2 0x4E5 PUSH1 0x4 DUP1 CALLDATASIZE SUB DUP2 ADD SWAP1 PUSH2 0x4E0 SWAP2 SWAP1 PUSH2 0x1D5B JUMP JUMPDEST PUSH2 0x1214 JUMP JUMPDEST PUSH1 0x40 MLOAD PUSH2 0x4F3 SWAP3 SWAP2 SWAP1 PUSH2 0x1CD6 JUMP JUMPDEST PUSH1 0x40 MLOAD DUP1 SWAP2 SUB SWAP1 RETURN JUMPDEST PUSH1 0x2 SLOAD DUP2 JUMP JUMPDEST PUSH3 0x93A80 DUP2 JUMP JUMPDEST PUSH32 0x0 DUP2 JUMP JUMPDEST PUSH0 DUP1 PUSH1 0x9 PUSH0 DUP5 DUP2 MSTORE PUSH1 0x20 ADD SWAP1 DUP2 MSTORE PUSH1 0x20 ADD PUSH0 KECCAK256 SLOAD SUB PUSH2 0x54E JUMPI PUSH0 SWAP1 POP PUSH2 0x795 JUMP JUMPDEST PUSH0 DUP1 PUSH1 0x1 SWAP1 POP PUSH0 PUSH2 0x5AA PUSH1 0x5 PUSH0 DUP9 PUSH20 0xFFFFFFFFFFFFFFFFFFFFFFFFFFFFFFFFFFFFFFFF AND PUSH20 0xFFFFFFFFFFFFFFFFFFFFFFFFFFFFFFFFFFFFFFFF AND DUP2 MSTORE PUSH1 0x20 ADD SWAP1 DUP2 MSTORE PUSH1 0x20 ADD PUSH0 KECCAK256 PUSH0 DUP8 DUP2 MSTORE PUSH1 0x20 ADD SWAP1 DUP2 MSTORE PUSH1 0x20 ADD PUSH0 KECCAK256 SLOAD PUSH2 0x1234 JUMP JUMPDEST SWAP1 POP PUSH0 PUSH2 0x5B7 DUP7 DUP4 PUSH2 0xB57 JUMP JUMPDEST SWAP1 POP PUSH0 PUSH1 0x8 PUSH0 DUP9 DUP2 MSTORE PUSH1 0x20 ADD SWAP1 DUP2 MSTORE PUSH1 0x20 ADD PUSH0 KECCAK256 PUSH0 DUP4 DUP2 MSTORE PUSH1 0x20 ADD SWAP1 DUP2 MSTORE PUSH1 0x20 ADD PUSH0 KECCAK256 PUSH1 0x40 MLOAD DUP1 PUSH1 0x40 ADD PUSH1 0x40 MSTORE SWAP1 DUP2 PUSH0 DUP3 ADD SLOAD DUP2 MSTORE PUSH1 0x20 ADD PUSH1 0x1 DUP3 ADD SLOAD DUP2 MSTORE POP POP SWAP1 POP PUSH2 0x60F DUP4 PUSH2 0x60A DUP4 PUSH0 ADD MLOAD PUSH2 0x1234 JUMP JUMPDEST PUSH2 0x1252 JUMP JUMPDEST SWAP3 POP PUSH0 PUSH3 0x93A80 DUP5 PUSH2 0x620 TIMESTAMP PUSH2 0x1234 JUMP JUMPDEST PUSH2 0x62A SWAP2 SWAP1 PUSH2 0x1F5D JUMP JUMPDEST PUSH2 0x634 SWAP2 SWAP1 PUSH2 0x1FBD JUMP JUMPDEST SWAP1 POP PUSH0 DUP2 GT ISZERO PUSH2 0x78B JUMPI PUSH0 JUMPDEST DUP2 DUP2 LT ISZERO PUSH2 0x789 JUMPI PUSH2 0x66C DUP10 PUSH1 0x1 PUSH3 0x93A80 DUP9 PUSH2 0x65D SWAP2 SWAP1 PUSH2 0x1FED JUMP JUMPDEST PUSH2 0x667 SWAP2 SWAP1 PUSH2 0x1F5D JUMP JUMPDEST PUSH2 0xB57 JUMP JUMPDEST SWAP4 POP PUSH1 0x8 PUSH0 DUP11 DUP2 MSTORE PUSH1 0x20 ADD SWAP1 DUP2 MSTORE PUSH1 0x20 ADD PUSH0 KECCAK256 PUSH0 DUP6 DUP2 MSTORE PUSH1 0x20 ADD SWAP1 DUP2 MSTORE PUSH1 0x20 ADD PUSH0 KECCAK256 PUSH1 0x40 MLOAD DUP1 PUSH1 0x40 ADD PUSH1 0x40 MSTORE SWAP1 DUP2 PUSH0 DUP3 ADD SLOAD DUP2 MSTORE PUSH1 0x20 ADD PUSH1 0x1 DUP3 ADD SLOAD DUP2 MSTORE POP POP SWAP3 POP PUSH2 0x6EF PUSH1 0xA PUSH0 PUSH2 0x6D7 PUSH1 0x1 PUSH3 0x93A80 DUP11 PUSH2 0x6C8 SWAP2 SWAP1 PUSH2 0x1FED JUMP JUMPDEST PUSH2 0x6D2 SWAP2 SWAP1 PUSH2 0x1F5D JUMP JUMPDEST PUSH2 0x87F JUMP JUMPDEST DUP2 MSTORE PUSH1 0x20 ADD SWAP1 DUP2 MSTORE PUSH1 0x20 ADD PUSH0 KECCAK256 PUSH1 0x1 ADD SLOAD PUSH1 0x1 PUSH2 0x1252 JUMP JUMPDEST SWAP6 POP DUP6 PUSH1 0x4 PUSH0 DUP13 PUSH20 0xFFFFFFFFFFFFFFFFFFFFFFFFFFFFFFFFFFFFFFFF AND PUSH20 0xFFFFFFFFFFFFFFFFFFFFFFFFFFFFFFFFFFFFFFFF AND DUP2 MSTORE PUSH1 0x20 ADD SWAP1 DUP2 MSTORE PUSH1 0x20 ADD PUSH0 KECCAK256 PUSH0 DUP8 DUP2 MSTORE PUSH1 0x20 ADD SWAP1 DUP2 MSTORE PUSH1 0x20 ADD PUSH0 KECCAK256 SLOAD DUP5 PUSH1 0x20 ADD MLOAD PUSH2 0x74E SWAP2 SWAP1 PUSH2 0x2020 JUMP JUMPDEST PUSH2 0x758 SWAP2 SWAP1 PUSH2 0x1FBD JUMP JUMPDEST DUP8 PUSH2 0x763 SWAP2 SWAP1 PUSH2 0x1FED JUMP JUMPDEST SWAP7 POP PUSH3 0x93A80 DUP6 PUSH2 0x774 SWAP2 SWAP1 PUSH2 0x1FED JUMP JUMPDEST SWAP5 POP DUP1 DUP1 PUSH2 0x781 SWAP1 PUSH2 0x2061 JUMP JUMPDEST SWAP2 POP POP PUSH2 0x640 JUMP JUMPDEST POP JUMPDEST DUP6 SWAP7 POP POP POP POP POP POP POP JUMPDEST SWAP3 SWAP2 POP POP JUMP JUMPDEST PUSH1 0x1 PUSH0 SWAP1 SLOAD SWAP1 PUSH2 0x100 EXP SWAP1 DIV PUSH20 0xFFFFFFFFFFFFFFFFFFFFFFFFFFFFFFFFFFFFFFFF AND DUP2 JUMP JUMPDEST PUSH32 0x0 DUP2 JUMP JUMPDEST PUSH1 0x8 PUSH1 0x20 MSTORE DUP2 PUSH0 MSTORE PUSH1 0x40 PUSH0 KECCAK256 PUSH1 0x20 MSTORE DUP1 PUSH0 MSTORE PUSH1 0x40 PUSH0 KECCAK256 PUSH0 SWAP2 POP SWAP2 POP POP DUP1 PUSH0 ADD SLOAD SWAP1 DUP1 PUSH1 0x1 ADD SLOAD SWAP1 POP DUP3 JUMP JUMPDEST PUSH1 0x7 PUSH1 0x20 MSTORE DUP1 PUSH0 MSTORE PUSH1 0x40 PUSH0 KECCAK256 PUSH0 SWAP2 POP SLOAD SWAP1 PUSH2 0x100 EXP SWAP1 DIV PUSH1 0xFF AND DUP2 JUMP JUMPDEST PUSH1 0x9 PUSH1 0x20 MSTORE DUP1 PUSH0 MSTORE PUSH1 0x40 PUSH0 KECCAK256 PUSH0 SWAP2 POP SWAP1 POP SLOAD DUP2 JUMP JUMPDEST PUSH0 PUSH2 0x84A PUSH2 0x9B4 JUMP JUMPDEST PUSH20 0xFFFFFFFFFFFFFFFFFFFFFFFFFFFFFFFFFFFFFFFF AND DUP3 PUSH20 0xFFFFFFFFFFFFFFFFFFFFFFFFFFFFFFFFFFFFFFFF AND EQ SWAP1 POP SWAP2 SWAP1 POP JUMP JUMPDEST PUSH0 DUP1 PUSH1 0xB SLOAD SWAP1 POP PUSH0 DUP2 SUB PUSH2 0x896 JUMPI PUSH0 SWAP2 POP POP PUSH2 0x9AF JUMP JUMPDEST DUP3 PUSH1 0xA PUSH0 PUSH1 0x1 DUP5 PUSH2 0x8A7 SWAP2 SWAP1 PUSH2 0x1F5D JUMP JUMPDEST DUP2 MSTORE PUSH1 0x20 ADD SWAP1 DUP2 MSTORE PUSH1 0x20 ADD PUSH0 KECCAK256 PUSH0 ADD SLOAD GT PUSH2 0x8D1 JUMPI PUSH1 0x1 DUP2 PUSH2 0x8C9 SWAP2 SWAP1 PUSH2 0x1F5D JUMP JUMPDEST SWAP2 POP POP PUSH2 0x9AF JUMP JUMPDEST DUP3 PUSH1 0xA PUSH0 DUP1 DUP2 MSTORE PUSH1 0x20 ADD SWAP1 DUP2 MSTORE PUSH1 0x20 ADD PUSH0 KECCAK256 PUSH0 ADD SLOAD GT ISZERO PUSH2 0x8F5 JUMPI PUSH0 SWAP2 POP POP PUSH2 0x9AF JUMP JUMPDEST PUSH0 DUP1 PUSH1 0x1 DUP4 PUSH2 0x904 SWAP2 SWAP1 PUSH2 0x1F5D JUMP JUMPDEST SWAP1 POP JUMPDEST DUP2 DUP2 GT ISZERO PUSH2 0x9A8 JUMPI PUSH0 PUSH1 0x2 DUP4 DUP4 PUSH2 0x91E SWAP2 SWAP1 PUSH2 0x1F5D JUMP JUMPDEST PUSH2 0x928 SWAP2 SWAP1 PUSH2 0x1FBD JUMP JUMPDEST DUP3 PUSH2 0x933 SWAP2 SWAP1 PUSH2 0x1F5D JUMP JUMPDEST SWAP1 POP PUSH0 PUSH1 0xA PUSH0 DUP4 DUP2 MSTORE PUSH1 0x20 ADD SWAP1 DUP2 MSTORE PUSH1 0x20 ADD PUSH0 KECCAK256 PUSH1 0x40 MLOAD DUP1 PUSH1 0x40 ADD PUSH1 0x40 MSTORE SWAP1 DUP2 PUSH0 DUP3 ADD SLOAD DUP2 MSTORE PUSH1 0x20 ADD PUSH1 0x1 DUP3 ADD SLOAD DUP2 MSTORE POP POP SWAP1 POP DUP7 DUP2 PUSH0 ADD MLOAD SUB PUSH2 0x97E JUMPI DUP2 SWAP6 POP POP POP POP POP POP PUSH2 0x9AF JUMP JUMPDEST DUP7 DUP2 PUSH0 ADD MLOAD LT ISZERO PUSH2 0x991 JUMPI DUP2 SWAP4 POP PUSH2 0x9A1 JUMP JUMPDEST PUSH1 0x1 DUP3 PUSH2 0x99E SWAP2 SWAP1 PUSH2 0x1F5D JUMP JUMPDEST SWAP3 POP JUMPDEST POP POP PUSH2 0x907 JUMP JUMPDEST DUP2 SWAP4 POP POP POP POP JUMPDEST SWAP2 SWAP1 POP JUMP JUMPDEST PUSH0 PUSH32 0x0 SWAP1 POP SWAP1 JUMP JUMPDEST PUSH1 0x4 PUSH1 0x20 MSTORE DUP2 PUSH0 MSTORE PUSH1 0x40 PUSH0 KECCAK256 PUSH1 0x20 MSTORE DUP1 PUSH0 MSTORE PUSH1 0x40 PUSH0 KECCAK256 PUSH0 SWAP2 POP SWAP2 POP POP SLOAD DUP2 JUMP JUMPDEST PUSH1 0x3 PUSH1 0x20 MSTORE DUP1 PUSH0 MSTORE PUSH1 0x40 PUSH0 KECCAK256 PUSH0 SWAP2 POP SWAP1 POP SLOAD DUP2 JUMP JUMPDEST PUSH0 PUSH2 0xA19 PUSH2 0x126A JUMP JUMPDEST SWAP1 POP PUSH1 0x1 PUSH0 SWAP1 SLOAD SWAP1 PUSH2 0x100 EXP SWAP1 DIV PUSH20 0xFFFFFFFFFFFFFFFFFFFFFFFFFFFFFFFFFFFFFFFF AND PUSH20 0xFFFFFFFFFFFFFFFFFFFFFFFFFFFFFFFFFFFFFFFF AND DUP2 PUSH20 0xFFFFFFFFFFFFFFFFFFFFFFFFFFFFFFFFFFFFFFFF AND EQ PUSH2 0xAA1 JUMPI PUSH1 0x40 MLOAD PUSH32 0xEA8E4EB500000000000000000000000000000000000000000000000000000000 DUP2 MSTORE PUSH1 0x4 ADD PUSH1 0x40 MLOAD DUP1 SWAP2 SUB SWAP1 REVERT JUMPDEST DUP3 PUSH1 0x2 PUSH0 DUP3 DUP3 SLOAD PUSH2 0xAB2 SWAP2 SWAP1 PUSH2 0x1F5D JUMP JUMPDEST SWAP3 POP POP DUP2 SWAP1 SSTORE POP DUP3 PUSH1 0x3 PUSH0 DUP5 DUP2 MSTORE PUSH1 0x20 ADD SWAP1 DUP2 MSTORE PUSH1 0x20 ADD PUSH0 KECCAK256 PUSH0 DUP3 DUP3 SLOAD PUSH2 0xAD9 SWAP2 SWAP1 PUSH2 0x1F5D JUMP JUMPDEST SWAP3 POP POP DUP2 SWAP1 SSTORE POP PUSH2 0xAFB DUP3 PUSH1 0x3 PUSH0 DUP6 DUP2 MSTORE PUSH1 0x20 ADD SWAP1 DUP2 MSTORE PUSH1 0x20 ADD PUSH0 KECCAK256 SLOAD PUSH2 0x12DB JUMP JUMPDEST PUSH2 0xB03 PUSH2 0x1413 JUMP JUMPDEST DUP2 DUP2 PUSH20 0xFFFFFFFFFFFFFFFFFFFFFFFFFFFFFFFFFFFFFFFF AND PUSH32 0xF279E6A1F5E320CCA91135676D9CB6E44CA8A08C0B88342BCDB1144F6511B568 DUP6 PUSH1 0x40 MLOAD PUSH2 0xB4A SWAP2 SWAP1 PUSH2 0x1B84 JUMP JUMPDEST PUSH1 0x40 MLOAD DUP1 SWAP2 SUB SWAP1 LOG3 POP POP POP JUMP JUMPDEST PUSH0 DUP1 PUSH1 0x9 PUSH0 DUP6 DUP2 MSTORE PUSH1 0x20 ADD SWAP1 DUP2 MSTORE PUSH1 0x20 ADD PUSH0 KECCAK256 SLOAD SWAP1 POP PUSH0 DUP2 SUB PUSH2 0xB7D JUMPI PUSH0 SWAP2 POP POP PUSH2 0xCC3 JUMP JUMPDEST DUP3 PUSH1 0x8 PUSH0 DUP7 DUP2 MSTORE PUSH1 0x20 ADD SWAP1 DUP2 MSTORE PUSH1 0x20 ADD PUSH0 KECCAK256 PUSH0 PUSH1 0x1 DUP5 PUSH2 0xB9D SWAP2 SWAP1 PUSH2 0x1F5D JUMP JUMPDEST DUP2 MSTORE PUSH1 0x20 ADD SWAP1 DUP2 MSTORE PUSH1 0x20 ADD PUSH0 KECCAK256 PUSH0 ADD SLOAD GT PUSH2 0xBC7 JUMPI PUSH1 0x1 DUP2 PUSH2 0xBBF SWAP2 SWAP1 PUSH2 0x1F5D JUMP JUMPDEST SWAP2 POP POP PUSH2 0xCC3 JUMP JUMPDEST DUP3 PUSH1 0x8 PUSH0 DUP7 DUP2 MSTORE PUSH1 0x20 ADD SWAP1 DUP2 MSTORE PUSH1 0x20 ADD PUSH0 KECCAK256 PUSH0 DUP1 DUP2 MSTORE PUSH1 0x20 ADD SWAP1 DUP2 MSTORE PUSH1 0x20 ADD PUSH0 KECCAK256 PUSH0 ADD SLOAD GT ISZERO PUSH2 0xBFA JUMPI PUSH0 SWAP2 POP POP PUSH2 0xCC3 JUMP JUMPDEST PUSH0 DUP1 PUSH1 0x1 DUP4 PUSH2 0xC09 SWAP2 SWAP1 PUSH2 0x1F5D JUMP JUMPDEST SWAP1 POP JUMPDEST DUP2 DUP2 GT ISZERO PUSH2 0xCBC JUMPI PUSH0 PUSH1 0x2 DUP4 DUP4 PUSH2 0xC23 SWAP2 SWAP1 PUSH2 0x1F5D JUMP JUMPDEST PUSH2 0xC2D SWAP2 SWAP1 PUSH2 0x1FBD JUMP JUMPDEST DUP3 PUSH2 0xC38 SWAP2 SWAP1 PUSH2 0x1F5D JUMP JUMPDEST SWAP1 POP PUSH0 PUSH1 0x8 PUSH0 DUP10 DUP2 MSTORE PUSH1 0x20 ADD SWAP1 DUP2 MSTORE PUSH1 0x20 ADD PUSH0 KECCAK256 PUSH0 DUP4 DUP2 MSTORE PUSH1 0x20 ADD SWAP1 DUP2 MSTORE PUSH1 0x20 ADD PUSH0 KECCAK256 PUSH1 0x40 MLOAD DUP1 PUSH1 0x40 ADD PUSH1 0x40 MSTORE SWAP1 DUP2 PUSH0 DUP3 ADD SLOAD DUP2 MSTORE PUSH1 0x20 ADD PUSH1 0x1 DUP3 ADD SLOAD DUP2 MSTORE POP POP SWAP1 POP DUP7 DUP2 PUSH0 ADD MLOAD SUB PUSH2 0xC92 JUMPI DUP2 SWAP6 POP POP POP POP POP POP PUSH2 0xCC3 JUMP JUMPDEST DUP7 DUP2 PUSH0 ADD MLOAD LT ISZERO PUSH2 0xCA5 JUMPI DUP2 SWAP4 POP PUSH2 0xCB5 JUMP JUMPDEST PUSH1 0x1 DUP3 PUSH2 0xCB2 SWAP2 SWAP1 PUSH2 0x1F5D JUMP JUMPDEST SWAP3 POP JUMPDEST POP POP PUSH2 0xC0C JUMP JUMPDEST DUP2 SWAP4 POP POP POP POP JUMPDEST SWAP3 SWAP2 POP POP JUMP JUMPDEST PUSH2 0xCD1 PUSH2 0x1502 JUMP JUMPDEST PUSH0 PUSH2 0xCDA PUSH2 0x126A JUMP JUMPDEST SWAP1 POP PUSH32 0x0 PUSH20 0xFFFFFFFFFFFFFFFFFFFFFFFFFFFFFFFFFFFFFFFF AND DUP2 PUSH20 0xFFFFFFFFFFFFFFFFFFFFFFFFFFFFFFFFFFFFFFFF AND EQ PUSH2 0xD61 JUMPI PUSH1 0x40 MLOAD PUSH32 0xD6E8DBE000000000000000000000000000000000000000000000000000000000 DUP2 MSTORE PUSH1 0x4 ADD PUSH1 0x40 MLOAD DUP1 SWAP2 SUB SWAP1 REVERT JUMPDEST PUSH32 0x0 PUSH20 0xFFFFFFFFFFFFFFFFFFFFFFFFFFFFFFFFFFFFFFFF AND PUSH4 0xFC0C546A PUSH1 0x40 MLOAD DUP2 PUSH4 0xFFFFFFFF AND PUSH1 0xE0 SHL DUP2 MSTORE PUSH1 0x4 ADD PUSH1 0x20 PUSH1 0x40 MLOAD DUP1 DUP4 SUB DUP2 DUP7 GAS STATICCALL ISZERO DUP1 ISZERO PUSH2 0xDCA JUMPI RETURNDATASIZE PUSH0 DUP1 RETURNDATACOPY RETURNDATASIZE PUSH0 REVERT JUMPDEST POP POP POP POP PUSH1 0x40 MLOAD RETURNDATASIZE PUSH1 0x1F NOT PUSH1 0x1F DUP3 ADD AND DUP3 ADD DUP1 PUSH1 0x40 MSTORE POP DUP2 ADD SWAP1 PUSH2 0xDEE SWAP2 SWAP1 PUSH2 0x20BC JUMP JUMPDEST PUSH20 0xFFFFFFFFFFFFFFFFFFFFFFFFFFFFFFFFFFFFFFFF AND DUP4 PUSH20 0xFFFFFFFFFFFFFFFFFFFFFFFFFFFFFFFFFFFFFFFF AND EQ PUSH2 0xE52 JUMPI PUSH1 0x40 MLOAD PUSH32 0xB9EB1C5000000000000000000000000000000000000000000000000000000000 DUP2 MSTORE PUSH1 0x4 ADD PUSH1 0x40 MLOAD DUP1 SWAP2 SUB SWAP1 REVERT JUMPDEST PUSH2 0xE5D DUP2 DUP5 DUP5 PUSH2 0x1546 JUMP JUMPDEST POP PUSH2 0xE66 PUSH2 0x1686 JUMP JUMPDEST POP POP JUMP JUMPDEST PUSH0 PUSH1 0x6 DUP1 SLOAD SWAP1 POP SWAP1 POP SWAP1 JUMP JUMPDEST PUSH1 0xB SLOAD DUP2 JUMP JUMPDEST PUSH1 0x5 PUSH1 0x20 MSTORE DUP2 PUSH0 MSTORE PUSH1 0x40 PUSH0 KECCAK256 PUSH1 0x20 MSTORE DUP1 PUSH0 MSTORE PUSH1 0x40 PUSH0 KECCAK256 PUSH0 SWAP2 POP SWAP2 POP POP SLOAD DUP2 JUMP JUMPDEST PUSH1 0x6 DUP2 DUP2 SLOAD DUP2 LT PUSH2 0xEAB JUMPI PUSH0 DUP1 REVERT JUMPDEST SWAP1 PUSH0 MSTORE PUSH1 0x20 PUSH0 KECCAK256 ADD PUSH0 SWAP2 POP SLOAD SWAP1 PUSH2 0x100 EXP SWAP1 DIV PUSH20 0xFFFFFFFFFFFFFFFFFFFFFFFFFFFFFFFFFFFFFFFF AND DUP2 JUMP JUMPDEST PUSH0 PUSH2 0xEE0 PUSH2 0x126A JUMP JUMPDEST SWAP1 POP PUSH1 0x1 PUSH0 SWAP1 SLOAD SWAP1 PUSH2 0x100 EXP SWAP1 DIV PUSH20 0xFFFFFFFFFFFFFFFFFFFFFFFFFFFFFFFFFFFFFFFF AND PUSH20 0xFFFFFFFFFFFFFFFFFFFFFFFFFFFFFFFFFFFFFFFF AND DUP2 PUSH20 0xFFFFFFFFFFFFFFFFFFFFFFFFFFFFFFFFFFFFFFFF AND EQ PUSH2 0xF68 JUMPI PUSH1 0x40 MLOAD PUSH32 0xEA8E4EB500000000000000000000000000000000000000000000000000000000 DUP2 MSTORE PUSH1 0x4 ADD PUSH1 0x40 MLOAD DUP1 SWAP2 SUB SWAP1 REVERT JUMPDEST DUP3 PUSH1 0x2 PUSH0 DUP3 DUP3 SLOAD PUSH2 0xF79 SWAP2 SWAP1 PUSH2 0x1FED JUMP JUMPDEST SWAP3 POP POP DUP2 SWAP1 SSTORE POP DUP3 PUSH1 0x3 PUSH0 DUP5 DUP2 MSTORE PUSH1 0x20 ADD SWAP1 DUP2 MSTORE PUSH1 0x20 ADD PUSH0 KECCAK256 PUSH0 DUP3 DUP3 SLOAD PUSH2 0xFA0 SWAP2 SWAP1 PUSH2 0x1FED JUMP JUMPDEST SWAP3 POP POP DUP2 SWAP1 SSTORE POP PUSH2 0xFC2 DUP3 PUSH1 0x3 PUSH0 DUP6 DUP2 MSTORE PUSH1 0x20 ADD SWAP1 DUP2 MSTORE PUSH1 0x20 ADD PUSH0 KECCAK256 SLOAD PUSH2 0x12DB JUMP JUMPDEST PUSH2 0xFCA PUSH2 0x1413 JUMP JUMPDEST DUP2 DUP2 PUSH20 0xFFFFFFFFFFFFFFFFFFFFFFFFFFFFFFFFFFFFFFFF AND PUSH32 0x90890809C654F11D6E72A28FA60149770A0D11EC6C92319D6CEB2BB0A4EA1A15 DUP6 PUSH1 0x40 MLOAD PUSH2 0x1011 SWAP2 SWAP1 PUSH2 0x1B84 JUMP JUMPDEST PUSH1 0x40 MLOAD DUP1 SWAP2 SUB SWAP1 LOG3 POP POP POP JUMP JUMPDEST PUSH2 0x1026 PUSH2 0x1502 JUMP JUMPDEST PUSH0 PUSH2 0x102F PUSH2 0x126A JUMP JUMPDEST SWAP1 POP PUSH32 0x0 PUSH20 0xFFFFFFFFFFFFFFFFFFFFFFFFFFFFFFFFFFFFFFFF AND DUP2 PUSH20 0xFFFFFFFFFFFFFFFFFFFFFFFFFFFFFFFFFFFFFFFF AND EQ PUSH2 0x10B6 JUMPI PUSH1 0x40 MLOAD PUSH32 0xD6E8DBE000000000000000000000000000000000000000000000000000000000 DUP2 MSTORE PUSH1 0x4 ADD PUSH1 0x40 MLOAD DUP1 SWAP2 SUB SWAP1 REVERT JUMPDEST PUSH1 0x1 DUP3 MLOAD EQ PUSH2 0x10F1 JUMPI PUSH1 0x40 MLOAD PUSH32 0x801F099F00000000000000000000000000000000000000000000000000000000 DUP2 MSTORE PUSH1 0x4 ADD PUSH1 0x40 MLOAD DUP1 SWAP2 SUB SWAP1 REVERT JUMPDEST PUSH32 0x0 PUSH20 0xFFFFFFFFFFFFFFFFFFFFFFFFFFFFFFFFFFFFFFFF AND PUSH4 0xFC0C546A PUSH1 0x40 MLOAD DUP2 PUSH4 0xFFFFFFFF AND PUSH1 0xE0 SHL DUP2 MSTORE PUSH1 0x4 ADD PUSH1 0x20 PUSH1 0x40 MLOAD DUP1 DUP4 SUB DUP2 DUP7 GAS STATICCALL ISZERO DUP1 ISZERO PUSH2 0x115A JUMPI RETURNDATASIZE PUSH0 DUP1 RETURNDATACOPY RETURNDATASIZE PUSH0 REVERT JUMPDEST POP POP POP POP PUSH1 0x40 MLOAD RETURNDATASIZE PUSH1 0x1F NOT PUSH1 0x1F DUP3 ADD AND DUP3 ADD DUP1 PUSH1 0x40 MSTORE POP DUP2 ADD SWAP1 PUSH2 0x117E SWAP2 SWAP1 PUSH2 0x20BC JUMP JUMPDEST PUSH20 0xFFFFFFFFFFFFFFFFFFFFFFFFFFFFFFFFFFFFFFFF AND DUP3 PUSH0 DUP2 MLOAD DUP2 LT PUSH2 0x11A7 JUMPI PUSH2 0x11A6 PUSH2 0x20E7 JUMP JUMPDEST JUMPDEST PUSH1 0x20 MUL PUSH1 0x20 ADD ADD MLOAD PUSH20 0xFFFFFFFFFFFFFFFFFFFFFFFFFFFFFFFFFFFFFFFF AND EQ PUSH2 0x11FC JUMPI PUSH1 0x40 MLOAD PUSH32 0xB9EB1C5000000000000000000000000000000000000000000000000000000000 DUP2 MSTORE PUSH1 0x4 ADD PUSH1 0x40 MLOAD DUP1 SWAP2 SUB SWAP1 REVERT JUMPDEST PUSH2 0x1207 DUP2 DUP5 DUP5 PUSH2 0x168F JUMP JUMPDEST POP PUSH2 0x1210 PUSH2 0x1686 JUMP JUMPDEST POP POP JUMP JUMPDEST PUSH1 0xA PUSH1 0x20 MSTORE DUP1 PUSH0 MSTORE PUSH1 0x40 PUSH0 KECCAK256 PUSH0 SWAP2 POP SWAP1 POP DUP1 PUSH0 ADD SLOAD SWAP1 DUP1 PUSH1 0x1 ADD SLOAD SWAP1 POP DUP3 JUMP JUMPDEST PUSH0 PUSH3 0x93A80 DUP3 DUP2 PUSH2 0x1248 JUMPI PUSH2 0x1247 PUSH2 0x1F90 JUMP JUMPDEST JUMPDEST MOD DUP3 SUB SWAP1 POP SWAP2 SWAP1 POP JUMP JUMPDEST PUSH0 DUP2 DUP4 GT PUSH2 0x1260 JUMPI DUP2 PUSH2 0x1262 JUMP JUMPDEST DUP3 JUMPDEST SWAP1 POP SWAP3 SWAP2 POP POP JUMP JUMPDEST PUSH0 DUP1 PUSH0 CALLDATASIZE SWAP1 POP SWAP1 POP PUSH0 PUSH2 0x127B PUSH2 0x1818 JUMP JUMPDEST SWAP1 POP PUSH2 0x1286 CALLER PUSH2 0x841 JUMP JUMPDEST DUP1 ISZERO PUSH2 0x1292 JUMPI POP DUP1 DUP3 LT ISZERO JUMPDEST ISZERO PUSH2 0x12CB JUMPI PUSH0 CALLDATASIZE DUP3 DUP5 PUSH2 0x12A5 SWAP2 SWAP1 PUSH2 0x1F5D JUMP JUMPDEST SWAP1 DUP1 SWAP3 PUSH2 0x12B4 SWAP4 SWAP3 SWAP2 SWAP1 PUSH2 0x211C JUMP JUMPDEST SWAP1 PUSH2 0x12BF SWAP2 SWAP1 PUSH2 0x2197 JUMP JUMPDEST PUSH1 0x60 SHR SWAP3 POP POP POP PUSH2 0x12D8 JUMP JUMPDEST PUSH2 0x12D3 PUSH2 0x1820 JUMP JUMPDEST SWAP3 POP POP POP JUMPDEST SWAP1 JUMP JUMPDEST PUSH0 PUSH1 0x9 PUSH0 DUP5 DUP2 MSTORE PUSH1 0x20 ADD SWAP1 DUP2 MSTORE PUSH1 0x20 ADD PUSH0 KECCAK256 SLOAD SWAP1 POP PUSH0 TIMESTAMP SWAP1 POP PUSH0 DUP3 GT DUP1 ISZERO PUSH2 0x1340 JUMPI POP PUSH2 0x1307 DUP2 PUSH2 0x1234 JUMP JUMPDEST PUSH2 0x133E PUSH1 0x8 PUSH0 DUP8 DUP2 MSTORE PUSH1 0x20 ADD SWAP1 DUP2 MSTORE PUSH1 0x20 ADD PUSH0 KECCAK256 PUSH0 PUSH1 0x1 DUP7 PUSH2 0x1329 SWAP2 SWAP1 PUSH2 0x1F5D JUMP JUMPDEST DUP2 MSTORE PUSH1 0x20 ADD SWAP1 DUP2 MSTORE PUSH1 0x20 ADD PUSH0 KECCAK256 PUSH0 ADD SLOAD PUSH2 0x1234 JUMP JUMPDEST EQ JUMPDEST ISZERO PUSH2 0x13A0 JUMPI PUSH1 0x40 MLOAD DUP1 PUSH1 0x40 ADD PUSH1 0x40 MSTORE DUP1 DUP3 DUP2 MSTORE PUSH1 0x20 ADD DUP5 DUP2 MSTORE POP PUSH1 0x8 PUSH0 DUP7 DUP2 MSTORE PUSH1 0x20 ADD SWAP1 DUP2 MSTORE PUSH1 0x20 ADD PUSH0 KECCAK256 PUSH0 PUSH1 0x1 DUP6 PUSH2 0x1379 SWAP2 SWAP1 PUSH2 0x1F5D JUMP JUMPDEST DUP2 MSTORE PUSH1 0x20 ADD SWAP1 DUP2 MSTORE PUSH1 0x20 ADD PUSH0 KECCAK256 PUSH0 DUP3 ADD MLOAD DUP2 PUSH0 ADD SSTORE PUSH1 0x20 DUP3 ADD MLOAD DUP2 PUSH1 0x1 ADD SSTORE SWAP1 POP POP PUSH2 0x140D JUMP JUMPDEST PUSH1 0x40 MLOAD DUP1 PUSH1 0x40 ADD PUSH1 0x40 MSTORE DUP1 DUP3 DUP2 MSTORE PUSH1 0x20 ADD DUP5 DUP2 MSTORE POP PUSH1 0x8 PUSH0 DUP7 DUP2 MSTORE PUSH1 0x20 ADD SWAP1 DUP2 MSTORE PUSH1 0x20 ADD PUSH0 KECCAK256 PUSH0 DUP5 DUP2 MSTORE PUSH1 0x20 ADD SWAP1 DUP2 MSTORE PUSH1 0x20 ADD PUSH0 KECCAK256 PUSH0 DUP3 ADD MLOAD DUP2 PUSH0 ADD SSTORE PUSH1 0x20 DUP3 ADD MLOAD DUP2 PUSH1 0x1 ADD SSTORE SWAP1 POP POP PUSH1 0x1 DUP3 PUSH2 0x13F7 SWAP2 SWAP1 PUSH2 0x1FED JUMP JUMPDEST PUSH1 0x9 PUSH0 DUP7 DUP2 MSTORE PUSH1 0x20 ADD SWAP1 DUP2 MSTORE PUSH1 0x20 ADD PUSH0 KECCAK256 DUP2 SWAP1 SSTORE POP JUMPDEST POP POP POP POP JUMP JUMPDEST PUSH0 PUSH1 0xB SLOAD SWAP1 POP PUSH0 TIMESTAMP SWAP1 POP PUSH0 DUP3 GT DUP1 ISZERO PUSH2 0x145A JUMPI POP PUSH2 0x1430 DUP2 PUSH2 0x1234 JUMP JUMPDEST PUSH2 0x1458 PUSH1 0xA PUSH0 PUSH1 0x1 DUP7 PUSH2 0x1443 SWAP2 SWAP1 PUSH2 0x1F5D JUMP JUMPDEST DUP2 MSTORE PUSH1 0x20 ADD SWAP1 DUP2 MSTORE PUSH1 0x20 ADD PUSH0 KECCAK256 PUSH0 ADD SLOAD PUSH2 0x1234 JUMP JUMPDEST EQ JUMPDEST ISZERO PUSH2 0x14AD JUMPI PUSH1 0x40 MLOAD DUP1 PUSH1 0x40 ADD PUSH1 0x40 MSTORE DUP1 DUP3 DUP2 MSTORE PUSH1 0x20 ADD PUSH1 0x2 SLOAD DUP2 MSTORE POP PUSH1 0xA PUSH0 PUSH1 0x1 DUP6 PUSH2 0x1486 SWAP2 SWAP1 PUSH2 0x1F5D JUMP JUMPDEST DUP2 MSTORE PUSH1 0x20 ADD SWAP1 DUP2 MSTORE PUSH1 0x20 ADD PUSH0 KECCAK256 PUSH0 DUP3 ADD MLOAD DUP2 PUSH0 ADD SSTORE PUSH1 0x20 DUP3 ADD MLOAD DUP2 PUSH1 0x1 ADD SSTORE SWAP1 POP POP PUSH2 0x14FE JUMP JUMPDEST PUSH1 0x40 MLOAD DUP1 PUSH1 0x40 ADD PUSH1 0x40 MSTORE DUP1 DUP3 DUP2 MSTORE PUSH1 0x20 ADD PUSH1 0x2 SLOAD DUP2 MSTORE POP PUSH1 0xA PUSH0 DUP5 DUP2 MSTORE PUSH1 0x20 ADD SWAP1 DUP2 MSTORE PUSH1 0x20 ADD PUSH0 KECCAK256 PUSH0 DUP3 ADD MLOAD DUP2 PUSH0 ADD SSTORE PUSH1 0x20 DUP3 ADD MLOAD DUP2 PUSH1 0x1 ADD SSTORE SWAP1 POP POP PUSH1 0x1 DUP3 PUSH2 0x14F7 SWAP2 SWAP1 PUSH2 0x1FED JUMP JUMPDEST PUSH1 0xB DUP2 SWAP1 SSTORE POP JUMPDEST POP POP JUMP JUMPDEST PUSH1 0x2 PUSH0 SLOAD SUB PUSH2 0x153D JUMPI PUSH1 0x40 MLOAD PUSH32 0x3EE5AEB500000000000000000000000000000000000000000000000000000000 DUP2 MSTORE PUSH1 0x4 ADD PUSH1 0x40 MLOAD DUP1 SWAP2 SUB SWAP1 REVERT JUMPDEST PUSH1 0x2 PUSH0 DUP2 SWAP1 SSTORE POP JUMP JUMPDEST PUSH0 DUP2 SUB PUSH2 0x157F JUMPI PUSH1 0x40 MLOAD PUSH32 0x1F2A200500000000000000000000000000000000000000000000000000000000 DUP2 MSTORE PUSH1 0x4 ADD PUSH1 0x40 MLOAD DUP1 SWAP2 SUB SWAP1 REVERT JUMPDEST PUSH2 0x15AC DUP4 ADDRESS DUP4 DUP6 PUSH20 0xFFFFFFFFFFFFFFFFFFFFFFFFFFFFFFFFFFFFFFFF AND PUSH2 0x1827 SWAP1 SWAP4 SWAP3 SWAP2 SWAP1 PUSH4 0xFFFFFFFF AND JUMP JUMPDEST PUSH0 PUSH2 0x15B6 TIMESTAMP PUSH2 0x1234 JUMP JUMPDEST SWAP1 POP DUP2 PUSH1 0x4 PUSH0 DUP6 PUSH20 0xFFFFFFFFFFFFFFFFFFFFFFFFFFFFFFFFFFFFFFFF AND PUSH20 0xFFFFFFFFFFFFFFFFFFFFFFFFFFFFFFFFFFFFFFFF AND DUP2 MSTORE PUSH1 0x20 ADD SWAP1 DUP2 MSTORE PUSH1 0x20 ADD PUSH0 KECCAK256 PUSH0 DUP4 DUP2 MSTORE PUSH1 0x20 ADD SWAP1 DUP2 MSTORE PUSH1 0x20 ADD PUSH0 KECCAK256 PUSH0 DUP3 DUP3 SLOAD PUSH2 0x1613 SWAP2 SWAP1 PUSH2 0x1FED JUMP JUMPDEST SWAP3 POP POP DUP2 SWAP1 SSTORE POP DUP1 DUP4 PUSH20 0xFFFFFFFFFFFFFFFFFFFFFFFFFFFFFFFFFFFFFFFF AND DUP6 PUSH20 0xFFFFFFFFFFFFFFFFFFFFFFFFFFFFFFFFFFFFFFFF AND PUSH32 0x52977EA98A2220A03EE9BA5CB003ADA08D394EA10155483C95DC2DC77A7EB24B DUP6 PUSH1 0x40 MLOAD PUSH2 0x1678 SWAP2 SWAP1 PUSH2 0x1B84 JUMP JUMPDEST PUSH1 0x40 MLOAD DUP1 SWAP2 SUB SWAP1 LOG4 POP POP POP POP JUMP JUMPDEST PUSH1 0x1 PUSH0 DUP2 SWAP1 SSTORE POP JUMP JUMPDEST PUSH0 DUP2 MLOAD SWAP1 POP PUSH0 JUMPDEST DUP2 DUP2 LT ISZERO PUSH2 0x1811 JUMPI PUSH0 PUSH2 0x16C3 DUP5 DUP4 DUP2 MLOAD DUP2 LT PUSH2 0x16B5 JUMPI PUSH2 0x16B4 PUSH2 0x20E7 JUMP JUMPDEST JUMPDEST PUSH1 0x20 MUL PUSH1 0x20 ADD ADD MLOAD DUP7 PUSH2 0x52D JUMP JUMPDEST SWAP1 POP TIMESTAMP PUSH1 0x5 PUSH0 DUP7 DUP6 DUP2 MLOAD DUP2 LT PUSH2 0x16DC JUMPI PUSH2 0x16DB PUSH2 0x20E7 JUMP JUMPDEST JUMPDEST PUSH1 0x20 MUL PUSH1 0x20 ADD ADD MLOAD PUSH20 0xFFFFFFFFFFFFFFFFFFFFFFFFFFFFFFFFFFFFFFFF AND PUSH20 0xFFFFFFFFFFFFFFFFFFFFFFFFFFFFFFFFFFFFFFFF AND DUP2 MSTORE PUSH1 0x20 ADD SWAP1 DUP2 MSTORE PUSH1 0x20 ADD PUSH0 KECCAK256 PUSH0 DUP8 DUP2 MSTORE PUSH1 0x20 ADD SWAP1 DUP2 MSTORE PUSH1 0x20 ADD PUSH0 KECCAK256 DUP2 SWAP1 SSTORE POP PUSH0 DUP2 GT ISZERO PUSH2 0x177E JUMPI PUSH2 0x177D DUP7 DUP3 DUP7 DUP6 DUP2 MLOAD DUP2 LT PUSH2 0x1750 JUMPI PUSH2 0x174F PUSH2 0x20E7 JUMP JUMPDEST JUMPDEST PUSH1 0x20 MUL PUSH1 0x20 ADD ADD MLOAD PUSH20 0xFFFFFFFFFFFFFFFFFFFFFFFFFFFFFFFFFFFFFFFF AND PUSH2 0x18A9 SWAP1 SWAP3 SWAP2 SWAP1 PUSH4 0xFFFFFFFF AND JUMP JUMPDEST JUMPDEST DUP4 DUP3 DUP2 MLOAD DUP2 LT PUSH2 0x1791 JUMPI PUSH2 0x1790 PUSH2 0x20E7 JUMP JUMPDEST JUMPDEST PUSH1 0x20 MUL PUSH1 0x20 ADD ADD MLOAD PUSH20 0xFFFFFFFFFFFFFFFFFFFFFFFFFFFFFFFFFFFFFFFF AND DUP7 PUSH20 0xFFFFFFFFFFFFFFFFFFFFFFFFFFFFFFFFFFFFFFFF AND PUSH32 0x9AA05B3D70A9E3E2F004F039648839560576334FB45C81F91B6DB03AD9E2EFC9 DUP4 PUSH1 0x40 MLOAD PUSH2 0x17F5 SWAP2 SWAP1 PUSH2 0x1B84 JUMP JUMPDEST PUSH1 0x40 MLOAD DUP1 SWAP2 SUB SWAP1 LOG3 POP DUP1 DUP1 PUSH2 0x1809 SWAP1 PUSH2 0x2061 JUMP JUMPDEST SWAP2 POP POP PUSH2 0x1696 JUMP JUMPDEST POP POP POP POP POP JUMP JUMPDEST PUSH0 PUSH1 0x14 SWAP1 POP SWAP1 JUMP JUMPDEST PUSH0 CALLER SWAP1 POP SWAP1 JUMP JUMPDEST PUSH2 0x18A3 DUP5 DUP6 PUSH20 0xFFFFFFFFFFFFFFFFFFFFFFFFFFFFFFFFFFFFFFFF AND PUSH4 0x23B872DD DUP7 DUP7 DUP7 PUSH1 0x40 MLOAD PUSH1 0x24 ADD PUSH2 0x185C SWAP4 SWAP3 SWAP2 SWAP1 PUSH2 0x21F5 JUMP JUMPDEST PUSH1 0x40 MLOAD PUSH1 0x20 DUP2 DUP4 SUB SUB DUP2 MSTORE SWAP1 PUSH1 0x40 MSTORE SWAP2 POP PUSH1 0xE0 SHL PUSH1 0x20 DUP3 ADD DUP1 MLOAD PUSH28 0xFFFFFFFFFFFFFFFFFFFFFFFFFFFFFFFFFFFFFFFFFFFFFFFFFFFFFFFF DUP4 DUP2 DUP4 AND OR DUP4 MSTORE POP POP POP POP PUSH2 0x1928 JUMP JUMPDEST POP POP POP POP JUMP JUMPDEST PUSH2 0x1923 DUP4 DUP5 PUSH20 0xFFFFFFFFFFFFFFFFFFFFFFFFFFFFFFFFFFFFFFFF AND PUSH4 0xA9059CBB DUP6 DUP6 PUSH1 0x40 MLOAD PUSH1 0x24 ADD PUSH2 0x18DC SWAP3 SWAP2 SWAP1 PUSH2 0x222A JUMP JUMPDEST PUSH1 0x40 MLOAD PUSH1 0x20 DUP2 DUP4 SUB SUB DUP2 MSTORE SWAP1 PUSH1 0x40 MSTORE SWAP2 POP PUSH1 0xE0 SHL PUSH1 0x20 DUP3 ADD DUP1 MLOAD PUSH28 0xFFFFFFFFFFFFFFFFFFFFFFFFFFFFFFFFFFFFFFFFFFFFFFFFFFFFFFFF DUP4 DUP2 DUP4 AND OR DUP4 MSTORE POP POP POP POP PUSH2 0x1928 JUMP JUMPDEST POP POP POP JUMP JUMPDEST PUSH0 PUSH2 0x1952 DUP3 DUP5 PUSH20 0xFFFFFFFFFFFFFFFFFFFFFFFFFFFFFFFFFFFFFFFF AND PUSH2 0x19BD SWAP1 SWAP2 SWAP1 PUSH4 0xFFFFFFFF AND JUMP JUMPDEST SWAP1 POP PUSH0 DUP2 MLOAD EQ ISZERO DUP1 ISZERO PUSH2 0x1976 JUMPI POP DUP1 DUP1 PUSH1 0x20 ADD SWAP1 MLOAD DUP2 ADD SWAP1 PUSH2 0x1974 SWAP2 SWAP1 PUSH2 0x227B JUMP JUMPDEST ISZERO JUMPDEST ISZERO PUSH2 0x19B8 JUMPI DUP3 PUSH1 0x40 MLOAD PUSH32 0x5274AFE700000000000000000000000000000000000000000000000000000000 DUP2 MSTORE PUSH1 0x4 ADD PUSH2 0x19AF SWAP2 SWAP1 PUSH2 0x1BDC JUMP JUMPDEST PUSH1 0x40 MLOAD DUP1 SWAP2 SUB SWAP1 REVERT JUMPDEST POP POP POP JUMP JUMPDEST PUSH1 0x60 PUSH2 0x19CA DUP4 DUP4 PUSH0 PUSH2 0x19D2 JUMP JUMPDEST SWAP1 POP SWAP3 SWAP2 POP POP JUMP JUMPDEST PUSH1 0x60 DUP2 SELFBALANCE LT ISZERO PUSH2 0x1A19 JUMPI ADDRESS PUSH1 0x40 MLOAD PUSH32 0xCD78605900000000000000000000000000000000000000000000000000000000 DUP2 MSTORE PUSH1 0x4 ADD PUSH2 0x1A10 SWAP2 SWAP1 PUSH2 0x1BDC JUMP JUMPDEST PUSH1 0x40 MLOAD DUP1 SWAP2 SUB SWAP1 REVERT JUMPDEST PUSH0 DUP1 DUP6 PUSH20 0xFFFFFFFFFFFFFFFFFFFFFFFFFFFFFFFFFFFFFFFF AND DUP5 DUP7 PUSH1 0x40 MLOAD PUSH2 0x1A41 SWAP2 SWAP1 PUSH2 0x2312 JUMP JUMPDEST PUSH0 PUSH1 0x40 MLOAD DUP1 DUP4 SUB DUP2 DUP6 DUP8 GAS CALL SWAP3 POP POP POP RETURNDATASIZE DUP1 PUSH0 DUP2 EQ PUSH2 0x1A7B JUMPI PUSH1 0x40 MLOAD SWAP2 POP PUSH1 0x1F NOT PUSH1 0x3F RETURNDATASIZE ADD AND DUP3 ADD PUSH1 0x40 MSTORE RETURNDATASIZE DUP3 MSTORE RETURNDATASIZE PUSH0 PUSH1 0x20 DUP5 ADD RETURNDATACOPY PUSH2 0x1A80 JUMP JUMPDEST PUSH1 0x60 SWAP2 POP JUMPDEST POP SWAP2 POP SWAP2 POP PUSH2 0x1A90 DUP7 DUP4 DUP4 PUSH2 0x1A9B JUMP JUMPDEST SWAP3 POP POP POP SWAP4 SWAP3 POP POP POP JUMP JUMPDEST PUSH1 0x60 DUP3 PUSH2 0x1AB0 JUMPI PUSH2 0x1AAB DUP3 PUSH2 0x1B28 JUMP JUMPDEST PUSH2 0x1B20 JUMP JUMPDEST PUSH0 DUP3 MLOAD EQ DUP1 ISZERO PUSH2 0x1AD6 JUMPI POP PUSH0 DUP5 PUSH20 0xFFFFFFFFFFFFFFFFFFFFFFFFFFFFFFFFFFFFFFFF AND EXTCODESIZE EQ JUMPDEST ISZERO PUSH2 0x1B18 JUMPI DUP4 PUSH1 0x40 MLOAD PUSH32 0x9996B31500000000000000000000000000000000000000000000000000000000 DUP2 MSTORE PUSH1 0x4 ADD PUSH2 0x1B0F SWAP2 SWAP1 PUSH2 0x1BDC JUMP JUMPDEST PUSH1 0x40 MLOAD DUP1 SWAP2 SUB SWAP1 REVERT JUMPDEST DUP2 SWAP1 POP PUSH2 0x1B21 JUMP JUMPDEST JUMPDEST SWAP4 SWAP3 POP POP POP JUMP JUMPDEST PUSH0 DUP2 MLOAD GT ISZERO PUSH2 0x1B3A JUMPI DUP1 MLOAD DUP1 DUP3 PUSH1 0x20 ADD REVERT JUMPDEST PUSH1 0x40 MLOAD PUSH32 0x1425EA4200000000000000000000000000000000000000000000000000000000 DUP2 MSTORE PUSH1 0x4 ADD PUSH1 0x40 MLOAD DUP1 SWAP2 SUB SWAP1 REVERT JUMPDEST PUSH0 DUP2 SWAP1 POP SWAP2 SWAP1 POP JUMP JUMPDEST PUSH2 0x1B7E DUP2 PUSH2 0x1B6C JUMP JUMPDEST DUP3 MSTORE POP POP JUMP JUMPDEST PUSH0 PUSH1 0x20 DUP3 ADD SWAP1 POP PUSH2 0x1B97 PUSH0 DUP4 ADD DUP5 PUSH2 0x1B75 JUMP JUMPDEST SWAP3 SWAP2 POP POP JUMP JUMPDEST PUSH0 PUSH20 0xFFFFFFFFFFFFFFFFFFFFFFFFFFFFFFFFFFFFFFFF DUP3 AND SWAP1 POP SWAP2 SWAP1 POP JUMP JUMPDEST PUSH0 PUSH2 0x1BC6 DUP3 PUSH2 0x1B9D JUMP JUMPDEST SWAP1 POP SWAP2 SWAP1 POP JUMP JUMPDEST PUSH2 0x1BD6 DUP2 PUSH2 0x1BBC JUMP JUMPDEST DUP3 MSTORE POP POP JUMP JUMPDEST PUSH0 PUSH1 0x20 DUP3 ADD SWAP1 POP PUSH2 0x1BEF PUSH0 DUP4 ADD DUP5 PUSH2 0x1BCD JUMP JUMPDEST SWAP3 SWAP2 POP POP JUMP JUMPDEST PUSH0 PUSH1 0x40 MLOAD SWAP1 POP SWAP1 JUMP JUMPDEST PUSH0 DUP1 REVERT JUMPDEST PUSH0 DUP1 REVERT JUMPDEST PUSH2 0x1C0F DUP2 PUSH2 0x1BBC JUMP JUMPDEST DUP2 EQ PUSH2 0x1C19 JUMPI PUSH0 DUP1 REVERT JUMPDEST POP JUMP JUMPDEST PUSH0 DUP2 CALLDATALOAD SWAP1 POP PUSH2 0x1C2A DUP2 PUSH2 0x1C06 JUMP JUMPDEST SWAP3 SWAP2 POP POP JUMP JUMPDEST PUSH2 0x1C39 DUP2 PUSH2 0x1B6C JUMP JUMPDEST DUP2 EQ PUSH2 0x1C43 JUMPI PUSH0 DUP1 REVERT JUMPDEST POP JUMP JUMPDEST PUSH0 DUP2 CALLDATALOAD SWAP1 POP PUSH2 0x1C54 DUP2 PUSH2 0x1C30 JUMP JUMPDEST SWAP3 SWAP2 POP POP JUMP JUMPDEST PUSH0 DUP1 PUSH1 0x40 DUP4 DUP6 SUB SLT ISZERO PUSH2 0x1C70 JUMPI PUSH2 0x1C6F PUSH2 0x1BFE JUMP JUMPDEST JUMPDEST PUSH0 PUSH2 0x1C7D DUP6 DUP3 DUP7 ADD PUSH2 0x1C1C JUMP JUMPDEST SWAP3 POP POP PUSH1 0x20 PUSH2 0x1C8E DUP6 DUP3 DUP7 ADD PUSH2 0x1C46 JUMP JUMPDEST SWAP2 POP POP SWAP3 POP SWAP3 SWAP1 POP JUMP JUMPDEST PUSH0 DUP1 PUSH1 0x40 DUP4 DUP6 SUB SLT ISZERO PUSH2 0x1CAE JUMPI PUSH2 0x1CAD PUSH2 0x1BFE JUMP JUMPDEST JUMPDEST PUSH0 PUSH2 0x1CBB DUP6 DUP3 DUP7 ADD PUSH2 0x1C46 JUMP JUMPDEST SWAP3 POP POP PUSH1 0x20 PUSH2 0x1CCC DUP6 DUP3 DUP7 ADD PUSH2 0x1C46 JUMP JUMPDEST SWAP2 POP POP SWAP3 POP SWAP3 SWAP1 POP JUMP JUMPDEST PUSH0 PUSH1 0x40 DUP3 ADD SWAP1 POP PUSH2 0x1CE9 PUSH0 DUP4 ADD DUP6 PUSH2 0x1B75 JUMP JUMPDEST PUSH2 0x1CF6 PUSH1 0x20 DUP4 ADD DUP5 PUSH2 0x1B75 JUMP JUMPDEST SWAP4 SWAP3 POP POP POP JUMP JUMPDEST PUSH0 PUSH1 0x20 DUP3 DUP5 SUB SLT ISZERO PUSH2 0x1D12 JUMPI PUSH2 0x1D11 PUSH2 0x1BFE JUMP JUMPDEST JUMPDEST PUSH0 PUSH2 0x1D1F DUP5 DUP3 DUP6 ADD PUSH2 0x1C1C JUMP JUMPDEST SWAP2 POP POP SWAP3 SWAP2 POP POP JUMP JUMPDEST PUSH0 DUP2 ISZERO ISZERO SWAP1 POP SWAP2 SWAP1 POP JUMP JUMPDEST PUSH2 0x1D3C DUP2 PUSH2 0x1D28 JUMP JUMPDEST DUP3 MSTORE POP POP JUMP JUMPDEST PUSH0 PUSH1 0x20 DUP3 ADD SWAP1 POP PUSH2 0x1D55 PUSH0 DUP4 ADD DUP5 PUSH2 0x1D33 JUMP JUMPDEST SWAP3 SWAP2 POP POP JUMP JUMPDEST PUSH0 PUSH1 0x20 DUP3 DUP5 SUB SLT ISZERO PUSH2 0x1D70 JUMPI PUSH2 0x1D6F PUSH2 0x1BFE JUMP JUMPDEST JUMPDEST PUSH0 PUSH2 0x1D7D DUP5 DUP3 DUP6 ADD PUSH2 0x1C46 JUMP JUMPDEST SWAP2 POP POP SWAP3 SWAP2 POP POP JUMP JUMPDEST PUSH0 DUP1 REVERT JUMPDEST PUSH0 PUSH1 0x1F NOT PUSH1 0x1F DUP4 ADD AND SWAP1 POP SWAP2 SWAP1 POP JUMP JUMPDEST PUSH32 0x4E487B7100000000000000000000000000000000000000000000000000000000 PUSH0 MSTORE PUSH1 0x41 PUSH1 0x4 MSTORE PUSH1 0x24 PUSH0 REVERT JUMPDEST PUSH2 0x1DD0 DUP3 PUSH2 0x1D8A JUMP JUMPDEST DUP2 ADD DUP2 DUP2 LT PUSH8 0xFFFFFFFFFFFFFFFF DUP3 GT OR ISZERO PUSH2 0x1DEF JUMPI PUSH2 0x1DEE PUSH2 0x1D9A JUMP JUMPDEST JUMPDEST DUP1 PUSH1 0x40 MSTORE POP POP POP JUMP JUMPDEST PUSH0 PUSH2 0x1E01 PUSH2 0x1BF5 JUMP JUMPDEST SWAP1 POP PUSH2 0x1E0D DUP3 DUP3 PUSH2 0x1DC7 JUMP JUMPDEST SWAP2 SWAP1 POP JUMP JUMPDEST PUSH0 PUSH8 0xFFFFFFFFFFFFFFFF DUP3 GT ISZERO PUSH2 0x1E2C JUMPI PUSH2 0x1E2B PUSH2 0x1D9A JUMP JUMPDEST JUMPDEST PUSH1 0x20 DUP3 MUL SWAP1 POP PUSH1 0x20 DUP2 ADD SWAP1 POP SWAP2 SWAP1 POP JUMP JUMPDEST PUSH0 DUP1 REVERT JUMPDEST PUSH0 PUSH2 0x1E53 PUSH2 0x1E4E DUP5 PUSH2 0x1E12 JUMP JUMPDEST PUSH2 0x1DF8 JUMP JUMPDEST SWAP1 POP DUP1 DUP4 DUP3 MSTORE PUSH1 0x20 DUP3 ADD SWAP1 POP PUSH1 0x20 DUP5 MUL DUP4 ADD DUP6 DUP2 GT ISZERO PUSH2 0x1E76 JUMPI PUSH2 0x1E75 PUSH2 0x1E3D JUMP JUMPDEST JUMPDEST DUP4 JUMPDEST DUP2 DUP2 LT ISZERO PUSH2 0x1E9F JUMPI DUP1 PUSH2 0x1E8B DUP9 DUP3 PUSH2 0x1C1C JUMP JUMPDEST DUP5 MSTORE PUSH1 0x20 DUP5 ADD SWAP4 POP POP PUSH1 0x20 DUP2 ADD SWAP1 POP PUSH2 0x1E78 JUMP JUMPDEST POP POP POP SWAP4 SWAP3 POP POP POP JUMP JUMPDEST PUSH0 DUP3 PUSH1 0x1F DUP4 ADD SLT PUSH2 0x1EBD JUMPI PUSH2 0x1EBC PUSH2 0x1D86 JUMP JUMPDEST JUMPDEST DUP2 CALLDATALOAD PUSH2 0x1ECD DUP5 DUP3 PUSH1 0x20 DUP7 ADD PUSH2 0x1E41 JUMP JUMPDEST SWAP2 POP POP SWAP3 SWAP2 POP POP JUMP JUMPDEST PUSH0 DUP1 PUSH1 0x40 DUP4 DUP6 SUB SLT ISZERO PUSH2 0x1EEC JUMPI PUSH2 0x1EEB PUSH2 0x1BFE JUMP JUMPDEST JUMPDEST PUSH0 PUSH2 0x1EF9 DUP6 DUP3 DUP7 ADD PUSH2 0x1C46 JUMP JUMPDEST SWAP3 POP POP PUSH1 0x20 DUP4 ADD CALLDATALOAD PUSH8 0xFFFFFFFFFFFFFFFF DUP2 GT ISZERO PUSH2 0x1F1A JUMPI PUSH2 0x1F19 PUSH2 0x1C02 JUMP JUMPDEST JUMPDEST PUSH2 0x1F26 DUP6 DUP3 DUP7 ADD PUSH2 0x1EA9 JUMP JUMPDEST SWAP2 POP POP SWAP3 POP SWAP3 SWAP1 POP JUMP JUMPDEST PUSH32 0x4E487B7100000000000000000000000000000000000000000000000000000000 PUSH0 MSTORE PUSH1 0x11 PUSH1 0x4 MSTORE PUSH1 0x24 PUSH0 REVERT JUMPDEST PUSH0 PUSH2 0x1F67 DUP3 PUSH2 0x1B6C JUMP JUMPDEST SWAP2 POP PUSH2 0x1F72 DUP4 PUSH2 0x1B6C JUMP JUMPDEST SWAP3 POP DUP3 DUP3 SUB SWAP1 POP DUP2 DUP2 GT ISZERO PUSH2 0x1F8A JUMPI PUSH2 0x1F89 PUSH2 0x1F30 JUMP JUMPDEST JUMPDEST SWAP3 SWAP2 POP POP JUMP JUMPDEST PUSH32 0x4E487B7100000000000000000000000000000000000000000000000000000000 PUSH0 MSTORE PUSH1 0x12 PUSH1 0x4 MSTORE PUSH1 0x24 PUSH0 REVERT JUMPDEST PUSH0 PUSH2 0x1FC7 DUP3 PUSH2 0x1B6C JUMP JUMPDEST SWAP2 POP PUSH2 0x1FD2 DUP4 PUSH2 0x1B6C JUMP JUMPDEST SWAP3 POP DUP3 PUSH2 0x1FE2 JUMPI PUSH2 0x1FE1 PUSH2 0x1F90 JUMP JUMPDEST JUMPDEST DUP3 DUP3 DIV SWAP1 POP SWAP3 SWAP2 POP POP JUMP JUMPDEST PUSH0 PUSH2 0x1FF7 DUP3 PUSH2 0x1B6C JUMP JUMPDEST SWAP2 POP PUSH2 0x2002 DUP4 PUSH2 0x1B6C JUMP JUMPDEST SWAP3 POP DUP3 DUP3 ADD SWAP1 POP DUP1 DUP3 GT ISZERO PUSH2 0x201A JUMPI PUSH2 0x2019 PUSH2 0x1F30 JUMP JUMPDEST JUMPDEST SWAP3 SWAP2 POP POP JUMP JUMPDEST PUSH0 PUSH2 0x202A DUP3 PUSH2 0x1B6C JUMP JUMPDEST SWAP2 POP PUSH2 0x2035 DUP4 PUSH2 0x1B6C JUMP JUMPDEST SWAP3 POP DUP3 DUP3 MUL PUSH2 0x2043 DUP2 PUSH2 0x1B6C JUMP JUMPDEST SWAP2 POP DUP3 DUP3 DIV DUP5 EQ DUP4 ISZERO OR PUSH2 0x205A JUMPI PUSH2 0x2059 PUSH2 0x1F30 JUMP JUMPDEST JUMPDEST POP SWAP3 SWAP2 POP POP JUMP JUMPDEST PUSH0 PUSH2 0x206B DUP3 PUSH2 0x1B6C JUMP JUMPDEST SWAP2 POP PUSH32 0xFFFFFFFFFFFFFFFFFFFFFFFFFFFFFFFFFFFFFFFFFFFFFFFFFFFFFFFFFFFFFFFF DUP3 SUB PUSH2 0x209D JUMPI PUSH2 0x209C PUSH2 0x1F30 JUMP JUMPDEST JUMPDEST PUSH1 0x1 DUP3 ADD SWAP1 POP SWAP2 SWAP1 POP JUMP JUMPDEST PUSH0 DUP2 MLOAD SWAP1 POP PUSH2 0x20B6 DUP2 PUSH2 0x1C06 JUMP JUMPDEST SWAP3 SWAP2 POP POP JUMP JUMPDEST PUSH0 PUSH1 0x20 DUP3 DUP5 SUB SLT ISZERO PUSH2 0x20D1 JUMPI PUSH2 0x20D0 PUSH2 0x1BFE JUMP JUMPDEST JUMPDEST PUSH0 PUSH2 0x20DE DUP5 DUP3 DUP6 ADD PUSH2 0x20A8 JUMP JUMPDEST SWAP2 POP POP SWAP3 SWAP2 POP POP JUMP JUMPDEST PUSH32 0x4E487B7100000000000000000000000000000000000000000000000000000000 PUSH0 MSTORE PUSH1 0x32 PUSH1 0x4 MSTORE PUSH1 0x24 PUSH0 REVERT JUMPDEST PUSH0 DUP1 REVERT JUMPDEST PUSH0 DUP1 REVERT JUMPDEST PUSH0 DUP1 DUP6 DUP6 GT ISZERO PUSH2 0x212F JUMPI PUSH2 0x212E PUSH2 0x2114 JUMP JUMPDEST JUMPDEST DUP4 DUP7 GT ISZERO PUSH2 0x2140 JUMPI PUSH2 0x213F PUSH2 0x2118 JUMP JUMPDEST JUMPDEST PUSH1 0x1 DUP6 MUL DUP4 ADD SWAP2 POP DUP5 DUP7 SUB SWAP1 POP SWAP5 POP SWAP5 SWAP3 POP POP POP JUMP JUMPDEST PUSH0 DUP3 SWAP1 POP SWAP3 SWAP2 POP POP JUMP JUMPDEST PUSH0 PUSH32 0xFFFFFFFFFFFFFFFFFFFFFFFFFFFFFFFFFFFFFFFF000000000000000000000000 DUP3 AND SWAP1 POP SWAP2 SWAP1 POP JUMP JUMPDEST PUSH0 DUP3 DUP3 SHL SWAP1 POP SWAP3 SWAP2 POP POP JUMP JUMPDEST PUSH0 PUSH2 0x21A2 DUP4 DUP4 PUSH2 0x2156 JUMP JUMPDEST DUP3 PUSH2 0x21AD DUP2 CALLDATALOAD PUSH2 0x2160 JUMP JUMPDEST SWAP3 POP PUSH1 0x14 DUP3 LT ISZERO PUSH2 0x21ED JUMPI PUSH2 0x21E8 PUSH32 0xFFFFFFFFFFFFFFFFFFFFFFFFFFFFFFFFFFFFFFFF000000000000000000000000 DUP4 PUSH1 0x14 SUB PUSH1 0x8 MUL PUSH2 0x218B JUMP JUMPDEST DUP4 AND SWAP3 POP JUMPDEST POP POP SWAP3 SWAP2 POP POP JUMP JUMPDEST PUSH0 PUSH1 0x60 DUP3 ADD SWAP1 POP PUSH2 0x2208 PUSH0 DUP4 ADD DUP7 PUSH2 0x1BCD JUMP JUMPDEST PUSH2 0x2215 PUSH1 0x20 DUP4 ADD DUP6 PUSH2 0x1BCD JUMP JUMPDEST PUSH2 0x2222 PUSH1 0x40 DUP4 ADD DUP5 PUSH2 0x1B75 JUMP JUMPDEST SWAP5 SWAP4 POP POP POP POP JUMP JUMPDEST PUSH0 PUSH1 0x40 DUP3 ADD SWAP1 POP PUSH2 0x223D PUSH0 DUP4 ADD DUP6 PUSH2 0x1BCD JUMP JUMPDEST PUSH2 0x224A PUSH1 0x20 DUP4 ADD DUP5 PUSH2 0x1B75 JUMP JUMPDEST SWAP4 SWAP3 POP POP POP JUMP JUMPDEST PUSH2 0x225A DUP2 PUSH2 0x1D28 JUMP JUMPDEST DUP2 EQ PUSH2 0x2264 JUMPI PUSH0 DUP1 REVERT JUMPDEST POP JUMP JUMPDEST PUSH0 DUP2 MLOAD SWAP1 POP PUSH2 0x2275 DUP2 PUSH2 0x2251 JUMP JUMPDEST SWAP3 SWAP2 POP POP JUMP JUMPDEST PUSH0 PUSH1 0x20 DUP3 DUP5 SUB SLT ISZERO PUSH2 0x2290 JUMPI PUSH2 0x228F PUSH2 0x1BFE JUMP JUMPDEST JUMPDEST PUSH0 PUSH2 0x229D DUP5 DUP3 DUP6 ADD PUSH2 0x2267 JUMP JUMPDEST SWAP2 POP POP SWAP3 SWAP2 POP POP JUMP JUMPDEST PUSH0 DUP2 MLOAD SWAP1 POP SWAP2 SWAP1 POP JUMP JUMPDEST PUSH0 DUP2 SWAP1 POP SWAP3 SWAP2 POP POP JUMP JUMPDEST PUSH0 JUMPDEST DUP4 DUP2 LT ISZERO PUSH2 0x22D7 JUMPI DUP1 DUP3 ADD MLOAD DUP2 DUP5 ADD MSTORE PUSH1 0x20 DUP2 ADD SWAP1 POP PUSH2 0x22BC JUMP JUMPDEST PUSH0 DUP5 DUP5 ADD MSTORE POP POP POP POP JUMP JUMPDEST PUSH0 PUSH2 0x22EC DUP3 PUSH2 0x22A6 JUMP JUMPDEST PUSH2 0x22F6 DUP2 DUP6 PUSH2 0x22B0 JUMP JUMPDEST SWAP4 POP PUSH2 0x2306 DUP2 DUP6 PUSH1 0x20 DUP7 ADD PUSH2 0x22BA JUMP JUMPDEST DUP1 DUP5 ADD SWAP2 POP POP SWAP3 SWAP2 POP POP JUMP JUMPDEST PUSH0 PUSH2 0x231D DUP3 DUP5 PUSH2 0x22E2 JUMP JUMPDEST SWAP2 POP DUP2 SWAP1 POP SWAP3 SWAP2 POP POP JUMP INVALID LOG2 PUSH5 0x6970667358 0x22 SLT KECCAK256 PUSH22 0xD5E485304BA92E6FD94C437D8845D95989D8C18B4F0A SUB SWAP10 0xAB DUP4 XOR PUSH22 0x35C58064736F6C6343000814003360E0604052348015 PUSH3 0x10 JUMPI PUSH0 DUP1 REVERT JUMPDEST POP PUSH1 0x40 MLOAD PUSH3 0x27A8 CODESIZE SUB DUP1 PUSH3 0x27A8 DUP4 CODECOPY DUP2 DUP2 ADD PUSH1 0x40 MSTORE DUP2 ADD SWAP1 PUSH3 0x36 SWAP2 SWAP1 PUSH3 0x39C JUMP JUMPDEST DUP2 DUP2 DUP2 DUP2 DUP2 DUP1 PUSH20 0xFFFFFFFFFFFFFFFFFFFFFFFFFFFFFFFFFFFFFFFF AND PUSH1 0x80 DUP2 PUSH20 0xFFFFFFFFFFFFFFFFFFFFFFFFFFFFFFFFFFFFFFFF AND DUP2 MSTORE POP POP POP PUSH1 0x1 PUSH0 DUP2 SWAP1 SSTORE POP DUP1 PUSH20 0xFFFFFFFFFFFFFFFFFFFFFFFFFFFFFFFFFFFFFFFF AND PUSH1 0xA0 DUP2 PUSH20 0xFFFFFFFFFFFFFFFFFFFFFFFFFFFFFFFFFFFFFFFF AND DUP2 MSTORE POP POP DUP1 PUSH20 0xFFFFFFFFFFFFFFFFFFFFFFFFFFFFFFFFFFFFFFFF AND PUSH4 0x1F850716 PUSH1 0x40 MLOAD DUP2 PUSH4 0xFFFFFFFF AND PUSH1 0xE0 SHL DUP2 MSTORE PUSH1 0x4 ADD PUSH1 0x20 PUSH1 0x40 MLOAD DUP1 DUP4 SUB DUP2 DUP7 GAS STATICCALL ISZERO DUP1 ISZERO PUSH3 0xF5 JUMPI RETURNDATASIZE PUSH0 DUP1 RETURNDATACOPY RETURNDATASIZE PUSH0 REVERT JUMPDEST POP POP POP POP PUSH1 0x40 MLOAD RETURNDATASIZE PUSH1 0x1F NOT PUSH1 0x1F DUP3 ADD AND DUP3 ADD DUP1 PUSH1 0x40 MSTORE POP DUP2 ADD SWAP1 PUSH3 0x11B SWAP2 SWAP1 PUSH3 0x3E1 JUMP JUMPDEST PUSH20 0xFFFFFFFFFFFFFFFFFFFFFFFFFFFFFFFFFFFFFFFF AND PUSH1 0xC0 DUP2 PUSH20 0xFFFFFFFFFFFFFFFFFFFFFFFFFFFFFFFFFFFFFFFF AND DUP2 MSTORE POP POP POP POP PUSH0 DUP2 PUSH20 0xFFFFFFFFFFFFFFFFFFFFFFFFFFFFFFFFFFFFFFFF AND PUSH4 0x1F850716 PUSH1 0x40 MLOAD DUP2 PUSH4 0xFFFFFFFF AND PUSH1 0xE0 SHL DUP2 MSTORE PUSH1 0x4 ADD PUSH1 0x20 PUSH1 0x40 MLOAD DUP1 DUP4 SUB DUP2 DUP7 GAS STATICCALL ISZERO DUP1 ISZERO PUSH3 0x19B JUMPI RETURNDATASIZE PUSH0 DUP1 RETURNDATACOPY RETURNDATASIZE PUSH0 REVERT JUMPDEST POP POP POP POP PUSH1 0x40 MLOAD RETURNDATASIZE PUSH1 0x1F NOT PUSH1 0x1F DUP3 ADD AND DUP3 ADD DUP1 PUSH1 0x40 MSTORE POP DUP2 ADD SWAP1 PUSH3 0x1C1 SWAP2 SWAP1 PUSH3 0x3E1 JUMP JUMPDEST SWAP1 POP PUSH0 DUP2 PUSH20 0xFFFFFFFFFFFFFFFFFFFFFFFFFFFFFFFFFFFFFFFF AND PUSH4 0xFC0C546A PUSH1 0x40 MLOAD DUP2 PUSH4 0xFFFFFFFF AND PUSH1 0xE0 SHL DUP2 MSTORE PUSH1 0x4 ADD PUSH1 0x20 PUSH1 0x40 MLOAD DUP1 DUP4 SUB DUP2 DUP7 GAS STATICCALL ISZERO DUP1 ISZERO PUSH3 0x20E JUMPI RETURNDATASIZE PUSH0 DUP1 RETURNDATACOPY RETURNDATASIZE PUSH0 REVERT JUMPDEST POP POP POP POP PUSH1 0x40 MLOAD RETURNDATASIZE PUSH1 0x1F NOT PUSH1 0x1F DUP3 ADD AND DUP3 ADD DUP1 PUSH1 0x40 MSTORE POP DUP2 ADD SWAP1 PUSH3 0x234 SWAP2 SWAP1 PUSH3 0x3E1 JUMP JUMPDEST SWAP1 POP PUSH1 0x6 DUP2 SWAP1 DUP1 PUSH1 0x1 DUP2 SLOAD ADD DUP1 DUP3 SSTORE DUP1 SWAP2 POP POP PUSH1 0x1 SWAP1 SUB SWAP1 PUSH0 MSTORE PUSH1 0x20 PUSH0 KECCAK256 ADD PUSH0 SWAP1 SWAP2 SWAP1 SWAP2 SWAP1 SWAP2 PUSH2 0x100 EXP DUP2 SLOAD DUP2 PUSH20 0xFFFFFFFFFFFFFFFFFFFFFFFFFFFFFFFFFFFFFFFF MUL NOT AND SWAP1 DUP4 PUSH20 0xFFFFFFFFFFFFFFFFFFFFFFFFFFFFFFFFFFFFFFFF AND MUL OR SWAP1 SSTORE POP PUSH1 0x1 PUSH1 0x7 PUSH0 DUP4 PUSH20 0xFFFFFFFFFFFFFFFFFFFFFFFFFFFFFFFFFFFFFFFF AND PUSH20 0xFFFFFFFFFFFFFFFFFFFFFFFFFFFFFFFFFFFFFFFF AND DUP2 MSTORE PUSH1 0x20 ADD SWAP1 DUP2 MSTORE PUSH1 0x20 ADD PUSH0 KECCAK256 PUSH0 PUSH2 0x100 EXP DUP2 SLOAD DUP2 PUSH1 0xFF MUL NOT AND SWAP1 DUP4 ISZERO ISZERO MUL OR SWAP1 SSTORE POP DUP2 PUSH1 0x1 PUSH0 PUSH2 0x100 EXP DUP2 SLOAD DUP2 PUSH20 0xFFFFFFFFFFFFFFFFFFFFFFFFFFFFFFFFFFFFFFFF MUL NOT AND SWAP1 DUP4 PUSH20 0xFFFFFFFFFFFFFFFFFFFFFFFFFFFFFFFFFFFFFFFF AND MUL OR SWAP1 SSTORE POP POP POP POP POP POP POP PUSH3 0x411 JUMP JUMPDEST PUSH0 DUP1 REVERT JUMPDEST PUSH0 PUSH20 0xFFFFFFFFFFFFFFFFFFFFFFFFFFFFFFFFFFFFFFFF DUP3 AND SWAP1 POP SWAP2 SWAP1 POP JUMP JUMPDEST PUSH0 PUSH3 0x366 DUP3 PUSH3 0x33B JUMP JUMPDEST SWAP1 POP SWAP2 SWAP1 POP JUMP JUMPDEST PUSH3 0x378 DUP2 PUSH3 0x35A JUMP JUMPDEST DUP2 EQ PUSH3 0x383 JUMPI PUSH0 DUP1 REVERT JUMPDEST POP JUMP JUMPDEST PUSH0 DUP2 MLOAD SWAP1 POP PUSH3 0x396 DUP2 PUSH3 0x36D JUMP JUMPDEST SWAP3 SWAP2 POP POP JUMP JUMPDEST PUSH0 DUP1 PUSH1 0x40 DUP4 DUP6 SUB SLT ISZERO PUSH3 0x3B5 JUMPI PUSH3 0x3B4 PUSH3 0x337 JUMP JUMPDEST JUMPDEST PUSH0 PUSH3 0x3C4 DUP6 DUP3 DUP7 ADD PUSH3 0x386 JUMP JUMPDEST SWAP3 POP POP PUSH1 0x20 PUSH3 0x3D7 DUP6 DUP3 DUP7 ADD PUSH3 0x386 JUMP JUMPDEST SWAP2 POP POP SWAP3 POP SWAP3 SWAP1 POP JUMP JUMPDEST PUSH0 PUSH1 0x20 DUP3 DUP5 SUB SLT ISZERO PUSH3 0x3F9 JUMPI PUSH3 0x3F8 PUSH3 0x337 JUMP JUMPDEST JUMPDEST PUSH0 PUSH3 0x408 DUP5 DUP3 DUP6 ADD PUSH3 0x386 JUMP JUMPDEST SWAP2 POP POP SWAP3 SWAP2 POP POP JUMP JUMPDEST PUSH1 0x80 MLOAD PUSH1 0xA0 MLOAD PUSH1 0xC0 MLOAD PUSH2 0x2357 PUSH3 0x451 PUSH0 CODECOPY PUSH0 DUP2 DUP2 PUSH2 0x50B ADD MSTORE DUP2 DUP2 PUSH2 0x1084 ADD MSTORE PUSH2 0x115D ADD MSTORE PUSH0 DUP2 DUP2 PUSH2 0x7C2 ADD MSTORE PUSH2 0xD2C ADD MSTORE PUSH0 PUSH2 0x9B7 ADD MSTORE PUSH2 0x2357 PUSH0 RETURN INVALID PUSH1 0x80 PUSH1 0x40 MSTORE CALLVALUE DUP1 ISZERO PUSH2 0xF JUMPI PUSH0 DUP1 REVERT JUMPDEST POP PUSH1 0x4 CALLDATASIZE LT PUSH2 0x156 JUMPI PUSH0 CALLDATALOAD PUSH1 0xE0 SHR DUP1 PUSH4 0x92777B29 GT PUSH2 0xC1 JUMPI DUP1 PUSH4 0xE8111A12 GT PUSH2 0x7A JUMPI DUP1 PUSH4 0xE8111A12 EQ PUSH2 0x415 JUMPI DUP1 PUSH4 0xF25E55A5 EQ PUSH2 0x433 JUMPI DUP1 PUSH4 0xF301AF42 EQ PUSH2 0x463 JUMPI DUP1 PUSH4 0xF3207723 EQ PUSH2 0x493 JUMPI DUP1 PUSH4 0xF5F8D365 EQ PUSH2 0x4AF JUMPI DUP1 PUSH4 0xF7412BAF EQ PUSH2 0x4CB JUMPI PUSH2 0x156 JUMP JUMPDEST DUP1 PUSH4 0x92777B29 EQ PUSH2 0x32F JUMPI DUP1 PUSH4 0x9CC7F708 EQ PUSH2 0x35F JUMPI DUP1 PUSH4 0x9E2BF22C EQ PUSH2 0x38F JUMPI DUP1 PUSH4 0xA28D4C9C EQ PUSH2 0x3AB JUMPI DUP1 PUSH4 0xB66503CF EQ PUSH2 0x3DB JUMPI DUP1 PUSH4 0xE6886396 EQ PUSH2 0x3F7 JUMPI PUSH2 0x156 JUMP JUMPDEST DUP1 PUSH4 0x49DCC204 GT PUSH2 0x113 JUMPI DUP1 PUSH4 0x49DCC204 EQ PUSH2 0x220 JUMPI DUP1 PUSH4 0x4D5CE038 EQ PUSH2 0x251 JUMPI DUP1 PUSH4 0x50589793 EQ PUSH2 0x281 JUMPI DUP1 PUSH4 0x572B6C05 EQ PUSH2 0x2B1 JUMPI DUP1 PUSH4 0x76F4BE36 EQ PUSH2 0x2E1 JUMPI DUP1 PUSH4 0x7DA0A877 EQ PUSH2 0x311 JUMPI PUSH2 0x156 JUMP JUMPDEST DUP1 PUSH4 0x18160DDD EQ PUSH2 0x15A JUMPI DUP1 PUSH4 0x1BE05289 EQ PUSH2 0x178 JUMPI DUP1 PUSH4 0x1F850716 EQ PUSH2 0x196 JUMPI DUP1 PUSH4 0x3E491D47 EQ PUSH2 0x1B4 JUMPI DUP1 PUSH4 0x456CB7C6 EQ PUSH2 0x1E4 JUMPI DUP1 PUSH4 0x46C96AAC EQ PUSH2 0x202 JUMPI JUMPDEST PUSH0 DUP1 REVERT JUMPDEST PUSH2 0x162 PUSH2 0x4FC JUMP JUMPDEST PUSH1 0x40 MLOAD PUSH2 0x16F SWAP2 SWAP1 PUSH2 0x1B7D JUMP JUMPDEST PUSH1 0x40 MLOAD DUP1 SWAP2 SUB SWAP1 RETURN JUMPDEST PUSH2 0x180 PUSH2 0x502 JUMP JUMPDEST PUSH1 0x40 MLOAD PUSH2 0x18D SWAP2 SWAP1 PUSH2 0x1B7D JUMP JUMPDEST PUSH1 0x40 MLOAD DUP1 SWAP2 SUB SWAP1 RETURN JUMPDEST PUSH2 0x19E PUSH2 0x509 JUMP JUMPDEST PUSH1 0x40 MLOAD PUSH2 0x1AB SWAP2 SWAP1 PUSH2 0x1BD5 JUMP JUMPDEST PUSH1 0x40 MLOAD DUP1 SWAP2 SUB SWAP1 RETURN JUMPDEST PUSH2 0x1CE PUSH1 0x4 DUP1 CALLDATASIZE SUB DUP2 ADD SWAP1 PUSH2 0x1C9 SWAP2 SWAP1 PUSH2 0x1C53 JUMP JUMPDEST PUSH2 0x52D JUMP JUMPDEST PUSH1 0x40 MLOAD PUSH2 0x1DB SWAP2 SWAP1 PUSH2 0x1B7D JUMP JUMPDEST PUSH1 0x40 MLOAD DUP1 SWAP2 SUB SWAP1 RETURN JUMPDEST PUSH2 0x1EC PUSH2 0x79B JUMP JUMPDEST PUSH1 0x40 MLOAD PUSH2 0x1F9 SWAP2 SWAP1 PUSH2 0x1BD5 JUMP JUMPDEST PUSH1 0x40 MLOAD DUP1 SWAP2 SUB SWAP1 RETURN JUMPDEST PUSH2 0x20A PUSH2 0x7C0 JUMP JUMPDEST PUSH1 0x40 MLOAD PUSH2 0x217 SWAP2 SWAP1 PUSH2 0x1BD5 JUMP JUMPDEST PUSH1 0x40 MLOAD DUP1 SWAP2 SUB SWAP1 RETURN JUMPDEST PUSH2 0x23A PUSH1 0x4 DUP1 CALLDATASIZE SUB DUP2 ADD SWAP1 PUSH2 0x235 SWAP2 SWAP1 PUSH2 0x1C91 JUMP JUMPDEST PUSH2 0x7E4 JUMP JUMPDEST PUSH1 0x40 MLOAD PUSH2 0x248 SWAP3 SWAP2 SWAP1 PUSH2 0x1CCF JUMP JUMPDEST PUSH1 0x40 MLOAD DUP1 SWAP2 SUB SWAP1 RETURN JUMPDEST PUSH2 0x26B PUSH1 0x4 DUP1 CALLDATASIZE SUB DUP2 ADD SWAP1 PUSH2 0x266 SWAP2 SWAP1 PUSH2 0x1CF6 JUMP JUMPDEST PUSH2 0x80F JUMP JUMPDEST PUSH1 0x40 MLOAD PUSH2 0x278 SWAP2 SWAP1 PUSH2 0x1D3B JUMP JUMPDEST PUSH1 0x40 MLOAD DUP1 SWAP2 SUB SWAP1 RETURN JUMPDEST PUSH2 0x29B PUSH1 0x4 DUP1 CALLDATASIZE SUB DUP2 ADD SWAP1 PUSH2 0x296 SWAP2 SWAP1 PUSH2 0x1D54 JUMP JUMPDEST PUSH2 0x82C JUMP JUMPDEST PUSH1 0x40 MLOAD PUSH2 0x2A8 SWAP2 SWAP1 PUSH2 0x1B7D JUMP JUMPDEST PUSH1 0x40 MLOAD DUP1 SWAP2 SUB SWAP1 RETURN JUMPDEST PUSH2 0x2CB PUSH1 0x4 DUP1 CALLDATASIZE SUB DUP2 ADD SWAP1 PUSH2 0x2C6 SWAP2 SWAP1 PUSH2 0x1CF6 JUMP JUMPDEST PUSH2 0x841 JUMP JUMPDEST PUSH1 0x40 MLOAD PUSH2 0x2D8 SWAP2 SWAP1 PUSH2 0x1D3B JUMP JUMPDEST PUSH1 0x40 MLOAD DUP1 SWAP2 SUB SWAP1 RETURN JUMPDEST PUSH2 0x2FB PUSH1 0x4 DUP1 CALLDATASIZE SUB DUP2 ADD SWAP1 PUSH2 0x2F6 SWAP2 SWAP1 PUSH2 0x1D54 JUMP JUMPDEST PUSH2 0x87F JUMP JUMPDEST PUSH1 0x40 MLOAD PUSH2 0x308 SWAP2 SWAP1 PUSH2 0x1B7D JUMP JUMPDEST PUSH1 0x40 MLOAD DUP1 SWAP2 SUB SWAP1 RETURN JUMPDEST PUSH2 0x319 PUSH2 0x9B4 JUMP JUMPDEST PUSH1 0x40 MLOAD PUSH2 0x326 SWAP2 SWAP1 PUSH2 0x1BD5 JUMP JUMPDEST PUSH1 0x40 MLOAD DUP1 SWAP2 SUB SWAP1 RETURN JUMPDEST PUSH2 0x349 PUSH1 0x4 DUP1 CALLDATASIZE SUB DUP2 ADD SWAP1 PUSH2 0x344 SWAP2 SWAP1 PUSH2 0x1C53 JUMP JUMPDEST PUSH2 0x9DB JUMP JUMPDEST PUSH1 0x40 MLOAD PUSH2 0x356 SWAP2 SWAP1 PUSH2 0x1B7D JUMP JUMPDEST PUSH1 0x40 MLOAD DUP1 SWAP2 SUB SWAP1 RETURN JUMPDEST PUSH2 0x379 PUSH1 0x4 DUP1 CALLDATASIZE SUB DUP2 ADD SWAP1 PUSH2 0x374 SWAP2 SWAP1 PUSH2 0x1D54 JUMP JUMPDEST PUSH2 0x9FB JUMP JUMPDEST PUSH1 0x40 MLOAD PUSH2 0x386 SWAP2 SWAP1 PUSH2 0x1B7D JUMP JUMPDEST PUSH1 0x40 MLOAD DUP1 SWAP2 SUB SWAP1 RETURN JUMPDEST PUSH2 0x3A9 PUSH1 0x4 DUP1 CALLDATASIZE SUB DUP2 ADD SWAP1 PUSH2 0x3A4 SWAP2 SWAP1 PUSH2 0x1C91 JUMP JUMPDEST PUSH2 0xA10 JUMP JUMPDEST STOP JUMPDEST PUSH2 0x3C5 PUSH1 0x4 DUP1 CALLDATASIZE SUB DUP2 ADD SWAP1 PUSH2 0x3C0 SWAP2 SWAP1 PUSH2 0x1C91 JUMP JUMPDEST PUSH2 0xB57 JUMP JUMPDEST PUSH1 0x40 MLOAD PUSH2 0x3D2 SWAP2 SWAP1 PUSH2 0x1B7D JUMP JUMPDEST PUSH1 0x40 MLOAD DUP1 SWAP2 SUB SWAP1 RETURN JUMPDEST PUSH2 0x3F5 PUSH1 0x4 DUP1 CALLDATASIZE SUB DUP2 ADD SWAP1 PUSH2 0x3F0 SWAP2 SWAP1 PUSH2 0x1C53 JUMP JUMPDEST PUSH2 0xCC9 JUMP JUMPDEST STOP JUMPDEST PUSH2 0x3FF PUSH2 0xEC6 JUMP JUMPDEST PUSH1 0x40 MLOAD PUSH2 0x40C SWAP2 SWAP1 PUSH2 0x1B7D JUMP JUMPDEST PUSH1 0x40 MLOAD DUP1 SWAP2 SUB SWAP1 RETURN JUMPDEST PUSH2 0x41D PUSH2 0xED2 JUMP JUMPDEST PUSH1 0x40 MLOAD PUSH2 0x42A SWAP2 SWAP1 PUSH2 0x1B7D JUMP JUMPDEST PUSH1 0x40 MLOAD DUP1 SWAP2 SUB SWAP1 RETURN JUMPDEST PUSH2 0x44D PUSH1 0x4 DUP1 CALLDATASIZE SUB DUP2 ADD SWAP1 PUSH2 0x448 SWAP2 SWAP1 PUSH2 0x1C53 JUMP JUMPDEST PUSH2 0xED8 JUMP JUMPDEST PUSH1 0x40 MLOAD PUSH2 0x45A SWAP2 SWAP1 PUSH2 0x1B7D JUMP JUMPDEST PUSH1 0x40 MLOAD DUP1 SWAP2 SUB SWAP1 RETURN JUMPDEST PUSH2 0x47D PUSH1 0x4 DUP1 CALLDATASIZE SUB DUP2 ADD SWAP1 PUSH2 0x478 SWAP2 SWAP1 PUSH2 0x1D54 JUMP JUMPDEST PUSH2 0xEF8 JUMP JUMPDEST PUSH1 0x40 MLOAD PUSH2 0x48A SWAP2 SWAP1 PUSH2 0x1BD5 JUMP JUMPDEST PUSH1 0x40 MLOAD DUP1 SWAP2 SUB SWAP1 RETURN JUMPDEST PUSH2 0x4AD PUSH1 0x4 DUP1 CALLDATASIZE SUB DUP2 ADD SWAP1 PUSH2 0x4A8 SWAP2 SWAP1 PUSH2 0x1C91 JUMP JUMPDEST PUSH2 0xF33 JUMP JUMPDEST STOP JUMPDEST PUSH2 0x4C9 PUSH1 0x4 DUP1 CALLDATASIZE SUB DUP2 ADD SWAP1 PUSH2 0x4C4 SWAP2 SWAP1 PUSH2 0x1ECF JUMP JUMPDEST PUSH2 0x107A JUMP JUMPDEST STOP JUMPDEST PUSH2 0x4E5 PUSH1 0x4 DUP1 CALLDATASIZE SUB DUP2 ADD SWAP1 PUSH2 0x4E0 SWAP2 SWAP1 PUSH2 0x1D54 JUMP JUMPDEST PUSH2 0x120D JUMP JUMPDEST PUSH1 0x40 MLOAD PUSH2 0x4F3 SWAP3 SWAP2 SWAP1 PUSH2 0x1CCF JUMP JUMPDEST PUSH1 0x40 MLOAD DUP1 SWAP2 SUB SWAP1 RETURN JUMPDEST PUSH1 0x2 SLOAD DUP2 JUMP JUMPDEST PUSH3 0x93A80 DUP2 JUMP JUMPDEST PUSH32 0x0 DUP2 JUMP JUMPDEST PUSH0 DUP1 PUSH1 0x9 PUSH0 DUP5 DUP2 MSTORE PUSH1 0x20 ADD SWAP1 DUP2 MSTORE PUSH1 0x20 ADD PUSH0 KECCAK256 SLOAD SUB PUSH2 0x54E JUMPI PUSH0 SWAP1 POP PUSH2 0x795 JUMP JUMPDEST PUSH0 DUP1 PUSH1 0x1 SWAP1 POP PUSH0 PUSH2 0x5AA PUSH1 0x5 PUSH0 DUP9 PUSH20 0xFFFFFFFFFFFFFFFFFFFFFFFFFFFFFFFFFFFFFFFF AND PUSH20 0xFFFFFFFFFFFFFFFFFFFFFFFFFFFFFFFFFFFFFFFF AND DUP2 MSTORE PUSH1 0x20 ADD SWAP1 DUP2 MSTORE PUSH1 0x20 ADD PUSH0 KECCAK256 PUSH0 DUP8 DUP2 MSTORE PUSH1 0x20 ADD SWAP1 DUP2 MSTORE PUSH1 0x20 ADD PUSH0 KECCAK256 SLOAD PUSH2 0x122D JUMP JUMPDEST SWAP1 POP PUSH0 PUSH2 0x5B7 DUP7 DUP4 PUSH2 0xB57 JUMP JUMPDEST SWAP1 POP PUSH0 PUSH1 0x8 PUSH0 DUP9 DUP2 MSTORE PUSH1 0x20 ADD SWAP1 DUP2 MSTORE PUSH1 0x20 ADD PUSH0 KECCAK256 PUSH0 DUP4 DUP2 MSTORE PUSH1 0x20 ADD SWAP1 DUP2 MSTORE PUSH1 0x20 ADD PUSH0 KECCAK256 PUSH1 0x40 MLOAD DUP1 PUSH1 0x40 ADD PUSH1 0x40 MSTORE SWAP1 DUP2 PUSH0 DUP3 ADD SLOAD DUP2 MSTORE PUSH1 0x20 ADD PUSH1 0x1 DUP3 ADD SLOAD DUP2 MSTORE POP POP SWAP1 POP PUSH2 0x60F DUP4 PUSH2 0x60A DUP4 PUSH0 ADD MLOAD PUSH2 0x122D JUMP JUMPDEST PUSH2 0x124B JUMP JUMPDEST SWAP3 POP PUSH0 PUSH3 0x93A80 DUP5 PUSH2 0x620 TIMESTAMP PUSH2 0x122D JUMP JUMPDEST PUSH2 0x62A SWAP2 SWAP1 PUSH2 0x1F56 JUMP JUMPDEST PUSH2 0x634 SWAP2 SWAP1 PUSH2 0x1FB6 JUMP JUMPDEST SWAP1 POP PUSH0 DUP2 GT ISZERO PUSH2 0x78B JUMPI PUSH0 JUMPDEST DUP2 DUP2 LT ISZERO PUSH2 0x789 JUMPI PUSH2 0x66C DUP10 PUSH1 0x1 PUSH3 0x93A80 DUP9 PUSH2 0x65D SWAP2 SWAP1 PUSH2 0x1FE6 JUMP JUMPDEST PUSH2 0x667 SWAP2 SWAP1 PUSH2 0x1F56 JUMP JUMPDEST PUSH2 0xB57 JUMP JUMPDEST SWAP4 POP PUSH1 0x8 PUSH0 DUP11 DUP2 MSTORE PUSH1 0x20 ADD SWAP1 DUP2 MSTORE PUSH1 0x20 ADD PUSH0 KECCAK256 PUSH0 DUP6 DUP2 MSTORE PUSH1 0x20 ADD SWAP1 DUP2 MSTORE PUSH1 0x20 ADD PUSH0 KECCAK256 PUSH1 0x40 MLOAD DUP1 PUSH1 0x40 ADD PUSH1 0x40 MSTORE SWAP1 DUP2 PUSH0 DUP3 ADD SLOAD DUP2 MSTORE PUSH1 0x20 ADD PUSH1 0x1 DUP3 ADD SLOAD DUP2 MSTORE POP POP SWAP3 POP PUSH2 0x6EF PUSH1 0xA PUSH0 PUSH2 0x6D7 PUSH1 0x1 PUSH3 0x93A80 DUP11 PUSH2 0x6C8 SWAP2 SWAP1 PUSH2 0x1FE6 JUMP JUMPDEST PUSH2 0x6D2 SWAP2 SWAP1 PUSH2 0x1F56 JUMP JUMPDEST PUSH2 0x87F JUMP JUMPDEST DUP2 MSTORE PUSH1 0x20 ADD SWAP1 DUP2 MSTORE PUSH1 0x20 ADD PUSH0 KECCAK256 PUSH1 0x1 ADD SLOAD PUSH1 0x1 PUSH2 0x124B JUMP JUMPDEST SWAP6 POP DUP6 PUSH1 0x4 PUSH0 DUP13 PUSH20 0xFFFFFFFFFFFFFFFFFFFFFFFFFFFFFFFFFFFFFFFF AND PUSH20 0xFFFFFFFFFFFFFFFFFFFFFFFFFFFFFFFFFFFFFFFF AND DUP2 MSTORE PUSH1 0x20 ADD SWAP1 DUP2 MSTORE PUSH1 0x20 ADD PUSH0 KECCAK256 PUSH0 DUP8 DUP2 MSTORE PUSH1 0x20 ADD SWAP1 DUP2 MSTORE PUSH1 0x20 ADD PUSH0 KECCAK256 SLOAD DUP5 PUSH1 0x20 ADD MLOAD PUSH2 0x74E SWAP2 SWAP1 PUSH2 0x2019 JUMP JUMPDEST PUSH2 0x758 SWAP2 SWAP1 PUSH2 0x1FB6 JUMP JUMPDEST DUP8 PUSH2 0x763 SWAP2 SWAP1 PUSH2 0x1FE6 JUMP JUMPDEST SWAP7 POP PUSH3 0x93A80 DUP6 PUSH2 0x774 SWAP2 SWAP1 PUSH2 0x1FE6 JUMP JUMPDEST SWAP5 POP DUP1 DUP1 PUSH2 0x781 SWAP1 PUSH2 0x205A JUMP JUMPDEST SWAP2 POP POP PUSH2 0x640 JUMP JUMPDEST POP JUMPDEST DUP6 SWAP7 POP POP POP POP POP POP POP JUMPDEST SWAP3 SWAP2 POP POP JUMP JUMPDEST PUSH1 0x1 PUSH0 SWAP1 SLOAD SWAP1 PUSH2 0x100 EXP SWAP1 DIV PUSH20 0xFFFFFFFFFFFFFFFFFFFFFFFFFFFFFFFFFFFFFFFF AND DUP2 JUMP JUMPDEST PUSH32 0x0 DUP2 JUMP JUMPDEST PUSH1 0x8 PUSH1 0x20 MSTORE DUP2 PUSH0 MSTORE PUSH1 0x40 PUSH0 KECCAK256 PUSH1 0x20 MSTORE DUP1 PUSH0 MSTORE PUSH1 0x40 PUSH0 KECCAK256 PUSH0 SWAP2 POP SWAP2 POP POP DUP1 PUSH0 ADD SLOAD SWAP1 DUP1 PUSH1 0x1 ADD SLOAD SWAP1 POP DUP3 JUMP JUMPDEST PUSH1 0x7 PUSH1 0x20 MSTORE DUP1 PUSH0 MSTORE PUSH1 0x40 PUSH0 KECCAK256 PUSH0 SWAP2 POP SLOAD SWAP1 PUSH2 0x100 EXP SWAP1 DIV PUSH1 0xFF AND DUP2 JUMP JUMPDEST PUSH1 0x9 PUSH1 0x20 MSTORE DUP1 PUSH0 MSTORE PUSH1 0x40 PUSH0 KECCAK256 PUSH0 SWAP2 POP SWAP1 POP SLOAD DUP2 JUMP JUMPDEST PUSH0 PUSH2 0x84A PUSH2 0x9B4 JUMP JUMPDEST PUSH20 0xFFFFFFFFFFFFFFFFFFFFFFFFFFFFFFFFFFFFFFFF AND DUP3 PUSH20 0xFFFFFFFFFFFFFFFFFFFFFFFFFFFFFFFFFFFFFFFF AND EQ SWAP1 POP SWAP2 SWAP1 POP JUMP JUMPDEST PUSH0 DUP1 PUSH1 0xB SLOAD SWAP1 POP PUSH0 DUP2 SUB PUSH2 0x896 JUMPI PUSH0 SWAP2 POP POP PUSH2 0x9AF JUMP JUMPDEST DUP3 PUSH1 0xA PUSH0 PUSH1 0x1 DUP5 PUSH2 0x8A7 SWAP2 SWAP1 PUSH2 0x1F56 JUMP JUMPDEST DUP2 MSTORE PUSH1 0x20 ADD SWAP1 DUP2 MSTORE PUSH1 0x20 ADD PUSH0 KECCAK256 PUSH0 ADD SLOAD GT PUSH2 0x8D1 JUMPI PUSH1 0x1 DUP2 PUSH2 0x8C9 SWAP2 SWAP1 PUSH2 0x1F56 JUMP JUMPDEST SWAP2 POP POP PUSH2 0x9AF JUMP JUMPDEST DUP3 PUSH1 0xA PUSH0 DUP1 DUP2 MSTORE PUSH1 0x20 ADD SWAP1 DUP2 MSTORE PUSH1 0x20 ADD PUSH0 KECCAK256 PUSH0 ADD SLOAD GT ISZERO PUSH2 0x8F5 JUMPI PUSH0 SWAP2 POP POP PUSH2 0x9AF JUMP JUMPDEST PUSH0 DUP1 PUSH1 0x1 DUP4 PUSH2 0x904 SWAP2 SWAP1 PUSH2 0x1F56 JUMP JUMPDEST SWAP1 POP JUMPDEST DUP2 DUP2 GT ISZERO PUSH2 0x9A8 JUMPI PUSH0 PUSH1 0x2 DUP4 DUP4 PUSH2 0x91E SWAP2 SWAP1 PUSH2 0x1F56 JUMP JUMPDEST PUSH2 0x928 SWAP2 SWAP1 PUSH2 0x1FB6 JUMP JUMPDEST DUP3 PUSH2 0x933 SWAP2 SWAP1 PUSH2 0x1F56 JUMP JUMPDEST SWAP1 POP PUSH0 PUSH1 0xA PUSH0 DUP4 DUP2 MSTORE PUSH1 0x20 ADD SWAP1 DUP2 MSTORE PUSH1 0x20 ADD PUSH0 KECCAK256 PUSH1 0x40 MLOAD DUP1 PUSH1 0x40 ADD PUSH1 0x40 MSTORE SWAP1 DUP2 PUSH0 DUP3 ADD SLOAD DUP2 MSTORE PUSH1 0x20 ADD PUSH1 0x1 DUP3 ADD SLOAD DUP2 MSTORE POP POP SWAP1 POP DUP7 DUP2 PUSH0 ADD MLOAD SUB PUSH2 0x97E JUMPI DUP2 SWAP6 POP POP POP POP POP POP PUSH2 0x9AF JUMP JUMPDEST DUP7 DUP2 PUSH0 ADD MLOAD LT ISZERO PUSH2 0x991 JUMPI DUP2 SWAP4 POP PUSH2 0x9A1 JUMP JUMPDEST PUSH1 0x1 DUP3 PUSH2 0x99E SWAP2 SWAP1 PUSH2 0x1F56 JUMP JUMPDEST SWAP3 POP JUMPDEST POP POP PUSH2 0x907 JUMP JUMPDEST DUP2 SWAP4 POP POP POP POP JUMPDEST SWAP2 SWAP1 POP JUMP JUMPDEST PUSH0 PUSH32 0x0 SWAP1 POP SWAP1 JUMP JUMPDEST PUSH1 0x4 PUSH1 0x20 MSTORE DUP2 PUSH0 MSTORE PUSH1 0x40 PUSH0 KECCAK256 PUSH1 0x20 MSTORE DUP1 PUSH0 MSTORE PUSH1 0x40 PUSH0 KECCAK256 PUSH0 SWAP2 POP SWAP2 POP POP SLOAD DUP2 JUMP JUMPDEST PUSH1 0x3 PUSH1 0x20 MSTORE DUP1 PUSH0 MSTORE PUSH1 0x40 PUSH0 KECCAK256 PUSH0 SWAP2 POP SWAP1 POP SLOAD DUP2 JUMP JUMPDEST PUSH0 PUSH2 0xA19 PUSH2 0x1263 JUMP JUMPDEST SWAP1 POP PUSH1 0x1 PUSH0 SWAP1 SLOAD SWAP1 PUSH2 0x100 EXP SWAP1 DIV PUSH20 0xFFFFFFFFFFFFFFFFFFFFFFFFFFFFFFFFFFFFFFFF AND PUSH20 0xFFFFFFFFFFFFFFFFFFFFFFFFFFFFFFFFFFFFFFFF AND DUP2 PUSH20 0xFFFFFFFFFFFFFFFFFFFFFFFFFFFFFFFFFFFFFFFF AND EQ PUSH2 0xAA1 JUMPI PUSH1 0x40 MLOAD PUSH32 0xEA8E4EB500000000000000000000000000000000000000000000000000000000 DUP2 MSTORE PUSH1 0x4 ADD PUSH1 0x40 MLOAD DUP1 SWAP2 SUB SWAP1 REVERT JUMPDEST DUP3 PUSH1 0x2 PUSH0 DUP3 DUP3 SLOAD PUSH2 0xAB2 SWAP2 SWAP1 PUSH2 0x1F56 JUMP JUMPDEST SWAP3 POP POP DUP2 SWAP1 SSTORE POP DUP3 PUSH1 0x3 PUSH0 DUP5 DUP2 MSTORE PUSH1 0x20 ADD SWAP1 DUP2 MSTORE PUSH1 0x20 ADD PUSH0 KECCAK256 PUSH0 DUP3 DUP3 SLOAD PUSH2 0xAD9 SWAP2 SWAP1 PUSH2 0x1F56 JUMP JUMPDEST SWAP3 POP POP DUP2 SWAP1 SSTORE POP PUSH2 0xAFB DUP3 PUSH1 0x3 PUSH0 DUP6 DUP2 MSTORE PUSH1 0x20 ADD SWAP1 DUP2 MSTORE PUSH1 0x20 ADD PUSH0 KECCAK256 SLOAD PUSH2 0x12D4 JUMP JUMPDEST PUSH2 0xB03 PUSH2 0x140C JUMP JUMPDEST DUP2 DUP2 PUSH20 0xFFFFFFFFFFFFFFFFFFFFFFFFFFFFFFFFFFFFFFFF AND PUSH32 0xF279E6A1F5E320CCA91135676D9CB6E44CA8A08C0B88342BCDB1144F6511B568 DUP6 PUSH1 0x40 MLOAD PUSH2 0xB4A SWAP2 SWAP1 PUSH2 0x1B7D JUMP JUMPDEST PUSH1 0x40 MLOAD DUP1 SWAP2 SUB SWAP1 LOG3 POP POP POP JUMP JUMPDEST PUSH0 DUP1 PUSH1 0x9 PUSH0 DUP6 DUP2 MSTORE PUSH1 0x20 ADD SWAP1 DUP2 MSTORE PUSH1 0x20 ADD PUSH0 KECCAK256 SLOAD SWAP1 POP PUSH0 DUP2 SUB PUSH2 0xB7D JUMPI PUSH0 SWAP2 POP POP PUSH2 0xCC3 JUMP JUMPDEST DUP3 PUSH1 0x8 PUSH0 DUP7 DUP2 MSTORE PUSH1 0x20 ADD SWAP1 DUP2 MSTORE PUSH1 0x20 ADD PUSH0 KECCAK256 PUSH0 PUSH1 0x1 DUP5 PUSH2 0xB9D SWAP2 SWAP1 PUSH2 0x1F56 JUMP JUMPDEST DUP2 MSTORE PUSH1 0x20 ADD SWAP1 DUP2 MSTORE PUSH1 0x20 ADD PUSH0 KECCAK256 PUSH0 ADD SLOAD GT PUSH2 0xBC7 JUMPI PUSH1 0x1 DUP2 PUSH2 0xBBF SWAP2 SWAP1 PUSH2 0x1F56 JUMP JUMPDEST SWAP2 POP POP PUSH2 0xCC3 JUMP JUMPDEST DUP3 PUSH1 0x8 PUSH0 DUP7 DUP2 MSTORE PUSH1 0x20 ADD SWAP1 DUP2 MSTORE PUSH1 0x20 ADD PUSH0 KECCAK256 PUSH0 DUP1 DUP2 MSTORE PUSH1 0x20 ADD SWAP1 DUP2 MSTORE PUSH1 0x20 ADD PUSH0 KECCAK256 PUSH0 ADD SLOAD GT ISZERO PUSH2 0xBFA JUMPI PUSH0 SWAP2 POP POP PUSH2 0xCC3 JUMP JUMPDEST PUSH0 DUP1 PUSH1 0x1 DUP4 PUSH2 0xC09 SWAP2 SWAP1 PUSH2 0x1F56 JUMP JUMPDEST SWAP1 POP JUMPDEST DUP2 DUP2 GT ISZERO PUSH2 0xCBC JUMPI PUSH0 PUSH1 0x2 DUP4 DUP4 PUSH2 0xC23 SWAP2 SWAP1 PUSH2 0x1F56 JUMP JUMPDEST PUSH2 0xC2D SWAP2 SWAP1 PUSH2 0x1FB6 JUMP JUMPDEST DUP3 PUSH2 0xC38 SWAP2 SWAP1 PUSH2 0x1F56 JUMP JUMPDEST SWAP1 POP PUSH0 PUSH1 0x8 PUSH0 DUP10 DUP2 MSTORE PUSH1 0x20 ADD SWAP1 DUP2 MSTORE PUSH1 0x20 ADD PUSH0 KECCAK256 PUSH0 DUP4 DUP2 MSTORE PUSH1 0x20 ADD SWAP1 DUP2 MSTORE PUSH1 0x20 ADD PUSH0 KECCAK256 PUSH1 0x40 MLOAD DUP1 PUSH1 0x40 ADD PUSH1 0x40 MSTORE SWAP1 DUP2 PUSH0 DUP3 ADD SLOAD DUP2 MSTORE PUSH1 0x20 ADD PUSH1 0x1 DUP3 ADD SLOAD DUP2 MSTORE POP POP SWAP1 POP DUP7 DUP2 PUSH0 ADD MLOAD SUB PUSH2 0xC92 JUMPI DUP2 SWAP6 POP POP POP POP POP POP PUSH2 0xCC3 JUMP JUMPDEST DUP7 DUP2 PUSH0 ADD MLOAD LT ISZERO PUSH2 0xCA5 JUMPI DUP2 SWAP4 POP PUSH2 0xCB5 JUMP JUMPDEST PUSH1 0x1 DUP3 PUSH2 0xCB2 SWAP2 SWAP1 PUSH2 0x1F56 JUMP JUMPDEST SWAP3 POP JUMPDEST POP POP PUSH2 0xC0C JUMP JUMPDEST DUP2 SWAP4 POP POP POP POP JUMPDEST SWAP3 SWAP2 POP POP JUMP JUMPDEST PUSH2 0xCD1 PUSH2 0x14FB JUMP JUMPDEST PUSH0 PUSH2 0xCDA PUSH2 0x1263 JUMP JUMPDEST SWAP1 POP PUSH1 0x7 PUSH0 DUP5 PUSH20 0xFFFFFFFFFFFFFFFFFFFFFFFFFFFFFFFFFFFFFFFF AND PUSH20 0xFFFFFFFFFFFFFFFFFFFFFFFFFFFFFFFFFFFFFFFF AND DUP2 MSTORE PUSH1 0x20 ADD SWAP1 DUP2 MSTORE PUSH1 0x20 ADD PUSH0 KECCAK256 PUSH0 SWAP1 SLOAD SWAP1 PUSH2 0x100 EXP SWAP1 DIV PUSH1 0xFF AND PUSH2 0xEAE JUMPI PUSH32 0x0 PUSH20 0xFFFFFFFFFFFFFFFFFFFFFFFFFFFFFFFFFFFFFFFF AND PUSH4 0xAB37F486 DUP5 PUSH1 0x40 MLOAD DUP3 PUSH4 0xFFFFFFFF AND PUSH1 0xE0 SHL DUP2 MSTORE PUSH1 0x4 ADD PUSH2 0xD83 SWAP2 SWAP1 PUSH2 0x1BD5 JUMP JUMPDEST PUSH1 0x20 PUSH1 0x40 MLOAD DUP1 DUP4 SUB DUP2 DUP7 GAS STATICCALL ISZERO DUP1 ISZERO PUSH2 0xD9E JUMPI RETURNDATASIZE PUSH0 DUP1 RETURNDATACOPY RETURNDATASIZE PUSH0 REVERT JUMPDEST POP POP POP POP PUSH1 0x40 MLOAD RETURNDATASIZE PUSH1 0x1F NOT PUSH1 0x1F DUP3 ADD AND DUP3 ADD DUP1 PUSH1 0x40 MSTORE POP DUP2 ADD SWAP1 PUSH2 0xDC2 SWAP2 SWAP1 PUSH2 0x20CB JUMP JUMPDEST PUSH2 0xDF8 JUMPI PUSH1 0x40 MLOAD PUSH32 0x584A793800000000000000000000000000000000000000000000000000000000 DUP2 MSTORE PUSH1 0x4 ADD PUSH1 0x40 MLOAD DUP1 SWAP2 SUB SWAP1 REVERT JUMPDEST PUSH1 0x1 PUSH1 0x7 PUSH0 DUP6 PUSH20 0xFFFFFFFFFFFFFFFFFFFFFFFFFFFFFFFFFFFFFFFF AND PUSH20 0xFFFFFFFFFFFFFFFFFFFFFFFFFFFFFFFFFFFFFFFF AND DUP2 MSTORE PUSH1 0x20 ADD SWAP1 DUP2 MSTORE PUSH1 0x20 ADD PUSH0 KECCAK256 PUSH0 PUSH2 0x100 EXP DUP2 SLOAD DUP2 PUSH1 0xFF MUL NOT AND SWAP1 DUP4 ISZERO ISZERO MUL OR SWAP1 SSTORE POP PUSH1 0x6 DUP4 SWAP1 DUP1 PUSH1 0x1 DUP2 SLOAD ADD DUP1 DUP3 SSTORE DUP1 SWAP2 POP POP PUSH1 0x1 SWAP1 SUB SWAP1 PUSH0 MSTORE PUSH1 0x20 PUSH0 KECCAK256 ADD PUSH0 SWAP1 SWAP2 SWAP1 SWAP2 SWAP1 SWAP2 PUSH2 0x100 EXP DUP2 SLOAD DUP2 PUSH20 0xFFFFFFFFFFFFFFFFFFFFFFFFFFFFFFFFFFFFFFFF MUL NOT AND SWAP1 DUP4 PUSH20 0xFFFFFFFFFFFFFFFFFFFFFFFFFFFFFFFFFFFFFFFF AND MUL OR SWAP1 SSTORE POP JUMPDEST PUSH2 0xEB9 DUP2 DUP5 DUP5 PUSH2 0x153F JUMP JUMPDEST POP PUSH2 0xEC2 PUSH2 0x167F JUMP JUMPDEST POP POP JUMP JUMPDEST PUSH0 PUSH1 0x6 DUP1 SLOAD SWAP1 POP SWAP1 POP SWAP1 JUMP JUMPDEST PUSH1 0xB SLOAD DUP2 JUMP JUMPDEST PUSH1 0x5 PUSH1 0x20 MSTORE DUP2 PUSH0 MSTORE PUSH1 0x40 PUSH0 KECCAK256 PUSH1 0x20 MSTORE DUP1 PUSH0 MSTORE PUSH1 0x40 PUSH0 KECCAK256 PUSH0 SWAP2 POP SWAP2 POP POP SLOAD DUP2 JUMP JUMPDEST PUSH1 0x6 DUP2 DUP2 SLOAD DUP2 LT PUSH2 0xF07 JUMPI PUSH0 DUP1 REVERT JUMPDEST SWAP1 PUSH0 MSTORE PUSH1 0x20 PUSH0 KECCAK256 ADD PUSH0 SWAP2 POP SLOAD SWAP1 PUSH2 0x100 EXP SWAP1 DIV PUSH20 0xFFFFFFFFFFFFFFFFFFFFFFFFFFFFFFFFFFFFFFFF AND DUP2 JUMP JUMPDEST PUSH0 PUSH2 0xF3C PUSH2 0x1263 JUMP JUMPDEST SWAP1 POP PUSH1 0x1 PUSH0 SWAP1 SLOAD SWAP1 PUSH2 0x100 EXP SWAP1 DIV PUSH20 0xFFFFFFFFFFFFFFFFFFFFFFFFFFFFFFFFFFFFFFFF AND PUSH20 0xFFFFFFFFFFFFFFFFFFFFFFFFFFFFFFFFFFFFFFFF AND DUP2 PUSH20 0xFFFFFFFFFFFFFFFFFFFFFFFFFFFFFFFFFFFFFFFF AND EQ PUSH2 0xFC4 JUMPI PUSH1 0x40 MLOAD PUSH32 0xEA8E4EB500000000000000000000000000000000000000000000000000000000 DUP2 MSTORE PUSH1 0x4 ADD PUSH1 0x40 MLOAD DUP1 SWAP2 SUB SWAP1 REVERT JUMPDEST DUP3 PUSH1 0x2 PUSH0 DUP3 DUP3 SLOAD PUSH2 0xFD5 SWAP2 SWAP1 PUSH2 0x1FE6 JUMP JUMPDEST SWAP3 POP POP DUP2 SWAP1 SSTORE POP DUP3 PUSH1 0x3 PUSH0 DUP5 DUP2 MSTORE PUSH1 0x20 ADD SWAP1 DUP2 MSTORE PUSH1 0x20 ADD PUSH0 KECCAK256 PUSH0 DUP3 DUP3 SLOAD PUSH2 0xFFC SWAP2 SWAP1 PUSH2 0x1FE6 JUMP JUMPDEST SWAP3 POP POP DUP2 SWAP1 SSTORE POP PUSH2 0x101E DUP3 PUSH1 0x3 PUSH0 DUP6 DUP2 MSTORE PUSH1 0x20 ADD SWAP1 DUP2 MSTORE PUSH1 0x20 ADD PUSH0 KECCAK256 SLOAD PUSH2 0x12D4 JUMP JUMPDEST PUSH2 0x1026 PUSH2 0x140C JUMP JUMPDEST DUP2 DUP2 PUSH20 0xFFFFFFFFFFFFFFFFFFFFFFFFFFFFFFFFFFFFFFFF AND PUSH32 0x90890809C654F11D6E72A28FA60149770A0D11EC6C92319D6CEB2BB0A4EA1A15 DUP6 PUSH1 0x40 MLOAD PUSH2 0x106D SWAP2 SWAP1 PUSH2 0x1B7D JUMP JUMPDEST PUSH1 0x40 MLOAD DUP1 SWAP2 SUB SWAP1 LOG3 POP POP POP JUMP JUMPDEST PUSH2 0x1082 PUSH2 0x14FB JUMP JUMPDEST PUSH32 0x0 PUSH20 0xFFFFFFFFFFFFFFFFFFFFFFFFFFFFFFFFFFFFFFFF AND PUSH4 0x430C2081 PUSH2 0x10C6 PUSH2 0x1263 JUMP JUMPDEST DUP5 PUSH1 0x40 MLOAD DUP4 PUSH4 0xFFFFFFFF AND PUSH1 0xE0 SHL DUP2 MSTORE PUSH1 0x4 ADD PUSH2 0x10E4 SWAP3 SWAP2 SWAP1 PUSH2 0x20F6 JUMP JUMPDEST PUSH1 0x20 PUSH1 0x40 MLOAD DUP1 DUP4 SUB DUP2 PUSH0 DUP8 GAS CALL ISZERO DUP1 ISZERO PUSH2 0x1100 JUMPI RETURNDATASIZE PUSH0 DUP1 RETURNDATACOPY RETURNDATASIZE PUSH0 REVERT JUMPDEST POP POP POP POP PUSH1 0x40 MLOAD RETURNDATASIZE PUSH1 0x1F NOT PUSH1 0x1F DUP3 ADD AND DUP3 ADD DUP1 PUSH1 0x40 MSTORE POP DUP2 ADD SWAP1 PUSH2 0x1124 SWAP2 SWAP1 PUSH2 0x20CB JUMP JUMPDEST PUSH2 0x115A JUMPI PUSH1 0x40 MLOAD PUSH32 0xEA8E4EB500000000000000000000000000000000000000000000000000000000 DUP2 MSTORE PUSH1 0x4 ADD PUSH1 0x40 MLOAD DUP1 SWAP2 SUB SWAP1 REVERT JUMPDEST PUSH0 PUSH32 0x0 PUSH20 0xFFFFFFFFFFFFFFFFFFFFFFFFFFFFFFFFFFFFFFFF AND PUSH4 0x6352211E DUP5 PUSH1 0x40 MLOAD DUP3 PUSH4 0xFFFFFFFF AND PUSH1 0xE0 SHL DUP2 MSTORE PUSH1 0x4 ADD PUSH2 0x11B4 SWAP2 SWAP1 PUSH2 0x1B7D JUMP JUMPDEST PUSH1 0x20 PUSH1 0x40 MLOAD DUP1 DUP4 SUB DUP2 DUP7 GAS STATICCALL ISZERO DUP1 ISZERO PUSH2 0x11CF JUMPI RETURNDATASIZE PUSH0 DUP1 RETURNDATACOPY RETURNDATASIZE PUSH0 REVERT JUMPDEST POP POP POP POP PUSH1 0x40 MLOAD RETURNDATASIZE PUSH1 0x1F NOT PUSH1 0x1F DUP3 ADD AND DUP3 ADD DUP1 PUSH1 0x40 MSTORE POP DUP2 ADD SWAP1 PUSH2 0x11F3 SWAP2 SWAP1 PUSH2 0x2131 JUMP JUMPDEST SWAP1 POP PUSH2 0x1200 DUP2 DUP5 DUP5 PUSH2 0x1688 JUMP JUMPDEST POP PUSH2 0x1209 PUSH2 0x167F JUMP JUMPDEST POP POP JUMP JUMPDEST PUSH1 0xA PUSH1 0x20 MSTORE DUP1 PUSH0 MSTORE PUSH1 0x40 PUSH0 KECCAK256 PUSH0 SWAP2 POP SWAP1 POP DUP1 PUSH0 ADD SLOAD SWAP1 DUP1 PUSH1 0x1 ADD SLOAD SWAP1 POP DUP3 JUMP JUMPDEST PUSH0 PUSH3 0x93A80 DUP3 DUP2 PUSH2 0x1241 JUMPI PUSH2 0x1240 PUSH2 0x1F89 JUMP JUMPDEST JUMPDEST MOD DUP3 SUB SWAP1 POP SWAP2 SWAP1 POP JUMP JUMPDEST PUSH0 DUP2 DUP4 GT PUSH2 0x1259 JUMPI DUP2 PUSH2 0x125B JUMP JUMPDEST DUP3 JUMPDEST SWAP1 POP SWAP3 SWAP2 POP POP JUMP JUMPDEST PUSH0 DUP1 PUSH0 CALLDATASIZE SWAP1 POP SWAP1 POP PUSH0 PUSH2 0x1274 PUSH2 0x1811 JUMP JUMPDEST SWAP1 POP PUSH2 0x127F CALLER PUSH2 0x841 JUMP JUMPDEST DUP1 ISZERO PUSH2 0x128B JUMPI POP DUP1 DUP3 LT ISZERO JUMPDEST ISZERO PUSH2 0x12C4 JUMPI PUSH0 CALLDATASIZE DUP3 DUP5 PUSH2 0x129E SWAP2 SWAP1 PUSH2 0x1F56 JUMP JUMPDEST SWAP1 DUP1 SWAP3 PUSH2 0x12AD SWAP4 SWAP3 SWAP2 SWAP1 PUSH2 0x2164 JUMP JUMPDEST SWAP1 PUSH2 0x12B8 SWAP2 SWAP1 PUSH2 0x21DF JUMP JUMPDEST PUSH1 0x60 SHR SWAP3 POP POP POP PUSH2 0x12D1 JUMP JUMPDEST PUSH2 0x12CC PUSH2 0x1819 JUMP JUMPDEST SWAP3 POP POP POP JUMPDEST SWAP1 JUMP JUMPDEST PUSH0 PUSH1 0x9 PUSH0 DUP5 DUP2 MSTORE PUSH1 0x20 ADD SWAP1 DUP2 MSTORE PUSH1 0x20 ADD PUSH0 KECCAK256 SLOAD SWAP1 POP PUSH0 TIMESTAMP SWAP1 POP PUSH0 DUP3 GT DUP1 ISZERO PUSH2 0x1339 JUMPI POP PUSH2 0x1300 DUP2 PUSH2 0x122D JUMP JUMPDEST PUSH2 0x1337 PUSH1 0x8 PUSH0 DUP8 DUP2 MSTORE PUSH1 0x20 ADD SWAP1 DUP2 MSTORE PUSH1 0x20 ADD PUSH0 KECCAK256 PUSH0 PUSH1 0x1 DUP7 PUSH2 0x1322 SWAP2 SWAP1 PUSH2 0x1F56 JUMP JUMPDEST DUP2 MSTORE PUSH1 0x20 ADD SWAP1 DUP2 MSTORE PUSH1 0x20 ADD PUSH0 KECCAK256 PUSH0 ADD SLOAD PUSH2 0x122D JUMP JUMPDEST EQ JUMPDEST ISZERO PUSH2 0x1399 JUMPI PUSH1 0x40 MLOAD DUP1 PUSH1 0x40 ADD PUSH1 0x40 MSTORE DUP1 DUP3 DUP2 MSTORE PUSH1 0x20 ADD DUP5 DUP2 MSTORE POP PUSH1 0x8 PUSH0 DUP7 DUP2 MSTORE PUSH1 0x20 ADD SWAP1 DUP2 MSTORE PUSH1 0x20 ADD PUSH0 KECCAK256 PUSH0 PUSH1 0x1 DUP6 PUSH2 0x1372 SWAP2 SWAP1 PUSH2 0x1F56 JUMP JUMPDEST DUP2 MSTORE PUSH1 0x20 ADD SWAP1 DUP2 MSTORE PUSH1 0x20 ADD PUSH0 KECCAK256 PUSH0 DUP3 ADD MLOAD DUP2 PUSH0 ADD SSTORE PUSH1 0x20 DUP3 ADD MLOAD DUP2 PUSH1 0x1 ADD SSTORE SWAP1 POP POP PUSH2 0x1406 JUMP JUMPDEST PUSH1 0x40 MLOAD DUP1 PUSH1 0x40 ADD PUSH1 0x40 MSTORE DUP1 DUP3 DUP2 MSTORE PUSH1 0x20 ADD DUP5 DUP2 MSTORE POP PUSH1 0x8 PUSH0 DUP7 DUP2 MSTORE PUSH1 0x20 ADD SWAP1 DUP2 MSTORE PUSH1 0x20 ADD PUSH0 KECCAK256 PUSH0 DUP5 DUP2 MSTORE PUSH1 0x20 ADD SWAP1 DUP2 MSTORE PUSH1 0x20 ADD PUSH0 KECCAK256 PUSH0 DUP3 ADD MLOAD DUP2 PUSH0 ADD SSTORE PUSH1 0x20 DUP3 ADD MLOAD DUP2 PUSH1 0x1 ADD SSTORE SWAP1 POP POP PUSH1 0x1 DUP3 PUSH2 0x13F0 SWAP2 SWAP1 PUSH2 0x1FE6 JUMP JUMPDEST PUSH1 0x9 PUSH0 DUP7 DUP2 MSTORE PUSH1 0x20 ADD SWAP1 DUP2 MSTORE PUSH1 0x20 ADD PUSH0 KECCAK256 DUP2 SWAP1 SSTORE POP JUMPDEST POP POP POP POP JUMP JUMPDEST PUSH0 PUSH1 0xB SLOAD SWAP1 POP PUSH0 TIMESTAMP SWAP1 POP PUSH0 DUP3 GT DUP1 ISZERO PUSH2 0x1453 JUMPI POP PUSH2 0x1429 DUP2 PUSH2 0x122D JUMP JUMPDEST PUSH2 0x1451 PUSH1 0xA PUSH0 PUSH1 0x1 DUP7 PUSH2 0x143C SWAP2 SWAP1 PUSH2 0x1F56 JUMP JUMPDEST DUP2 MSTORE PUSH1 0x20 ADD SWAP1 DUP2 MSTORE PUSH1 0x20 ADD PUSH0 KECCAK256 PUSH0 ADD SLOAD PUSH2 0x122D JUMP JUMPDEST EQ JUMPDEST ISZERO PUSH2 0x14A6 JUMPI PUSH1 0x40 MLOAD DUP1 PUSH1 0x40 ADD PUSH1 0x40 MSTORE DUP1 DUP3 DUP2 MSTORE PUSH1 0x20 ADD PUSH1 0x2 SLOAD DUP2 MSTORE POP PUSH1 0xA PUSH0 PUSH1 0x1 DUP6 PUSH2 0x147F SWAP2 SWAP1 PUSH2 0x1F56 JUMP JUMPDEST DUP2 MSTORE PUSH1 0x20 ADD SWAP1 DUP2 MSTORE PUSH1 0x20 ADD PUSH0 KECCAK256 PUSH0 DUP3 ADD MLOAD DUP2 PUSH0 ADD SSTORE PUSH1 0x20 DUP3 ADD MLOAD DUP2 PUSH1 0x1 ADD SSTORE SWAP1 POP POP PUSH2 0x14F7 JUMP JUMPDEST PUSH1 0x40 MLOAD DUP1 PUSH1 0x40 ADD PUSH1 0x40 MSTORE DUP1 DUP3 DUP2 MSTORE PUSH1 0x20 ADD PUSH1 0x2 SLOAD DUP2 MSTORE POP PUSH1 0xA PUSH0 DUP5 DUP2 MSTORE PUSH1 0x20 ADD SWAP1 DUP2 MSTORE PUSH1 0x20 ADD PUSH0 KECCAK256 PUSH0 DUP3 ADD MLOAD DUP2 PUSH0 ADD SSTORE PUSH1 0x20 DUP3 ADD MLOAD DUP2 PUSH1 0x1 ADD SSTORE SWAP1 POP POP PUSH1 0x1 DUP3 PUSH2 0x14F0 SWAP2 SWAP1 PUSH2 0x1FE6 JUMP JUMPDEST PUSH1 0xB DUP2 SWAP1 SSTORE POP JUMPDEST POP POP JUMP JUMPDEST PUSH1 0x2 PUSH0 SLOAD SUB PUSH2 0x1536 JUMPI PUSH1 0x40 MLOAD PUSH32 0x3EE5AEB500000000000000000000000000000000000000000000000000000000 DUP2 MSTORE PUSH1 0x4 ADD PUSH1 0x40 MLOAD DUP1 SWAP2 SUB SWAP1 REVERT JUMPDEST PUSH1 0x2 PUSH0 DUP2 SWAP1 SSTORE POP JUMP JUMPDEST PUSH0 DUP2 SUB PUSH2 0x1578 JUMPI PUSH1 0x40 MLOAD PUSH32 0x1F2A200500000000000000000000000000000000000000000000000000000000 DUP2 MSTORE PUSH1 0x4 ADD PUSH1 0x40 MLOAD DUP1 SWAP2 SUB SWAP1 REVERT JUMPDEST PUSH2 0x15A5 DUP4 ADDRESS DUP4 DUP6 PUSH20 0xFFFFFFFFFFFFFFFFFFFFFFFFFFFFFFFFFFFFFFFF AND PUSH2 0x1820 SWAP1 SWAP4 SWAP3 SWAP2 SWAP1 PUSH4 0xFFFFFFFF AND JUMP JUMPDEST PUSH0 PUSH2 0x15AF TIMESTAMP PUSH2 0x122D JUMP JUMPDEST SWAP1 POP DUP2 PUSH1 0x4 PUSH0 DUP6 PUSH20 0xFFFFFFFFFFFFFFFFFFFFFFFFFFFFFFFFFFFFFFFF AND PUSH20 0xFFFFFFFFFFFFFFFFFFFFFFFFFFFFFFFFFFFFFFFF AND DUP2 MSTORE PUSH1 0x20 ADD SWAP1 DUP2 MSTORE PUSH1 0x20 ADD PUSH0 KECCAK256 PUSH0 DUP4 DUP2 MSTORE PUSH1 0x20 ADD SWAP1 DUP2 MSTORE PUSH1 0x20 ADD PUSH0 KECCAK256 PUSH0 DUP3 DUP3 SLOAD PUSH2 0x160C SWAP2 SWAP1 PUSH2 0x1FE6 JUMP JUMPDEST SWAP3 POP POP DUP2 SWAP1 SSTORE POP DUP1 DUP4 PUSH20 0xFFFFFFFFFFFFFFFFFFFFFFFFFFFFFFFFFFFFFFFF AND DUP6 PUSH20 0xFFFFFFFFFFFFFFFFFFFFFFFFFFFFFFFFFFFFFFFF AND PUSH32 0x52977EA98A2220A03EE9BA5CB003ADA08D394EA10155483C95DC2DC77A7EB24B DUP6 PUSH1 0x40 MLOAD PUSH2 0x1671 SWAP2 SWAP1 PUSH2 0x1B7D JUMP JUMPDEST PUSH1 0x40 MLOAD DUP1 SWAP2 SUB SWAP1 LOG4 POP POP POP POP JUMP JUMPDEST PUSH1 0x1 PUSH0 DUP2 SWAP1 SSTORE POP JUMP JUMPDEST PUSH0 DUP2 MLOAD SWAP1 POP PUSH0 JUMPDEST DUP2 DUP2 LT ISZERO PUSH2 0x180A JUMPI PUSH0 PUSH2 0x16BC DUP5 DUP4 DUP2 MLOAD DUP2 LT PUSH2 0x16AE JUMPI PUSH2 0x16AD PUSH2 0x223D JUMP JUMPDEST JUMPDEST PUSH1 0x20 MUL PUSH1 0x20 ADD ADD MLOAD DUP7 PUSH2 0x52D JUMP JUMPDEST SWAP1 POP TIMESTAMP PUSH1 0x5 PUSH0 DUP7 DUP6 DUP2 MLOAD DUP2 LT PUSH2 0x16D5 JUMPI PUSH2 0x16D4 PUSH2 0x223D JUMP JUMPDEST JUMPDEST PUSH1 0x20 MUL PUSH1 0x20 ADD ADD MLOAD PUSH20 0xFFFFFFFFFFFFFFFFFFFFFFFFFFFFFFFFFFFFFFFF AND PUSH20 0xFFFFFFFFFFFFFFFFFFFFFFFFFFFFFFFFFFFFFFFF AND DUP2 MSTORE PUSH1 0x20 ADD SWAP1 DUP2 MSTORE PUSH1 0x20 ADD PUSH0 KECCAK256 PUSH0 DUP8 DUP2 MSTORE PUSH1 0x20 ADD SWAP1 DUP2 MSTORE PUSH1 0x20 ADD PUSH0 KECCAK256 DUP2 SWAP1 SSTORE POP PUSH0 DUP2 GT ISZERO PUSH2 0x1777 JUMPI PUSH2 0x1776 DUP7 DUP3 DUP7 DUP6 DUP2 MLOAD DUP2 LT PUSH2 0x1749 JUMPI PUSH2 0x1748 PUSH2 0x223D JUMP JUMPDEST JUMPDEST PUSH1 0x20 MUL PUSH1 0x20 ADD ADD MLOAD PUSH20 0xFFFFFFFFFFFFFFFFFFFFFFFFFFFFFFFFFFFFFFFF AND PUSH2 0x18A2 SWAP1 SWAP3 SWAP2 SWAP1 PUSH4 0xFFFFFFFF AND JUMP JUMPDEST JUMPDEST DUP4 DUP3 DUP2 MLOAD DUP2 LT PUSH2 0x178A JUMPI PUSH2 0x1789 PUSH2 0x223D JUMP JUMPDEST JUMPDEST PUSH1 0x20 MUL PUSH1 0x20 ADD ADD MLOAD PUSH20 0xFFFFFFFFFFFFFFFFFFFFFFFFFFFFFFFFFFFFFFFF AND DUP7 PUSH20 0xFFFFFFFFFFFFFFFFFFFFFFFFFFFFFFFFFFFFFFFF AND PUSH32 0x9AA05B3D70A9E3E2F004F039648839560576334FB45C81F91B6DB03AD9E2EFC9 DUP4 PUSH1 0x40 MLOAD PUSH2 0x17EE SWAP2 SWAP1 PUSH2 0x1B7D JUMP JUMPDEST PUSH1 0x40 MLOAD DUP1 SWAP2 SUB SWAP1 LOG3 POP DUP1 DUP1 PUSH2 0x1802 SWAP1 PUSH2 0x205A JUMP JUMPDEST SWAP2 POP POP PUSH2 0x168F JUMP JUMPDEST POP POP POP POP POP JUMP JUMPDEST PUSH0 PUSH1 0x14 SWAP1 POP SWAP1 JUMP JUMPDEST PUSH0 CALLER SWAP1 POP SWAP1 JUMP JUMPDEST PUSH2 0x189C DUP5 DUP6 PUSH20 0xFFFFFFFFFFFFFFFFFFFFFFFFFFFFFFFFFFFFFFFF AND PUSH4 0x23B872DD DUP7 DUP7 DUP7 PUSH1 0x40 MLOAD PUSH1 0x24 ADD PUSH2 0x1855 SWAP4 SWAP3 SWAP2 SWAP1 PUSH2 0x226A JUMP JUMPDEST PUSH1 0x40 MLOAD PUSH1 0x20 DUP2 DUP4 SUB SUB DUP2 MSTORE SWAP1 PUSH1 0x40 MSTORE SWAP2 POP PUSH1 0xE0 SHL PUSH1 0x20 DUP3 ADD DUP1 MLOAD PUSH28 0xFFFFFFFFFFFFFFFFFFFFFFFFFFFFFFFFFFFFFFFFFFFFFFFFFFFFFFFF DUP4 DUP2 DUP4 AND OR DUP4 MSTORE POP POP POP POP PUSH2 0x1921 JUMP JUMPDEST POP POP POP POP JUMP JUMPDEST PUSH2 0x191C DUP4 DUP5 PUSH20 0xFFFFFFFFFFFFFFFFFFFFFFFFFFFFFFFFFFFFFFFF AND PUSH4 0xA9059CBB DUP6 DUP6 PUSH1 0x40 MLOAD PUSH1 0x24 ADD PUSH2 0x18D5 SWAP3 SWAP2 SWAP1 PUSH2 0x20F6 JUMP JUMPDEST PUSH1 0x40 MLOAD PUSH1 0x20 DUP2 DUP4 SUB SUB DUP2 MSTORE SWAP1 PUSH1 0x40 MSTORE SWAP2 POP PUSH1 0xE0 SHL PUSH1 0x20 DUP3 ADD DUP1 MLOAD PUSH28 0xFFFFFFFFFFFFFFFFFFFFFFFFFFFFFFFFFFFFFFFFFFFFFFFFFFFFFFFF DUP4 DUP2 DUP4 AND OR DUP4 MSTORE POP POP POP POP PUSH2 0x1921 JUMP JUMPDEST POP POP POP JUMP JUMPDEST PUSH0 PUSH2 0x194B DUP3 DUP5 PUSH20 0xFFFFFFFFFFFFFFFFFFFFFFFFFFFFFFFFFFFFFFFF AND PUSH2 0x19B6 SWAP1 SWAP2 SWAP1 PUSH4 0xFFFFFFFF AND JUMP JUMPDEST SWAP1 POP PUSH0 DUP2 MLOAD EQ ISZERO DUP1 ISZERO PUSH2 0x196F JUMPI POP DUP1 DUP1 PUSH1 0x20 ADD SWAP1 MLOAD DUP2 ADD SWAP1 PUSH2 0x196D SWAP2 SWAP1 PUSH2 0x20CB JUMP JUMPDEST ISZERO JUMPDEST ISZERO PUSH2 0x19B1 JUMPI DUP3 PUSH1 0x40 MLOAD PUSH32 0x5274AFE700000000000000000000000000000000000000000000000000000000 DUP2 MSTORE PUSH1 0x4 ADD PUSH2 0x19A8 SWAP2 SWAP1 PUSH2 0x1BD5 JUMP JUMPDEST PUSH1 0x40 MLOAD DUP1 SWAP2 SUB SWAP1 REVERT JUMPDEST POP POP POP JUMP JUMPDEST PUSH1 0x60 PUSH2 0x19C3 DUP4 DUP4 PUSH0 PUSH2 0x19CB JUMP JUMPDEST SWAP1 POP SWAP3 SWAP2 POP POP JUMP JUMPDEST PUSH1 0x60 DUP2 SELFBALANCE LT ISZERO PUSH2 0x1A12 JUMPI ADDRESS PUSH1 0x40 MLOAD PUSH32 0xCD78605900000000000000000000000000000000000000000000000000000000 DUP2 MSTORE PUSH1 0x4 ADD PUSH2 0x1A09 SWAP2 SWAP1 PUSH2 0x1BD5 JUMP JUMPDEST PUSH1 0x40 MLOAD DUP1 SWAP2 SUB SWAP1 REVERT JUMPDEST PUSH0 DUP1 DUP6 PUSH20 0xFFFFFFFFFFFFFFFFFFFFFFFFFFFFFFFFFFFFFFFF AND DUP5 DUP7 PUSH1 0x40 MLOAD PUSH2 0x1A3A SWAP2 SWAP1 PUSH2 0x230B JUMP JUMPDEST PUSH0 PUSH1 0x40 MLOAD DUP1 DUP4 SUB DUP2 DUP6 DUP8 GAS CALL SWAP3 POP POP POP RETURNDATASIZE DUP1 PUSH0 DUP2 EQ PUSH2 0x1A74 JUMPI PUSH1 0x40 MLOAD SWAP2 POP PUSH1 0x1F NOT PUSH1 0x3F RETURNDATASIZE ADD AND DUP3 ADD PUSH1 0x40 MSTORE RETURNDATASIZE DUP3 MSTORE RETURNDATASIZE PUSH0 PUSH1 0x20 DUP5 ADD RETURNDATACOPY PUSH2 0x1A79 JUMP JUMPDEST PUSH1 0x60 SWAP2 POP JUMPDEST POP SWAP2 POP SWAP2 POP PUSH2 0x1A89 DUP7 DUP4 DUP4 PUSH2 0x1A94 JUMP JUMPDEST SWAP3 POP POP POP SWAP4 SWAP3 POP POP POP JUMP JUMPDEST PUSH1 0x60 DUP3 PUSH2 0x1AA9 JUMPI PUSH2 0x1AA4 DUP3 PUSH2 0x1B21 JUMP JUMPDEST PUSH2 0x1B19 JUMP JUMPDEST PUSH0 DUP3 MLOAD EQ DUP1 ISZERO PUSH2 0x1ACF JUMPI POP PUSH0 DUP5 PUSH20 0xFFFFFFFFFFFFFFFFFFFFFFFFFFFFFFFFFFFFFFFF AND EXTCODESIZE EQ JUMPDEST ISZERO PUSH2 0x1B11 JUMPI DUP4 PUSH1 0x40 MLOAD PUSH32 0x9996B31500000000000000000000000000000000000000000000000000000000 DUP2 MSTORE PUSH1 0x4 ADD PUSH2 0x1B08 SWAP2 SWAP1 PUSH2 0x1BD5 JUMP JUMPDEST PUSH1 0x40 MLOAD DUP1 SWAP2 SUB SWAP1 REVERT JUMPDEST DUP2 SWAP1 POP PUSH2 0x1B1A JUMP JUMPDEST JUMPDEST SWAP4 SWAP3 POP POP POP JUMP JUMPDEST PUSH0 DUP2 MLOAD GT ISZERO PUSH2 0x1B33 JUMPI DUP1 MLOAD DUP1 DUP3 PUSH1 0x20 ADD REVERT JUMPDEST PUSH1 0x40 MLOAD PUSH32 0x1425EA4200000000000000000000000000000000000000000000000000000000 DUP2 MSTORE PUSH1 0x4 ADD PUSH1 0x40 MLOAD DUP1 SWAP2 SUB SWAP1 REVERT JUMPDEST PUSH0 DUP2 SWAP1 POP SWAP2 SWAP1 POP JUMP JUMPDEST PUSH2 0x1B77 DUP2 PUSH2 0x1B65 JUMP JUMPDEST DUP3 MSTORE POP POP JUMP JUMPDEST PUSH0 PUSH1 0x20 DUP3 ADD SWAP1 POP PUSH2 0x1B90 PUSH0 DUP4 ADD DUP5 PUSH2 0x1B6E JUMP JUMPDEST SWAP3 SWAP2 POP POP JUMP JUMPDEST PUSH0 PUSH20 0xFFFFFFFFFFFFFFFFFFFFFFFFFFFFFFFFFFFFFFFF DUP3 AND SWAP1 POP SWAP2 SWAP1 POP JUMP JUMPDEST PUSH0 PUSH2 0x1BBF DUP3 PUSH2 0x1B96 JUMP JUMPDEST SWAP1 POP SWAP2 SWAP1 POP JUMP JUMPDEST PUSH2 0x1BCF DUP2 PUSH2 0x1BB5 JUMP JUMPDEST DUP3 MSTORE POP POP JUMP JUMPDEST PUSH0 PUSH1 0x20 DUP3 ADD SWAP1 POP PUSH2 0x1BE8 PUSH0 DUP4 ADD DUP5 PUSH2 0x1BC6 JUMP JUMPDEST SWAP3 SWAP2 POP POP JUMP JUMPDEST PUSH0 PUSH1 0x40 MLOAD SWAP1 POP SWAP1 JUMP JUMPDEST PUSH0 DUP1 REVERT JUMPDEST PUSH0 DUP1 REVERT JUMPDEST PUSH2 0x1C08 DUP2 PUSH2 0x1BB5 JUMP JUMPDEST DUP2 EQ PUSH2 0x1C12 JUMPI PUSH0 DUP1 REVERT JUMPDEST POP JUMP JUMPDEST PUSH0 DUP2 CALLDATALOAD SWAP1 POP PUSH2 0x1C23 DUP2 PUSH2 0x1BFF JUMP JUMPDEST SWAP3 SWAP2 POP POP JUMP JUMPDEST PUSH2 0x1C32 DUP2 PUSH2 0x1B65 JUMP JUMPDEST DUP2 EQ PUSH2 0x1C3C JUMPI PUSH0 DUP1 REVERT JUMPDEST POP JUMP JUMPDEST PUSH0 DUP2 CALLDATALOAD SWAP1 POP PUSH2 0x1C4D DUP2 PUSH2 0x1C29 JUMP JUMPDEST SWAP3 SWAP2 POP POP JUMP JUMPDEST PUSH0 DUP1 PUSH1 0x40 DUP4 DUP6 SUB SLT ISZERO PUSH2 0x1C69 JUMPI PUSH2 0x1C68 PUSH2 0x1BF7 JUMP JUMPDEST JUMPDEST PUSH0 PUSH2 0x1C76 DUP6 DUP3 DUP7 ADD PUSH2 0x1C15 JUMP JUMPDEST SWAP3 POP POP PUSH1 0x20 PUSH2 0x1C87 DUP6 DUP3 DUP7 ADD PUSH2 0x1C3F JUMP JUMPDEST SWAP2 POP POP SWAP3 POP SWAP3 SWAP1 POP JUMP JUMPDEST PUSH0 DUP1 PUSH1 0x40 DUP4 DUP6 SUB SLT ISZERO PUSH2 0x1CA7 JUMPI PUSH2 0x1CA6 PUSH2 0x1BF7 JUMP JUMPDEST JUMPDEST PUSH0 PUSH2 0x1CB4 DUP6 DUP3 DUP7 ADD PUSH2 0x1C3F JUMP JUMPDEST SWAP3 POP POP PUSH1 0x20 PUSH2 0x1CC5 DUP6 DUP3 DUP7 ADD PUSH2 0x1C3F JUMP JUMPDEST SWAP2 POP POP SWAP3 POP SWAP3 SWAP1 POP JUMP JUMPDEST PUSH0 PUSH1 0x40 DUP3 ADD SWAP1 POP PUSH2 0x1CE2 PUSH0 DUP4 ADD DUP6 PUSH2 0x1B6E JUMP JUMPDEST PUSH2 0x1CEF PUSH1 0x20 DUP4 ADD DUP5 PUSH2 0x1B6E JUMP JUMPDEST SWAP4 SWAP3 POP POP POP JUMP JUMPDEST PUSH0 PUSH1 0x20 DUP3 DUP5 SUB SLT ISZERO PUSH2 0x1D0B JUMPI PUSH2 0x1D0A PUSH2 0x1BF7 JUMP JUMPDEST JUMPDEST PUSH0 PUSH2 0x1D18 DUP5 DUP3 DUP6 ADD PUSH2 0x1C15 JUMP JUMPDEST SWAP2 POP POP SWAP3 SWAP2 POP POP JUMP JUMPDEST PUSH0 DUP2 ISZERO ISZERO SWAP1 POP SWAP2 SWAP1 POP JUMP JUMPDEST PUSH2 0x1D35 DUP2 PUSH2 0x1D21 JUMP JUMPDEST DUP3 MSTORE POP POP JUMP JUMPDEST PUSH0 PUSH1 0x20 DUP3 ADD SWAP1 POP PUSH2 0x1D4E PUSH0 DUP4 ADD DUP5 PUSH2 0x1D2C JUMP JUMPDEST SWAP3 SWAP2 POP POP JUMP JUMPDEST PUSH0 PUSH1 0x20 DUP3 DUP5 SUB SLT ISZERO PUSH2 0x1D69 JUMPI PUSH2 0x1D68 PUSH2 0x1BF7 JUMP JUMPDEST JUMPDEST PUSH0 PUSH2 0x1D76 DUP5 DUP3 DUP6 ADD PUSH2 0x1C3F JUMP JUMPDEST SWAP2 POP POP SWAP3 SWAP2 POP POP JUMP JUMPDEST PUSH0 DUP1 REVERT JUMPDEST PUSH0 PUSH1 0x1F NOT PUSH1 0x1F DUP4 ADD AND SWAP1 POP SWAP2 SWAP1 POP JUMP JUMPDEST PUSH32 0x4E487B7100000000000000000000000000000000000000000000000000000000 PUSH0 MSTORE PUSH1 0x41 PUSH1 0x4 MSTORE PUSH1 0x24 PUSH0 REVERT JUMPDEST PUSH2 0x1DC9 DUP3 PUSH2 0x1D83 JUMP JUMPDEST DUP2 ADD DUP2 DUP2 LT PUSH8 0xFFFFFFFFFFFFFFFF DUP3 GT OR ISZERO PUSH2 0x1DE8 JUMPI PUSH2 0x1DE7 PUSH2 0x1D93 JUMP JUMPDEST JUMPDEST DUP1 PUSH1 0x40 MSTORE POP POP POP JUMP JUMPDEST PUSH0 PUSH2 0x1DFA PUSH2 0x1BEE JUMP JUMPDEST SWAP1 POP PUSH2 0x1E06 DUP3 DUP3 PUSH2 0x1DC0 JUMP JUMPDEST SWAP2 SWAP1 POP JUMP JUMPDEST PUSH0 PUSH8 0xFFFFFFFFFFFFFFFF DUP3 GT ISZERO PUSH2 0x1E25 JUMPI PUSH2 0x1E24 PUSH2 0x1D93 JUMP JUMPDEST JUMPDEST PUSH1 0x20 DUP3 MUL SWAP1 POP PUSH1 0x20 DUP2 ADD SWAP1 POP SWAP2 SWAP1 POP JUMP JUMPDEST PUSH0 DUP1 REVERT JUMPDEST PUSH0 PUSH2 0x1E4C PUSH2 0x1E47 DUP5 PUSH2 0x1E0B JUMP JUMPDEST PUSH2 0x1DF1 JUMP JUMPDEST SWAP1 POP DUP1 DUP4 DUP3 MSTORE PUSH1 0x20 DUP3 ADD SWAP1 POP PUSH1 0x20 DUP5 MUL DUP4 ADD DUP6 DUP2 GT ISZERO PUSH2 0x1E6F JUMPI PUSH2 0x1E6E PUSH2 0x1E36 JUMP JUMPDEST JUMPDEST DUP4 JUMPDEST DUP2 DUP2 LT ISZERO PUSH2 0x1E98 JUMPI DUP1 PUSH2 0x1E84 DUP9 DUP3 PUSH2 0x1C15 JUMP JUMPDEST DUP5 MSTORE PUSH1 0x20 DUP5 ADD SWAP4 POP POP PUSH1 0x20 DUP2 ADD SWAP1 POP PUSH2 0x1E71 JUMP JUMPDEST POP POP POP SWAP4 SWAP3 POP POP POP JUMP JUMPDEST PUSH0 DUP3 PUSH1 0x1F DUP4 ADD SLT PUSH2 0x1EB6 JUMPI PUSH2 0x1EB5 PUSH2 0x1D7F JUMP JUMPDEST JUMPDEST DUP2 CALLDATALOAD PUSH2 0x1EC6 DUP5 DUP3 PUSH1 0x20 DUP7 ADD PUSH2 0x1E3A JUMP JUMPDEST SWAP2 POP POP SWAP3 SWAP2 POP POP JUMP JUMPDEST PUSH0 DUP1 PUSH1 0x40 DUP4 DUP6 SUB SLT ISZERO PUSH2 0x1EE5 JUMPI PUSH2 0x1EE4 PUSH2 0x1BF7 JUMP JUMPDEST JUMPDEST PUSH0 PUSH2 0x1EF2 DUP6 DUP3 DUP7 ADD PUSH2 0x1C3F JUMP JUMPDEST SWAP3 POP POP PUSH1 0x20 DUP4 ADD CALLDATALOAD PUSH8 0xFFFFFFFFFFFFFFFF DUP2 GT ISZERO PUSH2 0x1F13 JUMPI PUSH2 0x1F12 PUSH2 0x1BFB JUMP JUMPDEST JUMPDEST PUSH2 0x1F1F DUP6 DUP3 DUP7 ADD PUSH2 0x1EA2 JUMP JUMPDEST SWAP2 POP POP SWAP3 POP SWAP3 SWAP1 POP JUMP JUMPDEST PUSH32 0x4E487B7100000000000000000000000000000000000000000000000000000000 PUSH0 MSTORE PUSH1 0x11 PUSH1 0x4 MSTORE PUSH1 0x24 PUSH0 REVERT JUMPDEST PUSH0 PUSH2 0x1F60 DUP3 PUSH2 0x1B65 JUMP JUMPDEST SWAP2 POP PUSH2 0x1F6B DUP4 PUSH2 0x1B65 JUMP JUMPDEST SWAP3 POP DUP3 DUP3 SUB SWAP1 POP DUP2 DUP2 GT ISZERO PUSH2 0x1F83 JUMPI PUSH2 0x1F82 PUSH2 0x1F29 JUMP JUMPDEST JUMPDEST SWAP3 SWAP2 POP POP JUMP JUMPDEST PUSH32 0x4E487B7100000000000000000000000000000000000000000000000000000000 PUSH0 MSTORE PUSH1 0x12 PUSH1 0x4 MSTORE PUSH1 0x24 PUSH0 REVERT JUMPDEST PUSH0 PUSH2 0x1FC0 DUP3 PUSH2 0x1B65 JUMP JUMPDEST SWAP2 POP PUSH2 0x1FCB DUP4 PUSH2 0x1B65 JUMP JUMPDEST SWAP3 POP DUP3 PUSH2 0x1FDB JUMPI PUSH2 0x1FDA PUSH2 0x1F89 JUMP JUMPDEST JUMPDEST DUP3 DUP3 DIV SWAP1 POP SWAP3 SWAP2 POP POP JUMP JUMPDEST PUSH0 PUSH2 0x1FF0 DUP3 PUSH2 0x1B65 JUMP JUMPDEST SWAP2 POP PUSH2 0x1FFB DUP4 PUSH2 0x1B65 JUMP JUMPDEST SWAP3 POP DUP3 DUP3 ADD SWAP1 POP DUP1 DUP3 GT ISZERO PUSH2 0x2013 JUMPI PUSH2 0x2012 PUSH2 0x1F29 JUMP JUMPDEST JUMPDEST SWAP3 SWAP2 POP POP JUMP JUMPDEST PUSH0 PUSH2 0x2023 DUP3 PUSH2 0x1B65 JUMP JUMPDEST SWAP2 POP PUSH2 0x202E DUP4 PUSH2 0x1B65 JUMP JUMPDEST SWAP3 POP DUP3 DUP3 MUL PUSH2 0x203C DUP2 PUSH2 0x1B65 JUMP JUMPDEST SWAP2 POP DUP3 DUP3 DIV DUP5 EQ DUP4 ISZERO OR PUSH2 0x2053 JUMPI PUSH2 0x2052 PUSH2 0x1F29 JUMP JUMPDEST JUMPDEST POP SWAP3 SWAP2 POP POP JUMP JUMPDEST PUSH0 PUSH2 0x2064 DUP3 PUSH2 0x1B65 JUMP JUMPDEST SWAP2 POP PUSH32 0xFFFFFFFFFFFFFFFFFFFFFFFFFFFFFFFFFFFFFFFFFFFFFFFFFFFFFFFFFFFFFFFF DUP3 SUB PUSH2 0x2096 JUMPI PUSH2 0x2095 PUSH2 0x1F29 JUMP JUMPDEST JUMPDEST PUSH1 0x1 DUP3 ADD SWAP1 POP SWAP2 SWAP1 POP JUMP JUMPDEST PUSH2 0x20AA DUP2 PUSH2 0x1D21 JUMP JUMPDEST DUP2 EQ PUSH2 0x20B4 JUMPI PUSH0 DUP1 REVERT JUMPDEST POP JUMP JUMPDEST PUSH0 DUP2 MLOAD SWAP1 POP PUSH2 0x20C5 DUP2 PUSH2 0x20A1 JUMP JUMPDEST SWAP3 SWAP2 POP POP JUMP JUMPDEST PUSH0 PUSH1 0x20 DUP3 DUP5 SUB SLT ISZERO PUSH2 0x20E0 JUMPI PUSH2 0x20DF PUSH2 0x1BF7 JUMP JUMPDEST JUMPDEST PUSH0 PUSH2 0x20ED DUP5 DUP3 DUP6 ADD PUSH2 0x20B7 JUMP JUMPDEST SWAP2 POP POP SWAP3 SWAP2 POP POP JUMP JUMPDEST PUSH0 PUSH1 0x40 DUP3 ADD SWAP1 POP PUSH2 0x2109 PUSH0 DUP4 ADD DUP6 PUSH2 0x1BC6 JUMP JUMPDEST PUSH2 0x2116 PUSH1 0x20 DUP4 ADD DUP5 PUSH2 0x1B6E JUMP JUMPDEST SWAP4 SWAP3 POP POP POP JUMP JUMPDEST PUSH0 DUP2 MLOAD SWAP1 POP PUSH2 0x212B DUP2 PUSH2 0x1BFF JUMP JUMPDEST SWAP3 SWAP2 POP POP JUMP JUMPDEST PUSH0 PUSH1 0x20 DUP3 DUP5 SUB SLT ISZERO PUSH2 0x2146 JUMPI PUSH2 0x2145 PUSH2 0x1BF7 JUMP JUMPDEST JUMPDEST PUSH0 PUSH2 0x2153 DUP5 DUP3 DUP6 ADD PUSH2 0x211D JUMP JUMPDEST SWAP2 POP POP SWAP3 SWAP2 POP POP JUMP JUMPDEST PUSH0 DUP1 REVERT JUMPDEST PUSH0 DUP1 REVERT JUMPDEST PUSH0 DUP1 DUP6 DUP6 GT ISZERO PUSH2 0x2177 JUMPI PUSH2 0x2176 PUSH2 0x215C JUMP JUMPDEST JUMPDEST DUP4 DUP7 GT ISZERO PUSH2 0x2188 JUMPI PUSH2 0x2187 PUSH2 0x2160 JUMP JUMPDEST JUMPDEST PUSH1 0x1 DUP6 MUL DUP4 ADD SWAP2 POP DUP5 DUP7 SUB SWAP1 POP SWAP5 POP SWAP5 SWAP3 POP POP POP JUMP JUMPDEST PUSH0 DUP3 SWAP1 POP SWAP3 SWAP2 POP POP JUMP JUMPDEST PUSH0 PUSH32 0xFFFFFFFFFFFFFFFFFFFFFFFFFFFFFFFFFFFFFFFF000000000000000000000000 DUP3 AND SWAP1 POP SWAP2 SWAP1 POP JUMP JUMPDEST PUSH0 DUP3 DUP3 SHL SWAP1 POP SWAP3 SWAP2 POP POP JUMP JUMPDEST PUSH0 PUSH2 0x21EA DUP4 DUP4 PUSH2 0x219E JUMP JUMPDEST DUP3 PUSH2 0x21F5 DUP2 CALLDATALOAD PUSH2 0x21A8 JUMP JUMPDEST SWAP3 POP PUSH1 0x14 DUP3 LT ISZERO PUSH2 0x2235 JUMPI PUSH2 0x2230 PUSH32 0xFFFFFFFFFFFFFFFFFFFFFFFFFFFFFFFFFFFFFFFF000000000000000000000000 DUP4 PUSH1 0x14 SUB PUSH1 0x8 MUL PUSH2 0x21D3 JUMP JUMPDEST DUP4 AND SWAP3 POP JUMPDEST POP POP SWAP3 SWAP2 POP POP JUMP JUMPDEST PUSH32 0x4E487B7100000000000000000000000000000000000000000000000000000000 PUSH0 MSTORE PUSH1 0x32 PUSH1 0x4 MSTORE PUSH1 0x24 PUSH0 REVERT JUMPDEST PUSH0 PUSH1 0x60 DUP3 ADD SWAP1 POP PUSH2 0x227D PUSH0 DUP4 ADD DUP7 PUSH2 0x1BC6 JUMP JUMPDEST PUSH2 0x228A PUSH1 0x20 DUP4 ADD DUP6 PUSH2 0x1BC6 JUMP JUMPDEST PUSH2 0x2297 PUSH1 0x40 DUP4 ADD DUP5 PUSH2 0x1B6E JUMP JUMPDEST SWAP5 SWAP4 POP POP POP POP JUMP JUMPDEST PUSH0 DUP2 MLOAD SWAP1 POP SWAP2 SWAP1 POP JUMP JUMPDEST PUSH0 DUP2 SWAP1 POP SWAP3 SWAP2 POP POP JUMP JUMPDEST PUSH0 JUMPDEST DUP4 DUP2 LT ISZERO PUSH2 0x22D0 JUMPI DUP1 DUP3 ADD MLOAD DUP2 DUP5 ADD MSTORE PUSH1 0x20 DUP2 ADD SWAP1 POP PUSH2 0x22B5 JUMP JUMPDEST PUSH0 DUP5 DUP5 ADD MSTORE POP POP POP POP JUMP JUMPDEST PUSH0 PUSH2 0x22E5 DUP3 PUSH2 0x229F JUMP JUMPDEST PUSH2 0x22EF DUP2 DUP6 PUSH2 0x22A9 JUMP JUMPDEST SWAP4 POP PUSH2 0x22FF DUP2 DUP6 PUSH1 0x20 DUP7 ADD PUSH2 0x22B3 JUMP JUMPDEST DUP1 DUP5 ADD SWAP2 POP POP SWAP3 SWAP2 POP POP JUMP JUMPDEST PUSH0 PUSH2 0x2316 DUP3 DUP5 PUSH2 0x22DB JUMP JUMPDEST SWAP2 POP DUP2 SWAP1 POP SWAP3 SWAP2 POP POP JUMP INVALID LOG2 PUSH5 0x6970667358 0x22 SLT KECCAK256 0x22 CALLVALUE 0xD7 SHL 0xCB LOG3 MULMOD 0xDC 0xE7 0xD8 0xB4 JUMP 0x2F PUSH6 0xE4D79836E0B4 BLOCKHASH 0xDC SWAP10 0xAA 0xCA 0xED 0xBD PUSH28 0x50C03D1D64736F6C63430008140033A2646970667358221220AE0FCF INVALID 0xCC COINBASE 0xB0 0xD2 0xAD PUSH19 0xD9F1D12E9A04908BE57D3DFE8B4ABE8370EABC 0xD1 MSTORE8 0xD0 PUSH5 0x736F6C6343 STOP ADDMOD EQ STOP CALLER "
		},
		"gasEstimates": {
			"creation": {
				"codeDepositCost": "4186000",
				"executionCost": "4816",
				"totalCost": "4190816"
			},
			"external": {
				"createRewards(address,address)": "infinite"
			}
		},
		"methodIdentifiers": {
			"createRewards(address,address)": "dabc8e83"
		}
	},
	"abi": [
		{
			"anonymous": false,
			"inputs": [
				{
					"indexed": true,
					"internalType": "address",
					"name": "voter",
					"type": "address"
				},
				{
					"indexed": true,
					"internalType": "address",
					"name": "lockedManagedReward",
					"type": "address"
				},
				{
					"indexed": true,
					"internalType": "address",
					"name": "freeManagedReward",
					"type": "address"
				}
			],
			"name": "ManagedRewardCreated",
			"type": "event"
		},
		{
			"inputs": [
				{
					"internalType": "address",
					"name": "_forwarder",
					"type": "address"
				},
				{
					"internalType": "address",
					"name": "_voter",
					"type": "address"
				}
			],
			"name": "createRewards",
			"outputs": [
				{
					"internalType": "address",
					"name": "lockedManagedReward",
					"type": "address"
				},
				{
					"internalType": "address",
					"name": "freeManagedReward",
					"type": "address"
				}
			],
			"stateMutability": "nonpayable",
			"type": "function"
		}
	]
}