{
	"data": {
		"bytecode": {
			"linkReferences": {},
			"object": "608060405234801561000f575f80fd5b506158db8061001d5f395ff3fe608060405234801562000010575f80fd5b50600436106200002c575f3560e01c80634c455a971462000030575b5f80fd5b6200004e6004803603810190620000489190620002e2565b62000067565b6040516200005e92919062000357565b60405180910390f35b5f808333846040516200007a90620000e8565b620000889392919062000449565b604051809103905ff080158015620000a2573d5f803e3d5ffd5b509150833384604051620000b690620000f6565b620000c49392919062000449565b604051809103905ff080158015620000de573d5f803e3d5ffd5b5090509250929050565b6129e2806200048c83390190565b612a388062002e6e83390190565b5f604051905090565b5f80fd5b5f80fd5b5f73ffffffffffffffffffffffffffffffffffffffff82169050919050565b5f620001408262000115565b9050919050565b620001528162000134565b81146200015d575f80fd5b50565b5f81359050620001708162000147565b92915050565b5f80fd5b5f601f19601f8301169050919050565b7f4e487b71000000000000000000000000000000000000000000000000000000005f52604160045260245ffd5b620001c2826200017a565b810181811067ffffffffffffffff82111715620001e457620001e36200018a565b5b80604052505050565b5f620001f862000104565b9050620002068282620001b7565b919050565b5f67ffffffffffffffff8211156200022857620002276200018a565b5b602082029050602081019050919050565b5f80fd5b5f620002536200024d846200020b565b620001ed565b9050808382526020820190506020840283018581111562000279576200027862000239565b5b835b81811015620002a6578062000291888262000160565b8452602084019350506020810190506200027b565b5050509392505050565b5f82601f830112620002c757620002c662000176565b5b8135620002d98482602086016200023d565b91505092915050565b5f8060408385031215620002fb57620002fa6200010d565b5b5f6200030a8582860162000160565b925050602083013567ffffffffffffffff8111156200032e576200032d62000111565b5b6200033c85828601620002b0565b9150509250929050565b620003518162000134565b82525050565b5f6040820190506200036c5f83018562000346565b6200037b602083018462000346565b9392505050565b5f81519050919050565b5f82825260208201905092915050565b5f819050602082019050919050565b620003b68162000134565b82525050565b5f620003c98383620003ab565b60208301905092915050565b5f602082019050919050565b5f620003ed8262000382565b620003f981856200038c565b935062000406836200039c565b805f5b838110156200043c578151620004208882620003bc565b97506200042d83620003d5565b92505060018101905062000409565b5085935050505092915050565b5f6060820190506200045e5f83018662000346565b6200046d602083018562000346565b8181036040830152620004818184620003e1565b905094935050505056fe60e060405234801562000010575f80fd5b50604051620029e2380380620029e28339818101604052810190620000369190620004e4565b8282828282818073ffffffffffffffffffffffffffffffffffffffff1660808173ffffffffffffffffffffffffffffffffffffffff16815250505060015f819055508073ffffffffffffffffffffffffffffffffffffffff1660a08173ffffffffffffffffffffffffffffffffffffffff16815250508073ffffffffffffffffffffffffffffffffffffffff16631f8507166040518163ffffffff1660e01b8152600401602060405180830381865afa158015620000f6573d5f803e3d5ffd5b505050506040513d601f19601f820116820180604052508101906200011c91906200055c565b73ffffffffffffffffffffffffffffffffffffffff1660c08173ffffffffffffffffffffffffffffffffffffffff168152505050505f815190505f5b81811015620002b8575f73ffffffffffffffffffffffffffffffffffffffff168382815181106200018e576200018d6200058c565b5b602002602001015173ffffffffffffffffffffffffffffffffffffffff1614620002a257600160075f858481518110620001cd57620001cc6200058c565b5b602002602001015173ffffffffffffffffffffffffffffffffffffffff1673ffffffffffffffffffffffffffffffffffffffff1681526020019081526020015f205f6101000a81548160ff02191690831515021790555060068382815181106200023c576200023b6200058c565b5b6020026020010151908060018154018082558091505060019003905f5260205f20015f9091909190916101000a81548173ffffffffffffffffffffffffffffffffffffffff021916908373ffffffffffffffffffffffffffffffffffffffff1602179055505b8080620002af90620005ef565b91505062000158565b508260015f6101000a81548173ffffffffffffffffffffffffffffffffffffffff021916908373ffffffffffffffffffffffffffffffffffffffff160217905550505050505050506200063b565b5f604051905090565b5f80fd5b5f80fd5b5f73ffffffffffffffffffffffffffffffffffffffff82169050919050565b5f620003428262000317565b9050919050565b620003548162000336565b81146200035f575f80fd5b50565b5f81519050620003728162000349565b92915050565b5f80fd5b5f601f19601f8301169050919050565b7f4e487b71000000000000000000000000000000000000000000000000000000005f52604160045260245ffd5b620003c4826200037c565b810181811067ffffffffffffffff82111715620003e657620003e56200038c565b5b80604052505050565b5f620003fa62000306565b9050620004088282620003b9565b919050565b5f67ffffffffffffffff8211156200042a57620004296200038c565b5b602082029050602081019050919050565b5f80fd5b5f620004556200044f846200040d565b620003ef565b905080838252602082019050602084028301858111156200047b576200047a6200043b565b5b835b81811015620004a8578062000493888262000362565b8452602084019350506020810190506200047d565b5050509392505050565b5f82601f830112620004c957620004c862000378565b5b8151620004db8482602086016200043f565b91505092915050565b5f805f60608486031215620004fe57620004fd6200030f565b5b5f6200050d8682870162000362565b9350506020620005208682870162000362565b925050604084015167ffffffffffffffff81111562000544576200054362000313565b5b6200055286828701620004b2565b9150509250925092565b5f602082840312156200057457620005736200030f565b5b5f620005838482850162000362565b91505092915050565b7f4e487b71000000000000000000000000000000000000000000000000000000005f52603260045260245ffd5b7f4e487b71000000000000000000000000000000000000000000000000000000005f52601160045260245ffd5b5f819050919050565b5f620005fb82620005e6565b91507fffffffffffffffffffffffffffffffffffffffffffffffffffffffffffffffff820362000630576200062f620005b9565b5b600182019050919050565b60805160a05160c051612360620006825f395f818161050b01528181611039015261116501525f81816107c201528181610cf501526110dc01525f6109b701526123605ff3fe608060405234801561000f575f80fd5b5060043610610156575f3560e01c806392777b29116100c1578063e8111a121161007a578063e8111a1214610415578063f25e55a514610433578063f301af4214610463578063f320772314610493578063f5f8d365146104af578063f7412baf146104cb57610156565b806392777b291461032f5780639cc7f7081461035f5780639e2bf22c1461038f578063a28d4c9c146103ab578063b66503cf146103db578063e6886396146103f757610156565b806349dcc2041161011357806349dcc204146102205780634d5ce038146102515780635058979314610281578063572b6c05146102b157806376f4be36146102e15780637da0a8771461031157610156565b806318160ddd1461015a5780631be05289146101785780631f850716146101965780633e491d47146101b4578063456cb7c6146101e457806346c96aac14610202575b5f80fd5b6101626104fc565b60405161016f9190611b86565b60405180910390f35b610180610502565b60405161018d9190611b86565b60405180910390f35b61019e610509565b6040516101ab9190611bde565b60405180910390f35b6101ce60048036038101906101c99190611c5c565b61052d565b6040516101db9190611b86565b60405180910390f35b6101ec61079b565b6040516101f99190611bde565b60405180910390f35b61020a6107c0565b6040516102179190611bde565b60405180910390f35b61023a60048036038101906102359190611c9a565b6107e4565b604051610248929190611cd8565b60405180910390f35b61026b60048036038101906102669190611cff565b61080f565b6040516102789190611d44565b60405180910390f35b61029b60048036038101906102969190611d5d565b61082c565b6040516102a89190611b86565b60405180910390f35b6102cb60048036038101906102c69190611cff565b610841565b6040516102d89190611d44565b60405180910390f35b6102fb60048036038101906102f69190611d5d565b61087f565b6040516103089190611b86565b60405180910390f35b6103196109b4565b6040516103269190611bde565b60405180910390f35b61034960048036038101906103449190611c5c565b6109db565b6040516103569190611b86565b60405180910390f35b61037960048036038101906103749190611d5d565b6109fb565b6040516103869190611b86565b60405180910390f35b6103a960048036038101906103a49190611c9a565b610a10565b005b6103c560048036038101906103c09190611c9a565b610b57565b6040516103d29190611b86565b60405180910390f35b6103f560048036038101906103f09190611c5c565b610cc9565b005b6103ff610e70565b60405161040c9190611b86565b60405180910390f35b61041d610e7c565b60405161042a9190611b86565b60405180910390f35b61044d60048036038101906104489190611c5c565b610e82565b60405161045a9190611b86565b60405180910390f35b61047d60048036038101906104789190611d5d565b610ea2565b60405161048a9190611bde565b60405180910390f35b6104ad60048036038101906104a89190611c9a565b610edd565b005b6104c960048036038101906104c49190611ed8565b611024565b005b6104e560048036038101906104e09190611d5d565b611216565b6040516104f3929190611cd8565b60405180910390f35b60025481565b62093a8081565b7f000000000000000000000000000000000000000000000000000000000000000081565b5f8060095f8481526020019081526020015f20540361054e575f9050610795565b5f80600190505f6105aa60055f8873ffffffffffffffffffffffffffffffffffffffff1673ffffffffffffffffffffffffffffffffffffffff1681526020019081526020015f205f8781526020019081526020015f2054611236565b90505f6105b78683610b57565b90505f60085f8881526020019081526020015f205f8381526020019081526020015f206040518060400160405290815f8201548152602001600182015481525050905061060f8361060a835f0151611236565b611254565b92505f62093a808461062042611236565b61062a9190611f5f565b6106349190611fbf565b90505f81111561078b575f5b818110156107895761066c89600162093a808861065d9190611fef565b6106679190611f5f565b610b57565b935060085f8a81526020019081526020015f205f8581526020019081526020015f206040518060400160405290815f820154815260200160018201548152505092506106ef600a5f6106d7600162093a808a6106c89190611fef565b6106d29190611f5f565b61087f565b81526020019081526020015f20600101546001611254565b95508560045f8c73ffffffffffffffffffffffffffffffffffffffff1673ffffffffffffffffffffffffffffffffffffffff1681526020019081526020015f205f8781526020019081526020015f2054846020015161074e9190612022565b6107589190611fbf565b876107639190611fef565b965062093a80856107749190611fef565b9450808061078190612063565b915050610640565b505b8596505050505050505b92915050565b60015f9054906101000a900473ffffffffffffffffffffffffffffffffffffffff1681565b7f000000000000000000000000000000000000000000000000000000000000000081565b6008602052815f5260405f20602052805f5260405f205f9150915050805f0154908060010154905082565b6007602052805f5260405f205f915054906101000a900460ff1681565b6009602052805f5260405f205f915090505481565b5f61084a6109b4565b73ffffffffffffffffffffffffffffffffffffffff168273ffffffffffffffffffffffffffffffffffffffff16149050919050565b5f80600b5490505f8103610896575f9150506109af565b82600a5f6001846108a79190611f5f565b81526020019081526020015f205f0154116108d1576001816108c99190611f5f565b9150506109af565b82600a5f8081526020019081526020015f205f015411156108f5575f9150506109af565b5f806001836109049190611f5f565b90505b818111156109a8575f6002838361091e9190611f5f565b6109289190611fbf565b826109339190611f5f565b90505f600a5f8381526020019081526020015f206040518060400160405290815f8201548152602001600182015481525050905086815f01510361097e5781955050505050506109af565b86815f01511015610991578193506109a1565b60018261099e9190611f5f565b92505b5050610907565b8193505050505b919050565b5f7f0000000000000000000000000000000000000000000000000000000000000000905090565b6004602052815f5260405f20602052805f5260405f205f91509150505481565b6003602052805f5260405f205f915090505481565b5f610a1961126c565b905060015f9054906101000a900473ffffffffffffffffffffffffffffffffffffffff1673ffffffffffffffffffffffffffffffffffffffff168173ffffffffffffffffffffffffffffffffffffffff1614610aa1576040517fea8e4eb500000000000000000000000000000000000000000000000000000000815260040160405180910390fd5b8260025f828254610ab29190611f5f565b925050819055508260035f8481526020019081526020015f205f828254610ad99190611f5f565b92505081905550610afb8260035f8581526020019081526020015f20546112dd565b610b03611415565b818173ffffffffffffffffffffffffffffffffffffffff167ff279e6a1f5e320cca91135676d9cb6e44ca8a08c0b88342bcdb1144f6511b56885604051610b4a9190611b86565b60405180910390a3505050565b5f8060095f8581526020019081526020015f205490505f8103610b7d575f915050610cc3565b8260085f8681526020019081526020015f205f600184610b9d9190611f5f565b81526020019081526020015f205f015411610bc757600181610bbf9190611f5f565b915050610cc3565b8260085f8681526020019081526020015f205f8081526020019081526020015f205f01541115610bfa575f915050610cc3565b5f80600183610c099190611f5f565b90505b81811115610cbc575f60028383610c239190611f5f565b610c2d9190611fbf565b82610c389190611f5f565b90505f60085f8981526020019081526020015f205f8381526020019081526020015f206040518060400160405290815f8201548152602001600182015481525050905086815f015103610c92578195505050505050610cc3565b86815f01511015610ca557819350610cb5565b600182610cb29190611f5f565b92505b5050610c0c565b8193505050505b92915050565b610cd1611504565b5f610cda61126c565b90503073ffffffffffffffffffffffffffffffffffffffff167f000000000000000000000000000000000000000000000000000000000000000073ffffffffffffffffffffffffffffffffffffffff1663c4f08165836040518263ffffffff1660e01b8152600401610d4c9190611bde565b602060405180830381865afa158015610d67573d5f803e3d5ffd5b505050506040513d601f19601f82011682018060405250810190610d8b91906120be565b73ffffffffffffffffffffffffffffffffffffffff1614610dd8576040517f08c736c200000000000000000000000000000000000000000000000000000000815260040160405180910390fd5b60075f8473ffffffffffffffffffffffffffffffffffffffff1673ffffffffffffffffffffffffffffffffffffffff1681526020019081526020015f205f9054906101000a900460ff16610e58576040517f28829e8200000000000000000000000000000000000000000000000000000000815260040160405180910390fd5b610e63818484611548565b50610e6c611688565b5050565b5f600680549050905090565b600b5481565b6005602052815f5260405f20602052805f5260405f205f91509150505481565b60068181548110610eb1575f80fd5b905f5260205f20015f915054906101000a900473ffffffffffffffffffffffffffffffffffffffff1681565b5f610ee661126c565b905060015f9054906101000a900473ffffffffffffffffffffffffffffffffffffffff1673ffffffffffffffffffffffffffffffffffffffff168173ffffffffffffffffffffffffffffffffffffffff1614610f6e576040517fea8e4eb500000000000000000000000000000000000000000000000000000000815260040160405180910390fd5b8260025f828254610f7f9190611fef565b925050819055508260035f8481526020019081526020015f205f828254610fa69190611fef565b92505081905550610fc88260035f8581526020019081526020015f20546112dd565b610fd0611415565b818173ffffffffffffffffffffffffffffffffffffffff167f90890809c654f11d6e72a28fa60149770a0d11ec6c92319d6ceb2bb0a4ea1a15856040516110179190611b86565b60405180910390a3505050565b61102c611504565b5f61103561126c565b90507f000000000000000000000000000000000000000000000000000000000000000073ffffffffffffffffffffffffffffffffffffffff1663430c208182856040518363ffffffff1660e01b81526004016110929291906120e9565b6020604051808303815f875af11580156110ae573d5f803e3d5ffd5b505050506040513d601f19601f820116820180604052508101906110d2919061213a565b15801561112b57507f000000000000000000000000000000000000000000000000000000000000000073ffffffffffffffffffffffffffffffffffffffff168173ffffffffffffffffffffffffffffffffffffffff1614155b15611162576040517fea8e4eb500000000000000000000000000000000000000000000000000000000815260040160405180910390fd5b5f7f000000000000000000000000000000000000000000000000000000000000000073ffffffffffffffffffffffffffffffffffffffff16636352211e856040518263ffffffff1660e01b81526004016111bc9190611b86565b602060405180830381865afa1580156111d7573d5f803e3d5ffd5b505050506040513d601f19601f820116820180604052508101906111fb91906120be565b9050611208818585611691565b5050611212611688565b5050565b600a602052805f5260405f205f91509050805f0154908060010154905082565b5f62093a80828161124a57611249611f92565b5b0682039050919050565b5f8183116112625781611264565b825b905092915050565b5f805f36905090505f61127d61181a565b905061128833610841565b80156112945750808210155b156112cd575f3682846112a79190611f5f565b9080926112b69392919061216d565b906112c191906121e8565b60601c925050506112da565b6112d5611822565b925050505b90565b5f60095f8481526020019081526020015f205490505f4290505f82118015611342575061130981611236565b61134060085f8781526020019081526020015f205f60018661132b9190611f5f565b81526020019081526020015f205f0154611236565b145b156113a25760405180604001604052808281526020018481525060085f8681526020019081526020015f205f60018561137b9190611f5f565b81526020019081526020015f205f820151815f01556020820151816001015590505061140f565b60405180604001604052808281526020018481525060085f8681526020019081526020015f205f8481526020019081526020015f205f820151815f0155602082015181600101559050506001826113f99190611fef565b60095f8681526020019081526020015f20819055505b50505050565b5f600b5490505f4290505f8211801561145c575061143281611236565b61145a600a5f6001866114459190611f5f565b81526020019081526020015f205f0154611236565b145b156114af576040518060400160405280828152602001600254815250600a5f6001856114889190611f5f565b81526020019081526020015f205f820151815f015560208201518160010155905050611500565b6040518060400160405280828152602001600254815250600a5f8481526020019081526020015f205f820151815f0155602082015181600101559050506001826114f99190611fef565b600b819055505b5050565b60025f540361153f576040517f3ee5aeb500000000000000000000000000000000000000000000000000000000815260040160405180910390fd5b60025f81905550565b5f8103611581576040517f1f2a200500000000000000000000000000000000000000000000000000000000815260040160405180910390fd5b6115ae8330838573ffffffffffffffffffffffffffffffffffffffff16611829909392919063ffffffff16565b5f6115b842611236565b90508160045f8573ffffffffffffffffffffffffffffffffffffffff1673ffffffffffffffffffffffffffffffffffffffff1681526020019081526020015f205f8381526020019081526020015f205f8282546116159190611fef565b92505081905550808373ffffffffffffffffffffffffffffffffffffffff168573ffffffffffffffffffffffffffffffffffffffff167f52977ea98a2220a03ee9ba5cb003ada08d394ea10155483c95dc2dc77a7eb24b8560405161167a9190611b86565b60405180910390a450505050565b60015f81905550565b5f815190505f5b81811015611813575f6116c58483815181106116b7576116b6612246565b5b60200260200101518661052d565b90504260055f8685815181106116de576116dd612246565b5b602002602001015173ffffffffffffffffffffffffffffffffffffffff1673ffffffffffffffffffffffffffffffffffffffff1681526020019081526020015f205f8781526020019081526020015f20819055505f8111156117805761177f868286858151811061175257611751612246565b5b602002602001015173ffffffffffffffffffffffffffffffffffffffff166118ab9092919063ffffffff16565b5b83828151811061179357611792612246565b5b602002602001015173ffffffffffffffffffffffffffffffffffffffff168673ffffffffffffffffffffffffffffffffffffffff167f9aa05b3d70a9e3e2f004f039648839560576334fb45c81f91b6db03ad9e2efc9836040516117f79190611b86565b60405180910390a350808061180b90612063565b915050611698565b5050505050565b5f6014905090565b5f33905090565b6118a5848573ffffffffffffffffffffffffffffffffffffffff166323b872dd86868660405160240161185e93929190612273565b604051602081830303815290604052915060e01b6020820180517bffffffffffffffffffffffffffffffffffffffffffffffffffffffff838183161783525050505061192a565b50505050565b611925838473ffffffffffffffffffffffffffffffffffffffff1663a9059cbb85856040516024016118de9291906120e9565b604051602081830303815290604052915060e01b6020820180517bffffffffffffffffffffffffffffffffffffffffffffffffffffffff838183161783525050505061192a565b505050565b5f611954828473ffffffffffffffffffffffffffffffffffffffff166119bf90919063ffffffff16565b90505f815114158015611978575080806020019051810190611976919061213a565b155b156119ba57826040517f5274afe70000000000000000000000000000000000000000000000000000000081526004016119b19190611bde565b60405180910390fd5b505050565b60606119cc83835f6119d4565b905092915050565b606081471015611a1b57306040517fcd786059000000000000000000000000000000000000000000000000000000008152600401611a129190611bde565b60405180910390fd5b5f808573ffffffffffffffffffffffffffffffffffffffff168486604051611a439190612314565b5f6040518083038185875af1925050503d805f8114611a7d576040519150601f19603f3d011682016040523d82523d5f602084013e611a82565b606091505b5091509150611a92868383611a9d565b925050509392505050565b606082611ab257611aad82611b2a565b611b22565b5f8251148015611ad857505f8473ffffffffffffffffffffffffffffffffffffffff163b145b15611b1a57836040517f9996b315000000000000000000000000000000000000000000000000000000008152600401611b119190611bde565b60405180910390fd5b819050611b23565b5b9392505050565b5f81511115611b3c5780518082602001fd5b6040517f1425ea4200000000000000000000000000000000000000000000000000000000815260040160405180910390fd5b5f819050919050565b611b8081611b6e565b82525050565b5f602082019050611b995f830184611b77565b92915050565b5f73ffffffffffffffffffffffffffffffffffffffff82169050919050565b5f611bc882611b9f565b9050919050565b611bd881611bbe565b82525050565b5f602082019050611bf15f830184611bcf565b92915050565b5f604051905090565b5f80fd5b5f80fd5b611c1181611bbe565b8114611c1b575f80fd5b50565b5f81359050611c2c81611c08565b92915050565b611c3b81611b6e565b8114611c45575f80fd5b50565b5f81359050611c5681611c32565b92915050565b5f8060408385031215611c7257611c71611c00565b5b5f611c7f85828601611c1e565b9250506020611c9085828601611c48565b9150509250929050565b5f8060408385031215611cb057611caf611c00565b5b5f611cbd85828601611c48565b9250506020611cce85828601611c48565b9150509250929050565b5f604082019050611ceb5f830185611b77565b611cf86020830184611b77565b9392505050565b5f60208284031215611d1457611d13611c00565b5b5f611d2184828501611c1e565b91505092915050565b5f8115159050919050565b611d3e81611d2a565b82525050565b5f602082019050611d575f830184611d35565b92915050565b5f60208284031215611d7257611d71611c00565b5b5f611d7f84828501611c48565b91505092915050565b5f80fd5b5f601f19601f8301169050919050565b7f4e487b71000000000000000000000000000000000000000000000000000000005f52604160045260245ffd5b611dd282611d8c565b810181811067ffffffffffffffff82111715611df157611df0611d9c565b5b80604052505050565b5f611e03611bf7565b9050611e0f8282611dc9565b919050565b5f67ffffffffffffffff821115611e2e57611e2d611d9c565b5b602082029050602081019050919050565b5f80fd5b5f611e55611e5084611e14565b611dfa565b90508083825260208201905060208402830185811115611e7857611e77611e3f565b5b835b81811015611ea15780611e8d8882611c1e565b845260208401935050602081019050611e7a565b5050509392505050565b5f82601f830112611ebf57611ebe611d88565b5b8135611ecf848260208601611e43565b91505092915050565b5f8060408385031215611eee57611eed611c00565b5b5f611efb85828601611c48565b925050602083013567ffffffffffffffff811115611f1c57611f1b611c04565b5b611f2885828601611eab565b9150509250929050565b7f4e487b71000000000000000000000000000000000000000000000000000000005f52601160045260245ffd5b5f611f6982611b6e565b9150611f7483611b6e565b9250828203905081811115611f8c57611f8b611f32565b5b92915050565b7f4e487b71000000000000000000000000000000000000000000000000000000005f52601260045260245ffd5b5f611fc982611b6e565b9150611fd483611b6e565b925082611fe457611fe3611f92565b5b828204905092915050565b5f611ff982611b6e565b915061200483611b6e565b925082820190508082111561201c5761201b611f32565b5b92915050565b5f61202c82611b6e565b915061203783611b6e565b925082820261204581611b6e565b9150828204841483151761205c5761205b611f32565b5b5092915050565b5f61206d82611b6e565b91507fffffffffffffffffffffffffffffffffffffffffffffffffffffffffffffffff820361209f5761209e611f32565b5b600182019050919050565b5f815190506120b881611c08565b92915050565b5f602082840312156120d3576120d2611c00565b5b5f6120e0848285016120aa565b91505092915050565b5f6040820190506120fc5f830185611bcf565b6121096020830184611b77565b9392505050565b61211981611d2a565b8114612123575f80fd5b50565b5f8151905061213481612110565b92915050565b5f6020828403121561214f5761214e611c00565b5b5f61215c84828501612126565b91505092915050565b5f80fd5b5f80fd5b5f80858511156121805761217f612165565b5b8386111561219157612190612169565b5b6001850283019150848603905094509492505050565b5f82905092915050565b5f7fffffffffffffffffffffffffffffffffffffffff00000000000000000000000082169050919050565b5f82821b905092915050565b5f6121f383836121a7565b826121fe81356121b1565b9250601482101561223e576122397fffffffffffffffffffffffffffffffffffffffff000000000000000000000000836014036008026121dc565b831692505b505092915050565b7f4e487b71000000000000000000000000000000000000000000000000000000005f52603260045260245ffd5b5f6060820190506122865f830186611bcf565b6122936020830185611bcf565b6122a06040830184611b77565b949350505050565b5f81519050919050565b5f81905092915050565b5f5b838110156122d95780820151818401526020810190506122be565b5f8484015250505050565b5f6122ee826122a8565b6122f881856122b2565b93506123088185602086016122bc565b80840191505092915050565b5f61231f82846122e4565b91508190509291505056fea2646970667358221220a1c8c35e5395e059bd893c9829eb3c5e0038647cec59480152da61525ab1cb2364736f6c6343000814003360e060405234801562000010575f80fd5b5060405162002a3838038062002a388339818101604052810190620000369190620004e4565b8282828282818073ffffffffffffffffffffffffffffffffffffffff1660808173ffffffffffffffffffffffffffffffffffffffff16815250505060015f819055508073ffffffffffffffffffffffffffffffffffffffff1660a08173ffffffffffffffffffffffffffffffffffffffff16815250508073ffffffffffffffffffffffffffffffffffffffff16631f8507166040518163ffffffff1660e01b8152600401602060405180830381865afa158015620000f6573d5f803e3d5ffd5b505050506040513d601f19601f820116820180604052508101906200011c91906200055c565b73ffffffffffffffffffffffffffffffffffffffff1660c08173ffffffffffffffffffffffffffffffffffffffff168152505050505f815190505f5b81811015620002b8575f73ffffffffffffffffffffffffffffffffffffffff168382815181106200018e576200018d6200058c565b5b602002602001015173ffffffffffffffffffffffffffffffffffffffff1614620002a257600160075f858481518110620001cd57620001cc6200058c565b5b602002602001015173ffffffffffffffffffffffffffffffffffffffff1673ffffffffffffffffffffffffffffffffffffffff1681526020019081526020015f205f6101000a81548160ff02191690831515021790555060068382815181106200023c576200023b6200058c565b5b6020026020010151908060018154018082558091505060019003905f5260205f20015f9091909190916101000a81548173ffffffffffffffffffffffffffffffffffffffff021916908373ffffffffffffffffffffffffffffffffffffffff1602179055505b8080620002af90620005ef565b91505062000158565b508260015f6101000a81548173ffffffffffffffffffffffffffffffffffffffff021916908373ffffffffffffffffffffffffffffffffffffffff160217905550505050505050506200063b565b5f604051905090565b5f80fd5b5f80fd5b5f73ffffffffffffffffffffffffffffffffffffffff82169050919050565b5f620003428262000317565b9050919050565b620003548162000336565b81146200035f575f80fd5b50565b5f81519050620003728162000349565b92915050565b5f80fd5b5f601f19601f8301169050919050565b7f4e487b71000000000000000000000000000000000000000000000000000000005f52604160045260245ffd5b620003c4826200037c565b810181811067ffffffffffffffff82111715620003e657620003e56200038c565b5b80604052505050565b5f620003fa62000306565b9050620004088282620003b9565b919050565b5f67ffffffffffffffff8211156200042a57620004296200038c565b5b602082029050602081019050919050565b5f80fd5b5f620004556200044f846200040d565b620003ef565b905080838252602082019050602084028301858111156200047b576200047a6200043b565b5b835b81811015620004a8578062000493888262000362565b8452602084019350506020810190506200047d565b5050509392505050565b5f82601f830112620004c957620004c862000378565b5b8151620004db8482602086016200043f565b91505092915050565b5f805f60608486031215620004fe57620004fd6200030f565b5b5f6200050d8682870162000362565b9350506020620005208682870162000362565b925050604084015167ffffffffffffffff81111562000544576200054362000313565b5b6200055286828701620004b2565b9150509250925092565b5f602082840312156200057457620005736200030f565b5b5f620005838482850162000362565b91505092915050565b7f4e487b71000000000000000000000000000000000000000000000000000000005f52603260045260245ffd5b7f4e487b71000000000000000000000000000000000000000000000000000000005f52601160045260245ffd5b5f819050919050565b5f620005fb82620005e6565b91507fffffffffffffffffffffffffffffffffffffffffffffffffffffffffffffffff820362000630576200062f620005b9565b5b600182019050919050565b60805160a05160c0516123b6620006825f395f818161050b0152818161108f01526111bb01525f81816107c201528181610d2c015261113201525f6109b701526123b65ff3fe608060405234801561000f575f80fd5b5060043610610156575f3560e01c806392777b29116100c1578063e8111a121161007a578063e8111a1214610415578063f25e55a514610433578063f301af4214610463578063f320772314610493578063f5f8d365146104af578063f7412baf146104cb57610156565b806392777b291461032f5780639cc7f7081461035f5780639e2bf22c1461038f578063a28d4c9c146103ab578063b66503cf146103db578063e6886396146103f757610156565b806349dcc2041161011357806349dcc204146102205780634d5ce038146102515780635058979314610281578063572b6c05146102b157806376f4be36146102e15780637da0a8771461031157610156565b806318160ddd1461015a5780631be05289146101785780631f850716146101965780633e491d47146101b4578063456cb7c6146101e457806346c96aac14610202575b5f80fd5b6101626104fc565b60405161016f9190611bdc565b60405180910390f35b610180610502565b60405161018d9190611bdc565b60405180910390f35b61019e610509565b6040516101ab9190611c34565b60405180910390f35b6101ce60048036038101906101c99190611cb2565b61052d565b6040516101db9190611bdc565b60405180910390f35b6101ec61079b565b6040516101f99190611c34565b60405180910390f35b61020a6107c0565b6040516102179190611c34565b60405180910390f35b61023a60048036038101906102359190611cf0565b6107e4565b604051610248929190611d2e565b60405180910390f35b61026b60048036038101906102669190611d55565b61080f565b6040516102789190611d9a565b60405180910390f35b61029b60048036038101906102969190611db3565b61082c565b6040516102a89190611bdc565b60405180910390f35b6102cb60048036038101906102c69190611d55565b610841565b6040516102d89190611d9a565b60405180910390f35b6102fb60048036038101906102f69190611db3565b61087f565b6040516103089190611bdc565b60405180910390f35b6103196109b4565b6040516103269190611c34565b60405180910390f35b61034960048036038101906103449190611cb2565b6109db565b6040516103569190611bdc565b60405180910390f35b61037960048036038101906103749190611db3565b6109fb565b6040516103869190611bdc565b60405180910390f35b6103a960048036038101906103a49190611cf0565b610a10565b005b6103c560048036038101906103c09190611cf0565b610b57565b6040516103d29190611bdc565b60405180910390f35b6103f560048036038101906103f09190611cb2565b610cc9565b005b6103ff610ec6565b60405161040c9190611bdc565b60405180910390f35b61041d610ed2565b60405161042a9190611bdc565b60405180910390f35b61044d60048036038101906104489190611cb2565b610ed8565b60405161045a9190611bdc565b60405180910390f35b61047d60048036038101906104789190611db3565b610ef8565b60405161048a9190611c34565b60405180910390f35b6104ad60048036038101906104a89190611cf0565b610f33565b005b6104c960048036038101906104c49190611f2e565b61107a565b005b6104e560048036038101906104e09190611db3565b61126c565b6040516104f3929190611d2e565b60405180910390f35b60025481565b62093a8081565b7f000000000000000000000000000000000000000000000000000000000000000081565b5f8060095f8481526020019081526020015f20540361054e575f9050610795565b5f80600190505f6105aa60055f8873ffffffffffffffffffffffffffffffffffffffff1673ffffffffffffffffffffffffffffffffffffffff1681526020019081526020015f205f8781526020019081526020015f205461128c565b90505f6105b78683610b57565b90505f60085f8881526020019081526020015f205f8381526020019081526020015f206040518060400160405290815f8201548152602001600182015481525050905061060f8361060a835f015161128c565b6112aa565b92505f62093a80846106204261128c565b61062a9190611fb5565b6106349190612015565b90505f81111561078b575f5b818110156107895761066c89600162093a808861065d9190612045565b6106679190611fb5565b610b57565b935060085f8a81526020019081526020015f205f8581526020019081526020015f206040518060400160405290815f820154815260200160018201548152505092506106ef600a5f6106d7600162093a808a6106c89190612045565b6106d29190611fb5565b61087f565b81526020019081526020015f206001015460016112aa565b95508560045f8c73ffffffffffffffffffffffffffffffffffffffff1673ffffffffffffffffffffffffffffffffffffffff1681526020019081526020015f205f8781526020019081526020015f2054846020015161074e9190612078565b6107589190612015565b876107639190612045565b965062093a80856107749190612045565b94508080610781906120b9565b915050610640565b505b8596505050505050505b92915050565b60015f9054906101000a900473ffffffffffffffffffffffffffffffffffffffff1681565b7f000000000000000000000000000000000000000000000000000000000000000081565b6008602052815f5260405f20602052805f5260405f205f9150915050805f0154908060010154905082565b6007602052805f5260405f205f915054906101000a900460ff1681565b6009602052805f5260405f205f915090505481565b5f61084a6109b4565b73ffffffffffffffffffffffffffffffffffffffff168273ffffffffffffffffffffffffffffffffffffffff16149050919050565b5f80600b5490505f8103610896575f9150506109af565b82600a5f6001846108a79190611fb5565b81526020019081526020015f205f0154116108d1576001816108c99190611fb5565b9150506109af565b82600a5f8081526020019081526020015f205f015411156108f5575f9150506109af565b5f806001836109049190611fb5565b90505b818111156109a8575f6002838361091e9190611fb5565b6109289190612015565b826109339190611fb5565b90505f600a5f8381526020019081526020015f206040518060400160405290815f8201548152602001600182015481525050905086815f01510361097e5781955050505050506109af565b86815f01511015610991578193506109a1565b60018261099e9190611fb5565b92505b5050610907565b8193505050505b919050565b5f7f0000000000000000000000000000000000000000000000000000000000000000905090565b6004602052815f5260405f20602052805f5260405f205f91509150505481565b6003602052805f5260405f205f915090505481565b5f610a196112c2565b905060015f9054906101000a900473ffffffffffffffffffffffffffffffffffffffff1673ffffffffffffffffffffffffffffffffffffffff168173ffffffffffffffffffffffffffffffffffffffff1614610aa1576040517fea8e4eb500000000000000000000000000000000000000000000000000000000815260040160405180910390fd5b8260025f828254610ab29190611fb5565b925050819055508260035f8481526020019081526020015f205f828254610ad99190611fb5565b92505081905550610afb8260035f8581526020019081526020015f2054611333565b610b0361146b565b818173ffffffffffffffffffffffffffffffffffffffff167ff279e6a1f5e320cca91135676d9cb6e44ca8a08c0b88342bcdb1144f6511b56885604051610b4a9190611bdc565b60405180910390a3505050565b5f8060095f8581526020019081526020015f205490505f8103610b7d575f915050610cc3565b8260085f8681526020019081526020015f205f600184610b9d9190611fb5565b81526020019081526020015f205f015411610bc757600181610bbf9190611fb5565b915050610cc3565b8260085f8681526020019081526020015f205f8081526020019081526020015f205f01541115610bfa575f915050610cc3565b5f80600183610c099190611fb5565b90505b81811115610cbc575f60028383610c239190611fb5565b610c2d9190612015565b82610c389190611fb5565b90505f60085f8981526020019081526020015f205f8381526020019081526020015f206040518060400160405290815f8201548152602001600182015481525050905086815f015103610c92578195505050505050610cc3565b86815f01511015610ca557819350610cb5565b600182610cb29190611fb5565b92505b5050610c0c565b8193505050505b92915050565b610cd161155a565b5f610cda6112c2565b905060075f8473ffffffffffffffffffffffffffffffffffffffff1673ffffffffffffffffffffffffffffffffffffffff1681526020019081526020015f205f9054906101000a900460ff16610eae577f000000000000000000000000000000000000000000000000000000000000000073ffffffffffffffffffffffffffffffffffffffff1663ab37f486846040518263ffffffff1660e01b8152600401610d839190611c34565b602060405180830381865afa158015610d9e573d5f803e3d5ffd5b505050506040513d601f19601f82011682018060405250810190610dc2919061212a565b610df8576040517f584a793800000000000000000000000000000000000000000000000000000000815260040160405180910390fd5b600160075f8573ffffffffffffffffffffffffffffffffffffffff1673ffffffffffffffffffffffffffffffffffffffff1681526020019081526020015f205f6101000a81548160ff021916908315150217905550600683908060018154018082558091505060019003905f5260205f20015f9091909190916101000a81548173ffffffffffffffffffffffffffffffffffffffff021916908373ffffffffffffffffffffffffffffffffffffffff1602179055505b610eb981848461159e565b50610ec26116de565b5050565b5f600680549050905090565b600b5481565b6005602052815f5260405f20602052805f5260405f205f91509150505481565b60068181548110610f07575f80fd5b905f5260205f20015f915054906101000a900473ffffffffffffffffffffffffffffffffffffffff1681565b5f610f3c6112c2565b905060015f9054906101000a900473ffffffffffffffffffffffffffffffffffffffff1673ffffffffffffffffffffffffffffffffffffffff168173ffffffffffffffffffffffffffffffffffffffff1614610fc4576040517fea8e4eb500000000000000000000000000000000000000000000000000000000815260040160405180910390fd5b8260025f828254610fd59190612045565b925050819055508260035f8481526020019081526020015f205f828254610ffc9190612045565b9250508190555061101e8260035f8581526020019081526020015f2054611333565b61102661146b565b818173ffffffffffffffffffffffffffffffffffffffff167f90890809c654f11d6e72a28fa60149770a0d11ec6c92319d6ceb2bb0a4ea1a158560405161106d9190611bdc565b60405180910390a3505050565b61108261155a565b5f61108b6112c2565b90507f000000000000000000000000000000000000000000000000000000000000000073ffffffffffffffffffffffffffffffffffffffff1663430c208182856040518363ffffffff1660e01b81526004016110e8929190612155565b6020604051808303815f875af1158015611104573d5f803e3d5ffd5b505050506040513d601f19601f82011682018060405250810190611128919061212a565b15801561118157507f000000000000000000000000000000000000000000000000000000000000000073ffffffffffffffffffffffffffffffffffffffff168173ffffffffffffffffffffffffffffffffffffffff1614155b156111b8576040517fea8e4eb500000000000000000000000000000000000000000000000000000000815260040160405180910390fd5b5f7f000000000000000000000000000000000000000000000000000000000000000073ffffffffffffffffffffffffffffffffffffffff16636352211e856040518263ffffffff1660e01b81526004016112129190611bdc565b602060405180830381865afa15801561122d573d5f803e3d5ffd5b505050506040513d601f19601f820116820180604052508101906112519190612190565b905061125e8185856116e7565b50506112686116de565b5050565b600a602052805f5260405f205f91509050805f0154908060010154905082565b5f62093a8082816112a05761129f611fe8565b5b0682039050919050565b5f8183116112b857816112ba565b825b905092915050565b5f805f36905090505f6112d3611870565b90506112de33610841565b80156112ea5750808210155b15611323575f3682846112fd9190611fb5565b90809261130c939291906121c3565b90611317919061223e565b60601c92505050611330565b61132b611878565b925050505b90565b5f60095f8481526020019081526020015f205490505f4290505f82118015611398575061135f8161128c565b61139660085f8781526020019081526020015f205f6001866113819190611fb5565b81526020019081526020015f205f015461128c565b145b156113f85760405180604001604052808281526020018481525060085f8681526020019081526020015f205f6001856113d19190611fb5565b81526020019081526020015f205f820151815f015560208201518160010155905050611465565b60405180604001604052808281526020018481525060085f8681526020019081526020015f205f8481526020019081526020015f205f820151815f01556020820151816001015590505060018261144f9190612045565b60095f8681526020019081526020015f20819055505b50505050565b5f600b5490505f4290505f821180156114b257506114888161128c565b6114b0600a5f60018661149b9190611fb5565b81526020019081526020015f205f015461128c565b145b15611505576040518060400160405280828152602001600254815250600a5f6001856114de9190611fb5565b81526020019081526020015f205f820151815f015560208201518160010155905050611556565b6040518060400160405280828152602001600254815250600a5f8481526020019081526020015f205f820151815f01556020820151816001015590505060018261154f9190612045565b600b819055505b5050565b60025f5403611595576040517f3ee5aeb500000000000000000000000000000000000000000000000000000000815260040160405180910390fd5b60025f81905550565b5f81036115d7576040517f1f2a200500000000000000000000000000000000000000000000000000000000815260040160405180910390fd5b6116048330838573ffffffffffffffffffffffffffffffffffffffff1661187f909392919063ffffffff16565b5f61160e4261128c565b90508160045f8573ffffffffffffffffffffffffffffffffffffffff1673ffffffffffffffffffffffffffffffffffffffff1681526020019081526020015f205f8381526020019081526020015f205f82825461166b9190612045565b92505081905550808373ffffffffffffffffffffffffffffffffffffffff168573ffffffffffffffffffffffffffffffffffffffff167f52977ea98a2220a03ee9ba5cb003ada08d394ea10155483c95dc2dc77a7eb24b856040516116d09190611bdc565b60405180910390a450505050565b60015f81905550565b5f815190505f5b81811015611869575f61171b84838151811061170d5761170c61229c565b5b60200260200101518661052d565b90504260055f8685815181106117345761173361229c565b5b602002602001015173ffffffffffffffffffffffffffffffffffffffff1673ffffffffffffffffffffffffffffffffffffffff1681526020019081526020015f205f8781526020019081526020015f20819055505f8111156117d6576117d586828685815181106117a8576117a761229c565b5b602002602001015173ffffffffffffffffffffffffffffffffffffffff166119019092919063ffffffff16565b5b8382815181106117e9576117e861229c565b5b602002602001015173ffffffffffffffffffffffffffffffffffffffff168673ffffffffffffffffffffffffffffffffffffffff167f9aa05b3d70a9e3e2f004f039648839560576334fb45c81f91b6db03ad9e2efc98360405161184d9190611bdc565b60405180910390a3508080611861906120b9565b9150506116ee565b5050505050565b5f6014905090565b5f33905090565b6118fb848573ffffffffffffffffffffffffffffffffffffffff166323b872dd8686866040516024016118b4939291906122c9565b604051602081830303815290604052915060e01b6020820180517bffffffffffffffffffffffffffffffffffffffffffffffffffffffff8381831617835250505050611980565b50505050565b61197b838473ffffffffffffffffffffffffffffffffffffffff1663a9059cbb8585604051602401611934929190612155565b604051602081830303815290604052915060e01b6020820180517bffffffffffffffffffffffffffffffffffffffffffffffffffffffff8381831617835250505050611980565b505050565b5f6119aa828473ffffffffffffffffffffffffffffffffffffffff16611a1590919063ffffffff16565b90505f8151141580156119ce5750808060200190518101906119cc919061212a565b155b15611a1057826040517f5274afe7000000000000000000000000000000000000000000000000000000008152600401611a079190611c34565b60405180910390fd5b505050565b6060611a2283835f611a2a565b905092915050565b606081471015611a7157306040517fcd786059000000000000000000000000000000000000000000000000000000008152600401611a689190611c34565b60405180910390fd5b5f808573ffffffffffffffffffffffffffffffffffffffff168486604051611a99919061236a565b5f6040518083038185875af1925050503d805f8114611ad3576040519150601f19603f3d011682016040523d82523d5f602084013e611ad8565b606091505b5091509150611ae8868383611af3565b925050509392505050565b606082611b0857611b0382611b80565b611b78565b5f8251148015611b2e57505f8473ffffffffffffffffffffffffffffffffffffffff163b145b15611b7057836040517f9996b315000000000000000000000000000000000000000000000000000000008152600401611b679190611c34565b60405180910390fd5b819050611b79565b5b9392505050565b5f81511115611b925780518082602001fd5b6040517f1425ea4200000000000000000000000000000000000000000000000000000000815260040160405180910390fd5b5f819050919050565b611bd681611bc4565b82525050565b5f602082019050611bef5f830184611bcd565b92915050565b5f73ffffffffffffffffffffffffffffffffffffffff82169050919050565b5f611c1e82611bf5565b9050919050565b611c2e81611c14565b82525050565b5f602082019050611c475f830184611c25565b92915050565b5f604051905090565b5f80fd5b5f80fd5b611c6781611c14565b8114611c71575f80fd5b50565b5f81359050611c8281611c5e565b92915050565b611c9181611bc4565b8114611c9b575f80fd5b50565b5f81359050611cac81611c88565b92915050565b5f8060408385031215611cc857611cc7611c56565b5b5f611cd585828601611c74565b9250506020611ce685828601611c9e565b9150509250929050565b5f8060408385031215611d0657611d05611c56565b5b5f611d1385828601611c9e565b9250506020611d2485828601611c9e565b9150509250929050565b5f604082019050611d415f830185611bcd565b611d4e6020830184611bcd565b9392505050565b5f60208284031215611d6a57611d69611c56565b5b5f611d7784828501611c74565b91505092915050565b5f8115159050919050565b611d9481611d80565b82525050565b5f602082019050611dad5f830184611d8b565b92915050565b5f60208284031215611dc857611dc7611c56565b5b5f611dd584828501611c9e565b91505092915050565b5f80fd5b5f601f19601f8301169050919050565b7f4e487b71000000000000000000000000000000000000000000000000000000005f52604160045260245ffd5b611e2882611de2565b810181811067ffffffffffffffff82111715611e4757611e46611df2565b5b80604052505050565b5f611e59611c4d565b9050611e658282611e1f565b919050565b5f67ffffffffffffffff821115611e8457611e83611df2565b5b602082029050602081019050919050565b5f80fd5b5f611eab611ea684611e6a565b611e50565b90508083825260208201905060208402830185811115611ece57611ecd611e95565b5b835b81811015611ef75780611ee38882611c74565b845260208401935050602081019050611ed0565b5050509392505050565b5f82601f830112611f1557611f14611dde565b5b8135611f25848260208601611e99565b91505092915050565b5f8060408385031215611f4457611f43611c56565b5b5f611f5185828601611c9e565b925050602083013567ffffffffffffffff811115611f7257611f71611c5a565b5b611f7e85828601611f01565b9150509250929050565b7f4e487b71000000000000000000000000000000000000000000000000000000005f52601160045260245ffd5b5f611fbf82611bc4565b9150611fca83611bc4565b9250828203905081811115611fe257611fe1611f88565b5b92915050565b7f4e487b71000000000000000000000000000000000000000000000000000000005f52601260045260245ffd5b5f61201f82611bc4565b915061202a83611bc4565b92508261203a57612039611fe8565b5b828204905092915050565b5f61204f82611bc4565b915061205a83611bc4565b925082820190508082111561207257612071611f88565b5b92915050565b5f61208282611bc4565b915061208d83611bc4565b925082820261209b81611bc4565b915082820484148315176120b2576120b1611f88565b5b5092915050565b5f6120c382611bc4565b91507fffffffffffffffffffffffffffffffffffffffffffffffffffffffffffffffff82036120f5576120f4611f88565b5b600182019050919050565b61210981611d80565b8114612113575f80fd5b50565b5f8151905061212481612100565b92915050565b5f6020828403121561213f5761213e611c56565b5b5f61214c84828501612116565b91505092915050565b5f6040820190506121685f830185611c25565b6121756020830184611bcd565b9392505050565b5f8151905061218a81611c5e565b92915050565b5f602082840312156121a5576121a4611c56565b5b5f6121b28482850161217c565b91505092915050565b5f80fd5b5f80fd5b5f80858511156121d6576121d56121bb565b5b838611156121e7576121e66121bf565b5b6001850283019150848603905094509492505050565b5f82905092915050565b5f7fffffffffffffffffffffffffffffffffffffffff00000000000000000000000082169050919050565b5f82821b905092915050565b5f61224983836121fd565b826122548135612207565b925060148210156122945761228f7fffffffffffffffffffffffffffffffffffffffff00000000000000000000000083601403600802612232565b831692505b505092915050565b7f4e487b71000000000000000000000000000000000000000000000000000000005f52603260045260245ffd5b5f6060820190506122dc5f830186611c25565b6122e96020830185611c25565b6122f66040830184611bcd565b949350505050565b5f81519050919050565b5f81905092915050565b5f5b8381101561232f578082015181840152602081019050612314565b5f8484015250505050565b5f612344826122fe565b61234e8185612308565b935061235e818560208601612312565b80840191505092915050565b5f612375828461233a565b91508190509291505056fea26469706673582212205c4ffef5f8a5186460525a82d14fc4a9e2bf10ea13a22f5af2912a488d8400bc64736f6c63430008140033a2646970667358221220441d8d8b062867fff729623555702cd00e356b7b95abca3e7f69fd4773bdd58f64736f6c63430008140033",
			"opcodes": "PUSH1 0x80 PUSH1 0x40 MSTORE CALLVALUE DUP1 ISZERO PUSH2 0xF JUMPI PUSH0 DUP1 REVERT JUMPDEST POP PUSH2 0x58DB DUP1 PUSH2 0x1D PUSH0 CODECOPY PUSH0 RETURN INVALID PUSH1 0x80 PUSH1 0x40 MSTORE CALLVALUE DUP1 ISZERO PUSH3 0x10 JUMPI PUSH0 DUP1 REVERT JUMPDEST POP PUSH1 0x4 CALLDATASIZE LT PUSH3 0x2C JUMPI PUSH0 CALLDATALOAD PUSH1 0xE0 SHR DUP1 PUSH4 0x4C455A97 EQ PUSH3 0x30 JUMPI JUMPDEST PUSH0 DUP1 REVERT JUMPDEST PUSH3 0x4E PUSH1 0x4 DUP1 CALLDATASIZE SUB DUP2 ADD SWAP1 PUSH3 0x48 SWAP2 SWAP1 PUSH3 0x2E2 JUMP JUMPDEST PUSH3 0x67 JUMP JUMPDEST PUSH1 0x40 MLOAD PUSH3 0x5E SWAP3 SWAP2 SWAP1 PUSH3 0x357 JUMP JUMPDEST PUSH1 0x40 MLOAD DUP1 SWAP2 SUB SWAP1 RETURN JUMPDEST PUSH0 DUP1 DUP4 CALLER DUP5 PUSH1 0x40 MLOAD PUSH3 0x7A SWAP1 PUSH3 0xE8 JUMP JUMPDEST PUSH3 0x88 SWAP4 SWAP3 SWAP2 SWAP1 PUSH3 0x449 JUMP JUMPDEST PUSH1 0x40 MLOAD DUP1 SWAP2 SUB SWAP1 PUSH0 CREATE DUP1 ISZERO DUP1 ISZERO PUSH3 0xA2 JUMPI RETURNDATASIZE PUSH0 DUP1 RETURNDATACOPY RETURNDATASIZE PUSH0 REVERT JUMPDEST POP SWAP2 POP DUP4 CALLER DUP5 PUSH1 0x40 MLOAD PUSH3 0xB6 SWAP1 PUSH3 0xF6 JUMP JUMPDEST PUSH3 0xC4 SWAP4 SWAP3 SWAP2 SWAP1 PUSH3 0x449 JUMP JUMPDEST PUSH1 0x40 MLOAD DUP1 SWAP2 SUB SWAP1 PUSH0 CREATE DUP1 ISZERO DUP1 ISZERO PUSH3 0xDE JUMPI RETURNDATASIZE PUSH0 DUP1 RETURNDATACOPY RETURNDATASIZE PUSH0 REVERT JUMPDEST POP SWAP1 POP SWAP3 POP SWAP3 SWAP1 POP JUMP JUMPDEST PUSH2 0x29E2 DUP1 PUSH3 0x48C DUP4 CODECOPY ADD SWAP1 JUMP JUMPDEST PUSH2 0x2A38 DUP1 PUSH3 0x2E6E DUP4 CODECOPY ADD SWAP1 JUMP JUMPDEST PUSH0 PUSH1 0x40 MLOAD SWAP1 POP SWAP1 JUMP JUMPDEST PUSH0 DUP1 REVERT JUMPDEST PUSH0 DUP1 REVERT JUMPDEST PUSH0 PUSH20 0xFFFFFFFFFFFFFFFFFFFFFFFFFFFFFFFFFFFFFFFF DUP3 AND SWAP1 POP SWAP2 SWAP1 POP JUMP JUMPDEST PUSH0 PUSH3 0x140 DUP3 PUSH3 0x115 JUMP JUMPDEST SWAP1 POP SWAP2 SWAP1 POP JUMP JUMPDEST PUSH3 0x152 DUP2 PUSH3 0x134 JUMP JUMPDEST DUP2 EQ PUSH3 0x15D JUMPI PUSH0 DUP1 REVERT JUMPDEST POP JUMP JUMPDEST PUSH0 DUP2 CALLDATALOAD SWAP1 POP PUSH3 0x170 DUP2 PUSH3 0x147 JUMP JUMPDEST SWAP3 SWAP2 POP POP JUMP JUMPDEST PUSH0 DUP1 REVERT JUMPDEST PUSH0 PUSH1 0x1F NOT PUSH1 0x1F DUP4 ADD AND SWAP1 POP SWAP2 SWAP1 POP JUMP JUMPDEST PUSH32 0x4E487B7100000000000000000000000000000000000000000000000000000000 PUSH0 MSTORE PUSH1 0x41 PUSH1 0x4 MSTORE PUSH1 0x24 PUSH0 REVERT JUMPDEST PUSH3 0x1C2 DUP3 PUSH3 0x17A JUMP JUMPDEST DUP2 ADD DUP2 DUP2 LT PUSH8 0xFFFFFFFFFFFFFFFF DUP3 GT OR ISZERO PUSH3 0x1E4 JUMPI PUSH3 0x1E3 PUSH3 0x18A JUMP JUMPDEST JUMPDEST DUP1 PUSH1 0x40 MSTORE POP POP POP JUMP JUMPDEST PUSH0 PUSH3 0x1F8 PUSH3 0x104 JUMP JUMPDEST SWAP1 POP PUSH3 0x206 DUP3 DUP3 PUSH3 0x1B7 JUMP JUMPDEST SWAP2 SWAP1 POP JUMP JUMPDEST PUSH0 PUSH8 0xFFFFFFFFFFFFFFFF DUP3 GT ISZERO PUSH3 0x228 JUMPI PUSH3 0x227 PUSH3 0x18A JUMP JUMPDEST JUMPDEST PUSH1 0x20 DUP3 MUL SWAP1 POP PUSH1 0x20 DUP2 ADD SWAP1 POP SWAP2 SWAP1 POP JUMP JUMPDEST PUSH0 DUP1 REVERT JUMPDEST PUSH0 PUSH3 0x253 PUSH3 0x24D DUP5 PUSH3 0x20B JUMP JUMPDEST PUSH3 0x1ED JUMP JUMPDEST SWAP1 POP DUP1 DUP4 DUP3 MSTORE PUSH1 0x20 DUP3 ADD SWAP1 POP PUSH1 0x20 DUP5 MUL DUP4 ADD DUP6 DUP2 GT ISZERO PUSH3 0x279 JUMPI PUSH3 0x278 PUSH3 0x239 JUMP JUMPDEST JUMPDEST DUP4 JUMPDEST DUP2 DUP2 LT ISZERO PUSH3 0x2A6 JUMPI DUP1 PUSH3 0x291 DUP9 DUP3 PUSH3 0x160 JUMP JUMPDEST DUP5 MSTORE PUSH1 0x20 DUP5 ADD SWAP4 POP POP PUSH1 0x20 DUP2 ADD SWAP1 POP PUSH3 0x27B JUMP JUMPDEST POP POP POP SWAP4 SWAP3 POP POP POP JUMP JUMPDEST PUSH0 DUP3 PUSH1 0x1F DUP4 ADD SLT PUSH3 0x2C7 JUMPI PUSH3 0x2C6 PUSH3 0x176 JUMP JUMPDEST JUMPDEST DUP2 CALLDATALOAD PUSH3 0x2D9 DUP5 DUP3 PUSH1 0x20 DUP7 ADD PUSH3 0x23D JUMP JUMPDEST SWAP2 POP POP SWAP3 SWAP2 POP POP JUMP JUMPDEST PUSH0 DUP1 PUSH1 0x40 DUP4 DUP6 SUB SLT ISZERO PUSH3 0x2FB JUMPI PUSH3 0x2FA PUSH3 0x10D JUMP JUMPDEST JUMPDEST PUSH0 PUSH3 0x30A DUP6 DUP3 DUP7 ADD PUSH3 0x160 JUMP JUMPDEST SWAP3 POP POP PUSH1 0x20 DUP4 ADD CALLDATALOAD PUSH8 0xFFFFFFFFFFFFFFFF DUP2 GT ISZERO PUSH3 0x32E JUMPI PUSH3 0x32D PUSH3 0x111 JUMP JUMPDEST JUMPDEST PUSH3 0x33C DUP6 DUP3 DUP7 ADD PUSH3 0x2B0 JUMP JUMPDEST SWAP2 POP POP SWAP3 POP SWAP3 SWAP1 POP JUMP JUMPDEST PUSH3 0x351 DUP2 PUSH3 0x134 JUMP JUMPDEST DUP3 MSTORE POP POP JUMP JUMPDEST PUSH0 PUSH1 0x40 DUP3 ADD SWAP1 POP PUSH3 0x36C PUSH0 DUP4 ADD DUP6 PUSH3 0x346 JUMP JUMPDEST PUSH3 0x37B PUSH1 0x20 DUP4 ADD DUP5 PUSH3 0x346 JUMP JUMPDEST SWAP4 SWAP3 POP POP POP JUMP JUMPDEST PUSH0 DUP2 MLOAD SWAP1 POP SWAP2 SWAP1 POP JUMP JUMPDEST PUSH0 DUP3 DUP3 MSTORE PUSH1 0x20 DUP3 ADD SWAP1 POP SWAP3 SWAP2 POP POP JUMP JUMPDEST PUSH0 DUP2 SWAP1 POP PUSH1 0x20 DUP3 ADD SWAP1 POP SWAP2 SWAP1 POP JUMP JUMPDEST PUSH3 0x3B6 DUP2 PUSH3 0x134 JUMP JUMPDEST DUP3 MSTORE POP POP JUMP JUMPDEST PUSH0 PUSH3 0x3C9 DUP4 DUP4 PUSH3 0x3AB JUMP JUMPDEST PUSH1 0x20 DUP4 ADD SWAP1 POP SWAP3 SWAP2 POP POP JUMP JUMPDEST PUSH0 PUSH1 0x20 DUP3 ADD SWAP1 POP SWAP2 SWAP1 POP JUMP JUMPDEST PUSH0 PUSH3 0x3ED DUP3 PUSH3 0x382 JUMP JUMPDEST PUSH3 0x3F9 DUP2 DUP6 PUSH3 0x38C JUMP JUMPDEST SWAP4 POP PUSH3 0x406 DUP4 PUSH3 0x39C JUMP JUMPDEST DUP1 PUSH0 JUMPDEST DUP4 DUP2 LT ISZERO PUSH3 0x43C JUMPI DUP2 MLOAD PUSH3 0x420 DUP9 DUP3 PUSH3 0x3BC JUMP JUMPDEST SWAP8 POP PUSH3 0x42D DUP4 PUSH3 0x3D5 JUMP JUMPDEST SWAP3 POP POP PUSH1 0x1 DUP2 ADD SWAP1 POP PUSH3 0x409 JUMP JUMPDEST POP DUP6 SWAP4 POP POP POP POP SWAP3 SWAP2 POP POP JUMP JUMPDEST PUSH0 PUSH1 0x60 DUP3 ADD SWAP1 POP PUSH3 0x45E PUSH0 DUP4 ADD DUP7 PUSH3 0x346 JUMP JUMPDEST PUSH3 0x46D PUSH1 0x20 DUP4 ADD DUP6 PUSH3 0x346 JUMP JUMPDEST DUP2 DUP2 SUB PUSH1 0x40 DUP4 ADD MSTORE PUSH3 0x481 DUP2 DUP5 PUSH3 0x3E1 JUMP JUMPDEST SWAP1 POP SWAP5 SWAP4 POP POP POP POP JUMP INVALID PUSH1 0xE0 PUSH1 0x40 MSTORE CALLVALUE DUP1 ISZERO PUSH3 0x10 JUMPI PUSH0 DUP1 REVERT JUMPDEST POP PUSH1 0x40 MLOAD PUSH3 0x29E2 CODESIZE SUB DUP1 PUSH3 0x29E2 DUP4 CODECOPY DUP2 DUP2 ADD PUSH1 0x40 MSTORE DUP2 ADD SWAP1 PUSH3 0x36 SWAP2 SWAP1 PUSH3 0x4E4 JUMP JUMPDEST DUP3 DUP3 DUP3 DUP3 DUP3 DUP2 DUP1 PUSH20 0xFFFFFFFFFFFFFFFFFFFFFFFFFFFFFFFFFFFFFFFF AND PUSH1 0x80 DUP2 PUSH20 0xFFFFFFFFFFFFFFFFFFFFFFFFFFFFFFFFFFFFFFFF AND DUP2 MSTORE POP POP POP PUSH1 0x1 PUSH0 DUP2 SWAP1 SSTORE POP DUP1 PUSH20 0xFFFFFFFFFFFFFFFFFFFFFFFFFFFFFFFFFFFFFFFF AND PUSH1 0xA0 DUP2 PUSH20 0xFFFFFFFFFFFFFFFFFFFFFFFFFFFFFFFFFFFFFFFF AND DUP2 MSTORE POP POP DUP1 PUSH20 0xFFFFFFFFFFFFFFFFFFFFFFFFFFFFFFFFFFFFFFFF AND PUSH4 0x1F850716 PUSH1 0x40 MLOAD DUP2 PUSH4 0xFFFFFFFF AND PUSH1 0xE0 SHL DUP2 MSTORE PUSH1 0x4 ADD PUSH1 0x20 PUSH1 0x40 MLOAD DUP1 DUP4 SUB DUP2 DUP7 GAS STATICCALL ISZERO DUP1 ISZERO PUSH3 0xF6 JUMPI RETURNDATASIZE PUSH0 DUP1 RETURNDATACOPY RETURNDATASIZE PUSH0 REVERT JUMPDEST POP POP POP POP PUSH1 0x40 MLOAD RETURNDATASIZE PUSH1 0x1F NOT PUSH1 0x1F DUP3 ADD AND DUP3 ADD DUP1 PUSH1 0x40 MSTORE POP DUP2 ADD SWAP1 PUSH3 0x11C SWAP2 SWAP1 PUSH3 0x55C JUMP JUMPDEST PUSH20 0xFFFFFFFFFFFFFFFFFFFFFFFFFFFFFFFFFFFFFFFF AND PUSH1 0xC0 DUP2 PUSH20 0xFFFFFFFFFFFFFFFFFFFFFFFFFFFFFFFFFFFFFFFF AND DUP2 MSTORE POP POP POP POP PUSH0 DUP2 MLOAD SWAP1 POP PUSH0 JUMPDEST DUP2 DUP2 LT ISZERO PUSH3 0x2B8 JUMPI PUSH0 PUSH20 0xFFFFFFFFFFFFFFFFFFFFFFFFFFFFFFFFFFFFFFFF AND DUP4 DUP3 DUP2 MLOAD DUP2 LT PUSH3 0x18E JUMPI PUSH3 0x18D PUSH3 0x58C JUMP JUMPDEST JUMPDEST PUSH1 0x20 MUL PUSH1 0x20 ADD ADD MLOAD PUSH20 0xFFFFFFFFFFFFFFFFFFFFFFFFFFFFFFFFFFFFFFFF AND EQ PUSH3 0x2A2 JUMPI PUSH1 0x1 PUSH1 0x7 PUSH0 DUP6 DUP5 DUP2 MLOAD DUP2 LT PUSH3 0x1CD JUMPI PUSH3 0x1CC PUSH3 0x58C JUMP JUMPDEST JUMPDEST PUSH1 0x20 MUL PUSH1 0x20 ADD ADD MLOAD PUSH20 0xFFFFFFFFFFFFFFFFFFFFFFFFFFFFFFFFFFFFFFFF AND PUSH20 0xFFFFFFFFFFFFFFFFFFFFFFFFFFFFFFFFFFFFFFFF AND DUP2 MSTORE PUSH1 0x20 ADD SWAP1 DUP2 MSTORE PUSH1 0x20 ADD PUSH0 KECCAK256 PUSH0 PUSH2 0x100 EXP DUP2 SLOAD DUP2 PUSH1 0xFF MUL NOT AND SWAP1 DUP4 ISZERO ISZERO MUL OR SWAP1 SSTORE POP PUSH1 0x6 DUP4 DUP3 DUP2 MLOAD DUP2 LT PUSH3 0x23C JUMPI PUSH3 0x23B PUSH3 0x58C JUMP JUMPDEST JUMPDEST PUSH1 0x20 MUL PUSH1 0x20 ADD ADD MLOAD SWAP1 DUP1 PUSH1 0x1 DUP2 SLOAD ADD DUP1 DUP3 SSTORE DUP1 SWAP2 POP POP PUSH1 0x1 SWAP1 SUB SWAP1 PUSH0 MSTORE PUSH1 0x20 PUSH0 KECCAK256 ADD PUSH0 SWAP1 SWAP2 SWAP1 SWAP2 SWAP1 SWAP2 PUSH2 0x100 EXP DUP2 SLOAD DUP2 PUSH20 0xFFFFFFFFFFFFFFFFFFFFFFFFFFFFFFFFFFFFFFFF MUL NOT AND SWAP1 DUP4 PUSH20 0xFFFFFFFFFFFFFFFFFFFFFFFFFFFFFFFFFFFFFFFF AND MUL OR SWAP1 SSTORE POP JUMPDEST DUP1 DUP1 PUSH3 0x2AF SWAP1 PUSH3 0x5EF JUMP JUMPDEST SWAP2 POP POP PUSH3 0x158 JUMP JUMPDEST POP DUP3 PUSH1 0x1 PUSH0 PUSH2 0x100 EXP DUP2 SLOAD DUP2 PUSH20 0xFFFFFFFFFFFFFFFFFFFFFFFFFFFFFFFFFFFFFFFF MUL NOT AND SWAP1 DUP4 PUSH20 0xFFFFFFFFFFFFFFFFFFFFFFFFFFFFFFFFFFFFFFFF AND MUL OR SWAP1 SSTORE POP POP POP POP POP POP POP POP PUSH3 0x63B JUMP JUMPDEST PUSH0 PUSH1 0x40 MLOAD SWAP1 POP SWAP1 JUMP JUMPDEST PUSH0 DUP1 REVERT JUMPDEST PUSH0 DUP1 REVERT JUMPDEST PUSH0 PUSH20 0xFFFFFFFFFFFFFFFFFFFFFFFFFFFFFFFFFFFFFFFF DUP3 AND SWAP1 POP SWAP2 SWAP1 POP JUMP JUMPDEST PUSH0 PUSH3 0x342 DUP3 PUSH3 0x317 JUMP JUMPDEST SWAP1 POP SWAP2 SWAP1 POP JUMP JUMPDEST PUSH3 0x354 DUP2 PUSH3 0x336 JUMP JUMPDEST DUP2 EQ PUSH3 0x35F JUMPI PUSH0 DUP1 REVERT JUMPDEST POP JUMP JUMPDEST PUSH0 DUP2 MLOAD SWAP1 POP PUSH3 0x372 DUP2 PUSH3 0x349 JUMP JUMPDEST SWAP3 SWAP2 POP POP JUMP JUMPDEST PUSH0 DUP1 REVERT JUMPDEST PUSH0 PUSH1 0x1F NOT PUSH1 0x1F DUP4 ADD AND SWAP1 POP SWAP2 SWAP1 POP JUMP JUMPDEST PUSH32 0x4E487B7100000000000000000000000000000000000000000000000000000000 PUSH0 MSTORE PUSH1 0x41 PUSH1 0x4 MSTORE PUSH1 0x24 PUSH0 REVERT JUMPDEST PUSH3 0x3C4 DUP3 PUSH3 0x37C JUMP JUMPDEST DUP2 ADD DUP2 DUP2 LT PUSH8 0xFFFFFFFFFFFFFFFF DUP3 GT OR ISZERO PUSH3 0x3E6 JUMPI PUSH3 0x3E5 PUSH3 0x38C JUMP JUMPDEST JUMPDEST DUP1 PUSH1 0x40 MSTORE POP POP POP JUMP JUMPDEST PUSH0 PUSH3 0x3FA PUSH3 0x306 JUMP JUMPDEST SWAP1 POP PUSH3 0x408 DUP3 DUP3 PUSH3 0x3B9 JUMP JUMPDEST SWAP2 SWAP1 POP JUMP JUMPDEST PUSH0 PUSH8 0xFFFFFFFFFFFFFFFF DUP3 GT ISZERO PUSH3 0x42A JUMPI PUSH3 0x429 PUSH3 0x38C JUMP JUMPDEST JUMPDEST PUSH1 0x20 DUP3 MUL SWAP1 POP PUSH1 0x20 DUP2 ADD SWAP1 POP SWAP2 SWAP1 POP JUMP JUMPDEST PUSH0 DUP1 REVERT JUMPDEST PUSH0 PUSH3 0x455 PUSH3 0x44F DUP5 PUSH3 0x40D JUMP JUMPDEST PUSH3 0x3EF JUMP JUMPDEST SWAP1 POP DUP1 DUP4 DUP3 MSTORE PUSH1 0x20 DUP3 ADD SWAP1 POP PUSH1 0x20 DUP5 MUL DUP4 ADD DUP6 DUP2 GT ISZERO PUSH3 0x47B JUMPI PUSH3 0x47A PUSH3 0x43B JUMP JUMPDEST JUMPDEST DUP4 JUMPDEST DUP2 DUP2 LT ISZERO PUSH3 0x4A8 JUMPI DUP1 PUSH3 0x493 DUP9 DUP3 PUSH3 0x362 JUMP JUMPDEST DUP5 MSTORE PUSH1 0x20 DUP5 ADD SWAP4 POP POP PUSH1 0x20 DUP2 ADD SWAP1 POP PUSH3 0x47D JUMP JUMPDEST POP POP POP SWAP4 SWAP3 POP POP POP JUMP JUMPDEST PUSH0 DUP3 PUSH1 0x1F DUP4 ADD SLT PUSH3 0x4C9 JUMPI PUSH3 0x4C8 PUSH3 0x378 JUMP JUMPDEST JUMPDEST DUP2 MLOAD PUSH3 0x4DB DUP5 DUP3 PUSH1 0x20 DUP7 ADD PUSH3 0x43F JUMP JUMPDEST SWAP2 POP POP SWAP3 SWAP2 POP POP JUMP JUMPDEST PUSH0 DUP1 PUSH0 PUSH1 0x60 DUP5 DUP7 SUB SLT ISZERO PUSH3 0x4FE JUMPI PUSH3 0x4FD PUSH3 0x30F JUMP JUMPDEST JUMPDEST PUSH0 PUSH3 0x50D DUP7 DUP3 DUP8 ADD PUSH3 0x362 JUMP JUMPDEST SWAP4 POP POP PUSH1 0x20 PUSH3 0x520 DUP7 DUP3 DUP8 ADD PUSH3 0x362 JUMP JUMPDEST SWAP3 POP POP PUSH1 0x40 DUP5 ADD MLOAD PUSH8 0xFFFFFFFFFFFFFFFF DUP2 GT ISZERO PUSH3 0x544 JUMPI PUSH3 0x543 PUSH3 0x313 JUMP JUMPDEST JUMPDEST PUSH3 0x552 DUP7 DUP3 DUP8 ADD PUSH3 0x4B2 JUMP JUMPDEST SWAP2 POP POP SWAP3 POP SWAP3 POP SWAP3 JUMP JUMPDEST PUSH0 PUSH1 0x20 DUP3 DUP5 SUB SLT ISZERO PUSH3 0x574 JUMPI PUSH3 0x573 PUSH3 0x30F JUMP JUMPDEST JUMPDEST PUSH0 PUSH3 0x583 DUP5 DUP3 DUP6 ADD PUSH3 0x362 JUMP JUMPDEST SWAP2 POP POP SWAP3 SWAP2 POP POP JUMP JUMPDEST PUSH32 0x4E487B7100000000000000000000000000000000000000000000000000000000 PUSH0 MSTORE PUSH1 0x32 PUSH1 0x4 MSTORE PUSH1 0x24 PUSH0 REVERT JUMPDEST PUSH32 0x4E487B7100000000000000000000000000000000000000000000000000000000 PUSH0 MSTORE PUSH1 0x11 PUSH1 0x4 MSTORE PUSH1 0x24 PUSH0 REVERT JUMPDEST PUSH0 DUP2 SWAP1 POP SWAP2 SWAP1 POP JUMP JUMPDEST PUSH0 PUSH3 0x5FB DUP3 PUSH3 0x5E6 JUMP JUMPDEST SWAP2 POP PUSH32 0xFFFFFFFFFFFFFFFFFFFFFFFFFFFFFFFFFFFFFFFFFFFFFFFFFFFFFFFFFFFFFFFF DUP3 SUB PUSH3 0x630 JUMPI PUSH3 0x62F PUSH3 0x5B9 JUMP JUMPDEST JUMPDEST PUSH1 0x1 DUP3 ADD SWAP1 POP SWAP2 SWAP1 POP JUMP JUMPDEST PUSH1 0x80 MLOAD PUSH1 0xA0 MLOAD PUSH1 0xC0 MLOAD PUSH2 0x2360 PUSH3 0x682 PUSH0 CODECOPY PUSH0 DUP2 DUP2 PUSH2 0x50B ADD MSTORE DUP2 DUP2 PUSH2 0x1039 ADD MSTORE PUSH2 0x1165 ADD MSTORE PUSH0 DUP2 DUP2 PUSH2 0x7C2 ADD MSTORE DUP2 DUP2 PUSH2 0xCF5 ADD MSTORE PUSH2 0x10DC ADD MSTORE PUSH0 PUSH2 0x9B7 ADD MSTORE PUSH2 0x2360 PUSH0 RETURN INVALID PUSH1 0x80 PUSH1 0x40 MSTORE CALLVALUE DUP1 ISZERO PUSH2 0xF JUMPI PUSH0 DUP1 REVERT JUMPDEST POP PUSH1 0x4 CALLDATASIZE LT PUSH2 0x156 JUMPI PUSH0 CALLDATALOAD PUSH1 0xE0 SHR DUP1 PUSH4 0x92777B29 GT PUSH2 0xC1 JUMPI DUP1 PUSH4 0xE8111A12 GT PUSH2 0x7A JUMPI DUP1 PUSH4 0xE8111A12 EQ PUSH2 0x415 JUMPI DUP1 PUSH4 0xF25E55A5 EQ PUSH2 0x433 JUMPI DUP1 PUSH4 0xF301AF42 EQ PUSH2 0x463 JUMPI DUP1 PUSH4 0xF3207723 EQ PUSH2 0x493 JUMPI DUP1 PUSH4 0xF5F8D365 EQ PUSH2 0x4AF JUMPI DUP1 PUSH4 0xF7412BAF EQ PUSH2 0x4CB JUMPI PUSH2 0x156 JUMP JUMPDEST DUP1 PUSH4 0x92777B29 EQ PUSH2 0x32F JUMPI DUP1 PUSH4 0x9CC7F708 EQ PUSH2 0x35F JUMPI DUP1 PUSH4 0x9E2BF22C EQ PUSH2 0x38F JUMPI DUP1 PUSH4 0xA28D4C9C EQ PUSH2 0x3AB JUMPI DUP1 PUSH4 0xB66503CF EQ PUSH2 0x3DB JUMPI DUP1 PUSH4 0xE6886396 EQ PUSH2 0x3F7 JUMPI PUSH2 0x156 JUMP JUMPDEST DUP1 PUSH4 0x49DCC204 GT PUSH2 0x113 JUMPI DUP1 PUSH4 0x49DCC204 EQ PUSH2 0x220 JUMPI DUP1 PUSH4 0x4D5CE038 EQ PUSH2 0x251 JUMPI DUP1 PUSH4 0x50589793 EQ PUSH2 0x281 JUMPI DUP1 PUSH4 0x572B6C05 EQ PUSH2 0x2B1 JUMPI DUP1 PUSH4 0x76F4BE36 EQ PUSH2 0x2E1 JUMPI DUP1 PUSH4 0x7DA0A877 EQ PUSH2 0x311 JUMPI PUSH2 0x156 JUMP JUMPDEST DUP1 PUSH4 0x18160DDD EQ PUSH2 0x15A JUMPI DUP1 PUSH4 0x1BE05289 EQ PUSH2 0x178 JUMPI DUP1 PUSH4 0x1F850716 EQ PUSH2 0x196 JUMPI DUP1 PUSH4 0x3E491D47 EQ PUSH2 0x1B4 JUMPI DUP1 PUSH4 0x456CB7C6 EQ PUSH2 0x1E4 JUMPI DUP1 PUSH4 0x46C96AAC EQ PUSH2 0x202 JUMPI JUMPDEST PUSH0 DUP1 REVERT JUMPDEST PUSH2 0x162 PUSH2 0x4FC JUMP JUMPDEST PUSH1 0x40 MLOAD PUSH2 0x16F SWAP2 SWAP1 PUSH2 0x1B86 JUMP JUMPDEST PUSH1 0x40 MLOAD DUP1 SWAP2 SUB SWAP1 RETURN JUMPDEST PUSH2 0x180 PUSH2 0x502 JUMP JUMPDEST PUSH1 0x40 MLOAD PUSH2 0x18D SWAP2 SWAP1 PUSH2 0x1B86 JUMP JUMPDEST PUSH1 0x40 MLOAD DUP1 SWAP2 SUB SWAP1 RETURN JUMPDEST PUSH2 0x19E PUSH2 0x509 JUMP JUMPDEST PUSH1 0x40 MLOAD PUSH2 0x1AB SWAP2 SWAP1 PUSH2 0x1BDE JUMP JUMPDEST PUSH1 0x40 MLOAD DUP1 SWAP2 SUB SWAP1 RETURN JUMPDEST PUSH2 0x1CE PUSH1 0x4 DUP1 CALLDATASIZE SUB DUP2 ADD SWAP1 PUSH2 0x1C9 SWAP2 SWAP1 PUSH2 0x1C5C JUMP JUMPDEST PUSH2 0x52D JUMP JUMPDEST PUSH1 0x40 MLOAD PUSH2 0x1DB SWAP2 SWAP1 PUSH2 0x1B86 JUMP JUMPDEST PUSH1 0x40 MLOAD DUP1 SWAP2 SUB SWAP1 RETURN JUMPDEST PUSH2 0x1EC PUSH2 0x79B JUMP JUMPDEST PUSH1 0x40 MLOAD PUSH2 0x1F9 SWAP2 SWAP1 PUSH2 0x1BDE JUMP JUMPDEST PUSH1 0x40 MLOAD DUP1 SWAP2 SUB SWAP1 RETURN JUMPDEST PUSH2 0x20A PUSH2 0x7C0 JUMP JUMPDEST PUSH1 0x40 MLOAD PUSH2 0x217 SWAP2 SWAP1 PUSH2 0x1BDE JUMP JUMPDEST PUSH1 0x40 MLOAD DUP1 SWAP2 SUB SWAP1 RETURN JUMPDEST PUSH2 0x23A PUSH1 0x4 DUP1 CALLDATASIZE SUB DUP2 ADD SWAP1 PUSH2 0x235 SWAP2 SWAP1 PUSH2 0x1C9A JUMP JUMPDEST PUSH2 0x7E4 JUMP JUMPDEST PUSH1 0x40 MLOAD PUSH2 0x248 SWAP3 SWAP2 SWAP1 PUSH2 0x1CD8 JUMP JUMPDEST PUSH1 0x40 MLOAD DUP1 SWAP2 SUB SWAP1 RETURN JUMPDEST PUSH2 0x26B PUSH1 0x4 DUP1 CALLDATASIZE SUB DUP2 ADD SWAP1 PUSH2 0x266 SWAP2 SWAP1 PUSH2 0x1CFF JUMP JUMPDEST PUSH2 0x80F JUMP JUMPDEST PUSH1 0x40 MLOAD PUSH2 0x278 SWAP2 SWAP1 PUSH2 0x1D44 JUMP JUMPDEST PUSH1 0x40 MLOAD DUP1 SWAP2 SUB SWAP1 RETURN JUMPDEST PUSH2 0x29B PUSH1 0x4 DUP1 CALLDATASIZE SUB DUP2 ADD SWAP1 PUSH2 0x296 SWAP2 SWAP1 PUSH2 0x1D5D JUMP JUMPDEST PUSH2 0x82C JUMP JUMPDEST PUSH1 0x40 MLOAD PUSH2 0x2A8 SWAP2 SWAP1 PUSH2 0x1B86 JUMP JUMPDEST PUSH1 0x40 MLOAD DUP1 SWAP2 SUB SWAP1 RETURN JUMPDEST PUSH2 0x2CB PUSH1 0x4 DUP1 CALLDATASIZE SUB DUP2 ADD SWAP1 PUSH2 0x2C6 SWAP2 SWAP1 PUSH2 0x1CFF JUMP JUMPDEST PUSH2 0x841 JUMP JUMPDEST PUSH1 0x40 MLOAD PUSH2 0x2D8 SWAP2 SWAP1 PUSH2 0x1D44 JUMP JUMPDEST PUSH1 0x40 MLOAD DUP1 SWAP2 SUB SWAP1 RETURN JUMPDEST PUSH2 0x2FB PUSH1 0x4 DUP1 CALLDATASIZE SUB DUP2 ADD SWAP1 PUSH2 0x2F6 SWAP2 SWAP1 PUSH2 0x1D5D JUMP JUMPDEST PUSH2 0x87F JUMP JUMPDEST PUSH1 0x40 MLOAD PUSH2 0x308 SWAP2 SWAP1 PUSH2 0x1B86 JUMP JUMPDEST PUSH1 0x40 MLOAD DUP1 SWAP2 SUB SWAP1 RETURN JUMPDEST PUSH2 0x319 PUSH2 0x9B4 JUMP JUMPDEST PUSH1 0x40 MLOAD PUSH2 0x326 SWAP2 SWAP1 PUSH2 0x1BDE JUMP JUMPDEST PUSH1 0x40 MLOAD DUP1 SWAP2 SUB SWAP1 RETURN JUMPDEST PUSH2 0x349 PUSH1 0x4 DUP1 CALLDATASIZE SUB DUP2 ADD SWAP1 PUSH2 0x344 SWAP2 SWAP1 PUSH2 0x1C5C JUMP JUMPDEST PUSH2 0x9DB JUMP JUMPDEST PUSH1 0x40 MLOAD PUSH2 0x356 SWAP2 SWAP1 PUSH2 0x1B86 JUMP JUMPDEST PUSH1 0x40 MLOAD DUP1 SWAP2 SUB SWAP1 RETURN JUMPDEST PUSH2 0x379 PUSH1 0x4 DUP1 CALLDATASIZE SUB DUP2 ADD SWAP1 PUSH2 0x374 SWAP2 SWAP1 PUSH2 0x1D5D JUMP JUMPDEST PUSH2 0x9FB JUMP JUMPDEST PUSH1 0x40 MLOAD PUSH2 0x386 SWAP2 SWAP1 PUSH2 0x1B86 JUMP JUMPDEST PUSH1 0x40 MLOAD DUP1 SWAP2 SUB SWAP1 RETURN JUMPDEST PUSH2 0x3A9 PUSH1 0x4 DUP1 CALLDATASIZE SUB DUP2 ADD SWAP1 PUSH2 0x3A4 SWAP2 SWAP1 PUSH2 0x1C9A JUMP JUMPDEST PUSH2 0xA10 JUMP JUMPDEST STOP JUMPDEST PUSH2 0x3C5 PUSH1 0x4 DUP1 CALLDATASIZE SUB DUP2 ADD SWAP1 PUSH2 0x3C0 SWAP2 SWAP1 PUSH2 0x1C9A JUMP JUMPDEST PUSH2 0xB57 JUMP JUMPDEST PUSH1 0x40 MLOAD PUSH2 0x3D2 SWAP2 SWAP1 PUSH2 0x1B86 JUMP JUMPDEST PUSH1 0x40 MLOAD DUP1 SWAP2 SUB SWAP1 RETURN JUMPDEST PUSH2 0x3F5 PUSH1 0x4 DUP1 CALLDATASIZE SUB DUP2 ADD SWAP1 PUSH2 0x3F0 SWAP2 SWAP1 PUSH2 0x1C5C JUMP JUMPDEST PUSH2 0xCC9 JUMP JUMPDEST STOP JUMPDEST PUSH2 0x3FF PUSH2 0xE70 JUMP JUMPDEST PUSH1 0x40 MLOAD PUSH2 0x40C SWAP2 SWAP1 PUSH2 0x1B86 JUMP JUMPDEST PUSH1 0x40 MLOAD DUP1 SWAP2 SUB SWAP1 RETURN JUMPDEST PUSH2 0x41D PUSH2 0xE7C JUMP JUMPDEST PUSH1 0x40 MLOAD PUSH2 0x42A SWAP2 SWAP1 PUSH2 0x1B86 JUMP JUMPDEST PUSH1 0x40 MLOAD DUP1 SWAP2 SUB SWAP1 RETURN JUMPDEST PUSH2 0x44D PUSH1 0x4 DUP1 CALLDATASIZE SUB DUP2 ADD SWAP1 PUSH2 0x448 SWAP2 SWAP1 PUSH2 0x1C5C JUMP JUMPDEST PUSH2 0xE82 JUMP JUMPDEST PUSH1 0x40 MLOAD PUSH2 0x45A SWAP2 SWAP1 PUSH2 0x1B86 JUMP JUMPDEST PUSH1 0x40 MLOAD DUP1 SWAP2 SUB SWAP1 RETURN JUMPDEST PUSH2 0x47D PUSH1 0x4 DUP1 CALLDATASIZE SUB DUP2 ADD SWAP1 PUSH2 0x478 SWAP2 SWAP1 PUSH2 0x1D5D JUMP JUMPDEST PUSH2 0xEA2 JUMP JUMPDEST PUSH1 0x40 MLOAD PUSH2 0x48A SWAP2 SWAP1 PUSH2 0x1BDE JUMP JUMPDEST PUSH1 0x40 MLOAD DUP1 SWAP2 SUB SWAP1 RETURN JUMPDEST PUSH2 0x4AD PUSH1 0x4 DUP1 CALLDATASIZE SUB DUP2 ADD SWAP1 PUSH2 0x4A8 SWAP2 SWAP1 PUSH2 0x1C9A JUMP JUMPDEST PUSH2 0xEDD JUMP JUMPDEST STOP JUMPDEST PUSH2 0x4C9 PUSH1 0x4 DUP1 CALLDATASIZE SUB DUP2 ADD SWAP1 PUSH2 0x4C4 SWAP2 SWAP1 PUSH2 0x1ED8 JUMP JUMPDEST PUSH2 0x1024 JUMP JUMPDEST STOP JUMPDEST PUSH2 0x4E5 PUSH1 0x4 DUP1 CALLDATASIZE SUB DUP2 ADD SWAP1 PUSH2 0x4E0 SWAP2 SWAP1 PUSH2 0x1D5D JUMP JUMPDEST PUSH2 0x1216 JUMP JUMPDEST PUSH1 0x40 MLOAD PUSH2 0x4F3 SWAP3 SWAP2 SWAP1 PUSH2 0x1CD8 JUMP JUMPDEST PUSH1 0x40 MLOAD DUP1 SWAP2 SUB SWAP1 RETURN JUMPDEST PUSH1 0x2 SLOAD DUP2 JUMP JUMPDEST PUSH3 0x93A80 DUP2 JUMP JUMPDEST PUSH32 0x0 DUP2 JUMP JUMPDEST PUSH0 DUP1 PUSH1 0x9 PUSH0 DUP5 DUP2 MSTORE PUSH1 0x20 ADD SWAP1 DUP2 MSTORE PUSH1 0x20 ADD PUSH0 KECCAK256 SLOAD SUB PUSH2 0x54E JUMPI PUSH0 SWAP1 POP PUSH2 0x795 JUMP JUMPDEST PUSH0 DUP1 PUSH1 0x1 SWAP1 POP PUSH0 PUSH2 0x5AA PUSH1 0x5 PUSH0 DUP9 PUSH20 0xFFFFFFFFFFFFFFFFFFFFFFFFFFFFFFFFFFFFFFFF AND PUSH20 0xFFFFFFFFFFFFFFFFFFFFFFFFFFFFFFFFFFFFFFFF AND DUP2 MSTORE PUSH1 0x20 ADD SWAP1 DUP2 MSTORE PUSH1 0x20 ADD PUSH0 KECCAK256 PUSH0 DUP8 DUP2 MSTORE PUSH1 0x20 ADD SWAP1 DUP2 MSTORE PUSH1 0x20 ADD PUSH0 KECCAK256 SLOAD PUSH2 0x1236 JUMP JUMPDEST SWAP1 POP PUSH0 PUSH2 0x5B7 DUP7 DUP4 PUSH2 0xB57 JUMP JUMPDEST SWAP1 POP PUSH0 PUSH1 0x8 PUSH0 DUP9 DUP2 MSTORE PUSH1 0x20 ADD SWAP1 DUP2 MSTORE PUSH1 0x20 ADD PUSH0 KECCAK256 PUSH0 DUP4 DUP2 MSTORE PUSH1 0x20 ADD SWAP1 DUP2 MSTORE PUSH1 0x20 ADD PUSH0 KECCAK256 PUSH1 0x40 MLOAD DUP1 PUSH1 0x40 ADD PUSH1 0x40 MSTORE SWAP1 DUP2 PUSH0 DUP3 ADD SLOAD DUP2 MSTORE PUSH1 0x20 ADD PUSH1 0x1 DUP3 ADD SLOAD DUP2 MSTORE POP POP SWAP1 POP PUSH2 0x60F DUP4 PUSH2 0x60A DUP4 PUSH0 ADD MLOAD PUSH2 0x1236 JUMP JUMPDEST PUSH2 0x1254 JUMP JUMPDEST SWAP3 POP PUSH0 PUSH3 0x93A80 DUP5 PUSH2 0x620 TIMESTAMP PUSH2 0x1236 JUMP JUMPDEST PUSH2 0x62A SWAP2 SWAP1 PUSH2 0x1F5F JUMP JUMPDEST PUSH2 0x634 SWAP2 SWAP1 PUSH2 0x1FBF JUMP JUMPDEST SWAP1 POP PUSH0 DUP2 GT ISZERO PUSH2 0x78B JUMPI PUSH0 JUMPDEST DUP2 DUP2 LT ISZERO PUSH2 0x789 JUMPI PUSH2 0x66C DUP10 PUSH1 0x1 PUSH3 0x93A80 DUP9 PUSH2 0x65D SWAP2 SWAP1 PUSH2 0x1FEF JUMP JUMPDEST PUSH2 0x667 SWAP2 SWAP1 PUSH2 0x1F5F JUMP JUMPDEST PUSH2 0xB57 JUMP JUMPDEST SWAP4 POP PUSH1 0x8 PUSH0 DUP11 DUP2 MSTORE PUSH1 0x20 ADD SWAP1 DUP2 MSTORE PUSH1 0x20 ADD PUSH0 KECCAK256 PUSH0 DUP6 DUP2 MSTORE PUSH1 0x20 ADD SWAP1 DUP2 MSTORE PUSH1 0x20 ADD PUSH0 KECCAK256 PUSH1 0x40 MLOAD DUP1 PUSH1 0x40 ADD PUSH1 0x40 MSTORE SWAP1 DUP2 PUSH0 DUP3 ADD SLOAD DUP2 MSTORE PUSH1 0x20 ADD PUSH1 0x1 DUP3 ADD SLOAD DUP2 MSTORE POP POP SWAP3 POP PUSH2 0x6EF PUSH1 0xA PUSH0 PUSH2 0x6D7 PUSH1 0x1 PUSH3 0x93A80 DUP11 PUSH2 0x6C8 SWAP2 SWAP1 PUSH2 0x1FEF JUMP JUMPDEST PUSH2 0x6D2 SWAP2 SWAP1 PUSH2 0x1F5F JUMP JUMPDEST PUSH2 0x87F JUMP JUMPDEST DUP2 MSTORE PUSH1 0x20 ADD SWAP1 DUP2 MSTORE PUSH1 0x20 ADD PUSH0 KECCAK256 PUSH1 0x1 ADD SLOAD PUSH1 0x1 PUSH2 0x1254 JUMP JUMPDEST SWAP6 POP DUP6 PUSH1 0x4 PUSH0 DUP13 PUSH20 0xFFFFFFFFFFFFFFFFFFFFFFFFFFFFFFFFFFFFFFFF AND PUSH20 0xFFFFFFFFFFFFFFFFFFFFFFFFFFFFFFFFFFFFFFFF AND DUP2 MSTORE PUSH1 0x20 ADD SWAP1 DUP2 MSTORE PUSH1 0x20 ADD PUSH0 KECCAK256 PUSH0 DUP8 DUP2 MSTORE PUSH1 0x20 ADD SWAP1 DUP2 MSTORE PUSH1 0x20 ADD PUSH0 KECCAK256 SLOAD DUP5 PUSH1 0x20 ADD MLOAD PUSH2 0x74E SWAP2 SWAP1 PUSH2 0x2022 JUMP JUMPDEST PUSH2 0x758 SWAP2 SWAP1 PUSH2 0x1FBF JUMP JUMPDEST DUP8 PUSH2 0x763 SWAP2 SWAP1 PUSH2 0x1FEF JUMP JUMPDEST SWAP7 POP PUSH3 0x93A80 DUP6 PUSH2 0x774 SWAP2 SWAP1 PUSH2 0x1FEF JUMP JUMPDEST SWAP5 POP DUP1 DUP1 PUSH2 0x781 SWAP1 PUSH2 0x2063 JUMP JUMPDEST SWAP2 POP POP PUSH2 0x640 JUMP JUMPDEST POP JUMPDEST DUP6 SWAP7 POP POP POP POP POP POP POP JUMPDEST SWAP3 SWAP2 POP POP JUMP JUMPDEST PUSH1 0x1 PUSH0 SWAP1 SLOAD SWAP1 PUSH2 0x100 EXP SWAP1 DIV PUSH20 0xFFFFFFFFFFFFFFFFFFFFFFFFFFFFFFFFFFFFFFFF AND DUP2 JUMP JUMPDEST PUSH32 0x0 DUP2 JUMP JUMPDEST PUSH1 0x8 PUSH1 0x20 MSTORE DUP2 PUSH0 MSTORE PUSH1 0x40 PUSH0 KECCAK256 PUSH1 0x20 MSTORE DUP1 PUSH0 MSTORE PUSH1 0x40 PUSH0 KECCAK256 PUSH0 SWAP2 POP SWAP2 POP POP DUP1 PUSH0 ADD SLOAD SWAP1 DUP1 PUSH1 0x1 ADD SLOAD SWAP1 POP DUP3 JUMP JUMPDEST PUSH1 0x7 PUSH1 0x20 MSTORE DUP1 PUSH0 MSTORE PUSH1 0x40 PUSH0 KECCAK256 PUSH0 SWAP2 POP SLOAD SWAP1 PUSH2 0x100 EXP SWAP1 DIV PUSH1 0xFF AND DUP2 JUMP JUMPDEST PUSH1 0x9 PUSH1 0x20 MSTORE DUP1 PUSH0 MSTORE PUSH1 0x40 PUSH0 KECCAK256 PUSH0 SWAP2 POP SWAP1 POP SLOAD DUP2 JUMP JUMPDEST PUSH0 PUSH2 0x84A PUSH2 0x9B4 JUMP JUMPDEST PUSH20 0xFFFFFFFFFFFFFFFFFFFFFFFFFFFFFFFFFFFFFFFF AND DUP3 PUSH20 0xFFFFFFFFFFFFFFFFFFFFFFFFFFFFFFFFFFFFFFFF AND EQ SWAP1 POP SWAP2 SWAP1 POP JUMP JUMPDEST PUSH0 DUP1 PUSH1 0xB SLOAD SWAP1 POP PUSH0 DUP2 SUB PUSH2 0x896 JUMPI PUSH0 SWAP2 POP POP PUSH2 0x9AF JUMP JUMPDEST DUP3 PUSH1 0xA PUSH0 PUSH1 0x1 DUP5 PUSH2 0x8A7 SWAP2 SWAP1 PUSH2 0x1F5F JUMP JUMPDEST DUP2 MSTORE PUSH1 0x20 ADD SWAP1 DUP2 MSTORE PUSH1 0x20 ADD PUSH0 KECCAK256 PUSH0 ADD SLOAD GT PUSH2 0x8D1 JUMPI PUSH1 0x1 DUP2 PUSH2 0x8C9 SWAP2 SWAP1 PUSH2 0x1F5F JUMP JUMPDEST SWAP2 POP POP PUSH2 0x9AF JUMP JUMPDEST DUP3 PUSH1 0xA PUSH0 DUP1 DUP2 MSTORE PUSH1 0x20 ADD SWAP1 DUP2 MSTORE PUSH1 0x20 ADD PUSH0 KECCAK256 PUSH0 ADD SLOAD GT ISZERO PUSH2 0x8F5 JUMPI PUSH0 SWAP2 POP POP PUSH2 0x9AF JUMP JUMPDEST PUSH0 DUP1 PUSH1 0x1 DUP4 PUSH2 0x904 SWAP2 SWAP1 PUSH2 0x1F5F JUMP JUMPDEST SWAP1 POP JUMPDEST DUP2 DUP2 GT ISZERO PUSH2 0x9A8 JUMPI PUSH0 PUSH1 0x2 DUP4 DUP4 PUSH2 0x91E SWAP2 SWAP1 PUSH2 0x1F5F JUMP JUMPDEST PUSH2 0x928 SWAP2 SWAP1 PUSH2 0x1FBF JUMP JUMPDEST DUP3 PUSH2 0x933 SWAP2 SWAP1 PUSH2 0x1F5F JUMP JUMPDEST SWAP1 POP PUSH0 PUSH1 0xA PUSH0 DUP4 DUP2 MSTORE PUSH1 0x20 ADD SWAP1 DUP2 MSTORE PUSH1 0x20 ADD PUSH0 KECCAK256 PUSH1 0x40 MLOAD DUP1 PUSH1 0x40 ADD PUSH1 0x40 MSTORE SWAP1 DUP2 PUSH0 DUP3 ADD SLOAD DUP2 MSTORE PUSH1 0x20 ADD PUSH1 0x1 DUP3 ADD SLOAD DUP2 MSTORE POP POP SWAP1 POP DUP7 DUP2 PUSH0 ADD MLOAD SUB PUSH2 0x97E JUMPI DUP2 SWAP6 POP POP POP POP POP POP PUSH2 0x9AF JUMP JUMPDEST DUP7 DUP2 PUSH0 ADD MLOAD LT ISZERO PUSH2 0x991 JUMPI DUP2 SWAP4 POP PUSH2 0x9A1 JUMP JUMPDEST PUSH1 0x1 DUP3 PUSH2 0x99E SWAP2 SWAP1 PUSH2 0x1F5F JUMP JUMPDEST SWAP3 POP JUMPDEST POP POP PUSH2 0x907 JUMP JUMPDEST DUP2 SWAP4 POP POP POP POP JUMPDEST SWAP2 SWAP1 POP JUMP JUMPDEST PUSH0 PUSH32 0x0 SWAP1 POP SWAP1 JUMP JUMPDEST PUSH1 0x4 PUSH1 0x20 MSTORE DUP2 PUSH0 MSTORE PUSH1 0x40 PUSH0 KECCAK256 PUSH1 0x20 MSTORE DUP1 PUSH0 MSTORE PUSH1 0x40 PUSH0 KECCAK256 PUSH0 SWAP2 POP SWAP2 POP POP SLOAD DUP2 JUMP JUMPDEST PUSH1 0x3 PUSH1 0x20 MSTORE DUP1 PUSH0 MSTORE PUSH1 0x40 PUSH0 KECCAK256 PUSH0 SWAP2 POP SWAP1 POP SLOAD DUP2 JUMP JUMPDEST PUSH0 PUSH2 0xA19 PUSH2 0x126C JUMP JUMPDEST SWAP1 POP PUSH1 0x1 PUSH0 SWAP1 SLOAD SWAP1 PUSH2 0x100 EXP SWAP1 DIV PUSH20 0xFFFFFFFFFFFFFFFFFFFFFFFFFFFFFFFFFFFFFFFF AND PUSH20 0xFFFFFFFFFFFFFFFFFFFFFFFFFFFFFFFFFFFFFFFF AND DUP2 PUSH20 0xFFFFFFFFFFFFFFFFFFFFFFFFFFFFFFFFFFFFFFFF AND EQ PUSH2 0xAA1 JUMPI PUSH1 0x40 MLOAD PUSH32 0xEA8E4EB500000000000000000000000000000000000000000000000000000000 DUP2 MSTORE PUSH1 0x4 ADD PUSH1 0x40 MLOAD DUP1 SWAP2 SUB SWAP1 REVERT JUMPDEST DUP3 PUSH1 0x2 PUSH0 DUP3 DUP3 SLOAD PUSH2 0xAB2 SWAP2 SWAP1 PUSH2 0x1F5F JUMP JUMPDEST SWAP3 POP POP DUP2 SWAP1 SSTORE POP DUP3 PUSH1 0x3 PUSH0 DUP5 DUP2 MSTORE PUSH1 0x20 ADD SWAP1 DUP2 MSTORE PUSH1 0x20 ADD PUSH0 KECCAK256 PUSH0 DUP3 DUP3 SLOAD PUSH2 0xAD9 SWAP2 SWAP1 PUSH2 0x1F5F JUMP JUMPDEST SWAP3 POP POP DUP2 SWAP1 SSTORE POP PUSH2 0xAFB DUP3 PUSH1 0x3 PUSH0 DUP6 DUP2 MSTORE PUSH1 0x20 ADD SWAP1 DUP2 MSTORE PUSH1 0x20 ADD PUSH0 KECCAK256 SLOAD PUSH2 0x12DD JUMP JUMPDEST PUSH2 0xB03 PUSH2 0x1415 JUMP JUMPDEST DUP2 DUP2 PUSH20 0xFFFFFFFFFFFFFFFFFFFFFFFFFFFFFFFFFFFFFFFF AND PUSH32 0xF279E6A1F5E320CCA91135676D9CB6E44CA8A08C0B88342BCDB1144F6511B568 DUP6 PUSH1 0x40 MLOAD PUSH2 0xB4A SWAP2 SWAP1 PUSH2 0x1B86 JUMP JUMPDEST PUSH1 0x40 MLOAD DUP1 SWAP2 SUB SWAP1 LOG3 POP POP POP JUMP JUMPDEST PUSH0 DUP1 PUSH1 0x9 PUSH0 DUP6 DUP2 MSTORE PUSH1 0x20 ADD SWAP1 DUP2 MSTORE PUSH1 0x20 ADD PUSH0 KECCAK256 SLOAD SWAP1 POP PUSH0 DUP2 SUB PUSH2 0xB7D JUMPI PUSH0 SWAP2 POP POP PUSH2 0xCC3 JUMP JUMPDEST DUP3 PUSH1 0x8 PUSH0 DUP7 DUP2 MSTORE PUSH1 0x20 ADD SWAP1 DUP2 MSTORE PUSH1 0x20 ADD PUSH0 KECCAK256 PUSH0 PUSH1 0x1 DUP5 PUSH2 0xB9D SWAP2 SWAP1 PUSH2 0x1F5F JUMP JUMPDEST DUP2 MSTORE PUSH1 0x20 ADD SWAP1 DUP2 MSTORE PUSH1 0x20 ADD PUSH0 KECCAK256 PUSH0 ADD SLOAD GT PUSH2 0xBC7 JUMPI PUSH1 0x1 DUP2 PUSH2 0xBBF SWAP2 SWAP1 PUSH2 0x1F5F JUMP JUMPDEST SWAP2 POP POP PUSH2 0xCC3 JUMP JUMPDEST DUP3 PUSH1 0x8 PUSH0 DUP7 DUP2 MSTORE PUSH1 0x20 ADD SWAP1 DUP2 MSTORE PUSH1 0x20 ADD PUSH0 KECCAK256 PUSH0 DUP1 DUP2 MSTORE PUSH1 0x20 ADD SWAP1 DUP2 MSTORE PUSH1 0x20 ADD PUSH0 KECCAK256 PUSH0 ADD SLOAD GT ISZERO PUSH2 0xBFA JUMPI PUSH0 SWAP2 POP POP PUSH2 0xCC3 JUMP JUMPDEST PUSH0 DUP1 PUSH1 0x1 DUP4 PUSH2 0xC09 SWAP2 SWAP1 PUSH2 0x1F5F JUMP JUMPDEST SWAP1 POP JUMPDEST DUP2 DUP2 GT ISZERO PUSH2 0xCBC JUMPI PUSH0 PUSH1 0x2 DUP4 DUP4 PUSH2 0xC23 SWAP2 SWAP1 PUSH2 0x1F5F JUMP JUMPDEST PUSH2 0xC2D SWAP2 SWAP1 PUSH2 0x1FBF JUMP JUMPDEST DUP3 PUSH2 0xC38 SWAP2 SWAP1 PUSH2 0x1F5F JUMP JUMPDEST SWAP1 POP PUSH0 PUSH1 0x8 PUSH0 DUP10 DUP2 MSTORE PUSH1 0x20 ADD SWAP1 DUP2 MSTORE PUSH1 0x20 ADD PUSH0 KECCAK256 PUSH0 DUP4 DUP2 MSTORE PUSH1 0x20 ADD SWAP1 DUP2 MSTORE PUSH1 0x20 ADD PUSH0 KECCAK256 PUSH1 0x40 MLOAD DUP1 PUSH1 0x40 ADD PUSH1 0x40 MSTORE SWAP1 DUP2 PUSH0 DUP3 ADD SLOAD DUP2 MSTORE PUSH1 0x20 ADD PUSH1 0x1 DUP3 ADD SLOAD DUP2 MSTORE POP POP SWAP1 POP DUP7 DUP2 PUSH0 ADD MLOAD SUB PUSH2 0xC92 JUMPI DUP2 SWAP6 POP POP POP POP POP POP PUSH2 0xCC3 JUMP JUMPDEST DUP7 DUP2 PUSH0 ADD MLOAD LT ISZERO PUSH2 0xCA5 JUMPI DUP2 SWAP4 POP PUSH2 0xCB5 JUMP JUMPDEST PUSH1 0x1 DUP3 PUSH2 0xCB2 SWAP2 SWAP1 PUSH2 0x1F5F JUMP JUMPDEST SWAP3 POP JUMPDEST POP POP PUSH2 0xC0C JUMP JUMPDEST DUP2 SWAP4 POP POP POP POP JUMPDEST SWAP3 SWAP2 POP POP JUMP JUMPDEST PUSH2 0xCD1 PUSH2 0x1504 JUMP JUMPDEST PUSH0 PUSH2 0xCDA PUSH2 0x126C JUMP JUMPDEST SWAP1 POP ADDRESS PUSH20 0xFFFFFFFFFFFFFFFFFFFFFFFFFFFFFFFFFFFFFFFF AND PUSH32 0x0 PUSH20 0xFFFFFFFFFFFFFFFFFFFFFFFFFFFFFFFFFFFFFFFF AND PUSH4 0xC4F08165 DUP4 PUSH1 0x40 MLOAD DUP3 PUSH4 0xFFFFFFFF AND PUSH1 0xE0 SHL DUP2 MSTORE PUSH1 0x4 ADD PUSH2 0xD4C SWAP2 SWAP1 PUSH2 0x1BDE JUMP JUMPDEST PUSH1 0x20 PUSH1 0x40 MLOAD DUP1 DUP4 SUB DUP2 DUP7 GAS STATICCALL ISZERO DUP1 ISZERO PUSH2 0xD67 JUMPI RETURNDATASIZE PUSH0 DUP1 RETURNDATACOPY RETURNDATASIZE PUSH0 REVERT JUMPDEST POP POP POP POP PUSH1 0x40 MLOAD RETURNDATASIZE PUSH1 0x1F NOT PUSH1 0x1F DUP3 ADD AND DUP3 ADD DUP1 PUSH1 0x40 MSTORE POP DUP2 ADD SWAP1 PUSH2 0xD8B SWAP2 SWAP1 PUSH2 0x20BE JUMP JUMPDEST PUSH20 0xFFFFFFFFFFFFFFFFFFFFFFFFFFFFFFFFFFFFFFFF AND EQ PUSH2 0xDD8 JUMPI PUSH1 0x40 MLOAD PUSH32 0x8C736C200000000000000000000000000000000000000000000000000000000 DUP2 MSTORE PUSH1 0x4 ADD PUSH1 0x40 MLOAD DUP1 SWAP2 SUB SWAP1 REVERT JUMPDEST PUSH1 0x7 PUSH0 DUP5 PUSH20 0xFFFFFFFFFFFFFFFFFFFFFFFFFFFFFFFFFFFFFFFF AND PUSH20 0xFFFFFFFFFFFFFFFFFFFFFFFFFFFFFFFFFFFFFFFF AND DUP2 MSTORE PUSH1 0x20 ADD SWAP1 DUP2 MSTORE PUSH1 0x20 ADD PUSH0 KECCAK256 PUSH0 SWAP1 SLOAD SWAP1 PUSH2 0x100 EXP SWAP1 DIV PUSH1 0xFF AND PUSH2 0xE58 JUMPI PUSH1 0x40 MLOAD PUSH32 0x28829E8200000000000000000000000000000000000000000000000000000000 DUP2 MSTORE PUSH1 0x4 ADD PUSH1 0x40 MLOAD DUP1 SWAP2 SUB SWAP1 REVERT JUMPDEST PUSH2 0xE63 DUP2 DUP5 DUP5 PUSH2 0x1548 JUMP JUMPDEST POP PUSH2 0xE6C PUSH2 0x1688 JUMP JUMPDEST POP POP JUMP JUMPDEST PUSH0 PUSH1 0x6 DUP1 SLOAD SWAP1 POP SWAP1 POP SWAP1 JUMP JUMPDEST PUSH1 0xB SLOAD DUP2 JUMP JUMPDEST PUSH1 0x5 PUSH1 0x20 MSTORE DUP2 PUSH0 MSTORE PUSH1 0x40 PUSH0 KECCAK256 PUSH1 0x20 MSTORE DUP1 PUSH0 MSTORE PUSH1 0x40 PUSH0 KECCAK256 PUSH0 SWAP2 POP SWAP2 POP POP SLOAD DUP2 JUMP JUMPDEST PUSH1 0x6 DUP2 DUP2 SLOAD DUP2 LT PUSH2 0xEB1 JUMPI PUSH0 DUP1 REVERT JUMPDEST SWAP1 PUSH0 MSTORE PUSH1 0x20 PUSH0 KECCAK256 ADD PUSH0 SWAP2 POP SLOAD SWAP1 PUSH2 0x100 EXP SWAP1 DIV PUSH20 0xFFFFFFFFFFFFFFFFFFFFFFFFFFFFFFFFFFFFFFFF AND DUP2 JUMP JUMPDEST PUSH0 PUSH2 0xEE6 PUSH2 0x126C JUMP JUMPDEST SWAP1 POP PUSH1 0x1 PUSH0 SWAP1 SLOAD SWAP1 PUSH2 0x100 EXP SWAP1 DIV PUSH20 0xFFFFFFFFFFFFFFFFFFFFFFFFFFFFFFFFFFFFFFFF AND PUSH20 0xFFFFFFFFFFFFFFFFFFFFFFFFFFFFFFFFFFFFFFFF AND DUP2 PUSH20 0xFFFFFFFFFFFFFFFFFFFFFFFFFFFFFFFFFFFFFFFF AND EQ PUSH2 0xF6E JUMPI PUSH1 0x40 MLOAD PUSH32 0xEA8E4EB500000000000000000000000000000000000000000000000000000000 DUP2 MSTORE PUSH1 0x4 ADD PUSH1 0x40 MLOAD DUP1 SWAP2 SUB SWAP1 REVERT JUMPDEST DUP3 PUSH1 0x2 PUSH0 DUP3 DUP3 SLOAD PUSH2 0xF7F SWAP2 SWAP1 PUSH2 0x1FEF JUMP JUMPDEST SWAP3 POP POP DUP2 SWAP1 SSTORE POP DUP3 PUSH1 0x3 PUSH0 DUP5 DUP2 MSTORE PUSH1 0x20 ADD SWAP1 DUP2 MSTORE PUSH1 0x20 ADD PUSH0 KECCAK256 PUSH0 DUP3 DUP3 SLOAD PUSH2 0xFA6 SWAP2 SWAP1 PUSH2 0x1FEF JUMP JUMPDEST SWAP3 POP POP DUP2 SWAP1 SSTORE POP PUSH2 0xFC8 DUP3 PUSH1 0x3 PUSH0 DUP6 DUP2 MSTORE PUSH1 0x20 ADD SWAP1 DUP2 MSTORE PUSH1 0x20 ADD PUSH0 KECCAK256 SLOAD PUSH2 0x12DD JUMP JUMPDEST PUSH2 0xFD0 PUSH2 0x1415 JUMP JUMPDEST DUP2 DUP2 PUSH20 0xFFFFFFFFFFFFFFFFFFFFFFFFFFFFFFFFFFFFFFFF AND PUSH32 0x90890809C654F11D6E72A28FA60149770A0D11EC6C92319D6CEB2BB0A4EA1A15 DUP6 PUSH1 0x40 MLOAD PUSH2 0x1017 SWAP2 SWAP1 PUSH2 0x1B86 JUMP JUMPDEST PUSH1 0x40 MLOAD DUP1 SWAP2 SUB SWAP1 LOG3 POP POP POP JUMP JUMPDEST PUSH2 0x102C PUSH2 0x1504 JUMP JUMPDEST PUSH0 PUSH2 0x1035 PUSH2 0x126C JUMP JUMPDEST SWAP1 POP PUSH32 0x0 PUSH20 0xFFFFFFFFFFFFFFFFFFFFFFFFFFFFFFFFFFFFFFFF AND PUSH4 0x430C2081 DUP3 DUP6 PUSH1 0x40 MLOAD DUP4 PUSH4 0xFFFFFFFF AND PUSH1 0xE0 SHL DUP2 MSTORE PUSH1 0x4 ADD PUSH2 0x1092 SWAP3 SWAP2 SWAP1 PUSH2 0x20E9 JUMP JUMPDEST PUSH1 0x20 PUSH1 0x40 MLOAD DUP1 DUP4 SUB DUP2 PUSH0 DUP8 GAS CALL ISZERO DUP1 ISZERO PUSH2 0x10AE JUMPI RETURNDATASIZE PUSH0 DUP1 RETURNDATACOPY RETURNDATASIZE PUSH0 REVERT JUMPDEST POP POP POP POP PUSH1 0x40 MLOAD RETURNDATASIZE PUSH1 0x1F NOT PUSH1 0x1F DUP3 ADD AND DUP3 ADD DUP1 PUSH1 0x40 MSTORE POP DUP2 ADD SWAP1 PUSH2 0x10D2 SWAP2 SWAP1 PUSH2 0x213A JUMP JUMPDEST ISZERO DUP1 ISZERO PUSH2 0x112B JUMPI POP PUSH32 0x0 PUSH20 0xFFFFFFFFFFFFFFFFFFFFFFFFFFFFFFFFFFFFFFFF AND DUP2 PUSH20 0xFFFFFFFFFFFFFFFFFFFFFFFFFFFFFFFFFFFFFFFF AND EQ ISZERO JUMPDEST ISZERO PUSH2 0x1162 JUMPI PUSH1 0x40 MLOAD PUSH32 0xEA8E4EB500000000000000000000000000000000000000000000000000000000 DUP2 MSTORE PUSH1 0x4 ADD PUSH1 0x40 MLOAD DUP1 SWAP2 SUB SWAP1 REVERT JUMPDEST PUSH0 PUSH32 0x0 PUSH20 0xFFFFFFFFFFFFFFFFFFFFFFFFFFFFFFFFFFFFFFFF AND PUSH4 0x6352211E DUP6 PUSH1 0x40 MLOAD DUP3 PUSH4 0xFFFFFFFF AND PUSH1 0xE0 SHL DUP2 MSTORE PUSH1 0x4 ADD PUSH2 0x11BC SWAP2 SWAP1 PUSH2 0x1B86 JUMP JUMPDEST PUSH1 0x20 PUSH1 0x40 MLOAD DUP1 DUP4 SUB DUP2 DUP7 GAS STATICCALL ISZERO DUP1 ISZERO PUSH2 0x11D7 JUMPI RETURNDATASIZE PUSH0 DUP1 RETURNDATACOPY RETURNDATASIZE PUSH0 REVERT JUMPDEST POP POP POP POP PUSH1 0x40 MLOAD RETURNDATASIZE PUSH1 0x1F NOT PUSH1 0x1F DUP3 ADD AND DUP3 ADD DUP1 PUSH1 0x40 MSTORE POP DUP2 ADD SWAP1 PUSH2 0x11FB SWAP2 SWAP1 PUSH2 0x20BE JUMP JUMPDEST SWAP1 POP PUSH2 0x1208 DUP2 DUP6 DUP6 PUSH2 0x1691 JUMP JUMPDEST POP POP PUSH2 0x1212 PUSH2 0x1688 JUMP JUMPDEST POP POP JUMP JUMPDEST PUSH1 0xA PUSH1 0x20 MSTORE DUP1 PUSH0 MSTORE PUSH1 0x40 PUSH0 KECCAK256 PUSH0 SWAP2 POP SWAP1 POP DUP1 PUSH0 ADD SLOAD SWAP1 DUP1 PUSH1 0x1 ADD SLOAD SWAP1 POP DUP3 JUMP JUMPDEST PUSH0 PUSH3 0x93A80 DUP3 DUP2 PUSH2 0x124A JUMPI PUSH2 0x1249 PUSH2 0x1F92 JUMP JUMPDEST JUMPDEST MOD DUP3 SUB SWAP1 POP SWAP2 SWAP1 POP JUMP JUMPDEST PUSH0 DUP2 DUP4 GT PUSH2 0x1262 JUMPI DUP2 PUSH2 0x1264 JUMP JUMPDEST DUP3 JUMPDEST SWAP1 POP SWAP3 SWAP2 POP POP JUMP JUMPDEST PUSH0 DUP1 PUSH0 CALLDATASIZE SWAP1 POP SWAP1 POP PUSH0 PUSH2 0x127D PUSH2 0x181A JUMP JUMPDEST SWAP1 POP PUSH2 0x1288 CALLER PUSH2 0x841 JUMP JUMPDEST DUP1 ISZERO PUSH2 0x1294 JUMPI POP DUP1 DUP3 LT ISZERO JUMPDEST ISZERO PUSH2 0x12CD JUMPI PUSH0 CALLDATASIZE DUP3 DUP5 PUSH2 0x12A7 SWAP2 SWAP1 PUSH2 0x1F5F JUMP JUMPDEST SWAP1 DUP1 SWAP3 PUSH2 0x12B6 SWAP4 SWAP3 SWAP2 SWAP1 PUSH2 0x216D JUMP JUMPDEST SWAP1 PUSH2 0x12C1 SWAP2 SWAP1 PUSH2 0x21E8 JUMP JUMPDEST PUSH1 0x60 SHR SWAP3 POP POP POP PUSH2 0x12DA JUMP JUMPDEST PUSH2 0x12D5 PUSH2 0x1822 JUMP JUMPDEST SWAP3 POP POP POP JUMPDEST SWAP1 JUMP JUMPDEST PUSH0 PUSH1 0x9 PUSH0 DUP5 DUP2 MSTORE PUSH1 0x20 ADD SWAP1 DUP2 MSTORE PUSH1 0x20 ADD PUSH0 KECCAK256 SLOAD SWAP1 POP PUSH0 TIMESTAMP SWAP1 POP PUSH0 DUP3 GT DUP1 ISZERO PUSH2 0x1342 JUMPI POP PUSH2 0x1309 DUP2 PUSH2 0x1236 JUMP JUMPDEST PUSH2 0x1340 PUSH1 0x8 PUSH0 DUP8 DUP2 MSTORE PUSH1 0x20 ADD SWAP1 DUP2 MSTORE PUSH1 0x20 ADD PUSH0 KECCAK256 PUSH0 PUSH1 0x1 DUP7 PUSH2 0x132B SWAP2 SWAP1 PUSH2 0x1F5F JUMP JUMPDEST DUP2 MSTORE PUSH1 0x20 ADD SWAP1 DUP2 MSTORE PUSH1 0x20 ADD PUSH0 KECCAK256 PUSH0 ADD SLOAD PUSH2 0x1236 JUMP JUMPDEST EQ JUMPDEST ISZERO PUSH2 0x13A2 JUMPI PUSH1 0x40 MLOAD DUP1 PUSH1 0x40 ADD PUSH1 0x40 MSTORE DUP1 DUP3 DUP2 MSTORE PUSH1 0x20 ADD DUP5 DUP2 MSTORE POP PUSH1 0x8 PUSH0 DUP7 DUP2 MSTORE PUSH1 0x20 ADD SWAP1 DUP2 MSTORE PUSH1 0x20 ADD PUSH0 KECCAK256 PUSH0 PUSH1 0x1 DUP6 PUSH2 0x137B SWAP2 SWAP1 PUSH2 0x1F5F JUMP JUMPDEST DUP2 MSTORE PUSH1 0x20 ADD SWAP1 DUP2 MSTORE PUSH1 0x20 ADD PUSH0 KECCAK256 PUSH0 DUP3 ADD MLOAD DUP2 PUSH0 ADD SSTORE PUSH1 0x20 DUP3 ADD MLOAD DUP2 PUSH1 0x1 ADD SSTORE SWAP1 POP POP PUSH2 0x140F JUMP JUMPDEST PUSH1 0x40 MLOAD DUP1 PUSH1 0x40 ADD PUSH1 0x40 MSTORE DUP1 DUP3 DUP2 MSTORE PUSH1 0x20 ADD DUP5 DUP2 MSTORE POP PUSH1 0x8 PUSH0 DUP7 DUP2 MSTORE PUSH1 0x20 ADD SWAP1 DUP2 MSTORE PUSH1 0x20 ADD PUSH0 KECCAK256 PUSH0 DUP5 DUP2 MSTORE PUSH1 0x20 ADD SWAP1 DUP2 MSTORE PUSH1 0x20 ADD PUSH0 KECCAK256 PUSH0 DUP3 ADD MLOAD DUP2 PUSH0 ADD SSTORE PUSH1 0x20 DUP3 ADD MLOAD DUP2 PUSH1 0x1 ADD SSTORE SWAP1 POP POP PUSH1 0x1 DUP3 PUSH2 0x13F9 SWAP2 SWAP1 PUSH2 0x1FEF JUMP JUMPDEST PUSH1 0x9 PUSH0 DUP7 DUP2 MSTORE PUSH1 0x20 ADD SWAP1 DUP2 MSTORE PUSH1 0x20 ADD PUSH0 KECCAK256 DUP2 SWAP1 SSTORE POP JUMPDEST POP POP POP POP JUMP JUMPDEST PUSH0 PUSH1 0xB SLOAD SWAP1 POP PUSH0 TIMESTAMP SWAP1 POP PUSH0 DUP3 GT DUP1 ISZERO PUSH2 0x145C JUMPI POP PUSH2 0x1432 DUP2 PUSH2 0x1236 JUMP JUMPDEST PUSH2 0x145A PUSH1 0xA PUSH0 PUSH1 0x1 DUP7 PUSH2 0x1445 SWAP2 SWAP1 PUSH2 0x1F5F JUMP JUMPDEST DUP2 MSTORE PUSH1 0x20 ADD SWAP1 DUP2 MSTORE PUSH1 0x20 ADD PUSH0 KECCAK256 PUSH0 ADD SLOAD PUSH2 0x1236 JUMP JUMPDEST EQ JUMPDEST ISZERO PUSH2 0x14AF JUMPI PUSH1 0x40 MLOAD DUP1 PUSH1 0x40 ADD PUSH1 0x40 MSTORE DUP1 DUP3 DUP2 MSTORE PUSH1 0x20 ADD PUSH1 0x2 SLOAD DUP2 MSTORE POP PUSH1 0xA PUSH0 PUSH1 0x1 DUP6 PUSH2 0x1488 SWAP2 SWAP1 PUSH2 0x1F5F JUMP JUMPDEST DUP2 MSTORE PUSH1 0x20 ADD SWAP1 DUP2 MSTORE PUSH1 0x20 ADD PUSH0 KECCAK256 PUSH0 DUP3 ADD MLOAD DUP2 PUSH0 ADD SSTORE PUSH1 0x20 DUP3 ADD MLOAD DUP2 PUSH1 0x1 ADD SSTORE SWAP1 POP POP PUSH2 0x1500 JUMP JUMPDEST PUSH1 0x40 MLOAD DUP1 PUSH1 0x40 ADD PUSH1 0x40 MSTORE DUP1 DUP3 DUP2 MSTORE PUSH1 0x20 ADD PUSH1 0x2 SLOAD DUP2 MSTORE POP PUSH1 0xA PUSH0 DUP5 DUP2 MSTORE PUSH1 0x20 ADD SWAP1 DUP2 MSTORE PUSH1 0x20 ADD PUSH0 KECCAK256 PUSH0 DUP3 ADD MLOAD DUP2 PUSH0 ADD SSTORE PUSH1 0x20 DUP3 ADD MLOAD DUP2 PUSH1 0x1 ADD SSTORE SWAP1 POP POP PUSH1 0x1 DUP3 PUSH2 0x14F9 SWAP2 SWAP1 PUSH2 0x1FEF JUMP JUMPDEST PUSH1 0xB DUP2 SWAP1 SSTORE POP JUMPDEST POP POP JUMP JUMPDEST PUSH1 0x2 PUSH0 SLOAD SUB PUSH2 0x153F JUMPI PUSH1 0x40 MLOAD PUSH32 0x3EE5AEB500000000000000000000000000000000000000000000000000000000 DUP2 MSTORE PUSH1 0x4 ADD PUSH1 0x40 MLOAD DUP1 SWAP2 SUB SWAP1 REVERT JUMPDEST PUSH1 0x2 PUSH0 DUP2 SWAP1 SSTORE POP JUMP JUMPDEST PUSH0 DUP2 SUB PUSH2 0x1581 JUMPI PUSH1 0x40 MLOAD PUSH32 0x1F2A200500000000000000000000000000000000000000000000000000000000 DUP2 MSTORE PUSH1 0x4 ADD PUSH1 0x40 MLOAD DUP1 SWAP2 SUB SWAP1 REVERT JUMPDEST PUSH2 0x15AE DUP4 ADDRESS DUP4 DUP6 PUSH20 0xFFFFFFFFFFFFFFFFFFFFFFFFFFFFFFFFFFFFFFFF AND PUSH2 0x1829 SWAP1 SWAP4 SWAP3 SWAP2 SWAP1 PUSH4 0xFFFFFFFF AND JUMP JUMPDEST PUSH0 PUSH2 0x15B8 TIMESTAMP PUSH2 0x1236 JUMP JUMPDEST SWAP1 POP DUP2 PUSH1 0x4 PUSH0 DUP6 PUSH20 0xFFFFFFFFFFFFFFFFFFFFFFFFFFFFFFFFFFFFFFFF AND PUSH20 0xFFFFFFFFFFFFFFFFFFFFFFFFFFFFFFFFFFFFFFFF AND DUP2 MSTORE PUSH1 0x20 ADD SWAP1 DUP2 MSTORE PUSH1 0x20 ADD PUSH0 KECCAK256 PUSH0 DUP4 DUP2 MSTORE PUSH1 0x20 ADD SWAP1 DUP2 MSTORE PUSH1 0x20 ADD PUSH0 KECCAK256 PUSH0 DUP3 DUP3 SLOAD PUSH2 0x1615 SWAP2 SWAP1 PUSH2 0x1FEF JUMP JUMPDEST SWAP3 POP POP DUP2 SWAP1 SSTORE POP DUP1 DUP4 PUSH20 0xFFFFFFFFFFFFFFFFFFFFFFFFFFFFFFFFFFFFFFFF AND DUP6 PUSH20 0xFFFFFFFFFFFFFFFFFFFFFFFFFFFFFFFFFFFFFFFF AND PUSH32 0x52977EA98A2220A03EE9BA5CB003ADA08D394EA10155483C95DC2DC77A7EB24B DUP6 PUSH1 0x40 MLOAD PUSH2 0x167A SWAP2 SWAP1 PUSH2 0x1B86 JUMP JUMPDEST PUSH1 0x40 MLOAD DUP1 SWAP2 SUB SWAP1 LOG4 POP POP POP POP JUMP JUMPDEST PUSH1 0x1 PUSH0 DUP2 SWAP1 SSTORE POP JUMP JUMPDEST PUSH0 DUP2 MLOAD SWAP1 POP PUSH0 JUMPDEST DUP2 DUP2 LT ISZERO PUSH2 0x1813 JUMPI PUSH0 PUSH2 0x16C5 DUP5 DUP4 DUP2 MLOAD DUP2 LT PUSH2 0x16B7 JUMPI PUSH2 0x16B6 PUSH2 0x2246 JUMP JUMPDEST JUMPDEST PUSH1 0x20 MUL PUSH1 0x20 ADD ADD MLOAD DUP7 PUSH2 0x52D JUMP JUMPDEST SWAP1 POP TIMESTAMP PUSH1 0x5 PUSH0 DUP7 DUP6 DUP2 MLOAD DUP2 LT PUSH2 0x16DE JUMPI PUSH2 0x16DD PUSH2 0x2246 JUMP JUMPDEST JUMPDEST PUSH1 0x20 MUL PUSH1 0x20 ADD ADD MLOAD PUSH20 0xFFFFFFFFFFFFFFFFFFFFFFFFFFFFFFFFFFFFFFFF AND PUSH20 0xFFFFFFFFFFFFFFFFFFFFFFFFFFFFFFFFFFFFFFFF AND DUP2 MSTORE PUSH1 0x20 ADD SWAP1 DUP2 MSTORE PUSH1 0x20 ADD PUSH0 KECCAK256 PUSH0 DUP8 DUP2 MSTORE PUSH1 0x20 ADD SWAP1 DUP2 MSTORE PUSH1 0x20 ADD PUSH0 KECCAK256 DUP2 SWAP1 SSTORE POP PUSH0 DUP2 GT ISZERO PUSH2 0x1780 JUMPI PUSH2 0x177F DUP7 DUP3 DUP7 DUP6 DUP2 MLOAD DUP2 LT PUSH2 0x1752 JUMPI PUSH2 0x1751 PUSH2 0x2246 JUMP JUMPDEST JUMPDEST PUSH1 0x20 MUL PUSH1 0x20 ADD ADD MLOAD PUSH20 0xFFFFFFFFFFFFFFFFFFFFFFFFFFFFFFFFFFFFFFFF AND PUSH2 0x18AB SWAP1 SWAP3 SWAP2 SWAP1 PUSH4 0xFFFFFFFF AND JUMP JUMPDEST JUMPDEST DUP4 DUP3 DUP2 MLOAD DUP2 LT PUSH2 0x1793 JUMPI PUSH2 0x1792 PUSH2 0x2246 JUMP JUMPDEST JUMPDEST PUSH1 0x20 MUL PUSH1 0x20 ADD ADD MLOAD PUSH20 0xFFFFFFFFFFFFFFFFFFFFFFFFFFFFFFFFFFFFFFFF AND DUP7 PUSH20 0xFFFFFFFFFFFFFFFFFFFFFFFFFFFFFFFFFFFFFFFF AND PUSH32 0x9AA05B3D70A9E3E2F004F039648839560576334FB45C81F91B6DB03AD9E2EFC9 DUP4 PUSH1 0x40 MLOAD PUSH2 0x17F7 SWAP2 SWAP1 PUSH2 0x1B86 JUMP JUMPDEST PUSH1 0x40 MLOAD DUP1 SWAP2 SUB SWAP1 LOG3 POP DUP1 DUP1 PUSH2 0x180B SWAP1 PUSH2 0x2063 JUMP JUMPDEST SWAP2 POP POP PUSH2 0x1698 JUMP JUMPDEST POP POP POP POP POP JUMP JUMPDEST PUSH0 PUSH1 0x14 SWAP1 POP SWAP1 JUMP JUMPDEST PUSH0 CALLER SWAP1 POP SWAP1 JUMP JUMPDEST PUSH2 0x18A5 DUP5 DUP6 PUSH20 0xFFFFFFFFFFFFFFFFFFFFFFFFFFFFFFFFFFFFFFFF AND PUSH4 0x23B872DD DUP7 DUP7 DUP7 PUSH1 0x40 MLOAD PUSH1 0x24 ADD PUSH2 0x185E SWAP4 SWAP3 SWAP2 SWAP1 PUSH2 0x2273 JUMP JUMPDEST PUSH1 0x40 MLOAD PUSH1 0x20 DUP2 DUP4 SUB SUB DUP2 MSTORE SWAP1 PUSH1 0x40 MSTORE SWAP2 POP PUSH1 0xE0 SHL PUSH1 0x20 DUP3 ADD DUP1 MLOAD PUSH28 0xFFFFFFFFFFFFFFFFFFFFFFFFFFFFFFFFFFFFFFFFFFFFFFFFFFFFFFFF DUP4 DUP2 DUP4 AND OR DUP4 MSTORE POP POP POP POP PUSH2 0x192A JUMP JUMPDEST POP POP POP POP JUMP JUMPDEST PUSH2 0x1925 DUP4 DUP5 PUSH20 0xFFFFFFFFFFFFFFFFFFFFFFFFFFFFFFFFFFFFFFFF AND PUSH4 0xA9059CBB DUP6 DUP6 PUSH1 0x40 MLOAD PUSH1 0x24 ADD PUSH2 0x18DE SWAP3 SWAP2 SWAP1 PUSH2 0x20E9 JUMP JUMPDEST PUSH1 0x40 MLOAD PUSH1 0x20 DUP2 DUP4 SUB SUB DUP2 MSTORE SWAP1 PUSH1 0x40 MSTORE SWAP2 POP PUSH1 0xE0 SHL PUSH1 0x20 DUP3 ADD DUP1 MLOAD PUSH28 0xFFFFFFFFFFFFFFFFFFFFFFFFFFFFFFFFFFFFFFFFFFFFFFFFFFFFFFFF DUP4 DUP2 DUP4 AND OR DUP4 MSTORE POP POP POP POP PUSH2 0x192A JUMP JUMPDEST POP POP POP JUMP JUMPDEST PUSH0 PUSH2 0x1954 DUP3 DUP5 PUSH20 0xFFFFFFFFFFFFFFFFFFFFFFFFFFFFFFFFFFFFFFFF AND PUSH2 0x19BF SWAP1 SWAP2 SWAP1 PUSH4 0xFFFFFFFF AND JUMP JUMPDEST SWAP1 POP PUSH0 DUP2 MLOAD EQ ISZERO DUP1 ISZERO PUSH2 0x1978 JUMPI POP DUP1 DUP1 PUSH1 0x20 ADD SWAP1 MLOAD DUP2 ADD SWAP1 PUSH2 0x1976 SWAP2 SWAP1 PUSH2 0x213A JUMP JUMPDEST ISZERO JUMPDEST ISZERO PUSH2 0x19BA JUMPI DUP3 PUSH1 0x40 MLOAD PUSH32 0x5274AFE700000000000000000000000000000000000000000000000000000000 DUP2 MSTORE PUSH1 0x4 ADD PUSH2 0x19B1 SWAP2 SWAP1 PUSH2 0x1BDE JUMP JUMPDEST PUSH1 0x40 MLOAD DUP1 SWAP2 SUB SWAP1 REVERT JUMPDEST POP POP POP JUMP JUMPDEST PUSH1 0x60 PUSH2 0x19CC DUP4 DUP4 PUSH0 PUSH2 0x19D4 JUMP JUMPDEST SWAP1 POP SWAP3 SWAP2 POP POP JUMP JUMPDEST PUSH1 0x60 DUP2 SELFBALANCE LT ISZERO PUSH2 0x1A1B JUMPI ADDRESS PUSH1 0x40 MLOAD PUSH32 0xCD78605900000000000000000000000000000000000000000000000000000000 DUP2 MSTORE PUSH1 0x4 ADD PUSH2 0x1A12 SWAP2 SWAP1 PUSH2 0x1BDE JUMP JUMPDEST PUSH1 0x40 MLOAD DUP1 SWAP2 SUB SWAP1 REVERT JUMPDEST PUSH0 DUP1 DUP6 PUSH20 0xFFFFFFFFFFFFFFFFFFFFFFFFFFFFFFFFFFFFFFFF AND DUP5 DUP7 PUSH1 0x40 MLOAD PUSH2 0x1A43 SWAP2 SWAP1 PUSH2 0x2314 JUMP JUMPDEST PUSH0 PUSH1 0x40 MLOAD DUP1 DUP4 SUB DUP2 DUP6 DUP8 GAS CALL SWAP3 POP POP POP RETURNDATASIZE DUP1 PUSH0 DUP2 EQ PUSH2 0x1A7D JUMPI PUSH1 0x40 MLOAD SWAP2 POP PUSH1 0x1F NOT PUSH1 0x3F RETURNDATASIZE ADD AND DUP3 ADD PUSH1 0x40 MSTORE RETURNDATASIZE DUP3 MSTORE RETURNDATASIZE PUSH0 PUSH1 0x20 DUP5 ADD RETURNDATACOPY PUSH2 0x1A82 JUMP JUMPDEST PUSH1 0x60 SWAP2 POP JUMPDEST POP SWAP2 POP SWAP2 POP PUSH2 0x1A92 DUP7 DUP4 DUP4 PUSH2 0x1A9D JUMP JUMPDEST SWAP3 POP POP POP SWAP4 SWAP3 POP POP POP JUMP JUMPDEST PUSH1 0x60 DUP3 PUSH2 0x1AB2 JUMPI PUSH2 0x1AAD DUP3 PUSH2 0x1B2A JUMP JUMPDEST PUSH2 0x1B22 JUMP JUMPDEST PUSH0 DUP3 MLOAD EQ DUP1 ISZERO PUSH2 0x1AD8 JUMPI POP PUSH0 DUP5 PUSH20 0xFFFFFFFFFFFFFFFFFFFFFFFFFFFFFFFFFFFFFFFF AND EXTCODESIZE EQ JUMPDEST ISZERO PUSH2 0x1B1A JUMPI DUP4 PUSH1 0x40 MLOAD PUSH32 0x9996B31500000000000000000000000000000000000000000000000000000000 DUP2 MSTORE PUSH1 0x4 ADD PUSH2 0x1B11 SWAP2 SWAP1 PUSH2 0x1BDE JUMP JUMPDEST PUSH1 0x40 MLOAD DUP1 SWAP2 SUB SWAP1 REVERT JUMPDEST DUP2 SWAP1 POP PUSH2 0x1B23 JUMP JUMPDEST JUMPDEST SWAP4 SWAP3 POP POP POP JUMP JUMPDEST PUSH0 DUP2 MLOAD GT ISZERO PUSH2 0x1B3C JUMPI DUP1 MLOAD DUP1 DUP3 PUSH1 0x20 ADD REVERT JUMPDEST PUSH1 0x40 MLOAD PUSH32 0x1425EA4200000000000000000000000000000000000000000000000000000000 DUP2 MSTORE PUSH1 0x4 ADD PUSH1 0x40 MLOAD DUP1 SWAP2 SUB SWAP1 REVERT JUMPDEST PUSH0 DUP2 SWAP1 POP SWAP2 SWAP1 POP JUMP JUMPDEST PUSH2 0x1B80 DUP2 PUSH2 0x1B6E JUMP JUMPDEST DUP3 MSTORE POP POP JUMP JUMPDEST PUSH0 PUSH1 0x20 DUP3 ADD SWAP1 POP PUSH2 0x1B99 PUSH0 DUP4 ADD DUP5 PUSH2 0x1B77 JUMP JUMPDEST SWAP3 SWAP2 POP POP JUMP JUMPDEST PUSH0 PUSH20 0xFFFFFFFFFFFFFFFFFFFFFFFFFFFFFFFFFFFFFFFF DUP3 AND SWAP1 POP SWAP2 SWAP1 POP JUMP JUMPDEST PUSH0 PUSH2 0x1BC8 DUP3 PUSH2 0x1B9F JUMP JUMPDEST SWAP1 POP SWAP2 SWAP1 POP JUMP JUMPDEST PUSH2 0x1BD8 DUP2 PUSH2 0x1BBE JUMP JUMPDEST DUP3 MSTORE POP POP JUMP JUMPDEST PUSH0 PUSH1 0x20 DUP3 ADD SWAP1 POP PUSH2 0x1BF1 PUSH0 DUP4 ADD DUP5 PUSH2 0x1BCF JUMP JUMPDEST SWAP3 SWAP2 POP POP JUMP JUMPDEST PUSH0 PUSH1 0x40 MLOAD SWAP1 POP SWAP1 JUMP JUMPDEST PUSH0 DUP1 REVERT JUMPDEST PUSH0 DUP1 REVERT JUMPDEST PUSH2 0x1C11 DUP2 PUSH2 0x1BBE JUMP JUMPDEST DUP2 EQ PUSH2 0x1C1B JUMPI PUSH0 DUP1 REVERT JUMPDEST POP JUMP JUMPDEST PUSH0 DUP2 CALLDATALOAD SWAP1 POP PUSH2 0x1C2C DUP2 PUSH2 0x1C08 JUMP JUMPDEST SWAP3 SWAP2 POP POP JUMP JUMPDEST PUSH2 0x1C3B DUP2 PUSH2 0x1B6E JUMP JUMPDEST DUP2 EQ PUSH2 0x1C45 JUMPI PUSH0 DUP1 REVERT JUMPDEST POP JUMP JUMPDEST PUSH0 DUP2 CALLDATALOAD SWAP1 POP PUSH2 0x1C56 DUP2 PUSH2 0x1C32 JUMP JUMPDEST SWAP3 SWAP2 POP POP JUMP JUMPDEST PUSH0 DUP1 PUSH1 0x40 DUP4 DUP6 SUB SLT ISZERO PUSH2 0x1C72 JUMPI PUSH2 0x1C71 PUSH2 0x1C00 JUMP JUMPDEST JUMPDEST PUSH0 PUSH2 0x1C7F DUP6 DUP3 DUP7 ADD PUSH2 0x1C1E JUMP JUMPDEST SWAP3 POP POP PUSH1 0x20 PUSH2 0x1C90 DUP6 DUP3 DUP7 ADD PUSH2 0x1C48 JUMP JUMPDEST SWAP2 POP POP SWAP3 POP SWAP3 SWAP1 POP JUMP JUMPDEST PUSH0 DUP1 PUSH1 0x40 DUP4 DUP6 SUB SLT ISZERO PUSH2 0x1CB0 JUMPI PUSH2 0x1CAF PUSH2 0x1C00 JUMP JUMPDEST JUMPDEST PUSH0 PUSH2 0x1CBD DUP6 DUP3 DUP7 ADD PUSH2 0x1C48 JUMP JUMPDEST SWAP3 POP POP PUSH1 0x20 PUSH2 0x1CCE DUP6 DUP3 DUP7 ADD PUSH2 0x1C48 JUMP JUMPDEST SWAP2 POP POP SWAP3 POP SWAP3 SWAP1 POP JUMP JUMPDEST PUSH0 PUSH1 0x40 DUP3 ADD SWAP1 POP PUSH2 0x1CEB PUSH0 DUP4 ADD DUP6 PUSH2 0x1B77 JUMP JUMPDEST PUSH2 0x1CF8 PUSH1 0x20 DUP4 ADD DUP5 PUSH2 0x1B77 JUMP JUMPDEST SWAP4 SWAP3 POP POP POP JUMP JUMPDEST PUSH0 PUSH1 0x20 DUP3 DUP5 SUB SLT ISZERO PUSH2 0x1D14 JUMPI PUSH2 0x1D13 PUSH2 0x1C00 JUMP JUMPDEST JUMPDEST PUSH0 PUSH2 0x1D21 DUP5 DUP3 DUP6 ADD PUSH2 0x1C1E JUMP JUMPDEST SWAP2 POP POP SWAP3 SWAP2 POP POP JUMP JUMPDEST PUSH0 DUP2 ISZERO ISZERO SWAP1 POP SWAP2 SWAP1 POP JUMP JUMPDEST PUSH2 0x1D3E DUP2 PUSH2 0x1D2A JUMP JUMPDEST DUP3 MSTORE POP POP JUMP JUMPDEST PUSH0 PUSH1 0x20 DUP3 ADD SWAP1 POP PUSH2 0x1D57 PUSH0 DUP4 ADD DUP5 PUSH2 0x1D35 JUMP JUMPDEST SWAP3 SWAP2 POP POP JUMP JUMPDEST PUSH0 PUSH1 0x20 DUP3 DUP5 SUB SLT ISZERO PUSH2 0x1D72 JUMPI PUSH2 0x1D71 PUSH2 0x1C00 JUMP JUMPDEST JUMPDEST PUSH0 PUSH2 0x1D7F DUP5 DUP3 DUP6 ADD PUSH2 0x1C48 JUMP JUMPDEST SWAP2 POP POP SWAP3 SWAP2 POP POP JUMP JUMPDEST PUSH0 DUP1 REVERT JUMPDEST PUSH0 PUSH1 0x1F NOT PUSH1 0x1F DUP4 ADD AND SWAP1 POP SWAP2 SWAP1 POP JUMP JUMPDEST PUSH32 0x4E487B7100000000000000000000000000000000000000000000000000000000 PUSH0 MSTORE PUSH1 0x41 PUSH1 0x4 MSTORE PUSH1 0x24 PUSH0 REVERT JUMPDEST PUSH2 0x1DD2 DUP3 PUSH2 0x1D8C JUMP JUMPDEST DUP2 ADD DUP2 DUP2 LT PUSH8 0xFFFFFFFFFFFFFFFF DUP3 GT OR ISZERO PUSH2 0x1DF1 JUMPI PUSH2 0x1DF0 PUSH2 0x1D9C JUMP JUMPDEST JUMPDEST DUP1 PUSH1 0x40 MSTORE POP POP POP JUMP JUMPDEST PUSH0 PUSH2 0x1E03 PUSH2 0x1BF7 JUMP JUMPDEST SWAP1 POP PUSH2 0x1E0F DUP3 DUP3 PUSH2 0x1DC9 JUMP JUMPDEST SWAP2 SWAP1 POP JUMP JUMPDEST PUSH0 PUSH8 0xFFFFFFFFFFFFFFFF DUP3 GT ISZERO PUSH2 0x1E2E JUMPI PUSH2 0x1E2D PUSH2 0x1D9C JUMP JUMPDEST JUMPDEST PUSH1 0x20 DUP3 MUL SWAP1 POP PUSH1 0x20 DUP2 ADD SWAP1 POP SWAP2 SWAP1 POP JUMP JUMPDEST PUSH0 DUP1 REVERT JUMPDEST PUSH0 PUSH2 0x1E55 PUSH2 0x1E50 DUP5 PUSH2 0x1E14 JUMP JUMPDEST PUSH2 0x1DFA JUMP JUMPDEST SWAP1 POP DUP1 DUP4 DUP3 MSTORE PUSH1 0x20 DUP3 ADD SWAP1 POP PUSH1 0x20 DUP5 MUL DUP4 ADD DUP6 DUP2 GT ISZERO PUSH2 0x1E78 JUMPI PUSH2 0x1E77 PUSH2 0x1E3F JUMP JUMPDEST JUMPDEST DUP4 JUMPDEST DUP2 DUP2 LT ISZERO PUSH2 0x1EA1 JUMPI DUP1 PUSH2 0x1E8D DUP9 DUP3 PUSH2 0x1C1E JUMP JUMPDEST DUP5 MSTORE PUSH1 0x20 DUP5 ADD SWAP4 POP POP PUSH1 0x20 DUP2 ADD SWAP1 POP PUSH2 0x1E7A JUMP JUMPDEST POP POP POP SWAP4 SWAP3 POP POP POP JUMP JUMPDEST PUSH0 DUP3 PUSH1 0x1F DUP4 ADD SLT PUSH2 0x1EBF JUMPI PUSH2 0x1EBE PUSH2 0x1D88 JUMP JUMPDEST JUMPDEST DUP2 CALLDATALOAD PUSH2 0x1ECF DUP5 DUP3 PUSH1 0x20 DUP7 ADD PUSH2 0x1E43 JUMP JUMPDEST SWAP2 POP POP SWAP3 SWAP2 POP POP JUMP JUMPDEST PUSH0 DUP1 PUSH1 0x40 DUP4 DUP6 SUB SLT ISZERO PUSH2 0x1EEE JUMPI PUSH2 0x1EED PUSH2 0x1C00 JUMP JUMPDEST JUMPDEST PUSH0 PUSH2 0x1EFB DUP6 DUP3 DUP7 ADD PUSH2 0x1C48 JUMP JUMPDEST SWAP3 POP POP PUSH1 0x20 DUP4 ADD CALLDATALOAD PUSH8 0xFFFFFFFFFFFFFFFF DUP2 GT ISZERO PUSH2 0x1F1C JUMPI PUSH2 0x1F1B PUSH2 0x1C04 JUMP JUMPDEST JUMPDEST PUSH2 0x1F28 DUP6 DUP3 DUP7 ADD PUSH2 0x1EAB JUMP JUMPDEST SWAP2 POP POP SWAP3 POP SWAP3 SWAP1 POP JUMP JUMPDEST PUSH32 0x4E487B7100000000000000000000000000000000000000000000000000000000 PUSH0 MSTORE PUSH1 0x11 PUSH1 0x4 MSTORE PUSH1 0x24 PUSH0 REVERT JUMPDEST PUSH0 PUSH2 0x1F69 DUP3 PUSH2 0x1B6E JUMP JUMPDEST SWAP2 POP PUSH2 0x1F74 DUP4 PUSH2 0x1B6E JUMP JUMPDEST SWAP3 POP DUP3 DUP3 SUB SWAP1 POP DUP2 DUP2 GT ISZERO PUSH2 0x1F8C JUMPI PUSH2 0x1F8B PUSH2 0x1F32 JUMP JUMPDEST JUMPDEST SWAP3 SWAP2 POP POP JUMP JUMPDEST PUSH32 0x4E487B7100000000000000000000000000000000000000000000000000000000 PUSH0 MSTORE PUSH1 0x12 PUSH1 0x4 MSTORE PUSH1 0x24 PUSH0 REVERT JUMPDEST PUSH0 PUSH2 0x1FC9 DUP3 PUSH2 0x1B6E JUMP JUMPDEST SWAP2 POP PUSH2 0x1FD4 DUP4 PUSH2 0x1B6E JUMP JUMPDEST SWAP3 POP DUP3 PUSH2 0x1FE4 JUMPI PUSH2 0x1FE3 PUSH2 0x1F92 JUMP JUMPDEST JUMPDEST DUP3 DUP3 DIV SWAP1 POP SWAP3 SWAP2 POP POP JUMP JUMPDEST PUSH0 PUSH2 0x1FF9 DUP3 PUSH2 0x1B6E JUMP JUMPDEST SWAP2 POP PUSH2 0x2004 DUP4 PUSH2 0x1B6E JUMP JUMPDEST SWAP3 POP DUP3 DUP3 ADD SWAP1 POP DUP1 DUP3 GT ISZERO PUSH2 0x201C JUMPI PUSH2 0x201B PUSH2 0x1F32 JUMP JUMPDEST JUMPDEST SWAP3 SWAP2 POP POP JUMP JUMPDEST PUSH0 PUSH2 0x202C DUP3 PUSH2 0x1B6E JUMP JUMPDEST SWAP2 POP PUSH2 0x2037 DUP4 PUSH2 0x1B6E JUMP JUMPDEST SWAP3 POP DUP3 DUP3 MUL PUSH2 0x2045 DUP2 PUSH2 0x1B6E JUMP JUMPDEST SWAP2 POP DUP3 DUP3 DIV DUP5 EQ DUP4 ISZERO OR PUSH2 0x205C JUMPI PUSH2 0x205B PUSH2 0x1F32 JUMP JUMPDEST JUMPDEST POP SWAP3 SWAP2 POP POP JUMP JUMPDEST PUSH0 PUSH2 0x206D DUP3 PUSH2 0x1B6E JUMP JUMPDEST SWAP2 POP PUSH32 0xFFFFFFFFFFFFFFFFFFFFFFFFFFFFFFFFFFFFFFFFFFFFFFFFFFFFFFFFFFFFFFFF DUP3 SUB PUSH2 0x209F JUMPI PUSH2 0x209E PUSH2 0x1F32 JUMP JUMPDEST JUMPDEST PUSH1 0x1 DUP3 ADD SWAP1 POP SWAP2 SWAP1 POP JUMP JUMPDEST PUSH0 DUP2 MLOAD SWAP1 POP PUSH2 0x20B8 DUP2 PUSH2 0x1C08 JUMP JUMPDEST SWAP3 SWAP2 POP POP JUMP JUMPDEST PUSH0 PUSH1 0x20 DUP3 DUP5 SUB SLT ISZERO PUSH2 0x20D3 JUMPI PUSH2 0x20D2 PUSH2 0x1C00 JUMP JUMPDEST JUMPDEST PUSH0 PUSH2 0x20E0 DUP5 DUP3 DUP6 ADD PUSH2 0x20AA JUMP JUMPDEST SWAP2 POP POP SWAP3 SWAP2 POP POP JUMP JUMPDEST PUSH0 PUSH1 0x40 DUP3 ADD SWAP1 POP PUSH2 0x20FC PUSH0 DUP4 ADD DUP6 PUSH2 0x1BCF JUMP JUMPDEST PUSH2 0x2109 PUSH1 0x20 DUP4 ADD DUP5 PUSH2 0x1B77 JUMP JUMPDEST SWAP4 SWAP3 POP POP POP JUMP JUMPDEST PUSH2 0x2119 DUP2 PUSH2 0x1D2A JUMP JUMPDEST DUP2 EQ PUSH2 0x2123 JUMPI PUSH0 DUP1 REVERT JUMPDEST POP JUMP JUMPDEST PUSH0 DUP2 MLOAD SWAP1 POP PUSH2 0x2134 DUP2 PUSH2 0x2110 JUMP JUMPDEST SWAP3 SWAP2 POP POP JUMP JUMPDEST PUSH0 PUSH1 0x20 DUP3 DUP5 SUB SLT ISZERO PUSH2 0x214F JUMPI PUSH2 0x214E PUSH2 0x1C00 JUMP JUMPDEST JUMPDEST PUSH0 PUSH2 0x215C DUP5 DUP3 DUP6 ADD PUSH2 0x2126 JUMP JUMPDEST SWAP2 POP POP SWAP3 SWAP2 POP POP JUMP JUMPDEST PUSH0 DUP1 REVERT JUMPDEST PUSH0 DUP1 REVERT JUMPDEST PUSH0 DUP1 DUP6 DUP6 GT ISZERO PUSH2 0x2180 JUMPI PUSH2 0x217F PUSH2 0x2165 JUMP JUMPDEST JUMPDEST DUP4 DUP7 GT ISZERO PUSH2 0x2191 JUMPI PUSH2 0x2190 PUSH2 0x2169 JUMP JUMPDEST JUMPDEST PUSH1 0x1 DUP6 MUL DUP4 ADD SWAP2 POP DUP5 DUP7 SUB SWAP1 POP SWAP5 POP SWAP5 SWAP3 POP POP POP JUMP JUMPDEST PUSH0 DUP3 SWAP1 POP SWAP3 SWAP2 POP POP JUMP JUMPDEST PUSH0 PUSH32 0xFFFFFFFFFFFFFFFFFFFFFFFFFFFFFFFFFFFFFFFF000000000000000000000000 DUP3 AND SWAP1 POP SWAP2 SWAP1 POP JUMP JUMPDEST PUSH0 DUP3 DUP3 SHL SWAP1 POP SWAP3 SWAP2 POP POP JUMP JUMPDEST PUSH0 PUSH2 0x21F3 DUP4 DUP4 PUSH2 0x21A7 JUMP JUMPDEST DUP3 PUSH2 0x21FE DUP2 CALLDATALOAD PUSH2 0x21B1 JUMP JUMPDEST SWAP3 POP PUSH1 0x14 DUP3 LT ISZERO PUSH2 0x223E JUMPI PUSH2 0x2239 PUSH32 0xFFFFFFFFFFFFFFFFFFFFFFFFFFFFFFFFFFFFFFFF000000000000000000000000 DUP4 PUSH1 0x14 SUB PUSH1 0x8 MUL PUSH2 0x21DC JUMP JUMPDEST DUP4 AND SWAP3 POP JUMPDEST POP POP SWAP3 SWAP2 POP POP JUMP JUMPDEST PUSH32 0x4E487B7100000000000000000000000000000000000000000000000000000000 PUSH0 MSTORE PUSH1 0x32 PUSH1 0x4 MSTORE PUSH1 0x24 PUSH0 REVERT JUMPDEST PUSH0 PUSH1 0x60 DUP3 ADD SWAP1 POP PUSH2 0x2286 PUSH0 DUP4 ADD DUP7 PUSH2 0x1BCF JUMP JUMPDEST PUSH2 0x2293 PUSH1 0x20 DUP4 ADD DUP6 PUSH2 0x1BCF JUMP JUMPDEST PUSH2 0x22A0 PUSH1 0x40 DUP4 ADD DUP5 PUSH2 0x1B77 JUMP JUMPDEST SWAP5 SWAP4 POP POP POP POP JUMP JUMPDEST PUSH0 DUP2 MLOAD SWAP1 POP SWAP2 SWAP1 POP JUMP JUMPDEST PUSH0 DUP2 SWAP1 POP SWAP3 SWAP2 POP POP JUMP JUMPDEST PUSH0 JUMPDEST DUP4 DUP2 LT ISZERO PUSH2 0x22D9 JUMPI DUP1 DUP3 ADD MLOAD DUP2 DUP5 ADD MSTORE PUSH1 0x20 DUP2 ADD SWAP1 POP PUSH2 0x22BE JUMP JUMPDEST PUSH0 DUP5 DUP5 ADD MSTORE POP POP POP POP JUMP JUMPDEST PUSH0 PUSH2 0x22EE DUP3 PUSH2 0x22A8 JUMP JUMPDEST PUSH2 0x22F8 DUP2 DUP6 PUSH2 0x22B2 JUMP JUMPDEST SWAP4 POP PUSH2 0x2308 DUP2 DUP6 PUSH1 0x20 DUP7 ADD PUSH2 0x22BC JUMP JUMPDEST DUP1 DUP5 ADD SWAP2 POP POP SWAP3 SWAP2 POP POP JUMP JUMPDEST PUSH0 PUSH2 0x231F DUP3 DUP5 PUSH2 0x22E4 JUMP JUMPDEST SWAP2 POP DUP2 SWAP1 POP SWAP3 SWAP2 POP POP JUMP INVALID LOG2 PUSH5 0x6970667358 0x22 SLT KECCAK256 LOG1 0xC8 0xC3 0x5E MSTORE8 SWAP6 0xE0 MSIZE 0xBD DUP10 EXTCODECOPY SWAP9 0x29 0xEB EXTCODECOPY 0x5E STOP CODESIZE PUSH5 0x7CEC594801 MSTORE 0xDA PUSH2 0x525A 0xB1 0xCB 0x23 PUSH5 0x736F6C6343 STOP ADDMOD EQ STOP CALLER PUSH1 0xE0 PUSH1 0x40 MSTORE CALLVALUE DUP1 ISZERO PUSH3 0x10 JUMPI PUSH0 DUP1 REVERT JUMPDEST POP PUSH1 0x40 MLOAD PUSH3 0x2A38 CODESIZE SUB DUP1 PUSH3 0x2A38 DUP4 CODECOPY DUP2 DUP2 ADD PUSH1 0x40 MSTORE DUP2 ADD SWAP1 PUSH3 0x36 SWAP2 SWAP1 PUSH3 0x4E4 JUMP JUMPDEST DUP3 DUP3 DUP3 DUP3 DUP3 DUP2 DUP1 PUSH20 0xFFFFFFFFFFFFFFFFFFFFFFFFFFFFFFFFFFFFFFFF AND PUSH1 0x80 DUP2 PUSH20 0xFFFFFFFFFFFFFFFFFFFFFFFFFFFFFFFFFFFFFFFF AND DUP2 MSTORE POP POP POP PUSH1 0x1 PUSH0 DUP2 SWAP1 SSTORE POP DUP1 PUSH20 0xFFFFFFFFFFFFFFFFFFFFFFFFFFFFFFFFFFFFFFFF AND PUSH1 0xA0 DUP2 PUSH20 0xFFFFFFFFFFFFFFFFFFFFFFFFFFFFFFFFFFFFFFFF AND DUP2 MSTORE POP POP DUP1 PUSH20 0xFFFFFFFFFFFFFFFFFFFFFFFFFFFFFFFFFFFFFFFF AND PUSH4 0x1F850716 PUSH1 0x40 MLOAD DUP2 PUSH4 0xFFFFFFFF AND PUSH1 0xE0 SHL DUP2 MSTORE PUSH1 0x4 ADD PUSH1 0x20 PUSH1 0x40 MLOAD DUP1 DUP4 SUB DUP2 DUP7 GAS STATICCALL ISZERO DUP1 ISZERO PUSH3 0xF6 JUMPI RETURNDATASIZE PUSH0 DUP1 RETURNDATACOPY RETURNDATASIZE PUSH0 REVERT JUMPDEST POP POP POP POP PUSH1 0x40 MLOAD RETURNDATASIZE PUSH1 0x1F NOT PUSH1 0x1F DUP3 ADD AND DUP3 ADD DUP1 PUSH1 0x40 MSTORE POP DUP2 ADD SWAP1 PUSH3 0x11C SWAP2 SWAP1 PUSH3 0x55C JUMP JUMPDEST PUSH20 0xFFFFFFFFFFFFFFFFFFFFFFFFFFFFFFFFFFFFFFFF AND PUSH1 0xC0 DUP2 PUSH20 0xFFFFFFFFFFFFFFFFFFFFFFFFFFFFFFFFFFFFFFFF AND DUP2 MSTORE POP POP POP POP PUSH0 DUP2 MLOAD SWAP1 POP PUSH0 JUMPDEST DUP2 DUP2 LT ISZERO PUSH3 0x2B8 JUMPI PUSH0 PUSH20 0xFFFFFFFFFFFFFFFFFFFFFFFFFFFFFFFFFFFFFFFF AND DUP4 DUP3 DUP2 MLOAD DUP2 LT PUSH3 0x18E JUMPI PUSH3 0x18D PUSH3 0x58C JUMP JUMPDEST JUMPDEST PUSH1 0x20 MUL PUSH1 0x20 ADD ADD MLOAD PUSH20 0xFFFFFFFFFFFFFFFFFFFFFFFFFFFFFFFFFFFFFFFF AND EQ PUSH3 0x2A2 JUMPI PUSH1 0x1 PUSH1 0x7 PUSH0 DUP6 DUP5 DUP2 MLOAD DUP2 LT PUSH3 0x1CD JUMPI PUSH3 0x1CC PUSH3 0x58C JUMP JUMPDEST JUMPDEST PUSH1 0x20 MUL PUSH1 0x20 ADD ADD MLOAD PUSH20 0xFFFFFFFFFFFFFFFFFFFFFFFFFFFFFFFFFFFFFFFF AND PUSH20 0xFFFFFFFFFFFFFFFFFFFFFFFFFFFFFFFFFFFFFFFF AND DUP2 MSTORE PUSH1 0x20 ADD SWAP1 DUP2 MSTORE PUSH1 0x20 ADD PUSH0 KECCAK256 PUSH0 PUSH2 0x100 EXP DUP2 SLOAD DUP2 PUSH1 0xFF MUL NOT AND SWAP1 DUP4 ISZERO ISZERO MUL OR SWAP1 SSTORE POP PUSH1 0x6 DUP4 DUP3 DUP2 MLOAD DUP2 LT PUSH3 0x23C JUMPI PUSH3 0x23B PUSH3 0x58C JUMP JUMPDEST JUMPDEST PUSH1 0x20 MUL PUSH1 0x20 ADD ADD MLOAD SWAP1 DUP1 PUSH1 0x1 DUP2 SLOAD ADD DUP1 DUP3 SSTORE DUP1 SWAP2 POP POP PUSH1 0x1 SWAP1 SUB SWAP1 PUSH0 MSTORE PUSH1 0x20 PUSH0 KECCAK256 ADD PUSH0 SWAP1 SWAP2 SWAP1 SWAP2 SWAP1 SWAP2 PUSH2 0x100 EXP DUP2 SLOAD DUP2 PUSH20 0xFFFFFFFFFFFFFFFFFFFFFFFFFFFFFFFFFFFFFFFF MUL NOT AND SWAP1 DUP4 PUSH20 0xFFFFFFFFFFFFFFFFFFFFFFFFFFFFFFFFFFFFFFFF AND MUL OR SWAP1 SSTORE POP JUMPDEST DUP1 DUP1 PUSH3 0x2AF SWAP1 PUSH3 0x5EF JUMP JUMPDEST SWAP2 POP POP PUSH3 0x158 JUMP JUMPDEST POP DUP3 PUSH1 0x1 PUSH0 PUSH2 0x100 EXP DUP2 SLOAD DUP2 PUSH20 0xFFFFFFFFFFFFFFFFFFFFFFFFFFFFFFFFFFFFFFFF MUL NOT AND SWAP1 DUP4 PUSH20 0xFFFFFFFFFFFFFFFFFFFFFFFFFFFFFFFFFFFFFFFF AND MUL OR SWAP1 SSTORE POP POP POP POP POP POP POP POP PUSH3 0x63B JUMP JUMPDEST PUSH0 PUSH1 0x40 MLOAD SWAP1 POP SWAP1 JUMP JUMPDEST PUSH0 DUP1 REVERT JUMPDEST PUSH0 DUP1 REVERT JUMPDEST PUSH0 PUSH20 0xFFFFFFFFFFFFFFFFFFFFFFFFFFFFFFFFFFFFFFFF DUP3 AND SWAP1 POP SWAP2 SWAP1 POP JUMP JUMPDEST PUSH0 PUSH3 0x342 DUP3 PUSH3 0x317 JUMP JUMPDEST SWAP1 POP SWAP2 SWAP1 POP JUMP JUMPDEST PUSH3 0x354 DUP2 PUSH3 0x336 JUMP JUMPDEST DUP2 EQ PUSH3 0x35F JUMPI PUSH0 DUP1 REVERT JUMPDEST POP JUMP JUMPDEST PUSH0 DUP2 MLOAD SWAP1 POP PUSH3 0x372 DUP2 PUSH3 0x349 JUMP JUMPDEST SWAP3 SWAP2 POP POP JUMP JUMPDEST PUSH0 DUP1 REVERT JUMPDEST PUSH0 PUSH1 0x1F NOT PUSH1 0x1F DUP4 ADD AND SWAP1 POP SWAP2 SWAP1 POP JUMP JUMPDEST PUSH32 0x4E487B7100000000000000000000000000000000000000000000000000000000 PUSH0 MSTORE PUSH1 0x41 PUSH1 0x4 MSTORE PUSH1 0x24 PUSH0 REVERT JUMPDEST PUSH3 0x3C4 DUP3 PUSH3 0x37C JUMP JUMPDEST DUP2 ADD DUP2 DUP2 LT PUSH8 0xFFFFFFFFFFFFFFFF DUP3 GT OR ISZERO PUSH3 0x3E6 JUMPI PUSH3 0x3E5 PUSH3 0x38C JUMP JUMPDEST JUMPDEST DUP1 PUSH1 0x40 MSTORE POP POP POP JUMP JUMPDEST PUSH0 PUSH3 0x3FA PUSH3 0x306 JUMP JUMPDEST SWAP1 POP PUSH3 0x408 DUP3 DUP3 PUSH3 0x3B9 JUMP JUMPDEST SWAP2 SWAP1 POP JUMP JUMPDEST PUSH0 PUSH8 0xFFFFFFFFFFFFFFFF DUP3 GT ISZERO PUSH3 0x42A JUMPI PUSH3 0x429 PUSH3 0x38C JUMP JUMPDEST JUMPDEST PUSH1 0x20 DUP3 MUL SWAP1 POP PUSH1 0x20 DUP2 ADD SWAP1 POP SWAP2 SWAP1 POP JUMP JUMPDEST PUSH0 DUP1 REVERT JUMPDEST PUSH0 PUSH3 0x455 PUSH3 0x44F DUP5 PUSH3 0x40D JUMP JUMPDEST PUSH3 0x3EF JUMP JUMPDEST SWAP1 POP DUP1 DUP4 DUP3 MSTORE PUSH1 0x20 DUP3 ADD SWAP1 POP PUSH1 0x20 DUP5 MUL DUP4 ADD DUP6 DUP2 GT ISZERO PUSH3 0x47B JUMPI PUSH3 0x47A PUSH3 0x43B JUMP JUMPDEST JUMPDEST DUP4 JUMPDEST DUP2 DUP2 LT ISZERO PUSH3 0x4A8 JUMPI DUP1 PUSH3 0x493 DUP9 DUP3 PUSH3 0x362 JUMP JUMPDEST DUP5 MSTORE PUSH1 0x20 DUP5 ADD SWAP4 POP POP PUSH1 0x20 DUP2 ADD SWAP1 POP PUSH3 0x47D JUMP JUMPDEST POP POP POP SWAP4 SWAP3 POP POP POP JUMP JUMPDEST PUSH0 DUP3 PUSH1 0x1F DUP4 ADD SLT PUSH3 0x4C9 JUMPI PUSH3 0x4C8 PUSH3 0x378 JUMP JUMPDEST JUMPDEST DUP2 MLOAD PUSH3 0x4DB DUP5 DUP3 PUSH1 0x20 DUP7 ADD PUSH3 0x43F JUMP JUMPDEST SWAP2 POP POP SWAP3 SWAP2 POP POP JUMP JUMPDEST PUSH0 DUP1 PUSH0 PUSH1 0x60 DUP5 DUP7 SUB SLT ISZERO PUSH3 0x4FE JUMPI PUSH3 0x4FD PUSH3 0x30F JUMP JUMPDEST JUMPDEST PUSH0 PUSH3 0x50D DUP7 DUP3 DUP8 ADD PUSH3 0x362 JUMP JUMPDEST SWAP4 POP POP PUSH1 0x20 PUSH3 0x520 DUP7 DUP3 DUP8 ADD PUSH3 0x362 JUMP JUMPDEST SWAP3 POP POP PUSH1 0x40 DUP5 ADD MLOAD PUSH8 0xFFFFFFFFFFFFFFFF DUP2 GT ISZERO PUSH3 0x544 JUMPI PUSH3 0x543 PUSH3 0x313 JUMP JUMPDEST JUMPDEST PUSH3 0x552 DUP7 DUP3 DUP8 ADD PUSH3 0x4B2 JUMP JUMPDEST SWAP2 POP POP SWAP3 POP SWAP3 POP SWAP3 JUMP JUMPDEST PUSH0 PUSH1 0x20 DUP3 DUP5 SUB SLT ISZERO PUSH3 0x574 JUMPI PUSH3 0x573 PUSH3 0x30F JUMP JUMPDEST JUMPDEST PUSH0 PUSH3 0x583 DUP5 DUP3 DUP6 ADD PUSH3 0x362 JUMP JUMPDEST SWAP2 POP POP SWAP3 SWAP2 POP POP JUMP JUMPDEST PUSH32 0x4E487B7100000000000000000000000000000000000000000000000000000000 PUSH0 MSTORE PUSH1 0x32 PUSH1 0x4 MSTORE PUSH1 0x24 PUSH0 REVERT JUMPDEST PUSH32 0x4E487B7100000000000000000000000000000000000000000000000000000000 PUSH0 MSTORE PUSH1 0x11 PUSH1 0x4 MSTORE PUSH1 0x24 PUSH0 REVERT JUMPDEST PUSH0 DUP2 SWAP1 POP SWAP2 SWAP1 POP JUMP JUMPDEST PUSH0 PUSH3 0x5FB DUP3 PUSH3 0x5E6 JUMP JUMPDEST SWAP2 POP PUSH32 0xFFFFFFFFFFFFFFFFFFFFFFFFFFFFFFFFFFFFFFFFFFFFFFFFFFFFFFFFFFFFFFFF DUP3 SUB PUSH3 0x630 JUMPI PUSH3 0x62F PUSH3 0x5B9 JUMP JUMPDEST JUMPDEST PUSH1 0x1 DUP3 ADD SWAP1 POP SWAP2 SWAP1 POP JUMP JUMPDEST PUSH1 0x80 MLOAD PUSH1 0xA0 MLOAD PUSH1 0xC0 MLOAD PUSH2 0x23B6 PUSH3 0x682 PUSH0 CODECOPY PUSH0 DUP2 DUP2 PUSH2 0x50B ADD MSTORE DUP2 DUP2 PUSH2 0x108F ADD MSTORE PUSH2 0x11BB ADD MSTORE PUSH0 DUP2 DUP2 PUSH2 0x7C2 ADD MSTORE DUP2 DUP2 PUSH2 0xD2C ADD MSTORE PUSH2 0x1132 ADD MSTORE PUSH0 PUSH2 0x9B7 ADD MSTORE PUSH2 0x23B6 PUSH0 RETURN INVALID PUSH1 0x80 PUSH1 0x40 MSTORE CALLVALUE DUP1 ISZERO PUSH2 0xF JUMPI PUSH0 DUP1 REVERT JUMPDEST POP PUSH1 0x4 CALLDATASIZE LT PUSH2 0x156 JUMPI PUSH0 CALLDATALOAD PUSH1 0xE0 SHR DUP1 PUSH4 0x92777B29 GT PUSH2 0xC1 JUMPI DUP1 PUSH4 0xE8111A12 GT PUSH2 0x7A JUMPI DUP1 PUSH4 0xE8111A12 EQ PUSH2 0x415 JUMPI DUP1 PUSH4 0xF25E55A5 EQ PUSH2 0x433 JUMPI DUP1 PUSH4 0xF301AF42 EQ PUSH2 0x463 JUMPI DUP1 PUSH4 0xF3207723 EQ PUSH2 0x493 JUMPI DUP1 PUSH4 0xF5F8D365 EQ PUSH2 0x4AF JUMPI DUP1 PUSH4 0xF7412BAF EQ PUSH2 0x4CB JUMPI PUSH2 0x156 JUMP JUMPDEST DUP1 PUSH4 0x92777B29 EQ PUSH2 0x32F JUMPI DUP1 PUSH4 0x9CC7F708 EQ PUSH2 0x35F JUMPI DUP1 PUSH4 0x9E2BF22C EQ PUSH2 0x38F JUMPI DUP1 PUSH4 0xA28D4C9C EQ PUSH2 0x3AB JUMPI DUP1 PUSH4 0xB66503CF EQ PUSH2 0x3DB JUMPI DUP1 PUSH4 0xE6886396 EQ PUSH2 0x3F7 JUMPI PUSH2 0x156 JUMP JUMPDEST DUP1 PUSH4 0x49DCC204 GT PUSH2 0x113 JUMPI DUP1 PUSH4 0x49DCC204 EQ PUSH2 0x220 JUMPI DUP1 PUSH4 0x4D5CE038 EQ PUSH2 0x251 JUMPI DUP1 PUSH4 0x50589793 EQ PUSH2 0x281 JUMPI DUP1 PUSH4 0x572B6C05 EQ PUSH2 0x2B1 JUMPI DUP1 PUSH4 0x76F4BE36 EQ PUSH2 0x2E1 JUMPI DUP1 PUSH4 0x7DA0A877 EQ PUSH2 0x311 JUMPI PUSH2 0x156 JUMP JUMPDEST DUP1 PUSH4 0x18160DDD EQ PUSH2 0x15A JUMPI DUP1 PUSH4 0x1BE05289 EQ PUSH2 0x178 JUMPI DUP1 PUSH4 0x1F850716 EQ PUSH2 0x196 JUMPI DUP1 PUSH4 0x3E491D47 EQ PUSH2 0x1B4 JUMPI DUP1 PUSH4 0x456CB7C6 EQ PUSH2 0x1E4 JUMPI DUP1 PUSH4 0x46C96AAC EQ PUSH2 0x202 JUMPI JUMPDEST PUSH0 DUP1 REVERT JUMPDEST PUSH2 0x162 PUSH2 0x4FC JUMP JUMPDEST PUSH1 0x40 MLOAD PUSH2 0x16F SWAP2 SWAP1 PUSH2 0x1BDC JUMP JUMPDEST PUSH1 0x40 MLOAD DUP1 SWAP2 SUB SWAP1 RETURN JUMPDEST PUSH2 0x180 PUSH2 0x502 JUMP JUMPDEST PUSH1 0x40 MLOAD PUSH2 0x18D SWAP2 SWAP1 PUSH2 0x1BDC JUMP JUMPDEST PUSH1 0x40 MLOAD DUP1 SWAP2 SUB SWAP1 RETURN JUMPDEST PUSH2 0x19E PUSH2 0x509 JUMP JUMPDEST PUSH1 0x40 MLOAD PUSH2 0x1AB SWAP2 SWAP1 PUSH2 0x1C34 JUMP JUMPDEST PUSH1 0x40 MLOAD DUP1 SWAP2 SUB SWAP1 RETURN JUMPDEST PUSH2 0x1CE PUSH1 0x4 DUP1 CALLDATASIZE SUB DUP2 ADD SWAP1 PUSH2 0x1C9 SWAP2 SWAP1 PUSH2 0x1CB2 JUMP JUMPDEST PUSH2 0x52D JUMP JUMPDEST PUSH1 0x40 MLOAD PUSH2 0x1DB SWAP2 SWAP1 PUSH2 0x1BDC JUMP JUMPDEST PUSH1 0x40 MLOAD DUP1 SWAP2 SUB SWAP1 RETURN JUMPDEST PUSH2 0x1EC PUSH2 0x79B JUMP JUMPDEST PUSH1 0x40 MLOAD PUSH2 0x1F9 SWAP2 SWAP1 PUSH2 0x1C34 JUMP JUMPDEST PUSH1 0x40 MLOAD DUP1 SWAP2 SUB SWAP1 RETURN JUMPDEST PUSH2 0x20A PUSH2 0x7C0 JUMP JUMPDEST PUSH1 0x40 MLOAD PUSH2 0x217 SWAP2 SWAP1 PUSH2 0x1C34 JUMP JUMPDEST PUSH1 0x40 MLOAD DUP1 SWAP2 SUB SWAP1 RETURN JUMPDEST PUSH2 0x23A PUSH1 0x4 DUP1 CALLDATASIZE SUB DUP2 ADD SWAP1 PUSH2 0x235 SWAP2 SWAP1 PUSH2 0x1CF0 JUMP JUMPDEST PUSH2 0x7E4 JUMP JUMPDEST PUSH1 0x40 MLOAD PUSH2 0x248 SWAP3 SWAP2 SWAP1 PUSH2 0x1D2E JUMP JUMPDEST PUSH1 0x40 MLOAD DUP1 SWAP2 SUB SWAP1 RETURN JUMPDEST PUSH2 0x26B PUSH1 0x4 DUP1 CALLDATASIZE SUB DUP2 ADD SWAP1 PUSH2 0x266 SWAP2 SWAP1 PUSH2 0x1D55 JUMP JUMPDEST PUSH2 0x80F JUMP JUMPDEST PUSH1 0x40 MLOAD PUSH2 0x278 SWAP2 SWAP1 PUSH2 0x1D9A JUMP JUMPDEST PUSH1 0x40 MLOAD DUP1 SWAP2 SUB SWAP1 RETURN JUMPDEST PUSH2 0x29B PUSH1 0x4 DUP1 CALLDATASIZE SUB DUP2 ADD SWAP1 PUSH2 0x296 SWAP2 SWAP1 PUSH2 0x1DB3 JUMP JUMPDEST PUSH2 0x82C JUMP JUMPDEST PUSH1 0x40 MLOAD PUSH2 0x2A8 SWAP2 SWAP1 PUSH2 0x1BDC JUMP JUMPDEST PUSH1 0x40 MLOAD DUP1 SWAP2 SUB SWAP1 RETURN JUMPDEST PUSH2 0x2CB PUSH1 0x4 DUP1 CALLDATASIZE SUB DUP2 ADD SWAP1 PUSH2 0x2C6 SWAP2 SWAP1 PUSH2 0x1D55 JUMP JUMPDEST PUSH2 0x841 JUMP JUMPDEST PUSH1 0x40 MLOAD PUSH2 0x2D8 SWAP2 SWAP1 PUSH2 0x1D9A JUMP JUMPDEST PUSH1 0x40 MLOAD DUP1 SWAP2 SUB SWAP1 RETURN JUMPDEST PUSH2 0x2FB PUSH1 0x4 DUP1 CALLDATASIZE SUB DUP2 ADD SWAP1 PUSH2 0x2F6 SWAP2 SWAP1 PUSH2 0x1DB3 JUMP JUMPDEST PUSH2 0x87F JUMP JUMPDEST PUSH1 0x40 MLOAD PUSH2 0x308 SWAP2 SWAP1 PUSH2 0x1BDC JUMP JUMPDEST PUSH1 0x40 MLOAD DUP1 SWAP2 SUB SWAP1 RETURN JUMPDEST PUSH2 0x319 PUSH2 0x9B4 JUMP JUMPDEST PUSH1 0x40 MLOAD PUSH2 0x326 SWAP2 SWAP1 PUSH2 0x1C34 JUMP JUMPDEST PUSH1 0x40 MLOAD DUP1 SWAP2 SUB SWAP1 RETURN JUMPDEST PUSH2 0x349 PUSH1 0x4 DUP1 CALLDATASIZE SUB DUP2 ADD SWAP1 PUSH2 0x344 SWAP2 SWAP1 PUSH2 0x1CB2 JUMP JUMPDEST PUSH2 0x9DB JUMP JUMPDEST PUSH1 0x40 MLOAD PUSH2 0x356 SWAP2 SWAP1 PUSH2 0x1BDC JUMP JUMPDEST PUSH1 0x40 MLOAD DUP1 SWAP2 SUB SWAP1 RETURN JUMPDEST PUSH2 0x379 PUSH1 0x4 DUP1 CALLDATASIZE SUB DUP2 ADD SWAP1 PUSH2 0x374 SWAP2 SWAP1 PUSH2 0x1DB3 JUMP JUMPDEST PUSH2 0x9FB JUMP JUMPDEST PUSH1 0x40 MLOAD PUSH2 0x386 SWAP2 SWAP1 PUSH2 0x1BDC JUMP JUMPDEST PUSH1 0x40 MLOAD DUP1 SWAP2 SUB SWAP1 RETURN JUMPDEST PUSH2 0x3A9 PUSH1 0x4 DUP1 CALLDATASIZE SUB DUP2 ADD SWAP1 PUSH2 0x3A4 SWAP2 SWAP1 PUSH2 0x1CF0 JUMP JUMPDEST PUSH2 0xA10 JUMP JUMPDEST STOP JUMPDEST PUSH2 0x3C5 PUSH1 0x4 DUP1 CALLDATASIZE SUB DUP2 ADD SWAP1 PUSH2 0x3C0 SWAP2 SWAP1 PUSH2 0x1CF0 JUMP JUMPDEST PUSH2 0xB57 JUMP JUMPDEST PUSH1 0x40 MLOAD PUSH2 0x3D2 SWAP2 SWAP1 PUSH2 0x1BDC JUMP JUMPDEST PUSH1 0x40 MLOAD DUP1 SWAP2 SUB SWAP1 RETURN JUMPDEST PUSH2 0x3F5 PUSH1 0x4 DUP1 CALLDATASIZE SUB DUP2 ADD SWAP1 PUSH2 0x3F0 SWAP2 SWAP1 PUSH2 0x1CB2 JUMP JUMPDEST PUSH2 0xCC9 JUMP JUMPDEST STOP JUMPDEST PUSH2 0x3FF PUSH2 0xEC6 JUMP JUMPDEST PUSH1 0x40 MLOAD PUSH2 0x40C SWAP2 SWAP1 PUSH2 0x1BDC JUMP JUMPDEST PUSH1 0x40 MLOAD DUP1 SWAP2 SUB SWAP1 RETURN JUMPDEST PUSH2 0x41D PUSH2 0xED2 JUMP JUMPDEST PUSH1 0x40 MLOAD PUSH2 0x42A SWAP2 SWAP1 PUSH2 0x1BDC JUMP JUMPDEST PUSH1 0x40 MLOAD DUP1 SWAP2 SUB SWAP1 RETURN JUMPDEST PUSH2 0x44D PUSH1 0x4 DUP1 CALLDATASIZE SUB DUP2 ADD SWAP1 PUSH2 0x448 SWAP2 SWAP1 PUSH2 0x1CB2 JUMP JUMPDEST PUSH2 0xED8 JUMP JUMPDEST PUSH1 0x40 MLOAD PUSH2 0x45A SWAP2 SWAP1 PUSH2 0x1BDC JUMP JUMPDEST PUSH1 0x40 MLOAD DUP1 SWAP2 SUB SWAP1 RETURN JUMPDEST PUSH2 0x47D PUSH1 0x4 DUP1 CALLDATASIZE SUB DUP2 ADD SWAP1 PUSH2 0x478 SWAP2 SWAP1 PUSH2 0x1DB3 JUMP JUMPDEST PUSH2 0xEF8 JUMP JUMPDEST PUSH1 0x40 MLOAD PUSH2 0x48A SWAP2 SWAP1 PUSH2 0x1C34 JUMP JUMPDEST PUSH1 0x40 MLOAD DUP1 SWAP2 SUB SWAP1 RETURN JUMPDEST PUSH2 0x4AD PUSH1 0x4 DUP1 CALLDATASIZE SUB DUP2 ADD SWAP1 PUSH2 0x4A8 SWAP2 SWAP1 PUSH2 0x1CF0 JUMP JUMPDEST PUSH2 0xF33 JUMP JUMPDEST STOP JUMPDEST PUSH2 0x4C9 PUSH1 0x4 DUP1 CALLDATASIZE SUB DUP2 ADD SWAP1 PUSH2 0x4C4 SWAP2 SWAP1 PUSH2 0x1F2E JUMP JUMPDEST PUSH2 0x107A JUMP JUMPDEST STOP JUMPDEST PUSH2 0x4E5 PUSH1 0x4 DUP1 CALLDATASIZE SUB DUP2 ADD SWAP1 PUSH2 0x4E0 SWAP2 SWAP1 PUSH2 0x1DB3 JUMP JUMPDEST PUSH2 0x126C JUMP JUMPDEST PUSH1 0x40 MLOAD PUSH2 0x4F3 SWAP3 SWAP2 SWAP1 PUSH2 0x1D2E JUMP JUMPDEST PUSH1 0x40 MLOAD DUP1 SWAP2 SUB SWAP1 RETURN JUMPDEST PUSH1 0x2 SLOAD DUP2 JUMP JUMPDEST PUSH3 0x93A80 DUP2 JUMP JUMPDEST PUSH32 0x0 DUP2 JUMP JUMPDEST PUSH0 DUP1 PUSH1 0x9 PUSH0 DUP5 DUP2 MSTORE PUSH1 0x20 ADD SWAP1 DUP2 MSTORE PUSH1 0x20 ADD PUSH0 KECCAK256 SLOAD SUB PUSH2 0x54E JUMPI PUSH0 SWAP1 POP PUSH2 0x795 JUMP JUMPDEST PUSH0 DUP1 PUSH1 0x1 SWAP1 POP PUSH0 PUSH2 0x5AA PUSH1 0x5 PUSH0 DUP9 PUSH20 0xFFFFFFFFFFFFFFFFFFFFFFFFFFFFFFFFFFFFFFFF AND PUSH20 0xFFFFFFFFFFFFFFFFFFFFFFFFFFFFFFFFFFFFFFFF AND DUP2 MSTORE PUSH1 0x20 ADD SWAP1 DUP2 MSTORE PUSH1 0x20 ADD PUSH0 KECCAK256 PUSH0 DUP8 DUP2 MSTORE PUSH1 0x20 ADD SWAP1 DUP2 MSTORE PUSH1 0x20 ADD PUSH0 KECCAK256 SLOAD PUSH2 0x128C JUMP JUMPDEST SWAP1 POP PUSH0 PUSH2 0x5B7 DUP7 DUP4 PUSH2 0xB57 JUMP JUMPDEST SWAP1 POP PUSH0 PUSH1 0x8 PUSH0 DUP9 DUP2 MSTORE PUSH1 0x20 ADD SWAP1 DUP2 MSTORE PUSH1 0x20 ADD PUSH0 KECCAK256 PUSH0 DUP4 DUP2 MSTORE PUSH1 0x20 ADD SWAP1 DUP2 MSTORE PUSH1 0x20 ADD PUSH0 KECCAK256 PUSH1 0x40 MLOAD DUP1 PUSH1 0x40 ADD PUSH1 0x40 MSTORE SWAP1 DUP2 PUSH0 DUP3 ADD SLOAD DUP2 MSTORE PUSH1 0x20 ADD PUSH1 0x1 DUP3 ADD SLOAD DUP2 MSTORE POP POP SWAP1 POP PUSH2 0x60F DUP4 PUSH2 0x60A DUP4 PUSH0 ADD MLOAD PUSH2 0x128C JUMP JUMPDEST PUSH2 0x12AA JUMP JUMPDEST SWAP3 POP PUSH0 PUSH3 0x93A80 DUP5 PUSH2 0x620 TIMESTAMP PUSH2 0x128C JUMP JUMPDEST PUSH2 0x62A SWAP2 SWAP1 PUSH2 0x1FB5 JUMP JUMPDEST PUSH2 0x634 SWAP2 SWAP1 PUSH2 0x2015 JUMP JUMPDEST SWAP1 POP PUSH0 DUP2 GT ISZERO PUSH2 0x78B JUMPI PUSH0 JUMPDEST DUP2 DUP2 LT ISZERO PUSH2 0x789 JUMPI PUSH2 0x66C DUP10 PUSH1 0x1 PUSH3 0x93A80 DUP9 PUSH2 0x65D SWAP2 SWAP1 PUSH2 0x2045 JUMP JUMPDEST PUSH2 0x667 SWAP2 SWAP1 PUSH2 0x1FB5 JUMP JUMPDEST PUSH2 0xB57 JUMP JUMPDEST SWAP4 POP PUSH1 0x8 PUSH0 DUP11 DUP2 MSTORE PUSH1 0x20 ADD SWAP1 DUP2 MSTORE PUSH1 0x20 ADD PUSH0 KECCAK256 PUSH0 DUP6 DUP2 MSTORE PUSH1 0x20 ADD SWAP1 DUP2 MSTORE PUSH1 0x20 ADD PUSH0 KECCAK256 PUSH1 0x40 MLOAD DUP1 PUSH1 0x40 ADD PUSH1 0x40 MSTORE SWAP1 DUP2 PUSH0 DUP3 ADD SLOAD DUP2 MSTORE PUSH1 0x20 ADD PUSH1 0x1 DUP3 ADD SLOAD DUP2 MSTORE POP POP SWAP3 POP PUSH2 0x6EF PUSH1 0xA PUSH0 PUSH2 0x6D7 PUSH1 0x1 PUSH3 0x93A80 DUP11 PUSH2 0x6C8 SWAP2 SWAP1 PUSH2 0x2045 JUMP JUMPDEST PUSH2 0x6D2 SWAP2 SWAP1 PUSH2 0x1FB5 JUMP JUMPDEST PUSH2 0x87F JUMP JUMPDEST DUP2 MSTORE PUSH1 0x20 ADD SWAP1 DUP2 MSTORE PUSH1 0x20 ADD PUSH0 KECCAK256 PUSH1 0x1 ADD SLOAD PUSH1 0x1 PUSH2 0x12AA JUMP JUMPDEST SWAP6 POP DUP6 PUSH1 0x4 PUSH0 DUP13 PUSH20 0xFFFFFFFFFFFFFFFFFFFFFFFFFFFFFFFFFFFFFFFF AND PUSH20 0xFFFFFFFFFFFFFFFFFFFFFFFFFFFFFFFFFFFFFFFF AND DUP2 MSTORE PUSH1 0x20 ADD SWAP1 DUP2 MSTORE PUSH1 0x20 ADD PUSH0 KECCAK256 PUSH0 DUP8 DUP2 MSTORE PUSH1 0x20 ADD SWAP1 DUP2 MSTORE PUSH1 0x20 ADD PUSH0 KECCAK256 SLOAD DUP5 PUSH1 0x20 ADD MLOAD PUSH2 0x74E SWAP2 SWAP1 PUSH2 0x2078 JUMP JUMPDEST PUSH2 0x758 SWAP2 SWAP1 PUSH2 0x2015 JUMP JUMPDEST DUP8 PUSH2 0x763 SWAP2 SWAP1 PUSH2 0x2045 JUMP JUMPDEST SWAP7 POP PUSH3 0x93A80 DUP6 PUSH2 0x774 SWAP2 SWAP1 PUSH2 0x2045 JUMP JUMPDEST SWAP5 POP DUP1 DUP1 PUSH2 0x781 SWAP1 PUSH2 0x20B9 JUMP JUMPDEST SWAP2 POP POP PUSH2 0x640 JUMP JUMPDEST POP JUMPDEST DUP6 SWAP7 POP POP POP POP POP POP POP JUMPDEST SWAP3 SWAP2 POP POP JUMP JUMPDEST PUSH1 0x1 PUSH0 SWAP1 SLOAD SWAP1 PUSH2 0x100 EXP SWAP1 DIV PUSH20 0xFFFFFFFFFFFFFFFFFFFFFFFFFFFFFFFFFFFFFFFF AND DUP2 JUMP JUMPDEST PUSH32 0x0 DUP2 JUMP JUMPDEST PUSH1 0x8 PUSH1 0x20 MSTORE DUP2 PUSH0 MSTORE PUSH1 0x40 PUSH0 KECCAK256 PUSH1 0x20 MSTORE DUP1 PUSH0 MSTORE PUSH1 0x40 PUSH0 KECCAK256 PUSH0 SWAP2 POP SWAP2 POP POP DUP1 PUSH0 ADD SLOAD SWAP1 DUP1 PUSH1 0x1 ADD SLOAD SWAP1 POP DUP3 JUMP JUMPDEST PUSH1 0x7 PUSH1 0x20 MSTORE DUP1 PUSH0 MSTORE PUSH1 0x40 PUSH0 KECCAK256 PUSH0 SWAP2 POP SLOAD SWAP1 PUSH2 0x100 EXP SWAP1 DIV PUSH1 0xFF AND DUP2 JUMP JUMPDEST PUSH1 0x9 PUSH1 0x20 MSTORE DUP1 PUSH0 MSTORE PUSH1 0x40 PUSH0 KECCAK256 PUSH0 SWAP2 POP SWAP1 POP SLOAD DUP2 JUMP JUMPDEST PUSH0 PUSH2 0x84A PUSH2 0x9B4 JUMP JUMPDEST PUSH20 0xFFFFFFFFFFFFFFFFFFFFFFFFFFFFFFFFFFFFFFFF AND DUP3 PUSH20 0xFFFFFFFFFFFFFFFFFFFFFFFFFFFFFFFFFFFFFFFF AND EQ SWAP1 POP SWAP2 SWAP1 POP JUMP JUMPDEST PUSH0 DUP1 PUSH1 0xB SLOAD SWAP1 POP PUSH0 DUP2 SUB PUSH2 0x896 JUMPI PUSH0 SWAP2 POP POP PUSH2 0x9AF JUMP JUMPDEST DUP3 PUSH1 0xA PUSH0 PUSH1 0x1 DUP5 PUSH2 0x8A7 SWAP2 SWAP1 PUSH2 0x1FB5 JUMP JUMPDEST DUP2 MSTORE PUSH1 0x20 ADD SWAP1 DUP2 MSTORE PUSH1 0x20 ADD PUSH0 KECCAK256 PUSH0 ADD SLOAD GT PUSH2 0x8D1 JUMPI PUSH1 0x1 DUP2 PUSH2 0x8C9 SWAP2 SWAP1 PUSH2 0x1FB5 JUMP JUMPDEST SWAP2 POP POP PUSH2 0x9AF JUMP JUMPDEST DUP3 PUSH1 0xA PUSH0 DUP1 DUP2 MSTORE PUSH1 0x20 ADD SWAP1 DUP2 MSTORE PUSH1 0x20 ADD PUSH0 KECCAK256 PUSH0 ADD SLOAD GT ISZERO PUSH2 0x8F5 JUMPI PUSH0 SWAP2 POP POP PUSH2 0x9AF JUMP JUMPDEST PUSH0 DUP1 PUSH1 0x1 DUP4 PUSH2 0x904 SWAP2 SWAP1 PUSH2 0x1FB5 JUMP JUMPDEST SWAP1 POP JUMPDEST DUP2 DUP2 GT ISZERO PUSH2 0x9A8 JUMPI PUSH0 PUSH1 0x2 DUP4 DUP4 PUSH2 0x91E SWAP2 SWAP1 PUSH2 0x1FB5 JUMP JUMPDEST PUSH2 0x928 SWAP2 SWAP1 PUSH2 0x2015 JUMP JUMPDEST DUP3 PUSH2 0x933 SWAP2 SWAP1 PUSH2 0x1FB5 JUMP JUMPDEST SWAP1 POP PUSH0 PUSH1 0xA PUSH0 DUP4 DUP2 MSTORE PUSH1 0x20 ADD SWAP1 DUP2 MSTORE PUSH1 0x20 ADD PUSH0 KECCAK256 PUSH1 0x40 MLOAD DUP1 PUSH1 0x40 ADD PUSH1 0x40 MSTORE SWAP1 DUP2 PUSH0 DUP3 ADD SLOAD DUP2 MSTORE PUSH1 0x20 ADD PUSH1 0x1 DUP3 ADD SLOAD DUP2 MSTORE POP POP SWAP1 POP DUP7 DUP2 PUSH0 ADD MLOAD SUB PUSH2 0x97E JUMPI DUP2 SWAP6 POP POP POP POP POP POP PUSH2 0x9AF JUMP JUMPDEST DUP7 DUP2 PUSH0 ADD MLOAD LT ISZERO PUSH2 0x991 JUMPI DUP2 SWAP4 POP PUSH2 0x9A1 JUMP JUMPDEST PUSH1 0x1 DUP3 PUSH2 0x99E SWAP2 SWAP1 PUSH2 0x1FB5 JUMP JUMPDEST SWAP3 POP JUMPDEST POP POP PUSH2 0x907 JUMP JUMPDEST DUP2 SWAP4 POP POP POP POP JUMPDEST SWAP2 SWAP1 POP JUMP JUMPDEST PUSH0 PUSH32 0x0 SWAP1 POP SWAP1 JUMP JUMPDEST PUSH1 0x4 PUSH1 0x20 MSTORE DUP2 PUSH0 MSTORE PUSH1 0x40 PUSH0 KECCAK256 PUSH1 0x20 MSTORE DUP1 PUSH0 MSTORE PUSH1 0x40 PUSH0 KECCAK256 PUSH0 SWAP2 POP SWAP2 POP POP SLOAD DUP2 JUMP JUMPDEST PUSH1 0x3 PUSH1 0x20 MSTORE DUP1 PUSH0 MSTORE PUSH1 0x40 PUSH0 KECCAK256 PUSH0 SWAP2 POP SWAP1 POP SLOAD DUP2 JUMP JUMPDEST PUSH0 PUSH2 0xA19 PUSH2 0x12C2 JUMP JUMPDEST SWAP1 POP PUSH1 0x1 PUSH0 SWAP1 SLOAD SWAP1 PUSH2 0x100 EXP SWAP1 DIV PUSH20 0xFFFFFFFFFFFFFFFFFFFFFFFFFFFFFFFFFFFFFFFF AND PUSH20 0xFFFFFFFFFFFFFFFFFFFFFFFFFFFFFFFFFFFFFFFF AND DUP2 PUSH20 0xFFFFFFFFFFFFFFFFFFFFFFFFFFFFFFFFFFFFFFFF AND EQ PUSH2 0xAA1 JUMPI PUSH1 0x40 MLOAD PUSH32 0xEA8E4EB500000000000000000000000000000000000000000000000000000000 DUP2 MSTORE PUSH1 0x4 ADD PUSH1 0x40 MLOAD DUP1 SWAP2 SUB SWAP1 REVERT JUMPDEST DUP3 PUSH1 0x2 PUSH0 DUP3 DUP3 SLOAD PUSH2 0xAB2 SWAP2 SWAP1 PUSH2 0x1FB5 JUMP JUMPDEST SWAP3 POP POP DUP2 SWAP1 SSTORE POP DUP3 PUSH1 0x3 PUSH0 DUP5 DUP2 MSTORE PUSH1 0x20 ADD SWAP1 DUP2 MSTORE PUSH1 0x20 ADD PUSH0 KECCAK256 PUSH0 DUP3 DUP3 SLOAD PUSH2 0xAD9 SWAP2 SWAP1 PUSH2 0x1FB5 JUMP JUMPDEST SWAP3 POP POP DUP2 SWAP1 SSTORE POP PUSH2 0xAFB DUP3 PUSH1 0x3 PUSH0 DUP6 DUP2 MSTORE PUSH1 0x20 ADD SWAP1 DUP2 MSTORE PUSH1 0x20 ADD PUSH0 KECCAK256 SLOAD PUSH2 0x1333 JUMP JUMPDEST PUSH2 0xB03 PUSH2 0x146B JUMP JUMPDEST DUP2 DUP2 PUSH20 0xFFFFFFFFFFFFFFFFFFFFFFFFFFFFFFFFFFFFFFFF AND PUSH32 0xF279E6A1F5E320CCA91135676D9CB6E44CA8A08C0B88342BCDB1144F6511B568 DUP6 PUSH1 0x40 MLOAD PUSH2 0xB4A SWAP2 SWAP1 PUSH2 0x1BDC JUMP JUMPDEST PUSH1 0x40 MLOAD DUP1 SWAP2 SUB SWAP1 LOG3 POP POP POP JUMP JUMPDEST PUSH0 DUP1 PUSH1 0x9 PUSH0 DUP6 DUP2 MSTORE PUSH1 0x20 ADD SWAP1 DUP2 MSTORE PUSH1 0x20 ADD PUSH0 KECCAK256 SLOAD SWAP1 POP PUSH0 DUP2 SUB PUSH2 0xB7D JUMPI PUSH0 SWAP2 POP POP PUSH2 0xCC3 JUMP JUMPDEST DUP3 PUSH1 0x8 PUSH0 DUP7 DUP2 MSTORE PUSH1 0x20 ADD SWAP1 DUP2 MSTORE PUSH1 0x20 ADD PUSH0 KECCAK256 PUSH0 PUSH1 0x1 DUP5 PUSH2 0xB9D SWAP2 SWAP1 PUSH2 0x1FB5 JUMP JUMPDEST DUP2 MSTORE PUSH1 0x20 ADD SWAP1 DUP2 MSTORE PUSH1 0x20 ADD PUSH0 KECCAK256 PUSH0 ADD SLOAD GT PUSH2 0xBC7 JUMPI PUSH1 0x1 DUP2 PUSH2 0xBBF SWAP2 SWAP1 PUSH2 0x1FB5 JUMP JUMPDEST SWAP2 POP POP PUSH2 0xCC3 JUMP JUMPDEST DUP3 PUSH1 0x8 PUSH0 DUP7 DUP2 MSTORE PUSH1 0x20 ADD SWAP1 DUP2 MSTORE PUSH1 0x20 ADD PUSH0 KECCAK256 PUSH0 DUP1 DUP2 MSTORE PUSH1 0x20 ADD SWAP1 DUP2 MSTORE PUSH1 0x20 ADD PUSH0 KECCAK256 PUSH0 ADD SLOAD GT ISZERO PUSH2 0xBFA JUMPI PUSH0 SWAP2 POP POP PUSH2 0xCC3 JUMP JUMPDEST PUSH0 DUP1 PUSH1 0x1 DUP4 PUSH2 0xC09 SWAP2 SWAP1 PUSH2 0x1FB5 JUMP JUMPDEST SWAP1 POP JUMPDEST DUP2 DUP2 GT ISZERO PUSH2 0xCBC JUMPI PUSH0 PUSH1 0x2 DUP4 DUP4 PUSH2 0xC23 SWAP2 SWAP1 PUSH2 0x1FB5 JUMP JUMPDEST PUSH2 0xC2D SWAP2 SWAP1 PUSH2 0x2015 JUMP JUMPDEST DUP3 PUSH2 0xC38 SWAP2 SWAP1 PUSH2 0x1FB5 JUMP JUMPDEST SWAP1 POP PUSH0 PUSH1 0x8 PUSH0 DUP10 DUP2 MSTORE PUSH1 0x20 ADD SWAP1 DUP2 MSTORE PUSH1 0x20 ADD PUSH0 KECCAK256 PUSH0 DUP4 DUP2 MSTORE PUSH1 0x20 ADD SWAP1 DUP2 MSTORE PUSH1 0x20 ADD PUSH0 KECCAK256 PUSH1 0x40 MLOAD DUP1 PUSH1 0x40 ADD PUSH1 0x40 MSTORE SWAP1 DUP2 PUSH0 DUP3 ADD SLOAD DUP2 MSTORE PUSH1 0x20 ADD PUSH1 0x1 DUP3 ADD SLOAD DUP2 MSTORE POP POP SWAP1 POP DUP7 DUP2 PUSH0 ADD MLOAD SUB PUSH2 0xC92 JUMPI DUP2 SWAP6 POP POP POP POP POP POP PUSH2 0xCC3 JUMP JUMPDEST DUP7 DUP2 PUSH0 ADD MLOAD LT ISZERO PUSH2 0xCA5 JUMPI DUP2 SWAP4 POP PUSH2 0xCB5 JUMP JUMPDEST PUSH1 0x1 DUP3 PUSH2 0xCB2 SWAP2 SWAP1 PUSH2 0x1FB5 JUMP JUMPDEST SWAP3 POP JUMPDEST POP POP PUSH2 0xC0C JUMP JUMPDEST DUP2 SWAP4 POP POP POP POP JUMPDEST SWAP3 SWAP2 POP POP JUMP JUMPDEST PUSH2 0xCD1 PUSH2 0x155A JUMP JUMPDEST PUSH0 PUSH2 0xCDA PUSH2 0x12C2 JUMP JUMPDEST SWAP1 POP PUSH1 0x7 PUSH0 DUP5 PUSH20 0xFFFFFFFFFFFFFFFFFFFFFFFFFFFFFFFFFFFFFFFF AND PUSH20 0xFFFFFFFFFFFFFFFFFFFFFFFFFFFFFFFFFFFFFFFF AND DUP2 MSTORE PUSH1 0x20 ADD SWAP1 DUP2 MSTORE PUSH1 0x20 ADD PUSH0 KECCAK256 PUSH0 SWAP1 SLOAD SWAP1 PUSH2 0x100 EXP SWAP1 DIV PUSH1 0xFF AND PUSH2 0xEAE JUMPI PUSH32 0x0 PUSH20 0xFFFFFFFFFFFFFFFFFFFFFFFFFFFFFFFFFFFFFFFF AND PUSH4 0xAB37F486 DUP5 PUSH1 0x40 MLOAD DUP3 PUSH4 0xFFFFFFFF AND PUSH1 0xE0 SHL DUP2 MSTORE PUSH1 0x4 ADD PUSH2 0xD83 SWAP2 SWAP1 PUSH2 0x1C34 JUMP JUMPDEST PUSH1 0x20 PUSH1 0x40 MLOAD DUP1 DUP4 SUB DUP2 DUP7 GAS STATICCALL ISZERO DUP1 ISZERO PUSH2 0xD9E JUMPI RETURNDATASIZE PUSH0 DUP1 RETURNDATACOPY RETURNDATASIZE PUSH0 REVERT JUMPDEST POP POP POP POP PUSH1 0x40 MLOAD RETURNDATASIZE PUSH1 0x1F NOT PUSH1 0x1F DUP3 ADD AND DUP3 ADD DUP1 PUSH1 0x40 MSTORE POP DUP2 ADD SWAP1 PUSH2 0xDC2 SWAP2 SWAP1 PUSH2 0x212A JUMP JUMPDEST PUSH2 0xDF8 JUMPI PUSH1 0x40 MLOAD PUSH32 0x584A793800000000000000000000000000000000000000000000000000000000 DUP2 MSTORE PUSH1 0x4 ADD PUSH1 0x40 MLOAD DUP1 SWAP2 SUB SWAP1 REVERT JUMPDEST PUSH1 0x1 PUSH1 0x7 PUSH0 DUP6 PUSH20 0xFFFFFFFFFFFFFFFFFFFFFFFFFFFFFFFFFFFFFFFF AND PUSH20 0xFFFFFFFFFFFFFFFFFFFFFFFFFFFFFFFFFFFFFFFF AND DUP2 MSTORE PUSH1 0x20 ADD SWAP1 DUP2 MSTORE PUSH1 0x20 ADD PUSH0 KECCAK256 PUSH0 PUSH2 0x100 EXP DUP2 SLOAD DUP2 PUSH1 0xFF MUL NOT AND SWAP1 DUP4 ISZERO ISZERO MUL OR SWAP1 SSTORE POP PUSH1 0x6 DUP4 SWAP1 DUP1 PUSH1 0x1 DUP2 SLOAD ADD DUP1 DUP3 SSTORE DUP1 SWAP2 POP POP PUSH1 0x1 SWAP1 SUB SWAP1 PUSH0 MSTORE PUSH1 0x20 PUSH0 KECCAK256 ADD PUSH0 SWAP1 SWAP2 SWAP1 SWAP2 SWAP1 SWAP2 PUSH2 0x100 EXP DUP2 SLOAD DUP2 PUSH20 0xFFFFFFFFFFFFFFFFFFFFFFFFFFFFFFFFFFFFFFFF MUL NOT AND SWAP1 DUP4 PUSH20 0xFFFFFFFFFFFFFFFFFFFFFFFFFFFFFFFFFFFFFFFF AND MUL OR SWAP1 SSTORE POP JUMPDEST PUSH2 0xEB9 DUP2 DUP5 DUP5 PUSH2 0x159E JUMP JUMPDEST POP PUSH2 0xEC2 PUSH2 0x16DE JUMP JUMPDEST POP POP JUMP JUMPDEST PUSH0 PUSH1 0x6 DUP1 SLOAD SWAP1 POP SWAP1 POP SWAP1 JUMP JUMPDEST PUSH1 0xB SLOAD DUP2 JUMP JUMPDEST PUSH1 0x5 PUSH1 0x20 MSTORE DUP2 PUSH0 MSTORE PUSH1 0x40 PUSH0 KECCAK256 PUSH1 0x20 MSTORE DUP1 PUSH0 MSTORE PUSH1 0x40 PUSH0 KECCAK256 PUSH0 SWAP2 POP SWAP2 POP POP SLOAD DUP2 JUMP JUMPDEST PUSH1 0x6 DUP2 DUP2 SLOAD DUP2 LT PUSH2 0xF07 JUMPI PUSH0 DUP1 REVERT JUMPDEST SWAP1 PUSH0 MSTORE PUSH1 0x20 PUSH0 KECCAK256 ADD PUSH0 SWAP2 POP SLOAD SWAP1 PUSH2 0x100 EXP SWAP1 DIV PUSH20 0xFFFFFFFFFFFFFFFFFFFFFFFFFFFFFFFFFFFFFFFF AND DUP2 JUMP JUMPDEST PUSH0 PUSH2 0xF3C PUSH2 0x12C2 JUMP JUMPDEST SWAP1 POP PUSH1 0x1 PUSH0 SWAP1 SLOAD SWAP1 PUSH2 0x100 EXP SWAP1 DIV PUSH20 0xFFFFFFFFFFFFFFFFFFFFFFFFFFFFFFFFFFFFFFFF AND PUSH20 0xFFFFFFFFFFFFFFFFFFFFFFFFFFFFFFFFFFFFFFFF AND DUP2 PUSH20 0xFFFFFFFFFFFFFFFFFFFFFFFFFFFFFFFFFFFFFFFF AND EQ PUSH2 0xFC4 JUMPI PUSH1 0x40 MLOAD PUSH32 0xEA8E4EB500000000000000000000000000000000000000000000000000000000 DUP2 MSTORE PUSH1 0x4 ADD PUSH1 0x40 MLOAD DUP1 SWAP2 SUB SWAP1 REVERT JUMPDEST DUP3 PUSH1 0x2 PUSH0 DUP3 DUP3 SLOAD PUSH2 0xFD5 SWAP2 SWAP1 PUSH2 0x2045 JUMP JUMPDEST SWAP3 POP POP DUP2 SWAP1 SSTORE POP DUP3 PUSH1 0x3 PUSH0 DUP5 DUP2 MSTORE PUSH1 0x20 ADD SWAP1 DUP2 MSTORE PUSH1 0x20 ADD PUSH0 KECCAK256 PUSH0 DUP3 DUP3 SLOAD PUSH2 0xFFC SWAP2 SWAP1 PUSH2 0x2045 JUMP JUMPDEST SWAP3 POP POP DUP2 SWAP1 SSTORE POP PUSH2 0x101E DUP3 PUSH1 0x3 PUSH0 DUP6 DUP2 MSTORE PUSH1 0x20 ADD SWAP1 DUP2 MSTORE PUSH1 0x20 ADD PUSH0 KECCAK256 SLOAD PUSH2 0x1333 JUMP JUMPDEST PUSH2 0x1026 PUSH2 0x146B JUMP JUMPDEST DUP2 DUP2 PUSH20 0xFFFFFFFFFFFFFFFFFFFFFFFFFFFFFFFFFFFFFFFF AND PUSH32 0x90890809C654F11D6E72A28FA60149770A0D11EC6C92319D6CEB2BB0A4EA1A15 DUP6 PUSH1 0x40 MLOAD PUSH2 0x106D SWAP2 SWAP1 PUSH2 0x1BDC JUMP JUMPDEST PUSH1 0x40 MLOAD DUP1 SWAP2 SUB SWAP1 LOG3 POP POP POP JUMP JUMPDEST PUSH2 0x1082 PUSH2 0x155A JUMP JUMPDEST PUSH0 PUSH2 0x108B PUSH2 0x12C2 JUMP JUMPDEST SWAP1 POP PUSH32 0x0 PUSH20 0xFFFFFFFFFFFFFFFFFFFFFFFFFFFFFFFFFFFFFFFF AND PUSH4 0x430C2081 DUP3 DUP6 PUSH1 0x40 MLOAD DUP4 PUSH4 0xFFFFFFFF AND PUSH1 0xE0 SHL DUP2 MSTORE PUSH1 0x4 ADD PUSH2 0x10E8 SWAP3 SWAP2 SWAP1 PUSH2 0x2155 JUMP JUMPDEST PUSH1 0x20 PUSH1 0x40 MLOAD DUP1 DUP4 SUB DUP2 PUSH0 DUP8 GAS CALL ISZERO DUP1 ISZERO PUSH2 0x1104 JUMPI RETURNDATASIZE PUSH0 DUP1 RETURNDATACOPY RETURNDATASIZE PUSH0 REVERT JUMPDEST POP POP POP POP PUSH1 0x40 MLOAD RETURNDATASIZE PUSH1 0x1F NOT PUSH1 0x1F DUP3 ADD AND DUP3 ADD DUP1 PUSH1 0x40 MSTORE POP DUP2 ADD SWAP1 PUSH2 0x1128 SWAP2 SWAP1 PUSH2 0x212A JUMP JUMPDEST ISZERO DUP1 ISZERO PUSH2 0x1181 JUMPI POP PUSH32 0x0 PUSH20 0xFFFFFFFFFFFFFFFFFFFFFFFFFFFFFFFFFFFFFFFF AND DUP2 PUSH20 0xFFFFFFFFFFFFFFFFFFFFFFFFFFFFFFFFFFFFFFFF AND EQ ISZERO JUMPDEST ISZERO PUSH2 0x11B8 JUMPI PUSH1 0x40 MLOAD PUSH32 0xEA8E4EB500000000000000000000000000000000000000000000000000000000 DUP2 MSTORE PUSH1 0x4 ADD PUSH1 0x40 MLOAD DUP1 SWAP2 SUB SWAP1 REVERT JUMPDEST PUSH0 PUSH32 0x0 PUSH20 0xFFFFFFFFFFFFFFFFFFFFFFFFFFFFFFFFFFFFFFFF AND PUSH4 0x6352211E DUP6 PUSH1 0x40 MLOAD DUP3 PUSH4 0xFFFFFFFF AND PUSH1 0xE0 SHL DUP2 MSTORE PUSH1 0x4 ADD PUSH2 0x1212 SWAP2 SWAP1 PUSH2 0x1BDC JUMP JUMPDEST PUSH1 0x20 PUSH1 0x40 MLOAD DUP1 DUP4 SUB DUP2 DUP7 GAS STATICCALL ISZERO DUP1 ISZERO PUSH2 0x122D JUMPI RETURNDATASIZE PUSH0 DUP1 RETURNDATACOPY RETURNDATASIZE PUSH0 REVERT JUMPDEST POP POP POP POP PUSH1 0x40 MLOAD RETURNDATASIZE PUSH1 0x1F NOT PUSH1 0x1F DUP3 ADD AND DUP3 ADD DUP1 PUSH1 0x40 MSTORE POP DUP2 ADD SWAP1 PUSH2 0x1251 SWAP2 SWAP1 PUSH2 0x2190 JUMP JUMPDEST SWAP1 POP PUSH2 0x125E DUP2 DUP6 DUP6 PUSH2 0x16E7 JUMP JUMPDEST POP POP PUSH2 0x1268 PUSH2 0x16DE JUMP JUMPDEST POP POP JUMP JUMPDEST PUSH1 0xA PUSH1 0x20 MSTORE DUP1 PUSH0 MSTORE PUSH1 0x40 PUSH0 KECCAK256 PUSH0 SWAP2 POP SWAP1 POP DUP1 PUSH0 ADD SLOAD SWAP1 DUP1 PUSH1 0x1 ADD SLOAD SWAP1 POP DUP3 JUMP JUMPDEST PUSH0 PUSH3 0x93A80 DUP3 DUP2 PUSH2 0x12A0 JUMPI PUSH2 0x129F PUSH2 0x1FE8 JUMP JUMPDEST JUMPDEST MOD DUP3 SUB SWAP1 POP SWAP2 SWAP1 POP JUMP JUMPDEST PUSH0 DUP2 DUP4 GT PUSH2 0x12B8 JUMPI DUP2 PUSH2 0x12BA JUMP JUMPDEST DUP3 JUMPDEST SWAP1 POP SWAP3 SWAP2 POP POP JUMP JUMPDEST PUSH0 DUP1 PUSH0 CALLDATASIZE SWAP1 POP SWAP1 POP PUSH0 PUSH2 0x12D3 PUSH2 0x1870 JUMP JUMPDEST SWAP1 POP PUSH2 0x12DE CALLER PUSH2 0x841 JUMP JUMPDEST DUP1 ISZERO PUSH2 0x12EA JUMPI POP DUP1 DUP3 LT ISZERO JUMPDEST ISZERO PUSH2 0x1323 JUMPI PUSH0 CALLDATASIZE DUP3 DUP5 PUSH2 0x12FD SWAP2 SWAP1 PUSH2 0x1FB5 JUMP JUMPDEST SWAP1 DUP1 SWAP3 PUSH2 0x130C SWAP4 SWAP3 SWAP2 SWAP1 PUSH2 0x21C3 JUMP JUMPDEST SWAP1 PUSH2 0x1317 SWAP2 SWAP1 PUSH2 0x223E JUMP JUMPDEST PUSH1 0x60 SHR SWAP3 POP POP POP PUSH2 0x1330 JUMP JUMPDEST PUSH2 0x132B PUSH2 0x1878 JUMP JUMPDEST SWAP3 POP POP POP JUMPDEST SWAP1 JUMP JUMPDEST PUSH0 PUSH1 0x9 PUSH0 DUP5 DUP2 MSTORE PUSH1 0x20 ADD SWAP1 DUP2 MSTORE PUSH1 0x20 ADD PUSH0 KECCAK256 SLOAD SWAP1 POP PUSH0 TIMESTAMP SWAP1 POP PUSH0 DUP3 GT DUP1 ISZERO PUSH2 0x1398 JUMPI POP PUSH2 0x135F DUP2 PUSH2 0x128C JUMP JUMPDEST PUSH2 0x1396 PUSH1 0x8 PUSH0 DUP8 DUP2 MSTORE PUSH1 0x20 ADD SWAP1 DUP2 MSTORE PUSH1 0x20 ADD PUSH0 KECCAK256 PUSH0 PUSH1 0x1 DUP7 PUSH2 0x1381 SWAP2 SWAP1 PUSH2 0x1FB5 JUMP JUMPDEST DUP2 MSTORE PUSH1 0x20 ADD SWAP1 DUP2 MSTORE PUSH1 0x20 ADD PUSH0 KECCAK256 PUSH0 ADD SLOAD PUSH2 0x128C JUMP JUMPDEST EQ JUMPDEST ISZERO PUSH2 0x13F8 JUMPI PUSH1 0x40 MLOAD DUP1 PUSH1 0x40 ADD PUSH1 0x40 MSTORE DUP1 DUP3 DUP2 MSTORE PUSH1 0x20 ADD DUP5 DUP2 MSTORE POP PUSH1 0x8 PUSH0 DUP7 DUP2 MSTORE PUSH1 0x20 ADD SWAP1 DUP2 MSTORE PUSH1 0x20 ADD PUSH0 KECCAK256 PUSH0 PUSH1 0x1 DUP6 PUSH2 0x13D1 SWAP2 SWAP1 PUSH2 0x1FB5 JUMP JUMPDEST DUP2 MSTORE PUSH1 0x20 ADD SWAP1 DUP2 MSTORE PUSH1 0x20 ADD PUSH0 KECCAK256 PUSH0 DUP3 ADD MLOAD DUP2 PUSH0 ADD SSTORE PUSH1 0x20 DUP3 ADD MLOAD DUP2 PUSH1 0x1 ADD SSTORE SWAP1 POP POP PUSH2 0x1465 JUMP JUMPDEST PUSH1 0x40 MLOAD DUP1 PUSH1 0x40 ADD PUSH1 0x40 MSTORE DUP1 DUP3 DUP2 MSTORE PUSH1 0x20 ADD DUP5 DUP2 MSTORE POP PUSH1 0x8 PUSH0 DUP7 DUP2 MSTORE PUSH1 0x20 ADD SWAP1 DUP2 MSTORE PUSH1 0x20 ADD PUSH0 KECCAK256 PUSH0 DUP5 DUP2 MSTORE PUSH1 0x20 ADD SWAP1 DUP2 MSTORE PUSH1 0x20 ADD PUSH0 KECCAK256 PUSH0 DUP3 ADD MLOAD DUP2 PUSH0 ADD SSTORE PUSH1 0x20 DUP3 ADD MLOAD DUP2 PUSH1 0x1 ADD SSTORE SWAP1 POP POP PUSH1 0x1 DUP3 PUSH2 0x144F SWAP2 SWAP1 PUSH2 0x2045 JUMP JUMPDEST PUSH1 0x9 PUSH0 DUP7 DUP2 MSTORE PUSH1 0x20 ADD SWAP1 DUP2 MSTORE PUSH1 0x20 ADD PUSH0 KECCAK256 DUP2 SWAP1 SSTORE POP JUMPDEST POP POP POP POP JUMP JUMPDEST PUSH0 PUSH1 0xB SLOAD SWAP1 POP PUSH0 TIMESTAMP SWAP1 POP PUSH0 DUP3 GT DUP1 ISZERO PUSH2 0x14B2 JUMPI POP PUSH2 0x1488 DUP2 PUSH2 0x128C JUMP JUMPDEST PUSH2 0x14B0 PUSH1 0xA PUSH0 PUSH1 0x1 DUP7 PUSH2 0x149B SWAP2 SWAP1 PUSH2 0x1FB5 JUMP JUMPDEST DUP2 MSTORE PUSH1 0x20 ADD SWAP1 DUP2 MSTORE PUSH1 0x20 ADD PUSH0 KECCAK256 PUSH0 ADD SLOAD PUSH2 0x128C JUMP JUMPDEST EQ JUMPDEST ISZERO PUSH2 0x1505 JUMPI PUSH1 0x40 MLOAD DUP1 PUSH1 0x40 ADD PUSH1 0x40 MSTORE DUP1 DUP3 DUP2 MSTORE PUSH1 0x20 ADD PUSH1 0x2 SLOAD DUP2 MSTORE POP PUSH1 0xA PUSH0 PUSH1 0x1 DUP6 PUSH2 0x14DE SWAP2 SWAP1 PUSH2 0x1FB5 JUMP JUMPDEST DUP2 MSTORE PUSH1 0x20 ADD SWAP1 DUP2 MSTORE PUSH1 0x20 ADD PUSH0 KECCAK256 PUSH0 DUP3 ADD MLOAD DUP2 PUSH0 ADD SSTORE PUSH1 0x20 DUP3 ADD MLOAD DUP2 PUSH1 0x1 ADD SSTORE SWAP1 POP POP PUSH2 0x1556 JUMP JUMPDEST PUSH1 0x40 MLOAD DUP1 PUSH1 0x40 ADD PUSH1 0x40 MSTORE DUP1 DUP3 DUP2 MSTORE PUSH1 0x20 ADD PUSH1 0x2 SLOAD DUP2 MSTORE POP PUSH1 0xA PUSH0 DUP5 DUP2 MSTORE PUSH1 0x20 ADD SWAP1 DUP2 MSTORE PUSH1 0x20 ADD PUSH0 KECCAK256 PUSH0 DUP3 ADD MLOAD DUP2 PUSH0 ADD SSTORE PUSH1 0x20 DUP3 ADD MLOAD DUP2 PUSH1 0x1 ADD SSTORE SWAP1 POP POP PUSH1 0x1 DUP3 PUSH2 0x154F SWAP2 SWAP1 PUSH2 0x2045 JUMP JUMPDEST PUSH1 0xB DUP2 SWAP1 SSTORE POP JUMPDEST POP POP JUMP JUMPDEST PUSH1 0x2 PUSH0 SLOAD SUB PUSH2 0x1595 JUMPI PUSH1 0x40 MLOAD PUSH32 0x3EE5AEB500000000000000000000000000000000000000000000000000000000 DUP2 MSTORE PUSH1 0x4 ADD PUSH1 0x40 MLOAD DUP1 SWAP2 SUB SWAP1 REVERT JUMPDEST PUSH1 0x2 PUSH0 DUP2 SWAP1 SSTORE POP JUMP JUMPDEST PUSH0 DUP2 SUB PUSH2 0x15D7 JUMPI PUSH1 0x40 MLOAD PUSH32 0x1F2A200500000000000000000000000000000000000000000000000000000000 DUP2 MSTORE PUSH1 0x4 ADD PUSH1 0x40 MLOAD DUP1 SWAP2 SUB SWAP1 REVERT JUMPDEST PUSH2 0x1604 DUP4 ADDRESS DUP4 DUP6 PUSH20 0xFFFFFFFFFFFFFFFFFFFFFFFFFFFFFFFFFFFFFFFF AND PUSH2 0x187F SWAP1 SWAP4 SWAP3 SWAP2 SWAP1 PUSH4 0xFFFFFFFF AND JUMP JUMPDEST PUSH0 PUSH2 0x160E TIMESTAMP PUSH2 0x128C JUMP JUMPDEST SWAP1 POP DUP2 PUSH1 0x4 PUSH0 DUP6 PUSH20 0xFFFFFFFFFFFFFFFFFFFFFFFFFFFFFFFFFFFFFFFF AND PUSH20 0xFFFFFFFFFFFFFFFFFFFFFFFFFFFFFFFFFFFFFFFF AND DUP2 MSTORE PUSH1 0x20 ADD SWAP1 DUP2 MSTORE PUSH1 0x20 ADD PUSH0 KECCAK256 PUSH0 DUP4 DUP2 MSTORE PUSH1 0x20 ADD SWAP1 DUP2 MSTORE PUSH1 0x20 ADD PUSH0 KECCAK256 PUSH0 DUP3 DUP3 SLOAD PUSH2 0x166B SWAP2 SWAP1 PUSH2 0x2045 JUMP JUMPDEST SWAP3 POP POP DUP2 SWAP1 SSTORE POP DUP1 DUP4 PUSH20 0xFFFFFFFFFFFFFFFFFFFFFFFFFFFFFFFFFFFFFFFF AND DUP6 PUSH20 0xFFFFFFFFFFFFFFFFFFFFFFFFFFFFFFFFFFFFFFFF AND PUSH32 0x52977EA98A2220A03EE9BA5CB003ADA08D394EA10155483C95DC2DC77A7EB24B DUP6 PUSH1 0x40 MLOAD PUSH2 0x16D0 SWAP2 SWAP1 PUSH2 0x1BDC JUMP JUMPDEST PUSH1 0x40 MLOAD DUP1 SWAP2 SUB SWAP1 LOG4 POP POP POP POP JUMP JUMPDEST PUSH1 0x1 PUSH0 DUP2 SWAP1 SSTORE POP JUMP JUMPDEST PUSH0 DUP2 MLOAD SWAP1 POP PUSH0 JUMPDEST DUP2 DUP2 LT ISZERO PUSH2 0x1869 JUMPI PUSH0 PUSH2 0x171B DUP5 DUP4 DUP2 MLOAD DUP2 LT PUSH2 0x170D JUMPI PUSH2 0x170C PUSH2 0x229C JUMP JUMPDEST JUMPDEST PUSH1 0x20 MUL PUSH1 0x20 ADD ADD MLOAD DUP7 PUSH2 0x52D JUMP JUMPDEST SWAP1 POP TIMESTAMP PUSH1 0x5 PUSH0 DUP7 DUP6 DUP2 MLOAD DUP2 LT PUSH2 0x1734 JUMPI PUSH2 0x1733 PUSH2 0x229C JUMP JUMPDEST JUMPDEST PUSH1 0x20 MUL PUSH1 0x20 ADD ADD MLOAD PUSH20 0xFFFFFFFFFFFFFFFFFFFFFFFFFFFFFFFFFFFFFFFF AND PUSH20 0xFFFFFFFFFFFFFFFFFFFFFFFFFFFFFFFFFFFFFFFF AND DUP2 MSTORE PUSH1 0x20 ADD SWAP1 DUP2 MSTORE PUSH1 0x20 ADD PUSH0 KECCAK256 PUSH0 DUP8 DUP2 MSTORE PUSH1 0x20 ADD SWAP1 DUP2 MSTORE PUSH1 0x20 ADD PUSH0 KECCAK256 DUP2 SWAP1 SSTORE POP PUSH0 DUP2 GT ISZERO PUSH2 0x17D6 JUMPI PUSH2 0x17D5 DUP7 DUP3 DUP7 DUP6 DUP2 MLOAD DUP2 LT PUSH2 0x17A8 JUMPI PUSH2 0x17A7 PUSH2 0x229C JUMP JUMPDEST JUMPDEST PUSH1 0x20 MUL PUSH1 0x20 ADD ADD MLOAD PUSH20 0xFFFFFFFFFFFFFFFFFFFFFFFFFFFFFFFFFFFFFFFF AND PUSH2 0x1901 SWAP1 SWAP3 SWAP2 SWAP1 PUSH4 0xFFFFFFFF AND JUMP JUMPDEST JUMPDEST DUP4 DUP3 DUP2 MLOAD DUP2 LT PUSH2 0x17E9 JUMPI PUSH2 0x17E8 PUSH2 0x229C JUMP JUMPDEST JUMPDEST PUSH1 0x20 MUL PUSH1 0x20 ADD ADD MLOAD PUSH20 0xFFFFFFFFFFFFFFFFFFFFFFFFFFFFFFFFFFFFFFFF AND DUP7 PUSH20 0xFFFFFFFFFFFFFFFFFFFFFFFFFFFFFFFFFFFFFFFF AND PUSH32 0x9AA05B3D70A9E3E2F004F039648839560576334FB45C81F91B6DB03AD9E2EFC9 DUP4 PUSH1 0x40 MLOAD PUSH2 0x184D SWAP2 SWAP1 PUSH2 0x1BDC JUMP JUMPDEST PUSH1 0x40 MLOAD DUP1 SWAP2 SUB SWAP1 LOG3 POP DUP1 DUP1 PUSH2 0x1861 SWAP1 PUSH2 0x20B9 JUMP JUMPDEST SWAP2 POP POP PUSH2 0x16EE JUMP JUMPDEST POP POP POP POP POP JUMP JUMPDEST PUSH0 PUSH1 0x14 SWAP1 POP SWAP1 JUMP JUMPDEST PUSH0 CALLER SWAP1 POP SWAP1 JUMP JUMPDEST PUSH2 0x18FB DUP5 DUP6 PUSH20 0xFFFFFFFFFFFFFFFFFFFFFFFFFFFFFFFFFFFFFFFF AND PUSH4 0x23B872DD DUP7 DUP7 DUP7 PUSH1 0x40 MLOAD PUSH1 0x24 ADD PUSH2 0x18B4 SWAP4 SWAP3 SWAP2 SWAP1 PUSH2 0x22C9 JUMP JUMPDEST PUSH1 0x40 MLOAD PUSH1 0x20 DUP2 DUP4 SUB SUB DUP2 MSTORE SWAP1 PUSH1 0x40 MSTORE SWAP2 POP PUSH1 0xE0 SHL PUSH1 0x20 DUP3 ADD DUP1 MLOAD PUSH28 0xFFFFFFFFFFFFFFFFFFFFFFFFFFFFFFFFFFFFFFFFFFFFFFFFFFFFFFFF DUP4 DUP2 DUP4 AND OR DUP4 MSTORE POP POP POP POP PUSH2 0x1980 JUMP JUMPDEST POP POP POP POP JUMP JUMPDEST PUSH2 0x197B DUP4 DUP5 PUSH20 0xFFFFFFFFFFFFFFFFFFFFFFFFFFFFFFFFFFFFFFFF AND PUSH4 0xA9059CBB DUP6 DUP6 PUSH1 0x40 MLOAD PUSH1 0x24 ADD PUSH2 0x1934 SWAP3 SWAP2 SWAP1 PUSH2 0x2155 JUMP JUMPDEST PUSH1 0x40 MLOAD PUSH1 0x20 DUP2 DUP4 SUB SUB DUP2 MSTORE SWAP1 PUSH1 0x40 MSTORE SWAP2 POP PUSH1 0xE0 SHL PUSH1 0x20 DUP3 ADD DUP1 MLOAD PUSH28 0xFFFFFFFFFFFFFFFFFFFFFFFFFFFFFFFFFFFFFFFFFFFFFFFFFFFFFFFF DUP4 DUP2 DUP4 AND OR DUP4 MSTORE POP POP POP POP PUSH2 0x1980 JUMP JUMPDEST POP POP POP JUMP JUMPDEST PUSH0 PUSH2 0x19AA DUP3 DUP5 PUSH20 0xFFFFFFFFFFFFFFFFFFFFFFFFFFFFFFFFFFFFFFFF AND PUSH2 0x1A15 SWAP1 SWAP2 SWAP1 PUSH4 0xFFFFFFFF AND JUMP JUMPDEST SWAP1 POP PUSH0 DUP2 MLOAD EQ ISZERO DUP1 ISZERO PUSH2 0x19CE JUMPI POP DUP1 DUP1 PUSH1 0x20 ADD SWAP1 MLOAD DUP2 ADD SWAP1 PUSH2 0x19CC SWAP2 SWAP1 PUSH2 0x212A JUMP JUMPDEST ISZERO JUMPDEST ISZERO PUSH2 0x1A10 JUMPI DUP3 PUSH1 0x40 MLOAD PUSH32 0x5274AFE700000000000000000000000000000000000000000000000000000000 DUP2 MSTORE PUSH1 0x4 ADD PUSH2 0x1A07 SWAP2 SWAP1 PUSH2 0x1C34 JUMP JUMPDEST PUSH1 0x40 MLOAD DUP1 SWAP2 SUB SWAP1 REVERT JUMPDEST POP POP POP JUMP JUMPDEST PUSH1 0x60 PUSH2 0x1A22 DUP4 DUP4 PUSH0 PUSH2 0x1A2A JUMP JUMPDEST SWAP1 POP SWAP3 SWAP2 POP POP JUMP JUMPDEST PUSH1 0x60 DUP2 SELFBALANCE LT ISZERO PUSH2 0x1A71 JUMPI ADDRESS PUSH1 0x40 MLOAD PUSH32 0xCD78605900000000000000000000000000000000000000000000000000000000 DUP2 MSTORE PUSH1 0x4 ADD PUSH2 0x1A68 SWAP2 SWAP1 PUSH2 0x1C34 JUMP JUMPDEST PUSH1 0x40 MLOAD DUP1 SWAP2 SUB SWAP1 REVERT JUMPDEST PUSH0 DUP1 DUP6 PUSH20 0xFFFFFFFFFFFFFFFFFFFFFFFFFFFFFFFFFFFFFFFF AND DUP5 DUP7 PUSH1 0x40 MLOAD PUSH2 0x1A99 SWAP2 SWAP1 PUSH2 0x236A JUMP JUMPDEST PUSH0 PUSH1 0x40 MLOAD DUP1 DUP4 SUB DUP2 DUP6 DUP8 GAS CALL SWAP3 POP POP POP RETURNDATASIZE DUP1 PUSH0 DUP2 EQ PUSH2 0x1AD3 JUMPI PUSH1 0x40 MLOAD SWAP2 POP PUSH1 0x1F NOT PUSH1 0x3F RETURNDATASIZE ADD AND DUP3 ADD PUSH1 0x40 MSTORE RETURNDATASIZE DUP3 MSTORE RETURNDATASIZE PUSH0 PUSH1 0x20 DUP5 ADD RETURNDATACOPY PUSH2 0x1AD8 JUMP JUMPDEST PUSH1 0x60 SWAP2 POP JUMPDEST POP SWAP2 POP SWAP2 POP PUSH2 0x1AE8 DUP7 DUP4 DUP4 PUSH2 0x1AF3 JUMP JUMPDEST SWAP3 POP POP POP SWAP4 SWAP3 POP POP POP JUMP JUMPDEST PUSH1 0x60 DUP3 PUSH2 0x1B08 JUMPI PUSH2 0x1B03 DUP3 PUSH2 0x1B80 JUMP JUMPDEST PUSH2 0x1B78 JUMP JUMPDEST PUSH0 DUP3 MLOAD EQ DUP1 ISZERO PUSH2 0x1B2E JUMPI POP PUSH0 DUP5 PUSH20 0xFFFFFFFFFFFFFFFFFFFFFFFFFFFFFFFFFFFFFFFF AND EXTCODESIZE EQ JUMPDEST ISZERO PUSH2 0x1B70 JUMPI DUP4 PUSH1 0x40 MLOAD PUSH32 0x9996B31500000000000000000000000000000000000000000000000000000000 DUP2 MSTORE PUSH1 0x4 ADD PUSH2 0x1B67 SWAP2 SWAP1 PUSH2 0x1C34 JUMP JUMPDEST PUSH1 0x40 MLOAD DUP1 SWAP2 SUB SWAP1 REVERT JUMPDEST DUP2 SWAP1 POP PUSH2 0x1B79 JUMP JUMPDEST JUMPDEST SWAP4 SWAP3 POP POP POP JUMP JUMPDEST PUSH0 DUP2 MLOAD GT ISZERO PUSH2 0x1B92 JUMPI DUP1 MLOAD DUP1 DUP3 PUSH1 0x20 ADD REVERT JUMPDEST PUSH1 0x40 MLOAD PUSH32 0x1425EA4200000000000000000000000000000000000000000000000000000000 DUP2 MSTORE PUSH1 0x4 ADD PUSH1 0x40 MLOAD DUP1 SWAP2 SUB SWAP1 REVERT JUMPDEST PUSH0 DUP2 SWAP1 POP SWAP2 SWAP1 POP JUMP JUMPDEST PUSH2 0x1BD6 DUP2 PUSH2 0x1BC4 JUMP JUMPDEST DUP3 MSTORE POP POP JUMP JUMPDEST PUSH0 PUSH1 0x20 DUP3 ADD SWAP1 POP PUSH2 0x1BEF PUSH0 DUP4 ADD DUP5 PUSH2 0x1BCD JUMP JUMPDEST SWAP3 SWAP2 POP POP JUMP JUMPDEST PUSH0 PUSH20 0xFFFFFFFFFFFFFFFFFFFFFFFFFFFFFFFFFFFFFFFF DUP3 AND SWAP1 POP SWAP2 SWAP1 POP JUMP JUMPDEST PUSH0 PUSH2 0x1C1E DUP3 PUSH2 0x1BF5 JUMP JUMPDEST SWAP1 POP SWAP2 SWAP1 POP JUMP JUMPDEST PUSH2 0x1C2E DUP2 PUSH2 0x1C14 JUMP JUMPDEST DUP3 MSTORE POP POP JUMP JUMPDEST PUSH0 PUSH1 0x20 DUP3 ADD SWAP1 POP PUSH2 0x1C47 PUSH0 DUP4 ADD DUP5 PUSH2 0x1C25 JUMP JUMPDEST SWAP3 SWAP2 POP POP JUMP JUMPDEST PUSH0 PUSH1 0x40 MLOAD SWAP1 POP SWAP1 JUMP JUMPDEST PUSH0 DUP1 REVERT JUMPDEST PUSH0 DUP1 REVERT JUMPDEST PUSH2 0x1C67 DUP2 PUSH2 0x1C14 JUMP JUMPDEST DUP2 EQ PUSH2 0x1C71 JUMPI PUSH0 DUP1 REVERT JUMPDEST POP JUMP JUMPDEST PUSH0 DUP2 CALLDATALOAD SWAP1 POP PUSH2 0x1C82 DUP2 PUSH2 0x1C5E JUMP JUMPDEST SWAP3 SWAP2 POP POP JUMP JUMPDEST PUSH2 0x1C91 DUP2 PUSH2 0x1BC4 JUMP JUMPDEST DUP2 EQ PUSH2 0x1C9B JUMPI PUSH0 DUP1 REVERT JUMPDEST POP JUMP JUMPDEST PUSH0 DUP2 CALLDATALOAD SWAP1 POP PUSH2 0x1CAC DUP2 PUSH2 0x1C88 JUMP JUMPDEST SWAP3 SWAP2 POP POP JUMP JUMPDEST PUSH0 DUP1 PUSH1 0x40 DUP4 DUP6 SUB SLT ISZERO PUSH2 0x1CC8 JUMPI PUSH2 0x1CC7 PUSH2 0x1C56 JUMP JUMPDEST JUMPDEST PUSH0 PUSH2 0x1CD5 DUP6 DUP3 DUP7 ADD PUSH2 0x1C74 JUMP JUMPDEST SWAP3 POP POP PUSH1 0x20 PUSH2 0x1CE6 DUP6 DUP3 DUP7 ADD PUSH2 0x1C9E JUMP JUMPDEST SWAP2 POP POP SWAP3 POP SWAP3 SWAP1 POP JUMP JUMPDEST PUSH0 DUP1 PUSH1 0x40 DUP4 DUP6 SUB SLT ISZERO PUSH2 0x1D06 JUMPI PUSH2 0x1D05 PUSH2 0x1C56 JUMP JUMPDEST JUMPDEST PUSH0 PUSH2 0x1D13 DUP6 DUP3 DUP7 ADD PUSH2 0x1C9E JUMP JUMPDEST SWAP3 POP POP PUSH1 0x20 PUSH2 0x1D24 DUP6 DUP3 DUP7 ADD PUSH2 0x1C9E JUMP JUMPDEST SWAP2 POP POP SWAP3 POP SWAP3 SWAP1 POP JUMP JUMPDEST PUSH0 PUSH1 0x40 DUP3 ADD SWAP1 POP PUSH2 0x1D41 PUSH0 DUP4 ADD DUP6 PUSH2 0x1BCD JUMP JUMPDEST PUSH2 0x1D4E PUSH1 0x20 DUP4 ADD DUP5 PUSH2 0x1BCD JUMP JUMPDEST SWAP4 SWAP3 POP POP POP JUMP JUMPDEST PUSH0 PUSH1 0x20 DUP3 DUP5 SUB SLT ISZERO PUSH2 0x1D6A JUMPI PUSH2 0x1D69 PUSH2 0x1C56 JUMP JUMPDEST JUMPDEST PUSH0 PUSH2 0x1D77 DUP5 DUP3 DUP6 ADD PUSH2 0x1C74 JUMP JUMPDEST SWAP2 POP POP SWAP3 SWAP2 POP POP JUMP JUMPDEST PUSH0 DUP2 ISZERO ISZERO SWAP1 POP SWAP2 SWAP1 POP JUMP JUMPDEST PUSH2 0x1D94 DUP2 PUSH2 0x1D80 JUMP JUMPDEST DUP3 MSTORE POP POP JUMP JUMPDEST PUSH0 PUSH1 0x20 DUP3 ADD SWAP1 POP PUSH2 0x1DAD PUSH0 DUP4 ADD DUP5 PUSH2 0x1D8B JUMP JUMPDEST SWAP3 SWAP2 POP POP JUMP JUMPDEST PUSH0 PUSH1 0x20 DUP3 DUP5 SUB SLT ISZERO PUSH2 0x1DC8 JUMPI PUSH2 0x1DC7 PUSH2 0x1C56 JUMP JUMPDEST JUMPDEST PUSH0 PUSH2 0x1DD5 DUP5 DUP3 DUP6 ADD PUSH2 0x1C9E JUMP JUMPDEST SWAP2 POP POP SWAP3 SWAP2 POP POP JUMP JUMPDEST PUSH0 DUP1 REVERT JUMPDEST PUSH0 PUSH1 0x1F NOT PUSH1 0x1F DUP4 ADD AND SWAP1 POP SWAP2 SWAP1 POP JUMP JUMPDEST PUSH32 0x4E487B7100000000000000000000000000000000000000000000000000000000 PUSH0 MSTORE PUSH1 0x41 PUSH1 0x4 MSTORE PUSH1 0x24 PUSH0 REVERT JUMPDEST PUSH2 0x1E28 DUP3 PUSH2 0x1DE2 JUMP JUMPDEST DUP2 ADD DUP2 DUP2 LT PUSH8 0xFFFFFFFFFFFFFFFF DUP3 GT OR ISZERO PUSH2 0x1E47 JUMPI PUSH2 0x1E46 PUSH2 0x1DF2 JUMP JUMPDEST JUMPDEST DUP1 PUSH1 0x40 MSTORE POP POP POP JUMP JUMPDEST PUSH0 PUSH2 0x1E59 PUSH2 0x1C4D JUMP JUMPDEST SWAP1 POP PUSH2 0x1E65 DUP3 DUP3 PUSH2 0x1E1F JUMP JUMPDEST SWAP2 SWAP1 POP JUMP JUMPDEST PUSH0 PUSH8 0xFFFFFFFFFFFFFFFF DUP3 GT ISZERO PUSH2 0x1E84 JUMPI PUSH2 0x1E83 PUSH2 0x1DF2 JUMP JUMPDEST JUMPDEST PUSH1 0x20 DUP3 MUL SWAP1 POP PUSH1 0x20 DUP2 ADD SWAP1 POP SWAP2 SWAP1 POP JUMP JUMPDEST PUSH0 DUP1 REVERT JUMPDEST PUSH0 PUSH2 0x1EAB PUSH2 0x1EA6 DUP5 PUSH2 0x1E6A JUMP JUMPDEST PUSH2 0x1E50 JUMP JUMPDEST SWAP1 POP DUP1 DUP4 DUP3 MSTORE PUSH1 0x20 DUP3 ADD SWAP1 POP PUSH1 0x20 DUP5 MUL DUP4 ADD DUP6 DUP2 GT ISZERO PUSH2 0x1ECE JUMPI PUSH2 0x1ECD PUSH2 0x1E95 JUMP JUMPDEST JUMPDEST DUP4 JUMPDEST DUP2 DUP2 LT ISZERO PUSH2 0x1EF7 JUMPI DUP1 PUSH2 0x1EE3 DUP9 DUP3 PUSH2 0x1C74 JUMP JUMPDEST DUP5 MSTORE PUSH1 0x20 DUP5 ADD SWAP4 POP POP PUSH1 0x20 DUP2 ADD SWAP1 POP PUSH2 0x1ED0 JUMP JUMPDEST POP POP POP SWAP4 SWAP3 POP POP POP JUMP JUMPDEST PUSH0 DUP3 PUSH1 0x1F DUP4 ADD SLT PUSH2 0x1F15 JUMPI PUSH2 0x1F14 PUSH2 0x1DDE JUMP JUMPDEST JUMPDEST DUP2 CALLDATALOAD PUSH2 0x1F25 DUP5 DUP3 PUSH1 0x20 DUP7 ADD PUSH2 0x1E99 JUMP JUMPDEST SWAP2 POP POP SWAP3 SWAP2 POP POP JUMP JUMPDEST PUSH0 DUP1 PUSH1 0x40 DUP4 DUP6 SUB SLT ISZERO PUSH2 0x1F44 JUMPI PUSH2 0x1F43 PUSH2 0x1C56 JUMP JUMPDEST JUMPDEST PUSH0 PUSH2 0x1F51 DUP6 DUP3 DUP7 ADD PUSH2 0x1C9E JUMP JUMPDEST SWAP3 POP POP PUSH1 0x20 DUP4 ADD CALLDATALOAD PUSH8 0xFFFFFFFFFFFFFFFF DUP2 GT ISZERO PUSH2 0x1F72 JUMPI PUSH2 0x1F71 PUSH2 0x1C5A JUMP JUMPDEST JUMPDEST PUSH2 0x1F7E DUP6 DUP3 DUP7 ADD PUSH2 0x1F01 JUMP JUMPDEST SWAP2 POP POP SWAP3 POP SWAP3 SWAP1 POP JUMP JUMPDEST PUSH32 0x4E487B7100000000000000000000000000000000000000000000000000000000 PUSH0 MSTORE PUSH1 0x11 PUSH1 0x4 MSTORE PUSH1 0x24 PUSH0 REVERT JUMPDEST PUSH0 PUSH2 0x1FBF DUP3 PUSH2 0x1BC4 JUMP JUMPDEST SWAP2 POP PUSH2 0x1FCA DUP4 PUSH2 0x1BC4 JUMP JUMPDEST SWAP3 POP DUP3 DUP3 SUB SWAP1 POP DUP2 DUP2 GT ISZERO PUSH2 0x1FE2 JUMPI PUSH2 0x1FE1 PUSH2 0x1F88 JUMP JUMPDEST JUMPDEST SWAP3 SWAP2 POP POP JUMP JUMPDEST PUSH32 0x4E487B7100000000000000000000000000000000000000000000000000000000 PUSH0 MSTORE PUSH1 0x12 PUSH1 0x4 MSTORE PUSH1 0x24 PUSH0 REVERT JUMPDEST PUSH0 PUSH2 0x201F DUP3 PUSH2 0x1BC4 JUMP JUMPDEST SWAP2 POP PUSH2 0x202A DUP4 PUSH2 0x1BC4 JUMP JUMPDEST SWAP3 POP DUP3 PUSH2 0x203A JUMPI PUSH2 0x2039 PUSH2 0x1FE8 JUMP JUMPDEST JUMPDEST DUP3 DUP3 DIV SWAP1 POP SWAP3 SWAP2 POP POP JUMP JUMPDEST PUSH0 PUSH2 0x204F DUP3 PUSH2 0x1BC4 JUMP JUMPDEST SWAP2 POP PUSH2 0x205A DUP4 PUSH2 0x1BC4 JUMP JUMPDEST SWAP3 POP DUP3 DUP3 ADD SWAP1 POP DUP1 DUP3 GT ISZERO PUSH2 0x2072 JUMPI PUSH2 0x2071 PUSH2 0x1F88 JUMP JUMPDEST JUMPDEST SWAP3 SWAP2 POP POP JUMP JUMPDEST PUSH0 PUSH2 0x2082 DUP3 PUSH2 0x1BC4 JUMP JUMPDEST SWAP2 POP PUSH2 0x208D DUP4 PUSH2 0x1BC4 JUMP JUMPDEST SWAP3 POP DUP3 DUP3 MUL PUSH2 0x209B DUP2 PUSH2 0x1BC4 JUMP JUMPDEST SWAP2 POP DUP3 DUP3 DIV DUP5 EQ DUP4 ISZERO OR PUSH2 0x20B2 JUMPI PUSH2 0x20B1 PUSH2 0x1F88 JUMP JUMPDEST JUMPDEST POP SWAP3 SWAP2 POP POP JUMP JUMPDEST PUSH0 PUSH2 0x20C3 DUP3 PUSH2 0x1BC4 JUMP JUMPDEST SWAP2 POP PUSH32 0xFFFFFFFFFFFFFFFFFFFFFFFFFFFFFFFFFFFFFFFFFFFFFFFFFFFFFFFFFFFFFFFF DUP3 SUB PUSH2 0x20F5 JUMPI PUSH2 0x20F4 PUSH2 0x1F88 JUMP JUMPDEST JUMPDEST PUSH1 0x1 DUP3 ADD SWAP1 POP SWAP2 SWAP1 POP JUMP JUMPDEST PUSH2 0x2109 DUP2 PUSH2 0x1D80 JUMP JUMPDEST DUP2 EQ PUSH2 0x2113 JUMPI PUSH0 DUP1 REVERT JUMPDEST POP JUMP JUMPDEST PUSH0 DUP2 MLOAD SWAP1 POP PUSH2 0x2124 DUP2 PUSH2 0x2100 JUMP JUMPDEST SWAP3 SWAP2 POP POP JUMP JUMPDEST PUSH0 PUSH1 0x20 DUP3 DUP5 SUB SLT ISZERO PUSH2 0x213F JUMPI PUSH2 0x213E PUSH2 0x1C56 JUMP JUMPDEST JUMPDEST PUSH0 PUSH2 0x214C DUP5 DUP3 DUP6 ADD PUSH2 0x2116 JUMP JUMPDEST SWAP2 POP POP SWAP3 SWAP2 POP POP JUMP JUMPDEST PUSH0 PUSH1 0x40 DUP3 ADD SWAP1 POP PUSH2 0x2168 PUSH0 DUP4 ADD DUP6 PUSH2 0x1C25 JUMP JUMPDEST PUSH2 0x2175 PUSH1 0x20 DUP4 ADD DUP5 PUSH2 0x1BCD JUMP JUMPDEST SWAP4 SWAP3 POP POP POP JUMP JUMPDEST PUSH0 DUP2 MLOAD SWAP1 POP PUSH2 0x218A DUP2 PUSH2 0x1C5E JUMP JUMPDEST SWAP3 SWAP2 POP POP JUMP JUMPDEST PUSH0 PUSH1 0x20 DUP3 DUP5 SUB SLT ISZERO PUSH2 0x21A5 JUMPI PUSH2 0x21A4 PUSH2 0x1C56 JUMP JUMPDEST JUMPDEST PUSH0 PUSH2 0x21B2 DUP5 DUP3 DUP6 ADD PUSH2 0x217C JUMP JUMPDEST SWAP2 POP POP SWAP3 SWAP2 POP POP JUMP JUMPDEST PUSH0 DUP1 REVERT JUMPDEST PUSH0 DUP1 REVERT JUMPDEST PUSH0 DUP1 DUP6 DUP6 GT ISZERO PUSH2 0x21D6 JUMPI PUSH2 0x21D5 PUSH2 0x21BB JUMP JUMPDEST JUMPDEST DUP4 DUP7 GT ISZERO PUSH2 0x21E7 JUMPI PUSH2 0x21E6 PUSH2 0x21BF JUMP JUMPDEST JUMPDEST PUSH1 0x1 DUP6 MUL DUP4 ADD SWAP2 POP DUP5 DUP7 SUB SWAP1 POP SWAP5 POP SWAP5 SWAP3 POP POP POP JUMP JUMPDEST PUSH0 DUP3 SWAP1 POP SWAP3 SWAP2 POP POP JUMP JUMPDEST PUSH0 PUSH32 0xFFFFFFFFFFFFFFFFFFFFFFFFFFFFFFFFFFFFFFFF000000000000000000000000 DUP3 AND SWAP1 POP SWAP2 SWAP1 POP JUMP JUMPDEST PUSH0 DUP3 DUP3 SHL SWAP1 POP SWAP3 SWAP2 POP POP JUMP JUMPDEST PUSH0 PUSH2 0x2249 DUP4 DUP4 PUSH2 0x21FD JUMP JUMPDEST DUP3 PUSH2 0x2254 DUP2 CALLDATALOAD PUSH2 0x2207 JUMP JUMPDEST SWAP3 POP PUSH1 0x14 DUP3 LT ISZERO PUSH2 0x2294 JUMPI PUSH2 0x228F PUSH32 0xFFFFFFFFFFFFFFFFFFFFFFFFFFFFFFFFFFFFFFFF000000000000000000000000 DUP4 PUSH1 0x14 SUB PUSH1 0x8 MUL PUSH2 0x2232 JUMP JUMPDEST DUP4 AND SWAP3 POP JUMPDEST POP POP SWAP3 SWAP2 POP POP JUMP JUMPDEST PUSH32 0x4E487B7100000000000000000000000000000000000000000000000000000000 PUSH0 MSTORE PUSH1 0x32 PUSH1 0x4 MSTORE PUSH1 0x24 PUSH0 REVERT JUMPDEST PUSH0 PUSH1 0x60 DUP3 ADD SWAP1 POP PUSH2 0x22DC PUSH0 DUP4 ADD DUP7 PUSH2 0x1C25 JUMP JUMPDEST PUSH2 0x22E9 PUSH1 0x20 DUP4 ADD DUP6 PUSH2 0x1C25 JUMP JUMPDEST PUSH2 0x22F6 PUSH1 0x40 DUP4 ADD DUP5 PUSH2 0x1BCD JUMP JUMPDEST SWAP5 SWAP4 POP POP POP POP JUMP JUMPDEST PUSH0 DUP2 MLOAD SWAP1 POP SWAP2 SWAP1 POP JUMP JUMPDEST PUSH0 DUP2 SWAP1 POP SWAP3 SWAP2 POP POP JUMP JUMPDEST PUSH0 JUMPDEST DUP4 DUP2 LT ISZERO PUSH2 0x232F JUMPI DUP1 DUP3 ADD MLOAD DUP2 DUP5 ADD MSTORE PUSH1 0x20 DUP2 ADD SWAP1 POP PUSH2 0x2314 JUMP JUMPDEST PUSH0 DUP5 DUP5 ADD MSTORE POP POP POP POP JUMP JUMPDEST PUSH0 PUSH2 0x2344 DUP3 PUSH2 0x22FE JUMP JUMPDEST PUSH2 0x234E DUP2 DUP6 PUSH2 0x2308 JUMP JUMPDEST SWAP4 POP PUSH2 0x235E DUP2 DUP6 PUSH1 0x20 DUP7 ADD PUSH2 0x2312 JUMP JUMPDEST DUP1 DUP5 ADD SWAP2 POP POP SWAP3 SWAP2 POP POP JUMP JUMPDEST PUSH0 PUSH2 0x2375 DUP3 DUP5 PUSH2 0x233A JUMP JUMPDEST SWAP2 POP DUP2 SWAP1 POP SWAP3 SWAP2 POP POP JUMP INVALID LOG2 PUSH5 0x6970667358 0x22 SLT KECCAK256 0x5C 0x4F INVALID CREATE2 0xF8 0xA5 XOR PUSH5 0x60525A82D1 0x4F 0xC4 0xA9 0xE2 0xBF LT 0xEA SGT LOG2 0x2F GAS CALLCODE SWAP2 0x2A BASEFEE DUP14 DUP5 STOP 0xBC PUSH5 0x736F6C6343 STOP ADDMOD EQ STOP CALLER LOG2 PUSH5 0x6970667358 0x22 SLT KECCAK256 PREVRANDAO SAR DUP14 DUP12 MOD 0x28 PUSH8 0xFFF729623555702C 0xD0 0xE CALLDATALOAD PUSH12 0x7B95ABCA3E7F69FD4773BDD5 DUP16 PUSH5 0x736F6C6343 STOP ADDMOD EQ STOP CALLER "
		},
		"gasEstimates": {
			"creation": {
				"codeDepositCost": "4549400",
				"executionCost": "5302",
				"totalCost": "4554702"
			},
			"external": {
				"createRewards(address,address[])": "infinite"
			}
		},
		"methodIdentifiers": {
			"createRewards(address,address[])": "4c455a97"
		}
	},
	"abi": [
		{
			"inputs": [
				{
					"internalType": "address",
					"name": "_forwarder",
					"type": "address"
				},
				{
					"internalType": "address[]",
					"name": "_rewards",
					"type": "address[]"
				}
			],
			"name": "createRewards",
			"outputs": [
				{
					"internalType": "address",
					"name": "feesVotingReward",
					"type": "address"
				},
				{
					"internalType": "address",
					"name": "bribeVotingReward",
					"type": "address"
				}
			],
			"stateMutability": "nonpayable",
			"type": "function"
		}
	]
}