{
	"contracts/aerodrome/factories/PoolFactory.sol": {
		"PoolFactory": {
			"abi": [
				{
					"inputs": [
						{
							"internalType": "address",
							"name": "_implementation",
							"type": "address"
						}
					],
					"stateMutability": "nonpayable",
					"type": "constructor"
				},
				{
					"inputs": [],
					"name": "ERC1167FailedCreateClone",
					"type": "error"
				},
				{
					"inputs": [],
					"name": "FeeInvalid",
					"type": "error"
				},
				{
					"inputs": [],
					"name": "FeeTooHigh",
					"type": "error"
				},
				{
					"inputs": [],
					"name": "InvalidPool",
					"type": "error"
				},
				{
					"inputs": [],
					"name": "NotFeeManager",
					"type": "error"
				},
				{
					"inputs": [],
					"name": "NotPauser",
					"type": "error"
				},
				{
					"inputs": [],
					"name": "NotVoter",
					"type": "error"
				},
				{
					"inputs": [],
					"name": "PoolAlreadyExists",
					"type": "error"
				},
				{
					"inputs": [],
					"name": "SameAddress",
					"type": "error"
				},
				{
					"inputs": [],
					"name": "ZeroAddress",
					"type": "error"
				},
				{
					"inputs": [],
					"name": "ZeroFee",
					"type": "error"
				},
				{
					"anonymous": false,
					"inputs": [
						{
							"indexed": true,
							"internalType": "address",
							"name": "token0",
							"type": "address"
						},
						{
							"indexed": true,
							"internalType": "address",
							"name": "token1",
							"type": "address"
						},
						{
							"indexed": true,
							"internalType": "bool",
							"name": "stable",
							"type": "bool"
						},
						{
							"indexed": false,
							"internalType": "address",
							"name": "pool",
							"type": "address"
						},
						{
							"indexed": false,
							"internalType": "uint256",
							"name": "",
							"type": "uint256"
						}
					],
					"name": "PoolCreated",
					"type": "event"
				},
				{
					"anonymous": false,
					"inputs": [
						{
							"indexed": true,
							"internalType": "address",
							"name": "pool",
							"type": "address"
						},
						{
							"indexed": false,
							"internalType": "uint256",
							"name": "fee",
							"type": "uint256"
						}
					],
					"name": "SetCustomFee",
					"type": "event"
				},
				{
					"anonymous": false,
					"inputs": [
						{
							"indexed": false,
							"internalType": "address",
							"name": "feeManager",
							"type": "address"
						}
					],
					"name": "SetFeeManager",
					"type": "event"
				},
				{
					"anonymous": false,
					"inputs": [
						{
							"indexed": false,
							"internalType": "bool",
							"name": "state",
							"type": "bool"
						}
					],
					"name": "SetPauseState",
					"type": "event"
				},
				{
					"anonymous": false,
					"inputs": [
						{
							"indexed": false,
							"internalType": "address",
							"name": "pauser",
							"type": "address"
						}
					],
					"name": "SetPauser",
					"type": "event"
				},
				{
					"anonymous": false,
					"inputs": [
						{
							"indexed": false,
							"internalType": "address",
							"name": "voter",
							"type": "address"
						}
					],
					"name": "SetVoter",
					"type": "event"
				},
				{
					"inputs": [],
					"name": "MAX_FEE",
					"outputs": [
						{
							"internalType": "uint256",
							"name": "",
							"type": "uint256"
						}
					],
					"stateMutability": "view",
					"type": "function"
				},
				{
					"inputs": [],
					"name": "ZERO_FEE_INDICATOR",
					"outputs": [
						{
							"internalType": "uint256",
							"name": "",
							"type": "uint256"
						}
					],
					"stateMutability": "view",
					"type": "function"
				},
				{
					"inputs": [
						{
							"internalType": "uint256",
							"name": "",
							"type": "uint256"
						}
					],
					"name": "allPools",
					"outputs": [
						{
							"internalType": "address",
							"name": "",
							"type": "address"
						}
					],
					"stateMutability": "view",
					"type": "function"
				},
				{
					"inputs": [],
					"name": "allPoolsLength",
					"outputs": [
						{
							"internalType": "uint256",
							"name": "",
							"type": "uint256"
						}
					],
					"stateMutability": "view",
					"type": "function"
				},
				{
					"inputs": [
						{
							"internalType": "address",
							"name": "tokenA",
							"type": "address"
						},
						{
							"internalType": "address",
							"name": "tokenB",
							"type": "address"
						},
						{
							"internalType": "bool",
							"name": "stable",
							"type": "bool"
						}
					],
					"name": "createPool",
					"outputs": [
						{
							"internalType": "address",
							"name": "pool",
							"type": "address"
						}
					],
					"stateMutability": "nonpayable",
					"type": "function"
				},
				{
					"inputs": [
						{
							"internalType": "address",
							"name": "tokenA",
							"type": "address"
						},
						{
							"internalType": "address",
							"name": "tokenB",
							"type": "address"
						},
						{
							"internalType": "uint24",
							"name": "fee",
							"type": "uint24"
						}
					],
					"name": "createPool",
					"outputs": [
						{
							"internalType": "address",
							"name": "pool",
							"type": "address"
						}
					],
					"stateMutability": "nonpayable",
					"type": "function"
				},
				{
					"inputs": [
						{
							"internalType": "address",
							"name": "",
							"type": "address"
						}
					],
					"name": "customFee",
					"outputs": [
						{
							"internalType": "uint256",
							"name": "",
							"type": "uint256"
						}
					],
					"stateMutability": "view",
					"type": "function"
				},
				{
					"inputs": [],
					"name": "feeManager",
					"outputs": [
						{
							"internalType": "address",
							"name": "",
							"type": "address"
						}
					],
					"stateMutability": "view",
					"type": "function"
				},
				{
					"inputs": [
						{
							"internalType": "address",
							"name": "pool",
							"type": "address"
						},
						{
							"internalType": "bool",
							"name": "_stable",
							"type": "bool"
						}
					],
					"name": "getFee",
					"outputs": [
						{
							"internalType": "uint256",
							"name": "",
							"type": "uint256"
						}
					],
					"stateMutability": "view",
					"type": "function"
				},
				{
					"inputs": [
						{
							"internalType": "address",
							"name": "tokenA",
							"type": "address"
						},
						{
							"internalType": "address",
							"name": "tokenB",
							"type": "address"
						},
						{
							"internalType": "uint24",
							"name": "fee",
							"type": "uint24"
						}
					],
					"name": "getPool",
					"outputs": [
						{
							"internalType": "address",
							"name": "",
							"type": "address"
						}
					],
					"stateMutability": "view",
					"type": "function"
				},
				{
					"inputs": [
						{
							"internalType": "address",
							"name": "tokenA",
							"type": "address"
						},
						{
							"internalType": "address",
							"name": "tokenB",
							"type": "address"
						},
						{
							"internalType": "bool",
							"name": "stable",
							"type": "bool"
						}
					],
					"name": "getPool",
					"outputs": [
						{
							"internalType": "address",
							"name": "",
							"type": "address"
						}
					],
					"stateMutability": "view",
					"type": "function"
				},
				{
					"inputs": [],
					"name": "implementation",
					"outputs": [
						{
							"internalType": "address",
							"name": "",
							"type": "address"
						}
					],
					"stateMutability": "view",
					"type": "function"
				},
				{
					"inputs": [],
					"name": "isPaused",
					"outputs": [
						{
							"internalType": "bool",
							"name": "",
							"type": "bool"
						}
					],
					"stateMutability": "view",
					"type": "function"
				},
				{
					"inputs": [
						{
							"internalType": "address",
							"name": "pool",
							"type": "address"
						}
					],
					"name": "isPool",
					"outputs": [
						{
							"internalType": "bool",
							"name": "",
							"type": "bool"
						}
					],
					"stateMutability": "view",
					"type": "function"
				},
				{
					"inputs": [],
					"name": "pauser",
					"outputs": [
						{
							"internalType": "address",
							"name": "",
							"type": "address"
						}
					],
					"stateMutability": "view",
					"type": "function"
				},
				{
					"inputs": [
						{
							"internalType": "address",
							"name": "pool",
							"type": "address"
						},
						{
							"internalType": "uint256",
							"name": "fee",
							"type": "uint256"
						}
					],
					"name": "setCustomFee",
					"outputs": [],
					"stateMutability": "nonpayable",
					"type": "function"
				},
				{
					"inputs": [
						{
							"internalType": "bool",
							"name": "_stable",
							"type": "bool"
						},
						{
							"internalType": "uint256",
							"name": "_fee",
							"type": "uint256"
						}
					],
					"name": "setFee",
					"outputs": [],
					"stateMutability": "nonpayable",
					"type": "function"
				},
				{
					"inputs": [
						{
							"internalType": "address",
							"name": "_feeManager",
							"type": "address"
						}
					],
					"name": "setFeeManager",
					"outputs": [],
					"stateMutability": "nonpayable",
					"type": "function"
				},
				{
					"inputs": [
						{
							"internalType": "bool",
							"name": "_state",
							"type": "bool"
						}
					],
					"name": "setPauseState",
					"outputs": [],
					"stateMutability": "nonpayable",
					"type": "function"
				},
				{
					"inputs": [
						{
							"internalType": "address",
							"name": "_pauser",
							"type": "address"
						}
					],
					"name": "setPauser",
					"outputs": [],
					"stateMutability": "nonpayable",
					"type": "function"
				},
				{
					"inputs": [
						{
							"internalType": "address",
							"name": "_voter",
							"type": "address"
						}
					],
					"name": "setVoter",
					"outputs": [],
					"stateMutability": "nonpayable",
					"type": "function"
				},
				{
					"inputs": [],
					"name": "stableFee",
					"outputs": [
						{
							"internalType": "uint256",
							"name": "",
							"type": "uint256"
						}
					],
					"stateMutability": "view",
					"type": "function"
				},
				{
					"inputs": [],
					"name": "volatileFee",
					"outputs": [
						{
							"internalType": "uint256",
							"name": "",
							"type": "uint256"
						}
					],
					"stateMutability": "view",
					"type": "function"
				},
				{
					"inputs": [],
					"name": "voter",
					"outputs": [
						{
							"internalType": "address",
							"name": "",
							"type": "address"
						}
					],
					"stateMutability": "view",
					"type": "function"
				}
			],
			"devdoc": {
				"errors": {
					"ERC1167FailedCreateClone()": [
						{
							"details": "A clone instance deployment failed."
						}
					]
				},
				"kind": "dev",
				"methods": {
					"createPool(address,address,bool)": {
						"details": "token order does not matter",
						"params": {
							"stable": ".",
							"tokenA": ".",
							"tokenB": "."
						}
					},
					"createPool(address,address,uint24)": {
						"details": "fee is converted to stable booleantoken order does not matter",
						"params": {
							"fee": "1 if stable, 0 if volatile, else revert",
							"tokenA": ".",
							"tokenB": "."
						}
					},
					"getPool(address,address,bool)": {
						"params": {
							"stable": "True if stable, false if volatile",
							"tokenA": ".",
							"tokenB": "."
						}
					},
					"getPool(address,address,uint24)": {
						"details": "fee is converted to stable boolean.",
						"params": {
							"fee": "1 if stable, 0 if volatile, else returns address(0)",
							"tokenA": ".",
							"tokenB": "."
						}
					},
					"isPool(address)": {
						"params": {
							"": "."
						}
					},
					"setCustomFee(address,uint256)": {
						"details": "A custom fee of zero means the default fee will be used."
					},
					"setFee(bool,uint256)": {
						"details": "Throws if higher than maximum fee.      Throws if fee is zero.",
						"params": {
							"_fee": ".",
							"_stable": "Stable or volatile pool."
						}
					},
					"setVoter(address)": {
						"details": "Only called once to set to Voter.sol - Voter does not have a function      to call this contract method, so once set it's immutable.      This also follows convention of setVoterAndDistributor() in VotingEscrow.sol",
						"params": {
							"_voter": "."
						}
					}
				},
				"stateVariables": {
					"voter": {
						"details": "used to change the name/symbol of the pool by calling emergencyCouncil"
					}
				},
				"version": 1
			},
			"evm": {
				"assembly": "    /* \"contracts/aerodrome/factories/PoolFactory.sol\":246:5317  contract PoolFactory is IPoolFactory {... */\n  mstore(0x40, 0xa0)\n    /* \"contracts/aerodrome/factories/PoolFactory.sol\":1267:1535  constructor(address _implementation) {... */\n  callvalue\n  dup1\n  iszero\n  tag_1\n  jumpi\n  0x00\n  dup1\n  revert\ntag_1:\n  pop\n  mload(0x40)\n  sub(codesize, bytecodeSize)\n  dup1\n  bytecodeSize\n  dup4\n  codecopy\n  dup2\n  dup2\n  add\n  0x40\n  mstore\n  dup2\n  add\n  swap1\n  tag_2\n  swap2\n  swap1\n  tag_3\n  jump\t// in\ntag_2:\n    /* \"contracts/aerodrome/factories/PoolFactory.sol\":1331:1346  _implementation */\n  dup1\n    /* \"contracts/aerodrome/factories/PoolFactory.sol\":1314:1346  implementation = _implementation */\n  0xffffffffffffffffffffffffffffffffffffffff\n  and\n  0x80\n  dup2\n  0xffffffffffffffffffffffffffffffffffffffff\n  and\n  dup2\n  mstore\n  pop\n  pop\n    /* \"contracts/aerodrome/factories/PoolFactory.sol\":1364:1374  msg.sender */\n  caller\n    /* \"contracts/aerodrome/factories/PoolFactory.sol\":1356:1361  voter */\n  0x04\n  0x00\n    /* \"contracts/aerodrome/factories/PoolFactory.sol\":1356:1374  voter = msg.sender */\n  0x0100\n  exp\n  dup2\n  sload\n  dup2\n  0xffffffffffffffffffffffffffffffffffffffff\n  mul\n  not\n  and\n  swap1\n  dup4\n  0xffffffffffffffffffffffffffffffffffffffff\n  and\n  mul\n  or\n  swap1\n  sstore\n  pop\n    /* \"contracts/aerodrome/factories/PoolFactory.sol\":1393:1403  msg.sender */\n  caller\n    /* \"contracts/aerodrome/factories/PoolFactory.sol\":1384:1390  pauser */\n  0x00\n  0x01\n    /* \"contracts/aerodrome/factories/PoolFactory.sol\":1384:1403  pauser = msg.sender */\n  0x0100\n  exp\n  dup2\n  sload\n  dup2\n  0xffffffffffffffffffffffffffffffffffffffff\n  mul\n  not\n  and\n  swap1\n  dup4\n  0xffffffffffffffffffffffffffffffffffffffff\n  and\n  mul\n  or\n  swap1\n  sstore\n  pop\n    /* \"contracts/aerodrome/factories/PoolFactory.sol\":1426:1436  msg.sender */\n  caller\n    /* \"contracts/aerodrome/factories/PoolFactory.sol\":1413:1423  feeManager */\n  0x03\n  0x00\n    /* \"contracts/aerodrome/factories/PoolFactory.sol\":1413:1436  feeManager = msg.sender */\n  0x0100\n  exp\n  dup2\n  sload\n  dup2\n  0xffffffffffffffffffffffffffffffffffffffff\n  mul\n  not\n  and\n  swap1\n  dup4\n  0xffffffffffffffffffffffffffffffffffffffff\n  and\n  mul\n  or\n  swap1\n  sstore\n  pop\n    /* \"contracts/aerodrome/factories/PoolFactory.sol\":1457:1462  false */\n  0x00\n    /* \"contracts/aerodrome/factories/PoolFactory.sol\":1446:1454  isPaused */\n  dup1\n  0x00\n    /* \"contracts/aerodrome/factories/PoolFactory.sol\":1446:1462  isPaused = false */\n  0x0100\n  exp\n  dup2\n  sload\n  dup2\n  0xff\n  mul\n  not\n  and\n  swap1\n  dup4\n  iszero\n  iszero\n  mul\n  or\n  swap1\n  sstore\n  pop\n    /* \"contracts/aerodrome/factories/PoolFactory.sol\":1484:1485  5 */\n  0x05\n    /* \"contracts/aerodrome/factories/PoolFactory.sol\":1472:1481  stableFee */\n  0x01\n    /* \"contracts/aerodrome/factories/PoolFactory.sol\":1472:1485  stableFee = 5 */\n  dup2\n  swap1\n  sstore\n  pop\n    /* \"contracts/aerodrome/factories/PoolFactory.sol\":1518:1520  30 */\n  0x1e\n    /* \"contracts/aerodrome/factories/PoolFactory.sol\":1504:1515  volatileFee */\n  0x02\n    /* \"contracts/aerodrome/factories/PoolFactory.sol\":1504:1520  volatileFee = 30 */\n  dup2\n  swap1\n  sstore\n  pop\n    /* \"contracts/aerodrome/factories/PoolFactory.sol\":1267:1535  constructor(address _implementation) {... */\n  pop\n    /* \"contracts/aerodrome/factories/PoolFactory.sol\":246:5317  contract PoolFactory is IPoolFactory {... */\n  jump(tag_6)\n    /* \"#utility.yul\":88:205   */\ntag_8:\n    /* \"#utility.yul\":197:198   */\n  0x00\n    /* \"#utility.yul\":194:195   */\n  dup1\n    /* \"#utility.yul\":187:199   */\n  revert\n    /* \"#utility.yul\":334:460   */\ntag_10:\n    /* \"#utility.yul\":371:378   */\n  0x00\n    /* \"#utility.yul\":411:453   */\n  0xffffffffffffffffffffffffffffffffffffffff\n    /* \"#utility.yul\":404:409   */\n  dup3\n    /* \"#utility.yul\":400:454   */\n  and\n    /* \"#utility.yul\":389:454   */\n  swap1\n  pop\n    /* \"#utility.yul\":334:460   */\n  swap2\n  swap1\n  pop\n  jump\t// out\n    /* \"#utility.yul\":466:562   */\ntag_11:\n    /* \"#utility.yul\":503:510   */\n  0x00\n    /* \"#utility.yul\":532:556   */\n  tag_20\n    /* \"#utility.yul\":550:555   */\n  dup3\n    /* \"#utility.yul\":532:556   */\n  tag_10\n  jump\t// in\ntag_20:\n    /* \"#utility.yul\":521:556   */\n  swap1\n  pop\n    /* \"#utility.yul\":466:562   */\n  swap2\n  swap1\n  pop\n  jump\t// out\n    /* \"#utility.yul\":568:690   */\ntag_12:\n    /* \"#utility.yul\":641:665   */\n  tag_22\n    /* \"#utility.yul\":659:664   */\n  dup2\n    /* \"#utility.yul\":641:665   */\n  tag_11\n  jump\t// in\ntag_22:\n    /* \"#utility.yul\":634:639   */\n  dup2\n    /* \"#utility.yul\":631:666   */\n  eq\n    /* \"#utility.yul\":621:684   */\n  tag_23\n  jumpi\n    /* \"#utility.yul\":680:681   */\n  0x00\n    /* \"#utility.yul\":677:678   */\n  dup1\n    /* \"#utility.yul\":670:682   */\n  revert\n    /* \"#utility.yul\":621:684   */\ntag_23:\n    /* \"#utility.yul\":568:690   */\n  pop\n  jump\t// out\n    /* \"#utility.yul\":696:839   */\ntag_13:\n    /* \"#utility.yul\":753:758   */\n  0x00\n    /* \"#utility.yul\":784:790   */\n  dup2\n    /* \"#utility.yul\":778:791   */\n  mload\n    /* \"#utility.yul\":769:791   */\n  swap1\n  pop\n    /* \"#utility.yul\":800:833   */\n  tag_25\n    /* \"#utility.yul\":827:832   */\n  dup2\n    /* \"#utility.yul\":800:833   */\n  tag_12\n  jump\t// in\ntag_25:\n    /* \"#utility.yul\":696:839   */\n  swap3\n  swap2\n  pop\n  pop\n  jump\t// out\n    /* \"#utility.yul\":845:1196   */\ntag_3:\n    /* \"#utility.yul\":915:921   */\n  0x00\n    /* \"#utility.yul\":964:966   */\n  0x20\n    /* \"#utility.yul\":952:961   */\n  dup3\n    /* \"#utility.yul\":943:950   */\n  dup5\n    /* \"#utility.yul\":939:962   */\n  sub\n    /* \"#utility.yul\":935:967   */\n  slt\n    /* \"#utility.yul\":932:1051   */\n  iszero\n  tag_27\n  jumpi\n    /* \"#utility.yul\":970:1049   */\n  tag_28\n  tag_8\n  jump\t// in\ntag_28:\n    /* \"#utility.yul\":932:1051   */\ntag_27:\n    /* \"#utility.yul\":1090:1091   */\n  0x00\n    /* \"#utility.yul\":1115:1179   */\n  tag_29\n    /* \"#utility.yul\":1171:1178   */\n  dup5\n    /* \"#utility.yul\":1162:1168   */\n  dup3\n    /* \"#utility.yul\":1151:1160   */\n  dup6\n    /* \"#utility.yul\":1147:1169   */\n  add\n    /* \"#utility.yul\":1115:1179   */\n  tag_13\n  jump\t// in\ntag_29:\n    /* \"#utility.yul\":1105:1179   */\n  swap2\n  pop\n    /* \"#utility.yul\":1061:1189   */\n  pop\n    /* \"#utility.yul\":845:1196   */\n  swap3\n  swap2\n  pop\n  pop\n  jump\t// out\n    /* \"contracts/aerodrome/factories/PoolFactory.sol\":246:5317  contract PoolFactory is IPoolFactory {... */\ntag_6:\n  mload(0x80)\n  codecopy(0x00, dataOffset(sub_0), dataSize(sub_0))\n  0x00\n  assignImmutable(\"0xdab92d3cfd2fb10847c732668f5be4f526313d660461529e6720c950cca9ea28\")\n  return(0x00, dataSize(sub_0))\nstop\n\nsub_0: assembly {\n        /* \"contracts/aerodrome/factories/PoolFactory.sol\":246:5317  contract PoolFactory is IPoolFactory {... */\n      mstore(0x40, 0x80)\n      callvalue\n      dup1\n      iszero\n      tag_1\n      jumpi\n      0x00\n      dup1\n      revert\n    tag_1:\n      pop\n      jumpi(tag_2, lt(calldatasize, 0x04))\n      shr(0xe0, calldataload(0x00))\n      dup1\n      0x5c60da1b\n      gt\n      tag_27\n      jumpi\n      dup1\n      0xcc56b2c5\n      gt\n      tag_28\n      jumpi\n      dup1\n      0xcc56b2c5\n      eq\n      tag_21\n      jumpi\n      dup1\n      0xcdb88ad1\n      eq\n      tag_22\n      jumpi\n      dup1\n      0xd0fb0203\n      eq\n      tag_23\n      jumpi\n      dup1\n      0xd49466a8\n      eq\n      tag_24\n      jumpi\n      dup1\n      0xe1f76b44\n      eq\n      tag_25\n      jumpi\n      dup1\n      0xefde4e64\n      eq\n      tag_26\n      jumpi\n      jump(tag_2)\n    tag_28:\n      dup1\n      0x5c60da1b\n      eq\n      tag_15\n      jumpi\n      dup1\n      0x79bc57d5\n      eq\n      tag_16\n      jumpi\n      dup1\n      0x9fd0506d\n      eq\n      tag_17\n      jumpi\n      dup1\n      0xa1671295\n      eq\n      tag_18\n      jumpi\n      dup1\n      0xb187bd26\n      eq\n      tag_19\n      jumpi\n      dup1\n      0xbc063e1a\n      eq\n      tag_20\n      jumpi\n      jump(tag_2)\n    tag_27:\n      dup1\n      0x46c96aac\n      gt\n      tag_29\n      jumpi\n      dup1\n      0x46c96aac\n      eq\n      tag_9\n      jumpi\n      dup1\n      0x472d35b9\n      eq\n      tag_10\n      jumpi\n      dup1\n      0x4bc2a657\n      eq\n      tag_11\n      jumpi\n      dup1\n      0x4d419abc\n      eq\n      tag_12\n      jumpi\n      dup1\n      0x5084ed03\n      eq\n      tag_13\n      jumpi\n      dup1\n      0x5b16ebb7\n      eq\n      tag_14\n      jumpi\n      jump(tag_2)\n    tag_29:\n      dup1\n      0x1698ee82\n      eq\n      tag_3\n      jumpi\n      dup1\n      0x2d88af4a\n      eq\n      tag_4\n      jumpi\n      dup1\n      0x36bf95a0\n      eq\n      tag_5\n      jumpi\n      dup1\n      0x38c55d46\n      eq\n      tag_6\n      jumpi\n      dup1\n      0x40bbd775\n      eq\n      tag_7\n      jumpi\n      dup1\n      0x41d1de97\n      eq\n      tag_8\n      jumpi\n    tag_2:\n      0x00\n      dup1\n      revert\n        /* \"contracts/aerodrome/factories/PoolFactory.sol\":1710:1925  function getPool(address tokenA, address tokenB, uint24 fee) external view returns (address) {... */\n    tag_3:\n      tag_30\n      0x04\n      dup1\n      calldatasize\n      sub\n      dup2\n      add\n      swap1\n      tag_31\n      swap2\n      swap1\n      tag_32\n      jump\t// in\n    tag_31:\n      tag_33\n      jump\t// in\n    tag_30:\n      mload(0x40)\n      tag_34\n      swap2\n      swap1\n      tag_35\n      jump\t// in\n    tag_34:\n      mload(0x40)\n      dup1\n      swap2\n      sub\n      swap1\n      return\n        /* \"contracts/aerodrome/factories/PoolFactory.sol\":2451:2673  function setPauser(address _pauser) external {... */\n    tag_4:\n      tag_36\n      0x04\n      dup1\n      calldatasize\n      sub\n      dup2\n      add\n      swap1\n      tag_37\n      swap2\n      swap1\n      tag_38\n      jump\t// in\n    tag_37:\n      tag_39\n      jump\t// in\n    tag_36:\n      stop\n        /* \"contracts/aerodrome/factories/PoolFactory.sol\":4402:5315  function createPool(address tokenA, address tokenB, bool stable) public returns (address pool) {... */\n    tag_5:\n      tag_40\n      0x04\n      dup1\n      calldatasize\n      sub\n      dup2\n      add\n      swap1\n      tag_41\n      swap2\n      swap1\n      tag_42\n      jump\t// in\n    tag_41:\n      tag_43\n      jump\t// in\n    tag_40:\n      mload(0x40)\n      tag_44\n      swap2\n      swap1\n      tag_35\n      jump\t// in\n    tag_44:\n      mload(0x40)\n      dup1\n      swap2\n      sub\n      swap1\n      return\n        /* \"contracts/aerodrome/factories/PoolFactory.sol\":645:693  uint256 public constant ZERO_FEE_INDICATOR = 420 */\n    tag_6:\n      tag_45\n      tag_46\n      jump\t// in\n    tag_45:\n      mload(0x40)\n      tag_47\n      swap2\n      swap1\n      tag_48\n      jump\t// in\n    tag_47:\n      mload(0x40)\n      dup1\n      swap2\n      sub\n      swap1\n      return\n        /* \"contracts/aerodrome/factories/PoolFactory.sol\":389:413  uint256 public stableFee */\n    tag_7:\n      tag_49\n      tag_50\n      jump\t// in\n    tag_49:\n      mload(0x40)\n      tag_51\n      swap2\n      swap1\n      tag_48\n      jump\t// in\n    tag_51:\n      mload(0x40)\n      dup1\n      swap2\n      sub\n      swap1\n      return\n        /* \"contracts/aerodrome/factories/PoolFactory.sol\":929:954  address[] public allPools */\n    tag_8:\n      tag_52\n      0x04\n      dup1\n      calldatasize\n      sub\n      dup2\n      add\n      swap1\n      tag_53\n      swap2\n      swap1\n      tag_54\n      jump\t// in\n    tag_53:\n      tag_55\n      jump\t// in\n    tag_52:\n      mload(0x40)\n      tag_56\n      swap2\n      swap1\n      tag_35\n      jump\t// in\n    tag_56:\n      mload(0x40)\n      dup1\n      swap2\n      sub\n      swap1\n      return\n        /* \"contracts/aerodrome/factories/PoolFactory.sol\":815:835  address public voter */\n    tag_9:\n      tag_57\n      tag_58\n      jump\t// in\n    tag_57:\n      mload(0x40)\n      tag_59\n      swap2\n      swap1\n      tag_35\n      jump\t// in\n    tag_59:\n      mload(0x40)\n      dup1\n      swap2\n      sub\n      swap1\n      return\n        /* \"contracts/aerodrome/factories/PoolFactory.sol\":2854:3112  function setFeeManager(address _feeManager) external {... */\n    tag_10:\n      tag_60\n      0x04\n      dup1\n      calldatasize\n      sub\n      dup2\n      add\n      swap1\n      tag_61\n      swap2\n      swap1\n      tag_38\n      jump\t// in\n    tag_61:\n      tag_62\n      jump\t// in\n    tag_60:\n      stop\n        /* \"contracts/aerodrome/factories/PoolFactory.sol\":2288:2445  function setVoter(address _voter) external {... */\n    tag_11:\n      tag_63\n      0x04\n      dup1\n      calldatasize\n      sub\n      dup2\n      add\n      swap1\n      tag_64\n      swap2\n      swap1\n      tag_38\n      jump\t// in\n    tag_64:\n      tag_65\n      jump\t// in\n    tag_63:\n      stop\n        /* \"contracts/aerodrome/factories/PoolFactory.sol\":1104:1148  mapping(address => uint256) public customFee */\n    tag_12:\n      tag_66\n      0x04\n      dup1\n      calldatasize\n      sub\n      dup2\n      add\n      swap1\n      tag_67\n      swap2\n      swap1\n      tag_38\n      jump\t// in\n    tag_67:\n      tag_68\n      jump\t// in\n    tag_66:\n      mload(0x40)\n      tag_69\n      swap2\n      swap1\n      tag_48\n      jump\t// in\n    tag_69:\n      mload(0x40)\n      dup1\n      swap2\n      sub\n      swap1\n      return\n        /* \"contracts/aerodrome/factories/PoolFactory.sol\":419:445  uint256 public volatileFee */\n    tag_13:\n      tag_70\n      tag_71\n      jump\t// in\n    tag_70:\n      mload(0x40)\n      tag_72\n      swap2\n      swap1\n      tag_48\n      jump\t// in\n    tag_72:\n      mload(0x40)\n      dup1\n      swap2\n      sub\n      swap1\n      return\n        /* \"contracts/aerodrome/factories/PoolFactory.sol\":2153:2249  function isPool(address pool) external view returns (bool) {... */\n    tag_14:\n      tag_73\n      0x04\n      dup1\n      calldatasize\n      sub\n      dup2\n      add\n      swap1\n      tag_74\n      swap2\n      swap1\n      tag_38\n      jump\t// in\n    tag_74:\n      tag_75\n      jump\t// in\n    tag_73:\n      mload(0x40)\n      tag_76\n      swap2\n      swap1\n      tag_77\n      jump\t// in\n    tag_76:\n      mload(0x40)\n      dup1\n      swap2\n      sub\n      swap1\n      return\n        /* \"contracts/aerodrome/factories/PoolFactory.sol\":289:328  address public immutable implementation */\n    tag_15:\n      tag_78\n      tag_79\n      jump\t// in\n    tag_78:\n      mload(0x40)\n      tag_80\n      swap2\n      swap1\n      tag_35\n      jump\t// in\n    tag_80:\n      mload(0x40)\n      dup1\n      swap2\n      sub\n      swap1\n      return\n        /* \"contracts/aerodrome/factories/PoolFactory.sol\":1964:2114  function getPool(address tokenA, address tokenB, bool stable) external view returns (address) {... */\n    tag_16:\n      tag_81\n      0x04\n      dup1\n      calldatasize\n      sub\n      dup2\n      add\n      swap1\n      tag_82\n      swap2\n      swap1\n      tag_42\n      jump\t// in\n    tag_82:\n      tag_83\n      jump\t// in\n    tag_81:\n      mload(0x40)\n      tag_84\n      swap2\n      swap1\n      tag_35\n      jump\t// in\n    tag_84:\n      mload(0x40)\n      dup1\n      swap2\n      sub\n      swap1\n      return\n        /* \"contracts/aerodrome/factories/PoolFactory.sol\":361:382  address public pauser */\n    tag_17:\n      tag_85\n      tag_86\n      jump\t// in\n    tag_85:\n      mload(0x40)\n      tag_87\n      swap2\n      swap1\n      tag_35\n      jump\t// in\n    tag_87:\n      mload(0x40)\n      dup1\n      swap2\n      sub\n      swap1\n      return\n        /* \"contracts/aerodrome/factories/PoolFactory.sol\":4135:4363  function createPool(address tokenA, address tokenB, uint24 fee) external returns (address pool) {... */\n    tag_18:\n      tag_88\n      0x04\n      dup1\n      calldatasize\n      sub\n      dup2\n      add\n      swap1\n      tag_89\n      swap2\n      swap1\n      tag_32\n      jump\t// in\n    tag_89:\n      tag_90\n      jump\t// in\n    tag_88:\n      mload(0x40)\n      tag_91\n      swap2\n      swap1\n      tag_35\n      jump\t// in\n    tag_91:\n      mload(0x40)\n      dup1\n      swap2\n      sub\n      swap1\n      return\n        /* \"contracts/aerodrome/factories/PoolFactory.sol\":335:355  bool public isPaused */\n    tag_19:\n      tag_92\n      tag_93\n      jump\t// in\n    tag_92:\n      mload(0x40)\n      tag_94\n      swap2\n      swap1\n      tag_77\n      jump\t// in\n    tag_94:\n      mload(0x40)\n      dup1\n      swap2\n      sub\n      swap1\n      return\n        /* \"contracts/aerodrome/factories/PoolFactory.sol\":451:488  uint256 public constant MAX_FEE = 300 */\n    tag_20:\n      tag_95\n      tag_96\n      jump\t// in\n    tag_95:\n      mload(0x40)\n      tag_97\n      swap2\n      swap1\n      tag_48\n      jump\t// in\n    tag_97:\n      mload(0x40)\n      dup1\n      swap2\n      sub\n      swap1\n      return\n        /* \"contracts/aerodrome/factories/PoolFactory.sol\":3877:4096  function getFee(address pool, bool _stable) public view returns (uint256) {... */\n    tag_21:\n      tag_98\n      0x04\n      dup1\n      calldatasize\n      sub\n      dup2\n      add\n      swap1\n      tag_99\n      swap2\n      swap1\n      tag_100\n      jump\t// in\n    tag_99:\n      tag_101\n      jump\t// in\n    tag_98:\n      mload(0x40)\n      tag_102\n      swap2\n      swap1\n      tag_48\n      jump\t// in\n    tag_102:\n      mload(0x40)\n      dup1\n      swap2\n      sub\n      swap1\n      return\n        /* \"contracts/aerodrome/factories/PoolFactory.sol\":2679:2848  function setPauseState(bool _state) external {... */\n    tag_22:\n      tag_103\n      0x04\n      dup1\n      calldatasize\n      sub\n      dup2\n      add\n      swap1\n      tag_104\n      swap2\n      swap1\n      tag_105\n      jump\t// in\n    tag_104:\n      tag_106\n      jump\t// in\n    tag_103:\n      stop\n        /* \"contracts/aerodrome/factories/PoolFactory.sol\":699:724  address public feeManager */\n    tag_23:\n      tag_107\n      tag_108\n      jump\t// in\n    tag_107:\n      mload(0x40)\n      tag_109\n      swap2\n      swap1\n      tag_35\n      jump\t// in\n    tag_109:\n      mload(0x40)\n      dup1\n      swap2\n      sub\n      swap1\n      return\n        /* \"contracts/aerodrome/factories/PoolFactory.sol\":3514:3838  function setCustomFee(address pool, uint256 fee) external {... */\n    tag_24:\n      tag_110\n      0x04\n      dup1\n      calldatasize\n      sub\n      dup2\n      add\n      swap1\n      tag_111\n      swap2\n      swap1\n      tag_112\n      jump\t// in\n    tag_111:\n      tag_113\n      jump\t// in\n    tag_110:\n      stop\n        /* \"contracts/aerodrome/factories/PoolFactory.sol\":3151:3475  function setFee(bool _stable, uint256 _fee) external {... */\n    tag_25:\n      tag_114\n      0x04\n      dup1\n      calldatasize\n      sub\n      dup2\n      add\n      swap1\n      tag_115\n      swap2\n      swap1\n      tag_116\n      jump\t// in\n    tag_115:\n      tag_117\n      jump\t// in\n    tag_114:\n      stop\n        /* \"contracts/aerodrome/factories/PoolFactory.sol\":1574:1671  function allPoolsLength() external view returns (uint256) {... */\n    tag_26:\n      tag_118\n      tag_119\n      jump\t// in\n    tag_118:\n      mload(0x40)\n      tag_120\n      swap2\n      swap1\n      tag_48\n      jump\t// in\n    tag_120:\n      mload(0x40)\n      dup1\n      swap2\n      sub\n      swap1\n      return\n        /* \"contracts/aerodrome/factories/PoolFactory.sol\":1710:1925  function getPool(address tokenA, address tokenB, uint24 fee) external view returns (address) {... */\n    tag_33:\n        /* \"contracts/aerodrome/factories/PoolFactory.sol\":1794:1801  address */\n      0x00\n        /* \"contracts/aerodrome/factories/PoolFactory.sol\":1826:1827  1 */\n      0x01\n        /* \"contracts/aerodrome/factories/PoolFactory.sol\":1820:1823  fee */\n      dup3\n        /* \"contracts/aerodrome/factories/PoolFactory.sol\":1820:1827  fee > 1 */\n      0xffffff\n      and\n      gt\n        /* \"contracts/aerodrome/factories/PoolFactory.sol\":1820:1918  fee > 1 ? address(0) : fee == 1 ? _getPool[tokenA][tokenB][true] : _getPool[tokenA][tokenB][false] */\n      tag_122\n      jumpi\n        /* \"contracts/aerodrome/factories/PoolFactory.sol\":1850:1851  1 */\n      0x01\n        /* \"contracts/aerodrome/factories/PoolFactory.sol\":1843:1846  fee */\n      dup3\n        /* \"contracts/aerodrome/factories/PoolFactory.sol\":1843:1851  fee == 1 */\n      0xffffff\n      and\n      eq\n        /* \"contracts/aerodrome/factories/PoolFactory.sol\":1843:1918  fee == 1 ? _getPool[tokenA][tokenB][true] : _getPool[tokenA][tokenB][false] */\n      tag_123\n      jumpi\n        /* \"contracts/aerodrome/factories/PoolFactory.sol\":1887:1895  _getPool */\n      0x05\n        /* \"contracts/aerodrome/factories/PoolFactory.sol\":1887:1903  _getPool[tokenA] */\n      0x00\n        /* \"contracts/aerodrome/factories/PoolFactory.sol\":1896:1902  tokenA */\n      dup6\n        /* \"contracts/aerodrome/factories/PoolFactory.sol\":1887:1903  _getPool[tokenA] */\n      0xffffffffffffffffffffffffffffffffffffffff\n      and\n      0xffffffffffffffffffffffffffffffffffffffff\n      and\n      dup2\n      mstore\n      0x20\n      add\n      swap1\n      dup2\n      mstore\n      0x20\n      add\n      0x00\n      keccak256\n        /* \"contracts/aerodrome/factories/PoolFactory.sol\":1887:1911  _getPool[tokenA][tokenB] */\n      0x00\n        /* \"contracts/aerodrome/factories/PoolFactory.sol\":1904:1910  tokenB */\n      dup5\n        /* \"contracts/aerodrome/factories/PoolFactory.sol\":1887:1911  _getPool[tokenA][tokenB] */\n      0xffffffffffffffffffffffffffffffffffffffff\n      and\n      0xffffffffffffffffffffffffffffffffffffffff\n      and\n      dup2\n      mstore\n      0x20\n      add\n      swap1\n      dup2\n      mstore\n      0x20\n      add\n      0x00\n      keccak256\n        /* \"contracts/aerodrome/factories/PoolFactory.sol\":1887:1918  _getPool[tokenA][tokenB][false] */\n      0x00\n        /* \"contracts/aerodrome/factories/PoolFactory.sol\":1912:1917  false */\n      dup1\n        /* \"contracts/aerodrome/factories/PoolFactory.sol\":1887:1918  _getPool[tokenA][tokenB][false] */\n      iszero\n      iszero\n      iszero\n      iszero\n      dup2\n      mstore\n      0x20\n      add\n      swap1\n      dup2\n      mstore\n      0x20\n      add\n      0x00\n      keccak256\n      0x00\n      swap1\n      sload\n      swap1\n      0x0100\n      exp\n      swap1\n      div\n      0xffffffffffffffffffffffffffffffffffffffff\n      and\n        /* \"contracts/aerodrome/factories/PoolFactory.sol\":1843:1918  fee == 1 ? _getPool[tokenA][tokenB][true] : _getPool[tokenA][tokenB][false] */\n      jump(tag_124)\n    tag_123:\n        /* \"contracts/aerodrome/factories/PoolFactory.sol\":1854:1862  _getPool */\n      0x05\n        /* \"contracts/aerodrome/factories/PoolFactory.sol\":1854:1870  _getPool[tokenA] */\n      0x00\n        /* \"contracts/aerodrome/factories/PoolFactory.sol\":1863:1869  tokenA */\n      dup6\n        /* \"contracts/aerodrome/factories/PoolFactory.sol\":1854:1870  _getPool[tokenA] */\n      0xffffffffffffffffffffffffffffffffffffffff\n      and\n      0xffffffffffffffffffffffffffffffffffffffff\n      and\n      dup2\n      mstore\n      0x20\n      add\n      swap1\n      dup2\n      mstore\n      0x20\n      add\n      0x00\n      keccak256\n        /* \"contracts/aerodrome/factories/PoolFactory.sol\":1854:1878  _getPool[tokenA][tokenB] */\n      0x00\n        /* \"contracts/aerodrome/factories/PoolFactory.sol\":1871:1877  tokenB */\n      dup5\n        /* \"contracts/aerodrome/factories/PoolFactory.sol\":1854:1878  _getPool[tokenA][tokenB] */\n      0xffffffffffffffffffffffffffffffffffffffff\n      and\n      0xffffffffffffffffffffffffffffffffffffffff\n      and\n      dup2\n      mstore\n      0x20\n      add\n      swap1\n      dup2\n      mstore\n      0x20\n      add\n      0x00\n      keccak256\n        /* \"contracts/aerodrome/factories/PoolFactory.sol\":1854:1884  _getPool[tokenA][tokenB][true] */\n      0x00\n        /* \"contracts/aerodrome/factories/PoolFactory.sol\":1879:1883  true */\n      0x01\n        /* \"contracts/aerodrome/factories/PoolFactory.sol\":1854:1884  _getPool[tokenA][tokenB][true] */\n      iszero\n      iszero\n      iszero\n      iszero\n      dup2\n      mstore\n      0x20\n      add\n      swap1\n      dup2\n      mstore\n      0x20\n      add\n      0x00\n      keccak256\n      0x00\n      swap1\n      sload\n      swap1\n      0x0100\n      exp\n      swap1\n      div\n      0xffffffffffffffffffffffffffffffffffffffff\n      and\n        /* \"contracts/aerodrome/factories/PoolFactory.sol\":1843:1918  fee == 1 ? _getPool[tokenA][tokenB][true] : _getPool[tokenA][tokenB][false] */\n    tag_124:\n        /* \"contracts/aerodrome/factories/PoolFactory.sol\":1820:1918  fee > 1 ? address(0) : fee == 1 ? _getPool[tokenA][tokenB][true] : _getPool[tokenA][tokenB][false] */\n      jump(tag_125)\n    tag_122:\n        /* \"contracts/aerodrome/factories/PoolFactory.sol\":1838:1839  0 */\n      0x00\n        /* \"contracts/aerodrome/factories/PoolFactory.sol\":1820:1918  fee > 1 ? address(0) : fee == 1 ? _getPool[tokenA][tokenB][true] : _getPool[tokenA][tokenB][false] */\n    tag_125:\n        /* \"contracts/aerodrome/factories/PoolFactory.sol\":1813:1918  return fee > 1 ? address(0) : fee == 1 ? _getPool[tokenA][tokenB][true] : _getPool[tokenA][tokenB][false] */\n      swap1\n      pop\n        /* \"contracts/aerodrome/factories/PoolFactory.sol\":1710:1925  function getPool(address tokenA, address tokenB, uint24 fee) external view returns (address) {... */\n      swap4\n      swap3\n      pop\n      pop\n      pop\n      jump\t// out\n        /* \"contracts/aerodrome/factories/PoolFactory.sol\":2451:2673  function setPauser(address _pauser) external {... */\n    tag_39:\n        /* \"contracts/aerodrome/factories/PoolFactory.sol\":2524:2530  pauser */\n      0x00\n      0x01\n      swap1\n      sload\n      swap1\n      0x0100\n      exp\n      swap1\n      div\n      0xffffffffffffffffffffffffffffffffffffffff\n      and\n        /* \"contracts/aerodrome/factories/PoolFactory.sol\":2510:2530  msg.sender != pauser */\n      0xffffffffffffffffffffffffffffffffffffffff\n      and\n        /* \"contracts/aerodrome/factories/PoolFactory.sol\":2510:2520  msg.sender */\n      caller\n        /* \"contracts/aerodrome/factories/PoolFactory.sol\":2510:2530  msg.sender != pauser */\n      0xffffffffffffffffffffffffffffffffffffffff\n      and\n      eq\n        /* \"contracts/aerodrome/factories/PoolFactory.sol\":2506:2550  if (msg.sender != pauser) revert NotPauser() */\n      tag_127\n      jumpi\n        /* \"contracts/aerodrome/factories/PoolFactory.sol\":2539:2550  NotPauser() */\n      mload(0x40)\n      0x492f678100000000000000000000000000000000000000000000000000000000\n      dup2\n      mstore\n      0x04\n      add\n      mload(0x40)\n      dup1\n      swap2\n      sub\n      swap1\n      revert\n        /* \"contracts/aerodrome/factories/PoolFactory.sol\":2506:2550  if (msg.sender != pauser) revert NotPauser() */\n    tag_127:\n        /* \"contracts/aerodrome/factories/PoolFactory.sol\":2583:2584  0 */\n      0x00\n        /* \"contracts/aerodrome/factories/PoolFactory.sol\":2564:2585  _pauser == address(0) */\n      0xffffffffffffffffffffffffffffffffffffffff\n      and\n        /* \"contracts/aerodrome/factories/PoolFactory.sol\":2564:2571  _pauser */\n      dup2\n        /* \"contracts/aerodrome/factories/PoolFactory.sol\":2564:2585  _pauser == address(0) */\n      0xffffffffffffffffffffffffffffffffffffffff\n      and\n      sub\n        /* \"contracts/aerodrome/factories/PoolFactory.sol\":2560:2607  if (_pauser == address(0)) revert ZeroAddress() */\n      tag_128\n      jumpi\n        /* \"contracts/aerodrome/factories/PoolFactory.sol\":2594:2607  ZeroAddress() */\n      mload(0x40)\n      0xd92e233d00000000000000000000000000000000000000000000000000000000\n      dup2\n      mstore\n      0x04\n      add\n      mload(0x40)\n      dup1\n      swap2\n      sub\n      swap1\n      revert\n        /* \"contracts/aerodrome/factories/PoolFactory.sol\":2560:2607  if (_pauser == address(0)) revert ZeroAddress() */\n    tag_128:\n        /* \"contracts/aerodrome/factories/PoolFactory.sol\":2626:2633  _pauser */\n      dup1\n        /* \"contracts/aerodrome/factories/PoolFactory.sol\":2617:2623  pauser */\n      0x00\n      0x01\n        /* \"contracts/aerodrome/factories/PoolFactory.sol\":2617:2633  pauser = _pauser */\n      0x0100\n      exp\n      dup2\n      sload\n      dup2\n      0xffffffffffffffffffffffffffffffffffffffff\n      mul\n      not\n      and\n      swap1\n      dup4\n      0xffffffffffffffffffffffffffffffffffffffff\n      and\n      mul\n      or\n      swap1\n      sstore\n      pop\n        /* \"contracts/aerodrome/factories/PoolFactory.sol\":2648:2666  SetPauser(_pauser) */\n      0xe02efb9e8f0fc21546730ab32d594f62d586e1bbb15bb5045edd0b1878a77b35\n        /* \"contracts/aerodrome/factories/PoolFactory.sol\":2658:2665  _pauser */\n      dup2\n        /* \"contracts/aerodrome/factories/PoolFactory.sol\":2648:2666  SetPauser(_pauser) */\n      mload(0x40)\n      tag_129\n      swap2\n      swap1\n      tag_35\n      jump\t// in\n    tag_129:\n      mload(0x40)\n      dup1\n      swap2\n      sub\n      swap1\n      log1\n        /* \"contracts/aerodrome/factories/PoolFactory.sol\":2451:2673  function setPauser(address _pauser) external {... */\n      pop\n      jump\t// out\n        /* \"contracts/aerodrome/factories/PoolFactory.sol\":4402:5315  function createPool(address tokenA, address tokenB, bool stable) public returns (address pool) {... */\n    tag_43:\n        /* \"contracts/aerodrome/factories/PoolFactory.sol\":4483:4495  address pool */\n      0x00\n        /* \"contracts/aerodrome/factories/PoolFactory.sol\":4521:4527  tokenB */\n      dup3\n        /* \"contracts/aerodrome/factories/PoolFactory.sol\":4511:4527  tokenA == tokenB */\n      0xffffffffffffffffffffffffffffffffffffffff\n      and\n        /* \"contracts/aerodrome/factories/PoolFactory.sol\":4511:4517  tokenA */\n      dup5\n        /* \"contracts/aerodrome/factories/PoolFactory.sol\":4511:4527  tokenA == tokenB */\n      0xffffffffffffffffffffffffffffffffffffffff\n      and\n      sub\n        /* \"contracts/aerodrome/factories/PoolFactory.sol\":4507:4549  if (tokenA == tokenB) revert SameAddress() */\n      tag_131\n      jumpi\n        /* \"contracts/aerodrome/factories/PoolFactory.sol\":4536:4549  SameAddress() */\n      mload(0x40)\n      0x367558c300000000000000000000000000000000000000000000000000000000\n      dup2\n      mstore\n      0x04\n      add\n      mload(0x40)\n      dup1\n      swap2\n      sub\n      swap1\n      revert\n        /* \"contracts/aerodrome/factories/PoolFactory.sol\":4507:4549  if (tokenA == tokenB) revert SameAddress() */\n    tag_131:\n        /* \"contracts/aerodrome/factories/PoolFactory.sol\":4560:4574  address token0 */\n      0x00\n        /* \"contracts/aerodrome/factories/PoolFactory.sol\":4576:4590  address token1 */\n      dup1\n        /* \"contracts/aerodrome/factories/PoolFactory.sol\":4603:4609  tokenB */\n      dup5\n        /* \"contracts/aerodrome/factories/PoolFactory.sol\":4594:4609  tokenA < tokenB */\n      0xffffffffffffffffffffffffffffffffffffffff\n      and\n        /* \"contracts/aerodrome/factories/PoolFactory.sol\":4594:4600  tokenA */\n      dup7\n        /* \"contracts/aerodrome/factories/PoolFactory.sol\":4594:4609  tokenA < tokenB */\n      0xffffffffffffffffffffffffffffffffffffffff\n      and\n      lt\n        /* \"contracts/aerodrome/factories/PoolFactory.sol\":4594:4647  tokenA < tokenB ? (tokenA, tokenB) : (tokenB, tokenA) */\n      tag_132\n      jumpi\n        /* \"contracts/aerodrome/factories/PoolFactory.sol\":4632:4638  tokenB */\n      dup5\n        /* \"contracts/aerodrome/factories/PoolFactory.sol\":4640:4646  tokenA */\n      dup7\n        /* \"contracts/aerodrome/factories/PoolFactory.sol\":4594:4647  tokenA < tokenB ? (tokenA, tokenB) : (tokenB, tokenA) */\n      jump(tag_133)\n    tag_132:\n        /* \"contracts/aerodrome/factories/PoolFactory.sol\":4613:4619  tokenA */\n      dup6\n        /* \"contracts/aerodrome/factories/PoolFactory.sol\":4621:4627  tokenB */\n      dup6\n        /* \"contracts/aerodrome/factories/PoolFactory.sol\":4594:4647  tokenA < tokenB ? (tokenA, tokenB) : (tokenB, tokenA) */\n    tag_133:\n        /* \"contracts/aerodrome/factories/PoolFactory.sol\":4559:4647  (address token0, address token1) = tokenA < tokenB ? (tokenA, tokenB) : (tokenB, tokenA) */\n      swap2\n      pop\n      swap2\n      pop\n        /* \"contracts/aerodrome/factories/PoolFactory.sol\":4679:4680  0 */\n      0x00\n        /* \"contracts/aerodrome/factories/PoolFactory.sol\":4661:4681  token0 == address(0) */\n      0xffffffffffffffffffffffffffffffffffffffff\n      and\n        /* \"contracts/aerodrome/factories/PoolFactory.sol\":4661:4667  token0 */\n      dup3\n        /* \"contracts/aerodrome/factories/PoolFactory.sol\":4661:4681  token0 == address(0) */\n      0xffffffffffffffffffffffffffffffffffffffff\n      and\n      sub\n        /* \"contracts/aerodrome/factories/PoolFactory.sol\":4657:4703  if (token0 == address(0)) revert ZeroAddress() */\n      tag_134\n      jumpi\n        /* \"contracts/aerodrome/factories/PoolFactory.sol\":4690:4703  ZeroAddress() */\n      mload(0x40)\n      0xd92e233d00000000000000000000000000000000000000000000000000000000\n      dup2\n      mstore\n      0x04\n      add\n      mload(0x40)\n      dup1\n      swap2\n      sub\n      swap1\n      revert\n        /* \"contracts/aerodrome/factories/PoolFactory.sol\":4657:4703  if (token0 == address(0)) revert ZeroAddress() */\n    tag_134:\n        /* \"contracts/aerodrome/factories/PoolFactory.sol\":4761:4762  0 */\n      0x00\n        /* \"contracts/aerodrome/factories/PoolFactory.sol\":4717:4763  _getPool[token0][token1][stable] != address(0) */\n      0xffffffffffffffffffffffffffffffffffffffff\n      and\n        /* \"contracts/aerodrome/factories/PoolFactory.sol\":4717:4725  _getPool */\n      0x05\n        /* \"contracts/aerodrome/factories/PoolFactory.sol\":4717:4733  _getPool[token0] */\n      0x00\n        /* \"contracts/aerodrome/factories/PoolFactory.sol\":4726:4732  token0 */\n      dup5\n        /* \"contracts/aerodrome/factories/PoolFactory.sol\":4717:4733  _getPool[token0] */\n      0xffffffffffffffffffffffffffffffffffffffff\n      and\n      0xffffffffffffffffffffffffffffffffffffffff\n      and\n      dup2\n      mstore\n      0x20\n      add\n      swap1\n      dup2\n      mstore\n      0x20\n      add\n      0x00\n      keccak256\n        /* \"contracts/aerodrome/factories/PoolFactory.sol\":4717:4741  _getPool[token0][token1] */\n      0x00\n        /* \"contracts/aerodrome/factories/PoolFactory.sol\":4734:4740  token1 */\n      dup4\n        /* \"contracts/aerodrome/factories/PoolFactory.sol\":4717:4741  _getPool[token0][token1] */\n      0xffffffffffffffffffffffffffffffffffffffff\n      and\n      0xffffffffffffffffffffffffffffffffffffffff\n      and\n      dup2\n      mstore\n      0x20\n      add\n      swap1\n      dup2\n      mstore\n      0x20\n      add\n      0x00\n      keccak256\n        /* \"contracts/aerodrome/factories/PoolFactory.sol\":4717:4749  _getPool[token0][token1][stable] */\n      0x00\n        /* \"contracts/aerodrome/factories/PoolFactory.sol\":4742:4748  stable */\n      dup7\n        /* \"contracts/aerodrome/factories/PoolFactory.sol\":4717:4749  _getPool[token0][token1][stable] */\n      iszero\n      iszero\n      iszero\n      iszero\n      dup2\n      mstore\n      0x20\n      add\n      swap1\n      dup2\n      mstore\n      0x20\n      add\n      0x00\n      keccak256\n      0x00\n      swap1\n      sload\n      swap1\n      0x0100\n      exp\n      swap1\n      div\n      0xffffffffffffffffffffffffffffffffffffffff\n      and\n        /* \"contracts/aerodrome/factories/PoolFactory.sol\":4717:4763  _getPool[token0][token1][stable] != address(0) */\n      0xffffffffffffffffffffffffffffffffffffffff\n      and\n      eq\n        /* \"contracts/aerodrome/factories/PoolFactory.sol\":4713:4791  if (_getPool[token0][token1][stable] != address(0)) revert PoolAlreadyExists() */\n      tag_135\n      jumpi\n        /* \"contracts/aerodrome/factories/PoolFactory.sol\":4772:4791  PoolAlreadyExists() */\n      mload(0x40)\n      0x0311932200000000000000000000000000000000000000000000000000000000\n      dup2\n      mstore\n      0x04\n      add\n      mload(0x40)\n      dup1\n      swap2\n      sub\n      swap1\n      revert\n        /* \"contracts/aerodrome/factories/PoolFactory.sol\":4713:4791  if (_getPool[token0][token1][stable] != address(0)) revert PoolAlreadyExists() */\n    tag_135:\n        /* \"contracts/aerodrome/factories/PoolFactory.sol\":4801:4813  bytes32 salt */\n      0x00\n        /* \"contracts/aerodrome/factories/PoolFactory.sol\":4843:4849  token0 */\n      dup3\n        /* \"contracts/aerodrome/factories/PoolFactory.sol\":4851:4857  token1 */\n      dup3\n        /* \"contracts/aerodrome/factories/PoolFactory.sol\":4859:4865  stable */\n      dup7\n        /* \"contracts/aerodrome/factories/PoolFactory.sol\":4826:4866  abi.encodePacked(token0, token1, stable) */\n      add(0x20, mload(0x40))\n      tag_136\n      swap4\n      swap3\n      swap2\n      swap1\n      tag_137\n      jump\t// in\n    tag_136:\n      mload(0x40)\n      0x20\n      dup2\n      dup4\n      sub\n      sub\n      dup2\n      mstore\n      swap1\n      0x40\n      mstore\n        /* \"contracts/aerodrome/factories/PoolFactory.sol\":4816:4867  keccak256(abi.encodePacked(token0, token1, stable)) */\n      dup1\n      mload\n      swap1\n      0x20\n      add\n      keccak256\n        /* \"contracts/aerodrome/factories/PoolFactory.sol\":4801:4867  bytes32 salt = keccak256(abi.encodePacked(token0, token1, stable)) */\n      swap1\n      pop\n        /* \"contracts/aerodrome/factories/PoolFactory.sol\":4930:4977  Clones.cloneDeterministic(implementation, salt) */\n      tag_138\n        /* \"contracts/aerodrome/factories/PoolFactory.sol\":4956:4970  implementation */\n      immutable(\"0xdab92d3cfd2fb10847c732668f5be4f526313d660461529e6720c950cca9ea28\")\n        /* \"contracts/aerodrome/factories/PoolFactory.sol\":4972:4976  salt */\n      dup3\n        /* \"contracts/aerodrome/factories/PoolFactory.sol\":4930:4955  Clones.cloneDeterministic */\n      tag_139\n        /* \"contracts/aerodrome/factories/PoolFactory.sol\":4930:4977  Clones.cloneDeterministic(implementation, salt) */\n      jump\t// in\n    tag_138:\n        /* \"contracts/aerodrome/factories/PoolFactory.sol\":4923:4977  pool = Clones.cloneDeterministic(implementation, salt) */\n      swap4\n      pop\n        /* \"contracts/aerodrome/factories/PoolFactory.sol\":4993:4997  pool */\n      dup4\n        /* \"contracts/aerodrome/factories/PoolFactory.sol\":4987:5009  IPool(pool).initialize */\n      0xffffffffffffffffffffffffffffffffffffffff\n      and\n      0xe4bbb5a8\n        /* \"contracts/aerodrome/factories/PoolFactory.sol\":5010:5016  token0 */\n      dup5\n        /* \"contracts/aerodrome/factories/PoolFactory.sol\":5018:5024  token1 */\n      dup5\n        /* \"contracts/aerodrome/factories/PoolFactory.sol\":5026:5032  stable */\n      dup9\n        /* \"contracts/aerodrome/factories/PoolFactory.sol\":4987:5033  IPool(pool).initialize(token0, token1, stable) */\n      mload(0x40)\n      dup5\n      0xffffffff\n      and\n      0xe0\n      shl\n      dup2\n      mstore\n      0x04\n      add\n      tag_140\n      swap4\n      swap3\n      swap2\n      swap1\n      tag_141\n      jump\t// in\n    tag_140:\n      0x00\n      mload(0x40)\n      dup1\n      dup4\n      sub\n      dup2\n      0x00\n      dup8\n      dup1\n      extcodesize\n      iszero\n      dup1\n      iszero\n      tag_142\n      jumpi\n      0x00\n      dup1\n      revert\n    tag_142:\n      pop\n      gas\n      call\n      iszero\n      dup1\n      iszero\n      tag_144\n      jumpi\n      returndatasize\n      0x00\n      dup1\n      returndatacopy\n      revert(0x00, returndatasize)\n    tag_144:\n      pop\n      pop\n      pop\n      pop\n        /* \"contracts/aerodrome/factories/PoolFactory.sol\":5078:5082  pool */\n      dup4\n        /* \"contracts/aerodrome/factories/PoolFactory.sol\":5043:5051  _getPool */\n      0x05\n        /* \"contracts/aerodrome/factories/PoolFactory.sol\":5043:5059  _getPool[token0] */\n      0x00\n        /* \"contracts/aerodrome/factories/PoolFactory.sol\":5052:5058  token0 */\n      dup6\n        /* \"contracts/aerodrome/factories/PoolFactory.sol\":5043:5059  _getPool[token0] */\n      0xffffffffffffffffffffffffffffffffffffffff\n      and\n      0xffffffffffffffffffffffffffffffffffffffff\n      and\n      dup2\n      mstore\n      0x20\n      add\n      swap1\n      dup2\n      mstore\n      0x20\n      add\n      0x00\n      keccak256\n        /* \"contracts/aerodrome/factories/PoolFactory.sol\":5043:5067  _getPool[token0][token1] */\n      0x00\n        /* \"contracts/aerodrome/factories/PoolFactory.sol\":5060:5066  token1 */\n      dup5\n        /* \"contracts/aerodrome/factories/PoolFactory.sol\":5043:5067  _getPool[token0][token1] */\n      0xffffffffffffffffffffffffffffffffffffffff\n      and\n      0xffffffffffffffffffffffffffffffffffffffff\n      and\n      dup2\n      mstore\n      0x20\n      add\n      swap1\n      dup2\n      mstore\n      0x20\n      add\n      0x00\n      keccak256\n        /* \"contracts/aerodrome/factories/PoolFactory.sol\":5043:5075  _getPool[token0][token1][stable] */\n      0x00\n        /* \"contracts/aerodrome/factories/PoolFactory.sol\":5068:5074  stable */\n      dup8\n        /* \"contracts/aerodrome/factories/PoolFactory.sol\":5043:5075  _getPool[token0][token1][stable] */\n      iszero\n      iszero\n      iszero\n      iszero\n      dup2\n      mstore\n      0x20\n      add\n      swap1\n      dup2\n      mstore\n      0x20\n      add\n      0x00\n      keccak256\n      0x00\n        /* \"contracts/aerodrome/factories/PoolFactory.sol\":5043:5082  _getPool[token0][token1][stable] = pool */\n      0x0100\n      exp\n      dup2\n      sload\n      dup2\n      0xffffffffffffffffffffffffffffffffffffffff\n      mul\n      not\n      and\n      swap1\n      dup4\n      0xffffffffffffffffffffffffffffffffffffffff\n      and\n      mul\n      or\n      swap1\n      sstore\n      pop\n        /* \"contracts/aerodrome/factories/PoolFactory.sol\":5127:5131  pool */\n      dup4\n        /* \"contracts/aerodrome/factories/PoolFactory.sol\":5092:5100  _getPool */\n      0x05\n        /* \"contracts/aerodrome/factories/PoolFactory.sol\":5092:5108  _getPool[token1] */\n      0x00\n        /* \"contracts/aerodrome/factories/PoolFactory.sol\":5101:5107  token1 */\n      dup5\n        /* \"contracts/aerodrome/factories/PoolFactory.sol\":5092:5108  _getPool[token1] */\n      0xffffffffffffffffffffffffffffffffffffffff\n      and\n      0xffffffffffffffffffffffffffffffffffffffff\n      and\n      dup2\n      mstore\n      0x20\n      add\n      swap1\n      dup2\n      mstore\n      0x20\n      add\n      0x00\n      keccak256\n        /* \"contracts/aerodrome/factories/PoolFactory.sol\":5092:5116  _getPool[token1][token0] */\n      0x00\n        /* \"contracts/aerodrome/factories/PoolFactory.sol\":5109:5115  token0 */\n      dup6\n        /* \"contracts/aerodrome/factories/PoolFactory.sol\":5092:5116  _getPool[token1][token0] */\n      0xffffffffffffffffffffffffffffffffffffffff\n      and\n      0xffffffffffffffffffffffffffffffffffffffff\n      and\n      dup2\n      mstore\n      0x20\n      add\n      swap1\n      dup2\n      mstore\n      0x20\n      add\n      0x00\n      keccak256\n        /* \"contracts/aerodrome/factories/PoolFactory.sol\":5092:5124  _getPool[token1][token0][stable] */\n      0x00\n        /* \"contracts/aerodrome/factories/PoolFactory.sol\":5117:5123  stable */\n      dup8\n        /* \"contracts/aerodrome/factories/PoolFactory.sol\":5092:5124  _getPool[token1][token0][stable] */\n      iszero\n      iszero\n      iszero\n      iszero\n      dup2\n      mstore\n      0x20\n      add\n      swap1\n      dup2\n      mstore\n      0x20\n      add\n      0x00\n      keccak256\n      0x00\n        /* \"contracts/aerodrome/factories/PoolFactory.sol\":5092:5131  _getPool[token1][token0][stable] = pool */\n      0x0100\n      exp\n      dup2\n      sload\n      dup2\n      0xffffffffffffffffffffffffffffffffffffffff\n      mul\n      not\n      and\n      swap1\n      dup4\n      0xffffffffffffffffffffffffffffffffffffffff\n      and\n      mul\n      or\n      swap1\n      sstore\n      pop\n        /* \"contracts/aerodrome/factories/PoolFactory.sol\":5186:5194  allPools */\n      0x06\n        /* \"contracts/aerodrome/factories/PoolFactory.sol\":5200:5204  pool */\n      dup5\n        /* \"contracts/aerodrome/factories/PoolFactory.sol\":5186:5205  allPools.push(pool) */\n      swap1\n      dup1\n      0x01\n      dup2\n      sload\n      add\n      dup1\n      dup3\n      sstore\n      dup1\n      swap2\n      pop\n      pop\n      0x01\n      swap1\n      sub\n      swap1\n      0x00\n      mstore\n      keccak256(0x00, 0x20)\n      add\n      0x00\n      swap1\n      swap2\n      swap1\n      swap2\n      swap1\n      swap2\n      0x0100\n      exp\n      dup2\n      sload\n      dup2\n      0xffffffffffffffffffffffffffffffffffffffff\n      mul\n      not\n      and\n      swap1\n      dup4\n      0xffffffffffffffffffffffffffffffffffffffff\n      and\n      mul\n      or\n      swap1\n      sstore\n      pop\n        /* \"contracts/aerodrome/factories/PoolFactory.sol\":5231:5235  true */\n      0x01\n        /* \"contracts/aerodrome/factories/PoolFactory.sol\":5215:5222  _isPool */\n      0x07\n        /* \"contracts/aerodrome/factories/PoolFactory.sol\":5215:5228  _isPool[pool] */\n      0x00\n        /* \"contracts/aerodrome/factories/PoolFactory.sol\":5223:5227  pool */\n      dup7\n        /* \"contracts/aerodrome/factories/PoolFactory.sol\":5215:5228  _isPool[pool] */\n      0xffffffffffffffffffffffffffffffffffffffff\n      and\n      0xffffffffffffffffffffffffffffffffffffffff\n      and\n      dup2\n      mstore\n      0x20\n      add\n      swap1\n      dup2\n      mstore\n      0x20\n      add\n      0x00\n      keccak256\n      0x00\n        /* \"contracts/aerodrome/factories/PoolFactory.sol\":5215:5235  _isPool[pool] = true */\n      0x0100\n      exp\n      dup2\n      sload\n      dup2\n      0xff\n      mul\n      not\n      and\n      swap1\n      dup4\n      iszero\n      iszero\n      mul\n      or\n      swap1\n      sstore\n      pop\n        /* \"contracts/aerodrome/factories/PoolFactory.sol\":5278:5284  stable */\n      dup5\n        /* \"contracts/aerodrome/factories/PoolFactory.sol\":5250:5308  PoolCreated(token0, token1, stable, pool, allPools.length) */\n      iszero\n      iszero\n        /* \"contracts/aerodrome/factories/PoolFactory.sol\":5270:5276  token1 */\n      dup3\n        /* \"contracts/aerodrome/factories/PoolFactory.sol\":5250:5308  PoolCreated(token0, token1, stable, pool, allPools.length) */\n      0xffffffffffffffffffffffffffffffffffffffff\n      and\n        /* \"contracts/aerodrome/factories/PoolFactory.sol\":5262:5268  token0 */\n      dup5\n        /* \"contracts/aerodrome/factories/PoolFactory.sol\":5250:5308  PoolCreated(token0, token1, stable, pool, allPools.length) */\n      0xffffffffffffffffffffffffffffffffffffffff\n      and\n      0x2128d88d14c80cb081c1252a5acff7a264671bf199ce226b53788fb26065005e\n        /* \"contracts/aerodrome/factories/PoolFactory.sol\":5286:5290  pool */\n      dup8\n        /* \"contracts/aerodrome/factories/PoolFactory.sol\":5292:5300  allPools */\n      0x06\n        /* \"contracts/aerodrome/factories/PoolFactory.sol\":5292:5307  allPools.length */\n      dup1\n      sload\n      swap1\n      pop\n        /* \"contracts/aerodrome/factories/PoolFactory.sol\":5250:5308  PoolCreated(token0, token1, stable, pool, allPools.length) */\n      mload(0x40)\n      tag_146\n      swap3\n      swap2\n      swap1\n      tag_147\n      jump\t// in\n    tag_146:\n      mload(0x40)\n      dup1\n      swap2\n      sub\n      swap1\n      log4\n        /* \"contracts/aerodrome/factories/PoolFactory.sol\":4497:5315  {... */\n      pop\n      pop\n      pop\n        /* \"contracts/aerodrome/factories/PoolFactory.sol\":4402:5315  function createPool(address tokenA, address tokenB, bool stable) public returns (address pool) {... */\n      swap4\n      swap3\n      pop\n      pop\n      pop\n      jump\t// out\n        /* \"contracts/aerodrome/factories/PoolFactory.sol\":645:693  uint256 public constant ZERO_FEE_INDICATOR = 420 */\n    tag_46:\n        /* \"contracts/aerodrome/factories/PoolFactory.sol\":690:693  420 */\n      0x01a4\n        /* \"contracts/aerodrome/factories/PoolFactory.sol\":645:693  uint256 public constant ZERO_FEE_INDICATOR = 420 */\n      dup2\n      jump\t// out\n        /* \"contracts/aerodrome/factories/PoolFactory.sol\":389:413  uint256 public stableFee */\n    tag_50:\n      sload(0x01)\n      dup2\n      jump\t// out\n        /* \"contracts/aerodrome/factories/PoolFactory.sol\":929:954  address[] public allPools */\n    tag_55:\n      0x06\n      dup2\n      dup2\n      sload\n      dup2\n      lt\n      tag_148\n      jumpi\n      0x00\n      dup1\n      revert\n    tag_148:\n      swap1\n      0x00\n      mstore\n      keccak256(0x00, 0x20)\n      add\n      0x00\n      swap2\n      pop\n      sload\n      swap1\n      0x0100\n      exp\n      swap1\n      div\n      0xffffffffffffffffffffffffffffffffffffffff\n      and\n      dup2\n      jump\t// out\n        /* \"contracts/aerodrome/factories/PoolFactory.sol\":815:835  address public voter */\n    tag_58:\n      0x04\n      0x00\n      swap1\n      sload\n      swap1\n      0x0100\n      exp\n      swap1\n      div\n      0xffffffffffffffffffffffffffffffffffffffff\n      and\n      dup2\n      jump\t// out\n        /* \"contracts/aerodrome/factories/PoolFactory.sol\":2854:3112  function setFeeManager(address _feeManager) external {... */\n    tag_62:\n        /* \"contracts/aerodrome/factories/PoolFactory.sol\":2935:2945  feeManager */\n      0x03\n      0x00\n      swap1\n      sload\n      swap1\n      0x0100\n      exp\n      swap1\n      div\n      0xffffffffffffffffffffffffffffffffffffffff\n      and\n        /* \"contracts/aerodrome/factories/PoolFactory.sol\":2921:2945  msg.sender != feeManager */\n      0xffffffffffffffffffffffffffffffffffffffff\n      and\n        /* \"contracts/aerodrome/factories/PoolFactory.sol\":2921:2931  msg.sender */\n      caller\n        /* \"contracts/aerodrome/factories/PoolFactory.sol\":2921:2945  msg.sender != feeManager */\n      0xffffffffffffffffffffffffffffffffffffffff\n      and\n      eq\n        /* \"contracts/aerodrome/factories/PoolFactory.sol\":2917:2969  if (msg.sender != feeManager) revert NotFeeManager() */\n      tag_151\n      jumpi\n        /* \"contracts/aerodrome/factories/PoolFactory.sol\":2954:2969  NotFeeManager() */\n      mload(0x40)\n      0xf5d267eb00000000000000000000000000000000000000000000000000000000\n      dup2\n      mstore\n      0x04\n      add\n      mload(0x40)\n      dup1\n      swap2\n      sub\n      swap1\n      revert\n        /* \"contracts/aerodrome/factories/PoolFactory.sol\":2917:2969  if (msg.sender != feeManager) revert NotFeeManager() */\n    tag_151:\n        /* \"contracts/aerodrome/factories/PoolFactory.sol\":3006:3007  0 */\n      0x00\n        /* \"contracts/aerodrome/factories/PoolFactory.sol\":2983:3008  _feeManager == address(0) */\n      0xffffffffffffffffffffffffffffffffffffffff\n      and\n        /* \"contracts/aerodrome/factories/PoolFactory.sol\":2983:2994  _feeManager */\n      dup2\n        /* \"contracts/aerodrome/factories/PoolFactory.sol\":2983:3008  _feeManager == address(0) */\n      0xffffffffffffffffffffffffffffffffffffffff\n      and\n      sub\n        /* \"contracts/aerodrome/factories/PoolFactory.sol\":2979:3030  if (_feeManager == address(0)) revert ZeroAddress() */\n      tag_152\n      jumpi\n        /* \"contracts/aerodrome/factories/PoolFactory.sol\":3017:3030  ZeroAddress() */\n      mload(0x40)\n      0xd92e233d00000000000000000000000000000000000000000000000000000000\n      dup2\n      mstore\n      0x04\n      add\n      mload(0x40)\n      dup1\n      swap2\n      sub\n      swap1\n      revert\n        /* \"contracts/aerodrome/factories/PoolFactory.sol\":2979:3030  if (_feeManager == address(0)) revert ZeroAddress() */\n    tag_152:\n        /* \"contracts/aerodrome/factories/PoolFactory.sol\":3053:3064  _feeManager */\n      dup1\n        /* \"contracts/aerodrome/factories/PoolFactory.sol\":3040:3050  feeManager */\n      0x03\n      0x00\n        /* \"contracts/aerodrome/factories/PoolFactory.sol\":3040:3064  feeManager = _feeManager */\n      0x0100\n      exp\n      dup2\n      sload\n      dup2\n      0xffffffffffffffffffffffffffffffffffffffff\n      mul\n      not\n      and\n      swap1\n      dup4\n      0xffffffffffffffffffffffffffffffffffffffff\n      and\n      mul\n      or\n      swap1\n      sstore\n      pop\n        /* \"contracts/aerodrome/factories/PoolFactory.sol\":3079:3105  SetFeeManager(_feeManager) */\n      0x5d0517e3a4eabea892d9750138cd21d4a6cf3b935b43d0598df7055f463819b2\n        /* \"contracts/aerodrome/factories/PoolFactory.sol\":3093:3104  _feeManager */\n      dup2\n        /* \"contracts/aerodrome/factories/PoolFactory.sol\":3079:3105  SetFeeManager(_feeManager) */\n      mload(0x40)\n      tag_153\n      swap2\n      swap1\n      tag_35\n      jump\t// in\n    tag_153:\n      mload(0x40)\n      dup1\n      swap2\n      sub\n      swap1\n      log1\n        /* \"contracts/aerodrome/factories/PoolFactory.sol\":2854:3112  function setFeeManager(address _feeManager) external {... */\n      pop\n      jump\t// out\n        /* \"contracts/aerodrome/factories/PoolFactory.sol\":2288:2445  function setVoter(address _voter) external {... */\n    tag_65:\n        /* \"contracts/aerodrome/factories/PoolFactory.sol\":2359:2364  voter */\n      0x04\n      0x00\n      swap1\n      sload\n      swap1\n      0x0100\n      exp\n      swap1\n      div\n      0xffffffffffffffffffffffffffffffffffffffff\n      and\n        /* \"contracts/aerodrome/factories/PoolFactory.sol\":2345:2364  msg.sender != voter */\n      0xffffffffffffffffffffffffffffffffffffffff\n      and\n        /* \"contracts/aerodrome/factories/PoolFactory.sol\":2345:2355  msg.sender */\n      caller\n        /* \"contracts/aerodrome/factories/PoolFactory.sol\":2345:2364  msg.sender != voter */\n      0xffffffffffffffffffffffffffffffffffffffff\n      and\n      eq\n        /* \"contracts/aerodrome/factories/PoolFactory.sol\":2341:2383  if (msg.sender != voter) revert NotVoter() */\n      tag_155\n      jumpi\n        /* \"contracts/aerodrome/factories/PoolFactory.sol\":2373:2383  NotVoter() */\n      mload(0x40)\n      0xc18384c100000000000000000000000000000000000000000000000000000000\n      dup2\n      mstore\n      0x04\n      add\n      mload(0x40)\n      dup1\n      swap2\n      sub\n      swap1\n      revert\n        /* \"contracts/aerodrome/factories/PoolFactory.sol\":2341:2383  if (msg.sender != voter) revert NotVoter() */\n    tag_155:\n        /* \"contracts/aerodrome/factories/PoolFactory.sol\":2401:2407  _voter */\n      dup1\n        /* \"contracts/aerodrome/factories/PoolFactory.sol\":2393:2398  voter */\n      0x04\n      0x00\n        /* \"contracts/aerodrome/factories/PoolFactory.sol\":2393:2407  voter = _voter */\n      0x0100\n      exp\n      dup2\n      sload\n      dup2\n      0xffffffffffffffffffffffffffffffffffffffff\n      mul\n      not\n      and\n      swap1\n      dup4\n      0xffffffffffffffffffffffffffffffffffffffff\n      and\n      mul\n      or\n      swap1\n      sstore\n      pop\n        /* \"contracts/aerodrome/factories/PoolFactory.sol\":2422:2438  SetVoter(_voter) */\n      0xc6ff127433b785c51da9ae4088ee184c909b1a55b9afd82ae6c64224d3bc15d2\n        /* \"contracts/aerodrome/factories/PoolFactory.sol\":2431:2437  _voter */\n      dup2\n        /* \"contracts/aerodrome/factories/PoolFactory.sol\":2422:2438  SetVoter(_voter) */\n      mload(0x40)\n      tag_156\n      swap2\n      swap1\n      tag_35\n      jump\t// in\n    tag_156:\n      mload(0x40)\n      dup1\n      swap2\n      sub\n      swap1\n      log1\n        /* \"contracts/aerodrome/factories/PoolFactory.sol\":2288:2445  function setVoter(address _voter) external {... */\n      pop\n      jump\t// out\n        /* \"contracts/aerodrome/factories/PoolFactory.sol\":1104:1148  mapping(address => uint256) public customFee */\n    tag_68:\n      mstore(0x20, 0x08)\n      dup1\n      0x00\n      mstore\n      keccak256(0x00, 0x40)\n      0x00\n      swap2\n      pop\n      swap1\n      pop\n      sload\n      dup2\n      jump\t// out\n        /* \"contracts/aerodrome/factories/PoolFactory.sol\":419:445  uint256 public volatileFee */\n    tag_71:\n      sload(0x02)\n      dup2\n      jump\t// out\n        /* \"contracts/aerodrome/factories/PoolFactory.sol\":2153:2249  function isPool(address pool) external view returns (bool) {... */\n    tag_75:\n        /* \"contracts/aerodrome/factories/PoolFactory.sol\":2206:2210  bool */\n      0x00\n        /* \"contracts/aerodrome/factories/PoolFactory.sol\":2229:2236  _isPool */\n      0x07\n        /* \"contracts/aerodrome/factories/PoolFactory.sol\":2229:2242  _isPool[pool] */\n      0x00\n        /* \"contracts/aerodrome/factories/PoolFactory.sol\":2237:2241  pool */\n      dup4\n        /* \"contracts/aerodrome/factories/PoolFactory.sol\":2229:2242  _isPool[pool] */\n      0xffffffffffffffffffffffffffffffffffffffff\n      and\n      0xffffffffffffffffffffffffffffffffffffffff\n      and\n      dup2\n      mstore\n      0x20\n      add\n      swap1\n      dup2\n      mstore\n      0x20\n      add\n      0x00\n      keccak256\n      0x00\n      swap1\n      sload\n      swap1\n      0x0100\n      exp\n      swap1\n      div\n      0xff\n      and\n        /* \"contracts/aerodrome/factories/PoolFactory.sol\":2222:2242  return _isPool[pool] */\n      swap1\n      pop\n        /* \"contracts/aerodrome/factories/PoolFactory.sol\":2153:2249  function isPool(address pool) external view returns (bool) {... */\n      swap2\n      swap1\n      pop\n      jump\t// out\n        /* \"contracts/aerodrome/factories/PoolFactory.sol\":289:328  address public immutable implementation */\n    tag_79:\n      immutable(\"0xdab92d3cfd2fb10847c732668f5be4f526313d660461529e6720c950cca9ea28\")\n      dup2\n      jump\t// out\n        /* \"contracts/aerodrome/factories/PoolFactory.sol\":1964:2114  function getPool(address tokenA, address tokenB, bool stable) external view returns (address) {... */\n    tag_83:\n        /* \"contracts/aerodrome/factories/PoolFactory.sol\":2049:2056  address */\n      0x00\n        /* \"contracts/aerodrome/factories/PoolFactory.sol\":2075:2083  _getPool */\n      0x05\n        /* \"contracts/aerodrome/factories/PoolFactory.sol\":2075:2091  _getPool[tokenA] */\n      0x00\n        /* \"contracts/aerodrome/factories/PoolFactory.sol\":2084:2090  tokenA */\n      dup6\n        /* \"contracts/aerodrome/factories/PoolFactory.sol\":2075:2091  _getPool[tokenA] */\n      0xffffffffffffffffffffffffffffffffffffffff\n      and\n      0xffffffffffffffffffffffffffffffffffffffff\n      and\n      dup2\n      mstore\n      0x20\n      add\n      swap1\n      dup2\n      mstore\n      0x20\n      add\n      0x00\n      keccak256\n        /* \"contracts/aerodrome/factories/PoolFactory.sol\":2075:2099  _getPool[tokenA][tokenB] */\n      0x00\n        /* \"contracts/aerodrome/factories/PoolFactory.sol\":2092:2098  tokenB */\n      dup5\n        /* \"contracts/aerodrome/factories/PoolFactory.sol\":2075:2099  _getPool[tokenA][tokenB] */\n      0xffffffffffffffffffffffffffffffffffffffff\n      and\n      0xffffffffffffffffffffffffffffffffffffffff\n      and\n      dup2\n      mstore\n      0x20\n      add\n      swap1\n      dup2\n      mstore\n      0x20\n      add\n      0x00\n      keccak256\n        /* \"contracts/aerodrome/factories/PoolFactory.sol\":2075:2107  _getPool[tokenA][tokenB][stable] */\n      0x00\n        /* \"contracts/aerodrome/factories/PoolFactory.sol\":2100:2106  stable */\n      dup4\n        /* \"contracts/aerodrome/factories/PoolFactory.sol\":2075:2107  _getPool[tokenA][tokenB][stable] */\n      iszero\n      iszero\n      iszero\n      iszero\n      dup2\n      mstore\n      0x20\n      add\n      swap1\n      dup2\n      mstore\n      0x20\n      add\n      0x00\n      keccak256\n      0x00\n      swap1\n      sload\n      swap1\n      0x0100\n      exp\n      swap1\n      div\n      0xffffffffffffffffffffffffffffffffffffffff\n      and\n        /* \"contracts/aerodrome/factories/PoolFactory.sol\":2068:2107  return _getPool[tokenA][tokenB][stable] */\n      swap1\n      pop\n        /* \"contracts/aerodrome/factories/PoolFactory.sol\":1964:2114  function getPool(address tokenA, address tokenB, bool stable) external view returns (address) {... */\n      swap4\n      swap3\n      pop\n      pop\n      pop\n      jump\t// out\n        /* \"contracts/aerodrome/factories/PoolFactory.sol\":361:382  address public pauser */\n    tag_86:\n      0x00\n      0x01\n      swap1\n      sload\n      swap1\n      0x0100\n      exp\n      swap1\n      div\n      0xffffffffffffffffffffffffffffffffffffffff\n      and\n      dup2\n      jump\t// out\n        /* \"contracts/aerodrome/factories/PoolFactory.sol\":4135:4363  function createPool(address tokenA, address tokenB, uint24 fee) external returns (address pool) {... */\n    tag_90:\n        /* \"contracts/aerodrome/factories/PoolFactory.sol\":4217:4229  address pool */\n      0x00\n        /* \"contracts/aerodrome/factories/PoolFactory.sol\":4251:4252  1 */\n      0x01\n        /* \"contracts/aerodrome/factories/PoolFactory.sol\":4245:4248  fee */\n      dup3\n        /* \"contracts/aerodrome/factories/PoolFactory.sol\":4245:4252  fee > 1 */\n      0xffffff\n      and\n      gt\n        /* \"contracts/aerodrome/factories/PoolFactory.sol\":4241:4273  if (fee > 1) revert FeeInvalid() */\n      iszero\n      tag_160\n      jumpi\n        /* \"contracts/aerodrome/factories/PoolFactory.sol\":4261:4273  FeeInvalid() */\n      mload(0x40)\n      0x52dadcf900000000000000000000000000000000000000000000000000000000\n      dup2\n      mstore\n      0x04\n      add\n      mload(0x40)\n      dup1\n      swap2\n      sub\n      swap1\n      revert\n        /* \"contracts/aerodrome/factories/PoolFactory.sol\":4241:4273  if (fee > 1) revert FeeInvalid() */\n    tag_160:\n        /* \"contracts/aerodrome/factories/PoolFactory.sol\":4283:4294  bool stable */\n      0x00\n        /* \"contracts/aerodrome/factories/PoolFactory.sol\":4304:4305  1 */\n      0x01\n        /* \"contracts/aerodrome/factories/PoolFactory.sol\":4297:4300  fee */\n      dup4\n        /* \"contracts/aerodrome/factories/PoolFactory.sol\":4297:4305  fee == 1 */\n      0xffffff\n      and\n      eq\n        /* \"contracts/aerodrome/factories/PoolFactory.sol\":4283:4305  bool stable = fee == 1 */\n      swap1\n      pop\n        /* \"contracts/aerodrome/factories/PoolFactory.sol\":4322:4356  createPool(tokenA, tokenB, stable) */\n      tag_161\n        /* \"contracts/aerodrome/factories/PoolFactory.sol\":4333:4339  tokenA */\n      dup6\n        /* \"contracts/aerodrome/factories/PoolFactory.sol\":4341:4347  tokenB */\n      dup6\n        /* \"contracts/aerodrome/factories/PoolFactory.sol\":4349:4355  stable */\n      dup4\n        /* \"contracts/aerodrome/factories/PoolFactory.sol\":4322:4332  createPool */\n      tag_43\n        /* \"contracts/aerodrome/factories/PoolFactory.sol\":4322:4356  createPool(tokenA, tokenB, stable) */\n      jump\t// in\n    tag_161:\n        /* \"contracts/aerodrome/factories/PoolFactory.sol\":4315:4356  return createPool(tokenA, tokenB, stable) */\n      swap2\n      pop\n      pop\n        /* \"contracts/aerodrome/factories/PoolFactory.sol\":4135:4363  function createPool(address tokenA, address tokenB, uint24 fee) external returns (address pool) {... */\n      swap4\n      swap3\n      pop\n      pop\n      pop\n      jump\t// out\n        /* \"contracts/aerodrome/factories/PoolFactory.sol\":335:355  bool public isPaused */\n    tag_93:\n      0x00\n      dup1\n      sload\n      swap1\n      0x0100\n      exp\n      swap1\n      div\n      0xff\n      and\n      dup2\n      jump\t// out\n        /* \"contracts/aerodrome/factories/PoolFactory.sol\":451:488  uint256 public constant MAX_FEE = 300 */\n    tag_96:\n        /* \"contracts/aerodrome/factories/PoolFactory.sol\":485:488  300 */\n      0x012c\n        /* \"contracts/aerodrome/factories/PoolFactory.sol\":451:488  uint256 public constant MAX_FEE = 300 */\n      dup2\n      jump\t// out\n        /* \"contracts/aerodrome/factories/PoolFactory.sol\":3877:4096  function getFee(address pool, bool _stable) public view returns (uint256) {... */\n    tag_101:\n        /* \"contracts/aerodrome/factories/PoolFactory.sol\":3942:3949  uint256 */\n      0x00\n        /* \"contracts/aerodrome/factories/PoolFactory.sol\":3961:3972  uint256 fee */\n      dup1\n        /* \"contracts/aerodrome/factories/PoolFactory.sol\":3975:3984  customFee */\n      0x08\n        /* \"contracts/aerodrome/factories/PoolFactory.sol\":3975:3990  customFee[pool] */\n      0x00\n        /* \"contracts/aerodrome/factories/PoolFactory.sol\":3985:3989  pool */\n      dup6\n        /* \"contracts/aerodrome/factories/PoolFactory.sol\":3975:3990  customFee[pool] */\n      0xffffffffffffffffffffffffffffffffffffffff\n      and\n      0xffffffffffffffffffffffffffffffffffffffff\n      and\n      dup2\n      mstore\n      0x20\n      add\n      swap1\n      dup2\n      mstore\n      0x20\n      add\n      0x00\n      keccak256\n      sload\n        /* \"contracts/aerodrome/factories/PoolFactory.sol\":3961:3990  uint256 fee = customFee[pool] */\n      swap1\n      pop\n        /* \"contracts/aerodrome/factories/PoolFactory.sol\":690:693  420 */\n      0x01a4\n        /* \"contracts/aerodrome/factories/PoolFactory.sol\":4007:4010  fee */\n      dup2\n        /* \"contracts/aerodrome/factories/PoolFactory.sol\":4007:4032  fee == ZERO_FEE_INDICATOR */\n      eq\n        /* \"contracts/aerodrome/factories/PoolFactory.sol\":4007:4089  fee == ZERO_FEE_INDICATOR ? 0 : fee != 0 ? fee : _stable ? stableFee : volatileFee */\n      tag_163\n      jumpi\n        /* \"contracts/aerodrome/factories/PoolFactory.sol\":4046:4047  0 */\n      0x00\n        /* \"contracts/aerodrome/factories/PoolFactory.sol\":4039:4042  fee */\n      dup2\n        /* \"contracts/aerodrome/factories/PoolFactory.sol\":4039:4047  fee != 0 */\n      sub\n        /* \"contracts/aerodrome/factories/PoolFactory.sol\":4039:4089  fee != 0 ? fee : _stable ? stableFee : volatileFee */\n      tag_164\n      jumpi\n        /* \"contracts/aerodrome/factories/PoolFactory.sol\":4056:4063  _stable */\n      dup3\n        /* \"contracts/aerodrome/factories/PoolFactory.sol\":4056:4089  _stable ? stableFee : volatileFee */\n      tag_165\n      jumpi\n        /* \"contracts/aerodrome/factories/PoolFactory.sol\":4078:4089  volatileFee */\n      sload(0x02)\n        /* \"contracts/aerodrome/factories/PoolFactory.sol\":4056:4089  _stable ? stableFee : volatileFee */\n      jump(tag_166)\n    tag_165:\n        /* \"contracts/aerodrome/factories/PoolFactory.sol\":4066:4075  stableFee */\n      sload(0x01)\n        /* \"contracts/aerodrome/factories/PoolFactory.sol\":4056:4089  _stable ? stableFee : volatileFee */\n    tag_166:\n        /* \"contracts/aerodrome/factories/PoolFactory.sol\":4039:4089  fee != 0 ? fee : _stable ? stableFee : volatileFee */\n      jump(tag_167)\n    tag_164:\n        /* \"contracts/aerodrome/factories/PoolFactory.sol\":4050:4053  fee */\n      dup1\n        /* \"contracts/aerodrome/factories/PoolFactory.sol\":4039:4089  fee != 0 ? fee : _stable ? stableFee : volatileFee */\n    tag_167:\n        /* \"contracts/aerodrome/factories/PoolFactory.sol\":4007:4089  fee == ZERO_FEE_INDICATOR ? 0 : fee != 0 ? fee : _stable ? stableFee : volatileFee */\n      jump(tag_168)\n    tag_163:\n        /* \"contracts/aerodrome/factories/PoolFactory.sol\":4035:4036  0 */\n      0x00\n        /* \"contracts/aerodrome/factories/PoolFactory.sol\":4007:4089  fee == ZERO_FEE_INDICATOR ? 0 : fee != 0 ? fee : _stable ? stableFee : volatileFee */\n    tag_168:\n        /* \"contracts/aerodrome/factories/PoolFactory.sol\":4000:4089  return fee == ZERO_FEE_INDICATOR ? 0 : fee != 0 ? fee : _stable ? stableFee : volatileFee */\n      swap2\n      pop\n      pop\n        /* \"contracts/aerodrome/factories/PoolFactory.sol\":3877:4096  function getFee(address pool, bool _stable) public view returns (uint256) {... */\n      swap3\n      swap2\n      pop\n      pop\n      jump\t// out\n        /* \"contracts/aerodrome/factories/PoolFactory.sol\":2679:2848  function setPauseState(bool _state) external {... */\n    tag_106:\n        /* \"contracts/aerodrome/factories/PoolFactory.sol\":2752:2758  pauser */\n      0x00\n      0x01\n      swap1\n      sload\n      swap1\n      0x0100\n      exp\n      swap1\n      div\n      0xffffffffffffffffffffffffffffffffffffffff\n      and\n        /* \"contracts/aerodrome/factories/PoolFactory.sol\":2738:2758  msg.sender != pauser */\n      0xffffffffffffffffffffffffffffffffffffffff\n      and\n        /* \"contracts/aerodrome/factories/PoolFactory.sol\":2738:2748  msg.sender */\n      caller\n        /* \"contracts/aerodrome/factories/PoolFactory.sol\":2738:2758  msg.sender != pauser */\n      0xffffffffffffffffffffffffffffffffffffffff\n      and\n      eq\n        /* \"contracts/aerodrome/factories/PoolFactory.sol\":2734:2778  if (msg.sender != pauser) revert NotPauser() */\n      tag_170\n      jumpi\n        /* \"contracts/aerodrome/factories/PoolFactory.sol\":2767:2778  NotPauser() */\n      mload(0x40)\n      0x492f678100000000000000000000000000000000000000000000000000000000\n      dup2\n      mstore\n      0x04\n      add\n      mload(0x40)\n      dup1\n      swap2\n      sub\n      swap1\n      revert\n        /* \"contracts/aerodrome/factories/PoolFactory.sol\":2734:2778  if (msg.sender != pauser) revert NotPauser() */\n    tag_170:\n        /* \"contracts/aerodrome/factories/PoolFactory.sol\":2799:2805  _state */\n      dup1\n        /* \"contracts/aerodrome/factories/PoolFactory.sol\":2788:2796  isPaused */\n      0x00\n      dup1\n        /* \"contracts/aerodrome/factories/PoolFactory.sol\":2788:2805  isPaused = _state */\n      0x0100\n      exp\n      dup2\n      sload\n      dup2\n      0xff\n      mul\n      not\n      and\n      swap1\n      dup4\n      iszero\n      iszero\n      mul\n      or\n      swap1\n      sstore\n      pop\n        /* \"contracts/aerodrome/factories/PoolFactory.sol\":2820:2841  SetPauseState(_state) */\n      0x0d76538efc408318a051137c2720a9e82902acdbd46b802d488b74ca3a09a116\n        /* \"contracts/aerodrome/factories/PoolFactory.sol\":2834:2840  _state */\n      dup2\n        /* \"contracts/aerodrome/factories/PoolFactory.sol\":2820:2841  SetPauseState(_state) */\n      mload(0x40)\n      tag_171\n      swap2\n      swap1\n      tag_77\n      jump\t// in\n    tag_171:\n      mload(0x40)\n      dup1\n      swap2\n      sub\n      swap1\n      log1\n        /* \"contracts/aerodrome/factories/PoolFactory.sol\":2679:2848  function setPauseState(bool _state) external {... */\n      pop\n      jump\t// out\n        /* \"contracts/aerodrome/factories/PoolFactory.sol\":699:724  address public feeManager */\n    tag_108:\n      0x03\n      0x00\n      swap1\n      sload\n      swap1\n      0x0100\n      exp\n      swap1\n      div\n      0xffffffffffffffffffffffffffffffffffffffff\n      and\n      dup2\n      jump\t// out\n        /* \"contracts/aerodrome/factories/PoolFactory.sol\":3514:3838  function setCustomFee(address pool, uint256 fee) external {... */\n    tag_113:\n        /* \"contracts/aerodrome/factories/PoolFactory.sol\":3600:3610  feeManager */\n      0x03\n      0x00\n      swap1\n      sload\n      swap1\n      0x0100\n      exp\n      swap1\n      div\n      0xffffffffffffffffffffffffffffffffffffffff\n      and\n        /* \"contracts/aerodrome/factories/PoolFactory.sol\":3586:3610  msg.sender != feeManager */\n      0xffffffffffffffffffffffffffffffffffffffff\n      and\n        /* \"contracts/aerodrome/factories/PoolFactory.sol\":3586:3596  msg.sender */\n      caller\n        /* \"contracts/aerodrome/factories/PoolFactory.sol\":3586:3610  msg.sender != feeManager */\n      0xffffffffffffffffffffffffffffffffffffffff\n      and\n      eq\n        /* \"contracts/aerodrome/factories/PoolFactory.sol\":3582:3634  if (msg.sender != feeManager) revert NotFeeManager() */\n      tag_173\n      jumpi\n        /* \"contracts/aerodrome/factories/PoolFactory.sol\":3619:3634  NotFeeManager() */\n      mload(0x40)\n      0xf5d267eb00000000000000000000000000000000000000000000000000000000\n      dup2\n      mstore\n      0x04\n      add\n      mload(0x40)\n      dup1\n      swap2\n      sub\n      swap1\n      revert\n        /* \"contracts/aerodrome/factories/PoolFactory.sol\":3582:3634  if (msg.sender != feeManager) revert NotFeeManager() */\n    tag_173:\n        /* \"contracts/aerodrome/factories/PoolFactory.sol\":485:488  300 */\n      0x012c\n        /* \"contracts/aerodrome/factories/PoolFactory.sol\":3648:3651  fee */\n      dup2\n        /* \"contracts/aerodrome/factories/PoolFactory.sol\":3648:3661  fee > MAX_FEE */\n      gt\n        /* \"contracts/aerodrome/factories/PoolFactory.sol\":3648:3690  fee > MAX_FEE && fee != ZERO_FEE_INDICATOR */\n      dup1\n      iszero\n      tag_174\n      jumpi\n      pop\n        /* \"contracts/aerodrome/factories/PoolFactory.sol\":690:693  420 */\n      0x01a4\n        /* \"contracts/aerodrome/factories/PoolFactory.sol\":3665:3668  fee */\n      dup2\n        /* \"contracts/aerodrome/factories/PoolFactory.sol\":3665:3690  fee != ZERO_FEE_INDICATOR */\n      eq\n      iszero\n        /* \"contracts/aerodrome/factories/PoolFactory.sol\":3648:3690  fee > MAX_FEE && fee != ZERO_FEE_INDICATOR */\n    tag_174:\n        /* \"contracts/aerodrome/factories/PoolFactory.sol\":3644:3711  if (fee > MAX_FEE && fee != ZERO_FEE_INDICATOR) revert FeeTooHigh() */\n      iszero\n      tag_175\n      jumpi\n        /* \"contracts/aerodrome/factories/PoolFactory.sol\":3699:3711  FeeTooHigh() */\n      mload(0x40)\n      0xcd4e616700000000000000000000000000000000000000000000000000000000\n      dup2\n      mstore\n      0x04\n      add\n      mload(0x40)\n      dup1\n      swap2\n      sub\n      swap1\n      revert\n        /* \"contracts/aerodrome/factories/PoolFactory.sol\":3644:3711  if (fee > MAX_FEE && fee != ZERO_FEE_INDICATOR) revert FeeTooHigh() */\n    tag_175:\n        /* \"contracts/aerodrome/factories/PoolFactory.sol\":3726:3733  _isPool */\n      0x07\n        /* \"contracts/aerodrome/factories/PoolFactory.sol\":3726:3739  _isPool[pool] */\n      0x00\n        /* \"contracts/aerodrome/factories/PoolFactory.sol\":3734:3738  pool */\n      dup4\n        /* \"contracts/aerodrome/factories/PoolFactory.sol\":3726:3739  _isPool[pool] */\n      0xffffffffffffffffffffffffffffffffffffffff\n      and\n      0xffffffffffffffffffffffffffffffffffffffff\n      and\n      dup2\n      mstore\n      0x20\n      add\n      swap1\n      dup2\n      mstore\n      0x20\n      add\n      0x00\n      keccak256\n      0x00\n      swap1\n      sload\n      swap1\n      0x0100\n      exp\n      swap1\n      div\n      0xff\n      and\n        /* \"contracts/aerodrome/factories/PoolFactory.sol\":3721:3761  if (!_isPool[pool]) revert InvalidPool() */\n      tag_176\n      jumpi\n        /* \"contracts/aerodrome/factories/PoolFactory.sol\":3748:3761  InvalidPool() */\n      mload(0x40)\n      0x2083cd4000000000000000000000000000000000000000000000000000000000\n      dup2\n      mstore\n      0x04\n      add\n      mload(0x40)\n      dup1\n      swap2\n      sub\n      swap1\n      revert\n        /* \"contracts/aerodrome/factories/PoolFactory.sol\":3721:3761  if (!_isPool[pool]) revert InvalidPool() */\n    tag_176:\n        /* \"contracts/aerodrome/factories/PoolFactory.sol\":3790:3793  fee */\n      dup1\n        /* \"contracts/aerodrome/factories/PoolFactory.sol\":3772:3781  customFee */\n      0x08\n        /* \"contracts/aerodrome/factories/PoolFactory.sol\":3772:3787  customFee[pool] */\n      0x00\n        /* \"contracts/aerodrome/factories/PoolFactory.sol\":3782:3786  pool */\n      dup5\n        /* \"contracts/aerodrome/factories/PoolFactory.sol\":3772:3787  customFee[pool] */\n      0xffffffffffffffffffffffffffffffffffffffff\n      and\n      0xffffffffffffffffffffffffffffffffffffffff\n      and\n      dup2\n      mstore\n      0x20\n      add\n      swap1\n      dup2\n      mstore\n      0x20\n      add\n      0x00\n      keccak256\n        /* \"contracts/aerodrome/factories/PoolFactory.sol\":3772:3793  customFee[pool] = fee */\n      dup2\n      swap1\n      sstore\n      pop\n        /* \"contracts/aerodrome/factories/PoolFactory.sol\":3821:3825  pool */\n      dup2\n        /* \"contracts/aerodrome/factories/PoolFactory.sol\":3808:3831  SetCustomFee(pool, fee) */\n      0xffffffffffffffffffffffffffffffffffffffff\n      and\n      0xae468ce586f9a87660fdffc1448cee942042c16ae2f02046b134b5224f31936b\n        /* \"contracts/aerodrome/factories/PoolFactory.sol\":3827:3830  fee */\n      dup3\n        /* \"contracts/aerodrome/factories/PoolFactory.sol\":3808:3831  SetCustomFee(pool, fee) */\n      mload(0x40)\n      tag_177\n      swap2\n      swap1\n      tag_48\n      jump\t// in\n    tag_177:\n      mload(0x40)\n      dup1\n      swap2\n      sub\n      swap1\n      log2\n        /* \"contracts/aerodrome/factories/PoolFactory.sol\":3514:3838  function setCustomFee(address pool, uint256 fee) external {... */\n      pop\n      pop\n      jump\t// out\n        /* \"contracts/aerodrome/factories/PoolFactory.sol\":3151:3475  function setFee(bool _stable, uint256 _fee) external {... */\n    tag_117:\n        /* \"contracts/aerodrome/factories/PoolFactory.sol\":3232:3242  feeManager */\n      0x03\n      0x00\n      swap1\n      sload\n      swap1\n      0x0100\n      exp\n      swap1\n      div\n      0xffffffffffffffffffffffffffffffffffffffff\n      and\n        /* \"contracts/aerodrome/factories/PoolFactory.sol\":3218:3242  msg.sender != feeManager */\n      0xffffffffffffffffffffffffffffffffffffffff\n      and\n        /* \"contracts/aerodrome/factories/PoolFactory.sol\":3218:3228  msg.sender */\n      caller\n        /* \"contracts/aerodrome/factories/PoolFactory.sol\":3218:3242  msg.sender != feeManager */\n      0xffffffffffffffffffffffffffffffffffffffff\n      and\n      eq\n        /* \"contracts/aerodrome/factories/PoolFactory.sol\":3214:3266  if (msg.sender != feeManager) revert NotFeeManager() */\n      tag_179\n      jumpi\n        /* \"contracts/aerodrome/factories/PoolFactory.sol\":3251:3266  NotFeeManager() */\n      mload(0x40)\n      0xf5d267eb00000000000000000000000000000000000000000000000000000000\n      dup2\n      mstore\n      0x04\n      add\n      mload(0x40)\n      dup1\n      swap2\n      sub\n      swap1\n      revert\n        /* \"contracts/aerodrome/factories/PoolFactory.sol\":3214:3266  if (msg.sender != feeManager) revert NotFeeManager() */\n    tag_179:\n        /* \"contracts/aerodrome/factories/PoolFactory.sol\":485:488  300 */\n      0x012c\n        /* \"contracts/aerodrome/factories/PoolFactory.sol\":3280:3284  _fee */\n      dup2\n        /* \"contracts/aerodrome/factories/PoolFactory.sol\":3280:3294  _fee > MAX_FEE */\n      gt\n        /* \"contracts/aerodrome/factories/PoolFactory.sol\":3276:3315  if (_fee > MAX_FEE) revert FeeTooHigh() */\n      iszero\n      tag_180\n      jumpi\n        /* \"contracts/aerodrome/factories/PoolFactory.sol\":3303:3315  FeeTooHigh() */\n      mload(0x40)\n      0xcd4e616700000000000000000000000000000000000000000000000000000000\n      dup2\n      mstore\n      0x04\n      add\n      mload(0x40)\n      dup1\n      swap2\n      sub\n      swap1\n      revert\n        /* \"contracts/aerodrome/factories/PoolFactory.sol\":3276:3315  if (_fee > MAX_FEE) revert FeeTooHigh() */\n    tag_180:\n        /* \"contracts/aerodrome/factories/PoolFactory.sol\":3337:3338  0 */\n      0x00\n        /* \"contracts/aerodrome/factories/PoolFactory.sol\":3329:3333  _fee */\n      dup2\n        /* \"contracts/aerodrome/factories/PoolFactory.sol\":3329:3338  _fee == 0 */\n      sub\n        /* \"contracts/aerodrome/factories/PoolFactory.sol\":3325:3356  if (_fee == 0) revert ZeroFee() */\n      tag_181\n      jumpi\n        /* \"contracts/aerodrome/factories/PoolFactory.sol\":3347:3356  ZeroFee() */\n      mload(0x40)\n      0xaf13986d00000000000000000000000000000000000000000000000000000000\n      dup2\n      mstore\n      0x04\n      add\n      mload(0x40)\n      dup1\n      swap2\n      sub\n      swap1\n      revert\n        /* \"contracts/aerodrome/factories/PoolFactory.sol\":3325:3356  if (_fee == 0) revert ZeroFee() */\n    tag_181:\n        /* \"contracts/aerodrome/factories/PoolFactory.sol\":3370:3377  _stable */\n      dup2\n        /* \"contracts/aerodrome/factories/PoolFactory.sol\":3366:3469  if (_stable) {... */\n      iszero\n      tag_182\n      jumpi\n        /* \"contracts/aerodrome/factories/PoolFactory.sol\":3405:3409  _fee */\n      dup1\n        /* \"contracts/aerodrome/factories/PoolFactory.sol\":3393:3402  stableFee */\n      0x01\n        /* \"contracts/aerodrome/factories/PoolFactory.sol\":3393:3409  stableFee = _fee */\n      dup2\n      swap1\n      sstore\n      pop\n        /* \"contracts/aerodrome/factories/PoolFactory.sol\":3366:3469  if (_stable) {... */\n      jump(tag_183)\n    tag_182:\n        /* \"contracts/aerodrome/factories/PoolFactory.sol\":3454:3458  _fee */\n      dup1\n        /* \"contracts/aerodrome/factories/PoolFactory.sol\":3440:3451  volatileFee */\n      0x02\n        /* \"contracts/aerodrome/factories/PoolFactory.sol\":3440:3458  volatileFee = _fee */\n      dup2\n      swap1\n      sstore\n      pop\n        /* \"contracts/aerodrome/factories/PoolFactory.sol\":3366:3469  if (_stable) {... */\n    tag_183:\n        /* \"contracts/aerodrome/factories/PoolFactory.sol\":3151:3475  function setFee(bool _stable, uint256 _fee) external {... */\n      pop\n      pop\n      jump\t// out\n        /* \"contracts/aerodrome/factories/PoolFactory.sol\":1574:1671  function allPoolsLength() external view returns (uint256) {... */\n    tag_119:\n        /* \"contracts/aerodrome/factories/PoolFactory.sol\":1623:1630  uint256 */\n      0x00\n        /* \"contracts/aerodrome/factories/PoolFactory.sol\":1649:1657  allPools */\n      0x06\n        /* \"contracts/aerodrome/factories/PoolFactory.sol\":1649:1664  allPools.length */\n      dup1\n      sload\n      swap1\n      pop\n        /* \"contracts/aerodrome/factories/PoolFactory.sol\":1642:1664  return allPools.length */\n      swap1\n      pop\n        /* \"contracts/aerodrome/factories/PoolFactory.sol\":1574:1671  function allPoolsLength() external view returns (uint256) {... */\n      swap1\n      jump\t// out\n        /* \"@openzeppelin/contracts/proxy/Clones.sol\":2209:3030  function cloneDeterministic(address implementation, bytes32 salt) internal returns (address instance) {... */\n    tag_139:\n        /* \"@openzeppelin/contracts/proxy/Clones.sol\":2293:2309  address instance */\n      0x00\n        /* \"@openzeppelin/contracts/proxy/Clones.sol\":2625:2673  0x3d602d80600a3d3981f3363d3d373d3d3d363d73000000 */\n      0x3d602d80600a3d3981f3363d3d373d3d3d363d73000000\n        /* \"@openzeppelin/contracts/proxy/Clones.sol\":2607:2621  implementation */\n      dup4\n        /* \"@openzeppelin/contracts/proxy/Clones.sol\":2601:2605  0x60 */\n      0x60\n        /* \"@openzeppelin/contracts/proxy/Clones.sol\":2597:2622  shl(0x60, implementation) */\n      shl\n        /* \"@openzeppelin/contracts/proxy/Clones.sol\":2591:2595  0xe8 */\n      0xe8\n        /* \"@openzeppelin/contracts/proxy/Clones.sol\":2587:2623  shr(0xe8, shl(0x60, implementation)) */\n      shr\n        /* \"@openzeppelin/contracts/proxy/Clones.sol\":2584:2674  or(shr(0xe8, shl(0x60, implementation)), 0x3d602d80600a3d3981f3363d3d373d3d3d363d73000000) */\n      or\n        /* \"@openzeppelin/contracts/proxy/Clones.sol\":2578:2582  0x00 */\n      0x00\n        /* \"@openzeppelin/contracts/proxy/Clones.sol\":2571:2675  mstore(0x00, or(shr(0xe8, shl(0x60, implementation)), 0x3d602d80600a3d3981f3363d3d373d3d3d363d73000000)) */\n      mstore\n        /* \"@openzeppelin/contracts/proxy/Clones.sol\":2832:2864  0x5af43d82803e903d91602b57fd5bf3 */\n      0x5af43d82803e903d91602b57fd5bf3\n        /* \"@openzeppelin/contracts/proxy/Clones.sol\":2815:2829  implementation */\n      dup4\n        /* \"@openzeppelin/contracts/proxy/Clones.sol\":2809:2813  0x78 */\n      0x78\n        /* \"@openzeppelin/contracts/proxy/Clones.sol\":2805:2830  shl(0x78, implementation) */\n      shl\n        /* \"@openzeppelin/contracts/proxy/Clones.sol\":2802:2865  or(shl(0x78, implementation), 0x5af43d82803e903d91602b57fd5bf3) */\n      or\n        /* \"@openzeppelin/contracts/proxy/Clones.sol\":2796:2800  0x20 */\n      0x20\n        /* \"@openzeppelin/contracts/proxy/Clones.sol\":2789:2866  mstore(0x20, or(shl(0x78, implementation), 0x5af43d82803e903d91602b57fd5bf3)) */\n      mstore\n        /* \"@openzeppelin/contracts/proxy/Clones.sol\":2914:2918  salt */\n      dup2\n        /* \"@openzeppelin/contracts/proxy/Clones.sol\":2908:2912  0x37 */\n      0x37\n        /* \"@openzeppelin/contracts/proxy/Clones.sol\":2902:2906  0x09 */\n      0x09\n        /* \"@openzeppelin/contracts/proxy/Clones.sol\":2899:2900  0 */\n      0x00\n        /* \"@openzeppelin/contracts/proxy/Clones.sol\":2891:2919  create2(0, 0x09, 0x37, salt) */\n      create2\n        /* \"@openzeppelin/contracts/proxy/Clones.sol\":2879:2919  instance := create2(0, 0x09, 0x37, salt) */\n      swap1\n      pop\n        /* \"@openzeppelin/contracts/proxy/Clones.sol\":2962:2963  0 */\n      0x00\n        /* \"@openzeppelin/contracts/proxy/Clones.sol\":2942:2964  instance == address(0) */\n      0xffffffffffffffffffffffffffffffffffffffff\n      and\n        /* \"@openzeppelin/contracts/proxy/Clones.sol\":2942:2950  instance */\n      dup2\n        /* \"@openzeppelin/contracts/proxy/Clones.sol\":2942:2964  instance == address(0) */\n      0xffffffffffffffffffffffffffffffffffffffff\n      and\n      sub\n        /* \"@openzeppelin/contracts/proxy/Clones.sol\":2938:3024  if (instance == address(0)) {... */\n      tag_186\n      jumpi\n        /* \"@openzeppelin/contracts/proxy/Clones.sol\":2987:3013  ERC1167FailedCreateClone() */\n      mload(0x40)\n      0xc2f868f400000000000000000000000000000000000000000000000000000000\n      dup2\n      mstore\n      0x04\n      add\n      mload(0x40)\n      dup1\n      swap2\n      sub\n      swap1\n      revert\n        /* \"@openzeppelin/contracts/proxy/Clones.sol\":2938:3024  if (instance == address(0)) {... */\n    tag_186:\n        /* \"@openzeppelin/contracts/proxy/Clones.sol\":2209:3030  function cloneDeterministic(address implementation, bytes32 salt) internal returns (address instance) {... */\n      swap3\n      swap2\n      pop\n      pop\n      jump\t// out\n        /* \"#utility.yul\":88:205   */\n    tag_188:\n        /* \"#utility.yul\":197:198   */\n      0x00\n        /* \"#utility.yul\":194:195   */\n      dup1\n        /* \"#utility.yul\":187:199   */\n      revert\n        /* \"#utility.yul\":334:460   */\n    tag_190:\n        /* \"#utility.yul\":371:378   */\n      0x00\n        /* \"#utility.yul\":411:453   */\n      0xffffffffffffffffffffffffffffffffffffffff\n        /* \"#utility.yul\":404:409   */\n      dup3\n        /* \"#utility.yul\":400:454   */\n      and\n        /* \"#utility.yul\":389:454   */\n      swap1\n      pop\n        /* \"#utility.yul\":334:460   */\n      swap2\n      swap1\n      pop\n      jump\t// out\n        /* \"#utility.yul\":466:562   */\n    tag_191:\n        /* \"#utility.yul\":503:510   */\n      0x00\n        /* \"#utility.yul\":532:556   */\n      tag_220\n        /* \"#utility.yul\":550:555   */\n      dup3\n        /* \"#utility.yul\":532:556   */\n      tag_190\n      jump\t// in\n    tag_220:\n        /* \"#utility.yul\":521:556   */\n      swap1\n      pop\n        /* \"#utility.yul\":466:562   */\n      swap2\n      swap1\n      pop\n      jump\t// out\n        /* \"#utility.yul\":568:690   */\n    tag_192:\n        /* \"#utility.yul\":641:665   */\n      tag_222\n        /* \"#utility.yul\":659:664   */\n      dup2\n        /* \"#utility.yul\":641:665   */\n      tag_191\n      jump\t// in\n    tag_222:\n        /* \"#utility.yul\":634:639   */\n      dup2\n        /* \"#utility.yul\":631:666   */\n      eq\n        /* \"#utility.yul\":621:684   */\n      tag_223\n      jumpi\n        /* \"#utility.yul\":680:681   */\n      0x00\n        /* \"#utility.yul\":677:678   */\n      dup1\n        /* \"#utility.yul\":670:682   */\n      revert\n        /* \"#utility.yul\":621:684   */\n    tag_223:\n        /* \"#utility.yul\":568:690   */\n      pop\n      jump\t// out\n        /* \"#utility.yul\":696:835   */\n    tag_193:\n        /* \"#utility.yul\":742:747   */\n      0x00\n        /* \"#utility.yul\":780:786   */\n      dup2\n        /* \"#utility.yul\":767:787   */\n      calldataload\n        /* \"#utility.yul\":758:787   */\n      swap1\n      pop\n        /* \"#utility.yul\":796:829   */\n      tag_225\n        /* \"#utility.yul\":823:828   */\n      dup2\n        /* \"#utility.yul\":796:829   */\n      tag_192\n      jump\t// in\n    tag_225:\n        /* \"#utility.yul\":696:835   */\n      swap3\n      swap2\n      pop\n      pop\n      jump\t// out\n        /* \"#utility.yul\":841:932   */\n    tag_194:\n        /* \"#utility.yul\":877:884   */\n      0x00\n        /* \"#utility.yul\":917:925   */\n      0xffffff\n        /* \"#utility.yul\":910:915   */\n      dup3\n        /* \"#utility.yul\":906:926   */\n      and\n        /* \"#utility.yul\":895:926   */\n      swap1\n      pop\n        /* \"#utility.yul\":841:932   */\n      swap2\n      swap1\n      pop\n      jump\t// out\n        /* \"#utility.yul\":938:1058   */\n    tag_195:\n        /* \"#utility.yul\":1010:1033   */\n      tag_228\n        /* \"#utility.yul\":1027:1032   */\n      dup2\n        /* \"#utility.yul\":1010:1033   */\n      tag_194\n      jump\t// in\n    tag_228:\n        /* \"#utility.yul\":1003:1008   */\n      dup2\n        /* \"#utility.yul\":1000:1034   */\n      eq\n        /* \"#utility.yul\":990:1052   */\n      tag_229\n      jumpi\n        /* \"#utility.yul\":1048:1049   */\n      0x00\n        /* \"#utility.yul\":1045:1046   */\n      dup1\n        /* \"#utility.yul\":1038:1050   */\n      revert\n        /* \"#utility.yul\":990:1052   */\n    tag_229:\n        /* \"#utility.yul\":938:1058   */\n      pop\n      jump\t// out\n        /* \"#utility.yul\":1064:1201   */\n    tag_196:\n        /* \"#utility.yul\":1109:1114   */\n      0x00\n        /* \"#utility.yul\":1147:1153   */\n      dup2\n        /* \"#utility.yul\":1134:1154   */\n      calldataload\n        /* \"#utility.yul\":1125:1154   */\n      swap1\n      pop\n        /* \"#utility.yul\":1163:1195   */\n      tag_231\n        /* \"#utility.yul\":1189:1194   */\n      dup2\n        /* \"#utility.yul\":1163:1195   */\n      tag_195\n      jump\t// in\n    tag_231:\n        /* \"#utility.yul\":1064:1201   */\n      swap3\n      swap2\n      pop\n      pop\n      jump\t// out\n        /* \"#utility.yul\":1207:1824   */\n    tag_32:\n        /* \"#utility.yul\":1283:1289   */\n      0x00\n        /* \"#utility.yul\":1291:1297   */\n      dup1\n        /* \"#utility.yul\":1299:1305   */\n      0x00\n        /* \"#utility.yul\":1348:1350   */\n      0x60\n        /* \"#utility.yul\":1336:1345   */\n      dup5\n        /* \"#utility.yul\":1327:1334   */\n      dup7\n        /* \"#utility.yul\":1323:1346   */\n      sub\n        /* \"#utility.yul\":1319:1351   */\n      slt\n        /* \"#utility.yul\":1316:1435   */\n      iszero\n      tag_233\n      jumpi\n        /* \"#utility.yul\":1354:1433   */\n      tag_234\n      tag_188\n      jump\t// in\n    tag_234:\n        /* \"#utility.yul\":1316:1435   */\n    tag_233:\n        /* \"#utility.yul\":1474:1475   */\n      0x00\n        /* \"#utility.yul\":1499:1552   */\n      tag_235\n        /* \"#utility.yul\":1544:1551   */\n      dup7\n        /* \"#utility.yul\":1535:1541   */\n      dup3\n        /* \"#utility.yul\":1524:1533   */\n      dup8\n        /* \"#utility.yul\":1520:1542   */\n      add\n        /* \"#utility.yul\":1499:1552   */\n      tag_193\n      jump\t// in\n    tag_235:\n        /* \"#utility.yul\":1489:1552   */\n      swap4\n      pop\n        /* \"#utility.yul\":1445:1562   */\n      pop\n        /* \"#utility.yul\":1601:1603   */\n      0x20\n        /* \"#utility.yul\":1627:1680   */\n      tag_236\n        /* \"#utility.yul\":1672:1679   */\n      dup7\n        /* \"#utility.yul\":1663:1669   */\n      dup3\n        /* \"#utility.yul\":1652:1661   */\n      dup8\n        /* \"#utility.yul\":1648:1670   */\n      add\n        /* \"#utility.yul\":1627:1680   */\n      tag_193\n      jump\t// in\n    tag_236:\n        /* \"#utility.yul\":1617:1680   */\n      swap3\n      pop\n        /* \"#utility.yul\":1572:1690   */\n      pop\n        /* \"#utility.yul\":1729:1731   */\n      0x40\n        /* \"#utility.yul\":1755:1807   */\n      tag_237\n        /* \"#utility.yul\":1799:1806   */\n      dup7\n        /* \"#utility.yul\":1790:1796   */\n      dup3\n        /* \"#utility.yul\":1779:1788   */\n      dup8\n        /* \"#utility.yul\":1775:1797   */\n      add\n        /* \"#utility.yul\":1755:1807   */\n      tag_196\n      jump\t// in\n    tag_237:\n        /* \"#utility.yul\":1745:1807   */\n      swap2\n      pop\n        /* \"#utility.yul\":1700:1817   */\n      pop\n        /* \"#utility.yul\":1207:1824   */\n      swap3\n      pop\n      swap3\n      pop\n      swap3\n      jump\t// out\n        /* \"#utility.yul\":1830:1948   */\n    tag_197:\n        /* \"#utility.yul\":1917:1941   */\n      tag_239\n        /* \"#utility.yul\":1935:1940   */\n      dup2\n        /* \"#utility.yul\":1917:1941   */\n      tag_191\n      jump\t// in\n    tag_239:\n        /* \"#utility.yul\":1912:1915   */\n      dup3\n        /* \"#utility.yul\":1905:1942   */\n      mstore\n        /* \"#utility.yul\":1830:1948   */\n      pop\n      pop\n      jump\t// out\n        /* \"#utility.yul\":1954:2176   */\n    tag_35:\n        /* \"#utility.yul\":2047:2051   */\n      0x00\n        /* \"#utility.yul\":2085:2087   */\n      0x20\n        /* \"#utility.yul\":2074:2083   */\n      dup3\n        /* \"#utility.yul\":2070:2088   */\n      add\n        /* \"#utility.yul\":2062:2088   */\n      swap1\n      pop\n        /* \"#utility.yul\":2098:2169   */\n      tag_241\n        /* \"#utility.yul\":2166:2167   */\n      0x00\n        /* \"#utility.yul\":2155:2164   */\n      dup4\n        /* \"#utility.yul\":2151:2168   */\n      add\n        /* \"#utility.yul\":2142:2148   */\n      dup5\n        /* \"#utility.yul\":2098:2169   */\n      tag_197\n      jump\t// in\n    tag_241:\n        /* \"#utility.yul\":1954:2176   */\n      swap3\n      swap2\n      pop\n      pop\n      jump\t// out\n        /* \"#utility.yul\":2182:2511   */\n    tag_38:\n        /* \"#utility.yul\":2241:2247   */\n      0x00\n        /* \"#utility.yul\":2290:2292   */\n      0x20\n        /* \"#utility.yul\":2278:2287   */\n      dup3\n        /* \"#utility.yul\":2269:2276   */\n      dup5\n        /* \"#utility.yul\":2265:2288   */\n      sub\n        /* \"#utility.yul\":2261:2293   */\n      slt\n        /* \"#utility.yul\":2258:2377   */\n      iszero\n      tag_243\n      jumpi\n        /* \"#utility.yul\":2296:2375   */\n      tag_244\n      tag_188\n      jump\t// in\n    tag_244:\n        /* \"#utility.yul\":2258:2377   */\n    tag_243:\n        /* \"#utility.yul\":2416:2417   */\n      0x00\n        /* \"#utility.yul\":2441:2494   */\n      tag_245\n        /* \"#utility.yul\":2486:2493   */\n      dup5\n        /* \"#utility.yul\":2477:2483   */\n      dup3\n        /* \"#utility.yul\":2466:2475   */\n      dup6\n        /* \"#utility.yul\":2462:2484   */\n      add\n        /* \"#utility.yul\":2441:2494   */\n      tag_193\n      jump\t// in\n    tag_245:\n        /* \"#utility.yul\":2431:2494   */\n      swap2\n      pop\n        /* \"#utility.yul\":2387:2504   */\n      pop\n        /* \"#utility.yul\":2182:2511   */\n      swap3\n      swap2\n      pop\n      pop\n      jump\t// out\n        /* \"#utility.yul\":2517:2607   */\n    tag_198:\n        /* \"#utility.yul\":2551:2558   */\n      0x00\n        /* \"#utility.yul\":2594:2599   */\n      dup2\n        /* \"#utility.yul\":2587:2600   */\n      iszero\n        /* \"#utility.yul\":2580:2601   */\n      iszero\n        /* \"#utility.yul\":2569:2601   */\n      swap1\n      pop\n        /* \"#utility.yul\":2517:2607   */\n      swap2\n      swap1\n      pop\n      jump\t// out\n        /* \"#utility.yul\":2613:2729   */\n    tag_199:\n        /* \"#utility.yul\":2683:2704   */\n      tag_248\n        /* \"#utility.yul\":2698:2703   */\n      dup2\n        /* \"#utility.yul\":2683:2704   */\n      tag_198\n      jump\t// in\n    tag_248:\n        /* \"#utility.yul\":2676:2681   */\n      dup2\n        /* \"#utility.yul\":2673:2705   */\n      eq\n        /* \"#utility.yul\":2663:2723   */\n      tag_249\n      jumpi\n        /* \"#utility.yul\":2719:2720   */\n      0x00\n        /* \"#utility.yul\":2716:2717   */\n      dup1\n        /* \"#utility.yul\":2709:2721   */\n      revert\n        /* \"#utility.yul\":2663:2723   */\n    tag_249:\n        /* \"#utility.yul\":2613:2729   */\n      pop\n      jump\t// out\n        /* \"#utility.yul\":2735:2868   */\n    tag_200:\n        /* \"#utility.yul\":2778:2783   */\n      0x00\n        /* \"#utility.yul\":2816:2822   */\n      dup2\n        /* \"#utility.yul\":2803:2823   */\n      calldataload\n        /* \"#utility.yul\":2794:2823   */\n      swap1\n      pop\n        /* \"#utility.yul\":2832:2862   */\n      tag_251\n        /* \"#utility.yul\":2856:2861   */\n      dup2\n        /* \"#utility.yul\":2832:2862   */\n      tag_199\n      jump\t// in\n    tag_251:\n        /* \"#utility.yul\":2735:2868   */\n      swap3\n      swap2\n      pop\n      pop\n      jump\t// out\n        /* \"#utility.yul\":2874:3487   */\n    tag_42:\n        /* \"#utility.yul\":2948:2954   */\n      0x00\n        /* \"#utility.yul\":2956:2962   */\n      dup1\n        /* \"#utility.yul\":2964:2970   */\n      0x00\n        /* \"#utility.yul\":3013:3015   */\n      0x60\n        /* \"#utility.yul\":3001:3010   */\n      dup5\n        /* \"#utility.yul\":2992:2999   */\n      dup7\n        /* \"#utility.yul\":2988:3011   */\n      sub\n        /* \"#utility.yul\":2984:3016   */\n      slt\n        /* \"#utility.yul\":2981:3100   */\n      iszero\n      tag_253\n      jumpi\n        /* \"#utility.yul\":3019:3098   */\n      tag_254\n      tag_188\n      jump\t// in\n    tag_254:\n        /* \"#utility.yul\":2981:3100   */\n    tag_253:\n        /* \"#utility.yul\":3139:3140   */\n      0x00\n        /* \"#utility.yul\":3164:3217   */\n      tag_255\n        /* \"#utility.yul\":3209:3216   */\n      dup7\n        /* \"#utility.yul\":3200:3206   */\n      dup3\n        /* \"#utility.yul\":3189:3198   */\n      dup8\n        /* \"#utility.yul\":3185:3207   */\n      add\n        /* \"#utility.yul\":3164:3217   */\n      tag_193\n      jump\t// in\n    tag_255:\n        /* \"#utility.yul\":3154:3217   */\n      swap4\n      pop\n        /* \"#utility.yul\":3110:3227   */\n      pop\n        /* \"#utility.yul\":3266:3268   */\n      0x20\n        /* \"#utility.yul\":3292:3345   */\n      tag_256\n        /* \"#utility.yul\":3337:3344   */\n      dup7\n        /* \"#utility.yul\":3328:3334   */\n      dup3\n        /* \"#utility.yul\":3317:3326   */\n      dup8\n        /* \"#utility.yul\":3313:3335   */\n      add\n        /* \"#utility.yul\":3292:3345   */\n      tag_193\n      jump\t// in\n    tag_256:\n        /* \"#utility.yul\":3282:3345   */\n      swap3\n      pop\n        /* \"#utility.yul\":3237:3355   */\n      pop\n        /* \"#utility.yul\":3394:3396   */\n      0x40\n        /* \"#utility.yul\":3420:3470   */\n      tag_257\n        /* \"#utility.yul\":3462:3469   */\n      dup7\n        /* \"#utility.yul\":3453:3459   */\n      dup3\n        /* \"#utility.yul\":3442:3451   */\n      dup8\n        /* \"#utility.yul\":3438:3460   */\n      add\n        /* \"#utility.yul\":3420:3470   */\n      tag_200\n      jump\t// in\n    tag_257:\n        /* \"#utility.yul\":3410:3470   */\n      swap2\n      pop\n        /* \"#utility.yul\":3365:3480   */\n      pop\n        /* \"#utility.yul\":2874:3487   */\n      swap3\n      pop\n      swap3\n      pop\n      swap3\n      jump\t// out\n        /* \"#utility.yul\":3493:3570   */\n    tag_201:\n        /* \"#utility.yul\":3530:3537   */\n      0x00\n        /* \"#utility.yul\":3559:3564   */\n      dup2\n        /* \"#utility.yul\":3548:3564   */\n      swap1\n      pop\n        /* \"#utility.yul\":3493:3570   */\n      swap2\n      swap1\n      pop\n      jump\t// out\n        /* \"#utility.yul\":3576:3694   */\n    tag_202:\n        /* \"#utility.yul\":3663:3687   */\n      tag_260\n        /* \"#utility.yul\":3681:3686   */\n      dup2\n        /* \"#utility.yul\":3663:3687   */\n      tag_201\n      jump\t// in\n    tag_260:\n        /* \"#utility.yul\":3658:3661   */\n      dup3\n        /* \"#utility.yul\":3651:3688   */\n      mstore\n        /* \"#utility.yul\":3576:3694   */\n      pop\n      pop\n      jump\t// out\n        /* \"#utility.yul\":3700:3922   */\n    tag_48:\n        /* \"#utility.yul\":3793:3797   */\n      0x00\n        /* \"#utility.yul\":3831:3833   */\n      0x20\n        /* \"#utility.yul\":3820:3829   */\n      dup3\n        /* \"#utility.yul\":3816:3834   */\n      add\n        /* \"#utility.yul\":3808:3834   */\n      swap1\n      pop\n        /* \"#utility.yul\":3844:3915   */\n      tag_262\n        /* \"#utility.yul\":3912:3913   */\n      0x00\n        /* \"#utility.yul\":3901:3910   */\n      dup4\n        /* \"#utility.yul\":3897:3914   */\n      add\n        /* \"#utility.yul\":3888:3894   */\n      dup5\n        /* \"#utility.yul\":3844:3915   */\n      tag_202\n      jump\t// in\n    tag_262:\n        /* \"#utility.yul\":3700:3922   */\n      swap3\n      swap2\n      pop\n      pop\n      jump\t// out\n        /* \"#utility.yul\":3928:4050   */\n    tag_203:\n        /* \"#utility.yul\":4001:4025   */\n      tag_264\n        /* \"#utility.yul\":4019:4024   */\n      dup2\n        /* \"#utility.yul\":4001:4025   */\n      tag_201\n      jump\t// in\n    tag_264:\n        /* \"#utility.yul\":3994:3999   */\n      dup2\n        /* \"#utility.yul\":3991:4026   */\n      eq\n        /* \"#utility.yul\":3981:4044   */\n      tag_265\n      jumpi\n        /* \"#utility.yul\":4040:4041   */\n      0x00\n        /* \"#utility.yul\":4037:4038   */\n      dup1\n        /* \"#utility.yul\":4030:4042   */\n      revert\n        /* \"#utility.yul\":3981:4044   */\n    tag_265:\n        /* \"#utility.yul\":3928:4050   */\n      pop\n      jump\t// out\n        /* \"#utility.yul\":4056:4195   */\n    tag_204:\n        /* \"#utility.yul\":4102:4107   */\n      0x00\n        /* \"#utility.yul\":4140:4146   */\n      dup2\n        /* \"#utility.yul\":4127:4147   */\n      calldataload\n        /* \"#utility.yul\":4118:4147   */\n      swap1\n      pop\n        /* \"#utility.yul\":4156:4189   */\n      tag_267\n        /* \"#utility.yul\":4183:4188   */\n      dup2\n        /* \"#utility.yul\":4156:4189   */\n      tag_203\n      jump\t// in\n    tag_267:\n        /* \"#utility.yul\":4056:4195   */\n      swap3\n      swap2\n      pop\n      pop\n      jump\t// out\n        /* \"#utility.yul\":4201:4530   */\n    tag_54:\n        /* \"#utility.yul\":4260:4266   */\n      0x00\n        /* \"#utility.yul\":4309:4311   */\n      0x20\n        /* \"#utility.yul\":4297:4306   */\n      dup3\n        /* \"#utility.yul\":4288:4295   */\n      dup5\n        /* \"#utility.yul\":4284:4307   */\n      sub\n        /* \"#utility.yul\":4280:4312   */\n      slt\n        /* \"#utility.yul\":4277:4396   */\n      iszero\n      tag_269\n      jumpi\n        /* \"#utility.yul\":4315:4394   */\n      tag_270\n      tag_188\n      jump\t// in\n    tag_270:\n        /* \"#utility.yul\":4277:4396   */\n    tag_269:\n        /* \"#utility.yul\":4435:4436   */\n      0x00\n        /* \"#utility.yul\":4460:4513   */\n      tag_271\n        /* \"#utility.yul\":4505:4512   */\n      dup5\n        /* \"#utility.yul\":4496:4502   */\n      dup3\n        /* \"#utility.yul\":4485:4494   */\n      dup6\n        /* \"#utility.yul\":4481:4503   */\n      add\n        /* \"#utility.yul\":4460:4513   */\n      tag_204\n      jump\t// in\n    tag_271:\n        /* \"#utility.yul\":4450:4513   */\n      swap2\n      pop\n        /* \"#utility.yul\":4406:4523   */\n      pop\n        /* \"#utility.yul\":4201:4530   */\n      swap3\n      swap2\n      pop\n      pop\n      jump\t// out\n        /* \"#utility.yul\":4536:4645   */\n    tag_205:\n        /* \"#utility.yul\":4617:4638   */\n      tag_273\n        /* \"#utility.yul\":4632:4637   */\n      dup2\n        /* \"#utility.yul\":4617:4638   */\n      tag_198\n      jump\t// in\n    tag_273:\n        /* \"#utility.yul\":4612:4615   */\n      dup3\n        /* \"#utility.yul\":4605:4639   */\n      mstore\n        /* \"#utility.yul\":4536:4645   */\n      pop\n      pop\n      jump\t// out\n        /* \"#utility.yul\":4651:4861   */\n    tag_77:\n        /* \"#utility.yul\":4738:4742   */\n      0x00\n        /* \"#utility.yul\":4776:4778   */\n      0x20\n        /* \"#utility.yul\":4765:4774   */\n      dup3\n        /* \"#utility.yul\":4761:4779   */\n      add\n        /* \"#utility.yul\":4753:4779   */\n      swap1\n      pop\n        /* \"#utility.yul\":4789:4854   */\n      tag_275\n        /* \"#utility.yul\":4851:4852   */\n      0x00\n        /* \"#utility.yul\":4840:4849   */\n      dup4\n        /* \"#utility.yul\":4836:4853   */\n      add\n        /* \"#utility.yul\":4827:4833   */\n      dup5\n        /* \"#utility.yul\":4789:4854   */\n      tag_205\n      jump\t// in\n    tag_275:\n        /* \"#utility.yul\":4651:4861   */\n      swap3\n      swap2\n      pop\n      pop\n      jump\t// out\n        /* \"#utility.yul\":4867:5335   */\n    tag_100:\n        /* \"#utility.yul\":4932:4938   */\n      0x00\n        /* \"#utility.yul\":4940:4946   */\n      dup1\n        /* \"#utility.yul\":4989:4991   */\n      0x40\n        /* \"#utility.yul\":4977:4986   */\n      dup4\n        /* \"#utility.yul\":4968:4975   */\n      dup6\n        /* \"#utility.yul\":4964:4987   */\n      sub\n        /* \"#utility.yul\":4960:4992   */\n      slt\n        /* \"#utility.yul\":4957:5076   */\n      iszero\n      tag_277\n      jumpi\n        /* \"#utility.yul\":4995:5074   */\n      tag_278\n      tag_188\n      jump\t// in\n    tag_278:\n        /* \"#utility.yul\":4957:5076   */\n    tag_277:\n        /* \"#utility.yul\":5115:5116   */\n      0x00\n        /* \"#utility.yul\":5140:5193   */\n      tag_279\n        /* \"#utility.yul\":5185:5192   */\n      dup6\n        /* \"#utility.yul\":5176:5182   */\n      dup3\n        /* \"#utility.yul\":5165:5174   */\n      dup7\n        /* \"#utility.yul\":5161:5183   */\n      add\n        /* \"#utility.yul\":5140:5193   */\n      tag_193\n      jump\t// in\n    tag_279:\n        /* \"#utility.yul\":5130:5193   */\n      swap3\n      pop\n        /* \"#utility.yul\":5086:5203   */\n      pop\n        /* \"#utility.yul\":5242:5244   */\n      0x20\n        /* \"#utility.yul\":5268:5318   */\n      tag_280\n        /* \"#utility.yul\":5310:5317   */\n      dup6\n        /* \"#utility.yul\":5301:5307   */\n      dup3\n        /* \"#utility.yul\":5290:5299   */\n      dup7\n        /* \"#utility.yul\":5286:5308   */\n      add\n        /* \"#utility.yul\":5268:5318   */\n      tag_200\n      jump\t// in\n    tag_280:\n        /* \"#utility.yul\":5258:5318   */\n      swap2\n      pop\n        /* \"#utility.yul\":5213:5328   */\n      pop\n        /* \"#utility.yul\":4867:5335   */\n      swap3\n      pop\n      swap3\n      swap1\n      pop\n      jump\t// out\n        /* \"#utility.yul\":5341:5664   */\n    tag_105:\n        /* \"#utility.yul\":5397:5403   */\n      0x00\n        /* \"#utility.yul\":5446:5448   */\n      0x20\n        /* \"#utility.yul\":5434:5443   */\n      dup3\n        /* \"#utility.yul\":5425:5432   */\n      dup5\n        /* \"#utility.yul\":5421:5444   */\n      sub\n        /* \"#utility.yul\":5417:5449   */\n      slt\n        /* \"#utility.yul\":5414:5533   */\n      iszero\n      tag_282\n      jumpi\n        /* \"#utility.yul\":5452:5531   */\n      tag_283\n      tag_188\n      jump\t// in\n    tag_283:\n        /* \"#utility.yul\":5414:5533   */\n    tag_282:\n        /* \"#utility.yul\":5572:5573   */\n      0x00\n        /* \"#utility.yul\":5597:5647   */\n      tag_284\n        /* \"#utility.yul\":5639:5646   */\n      dup5\n        /* \"#utility.yul\":5630:5636   */\n      dup3\n        /* \"#utility.yul\":5619:5628   */\n      dup6\n        /* \"#utility.yul\":5615:5637   */\n      add\n        /* \"#utility.yul\":5597:5647   */\n      tag_200\n      jump\t// in\n    tag_284:\n        /* \"#utility.yul\":5587:5647   */\n      swap2\n      pop\n        /* \"#utility.yul\":5543:5657   */\n      pop\n        /* \"#utility.yul\":5341:5664   */\n      swap3\n      swap2\n      pop\n      pop\n      jump\t// out\n        /* \"#utility.yul\":5670:6144   */\n    tag_112:\n        /* \"#utility.yul\":5738:5744   */\n      0x00\n        /* \"#utility.yul\":5746:5752   */\n      dup1\n        /* \"#utility.yul\":5795:5797   */\n      0x40\n        /* \"#utility.yul\":5783:5792   */\n      dup4\n        /* \"#utility.yul\":5774:5781   */\n      dup6\n        /* \"#utility.yul\":5770:5793   */\n      sub\n        /* \"#utility.yul\":5766:5798   */\n      slt\n        /* \"#utility.yul\":5763:5882   */\n      iszero\n      tag_286\n      jumpi\n        /* \"#utility.yul\":5801:5880   */\n      tag_287\n      tag_188\n      jump\t// in\n    tag_287:\n        /* \"#utility.yul\":5763:5882   */\n    tag_286:\n        /* \"#utility.yul\":5921:5922   */\n      0x00\n        /* \"#utility.yul\":5946:5999   */\n      tag_288\n        /* \"#utility.yul\":5991:5998   */\n      dup6\n        /* \"#utility.yul\":5982:5988   */\n      dup3\n        /* \"#utility.yul\":5971:5980   */\n      dup7\n        /* \"#utility.yul\":5967:5989   */\n      add\n        /* \"#utility.yul\":5946:5999   */\n      tag_193\n      jump\t// in\n    tag_288:\n        /* \"#utility.yul\":5936:5999   */\n      swap3\n      pop\n        /* \"#utility.yul\":5892:6009   */\n      pop\n        /* \"#utility.yul\":6048:6050   */\n      0x20\n        /* \"#utility.yul\":6074:6127   */\n      tag_289\n        /* \"#utility.yul\":6119:6126   */\n      dup6\n        /* \"#utility.yul\":6110:6116   */\n      dup3\n        /* \"#utility.yul\":6099:6108   */\n      dup7\n        /* \"#utility.yul\":6095:6117   */\n      add\n        /* \"#utility.yul\":6074:6127   */\n      tag_204\n      jump\t// in\n    tag_289:\n        /* \"#utility.yul\":6064:6127   */\n      swap2\n      pop\n        /* \"#utility.yul\":6019:6137   */\n      pop\n        /* \"#utility.yul\":5670:6144   */\n      swap3\n      pop\n      swap3\n      swap1\n      pop\n      jump\t// out\n        /* \"#utility.yul\":6150:6618   */\n    tag_116:\n        /* \"#utility.yul\":6215:6221   */\n      0x00\n        /* \"#utility.yul\":6223:6229   */\n      dup1\n        /* \"#utility.yul\":6272:6274   */\n      0x40\n        /* \"#utility.yul\":6260:6269   */\n      dup4\n        /* \"#utility.yul\":6251:6258   */\n      dup6\n        /* \"#utility.yul\":6247:6270   */\n      sub\n        /* \"#utility.yul\":6243:6275   */\n      slt\n        /* \"#utility.yul\":6240:6359   */\n      iszero\n      tag_291\n      jumpi\n        /* \"#utility.yul\":6278:6357   */\n      tag_292\n      tag_188\n      jump\t// in\n    tag_292:\n        /* \"#utility.yul\":6240:6359   */\n    tag_291:\n        /* \"#utility.yul\":6398:6399   */\n      0x00\n        /* \"#utility.yul\":6423:6473   */\n      tag_293\n        /* \"#utility.yul\":6465:6472   */\n      dup6\n        /* \"#utility.yul\":6456:6462   */\n      dup3\n        /* \"#utility.yul\":6445:6454   */\n      dup7\n        /* \"#utility.yul\":6441:6463   */\n      add\n        /* \"#utility.yul\":6423:6473   */\n      tag_200\n      jump\t// in\n    tag_293:\n        /* \"#utility.yul\":6413:6473   */\n      swap3\n      pop\n        /* \"#utility.yul\":6369:6483   */\n      pop\n        /* \"#utility.yul\":6522:6524   */\n      0x20\n        /* \"#utility.yul\":6548:6601   */\n      tag_294\n        /* \"#utility.yul\":6593:6600   */\n      dup6\n        /* \"#utility.yul\":6584:6590   */\n      dup3\n        /* \"#utility.yul\":6573:6582   */\n      dup7\n        /* \"#utility.yul\":6569:6591   */\n      add\n        /* \"#utility.yul\":6548:6601   */\n      tag_204\n      jump\t// in\n    tag_294:\n        /* \"#utility.yul\":6538:6601   */\n      swap2\n      pop\n        /* \"#utility.yul\":6493:6611   */\n      pop\n        /* \"#utility.yul\":6150:6618   */\n      swap3\n      pop\n      swap3\n      swap1\n      pop\n      jump\t// out\n        /* \"#utility.yul\":6624:6718   */\n    tag_206:\n        /* \"#utility.yul\":6657:6665   */\n      0x00\n        /* \"#utility.yul\":6705:6710   */\n      dup2\n        /* \"#utility.yul\":6701:6703   */\n      0x60\n        /* \"#utility.yul\":6697:6711   */\n      shl\n        /* \"#utility.yul\":6676:6711   */\n      swap1\n      pop\n        /* \"#utility.yul\":6624:6718   */\n      swap2\n      swap1\n      pop\n      jump\t// out\n        /* \"#utility.yul\":6724:6818   */\n    tag_207:\n        /* \"#utility.yul\":6763:6770   */\n      0x00\n        /* \"#utility.yul\":6792:6812   */\n      tag_297\n        /* \"#utility.yul\":6806:6811   */\n      dup3\n        /* \"#utility.yul\":6792:6812   */\n      tag_206\n      jump\t// in\n    tag_297:\n        /* \"#utility.yul\":6781:6812   */\n      swap1\n      pop\n        /* \"#utility.yul\":6724:6818   */\n      swap2\n      swap1\n      pop\n      jump\t// out\n        /* \"#utility.yul\":6824:6924   */\n    tag_208:\n        /* \"#utility.yul\":6863:6870   */\n      0x00\n        /* \"#utility.yul\":6892:6918   */\n      tag_299\n        /* \"#utility.yul\":6912:6917   */\n      dup3\n        /* \"#utility.yul\":6892:6918   */\n      tag_207\n      jump\t// in\n    tag_299:\n        /* \"#utility.yul\":6881:6918   */\n      swap1\n      pop\n        /* \"#utility.yul\":6824:6924   */\n      swap2\n      swap1\n      pop\n      jump\t// out\n        /* \"#utility.yul\":6930:7087   */\n    tag_209:\n        /* \"#utility.yul\":7035:7080   */\n      tag_301\n        /* \"#utility.yul\":7055:7079   */\n      tag_302\n        /* \"#utility.yul\":7073:7078   */\n      dup3\n        /* \"#utility.yul\":7055:7079   */\n      tag_191\n      jump\t// in\n    tag_302:\n        /* \"#utility.yul\":7035:7080   */\n      tag_208\n      jump\t// in\n    tag_301:\n        /* \"#utility.yul\":7030:7033   */\n      dup3\n        /* \"#utility.yul\":7023:7081   */\n      mstore\n        /* \"#utility.yul\":6930:7087   */\n      pop\n      pop\n      jump\t// out\n        /* \"#utility.yul\":7093:7189   */\n    tag_210:\n        /* \"#utility.yul\":7127:7135   */\n      0x00\n        /* \"#utility.yul\":7176:7181   */\n      dup2\n        /* \"#utility.yul\":7171:7174   */\n      0xf8\n        /* \"#utility.yul\":7167:7182   */\n      shl\n        /* \"#utility.yul\":7146:7182   */\n      swap1\n      pop\n        /* \"#utility.yul\":7093:7189   */\n      swap2\n      swap1\n      pop\n      jump\t// out\n        /* \"#utility.yul\":7195:7288   */\n    tag_211:\n        /* \"#utility.yul\":7232:7239   */\n      0x00\n        /* \"#utility.yul\":7261:7282   */\n      tag_305\n        /* \"#utility.yul\":7276:7281   */\n      dup3\n        /* \"#utility.yul\":7261:7282   */\n      tag_210\n      jump\t// in\n    tag_305:\n        /* \"#utility.yul\":7250:7282   */\n      swap1\n      pop\n        /* \"#utility.yul\":7195:7288   */\n      swap2\n      swap1\n      pop\n      jump\t// out\n        /* \"#utility.yul\":7294:7389   */\n    tag_212:\n        /* \"#utility.yul\":7330:7337   */\n      0x00\n        /* \"#utility.yul\":7359:7383   */\n      tag_307\n        /* \"#utility.yul\":7377:7382   */\n      dup3\n        /* \"#utility.yul\":7359:7383   */\n      tag_211\n      jump\t// in\n    tag_307:\n        /* \"#utility.yul\":7348:7383   */\n      swap1\n      pop\n        /* \"#utility.yul\":7294:7389   */\n      swap2\n      swap1\n      pop\n      jump\t// out\n        /* \"#utility.yul\":7395:7540   */\n    tag_213:\n        /* \"#utility.yul\":7494:7533   */\n      tag_309\n        /* \"#utility.yul\":7511:7532   */\n      tag_310\n        /* \"#utility.yul\":7526:7531   */\n      dup3\n        /* \"#utility.yul\":7511:7532   */\n      tag_198\n      jump\t// in\n    tag_310:\n        /* \"#utility.yul\":7494:7533   */\n      tag_212\n      jump\t// in\n    tag_309:\n        /* \"#utility.yul\":7489:7492   */\n      dup3\n        /* \"#utility.yul\":7482:7534   */\n      mstore\n        /* \"#utility.yul\":7395:7540   */\n      pop\n      pop\n      jump\t// out\n        /* \"#utility.yul\":7546:8071   */\n    tag_137:\n        /* \"#utility.yul\":7708:7711   */\n      0x00\n        /* \"#utility.yul\":7723:7798   */\n      tag_312\n        /* \"#utility.yul\":7794:7797   */\n      dup3\n        /* \"#utility.yul\":7785:7791   */\n      dup7\n        /* \"#utility.yul\":7723:7798   */\n      tag_209\n      jump\t// in\n    tag_312:\n        /* \"#utility.yul\":7823:7825   */\n      0x14\n        /* \"#utility.yul\":7818:7821   */\n      dup3\n        /* \"#utility.yul\":7814:7826   */\n      add\n        /* \"#utility.yul\":7807:7826   */\n      swap2\n      pop\n        /* \"#utility.yul\":7836:7911   */\n      tag_313\n        /* \"#utility.yul\":7907:7910   */\n      dup3\n        /* \"#utility.yul\":7898:7904   */\n      dup6\n        /* \"#utility.yul\":7836:7911   */\n      tag_209\n      jump\t// in\n    tag_313:\n        /* \"#utility.yul\":7936:7938   */\n      0x14\n        /* \"#utility.yul\":7931:7934   */\n      dup3\n        /* \"#utility.yul\":7927:7939   */\n      add\n        /* \"#utility.yul\":7920:7939   */\n      swap2\n      pop\n        /* \"#utility.yul\":7949:8018   */\n      tag_314\n        /* \"#utility.yul\":8014:8017   */\n      dup3\n        /* \"#utility.yul\":8005:8011   */\n      dup5\n        /* \"#utility.yul\":7949:8018   */\n      tag_213\n      jump\t// in\n    tag_314:\n        /* \"#utility.yul\":8043:8044   */\n      0x01\n        /* \"#utility.yul\":8038:8041   */\n      dup3\n        /* \"#utility.yul\":8034:8045   */\n      add\n        /* \"#utility.yul\":8027:8045   */\n      swap2\n      pop\n        /* \"#utility.yul\":8062:8065   */\n      dup2\n        /* \"#utility.yul\":8055:8065   */\n      swap1\n      pop\n        /* \"#utility.yul\":7546:8071   */\n      swap5\n      swap4\n      pop\n      pop\n      pop\n      pop\n      jump\t// out\n        /* \"#utility.yul\":8077:8507   */\n    tag_141:\n        /* \"#utility.yul\":8220:8224   */\n      0x00\n        /* \"#utility.yul\":8258:8260   */\n      0x60\n        /* \"#utility.yul\":8247:8256   */\n      dup3\n        /* \"#utility.yul\":8243:8261   */\n      add\n        /* \"#utility.yul\":8235:8261   */\n      swap1\n      pop\n        /* \"#utility.yul\":8271:8342   */\n      tag_316\n        /* \"#utility.yul\":8339:8340   */\n      0x00\n        /* \"#utility.yul\":8328:8337   */\n      dup4\n        /* \"#utility.yul\":8324:8341   */\n      add\n        /* \"#utility.yul\":8315:8321   */\n      dup7\n        /* \"#utility.yul\":8271:8342   */\n      tag_197\n      jump\t// in\n    tag_316:\n        /* \"#utility.yul\":8352:8424   */\n      tag_317\n        /* \"#utility.yul\":8420:8422   */\n      0x20\n        /* \"#utility.yul\":8409:8418   */\n      dup4\n        /* \"#utility.yul\":8405:8423   */\n      add\n        /* \"#utility.yul\":8396:8402   */\n      dup6\n        /* \"#utility.yul\":8352:8424   */\n      tag_197\n      jump\t// in\n    tag_317:\n        /* \"#utility.yul\":8434:8500   */\n      tag_318\n        /* \"#utility.yul\":8496:8498   */\n      0x40\n        /* \"#utility.yul\":8485:8494   */\n      dup4\n        /* \"#utility.yul\":8481:8499   */\n      add\n        /* \"#utility.yul\":8472:8478   */\n      dup5\n        /* \"#utility.yul\":8434:8500   */\n      tag_205\n      jump\t// in\n    tag_318:\n        /* \"#utility.yul\":8077:8507   */\n      swap5\n      swap4\n      pop\n      pop\n      pop\n      pop\n      jump\t// out\n        /* \"#utility.yul\":8513:8845   */\n    tag_147:\n        /* \"#utility.yul\":8634:8638   */\n      0x00\n        /* \"#utility.yul\":8672:8674   */\n      0x40\n        /* \"#utility.yul\":8661:8670   */\n      dup3\n        /* \"#utility.yul\":8657:8675   */\n      add\n        /* \"#utility.yul\":8649:8675   */\n      swap1\n      pop\n        /* \"#utility.yul\":8685:8756   */\n      tag_320\n        /* \"#utility.yul\":8753:8754   */\n      0x00\n        /* \"#utility.yul\":8742:8751   */\n      dup4\n        /* \"#utility.yul\":8738:8755   */\n      add\n        /* \"#utility.yul\":8729:8735   */\n      dup6\n        /* \"#utility.yul\":8685:8756   */\n      tag_197\n      jump\t// in\n    tag_320:\n        /* \"#utility.yul\":8766:8838   */\n      tag_321\n        /* \"#utility.yul\":8834:8836   */\n      0x20\n        /* \"#utility.yul\":8823:8832   */\n      dup4\n        /* \"#utility.yul\":8819:8837   */\n      add\n        /* \"#utility.yul\":8810:8816   */\n      dup5\n        /* \"#utility.yul\":8766:8838   */\n      tag_202\n      jump\t// in\n    tag_321:\n        /* \"#utility.yul\":8513:8845   */\n      swap4\n      swap3\n      pop\n      pop\n      pop\n      jump\t// out\n\n    auxdata: 0xa2646970667358221220e6a325e6739556824642f7da5fc2e96454a94c785ede558bf812524c4b9e1a5c64736f6c63430008140033\n}\n",
				"bytecode": {
					"linkReferences": {},
					"object": "60a060405234801562000010575f80fd5b5060405162001dd638038062001dd68339818101604052810190620000369190620001be565b8073ffffffffffffffffffffffffffffffffffffffff1660808173ffffffffffffffffffffffffffffffffffffffff16815250503360045f6101000a81548173ffffffffffffffffffffffffffffffffffffffff021916908373ffffffffffffffffffffffffffffffffffffffff160217905550335f60016101000a81548173ffffffffffffffffffffffffffffffffffffffff021916908373ffffffffffffffffffffffffffffffffffffffff1602179055503360035f6101000a81548173ffffffffffffffffffffffffffffffffffffffff021916908373ffffffffffffffffffffffffffffffffffffffff1602179055505f805f6101000a81548160ff0219169083151502179055506005600181905550601e60028190555050620001ee565b5f80fd5b5f73ffffffffffffffffffffffffffffffffffffffff82169050919050565b5f62000188826200015d565b9050919050565b6200019a816200017c565b8114620001a5575f80fd5b50565b5f81519050620001b8816200018f565b92915050565b5f60208284031215620001d657620001d562000159565b5b5f620001e584828501620001a8565b91505092915050565b608051611bc86200020e5f395f81816109eb015261107c0152611bc85ff3fe608060405234801561000f575f80fd5b5060043610610156575f3560e01c80635c60da1b116100c1578063cc56b2c51161007a578063cc56b2c5146103ee578063cdb88ad11461041e578063d0fb02031461043a578063d49466a814610458578063e1f76b4414610474578063efde4e641461049057610156565b80635c60da1b1461031657806379bc57d5146103345780639fd0506d14610364578063a167129514610382578063b187bd26146103b2578063bc063e1a146103d057610156565b806346c96aac1161011357806346c96aac14610242578063472d35b9146102605780634bc2a6571461027c5780634d419abc146102985780635084ed03146102c85780635b16ebb7146102e657610156565b80631698ee821461015a5780632d88af4a1461018a57806336bf95a0146101a657806338c55d46146101d657806340bbd775146101f457806341d1de9714610212575b5f80fd5b610174600480360381019061016f91906117b5565b6104ae565b6040516101819190611814565b60405180910390f35b6101a4600480360381019061019f919061182d565b610636565b005b6101c060048036038101906101bb919061188d565b61079b565b6040516101cd9190611814565b60405180910390f35b6101de610d3c565b6040516101eb91906118f5565b60405180910390f35b6101fc610d42565b60405161020991906118f5565b60405180910390f35b61022c60048036038101906102279190611938565b610d48565b6040516102399190611814565b60405180910390f35b61024a610d83565b6040516102579190611814565b60405180910390f35b61027a6004803603810190610275919061182d565b610da8565b005b6102966004803603810190610291919061182d565b610f0d565b005b6102b260048036038101906102ad919061182d565b61100d565b6040516102bf91906118f5565b60405180910390f35b6102d0611022565b6040516102dd91906118f5565b60405180910390f35b61030060048036038101906102fb919061182d565b611028565b60405161030d9190611972565b60405180910390f35b61031e61107a565b60405161032b9190611814565b60405180910390f35b61034e6004803603810190610349919061188d565b61109e565b60405161035b9190611814565b60405180910390f35b61036c611153565b6040516103799190611814565b60405180910390f35b61039c600480360381019061039791906117b5565b611178565b6040516103a99190611814565b60405180910390f35b6103ba6111da565b6040516103c79190611972565b60405180910390f35b6103d86111ea565b6040516103e591906118f5565b60405180910390f35b6104086004803603810190610403919061198b565b6111f0565b60405161041591906118f5565b60405180910390f35b610438600480360381019061043391906119c9565b61126a565b005b610442611342565b60405161044f9190611814565b60405180910390f35b610472600480360381019061046d91906119f4565b611367565b005b61048e60048036038101906104899190611a32565b61154b565b005b610498611664565b6040516104a591906118f5565b60405180910390f35b5f60018262ffffff161161062b5760018262ffffff16146105795760055f8573ffffffffffffffffffffffffffffffffffffffff1673ffffffffffffffffffffffffffffffffffffffff1681526020019081526020015f205f8473ffffffffffffffffffffffffffffffffffffffff1673ffffffffffffffffffffffffffffffffffffffff1681526020019081526020015f205f801515151581526020019081526020015f205f9054906101000a900473ffffffffffffffffffffffffffffffffffffffff16610626565b60055f8573ffffffffffffffffffffffffffffffffffffffff1673ffffffffffffffffffffffffffffffffffffffff1681526020019081526020015f205f8473ffffffffffffffffffffffffffffffffffffffff1673ffffffffffffffffffffffffffffffffffffffff1681526020019081526020015f205f60011515151581526020019081526020015f205f9054906101000a900473ffffffffffffffffffffffffffffffffffffffff165b61062d565b5f5b90509392505050565b5f60019054906101000a900473ffffffffffffffffffffffffffffffffffffffff1673ffffffffffffffffffffffffffffffffffffffff163373ffffffffffffffffffffffffffffffffffffffff16146106bc576040517f492f678100000000000000000000000000000000000000000000000000000000815260040160405180910390fd5b5f73ffffffffffffffffffffffffffffffffffffffff168173ffffffffffffffffffffffffffffffffffffffff1603610721576040517fd92e233d00000000000000000000000000000000000000000000000000000000815260040160405180910390fd5b805f60016101000a81548173ffffffffffffffffffffffffffffffffffffffff021916908373ffffffffffffffffffffffffffffffffffffffff1602179055507fe02efb9e8f0fc21546730ab32d594f62d586e1bbb15bb5045edd0b1878a77b35816040516107909190611814565b60405180910390a150565b5f8273ffffffffffffffffffffffffffffffffffffffff168473ffffffffffffffffffffffffffffffffffffffff1603610801576040517f367558c300000000000000000000000000000000000000000000000000000000815260040160405180910390fd5b5f808473ffffffffffffffffffffffffffffffffffffffff168673ffffffffffffffffffffffffffffffffffffffff161061083d578486610840565b85855b915091505f73ffffffffffffffffffffffffffffffffffffffff168273ffffffffffffffffffffffffffffffffffffffff16036108a9576040517fd92e233d00000000000000000000000000000000000000000000000000000000815260040160405180910390fd5b5f73ffffffffffffffffffffffffffffffffffffffff1660055f8473ffffffffffffffffffffffffffffffffffffffff1673ffffffffffffffffffffffffffffffffffffffff1681526020019081526020015f205f8373ffffffffffffffffffffffffffffffffffffffff1673ffffffffffffffffffffffffffffffffffffffff1681526020019081526020015f205f861515151581526020019081526020015f205f9054906101000a900473ffffffffffffffffffffffffffffffffffffffff1673ffffffffffffffffffffffffffffffffffffffff16146109b8576040517f0311932200000000000000000000000000000000000000000000000000000000815260040160405180910390fd5b5f8282866040516020016109ce93929190611afa565b604051602081830303815290604052805190602001209050610a107f000000000000000000000000000000000000000000000000000000000000000082611670565b93508373ffffffffffffffffffffffffffffffffffffffff1663e4bbb5a88484886040518463ffffffff1660e01b8152600401610a4f93929190611b36565b5f604051808303815f87803b158015610a66575f80fd5b505af1158015610a78573d5f803e3d5ffd5b505050508360055f8573ffffffffffffffffffffffffffffffffffffffff1673ffffffffffffffffffffffffffffffffffffffff1681526020019081526020015f205f8473ffffffffffffffffffffffffffffffffffffffff1673ffffffffffffffffffffffffffffffffffffffff1681526020019081526020015f205f871515151581526020019081526020015f205f6101000a81548173ffffffffffffffffffffffffffffffffffffffff021916908373ffffffffffffffffffffffffffffffffffffffff1602179055508360055f8473ffffffffffffffffffffffffffffffffffffffff1673ffffffffffffffffffffffffffffffffffffffff1681526020019081526020015f205f8573ffffffffffffffffffffffffffffffffffffffff1673ffffffffffffffffffffffffffffffffffffffff1681526020019081526020015f205f871515151581526020019081526020015f205f6101000a81548173ffffffffffffffffffffffffffffffffffffffff021916908373ffffffffffffffffffffffffffffffffffffffff160217905550600684908060018154018082558091505060019003905f5260205f20015f9091909190916101000a81548173ffffffffffffffffffffffffffffffffffffffff021916908373ffffffffffffffffffffffffffffffffffffffff160217905550600160075f8673ffffffffffffffffffffffffffffffffffffffff1673ffffffffffffffffffffffffffffffffffffffff1681526020019081526020015f205f6101000a81548160ff0219169083151502179055508415158273ffffffffffffffffffffffffffffffffffffffff168473ffffffffffffffffffffffffffffffffffffffff167f2128d88d14c80cb081c1252a5acff7a264671bf199ce226b53788fb26065005e87600680549050604051610d2a929190611b6b565b60405180910390a45050509392505050565b6101a481565b60015481565b60068181548110610d57575f80fd5b905f5260205f20015f915054906101000a900473ffffffffffffffffffffffffffffffffffffffff1681565b60045f9054906101000a900473ffffffffffffffffffffffffffffffffffffffff1681565b60035f9054906101000a900473ffffffffffffffffffffffffffffffffffffffff1673ffffffffffffffffffffffffffffffffffffffff163373ffffffffffffffffffffffffffffffffffffffff1614610e2e576040517ff5d267eb00000000000000000000000000000000000000000000000000000000815260040160405180910390fd5b5f73ffffffffffffffffffffffffffffffffffffffff168173ffffffffffffffffffffffffffffffffffffffff1603610e93576040517fd92e233d00000000000000000000000000000000000000000000000000000000815260040160405180910390fd5b8060035f6101000a81548173ffffffffffffffffffffffffffffffffffffffff021916908373ffffffffffffffffffffffffffffffffffffffff1602179055507f5d0517e3a4eabea892d9750138cd21d4a6cf3b935b43d0598df7055f463819b281604051610f029190611814565b60405180910390a150565b60045f9054906101000a900473ffffffffffffffffffffffffffffffffffffffff1673ffffffffffffffffffffffffffffffffffffffff163373ffffffffffffffffffffffffffffffffffffffff1614610f93576040517fc18384c100000000000000000000000000000000000000000000000000000000815260040160405180910390fd5b8060045f6101000a81548173ffffffffffffffffffffffffffffffffffffffff021916908373ffffffffffffffffffffffffffffffffffffffff1602179055507fc6ff127433b785c51da9ae4088ee184c909b1a55b9afd82ae6c64224d3bc15d2816040516110029190611814565b60405180910390a150565b6008602052805f5260405f205f915090505481565b60025481565b5f60075f8373ffffffffffffffffffffffffffffffffffffffff1673ffffffffffffffffffffffffffffffffffffffff1681526020019081526020015f205f9054906101000a900460ff169050919050565b7f000000000000000000000000000000000000000000000000000000000000000081565b5f60055f8573ffffffffffffffffffffffffffffffffffffffff1673ffffffffffffffffffffffffffffffffffffffff1681526020019081526020015f205f8473ffffffffffffffffffffffffffffffffffffffff1673ffffffffffffffffffffffffffffffffffffffff1681526020019081526020015f205f831515151581526020019081526020015f205f9054906101000a900473ffffffffffffffffffffffffffffffffffffffff1690509392505050565b5f60019054906101000a900473ffffffffffffffffffffffffffffffffffffffff1681565b5f60018262ffffff1611156111b9576040517f52dadcf900000000000000000000000000000000000000000000000000000000815260040160405180910390fd5b5f60018362ffffff161490506111d085858361079b565b9150509392505050565b5f8054906101000a900460ff1681565b61012c81565b5f8060085f8573ffffffffffffffffffffffffffffffffffffffff1673ffffffffffffffffffffffffffffffffffffffff1681526020019081526020015f205490506101a4811461125f575f8103611258578261124f57600254611253565b6001545b61125a565b805b611261565b5f5b91505092915050565b5f60019054906101000a900473ffffffffffffffffffffffffffffffffffffffff1673ffffffffffffffffffffffffffffffffffffffff163373ffffffffffffffffffffffffffffffffffffffff16146112f0576040517f492f678100000000000000000000000000000000000000000000000000000000815260040160405180910390fd5b805f806101000a81548160ff0219169083151502179055507f0d76538efc408318a051137c2720a9e82902acdbd46b802d488b74ca3a09a116816040516113379190611972565b60405180910390a150565b60035f9054906101000a900473ffffffffffffffffffffffffffffffffffffffff1681565b60035f9054906101000a900473ffffffffffffffffffffffffffffffffffffffff1673ffffffffffffffffffffffffffffffffffffffff163373ffffffffffffffffffffffffffffffffffffffff16146113ed576040517ff5d267eb00000000000000000000000000000000000000000000000000000000815260040160405180910390fd5b61012c8111801561140057506101a48114155b15611437576040517fcd4e616700000000000000000000000000000000000000000000000000000000815260040160405180910390fd5b60075f8373ffffffffffffffffffffffffffffffffffffffff1673ffffffffffffffffffffffffffffffffffffffff1681526020019081526020015f205f9054906101000a900460ff166114b7576040517f2083cd4000000000000000000000000000000000000000000000000000000000815260040160405180910390fd5b8060085f8473ffffffffffffffffffffffffffffffffffffffff1673ffffffffffffffffffffffffffffffffffffffff1681526020019081526020015f20819055508173ffffffffffffffffffffffffffffffffffffffff167fae468ce586f9a87660fdffc1448cee942042c16ae2f02046b134b5224f31936b8260405161153f91906118f5565b60405180910390a25050565b60035f9054906101000a900473ffffffffffffffffffffffffffffffffffffffff1673ffffffffffffffffffffffffffffffffffffffff163373ffffffffffffffffffffffffffffffffffffffff16146115d1576040517ff5d267eb00000000000000000000000000000000000000000000000000000000815260040160405180910390fd5b61012c81111561160d576040517fcd4e616700000000000000000000000000000000000000000000000000000000815260040160405180910390fd5b5f8103611646576040517faf13986d00000000000000000000000000000000000000000000000000000000815260040160405180910390fd5b81156116585780600181905550611660565b806002819055505b5050565b5f600680549050905090565b5f763d602d80600a3d3981f3363d3d373d3d3d363d730000008360601b60e81c175f526e5af43d82803e903d91602b57fd5bf38360781b1760205281603760095ff590505f73ffffffffffffffffffffffffffffffffffffffff168173ffffffffffffffffffffffffffffffffffffffff1603611719576040517fc2f868f400000000000000000000000000000000000000000000000000000000815260040160405180910390fd5b92915050565b5f80fd5b5f73ffffffffffffffffffffffffffffffffffffffff82169050919050565b5f61174c82611723565b9050919050565b61175c81611742565b8114611766575f80fd5b50565b5f8135905061177781611753565b92915050565b5f62ffffff82169050919050565b6117948161177d565b811461179e575f80fd5b50565b5f813590506117af8161178b565b92915050565b5f805f606084860312156117cc576117cb61171f565b5b5f6117d986828701611769565b93505060206117ea86828701611769565b92505060406117fb868287016117a1565b9150509250925092565b61180e81611742565b82525050565b5f6020820190506118275f830184611805565b92915050565b5f602082840312156118425761184161171f565b5b5f61184f84828501611769565b91505092915050565b5f8115159050919050565b61186c81611858565b8114611876575f80fd5b50565b5f8135905061188781611863565b92915050565b5f805f606084860312156118a4576118a361171f565b5b5f6118b186828701611769565b93505060206118c286828701611769565b92505060406118d386828701611879565b9150509250925092565b5f819050919050565b6118ef816118dd565b82525050565b5f6020820190506119085f8301846118e6565b92915050565b611917816118dd565b8114611921575f80fd5b50565b5f813590506119328161190e565b92915050565b5f6020828403121561194d5761194c61171f565b5b5f61195a84828501611924565b91505092915050565b61196c81611858565b82525050565b5f6020820190506119855f830184611963565b92915050565b5f80604083850312156119a1576119a061171f565b5b5f6119ae85828601611769565b92505060206119bf85828601611879565b9150509250929050565b5f602082840312156119de576119dd61171f565b5b5f6119eb84828501611879565b91505092915050565b5f8060408385031215611a0a57611a0961171f565b5b5f611a1785828601611769565b9250506020611a2885828601611924565b9150509250929050565b5f8060408385031215611a4857611a4761171f565b5b5f611a5585828601611879565b9250506020611a6685828601611924565b9150509250929050565b5f8160601b9050919050565b5f611a8682611a70565b9050919050565b5f611a9782611a7c565b9050919050565b611aaf611aaa82611742565b611a8d565b82525050565b5f8160f81b9050919050565b5f611acb82611ab5565b9050919050565b5f611adc82611ac1565b9050919050565b611af4611aef82611858565b611ad2565b82525050565b5f611b058286611a9e565b601482019150611b158285611a9e565b601482019150611b258284611ae3565b600182019150819050949350505050565b5f606082019050611b495f830186611805565b611b566020830185611805565b611b636040830184611963565b949350505050565b5f604082019050611b7e5f830185611805565b611b8b60208301846118e6565b939250505056fea2646970667358221220e6a325e6739556824642f7da5fc2e96454a94c785ede558bf812524c4b9e1a5c64736f6c63430008140033",
					"opcodes": "PUSH1 0xA0 PUSH1 0x40 MSTORE CALLVALUE DUP1 ISZERO PUSH3 0x10 JUMPI PUSH0 DUP1 REVERT JUMPDEST POP PUSH1 0x40 MLOAD PUSH3 0x1DD6 CODESIZE SUB DUP1 PUSH3 0x1DD6 DUP4 CODECOPY DUP2 DUP2 ADD PUSH1 0x40 MSTORE DUP2 ADD SWAP1 PUSH3 0x36 SWAP2 SWAP1 PUSH3 0x1BE JUMP JUMPDEST DUP1 PUSH20 0xFFFFFFFFFFFFFFFFFFFFFFFFFFFFFFFFFFFFFFFF AND PUSH1 0x80 DUP2 PUSH20 0xFFFFFFFFFFFFFFFFFFFFFFFFFFFFFFFFFFFFFFFF AND DUP2 MSTORE POP POP CALLER PUSH1 0x4 PUSH0 PUSH2 0x100 EXP DUP2 SLOAD DUP2 PUSH20 0xFFFFFFFFFFFFFFFFFFFFFFFFFFFFFFFFFFFFFFFF MUL NOT AND SWAP1 DUP4 PUSH20 0xFFFFFFFFFFFFFFFFFFFFFFFFFFFFFFFFFFFFFFFF AND MUL OR SWAP1 SSTORE POP CALLER PUSH0 PUSH1 0x1 PUSH2 0x100 EXP DUP2 SLOAD DUP2 PUSH20 0xFFFFFFFFFFFFFFFFFFFFFFFFFFFFFFFFFFFFFFFF MUL NOT AND SWAP1 DUP4 PUSH20 0xFFFFFFFFFFFFFFFFFFFFFFFFFFFFFFFFFFFFFFFF AND MUL OR SWAP1 SSTORE POP CALLER PUSH1 0x3 PUSH0 PUSH2 0x100 EXP DUP2 SLOAD DUP2 PUSH20 0xFFFFFFFFFFFFFFFFFFFFFFFFFFFFFFFFFFFFFFFF MUL NOT AND SWAP1 DUP4 PUSH20 0xFFFFFFFFFFFFFFFFFFFFFFFFFFFFFFFFFFFFFFFF AND MUL OR SWAP1 SSTORE POP PUSH0 DUP1 PUSH0 PUSH2 0x100 EXP DUP2 SLOAD DUP2 PUSH1 0xFF MUL NOT AND SWAP1 DUP4 ISZERO ISZERO MUL OR SWAP1 SSTORE POP PUSH1 0x5 PUSH1 0x1 DUP2 SWAP1 SSTORE POP PUSH1 0x1E PUSH1 0x2 DUP2 SWAP1 SSTORE POP POP PUSH3 0x1EE JUMP JUMPDEST PUSH0 DUP1 REVERT JUMPDEST PUSH0 PUSH20 0xFFFFFFFFFFFFFFFFFFFFFFFFFFFFFFFFFFFFFFFF DUP3 AND SWAP1 POP SWAP2 SWAP1 POP JUMP JUMPDEST PUSH0 PUSH3 0x188 DUP3 PUSH3 0x15D JUMP JUMPDEST SWAP1 POP SWAP2 SWAP1 POP JUMP JUMPDEST PUSH3 0x19A DUP2 PUSH3 0x17C JUMP JUMPDEST DUP2 EQ PUSH3 0x1A5 JUMPI PUSH0 DUP1 REVERT JUMPDEST POP JUMP JUMPDEST PUSH0 DUP2 MLOAD SWAP1 POP PUSH3 0x1B8 DUP2 PUSH3 0x18F JUMP JUMPDEST SWAP3 SWAP2 POP POP JUMP JUMPDEST PUSH0 PUSH1 0x20 DUP3 DUP5 SUB SLT ISZERO PUSH3 0x1D6 JUMPI PUSH3 0x1D5 PUSH3 0x159 JUMP JUMPDEST JUMPDEST PUSH0 PUSH3 0x1E5 DUP5 DUP3 DUP6 ADD PUSH3 0x1A8 JUMP JUMPDEST SWAP2 POP POP SWAP3 SWAP2 POP POP JUMP JUMPDEST PUSH1 0x80 MLOAD PUSH2 0x1BC8 PUSH3 0x20E PUSH0 CODECOPY PUSH0 DUP2 DUP2 PUSH2 0x9EB ADD MSTORE PUSH2 0x107C ADD MSTORE PUSH2 0x1BC8 PUSH0 RETURN INVALID PUSH1 0x80 PUSH1 0x40 MSTORE CALLVALUE DUP1 ISZERO PUSH2 0xF JUMPI PUSH0 DUP1 REVERT JUMPDEST POP PUSH1 0x4 CALLDATASIZE LT PUSH2 0x156 JUMPI PUSH0 CALLDATALOAD PUSH1 0xE0 SHR DUP1 PUSH4 0x5C60DA1B GT PUSH2 0xC1 JUMPI DUP1 PUSH4 0xCC56B2C5 GT PUSH2 0x7A JUMPI DUP1 PUSH4 0xCC56B2C5 EQ PUSH2 0x3EE JUMPI DUP1 PUSH4 0xCDB88AD1 EQ PUSH2 0x41E JUMPI DUP1 PUSH4 0xD0FB0203 EQ PUSH2 0x43A JUMPI DUP1 PUSH4 0xD49466A8 EQ PUSH2 0x458 JUMPI DUP1 PUSH4 0xE1F76B44 EQ PUSH2 0x474 JUMPI DUP1 PUSH4 0xEFDE4E64 EQ PUSH2 0x490 JUMPI PUSH2 0x156 JUMP JUMPDEST DUP1 PUSH4 0x5C60DA1B EQ PUSH2 0x316 JUMPI DUP1 PUSH4 0x79BC57D5 EQ PUSH2 0x334 JUMPI DUP1 PUSH4 0x9FD0506D EQ PUSH2 0x364 JUMPI DUP1 PUSH4 0xA1671295 EQ PUSH2 0x382 JUMPI DUP1 PUSH4 0xB187BD26 EQ PUSH2 0x3B2 JUMPI DUP1 PUSH4 0xBC063E1A EQ PUSH2 0x3D0 JUMPI PUSH2 0x156 JUMP JUMPDEST DUP1 PUSH4 0x46C96AAC GT PUSH2 0x113 JUMPI DUP1 PUSH4 0x46C96AAC EQ PUSH2 0x242 JUMPI DUP1 PUSH4 0x472D35B9 EQ PUSH2 0x260 JUMPI DUP1 PUSH4 0x4BC2A657 EQ PUSH2 0x27C JUMPI DUP1 PUSH4 0x4D419ABC EQ PUSH2 0x298 JUMPI DUP1 PUSH4 0x5084ED03 EQ PUSH2 0x2C8 JUMPI DUP1 PUSH4 0x5B16EBB7 EQ PUSH2 0x2E6 JUMPI PUSH2 0x156 JUMP JUMPDEST DUP1 PUSH4 0x1698EE82 EQ PUSH2 0x15A JUMPI DUP1 PUSH4 0x2D88AF4A EQ PUSH2 0x18A JUMPI DUP1 PUSH4 0x36BF95A0 EQ PUSH2 0x1A6 JUMPI DUP1 PUSH4 0x38C55D46 EQ PUSH2 0x1D6 JUMPI DUP1 PUSH4 0x40BBD775 EQ PUSH2 0x1F4 JUMPI DUP1 PUSH4 0x41D1DE97 EQ PUSH2 0x212 JUMPI JUMPDEST PUSH0 DUP1 REVERT JUMPDEST PUSH2 0x174 PUSH1 0x4 DUP1 CALLDATASIZE SUB DUP2 ADD SWAP1 PUSH2 0x16F SWAP2 SWAP1 PUSH2 0x17B5 JUMP JUMPDEST PUSH2 0x4AE JUMP JUMPDEST PUSH1 0x40 MLOAD PUSH2 0x181 SWAP2 SWAP1 PUSH2 0x1814 JUMP JUMPDEST PUSH1 0x40 MLOAD DUP1 SWAP2 SUB SWAP1 RETURN JUMPDEST PUSH2 0x1A4 PUSH1 0x4 DUP1 CALLDATASIZE SUB DUP2 ADD SWAP1 PUSH2 0x19F SWAP2 SWAP1 PUSH2 0x182D JUMP JUMPDEST PUSH2 0x636 JUMP JUMPDEST STOP JUMPDEST PUSH2 0x1C0 PUSH1 0x4 DUP1 CALLDATASIZE SUB DUP2 ADD SWAP1 PUSH2 0x1BB SWAP2 SWAP1 PUSH2 0x188D JUMP JUMPDEST PUSH2 0x79B JUMP JUMPDEST PUSH1 0x40 MLOAD PUSH2 0x1CD SWAP2 SWAP1 PUSH2 0x1814 JUMP JUMPDEST PUSH1 0x40 MLOAD DUP1 SWAP2 SUB SWAP1 RETURN JUMPDEST PUSH2 0x1DE PUSH2 0xD3C JUMP JUMPDEST PUSH1 0x40 MLOAD PUSH2 0x1EB SWAP2 SWAP1 PUSH2 0x18F5 JUMP JUMPDEST PUSH1 0x40 MLOAD DUP1 SWAP2 SUB SWAP1 RETURN JUMPDEST PUSH2 0x1FC PUSH2 0xD42 JUMP JUMPDEST PUSH1 0x40 MLOAD PUSH2 0x209 SWAP2 SWAP1 PUSH2 0x18F5 JUMP JUMPDEST PUSH1 0x40 MLOAD DUP1 SWAP2 SUB SWAP1 RETURN JUMPDEST PUSH2 0x22C PUSH1 0x4 DUP1 CALLDATASIZE SUB DUP2 ADD SWAP1 PUSH2 0x227 SWAP2 SWAP1 PUSH2 0x1938 JUMP JUMPDEST PUSH2 0xD48 JUMP JUMPDEST PUSH1 0x40 MLOAD PUSH2 0x239 SWAP2 SWAP1 PUSH2 0x1814 JUMP JUMPDEST PUSH1 0x40 MLOAD DUP1 SWAP2 SUB SWAP1 RETURN JUMPDEST PUSH2 0x24A PUSH2 0xD83 JUMP JUMPDEST PUSH1 0x40 MLOAD PUSH2 0x257 SWAP2 SWAP1 PUSH2 0x1814 JUMP JUMPDEST PUSH1 0x40 MLOAD DUP1 SWAP2 SUB SWAP1 RETURN JUMPDEST PUSH2 0x27A PUSH1 0x4 DUP1 CALLDATASIZE SUB DUP2 ADD SWAP1 PUSH2 0x275 SWAP2 SWAP1 PUSH2 0x182D JUMP JUMPDEST PUSH2 0xDA8 JUMP JUMPDEST STOP JUMPDEST PUSH2 0x296 PUSH1 0x4 DUP1 CALLDATASIZE SUB DUP2 ADD SWAP1 PUSH2 0x291 SWAP2 SWAP1 PUSH2 0x182D JUMP JUMPDEST PUSH2 0xF0D JUMP JUMPDEST STOP JUMPDEST PUSH2 0x2B2 PUSH1 0x4 DUP1 CALLDATASIZE SUB DUP2 ADD SWAP1 PUSH2 0x2AD SWAP2 SWAP1 PUSH2 0x182D JUMP JUMPDEST PUSH2 0x100D JUMP JUMPDEST PUSH1 0x40 MLOAD PUSH2 0x2BF SWAP2 SWAP1 PUSH2 0x18F5 JUMP JUMPDEST PUSH1 0x40 MLOAD DUP1 SWAP2 SUB SWAP1 RETURN JUMPDEST PUSH2 0x2D0 PUSH2 0x1022 JUMP JUMPDEST PUSH1 0x40 MLOAD PUSH2 0x2DD SWAP2 SWAP1 PUSH2 0x18F5 JUMP JUMPDEST PUSH1 0x40 MLOAD DUP1 SWAP2 SUB SWAP1 RETURN JUMPDEST PUSH2 0x300 PUSH1 0x4 DUP1 CALLDATASIZE SUB DUP2 ADD SWAP1 PUSH2 0x2FB SWAP2 SWAP1 PUSH2 0x182D JUMP JUMPDEST PUSH2 0x1028 JUMP JUMPDEST PUSH1 0x40 MLOAD PUSH2 0x30D SWAP2 SWAP1 PUSH2 0x1972 JUMP JUMPDEST PUSH1 0x40 MLOAD DUP1 SWAP2 SUB SWAP1 RETURN JUMPDEST PUSH2 0x31E PUSH2 0x107A JUMP JUMPDEST PUSH1 0x40 MLOAD PUSH2 0x32B SWAP2 SWAP1 PUSH2 0x1814 JUMP JUMPDEST PUSH1 0x40 MLOAD DUP1 SWAP2 SUB SWAP1 RETURN JUMPDEST PUSH2 0x34E PUSH1 0x4 DUP1 CALLDATASIZE SUB DUP2 ADD SWAP1 PUSH2 0x349 SWAP2 SWAP1 PUSH2 0x188D JUMP JUMPDEST PUSH2 0x109E JUMP JUMPDEST PUSH1 0x40 MLOAD PUSH2 0x35B SWAP2 SWAP1 PUSH2 0x1814 JUMP JUMPDEST PUSH1 0x40 MLOAD DUP1 SWAP2 SUB SWAP1 RETURN JUMPDEST PUSH2 0x36C PUSH2 0x1153 JUMP JUMPDEST PUSH1 0x40 MLOAD PUSH2 0x379 SWAP2 SWAP1 PUSH2 0x1814 JUMP JUMPDEST PUSH1 0x40 MLOAD DUP1 SWAP2 SUB SWAP1 RETURN JUMPDEST PUSH2 0x39C PUSH1 0x4 DUP1 CALLDATASIZE SUB DUP2 ADD SWAP1 PUSH2 0x397 SWAP2 SWAP1 PUSH2 0x17B5 JUMP JUMPDEST PUSH2 0x1178 JUMP JUMPDEST PUSH1 0x40 MLOAD PUSH2 0x3A9 SWAP2 SWAP1 PUSH2 0x1814 JUMP JUMPDEST PUSH1 0x40 MLOAD DUP1 SWAP2 SUB SWAP1 RETURN JUMPDEST PUSH2 0x3BA PUSH2 0x11DA JUMP JUMPDEST PUSH1 0x40 MLOAD PUSH2 0x3C7 SWAP2 SWAP1 PUSH2 0x1972 JUMP JUMPDEST PUSH1 0x40 MLOAD DUP1 SWAP2 SUB SWAP1 RETURN JUMPDEST PUSH2 0x3D8 PUSH2 0x11EA JUMP JUMPDEST PUSH1 0x40 MLOAD PUSH2 0x3E5 SWAP2 SWAP1 PUSH2 0x18F5 JUMP JUMPDEST PUSH1 0x40 MLOAD DUP1 SWAP2 SUB SWAP1 RETURN JUMPDEST PUSH2 0x408 PUSH1 0x4 DUP1 CALLDATASIZE SUB DUP2 ADD SWAP1 PUSH2 0x403 SWAP2 SWAP1 PUSH2 0x198B JUMP JUMPDEST PUSH2 0x11F0 JUMP JUMPDEST PUSH1 0x40 MLOAD PUSH2 0x415 SWAP2 SWAP1 PUSH2 0x18F5 JUMP JUMPDEST PUSH1 0x40 MLOAD DUP1 SWAP2 SUB SWAP1 RETURN JUMPDEST PUSH2 0x438 PUSH1 0x4 DUP1 CALLDATASIZE SUB DUP2 ADD SWAP1 PUSH2 0x433 SWAP2 SWAP1 PUSH2 0x19C9 JUMP JUMPDEST PUSH2 0x126A JUMP JUMPDEST STOP JUMPDEST PUSH2 0x442 PUSH2 0x1342 JUMP JUMPDEST PUSH1 0x40 MLOAD PUSH2 0x44F SWAP2 SWAP1 PUSH2 0x1814 JUMP JUMPDEST PUSH1 0x40 MLOAD DUP1 SWAP2 SUB SWAP1 RETURN JUMPDEST PUSH2 0x472 PUSH1 0x4 DUP1 CALLDATASIZE SUB DUP2 ADD SWAP1 PUSH2 0x46D SWAP2 SWAP1 PUSH2 0x19F4 JUMP JUMPDEST PUSH2 0x1367 JUMP JUMPDEST STOP JUMPDEST PUSH2 0x48E PUSH1 0x4 DUP1 CALLDATASIZE SUB DUP2 ADD SWAP1 PUSH2 0x489 SWAP2 SWAP1 PUSH2 0x1A32 JUMP JUMPDEST PUSH2 0x154B JUMP JUMPDEST STOP JUMPDEST PUSH2 0x498 PUSH2 0x1664 JUMP JUMPDEST PUSH1 0x40 MLOAD PUSH2 0x4A5 SWAP2 SWAP1 PUSH2 0x18F5 JUMP JUMPDEST PUSH1 0x40 MLOAD DUP1 SWAP2 SUB SWAP1 RETURN JUMPDEST PUSH0 PUSH1 0x1 DUP3 PUSH3 0xFFFFFF AND GT PUSH2 0x62B JUMPI PUSH1 0x1 DUP3 PUSH3 0xFFFFFF AND EQ PUSH2 0x579 JUMPI PUSH1 0x5 PUSH0 DUP6 PUSH20 0xFFFFFFFFFFFFFFFFFFFFFFFFFFFFFFFFFFFFFFFF AND PUSH20 0xFFFFFFFFFFFFFFFFFFFFFFFFFFFFFFFFFFFFFFFF AND DUP2 MSTORE PUSH1 0x20 ADD SWAP1 DUP2 MSTORE PUSH1 0x20 ADD PUSH0 KECCAK256 PUSH0 DUP5 PUSH20 0xFFFFFFFFFFFFFFFFFFFFFFFFFFFFFFFFFFFFFFFF AND PUSH20 0xFFFFFFFFFFFFFFFFFFFFFFFFFFFFFFFFFFFFFFFF AND DUP2 MSTORE PUSH1 0x20 ADD SWAP1 DUP2 MSTORE PUSH1 0x20 ADD PUSH0 KECCAK256 PUSH0 DUP1 ISZERO ISZERO ISZERO ISZERO DUP2 MSTORE PUSH1 0x20 ADD SWAP1 DUP2 MSTORE PUSH1 0x20 ADD PUSH0 KECCAK256 PUSH0 SWAP1 SLOAD SWAP1 PUSH2 0x100 EXP SWAP1 DIV PUSH20 0xFFFFFFFFFFFFFFFFFFFFFFFFFFFFFFFFFFFFFFFF AND PUSH2 0x626 JUMP JUMPDEST PUSH1 0x5 PUSH0 DUP6 PUSH20 0xFFFFFFFFFFFFFFFFFFFFFFFFFFFFFFFFFFFFFFFF AND PUSH20 0xFFFFFFFFFFFFFFFFFFFFFFFFFFFFFFFFFFFFFFFF AND DUP2 MSTORE PUSH1 0x20 ADD SWAP1 DUP2 MSTORE PUSH1 0x20 ADD PUSH0 KECCAK256 PUSH0 DUP5 PUSH20 0xFFFFFFFFFFFFFFFFFFFFFFFFFFFFFFFFFFFFFFFF AND PUSH20 0xFFFFFFFFFFFFFFFFFFFFFFFFFFFFFFFFFFFFFFFF AND DUP2 MSTORE PUSH1 0x20 ADD SWAP1 DUP2 MSTORE PUSH1 0x20 ADD PUSH0 KECCAK256 PUSH0 PUSH1 0x1 ISZERO ISZERO ISZERO ISZERO DUP2 MSTORE PUSH1 0x20 ADD SWAP1 DUP2 MSTORE PUSH1 0x20 ADD PUSH0 KECCAK256 PUSH0 SWAP1 SLOAD SWAP1 PUSH2 0x100 EXP SWAP1 DIV PUSH20 0xFFFFFFFFFFFFFFFFFFFFFFFFFFFFFFFFFFFFFFFF AND JUMPDEST PUSH2 0x62D JUMP JUMPDEST PUSH0 JUMPDEST SWAP1 POP SWAP4 SWAP3 POP POP POP JUMP JUMPDEST PUSH0 PUSH1 0x1 SWAP1 SLOAD SWAP1 PUSH2 0x100 EXP SWAP1 DIV PUSH20 0xFFFFFFFFFFFFFFFFFFFFFFFFFFFFFFFFFFFFFFFF AND PUSH20 0xFFFFFFFFFFFFFFFFFFFFFFFFFFFFFFFFFFFFFFFF AND CALLER PUSH20 0xFFFFFFFFFFFFFFFFFFFFFFFFFFFFFFFFFFFFFFFF AND EQ PUSH2 0x6BC JUMPI PUSH1 0x40 MLOAD PUSH32 0x492F678100000000000000000000000000000000000000000000000000000000 DUP2 MSTORE PUSH1 0x4 ADD PUSH1 0x40 MLOAD DUP1 SWAP2 SUB SWAP1 REVERT JUMPDEST PUSH0 PUSH20 0xFFFFFFFFFFFFFFFFFFFFFFFFFFFFFFFFFFFFFFFF AND DUP2 PUSH20 0xFFFFFFFFFFFFFFFFFFFFFFFFFFFFFFFFFFFFFFFF AND SUB PUSH2 0x721 JUMPI PUSH1 0x40 MLOAD PUSH32 0xD92E233D00000000000000000000000000000000000000000000000000000000 DUP2 MSTORE PUSH1 0x4 ADD PUSH1 0x40 MLOAD DUP1 SWAP2 SUB SWAP1 REVERT JUMPDEST DUP1 PUSH0 PUSH1 0x1 PUSH2 0x100 EXP DUP2 SLOAD DUP2 PUSH20 0xFFFFFFFFFFFFFFFFFFFFFFFFFFFFFFFFFFFFFFFF MUL NOT AND SWAP1 DUP4 PUSH20 0xFFFFFFFFFFFFFFFFFFFFFFFFFFFFFFFFFFFFFFFF AND MUL OR SWAP1 SSTORE POP PUSH32 0xE02EFB9E8F0FC21546730AB32D594F62D586E1BBB15BB5045EDD0B1878A77B35 DUP2 PUSH1 0x40 MLOAD PUSH2 0x790 SWAP2 SWAP1 PUSH2 0x1814 JUMP JUMPDEST PUSH1 0x40 MLOAD DUP1 SWAP2 SUB SWAP1 LOG1 POP JUMP JUMPDEST PUSH0 DUP3 PUSH20 0xFFFFFFFFFFFFFFFFFFFFFFFFFFFFFFFFFFFFFFFF AND DUP5 PUSH20 0xFFFFFFFFFFFFFFFFFFFFFFFFFFFFFFFFFFFFFFFF AND SUB PUSH2 0x801 JUMPI PUSH1 0x40 MLOAD PUSH32 0x367558C300000000000000000000000000000000000000000000000000000000 DUP2 MSTORE PUSH1 0x4 ADD PUSH1 0x40 MLOAD DUP1 SWAP2 SUB SWAP1 REVERT JUMPDEST PUSH0 DUP1 DUP5 PUSH20 0xFFFFFFFFFFFFFFFFFFFFFFFFFFFFFFFFFFFFFFFF AND DUP7 PUSH20 0xFFFFFFFFFFFFFFFFFFFFFFFFFFFFFFFFFFFFFFFF AND LT PUSH2 0x83D JUMPI DUP5 DUP7 PUSH2 0x840 JUMP JUMPDEST DUP6 DUP6 JUMPDEST SWAP2 POP SWAP2 POP PUSH0 PUSH20 0xFFFFFFFFFFFFFFFFFFFFFFFFFFFFFFFFFFFFFFFF AND DUP3 PUSH20 0xFFFFFFFFFFFFFFFFFFFFFFFFFFFFFFFFFFFFFFFF AND SUB PUSH2 0x8A9 JUMPI PUSH1 0x40 MLOAD PUSH32 0xD92E233D00000000000000000000000000000000000000000000000000000000 DUP2 MSTORE PUSH1 0x4 ADD PUSH1 0x40 MLOAD DUP1 SWAP2 SUB SWAP1 REVERT JUMPDEST PUSH0 PUSH20 0xFFFFFFFFFFFFFFFFFFFFFFFFFFFFFFFFFFFFFFFF AND PUSH1 0x5 PUSH0 DUP5 PUSH20 0xFFFFFFFFFFFFFFFFFFFFFFFFFFFFFFFFFFFFFFFF AND PUSH20 0xFFFFFFFFFFFFFFFFFFFFFFFFFFFFFFFFFFFFFFFF AND DUP2 MSTORE PUSH1 0x20 ADD SWAP1 DUP2 MSTORE PUSH1 0x20 ADD PUSH0 KECCAK256 PUSH0 DUP4 PUSH20 0xFFFFFFFFFFFFFFFFFFFFFFFFFFFFFFFFFFFFFFFF AND PUSH20 0xFFFFFFFFFFFFFFFFFFFFFFFFFFFFFFFFFFFFFFFF AND DUP2 MSTORE PUSH1 0x20 ADD SWAP1 DUP2 MSTORE PUSH1 0x20 ADD PUSH0 KECCAK256 PUSH0 DUP7 ISZERO ISZERO ISZERO ISZERO DUP2 MSTORE PUSH1 0x20 ADD SWAP1 DUP2 MSTORE PUSH1 0x20 ADD PUSH0 KECCAK256 PUSH0 SWAP1 SLOAD SWAP1 PUSH2 0x100 EXP SWAP1 DIV PUSH20 0xFFFFFFFFFFFFFFFFFFFFFFFFFFFFFFFFFFFFFFFF AND PUSH20 0xFFFFFFFFFFFFFFFFFFFFFFFFFFFFFFFFFFFFFFFF AND EQ PUSH2 0x9B8 JUMPI PUSH1 0x40 MLOAD PUSH32 0x311932200000000000000000000000000000000000000000000000000000000 DUP2 MSTORE PUSH1 0x4 ADD PUSH1 0x40 MLOAD DUP1 SWAP2 SUB SWAP1 REVERT JUMPDEST PUSH0 DUP3 DUP3 DUP7 PUSH1 0x40 MLOAD PUSH1 0x20 ADD PUSH2 0x9CE SWAP4 SWAP3 SWAP2 SWAP1 PUSH2 0x1AFA JUMP JUMPDEST PUSH1 0x40 MLOAD PUSH1 0x20 DUP2 DUP4 SUB SUB DUP2 MSTORE SWAP1 PUSH1 0x40 MSTORE DUP1 MLOAD SWAP1 PUSH1 0x20 ADD KECCAK256 SWAP1 POP PUSH2 0xA10 PUSH32 0x0 DUP3 PUSH2 0x1670 JUMP JUMPDEST SWAP4 POP DUP4 PUSH20 0xFFFFFFFFFFFFFFFFFFFFFFFFFFFFFFFFFFFFFFFF AND PUSH4 0xE4BBB5A8 DUP5 DUP5 DUP9 PUSH1 0x40 MLOAD DUP5 PUSH4 0xFFFFFFFF AND PUSH1 0xE0 SHL DUP2 MSTORE PUSH1 0x4 ADD PUSH2 0xA4F SWAP4 SWAP3 SWAP2 SWAP1 PUSH2 0x1B36 JUMP JUMPDEST PUSH0 PUSH1 0x40 MLOAD DUP1 DUP4 SUB DUP2 PUSH0 DUP8 DUP1 EXTCODESIZE ISZERO DUP1 ISZERO PUSH2 0xA66 JUMPI PUSH0 DUP1 REVERT JUMPDEST POP GAS CALL ISZERO DUP1 ISZERO PUSH2 0xA78 JUMPI RETURNDATASIZE PUSH0 DUP1 RETURNDATACOPY RETURNDATASIZE PUSH0 REVERT JUMPDEST POP POP POP POP DUP4 PUSH1 0x5 PUSH0 DUP6 PUSH20 0xFFFFFFFFFFFFFFFFFFFFFFFFFFFFFFFFFFFFFFFF AND PUSH20 0xFFFFFFFFFFFFFFFFFFFFFFFFFFFFFFFFFFFFFFFF AND DUP2 MSTORE PUSH1 0x20 ADD SWAP1 DUP2 MSTORE PUSH1 0x20 ADD PUSH0 KECCAK256 PUSH0 DUP5 PUSH20 0xFFFFFFFFFFFFFFFFFFFFFFFFFFFFFFFFFFFFFFFF AND PUSH20 0xFFFFFFFFFFFFFFFFFFFFFFFFFFFFFFFFFFFFFFFF AND DUP2 MSTORE PUSH1 0x20 ADD SWAP1 DUP2 MSTORE PUSH1 0x20 ADD PUSH0 KECCAK256 PUSH0 DUP8 ISZERO ISZERO ISZERO ISZERO DUP2 MSTORE PUSH1 0x20 ADD SWAP1 DUP2 MSTORE PUSH1 0x20 ADD PUSH0 KECCAK256 PUSH0 PUSH2 0x100 EXP DUP2 SLOAD DUP2 PUSH20 0xFFFFFFFFFFFFFFFFFFFFFFFFFFFFFFFFFFFFFFFF MUL NOT AND SWAP1 DUP4 PUSH20 0xFFFFFFFFFFFFFFFFFFFFFFFFFFFFFFFFFFFFFFFF AND MUL OR SWAP1 SSTORE POP DUP4 PUSH1 0x5 PUSH0 DUP5 PUSH20 0xFFFFFFFFFFFFFFFFFFFFFFFFFFFFFFFFFFFFFFFF AND PUSH20 0xFFFFFFFFFFFFFFFFFFFFFFFFFFFFFFFFFFFFFFFF AND DUP2 MSTORE PUSH1 0x20 ADD SWAP1 DUP2 MSTORE PUSH1 0x20 ADD PUSH0 KECCAK256 PUSH0 DUP6 PUSH20 0xFFFFFFFFFFFFFFFFFFFFFFFFFFFFFFFFFFFFFFFF AND PUSH20 0xFFFFFFFFFFFFFFFFFFFFFFFFFFFFFFFFFFFFFFFF AND DUP2 MSTORE PUSH1 0x20 ADD SWAP1 DUP2 MSTORE PUSH1 0x20 ADD PUSH0 KECCAK256 PUSH0 DUP8 ISZERO ISZERO ISZERO ISZERO DUP2 MSTORE PUSH1 0x20 ADD SWAP1 DUP2 MSTORE PUSH1 0x20 ADD PUSH0 KECCAK256 PUSH0 PUSH2 0x100 EXP DUP2 SLOAD DUP2 PUSH20 0xFFFFFFFFFFFFFFFFFFFFFFFFFFFFFFFFFFFFFFFF MUL NOT AND SWAP1 DUP4 PUSH20 0xFFFFFFFFFFFFFFFFFFFFFFFFFFFFFFFFFFFFFFFF AND MUL OR SWAP1 SSTORE POP PUSH1 0x6 DUP5 SWAP1 DUP1 PUSH1 0x1 DUP2 SLOAD ADD DUP1 DUP3 SSTORE DUP1 SWAP2 POP POP PUSH1 0x1 SWAP1 SUB SWAP1 PUSH0 MSTORE PUSH1 0x20 PUSH0 KECCAK256 ADD PUSH0 SWAP1 SWAP2 SWAP1 SWAP2 SWAP1 SWAP2 PUSH2 0x100 EXP DUP2 SLOAD DUP2 PUSH20 0xFFFFFFFFFFFFFFFFFFFFFFFFFFFFFFFFFFFFFFFF MUL NOT AND SWAP1 DUP4 PUSH20 0xFFFFFFFFFFFFFFFFFFFFFFFFFFFFFFFFFFFFFFFF AND MUL OR SWAP1 SSTORE POP PUSH1 0x1 PUSH1 0x7 PUSH0 DUP7 PUSH20 0xFFFFFFFFFFFFFFFFFFFFFFFFFFFFFFFFFFFFFFFF AND PUSH20 0xFFFFFFFFFFFFFFFFFFFFFFFFFFFFFFFFFFFFFFFF AND DUP2 MSTORE PUSH1 0x20 ADD SWAP1 DUP2 MSTORE PUSH1 0x20 ADD PUSH0 KECCAK256 PUSH0 PUSH2 0x100 EXP DUP2 SLOAD DUP2 PUSH1 0xFF MUL NOT AND SWAP1 DUP4 ISZERO ISZERO MUL OR SWAP1 SSTORE POP DUP5 ISZERO ISZERO DUP3 PUSH20 0xFFFFFFFFFFFFFFFFFFFFFFFFFFFFFFFFFFFFFFFF AND DUP5 PUSH20 0xFFFFFFFFFFFFFFFFFFFFFFFFFFFFFFFFFFFFFFFF AND PUSH32 0x2128D88D14C80CB081C1252A5ACFF7A264671BF199CE226B53788FB26065005E DUP8 PUSH1 0x6 DUP1 SLOAD SWAP1 POP PUSH1 0x40 MLOAD PUSH2 0xD2A SWAP3 SWAP2 SWAP1 PUSH2 0x1B6B JUMP JUMPDEST PUSH1 0x40 MLOAD DUP1 SWAP2 SUB SWAP1 LOG4 POP POP POP SWAP4 SWAP3 POP POP POP JUMP JUMPDEST PUSH2 0x1A4 DUP2 JUMP JUMPDEST PUSH1 0x1 SLOAD DUP2 JUMP JUMPDEST PUSH1 0x6 DUP2 DUP2 SLOAD DUP2 LT PUSH2 0xD57 JUMPI PUSH0 DUP1 REVERT JUMPDEST SWAP1 PUSH0 MSTORE PUSH1 0x20 PUSH0 KECCAK256 ADD PUSH0 SWAP2 POP SLOAD SWAP1 PUSH2 0x100 EXP SWAP1 DIV PUSH20 0xFFFFFFFFFFFFFFFFFFFFFFFFFFFFFFFFFFFFFFFF AND DUP2 JUMP JUMPDEST PUSH1 0x4 PUSH0 SWAP1 SLOAD SWAP1 PUSH2 0x100 EXP SWAP1 DIV PUSH20 0xFFFFFFFFFFFFFFFFFFFFFFFFFFFFFFFFFFFFFFFF AND DUP2 JUMP JUMPDEST PUSH1 0x3 PUSH0 SWAP1 SLOAD SWAP1 PUSH2 0x100 EXP SWAP1 DIV PUSH20 0xFFFFFFFFFFFFFFFFFFFFFFFFFFFFFFFFFFFFFFFF AND PUSH20 0xFFFFFFFFFFFFFFFFFFFFFFFFFFFFFFFFFFFFFFFF AND CALLER PUSH20 0xFFFFFFFFFFFFFFFFFFFFFFFFFFFFFFFFFFFFFFFF AND EQ PUSH2 0xE2E JUMPI PUSH1 0x40 MLOAD PUSH32 0xF5D267EB00000000000000000000000000000000000000000000000000000000 DUP2 MSTORE PUSH1 0x4 ADD PUSH1 0x40 MLOAD DUP1 SWAP2 SUB SWAP1 REVERT JUMPDEST PUSH0 PUSH20 0xFFFFFFFFFFFFFFFFFFFFFFFFFFFFFFFFFFFFFFFF AND DUP2 PUSH20 0xFFFFFFFFFFFFFFFFFFFFFFFFFFFFFFFFFFFFFFFF AND SUB PUSH2 0xE93 JUMPI PUSH1 0x40 MLOAD PUSH32 0xD92E233D00000000000000000000000000000000000000000000000000000000 DUP2 MSTORE PUSH1 0x4 ADD PUSH1 0x40 MLOAD DUP1 SWAP2 SUB SWAP1 REVERT JUMPDEST DUP1 PUSH1 0x3 PUSH0 PUSH2 0x100 EXP DUP2 SLOAD DUP2 PUSH20 0xFFFFFFFFFFFFFFFFFFFFFFFFFFFFFFFFFFFFFFFF MUL NOT AND SWAP1 DUP4 PUSH20 0xFFFFFFFFFFFFFFFFFFFFFFFFFFFFFFFFFFFFFFFF AND MUL OR SWAP1 SSTORE POP PUSH32 0x5D0517E3A4EABEA892D9750138CD21D4A6CF3B935B43D0598DF7055F463819B2 DUP2 PUSH1 0x40 MLOAD PUSH2 0xF02 SWAP2 SWAP1 PUSH2 0x1814 JUMP JUMPDEST PUSH1 0x40 MLOAD DUP1 SWAP2 SUB SWAP1 LOG1 POP JUMP JUMPDEST PUSH1 0x4 PUSH0 SWAP1 SLOAD SWAP1 PUSH2 0x100 EXP SWAP1 DIV PUSH20 0xFFFFFFFFFFFFFFFFFFFFFFFFFFFFFFFFFFFFFFFF AND PUSH20 0xFFFFFFFFFFFFFFFFFFFFFFFFFFFFFFFFFFFFFFFF AND CALLER PUSH20 0xFFFFFFFFFFFFFFFFFFFFFFFFFFFFFFFFFFFFFFFF AND EQ PUSH2 0xF93 JUMPI PUSH1 0x40 MLOAD PUSH32 0xC18384C100000000000000000000000000000000000000000000000000000000 DUP2 MSTORE PUSH1 0x4 ADD PUSH1 0x40 MLOAD DUP1 SWAP2 SUB SWAP1 REVERT JUMPDEST DUP1 PUSH1 0x4 PUSH0 PUSH2 0x100 EXP DUP2 SLOAD DUP2 PUSH20 0xFFFFFFFFFFFFFFFFFFFFFFFFFFFFFFFFFFFFFFFF MUL NOT AND SWAP1 DUP4 PUSH20 0xFFFFFFFFFFFFFFFFFFFFFFFFFFFFFFFFFFFFFFFF AND MUL OR SWAP1 SSTORE POP PUSH32 0xC6FF127433B785C51DA9AE4088EE184C909B1A55B9AFD82AE6C64224D3BC15D2 DUP2 PUSH1 0x40 MLOAD PUSH2 0x1002 SWAP2 SWAP1 PUSH2 0x1814 JUMP JUMPDEST PUSH1 0x40 MLOAD DUP1 SWAP2 SUB SWAP1 LOG1 POP JUMP JUMPDEST PUSH1 0x8 PUSH1 0x20 MSTORE DUP1 PUSH0 MSTORE PUSH1 0x40 PUSH0 KECCAK256 PUSH0 SWAP2 POP SWAP1 POP SLOAD DUP2 JUMP JUMPDEST PUSH1 0x2 SLOAD DUP2 JUMP JUMPDEST PUSH0 PUSH1 0x7 PUSH0 DUP4 PUSH20 0xFFFFFFFFFFFFFFFFFFFFFFFFFFFFFFFFFFFFFFFF AND PUSH20 0xFFFFFFFFFFFFFFFFFFFFFFFFFFFFFFFFFFFFFFFF AND DUP2 MSTORE PUSH1 0x20 ADD SWAP1 DUP2 MSTORE PUSH1 0x20 ADD PUSH0 KECCAK256 PUSH0 SWAP1 SLOAD SWAP1 PUSH2 0x100 EXP SWAP1 DIV PUSH1 0xFF AND SWAP1 POP SWAP2 SWAP1 POP JUMP JUMPDEST PUSH32 0x0 DUP2 JUMP JUMPDEST PUSH0 PUSH1 0x5 PUSH0 DUP6 PUSH20 0xFFFFFFFFFFFFFFFFFFFFFFFFFFFFFFFFFFFFFFFF AND PUSH20 0xFFFFFFFFFFFFFFFFFFFFFFFFFFFFFFFFFFFFFFFF AND DUP2 MSTORE PUSH1 0x20 ADD SWAP1 DUP2 MSTORE PUSH1 0x20 ADD PUSH0 KECCAK256 PUSH0 DUP5 PUSH20 0xFFFFFFFFFFFFFFFFFFFFFFFFFFFFFFFFFFFFFFFF AND PUSH20 0xFFFFFFFFFFFFFFFFFFFFFFFFFFFFFFFFFFFFFFFF AND DUP2 MSTORE PUSH1 0x20 ADD SWAP1 DUP2 MSTORE PUSH1 0x20 ADD PUSH0 KECCAK256 PUSH0 DUP4 ISZERO ISZERO ISZERO ISZERO DUP2 MSTORE PUSH1 0x20 ADD SWAP1 DUP2 MSTORE PUSH1 0x20 ADD PUSH0 KECCAK256 PUSH0 SWAP1 SLOAD SWAP1 PUSH2 0x100 EXP SWAP1 DIV PUSH20 0xFFFFFFFFFFFFFFFFFFFFFFFFFFFFFFFFFFFFFFFF AND SWAP1 POP SWAP4 SWAP3 POP POP POP JUMP JUMPDEST PUSH0 PUSH1 0x1 SWAP1 SLOAD SWAP1 PUSH2 0x100 EXP SWAP1 DIV PUSH20 0xFFFFFFFFFFFFFFFFFFFFFFFFFFFFFFFFFFFFFFFF AND DUP2 JUMP JUMPDEST PUSH0 PUSH1 0x1 DUP3 PUSH3 0xFFFFFF AND GT ISZERO PUSH2 0x11B9 JUMPI PUSH1 0x40 MLOAD PUSH32 0x52DADCF900000000000000000000000000000000000000000000000000000000 DUP2 MSTORE PUSH1 0x4 ADD PUSH1 0x40 MLOAD DUP1 SWAP2 SUB SWAP1 REVERT JUMPDEST PUSH0 PUSH1 0x1 DUP4 PUSH3 0xFFFFFF AND EQ SWAP1 POP PUSH2 0x11D0 DUP6 DUP6 DUP4 PUSH2 0x79B JUMP JUMPDEST SWAP2 POP POP SWAP4 SWAP3 POP POP POP JUMP JUMPDEST PUSH0 DUP1 SLOAD SWAP1 PUSH2 0x100 EXP SWAP1 DIV PUSH1 0xFF AND DUP2 JUMP JUMPDEST PUSH2 0x12C DUP2 JUMP JUMPDEST PUSH0 DUP1 PUSH1 0x8 PUSH0 DUP6 PUSH20 0xFFFFFFFFFFFFFFFFFFFFFFFFFFFFFFFFFFFFFFFF AND PUSH20 0xFFFFFFFFFFFFFFFFFFFFFFFFFFFFFFFFFFFFFFFF AND DUP2 MSTORE PUSH1 0x20 ADD SWAP1 DUP2 MSTORE PUSH1 0x20 ADD PUSH0 KECCAK256 SLOAD SWAP1 POP PUSH2 0x1A4 DUP2 EQ PUSH2 0x125F JUMPI PUSH0 DUP2 SUB PUSH2 0x1258 JUMPI DUP3 PUSH2 0x124F JUMPI PUSH1 0x2 SLOAD PUSH2 0x1253 JUMP JUMPDEST PUSH1 0x1 SLOAD JUMPDEST PUSH2 0x125A JUMP JUMPDEST DUP1 JUMPDEST PUSH2 0x1261 JUMP JUMPDEST PUSH0 JUMPDEST SWAP2 POP POP SWAP3 SWAP2 POP POP JUMP JUMPDEST PUSH0 PUSH1 0x1 SWAP1 SLOAD SWAP1 PUSH2 0x100 EXP SWAP1 DIV PUSH20 0xFFFFFFFFFFFFFFFFFFFFFFFFFFFFFFFFFFFFFFFF AND PUSH20 0xFFFFFFFFFFFFFFFFFFFFFFFFFFFFFFFFFFFFFFFF AND CALLER PUSH20 0xFFFFFFFFFFFFFFFFFFFFFFFFFFFFFFFFFFFFFFFF AND EQ PUSH2 0x12F0 JUMPI PUSH1 0x40 MLOAD PUSH32 0x492F678100000000000000000000000000000000000000000000000000000000 DUP2 MSTORE PUSH1 0x4 ADD PUSH1 0x40 MLOAD DUP1 SWAP2 SUB SWAP1 REVERT JUMPDEST DUP1 PUSH0 DUP1 PUSH2 0x100 EXP DUP2 SLOAD DUP2 PUSH1 0xFF MUL NOT AND SWAP1 DUP4 ISZERO ISZERO MUL OR SWAP1 SSTORE POP PUSH32 0xD76538EFC408318A051137C2720A9E82902ACDBD46B802D488B74CA3A09A116 DUP2 PUSH1 0x40 MLOAD PUSH2 0x1337 SWAP2 SWAP1 PUSH2 0x1972 JUMP JUMPDEST PUSH1 0x40 MLOAD DUP1 SWAP2 SUB SWAP1 LOG1 POP JUMP JUMPDEST PUSH1 0x3 PUSH0 SWAP1 SLOAD SWAP1 PUSH2 0x100 EXP SWAP1 DIV PUSH20 0xFFFFFFFFFFFFFFFFFFFFFFFFFFFFFFFFFFFFFFFF AND DUP2 JUMP JUMPDEST PUSH1 0x3 PUSH0 SWAP1 SLOAD SWAP1 PUSH2 0x100 EXP SWAP1 DIV PUSH20 0xFFFFFFFFFFFFFFFFFFFFFFFFFFFFFFFFFFFFFFFF AND PUSH20 0xFFFFFFFFFFFFFFFFFFFFFFFFFFFFFFFFFFFFFFFF AND CALLER PUSH20 0xFFFFFFFFFFFFFFFFFFFFFFFFFFFFFFFFFFFFFFFF AND EQ PUSH2 0x13ED JUMPI PUSH1 0x40 MLOAD PUSH32 0xF5D267EB00000000000000000000000000000000000000000000000000000000 DUP2 MSTORE PUSH1 0x4 ADD PUSH1 0x40 MLOAD DUP1 SWAP2 SUB SWAP1 REVERT JUMPDEST PUSH2 0x12C DUP2 GT DUP1 ISZERO PUSH2 0x1400 JUMPI POP PUSH2 0x1A4 DUP2 EQ ISZERO JUMPDEST ISZERO PUSH2 0x1437 JUMPI PUSH1 0x40 MLOAD PUSH32 0xCD4E616700000000000000000000000000000000000000000000000000000000 DUP2 MSTORE PUSH1 0x4 ADD PUSH1 0x40 MLOAD DUP1 SWAP2 SUB SWAP1 REVERT JUMPDEST PUSH1 0x7 PUSH0 DUP4 PUSH20 0xFFFFFFFFFFFFFFFFFFFFFFFFFFFFFFFFFFFFFFFF AND PUSH20 0xFFFFFFFFFFFFFFFFFFFFFFFFFFFFFFFFFFFFFFFF AND DUP2 MSTORE PUSH1 0x20 ADD SWAP1 DUP2 MSTORE PUSH1 0x20 ADD PUSH0 KECCAK256 PUSH0 SWAP1 SLOAD SWAP1 PUSH2 0x100 EXP SWAP1 DIV PUSH1 0xFF AND PUSH2 0x14B7 JUMPI PUSH1 0x40 MLOAD PUSH32 0x2083CD4000000000000000000000000000000000000000000000000000000000 DUP2 MSTORE PUSH1 0x4 ADD PUSH1 0x40 MLOAD DUP1 SWAP2 SUB SWAP1 REVERT JUMPDEST DUP1 PUSH1 0x8 PUSH0 DUP5 PUSH20 0xFFFFFFFFFFFFFFFFFFFFFFFFFFFFFFFFFFFFFFFF AND PUSH20 0xFFFFFFFFFFFFFFFFFFFFFFFFFFFFFFFFFFFFFFFF AND DUP2 MSTORE PUSH1 0x20 ADD SWAP1 DUP2 MSTORE PUSH1 0x20 ADD PUSH0 KECCAK256 DUP2 SWAP1 SSTORE POP DUP2 PUSH20 0xFFFFFFFFFFFFFFFFFFFFFFFFFFFFFFFFFFFFFFFF AND PUSH32 0xAE468CE586F9A87660FDFFC1448CEE942042C16AE2F02046B134B5224F31936B DUP3 PUSH1 0x40 MLOAD PUSH2 0x153F SWAP2 SWAP1 PUSH2 0x18F5 JUMP JUMPDEST PUSH1 0x40 MLOAD DUP1 SWAP2 SUB SWAP1 LOG2 POP POP JUMP JUMPDEST PUSH1 0x3 PUSH0 SWAP1 SLOAD SWAP1 PUSH2 0x100 EXP SWAP1 DIV PUSH20 0xFFFFFFFFFFFFFFFFFFFFFFFFFFFFFFFFFFFFFFFF AND PUSH20 0xFFFFFFFFFFFFFFFFFFFFFFFFFFFFFFFFFFFFFFFF AND CALLER PUSH20 0xFFFFFFFFFFFFFFFFFFFFFFFFFFFFFFFFFFFFFFFF AND EQ PUSH2 0x15D1 JUMPI PUSH1 0x40 MLOAD PUSH32 0xF5D267EB00000000000000000000000000000000000000000000000000000000 DUP2 MSTORE PUSH1 0x4 ADD PUSH1 0x40 MLOAD DUP1 SWAP2 SUB SWAP1 REVERT JUMPDEST PUSH2 0x12C DUP2 GT ISZERO PUSH2 0x160D JUMPI PUSH1 0x40 MLOAD PUSH32 0xCD4E616700000000000000000000000000000000000000000000000000000000 DUP2 MSTORE PUSH1 0x4 ADD PUSH1 0x40 MLOAD DUP1 SWAP2 SUB SWAP1 REVERT JUMPDEST PUSH0 DUP2 SUB PUSH2 0x1646 JUMPI PUSH1 0x40 MLOAD PUSH32 0xAF13986D00000000000000000000000000000000000000000000000000000000 DUP2 MSTORE PUSH1 0x4 ADD PUSH1 0x40 MLOAD DUP1 SWAP2 SUB SWAP1 REVERT JUMPDEST DUP2 ISZERO PUSH2 0x1658 JUMPI DUP1 PUSH1 0x1 DUP2 SWAP1 SSTORE POP PUSH2 0x1660 JUMP JUMPDEST DUP1 PUSH1 0x2 DUP2 SWAP1 SSTORE POP JUMPDEST POP POP JUMP JUMPDEST PUSH0 PUSH1 0x6 DUP1 SLOAD SWAP1 POP SWAP1 POP SWAP1 JUMP JUMPDEST PUSH0 PUSH23 0x3D602D80600A3D3981F3363D3D373D3D3D363D73000000 DUP4 PUSH1 0x60 SHL PUSH1 0xE8 SHR OR PUSH0 MSTORE PUSH15 0x5AF43D82803E903D91602B57FD5BF3 DUP4 PUSH1 0x78 SHL OR PUSH1 0x20 MSTORE DUP2 PUSH1 0x37 PUSH1 0x9 PUSH0 CREATE2 SWAP1 POP PUSH0 PUSH20 0xFFFFFFFFFFFFFFFFFFFFFFFFFFFFFFFFFFFFFFFF AND DUP2 PUSH20 0xFFFFFFFFFFFFFFFFFFFFFFFFFFFFFFFFFFFFFFFF AND SUB PUSH2 0x1719 JUMPI PUSH1 0x40 MLOAD PUSH32 0xC2F868F400000000000000000000000000000000000000000000000000000000 DUP2 MSTORE PUSH1 0x4 ADD PUSH1 0x40 MLOAD DUP1 SWAP2 SUB SWAP1 REVERT JUMPDEST SWAP3 SWAP2 POP POP JUMP JUMPDEST PUSH0 DUP1 REVERT JUMPDEST PUSH0 PUSH20 0xFFFFFFFFFFFFFFFFFFFFFFFFFFFFFFFFFFFFFFFF DUP3 AND SWAP1 POP SWAP2 SWAP1 POP JUMP JUMPDEST PUSH0 PUSH2 0x174C DUP3 PUSH2 0x1723 JUMP JUMPDEST SWAP1 POP SWAP2 SWAP1 POP JUMP JUMPDEST PUSH2 0x175C DUP2 PUSH2 0x1742 JUMP JUMPDEST DUP2 EQ PUSH2 0x1766 JUMPI PUSH0 DUP1 REVERT JUMPDEST POP JUMP JUMPDEST PUSH0 DUP2 CALLDATALOAD SWAP1 POP PUSH2 0x1777 DUP2 PUSH2 0x1753 JUMP JUMPDEST SWAP3 SWAP2 POP POP JUMP JUMPDEST PUSH0 PUSH3 0xFFFFFF DUP3 AND SWAP1 POP SWAP2 SWAP1 POP JUMP JUMPDEST PUSH2 0x1794 DUP2 PUSH2 0x177D JUMP JUMPDEST DUP2 EQ PUSH2 0x179E JUMPI PUSH0 DUP1 REVERT JUMPDEST POP JUMP JUMPDEST PUSH0 DUP2 CALLDATALOAD SWAP1 POP PUSH2 0x17AF DUP2 PUSH2 0x178B JUMP JUMPDEST SWAP3 SWAP2 POP POP JUMP JUMPDEST PUSH0 DUP1 PUSH0 PUSH1 0x60 DUP5 DUP7 SUB SLT ISZERO PUSH2 0x17CC JUMPI PUSH2 0x17CB PUSH2 0x171F JUMP JUMPDEST JUMPDEST PUSH0 PUSH2 0x17D9 DUP7 DUP3 DUP8 ADD PUSH2 0x1769 JUMP JUMPDEST SWAP4 POP POP PUSH1 0x20 PUSH2 0x17EA DUP7 DUP3 DUP8 ADD PUSH2 0x1769 JUMP JUMPDEST SWAP3 POP POP PUSH1 0x40 PUSH2 0x17FB DUP7 DUP3 DUP8 ADD PUSH2 0x17A1 JUMP JUMPDEST SWAP2 POP POP SWAP3 POP SWAP3 POP SWAP3 JUMP JUMPDEST PUSH2 0x180E DUP2 PUSH2 0x1742 JUMP JUMPDEST DUP3 MSTORE POP POP JUMP JUMPDEST PUSH0 PUSH1 0x20 DUP3 ADD SWAP1 POP PUSH2 0x1827 PUSH0 DUP4 ADD DUP5 PUSH2 0x1805 JUMP JUMPDEST SWAP3 SWAP2 POP POP JUMP JUMPDEST PUSH0 PUSH1 0x20 DUP3 DUP5 SUB SLT ISZERO PUSH2 0x1842 JUMPI PUSH2 0x1841 PUSH2 0x171F JUMP JUMPDEST JUMPDEST PUSH0 PUSH2 0x184F DUP5 DUP3 DUP6 ADD PUSH2 0x1769 JUMP JUMPDEST SWAP2 POP POP SWAP3 SWAP2 POP POP JUMP JUMPDEST PUSH0 DUP2 ISZERO ISZERO SWAP1 POP SWAP2 SWAP1 POP JUMP JUMPDEST PUSH2 0x186C DUP2 PUSH2 0x1858 JUMP JUMPDEST DUP2 EQ PUSH2 0x1876 JUMPI PUSH0 DUP1 REVERT JUMPDEST POP JUMP JUMPDEST PUSH0 DUP2 CALLDATALOAD SWAP1 POP PUSH2 0x1887 DUP2 PUSH2 0x1863 JUMP JUMPDEST SWAP3 SWAP2 POP POP JUMP JUMPDEST PUSH0 DUP1 PUSH0 PUSH1 0x60 DUP5 DUP7 SUB SLT ISZERO PUSH2 0x18A4 JUMPI PUSH2 0x18A3 PUSH2 0x171F JUMP JUMPDEST JUMPDEST PUSH0 PUSH2 0x18B1 DUP7 DUP3 DUP8 ADD PUSH2 0x1769 JUMP JUMPDEST SWAP4 POP POP PUSH1 0x20 PUSH2 0x18C2 DUP7 DUP3 DUP8 ADD PUSH2 0x1769 JUMP JUMPDEST SWAP3 POP POP PUSH1 0x40 PUSH2 0x18D3 DUP7 DUP3 DUP8 ADD PUSH2 0x1879 JUMP JUMPDEST SWAP2 POP POP SWAP3 POP SWAP3 POP SWAP3 JUMP JUMPDEST PUSH0 DUP2 SWAP1 POP SWAP2 SWAP1 POP JUMP JUMPDEST PUSH2 0x18EF DUP2 PUSH2 0x18DD JUMP JUMPDEST DUP3 MSTORE POP POP JUMP JUMPDEST PUSH0 PUSH1 0x20 DUP3 ADD SWAP1 POP PUSH2 0x1908 PUSH0 DUP4 ADD DUP5 PUSH2 0x18E6 JUMP JUMPDEST SWAP3 SWAP2 POP POP JUMP JUMPDEST PUSH2 0x1917 DUP2 PUSH2 0x18DD JUMP JUMPDEST DUP2 EQ PUSH2 0x1921 JUMPI PUSH0 DUP1 REVERT JUMPDEST POP JUMP JUMPDEST PUSH0 DUP2 CALLDATALOAD SWAP1 POP PUSH2 0x1932 DUP2 PUSH2 0x190E JUMP JUMPDEST SWAP3 SWAP2 POP POP JUMP JUMPDEST PUSH0 PUSH1 0x20 DUP3 DUP5 SUB SLT ISZERO PUSH2 0x194D JUMPI PUSH2 0x194C PUSH2 0x171F JUMP JUMPDEST JUMPDEST PUSH0 PUSH2 0x195A DUP5 DUP3 DUP6 ADD PUSH2 0x1924 JUMP JUMPDEST SWAP2 POP POP SWAP3 SWAP2 POP POP JUMP JUMPDEST PUSH2 0x196C DUP2 PUSH2 0x1858 JUMP JUMPDEST DUP3 MSTORE POP POP JUMP JUMPDEST PUSH0 PUSH1 0x20 DUP3 ADD SWAP1 POP PUSH2 0x1985 PUSH0 DUP4 ADD DUP5 PUSH2 0x1963 JUMP JUMPDEST SWAP3 SWAP2 POP POP JUMP JUMPDEST PUSH0 DUP1 PUSH1 0x40 DUP4 DUP6 SUB SLT ISZERO PUSH2 0x19A1 JUMPI PUSH2 0x19A0 PUSH2 0x171F JUMP JUMPDEST JUMPDEST PUSH0 PUSH2 0x19AE DUP6 DUP3 DUP7 ADD PUSH2 0x1769 JUMP JUMPDEST SWAP3 POP POP PUSH1 0x20 PUSH2 0x19BF DUP6 DUP3 DUP7 ADD PUSH2 0x1879 JUMP JUMPDEST SWAP2 POP POP SWAP3 POP SWAP3 SWAP1 POP JUMP JUMPDEST PUSH0 PUSH1 0x20 DUP3 DUP5 SUB SLT ISZERO PUSH2 0x19DE JUMPI PUSH2 0x19DD PUSH2 0x171F JUMP JUMPDEST JUMPDEST PUSH0 PUSH2 0x19EB DUP5 DUP3 DUP6 ADD PUSH2 0x1879 JUMP JUMPDEST SWAP2 POP POP SWAP3 SWAP2 POP POP JUMP JUMPDEST PUSH0 DUP1 PUSH1 0x40 DUP4 DUP6 SUB SLT ISZERO PUSH2 0x1A0A JUMPI PUSH2 0x1A09 PUSH2 0x171F JUMP JUMPDEST JUMPDEST PUSH0 PUSH2 0x1A17 DUP6 DUP3 DUP7 ADD PUSH2 0x1769 JUMP JUMPDEST SWAP3 POP POP PUSH1 0x20 PUSH2 0x1A28 DUP6 DUP3 DUP7 ADD PUSH2 0x1924 JUMP JUMPDEST SWAP2 POP POP SWAP3 POP SWAP3 SWAP1 POP JUMP JUMPDEST PUSH0 DUP1 PUSH1 0x40 DUP4 DUP6 SUB SLT ISZERO PUSH2 0x1A48 JUMPI PUSH2 0x1A47 PUSH2 0x171F JUMP JUMPDEST JUMPDEST PUSH0 PUSH2 0x1A55 DUP6 DUP3 DUP7 ADD PUSH2 0x1879 JUMP JUMPDEST SWAP3 POP POP PUSH1 0x20 PUSH2 0x1A66 DUP6 DUP3 DUP7 ADD PUSH2 0x1924 JUMP JUMPDEST SWAP2 POP POP SWAP3 POP SWAP3 SWAP1 POP JUMP JUMPDEST PUSH0 DUP2 PUSH1 0x60 SHL SWAP1 POP SWAP2 SWAP1 POP JUMP JUMPDEST PUSH0 PUSH2 0x1A86 DUP3 PUSH2 0x1A70 JUMP JUMPDEST SWAP1 POP SWAP2 SWAP1 POP JUMP JUMPDEST PUSH0 PUSH2 0x1A97 DUP3 PUSH2 0x1A7C JUMP JUMPDEST SWAP1 POP SWAP2 SWAP1 POP JUMP JUMPDEST PUSH2 0x1AAF PUSH2 0x1AAA DUP3 PUSH2 0x1742 JUMP JUMPDEST PUSH2 0x1A8D JUMP JUMPDEST DUP3 MSTORE POP POP JUMP JUMPDEST PUSH0 DUP2 PUSH1 0xF8 SHL SWAP1 POP SWAP2 SWAP1 POP JUMP JUMPDEST PUSH0 PUSH2 0x1ACB DUP3 PUSH2 0x1AB5 JUMP JUMPDEST SWAP1 POP SWAP2 SWAP1 POP JUMP JUMPDEST PUSH0 PUSH2 0x1ADC DUP3 PUSH2 0x1AC1 JUMP JUMPDEST SWAP1 POP SWAP2 SWAP1 POP JUMP JUMPDEST PUSH2 0x1AF4 PUSH2 0x1AEF DUP3 PUSH2 0x1858 JUMP JUMPDEST PUSH2 0x1AD2 JUMP JUMPDEST DUP3 MSTORE POP POP JUMP JUMPDEST PUSH0 PUSH2 0x1B05 DUP3 DUP7 PUSH2 0x1A9E JUMP JUMPDEST PUSH1 0x14 DUP3 ADD SWAP2 POP PUSH2 0x1B15 DUP3 DUP6 PUSH2 0x1A9E JUMP JUMPDEST PUSH1 0x14 DUP3 ADD SWAP2 POP PUSH2 0x1B25 DUP3 DUP5 PUSH2 0x1AE3 JUMP JUMPDEST PUSH1 0x1 DUP3 ADD SWAP2 POP DUP2 SWAP1 POP SWAP5 SWAP4 POP POP POP POP JUMP JUMPDEST PUSH0 PUSH1 0x60 DUP3 ADD SWAP1 POP PUSH2 0x1B49 PUSH0 DUP4 ADD DUP7 PUSH2 0x1805 JUMP JUMPDEST PUSH2 0x1B56 PUSH1 0x20 DUP4 ADD DUP6 PUSH2 0x1805 JUMP JUMPDEST PUSH2 0x1B63 PUSH1 0x40 DUP4 ADD DUP5 PUSH2 0x1963 JUMP JUMPDEST SWAP5 SWAP4 POP POP POP POP JUMP JUMPDEST PUSH0 PUSH1 0x40 DUP3 ADD SWAP1 POP PUSH2 0x1B7E PUSH0 DUP4 ADD DUP6 PUSH2 0x1805 JUMP JUMPDEST PUSH2 0x1B8B PUSH1 0x20 DUP4 ADD DUP5 PUSH2 0x18E6 JUMP JUMPDEST SWAP4 SWAP3 POP POP POP JUMP INVALID LOG2 PUSH5 0x6970667358 0x22 SLT KECCAK256 0xE6 LOG3 0x25 0xE6 PUSH20 0x9556824642F7DA5FC2E96454A94C785EDE558BF8 SLT MSTORE 0x4C 0x4B SWAP15 BYTE 0x5C PUSH5 0x736F6C6343 STOP ADDMOD EQ STOP CALLER "
				},
				"gasEstimates": {
					"creation": {
						"codeDepositCost": "1422400",
						"executionCost": "infinite",
						"totalCost": "infinite"
					},
					"external": {
						"MAX_FEE()": "458",
						"ZERO_FEE_INDICATOR()": "415",
						"allPools(uint256)": "5078",
						"allPoolsLength()": "2572",
						"createPool(address,address,bool)": "infinite",
						"createPool(address,address,uint24)": "infinite",
						"customFee(address)": "2891",
						"feeManager()": "2574",
						"getFee(address,bool)": "5236",
						"getPool(address,address,bool)": "infinite",
						"getPool(address,address,uint24)": "infinite",
						"implementation()": "infinite",
						"isPaused()": "2574",
						"isPool(address)": "3003",
						"pauser()": "2625",
						"setCustomFee(address,uint256)": "infinite",
						"setFee(bool,uint256)": "25050",
						"setFeeManager(address)": "infinite",
						"setPauseState(bool)": "infinite",
						"setPauser(address)": "infinite",
						"setVoter(address)": "infinite",
						"stableFee()": "2537",
						"volatileFee()": "2536",
						"voter()": "2531"
					}
				},
				"methodIdentifiers": {
					"MAX_FEE()": "bc063e1a",
					"ZERO_FEE_INDICATOR()": "38c55d46",
					"allPools(uint256)": "41d1de97",
					"allPoolsLength()": "efde4e64",
					"createPool(address,address,bool)": "36bf95a0",
					"createPool(address,address,uint24)": "a1671295",
					"customFee(address)": "4d419abc",
					"feeManager()": "d0fb0203",
					"getFee(address,bool)": "cc56b2c5",
					"getPool(address,address,bool)": "79bc57d5",
					"getPool(address,address,uint24)": "1698ee82",
					"implementation()": "5c60da1b",
					"isPaused()": "b187bd26",
					"isPool(address)": "5b16ebb7",
					"pauser()": "9fd0506d",
					"setCustomFee(address,uint256)": "d49466a8",
					"setFee(bool,uint256)": "e1f76b44",
					"setFeeManager(address)": "472d35b9",
					"setPauseState(bool)": "cdb88ad1",
					"setPauser(address)": "2d88af4a",
					"setVoter(address)": "4bc2a657",
					"stableFee()": "40bbd775",
					"volatileFee()": "5084ed03",
					"voter()": "46c96aac"
				}
			},
			"storageLayout": {
				"storage": [
					{
						"astId": 98,
						"contract": "contracts/aerodrome/factories/PoolFactory.sol:PoolFactory",
						"label": "isPaused",
						"offset": 0,
						"slot": "0",
						"type": "t_bool"
					},
					{
						"astId": 100,
						"contract": "contracts/aerodrome/factories/PoolFactory.sol:PoolFactory",
						"label": "pauser",
						"offset": 1,
						"slot": "0",
						"type": "t_address"
					},
					{
						"astId": 102,
						"contract": "contracts/aerodrome/factories/PoolFactory.sol:PoolFactory",
						"label": "stableFee",
						"offset": 0,
						"slot": "1",
						"type": "t_uint256"
					},
					{
						"astId": 104,
						"contract": "contracts/aerodrome/factories/PoolFactory.sol:PoolFactory",
						"label": "volatileFee",
						"offset": 0,
						"slot": "2",
						"type": "t_uint256"
					},
					{
						"astId": 112,
						"contract": "contracts/aerodrome/factories/PoolFactory.sol:PoolFactory",
						"label": "feeManager",
						"offset": 0,
						"slot": "3",
						"type": "t_address"
					},
					{
						"astId": 115,
						"contract": "contracts/aerodrome/factories/PoolFactory.sol:PoolFactory",
						"label": "voter",
						"offset": 0,
						"slot": "4",
						"type": "t_address"
					},
					{
						"astId": 123,
						"contract": "contracts/aerodrome/factories/PoolFactory.sol:PoolFactory",
						"label": "_getPool",
						"offset": 0,
						"slot": "5",
						"type": "t_mapping(t_address,t_mapping(t_address,t_mapping(t_bool,t_address)))"
					},
					{
						"astId": 126,
						"contract": "contracts/aerodrome/factories/PoolFactory.sol:PoolFactory",
						"label": "allPools",
						"offset": 0,
						"slot": "6",
						"type": "t_array(t_address)dyn_storage"
					},
					{
						"astId": 130,
						"contract": "contracts/aerodrome/factories/PoolFactory.sol:PoolFactory",
						"label": "_isPool",
						"offset": 0,
						"slot": "7",
						"type": "t_mapping(t_address,t_bool)"
					},
					{
						"astId": 134,
						"contract": "contracts/aerodrome/factories/PoolFactory.sol:PoolFactory",
						"label": "customFee",
						"offset": 0,
						"slot": "8",
						"type": "t_mapping(t_address,t_uint256)"
					},
					{
						"astId": 136,
						"contract": "contracts/aerodrome/factories/PoolFactory.sol:PoolFactory",
						"label": "_temp0",
						"offset": 0,
						"slot": "9",
						"type": "t_address"
					},
					{
						"astId": 138,
						"contract": "contracts/aerodrome/factories/PoolFactory.sol:PoolFactory",
						"label": "_temp1",
						"offset": 0,
						"slot": "10",
						"type": "t_address"
					},
					{
						"astId": 140,
						"contract": "contracts/aerodrome/factories/PoolFactory.sol:PoolFactory",
						"label": "_temp",
						"offset": 20,
						"slot": "10",
						"type": "t_bool"
					}
				],
				"types": {
					"t_address": {
						"encoding": "inplace",
						"label": "address",
						"numberOfBytes": "20"
					},
					"t_array(t_address)dyn_storage": {
						"base": "t_address",
						"encoding": "dynamic_array",
						"label": "address[]",
						"numberOfBytes": "32"
					},
					"t_bool": {
						"encoding": "inplace",
						"label": "bool",
						"numberOfBytes": "1"
					},
					"t_mapping(t_address,t_bool)": {
						"encoding": "mapping",
						"key": "t_address",
						"label": "mapping(address => bool)",
						"numberOfBytes": "32",
						"value": "t_bool"
					},
					"t_mapping(t_address,t_mapping(t_address,t_mapping(t_bool,t_address)))": {
						"encoding": "mapping",
						"key": "t_address",
						"label": "mapping(address => mapping(address => mapping(bool => address)))",
						"numberOfBytes": "32",
						"value": "t_mapping(t_address,t_mapping(t_bool,t_address))"
					},
					"t_mapping(t_address,t_mapping(t_bool,t_address))": {
						"encoding": "mapping",
						"key": "t_address",
						"label": "mapping(address => mapping(bool => address))",
						"numberOfBytes": "32",
						"value": "t_mapping(t_bool,t_address)"
					},
					"t_mapping(t_address,t_uint256)": {
						"encoding": "mapping",
						"key": "t_address",
						"label": "mapping(address => uint256)",
						"numberOfBytes": "32",
						"value": "t_uint256"
					},
					"t_mapping(t_bool,t_address)": {
						"encoding": "mapping",
						"key": "t_bool",
						"label": "mapping(bool => address)",
						"numberOfBytes": "32",
						"value": "t_address"
					},
					"t_uint256": {
						"encoding": "inplace",
						"label": "uint256",
						"numberOfBytes": "32"
					}
				}
			},
			"userdoc": {
				"kind": "user",
				"methods": {
					"allPoolsLength()": {
						"notice": "returns the number of pools created from this factory"
					},
					"createPool(address,address,bool)": {
						"notice": "Create a pool given two tokens and if they're stable/volatile"
					},
					"createPool(address,address,uint24)": {
						"notice": "Support for v3-style pools which wraps around createPool(tokena,tokenB,stable)"
					},
					"getFee(address,bool)": {
						"notice": "Returns fee for a pool, as custom fees are possible."
					},
					"getPool(address,address,bool)": {
						"notice": "Return address of pool created by this factory"
					},
					"getPool(address,address,uint24)": {
						"notice": "Support for v3-style pools which wraps around getPool(tokenA,tokenB,stable)"
					},
					"isPool(address)": {
						"notice": "Is a valid pool created by this factory."
					},
					"setCustomFee(address,uint256)": {
						"notice": "Set overriding fee for a pool from the default"
					},
					"setFee(bool,uint256)": {
						"notice": "Set default fee for stable and volatile pools."
					}
				},
				"version": 1
			}
		}
	}
}