{
  "_format": "hh-sol-artifact-1",
  "contractName": "FactoryRegistry",
  "sourceName": "contracts/aerodrome/factories/FactoryRegistry.sol",
  "abi": [
    {
      "inputs": [
        {
          "internalType": "address",
          "name": "_fallbackPoolFactory",
          "type": "address"
        },
        {
          "internalType": "address",
          "name": "_fallbackVotingRewardsFactory",
          "type": "address"
        },
        {
          "internalType": "address",
          "name": "_fallbackGaugeFactory",
          "type": "address"
        },
        {
          "internalType": "address",
          "name": "_newManagedRewardsFactory",
          "type": "address"
        }
      ],
      "stateMutability": "nonpayable",
      "type": "constructor"
    },
    {
      "inputs": [],
      "name": "FallbackFactory",
      "type": "error"
    },
    {
      "inputs": [],
      "name": "InvalidFactoriesToPoolFactory",
      "type": "error"
    },
    {
      "inputs": [
        {
          "internalType": "address",
          "name": "owner",
          "type": "address"
        }
      ],
      "name": "OwnableInvalidOwner",
      "type": "error"
    },
    {
      "inputs": [
        {
          "internalType": "address",
          "name": "account",
          "type": "address"
        }
      ],
      "name": "OwnableUnauthorizedAccount",
      "type": "error"
    },
    {
      "inputs": [],
      "name": "PathAlreadyApproved",
      "type": "error"
    },
    {
      "inputs": [],
      "name": "PathNotApproved",
      "type": "error"
    },
    {
      "inputs": [],
      "name": "SameAddress",
      "type": "error"
    },
    {
      "inputs": [],
      "name": "ZeroAddress",
      "type": "error"
    },
    {
      "anonymous": false,
      "inputs": [
        {
          "indexed": true,
          "internalType": "address",
          "name": "poolFactory",
          "type": "address"
        },
        {
          "indexed": true,
          "internalType": "address",
          "name": "votingRewardsFactory",
          "type": "address"
        },
        {
          "indexed": true,
          "internalType": "address",
          "name": "gaugeFactory",
          "type": "address"
        }
      ],
      "name": "Approve",
      "type": "event"
    },
    {
      "anonymous": false,
      "inputs": [
        {
          "indexed": true,
          "internalType": "address",
          "name": "previousOwner",
          "type": "address"
        },
        {
          "indexed": true,
          "internalType": "address",
          "name": "newOwner",
          "type": "address"
        }
      ],
      "name": "OwnershipTransferred",
      "type": "event"
    },
    {
      "anonymous": false,
      "inputs": [
        {
          "indexed": true,
          "internalType": "address",
          "name": "_newRewardsFactory",
          "type": "address"
        }
      ],
      "name": "SetManagedRewardsFactory",
      "type": "event"
    },
    {
      "anonymous": false,
      "inputs": [
        {
          "indexed": true,
          "internalType": "address",
          "name": "poolFactory",
          "type": "address"
        },
        {
          "indexed": true,
          "internalType": "address",
          "name": "votingRewardsFactory",
          "type": "address"
        },
        {
          "indexed": true,
          "internalType": "address",
          "name": "gaugeFactory",
          "type": "address"
        }
      ],
      "name": "Unapprove",
      "type": "event"
    },
    {
      "inputs": [
        {
          "internalType": "address",
          "name": "poolFactory",
          "type": "address"
        },
        {
          "internalType": "address",
          "name": "votingRewardsFactory",
          "type": "address"
        },
        {
          "internalType": "address",
          "name": "gaugeFactory",
          "type": "address"
        }
      ],
      "name": "approve",
      "outputs": [],
      "stateMutability": "nonpayable",
      "type": "function"
    },
    {
      "inputs": [
        {
          "internalType": "address",
          "name": "poolFactory",
          "type": "address"
        }
      ],
      "name": "factoriesToPoolFactory",
      "outputs": [
        {
          "internalType": "address",
          "name": "votingRewardsFactory",
          "type": "address"
        },
        {
          "internalType": "address",
          "name": "gaugeFactory",
          "type": "address"
        }
      ],
      "stateMutability": "view",
      "type": "function"
    },
    {
      "inputs": [],
      "name": "fallbackPoolFactory",
      "outputs": [
        {
          "internalType": "address",
          "name": "",
          "type": "address"
        }
      ],
      "stateMutability": "view",
      "type": "function"
    },
    {
      "inputs": [
        {
          "internalType": "address",
          "name": "poolFactory",
          "type": "address"
        }
      ],
      "name": "isPoolFactoryApproved",
      "outputs": [
        {
          "internalType": "bool",
          "name": "",
          "type": "bool"
        }
      ],
      "stateMutability": "view",
      "type": "function"
    },
    {
      "inputs": [],
      "name": "managedRewardsFactory",
      "outputs": [
        {
          "internalType": "address",
          "name": "",
          "type": "address"
        }
      ],
      "stateMutability": "view",
      "type": "function"
    },
    {
      "inputs": [],
      "name": "owner",
      "outputs": [
        {
          "internalType": "address",
          "name": "",
          "type": "address"
        }
      ],
      "stateMutability": "view",
      "type": "function"
    },
    {
      "inputs": [],
      "name": "poolFactories",
      "outputs": [
        {
          "internalType": "address[]",
          "name": "",
          "type": "address[]"
        }
      ],
      "stateMutability": "view",
      "type": "function"
    },
    {
      "inputs": [],
      "name": "poolFactoriesLength",
      "outputs": [
        {
          "internalType": "uint256",
          "name": "",
          "type": "uint256"
        }
      ],
      "stateMutability": "view",
      "type": "function"
    },
    {
      "inputs": [],
      "name": "renounceOwnership",
      "outputs": [],
      "stateMutability": "nonpayable",
      "type": "function"
    },
    {
      "inputs": [
        {
          "internalType": "address",
          "name": "_newManagedRewardsFactory",
          "type": "address"
        }
      ],
      "name": "setManagedRewardsFactory",
      "outputs": [],
      "stateMutability": "nonpayable",
      "type": "function"
    },
    {
      "inputs": [
        {
          "internalType": "address",
          "name": "newOwner",
          "type": "address"
        }
      ],
      "name": "transferOwnership",
      "outputs": [],
      "stateMutability": "nonpayable",
      "type": "function"
    },
    {
      "inputs": [
        {
          "internalType": "address",
          "name": "poolFactory",
          "type": "address"
        }
      ],
      "name": "unapprove",
      "outputs": [],
      "stateMutability": "nonpayable",
      "type": "function"
    }
  ],
  "bytecode": "0x60a06040523480156200001157600080fd5b5060405162000eb638038062000eb6833981016040819052620000349162000442565b33806200005c57604051631e4fbdf760e01b8152600060048201526024015b60405180910390fd5b620000678162000097565b506001600160a01b03841660805262000082848484620000e7565b6200008d81620002be565b505050506200049f565b600080546001600160a01b038381166001600160a01b0319831681178455604051919092169283917f8be0079c531659141344cd1fd0a4f28419497f9722a3daafe3b4186f6b6457e09190a35050565b620000f16200036a565b6001600160a01b03831615806200010f57506001600160a01b038216155b806200012257506001600160a01b038116155b15620001415760405163d92e233d60e01b815260040160405180910390fd5b6200014e6002846200039b565b156200016d576040516362cee17560e11b815260040160405180910390fd5b6001600160a01b0380841660009081526004602090815260409182902082518084019093528054841680845260019091015490931690820152906200020e576040805180820182526001600160a01b03808616825284811660208084019182528883166000908152600490915293909320915182549082166001600160a01b0319918216178355925160019092018054929091169190921617905562000260565b80516001600160a01b03848116911614158062000241575080602001516001600160a01b0316826001600160a01b031614155b156200026057604051630358043160e01b815260040160405180910390fd5b6200026d600285620003c2565b50816001600160a01b0316836001600160a01b0316856001600160a01b03167f5abe7702ac48299ef7647755d7af6d6a6beecd1c584bbb6fa55b7a882490efc760405160405180910390a450505050565b620002c86200036a565b6001546001600160a01b0390811690821603620002f85760405163367558c360e01b815260040160405180910390fd5b6001600160a01b038116620003205760405163d92e233d60e01b815260040160405180910390fd5b600180546001600160a01b0319166001600160a01b0383169081179091556040517f3123bae5152a999decbb5b69306adb30fa19885cf983c49427fd5b4594dcb03790600090a250565b6000546001600160a01b03163314620003995760405163118cdaa760e01b815233600482015260240162000053565b565b6001600160a01b038116600090815260018301602052604081205415155b90505b92915050565b6000620003b9836001600160a01b03841660008181526001830160205260408120546200041c57508154600181810184556000848152602080822090930184905584548482528286019093526040902091909155620003bc565b506000620003bc565b80516001600160a01b03811681146200043d57600080fd5b919050565b600080600080608085870312156200045957600080fd5b620004648562000425565b9350620004746020860162000425565b9250620004846040860162000425565b9150620004946060860162000425565b905092959194509250565b6080516109f4620004c26000396000818161013f015261052f01526109f46000f3fe608060405234801561001057600080fd5b50600436106100b45760003560e01c8063715018a611610071578063715018a6146101765780638da5cb5b1461017e5780639b140a851461018f578063d1ea0a1d146101a2578063f2fde38b146101c5578063fbf1f78a146101d857600080fd5b806306121cd5146100b95780630cb299c9146100d75780630d0ae678146100ed5780631217afdb1461010757806356d9cb641461013a5780636407693914610161575b600080fd5b6100c16101eb565b6040516100ce9190610896565b60405180910390f35b6100df6101fc565b6040519081526020016100ce565b6001546001600160a01b03165b6040516100ce91906108e3565b61011a610115366004610913565b610208565b604080516001600160a01b039384168152929091166020830152016100ce565b6100fa7f000000000000000000000000000000000000000000000000000000000000000081565b61017461016f366004610913565b610246565b005b6101746102ee565b6000546001600160a01b03166100fa565b61017461019d36600461092e565b610302565b6101b56101b0366004610913565b6104cb565b60405190151581526020016100ce565b6101746101d3366004610913565b6104de565b6101746101e6366004610913565b610525565b60606101f76002610612565b905090565b60006101f76002610626565b6001600160a01b0390811660009081526004602090815260409182902082518084019093528054841680845260019091015490931691018190529091565b61024e610630565b6001546001600160a01b039081169082160361027d5760405163367558c360e01b815260040160405180910390fd5b6001600160a01b0381166102a45760405163d92e233d60e01b815260040160405180910390fd5b600180546001600160a01b0319166001600160a01b0383169081179091556040517f3123bae5152a999decbb5b69306adb30fa19885cf983c49427fd5b4594dcb03790600090a250565b6102f6610630565b610300600061065d565b565b61030a610630565b6001600160a01b038316158061032757506001600160a01b038216155b8061033957506001600160a01b038116155b156103575760405163d92e233d60e01b815260040160405180910390fd5b6103626002846106ad565b15610380576040516362cee17560e11b815260040160405180910390fd5b6001600160a01b03808416600090815260046020908152604091829020825180840190935280548416808452600190910154909316908201529061041f576040805180820182526001600160a01b03808616825284811660208084019182528883166000908152600490915293909320915182549082166001600160a01b0319918216178355925160019092018054929091169190921617905561046f565b80516001600160a01b038481169116141580610451575080602001516001600160a01b0316826001600160a01b031614155b1561046f57604051630358043160e01b815260040160405180910390fd5b61047a6002856106ce565b50816001600160a01b0316836001600160a01b0316856001600160a01b03167f5abe7702ac48299ef7647755d7af6d6a6beecd1c584bbb6fa55b7a882490efc760405160405180910390a450505050565b60006104d86002836106ad565b92915050565b6104e6610630565b6001600160a01b038116610519576000604051631e4fbdf760e01b815260040161051091906108e3565b60405180910390fd5b6105228161065d565b50565b61052d610630565b7f00000000000000000000000000000000000000000000000000000000000000006001600160a01b0316816001600160a01b03160361057f57604051630a235adf60e11b815260040160405180910390fd5b61058a6002826106ad565b6105a75760405163d38afd6560e01b815260040160405180910390fd5b6105b26002826106e3565b506000806105bf83610208565b91509150806001600160a01b0316826001600160a01b0316846001600160a01b03167fbbbf8609bccd24696f7d2d86357dbd1a55ff9b79853a72ea11b1c0968ada177660405160405180910390a4505050565b6060600061061f836106f8565b9392505050565b60006104d8825490565b6000546001600160a01b03163314610300573360405163118cdaa760e01b815260040161051091906108e3565b600080546001600160a01b038381166001600160a01b0319831681178455604051919092169283917f8be0079c531659141344cd1fd0a4f28419497f9722a3daafe3b4186f6b6457e09190a35050565b6001600160a01b031660009081526001919091016020526040902054151590565b600061061f836001600160a01b038416610754565b600061061f836001600160a01b0384166107a3565b60608160000180548060200260200160405190810160405280929190818152602001828054801561074857602002820191906000526020600020905b815481526020019060010190808311610734575b50505050509050919050565b600081815260018301602052604081205461079b575081546001818101845560008481526020808220909301849055845484825282860190935260409020919091556104d8565b5060006104d8565b6000818152600183016020526040812054801561088c5760006107c7600183610971565b85549091506000906107db90600190610971565b90508082146108405760008660000182815481106107fb576107fb610992565b906000526020600020015490508087600001848154811061081e5761081e610992565b6000918252602080832090910192909255918252600188019052604090208390555b8554869080610851576108516109a8565b6001900381819060005260206000200160009055905585600101600086815260200190815260200160002060009055600193505050506104d8565b60009150506104d8565b6020808252825182820181905260009190848201906040850190845b818110156108d75783516001600160a01b0316835292840192918401916001016108b2565b50909695505050505050565b6001600160a01b0391909116815260200190565b80356001600160a01b038116811461090e57600080fd5b919050565b60006020828403121561092557600080fd5b61061f826108f7565b60008060006060848603121561094357600080fd5b61094c846108f7565b925061095a602085016108f7565b9150610968604085016108f7565b90509250925092565b818103818111156104d857634e487b7160e01b600052601160045260246000fd5b634e487b7160e01b600052603260045260246000fd5b634e487b7160e01b600052603160045260246000fdfea26469706673582212200f725e670668818680959667e9d53725f11525167539916589e0c2c9a92b1e8464736f6c63430008140033",
  "linkReferences": {},
  "deployedLinkReferences": {}
}