{
  "_format": "hh-sol-artifact-1",
  "contractName": "GaugeFactory",
  "sourceName": "contracts/aerodrome/factories/GaugeFactory.sol",
  "abi": [
    {
      "inputs": [
        {
          "internalType": "address",
          "name": "_forwarder",
          "type": "address"
        },
        {
          "internalType": "address",
          "name": "_pool",
          "type": "address"
        },
        {
          "internalType": "address",
          "name": "_feesVotingReward",
          "type": "address"
        },
        {
          "internalType": "address",
          "name": "_rewardToken",
          "type": "address"
        },
        {
          "internalType": "bool",
          "name": "isPool",
          "type": "bool"
        }
      ],
      "name": "createGauge",
      "outputs": [
        {
          "internalType": "address",
          "name": "gauge",
          "type": "address"
        }
      ],
      "stateMutability": "nonpayable",
      "type": "function"
    }
  ],
  "bytecode": "0x608060405234801561001057600080fd5b50611b33806100206000396000f3fe608060405234801561001057600080fd5b506004361061002b5760003560e01c80638a983e5414610030575b600080fd5b61004361003e3660046100fb565b61005f565b6040516001600160a01b03909116815260200160405180910390f35b6000858585853386604051610073906100d2565b6001600160a01b039687168152948616602086015292851660408501529084166060840152909216608082015290151560a082015260c001604051809103906000f0801580156100c7573d6000803e3d6000fd5b509695505050505050565b6119948061016a83390190565b80356001600160a01b03811681146100f657600080fd5b919050565b600080600080600060a0868803121561011357600080fd5b61011c866100df565b945061012a602087016100df565b9350610138604087016100df565b9250610146606087016100df565b91506080860135801515811461015b57600080fd5b80915050929550929590935056fe6101606040523480156200001257600080fd5b506040516200199438038062001994833981016040819052620000359162000102565b6001600160a01b03808716608052600160005585811660a05284811660e05283811660c05282166101008190528115156101405260408051630fc2838b60e11b81529051631f850716916004808201926020929091908290030181865afa158015620000a5573d6000803e3d6000fd5b505050506040513d601f19601f82011682018060405250810190620000cb91906200018b565b6001600160a01b03166101205250620001b0945050505050565b80516001600160a01b0381168114620000fd57600080fd5b919050565b60008060008060008060c087890312156200011c57600080fd5b6200012787620000e5565b95506200013760208801620000e5565b94506200014760408801620000e5565b93506200015760608801620000e5565b92506200016760808801620000e5565b915060a087015180151581146200017d57600080fd5b809150509295509295509295565b6000602082840312156200019e57600080fd5b620001a982620000e5565b9392505050565b60805160a05160c05160e05161010051610120516101405161170b62000289600039600081816103f20152610aad01526000818161022301526108a6015260008181610272015281816105f50152818161071c015261114c0152600081816101de01528181610c5401528181610cd901528181610d810152610e06015260008181610422015281816107b701528181610f0f01528181610f7a01526110110152600081816102f80152818161056701528181610adb01528181610b9d01526112010152600081816103250152610687015261170b6000f3fe608060405234801561001057600080fd5b506004361061018e5760003560e01c80637b0a47ee116100e4578063c00007b011610092578063c00007b0146103ad578063c8f33c91146103c0578063cd3daf9d146103c9578063dcdc18dc146103d1578063df136d65146103e4578063e2e1c6db146103ed578063ebe2b12b14610414578063f7c618c11461041d57600080fd5b80637b0a47ee1461031a5780637da0a8771461032357806380faa57d146103495780638b8763471461035157806393f1c4421461037157806394af5b631461037a578063b6b55f251461039a57600080fd5b80633c6b16ab116101415780633c6b16ab1461025a57806346c96aac1461026d5780634c02a21c14610294578063572b6c051461029d5780636e553f65146102c057806370a08231146102d357806372f702f3146102f357600080fd5b80628cc262146101935780630700037d146101b95780630fe2f711146101d957806316e640481461020d57806318160ddd146102155780631f8507161461021e5780632e1a7d4d14610245575b600080fd5b6101a66101a1366004611494565b610444565b6040519081526020015b60405180910390f35b6101a66101c7366004611494565b60086020526000908152604090205481565b6102007f000000000000000000000000000000000000000000000000000000000000000081565b6040516101b091906114b1565b6101a66104c1565b6101a660055481565b6102007f000000000000000000000000000000000000000000000000000000000000000081565b6102586102533660046114c5565b6104f8565b005b6102586102683660046114c5565b6105df565b6102007f000000000000000000000000000000000000000000000000000000000000000081565b6101a6600b5481565b6102b06102ab366004611494565b610685565b60405190151581526020016101b0565b6102586102ce3660046114de565b6106b7565b6101a66102e1366004611494565b60066020526000908152604090205481565b6102007f000000000000000000000000000000000000000000000000000000000000000081565b6101a660025481565b7f0000000000000000000000000000000000000000000000000000000000000000610200565b6101a66106c5565b6101a661035f366004611494565b60076020526000908152604090205481565b6101a6600a5481565b6101a66103883660046114c5565b60096020526000908152604090205481565b6102586103a83660046114c5565b6106d8565b6102586103bb366004611494565b6106e9565b6101a660035481565b6101a661082e565b6102586103df3660046114c5565b610890565b6101a660045481565b6102b07f000000000000000000000000000000000000000000000000000000000000000081565b6101a660015481565b6102007f000000000000000000000000000000000000000000000000000000000000000081565b6001600160a01b0381166000908152600860209081526040808320546007909252822054670de0b6b3a76400009061047a61082e565b6104849190611524565b6001600160a01b0385166000908152600660205260409020546104a79190611537565b6104b1919061154e565b6104bb9190611570565b92915050565b600060015442106104d25750600090565b6000426001546104e29190611524565b9050600254816104f29190611537565b91505090565b610500610982565b600061050a6109ac565b9050610515816109fe565b81600560008282546105279190611524565b90915550506001600160a01b03811660009081526006602052604081208054849290610554908490611524565b9091555061058e90506001600160a01b037f0000000000000000000000000000000000000000000000000000000000000000168284610a4b565b806001600160a01b03167f884edad9ce6fa2440d8a54cc123490eb96d2768479d49ff9c7366125a9424364836040516105c991815260200190565b60405180910390a2506105dc6001600055565b50565b6105e7610982565b60006105f16109ac565b90507f00000000000000000000000000000000000000000000000000000000000000006001600160a01b0316816001600160a01b0316146106455760405163c18384c160e01b815260040160405180910390fd5b8160000361066657604051631f2a200560e01b815260040160405180910390fd5b61066e610aa8565b505061067a8183610ed6565b506105dc6001600055565b7f00000000000000000000000000000000000000000000000000000000000000006001600160a01b0390811691161490565b6106c1828261110c565b5050565b60006106d3426001546112c7565b905090565b6105dc816106e46109ac565b61110c565b6106f1610982565b60006106fb6109ac565b9050816001600160a01b0316816001600160a01b03161415801561075157507f00000000000000000000000000000000000000000000000000000000000000006001600160a01b0316816001600160a01b031614155b1561076f5760405163ea8e4eb560e01b815260040160405180910390fd5b610778826109fe565b6001600160a01b0382166000908152600860205260409020548015610822576001600160a01b038084166000908152600860205260408120556107de907f0000000000000000000000000000000000000000000000000000000000000000168483610a4b565b826001600160a01b03167f1f89f96333d3133000ee447473151fa9606543368f02271c9d95ae14f13bcc678260405161081991815260200190565b60405180910390a25b50506105dc6001600055565b6000600554600003610841575060045490565b600554670de0b6b3a764000060025460035461085b6106c5565b6108659190611524565b61086f9190611537565b6108799190611537565b610883919061154e565b6004546106d39190611570565b610898610982565b60006108a26109ac565b90507f00000000000000000000000000000000000000000000000000000000000000006001600160a01b03166385f2aef26040518163ffffffff1660e01b8152600401602060405180830381865afa158015610902573d6000803e3d6000fd5b505050506040513d601f19601f820116820180604052508101906109269190611583565b6001600160a01b0316816001600160a01b03161461095757604051633a7cfa5d60e21b815260040160405180910390fd5b8160000361097857604051631f2a200560e01b815260040160405180910390fd5b61067a8183610ed6565b6002600054036109a557604051633ee5aeb560e01b815260040160405180910390fd5b6002600055565b60003660146109ba33610685565b80156109c65750808210155b156109f6576000366109d88385611524565b6109e39282906115a0565b6109ec916115ca565b60601c9250505090565b339250505090565b610a0661082e565b600455610a116106c5565b600355610a1d81610444565b6001600160a01b03909116600090815260086020908152604080832093909355600454600790915291902055565b610aa383846001600160a01b031663a9059cbb8585604051602401610a719291906115ff565b604051602081830303815290604052915060e01b6020820180516001600160e01b0383818316178352505050506112df565b505050565b6000807f0000000000000000000000000000000000000000000000000000000000000000610ad95750600091829150565b7f00000000000000000000000000000000000000000000000000000000000000006001600160a01b031663d294f0936040518163ffffffff1660e01b815260040160408051808303816000875af1158015610b38573d6000803e3d6000fd5b505050506040513d601f19601f82011682018060405250810190610b5c9190611618565b909250905081151580610b6f5750600081115b15610ed257600082600a54610b849190611570565b9050600082600b54610b969190611570565b90506000807f00000000000000000000000000000000000000000000000000000000000000006001600160a01b0316639d63848a6040518163ffffffff1660e01b81526004016040805180830381865afa158015610bf8573d6000803e3d6000fd5b505050506040513d601f19601f82011682018060405250810190610c1c919061163c565b9150915062093a80841115610d47576000600a5560405163095ea7b360e01b81526001600160a01b0383169063095ea7b390610c7e907f00000000000000000000000000000000000000000000000000000000000000009088906004016115ff565b6020604051808303816000875af1158015610c9d573d6000803e3d6000fd5b505050506040513d601f19601f82011682018060405250810190610cc1919061166b565b5060405163b66503cf60e01b81526001600160a01b037f0000000000000000000000000000000000000000000000000000000000000000169063b66503cf90610d1090859088906004016115ff565b600060405180830381600087803b158015610d2a57600080fd5b505af1158015610d3e573d6000803e3d6000fd5b50505050610d4d565b600a8490555b62093a80831115610e74576000600b5560405163095ea7b360e01b81526001600160a01b0382169063095ea7b390610dab907f00000000000000000000000000000000000000000000000000000000000000009087906004016115ff565b6020604051808303816000875af1158015610dca573d6000803e3d6000fd5b505050506040513d601f19601f82011682018060405250810190610dee919061166b565b5060405163b66503cf60e01b81526001600160a01b037f0000000000000000000000000000000000000000000000000000000000000000169063b66503cf90610e3d90849087906004016115ff565b600060405180830381600087803b158015610e5757600080fd5b505af1158015610e6b573d6000803e3d6000fd5b50505050610e7a565b600b8390555b610e826109ac565b6001600160a01b03167fbc567d6cbad26368064baa0ab5a757be46aae4d70f707f9203d9d9b6c8ccbfa38787604051610ec5929190918252602082015260400190565b60405180910390a2505050505b9091565b610ede61082e565b600455426000610ef78262093a80808206820301611524565b90506001548210610f4957610f376001600160a01b037f000000000000000000000000000000000000000000000000000000000000000016853086611342565b610f41818461154e565b600255610fbd565b600082600154610f599190611524565b9050600060025482610f6b9190611537565b9050610fa26001600160a01b037f000000000000000000000000000000000000000000000000000000000000000016873088611342565b82610fad8287611570565b610fb7919061154e565b60025550505b60025462093a8083068303600090815260096020526040812082905503610ff7576040516307ced7af60e01b815260040160405180910390fd5b6040516370a0823160e01b81526000906001600160a01b037f000000000000000000000000000000000000000000000000000000000000000016906370a08231906110469030906004016114b1565b602060405180830381865afa158015611063573d6000803e3d6000fd5b505050506040513d601f19601f82011682018060405250810190611087919061168d565b9050611093828261154e565b60025411156110b557604051633c6be1b360e01b815260040160405180910390fd5b60038390556110c48284611570565b6001556040518481526001600160a01b038616907f095667752957714306e1a6ad83495404412df6fdb932fca6dc849a7ee910d4c19060200160405180910390a25050505050565b611114610982565b8160000361113557604051631f2a200560e01b815260040160405180910390fd5b604051631703e5f960e01b81526001600160a01b037f00000000000000000000000000000000000000000000000000000000000000001690631703e5f9906111819030906004016114b1565b602060405180830381865afa15801561119e573d6000803e3d6000fd5b505050506040513d601f19601f820116820180604052508101906111c2919061166b565b6111df576040516310f3d9c960e01b815260040160405180910390fd5b60006111e96109ac565b90506111f4826109fe565b6112296001600160a01b037f000000000000000000000000000000000000000000000000000000000000000016823086611342565b826005600082825461123b9190611570565b90915550506001600160a01b03821660009081526006602052604081208054859290611268908490611570565b92505081905550816001600160a01b0316816001600160a01b03167f5548c837ab068cf56a2c2479df0882a4922fd203edb7517321831d95078c5f62856040516112b491815260200190565b60405180910390a3506106c16001600055565b60008183106112d657816112d8565b825b9392505050565b60006112f46001600160a01b03841683611381565b90508051600014158015611319575080806020019051810190611317919061166b565b155b15610aa35782604051635274afe760e01b815260040161133991906114b1565b60405180910390fd5b6040516001600160a01b03848116602483015283811660448301526064820183905261137b9186918216906323b872dd90608401610a71565b50505050565b60606112d88383600084600080856001600160a01b031684866040516113a791906116a6565b60006040518083038185875af1925050503d80600081146113e4576040519150601f19603f3d011682016040523d82523d6000602084013e6113e9565b606091505b50915091506113f9868383611403565b9695505050505050565b6060826114185761141382611456565b6112d8565b815115801561142f57506001600160a01b0384163b155b1561144f5783604051639996b31560e01b815260040161133991906114b1565b50806112d8565b8051156114665780518082602001fd5b604051630a12f52160e11b815260040160405180910390fd5b6001600160a01b03811681146105dc57600080fd5b6000602082840312156114a657600080fd5b81356112d88161147f565b6001600160a01b0391909116815260200190565b6000602082840312156114d757600080fd5b5035919050565b600080604083850312156114f157600080fd5b8235915060208301356115038161147f565b809150509250929050565b634e487b7160e01b600052601160045260246000fd5b818103818111156104bb576104bb61150e565b80820281158282048414176104bb576104bb61150e565b60008261156b57634e487b7160e01b600052601260045260246000fd5b500490565b808201808211156104bb576104bb61150e565b60006020828403121561159557600080fd5b81516112d88161147f565b600080858511156115b057600080fd5b838611156115bd57600080fd5b5050820193919092039150565b6bffffffffffffffffffffffff1981358181169160148510156115f75780818660140360031b1b83161692505b505092915050565b6001600160a01b03929092168252602082015260400190565b6000806040838503121561162b57600080fd5b505080516020909101519092909150565b6000806040838503121561164f57600080fd5b825161165a8161147f565b60208401519092506115038161147f565b60006020828403121561167d57600080fd5b815180151581146112d857600080fd5b60006020828403121561169f57600080fd5b5051919050565b6000825160005b818110156116c757602081860181015185830152016116ad565b50600092019182525091905056fea2646970667358221220b08dc55d57f071f591a2896be828fe07912388d3e202c4addd5d9a85ae5ad50e64736f6c63430008140033a2646970667358221220dc73437b7984e3376fe9d8510be9a7d5d4fefdd960995513521116650560d27464736f6c63430008140033",
  "linkReferences": {},
  "deployedLinkReferences": {}
}