{
  "_format": "hh-sol-artifact-1",
  "contractName": "ManagedRewardsFactory",
  "sourceName": "contracts/aerodrome/factories/ManagedRewardsFactory.sol",
  "abi": [
    {
      "anonymous": false,
      "inputs": [
        {
          "indexed": true,
          "internalType": "address",
          "name": "voter",
          "type": "address"
        },
        {
          "indexed": true,
          "internalType": "address",
          "name": "lockedManagedReward",
          "type": "address"
        },
        {
          "indexed": true,
          "internalType": "address",
          "name": "freeManagedReward",
          "type": "address"
        }
      ],
      "name": "ManagedRewardCreated",
      "type": "event"
    },
    {
      "inputs": [
        {
          "internalType": "address",
          "name": "_forwarder",
          "type": "address"
        },
        {
          "internalType": "address",
          "name": "_voter",
          "type": "address"
        }
      ],
      "name": "createRewards",
      "outputs": [
        {
          "internalType": "address",
          "name": "lockedManagedReward",
          "type": "address"
        },
        {
          "internalType": "address",
          "name": "freeManagedReward",
          "type": "address"
        }
      ],
      "stateMutability": "nonpayable",
      "type": "function"
    }
  ],
  "bytecode": "0x608060405234801561001057600080fd5b50613562806100206000396000f3fe608060405234801561001057600080fd5b506004361061002b5760003560e01c8063dabc8e8314610030575b600080fd5b61004361003e366004610154565b61005a565b604051610051929190610187565b60405180910390f35b600080838360405161006b9061011e565b610076929190610187565b604051809103906000f080158015610092573d6000803e3d6000fd5b50915083836040516100a39061012b565b6100ae929190610187565b604051809103906000f0801580156100ca573d6000803e3d6000fd5b509050806001600160a01b0316826001600160a01b0316846001600160a01b03167f951f6f2ffc705efc870b0c6023fb94c7edece24c87077884b6d08a5cd44e6aa760405160405180910390a49250929050565b6119b0806101a283390190565b6119db80611b5283390190565b80356001600160a01b038116811461014f57600080fd5b919050565b6000806040838503121561016757600080fd5b61017083610138565b915061017e60208401610138565b90509250929050565b6001600160a01b039283168152911660208201526040019056fe60e06040523480156200001157600080fd5b50604051620019b0380380620019b0833981016040819052620000349162000240565b6001600160a01b038083166080526001600055811660a081905260408051630fc2838b60e11b81529051849284928492849291631f8507169160048083019260209291908290030181865afa15801562000092573d6000803e3d6000fd5b505050506040513d601f19601f82011682018060405250810190620000b8919062000278565b6001600160a01b031660c0816001600160a01b03168152505050506000816001600160a01b0316631f8507166040518163ffffffff1660e01b8152600401602060405180830381865afa15801562000114573d6000803e3d6000fd5b505050506040513d601f19601f820116820180604052508101906200013a919062000278565b90506000816001600160a01b031663fc0c546a6040518163ffffffff1660e01b8152600401602060405180830381865afa1580156200017d573d6000803e3d6000fd5b505050506040513d601f19601f82011682018060405250810190620001a3919062000278565b6006805460018082019092557ff652222313e28459528d920b65115c16c04f3efc82aaedc97be59f3f377c0d3f0180546001600160a01b03199081166001600160a01b03948516908117909255600091825260076020526040909120805460ff1916831790558154169390911692909217909155506200029d9350505050565b80516001600160a01b03811681146200023b57600080fd5b919050565b600080604083850312156200025457600080fd5b6200025f8362000223565b91506200026f6020840162000223565b90509250929050565b6000602082840312156200028b57600080fd5b620002968262000223565b9392505050565b60805160a05160c0516116c0620002f06000396000818161018801528181610993015281816109e501528181610bc30152610c37015260006101e20152600081816102c601526105f401526116c06000f3fe608060405234801561001057600080fd5b50600436106101585760003560e01c806392777b29116100c3578063e8111a121161007c578063e8111a1214610378578063f25e55a514610381578063f301af42146103ac578063f3207723146103bf578063f5f8d365146103d2578063f7412baf146103e557600080fd5b806392777b29146102ea5780639cc7f708146103155780639e2bf22c14610335578063a28d4c9c1461034a578063b66503cf1461035d578063e68863961461037057600080fd5b806349dcc2041161011557806349dcc204146102045780634d5ce0381461024b578063505897931461027e578063572b6c051461029e57806376f4be36146102b15780637da0a877146102c457600080fd5b806318160ddd1461015d5780631be05289146101795780631f850716146101835780633e491d47146101b7578063456cb7c6146101ca57806346c96aac146101dd575b600080fd5b61016660025481565b6040519081526020015b60405180910390f35b61016662093a8081565b6101aa7f000000000000000000000000000000000000000000000000000000000000000081565b6040516101709190611375565b6101666101c53660046113ae565b61040c565b6001546101aa906001600160a01b031681565b6101aa7f000000000000000000000000000000000000000000000000000000000000000081565b6102366102123660046113da565b60086020908152600092835260408084209091529082529020805460019091015482565b60408051928352602083019190915201610170565b61026e6102593660046113fc565b60076020526000908152604090205460ff1681565b6040519015158152602001610170565b61016661028c366004611419565b60096020526000908152604090205481565b61026e6102ac3660046113fc565b6105f2565b6101666102bf366004611419565b610624565b7f00000000000000000000000000000000000000000000000000000000000000006101aa565b6101666102f83660046113ae565b600460209081526000928352604080842090915290825290205481565b610166610323366004611419565b60036020526000908152604090205481565b6103486103433660046113da565b610758565b005b6101666103583660046113da565b610838565b61034861036b3660046113ae565b61097d565b600654610166565b610166600b5481565b61016661038f3660046113ae565b600560209081526000928352604080842090915290825290205481565b6101aa6103ba366004611419565b610ab0565b6103486103cd3660046113da565b610ada565b6103486103e0366004611448565b610bad565b6102366103f3366004611419565b600a602052600090815260409020805460019091015482565b6000818152600960205260408120548103610429575060006105ec565b6001600160a01b038316600090815260056020908152604080832085845290915281205460019062093a8081069003826104638683610838565b60008781526008602090815260408083208484528252918290208251808401909352805480845260019091015491830191909152919250906104ae90849062093a8081069003610d0d565b9250600062093a806104c58542838106900361152f565b6104cf9190611542565b905080156105e35760005b818110156105e1576104ff8960016104f562093a8089611564565b610358919061152f565b60008a815260086020908152604080832084845282528083208151808301909252805482526001908101549282019290925292965091945061057391600a919061055a9061055062093a808b611564565b6102bf919061152f565b8152602001908152602001600020600101546001610d0d565b6001600160a01b038b1660009081526004602090815260408083208984528252909120549085015191975087916105aa9190611577565b6105b49190611542565b6105be9088611564565b96506105cd62093a8086611564565b9450806105d98161158e565b9150506104da565b505b50939450505050505b92915050565b7f00000000000000000000000000000000000000000000000000000000000000006001600160a01b0390811691161490565b600b5460009080820361063a5750600092915050565b82600a600061064a60018561152f565b815260200190815260200160002060000154116106735761066c60018261152f565b9392505050565b60008052600a6020527f13da86008ba1c6922daee3e07db95305ef49ebced9f5467a0b8613fcc6b343e3548310156106ae5750600092915050565b6000806106bc60018461152f565b90505b8181111561075057600060026106d5848461152f565b6106df9190611542565b6106e9908361152f565b6000818152600a602090815260409182902082518084019093528054808452600190910154918301919091529192509087900361072a575095945050505050565b805187111561073b57819350610749565b61074660018361152f565b92505b50506106bf565b509392505050565b6000610762610d23565b6001549091506001600160a01b038083169116146107935760405163ea8e4eb560e01b815260040160405180910390fd5b82600260008282546107a5919061152f565b9091555050600082815260036020526040812080548592906107c890849061152f565b90915550506000828152600360205260409020546107e7908390610d75565b6107ef610e7f565b81816001600160a01b03167ff279e6a1f5e320cca91135676d9cb6e44ca8a08c0b88342bcdb1144f6511b5688560405161082b91815260200190565b60405180910390a3505050565b6000828152600960205260408120548082036108585760009150506105ec565b6000848152600860205260408120849161087360018561152f565b8152602001908152602001600020600001541161089d5761089560018261152f565b9150506105ec565b60008481526008602090815260408083208380529091529020548310156108c85760009150506105ec565b6000806108d660018461152f565b90505b8181111561097457600060026108ef848461152f565b6108f99190611542565b610903908361152f565b600088815260086020908152604080832084845282529182902082518084019093528054808452600190910154918301919091529192509087900361094e575093506105ec92505050565b805187111561095f5781935061096d565b61096a60018361152f565b92505b50506108d9565b50949350505050565b610985610f37565b600061098f610d23565b90507f00000000000000000000000000000000000000000000000000000000000000006001600160a01b0316816001600160a01b0316146109e3576040516306b746df60e51b815260040160405180910390fd5b7f00000000000000000000000000000000000000000000000000000000000000006001600160a01b031663fc0c546a6040518163ffffffff1660e01b8152600401602060405180830381865afa158015610a41573d6000803e3d6000fd5b505050506040513d601f19601f82011682018060405250810190610a6591906115a7565b6001600160a01b0316836001600160a01b031614610a9657604051630b9eb1c560e41b815260040160405180910390fd5b610aa1818484610f61565b50610aac6001600055565b5050565b60068181548110610ac057600080fd5b6000918252602090912001546001600160a01b0316905081565b6000610ae4610d23565b6001549091506001600160a01b03808316911614610b155760405163ea8e4eb560e01b815260040160405180910390fd5b8260026000828254610b279190611564565b909155505060008281526003602052604081208054859290610b4a908490611564565b9091555050600082815260036020526040902054610b69908390610d75565b610b71610e7f565b81816001600160a01b03167f90890809c654f11d6e72a28fa60149770a0d11ec6c92319d6ceb2bb0a4ea1a158560405161082b91815260200190565b610bb5610f37565b6000610bbf610d23565b90507f00000000000000000000000000000000000000000000000000000000000000006001600160a01b0316816001600160a01b031614610c13576040516306b746df60e51b815260040160405180910390fd5b8151600114610c355760405163801f099f60e01b815260040160405180910390fd5b7f00000000000000000000000000000000000000000000000000000000000000006001600160a01b031663fc0c546a6040518163ffffffff1660e01b8152600401602060405180830381865afa158015610c93573d6000803e3d6000fd5b505050506040513d601f19601f82011682018060405250810190610cb791906115a7565b6001600160a01b031682600081518110610cd357610cd36115c4565b60200260200101516001600160a01b031614610d0257604051630b9eb1c560e41b815260040160405180910390fd5b610aa181848461103b565b6000818311610d1c578161066c565b5090919050565b6000366014610d31336105f2565b8015610d3d5750808210155b15610d6d57600036610d4f838561152f565b610d5a9282906115da565b610d6391611604565b60601c9250505090565b339250505090565b600082815260096020526040902054428115801590610dd3575062093a80810681036000858152600860205260408120610dd191610db460018761152f565b81526020019081526020016000206000015462093a808106900390565b145b15610e29576040805180820182528281526020808201869052600087815260089091529182209091610e0660018661152f565b815260208082019290925260400160002082518155910151600190910155610e79565b6040805180820182528281526020808201868152600088815260088352848120878252909252929020905181559051600191820155610e69908390611564565b6000858152600960205260409020555b50505050565b600b54428115801590610ea9575062093a8081068103610ea7600a6000610db460018761152f565b145b15610ef457604080518082019091528181526002546020820152600a6000610ed260018661152f565b8152602080820192909252604001600020825181559101516001909101555050565b60408051808201825282815260025460208083019182526000868152600a90915292909220905181559051600191820155610f30908390611564565b600b555050565b600260005403610f5a57604051633ee5aeb560e01b815260040160405180910390fd5b6002600055565b80600003610f8257604051631f2a200560e01b815260040160405180910390fd5b610f976001600160a01b038316843084611174565b6000610fa84262093a808106900390565b6001600160a01b0384166000908152600460209081526040808320848452909152812080549293508492909190610fe0908490611564565b9250508190555080836001600160a01b0316856001600160a01b03167f52977ea98a2220a03ee9ba5cb003ada08d394ea10155483c95dc2dc77a7eb24b8560405161102d91815260200190565b60405180910390a450505050565b805160005b8181101561116d57600061106d84838151811061105f5761105f6115c4565b60200260200101518661040c565b90504260056000868581518110611086576110866115c4565b6020908102919091018101516001600160a01b03168252818101929092526040908101600090812089825290925290205580156110f4576110f486828685815181106110d4576110d46115c4565b60200260200101516001600160a01b03166111db9092919063ffffffff16565b838281518110611106576111066115c4565b60200260200101516001600160a01b0316866001600160a01b03167f9aa05b3d70a9e3e2f004f039648839560576334fb45c81f91b6db03ad9e2efc98360405161115291815260200190565b60405180910390a350806111658161158e565b915050611040565b5050505050565b6040516001600160a01b038481166024830152838116604483015260648201839052610e799186918216906323b872dd906084015b604051602081830303815290604052915060e01b6020820180516001600160e01b038381831617835250505050611211565b6040516001600160a01b0383811660248301526044820183905261120c91859182169063a9059cbb906064016111a9565b505050565b60006112266001600160a01b03841683611274565b9050805160001415801561124b5750808060200190518101906112499190611639565b155b1561120c5782604051635274afe760e01b815260040161126b9190611375565b60405180910390fd5b606061066c8383600084600080856001600160a01b0316848660405161129a919061165b565b60006040518083038185875af1925050503d80600081146112d7576040519150601f19603f3d011682016040523d82523d6000602084013e6112dc565b606091505b50915091506112ec8683836112f6565b9695505050505050565b60608261130b5761130682611349565b61066c565b815115801561132257506001600160a01b0384163b155b156113425783604051639996b31560e01b815260040161126b9190611375565b508061066c565b8051156113595780518082602001fd5b604051630a12f52160e11b815260040160405180910390fd5b50565b6001600160a01b0391909116815260200190565b6001600160a01b038116811461137257600080fd5b80356113a981611389565b919050565b600080604083850312156113c157600080fd5b82356113cc81611389565b946020939093013593505050565b600080604083850312156113ed57600080fd5b50508035926020909101359150565b60006020828403121561140e57600080fd5b813561066c81611389565b60006020828403121561142b57600080fd5b5035919050565b634e487b7160e01b600052604160045260246000fd5b6000806040838503121561145b57600080fd5b8235915060208084013567ffffffffffffffff8082111561147b57600080fd5b818601915086601f83011261148f57600080fd5b8135818111156114a1576114a1611432565b8060051b604051601f19603f830116810181811085821117156114c6576114c6611432565b6040529182528482019250838101850191898311156114e457600080fd5b938501935b82851015611509576114fa8561139e565b845293850193928501926114e9565b8096505050505050509250929050565b634e487b7160e01b600052601160045260246000fd5b818103818111156105ec576105ec611519565b60008261155f57634e487b7160e01b600052601260045260246000fd5b500490565b808201808211156105ec576105ec611519565b80820281158282048414176105ec576105ec611519565b6000600182016115a0576115a0611519565b5060010190565b6000602082840312156115b957600080fd5b815161066c81611389565b634e487b7160e01b600052603260045260246000fd5b600080858511156115ea57600080fd5b838611156115f757600080fd5b5050820193919092039150565b6bffffffffffffffffffffffff1981358181169160148510156116315780818660140360031b1b83161692505b505092915050565b60006020828403121561164b57600080fd5b8151801515811461066c57600080fd5b6000825160005b8181101561167c5760208186018101518583015201611662565b50600092019182525091905056fea2646970667358221220dfe97e40d5193c68fdd6221c39e9a5de0e71abd813dd4208f8cd2db803dc6bbf64736f6c6343000814003360e06040523480156200001157600080fd5b50604051620019db380380620019db833981016040819052620000349162000240565b6001600160a01b038083166080526001600055811660a081905260408051630fc2838b60e11b81529051849284928492849291631f8507169160048083019260209291908290030181865afa15801562000092573d6000803e3d6000fd5b505050506040513d601f19601f82011682018060405250810190620000b8919062000278565b6001600160a01b031660c0816001600160a01b03168152505050506000816001600160a01b0316631f8507166040518163ffffffff1660e01b8152600401602060405180830381865afa15801562000114573d6000803e3d6000fd5b505050506040513d601f19601f820116820180604052508101906200013a919062000278565b90506000816001600160a01b031663fc0c546a6040518163ffffffff1660e01b8152600401602060405180830381865afa1580156200017d573d6000803e3d6000fd5b505050506040513d601f19601f82011682018060405250810190620001a3919062000278565b6006805460018082019092557ff652222313e28459528d920b65115c16c04f3efc82aaedc97be59f3f377c0d3f0180546001600160a01b03199081166001600160a01b03948516908117909255600091825260076020526040909120805460ff1916831790558154169390911692909217909155506200029d9350505050565b80516001600160a01b03811681146200023b57600080fd5b919050565b600080604083850312156200025457600080fd5b6200025f8362000223565b91506200026f6020840162000223565b90509250929050565b6000602082840312156200028b57600080fd5b620002968262000223565b9392505050565b60805160a05160c0516116f2620002e96000396000818161018801528181610be30152610cbf0152600081816101e201526109c90152600081816102c601526105f401526116f26000f3fe608060405234801561001057600080fd5b50600436106101585760003560e01c806392777b29116100c3578063e8111a121161007c578063e8111a1214610378578063f25e55a514610381578063f301af42146103ac578063f3207723146103bf578063f5f8d365146103d2578063f7412baf146103e557600080fd5b806392777b29146102ea5780639cc7f708146103155780639e2bf22c14610335578063a28d4c9c1461034a578063b66503cf1461035d578063e68863961461037057600080fd5b806349dcc2041161011557806349dcc204146102045780634d5ce0381461024b578063505897931461027e578063572b6c051461029e57806376f4be36146102b15780637da0a877146102c457600080fd5b806318160ddd1461015d5780631be05289146101795780631f850716146101835780633e491d47146101b7578063456cb7c6146101ca57806346c96aac146101dd575b600080fd5b61016660025481565b6040519081526020015b60405180910390f35b61016662093a8081565b6101aa7f000000000000000000000000000000000000000000000000000000000000000081565b60405161017091906113a7565b6101666101c53660046113e0565b61040c565b6001546101aa906001600160a01b031681565b6101aa7f000000000000000000000000000000000000000000000000000000000000000081565b61023661021236600461140c565b60086020908152600092835260408084209091529082529020805460019091015482565b60408051928352602083019190915201610170565b61026e61025936600461142e565b60076020526000908152604090205460ff1681565b6040519015158152602001610170565b61016661028c36600461144b565b60096020526000908152604090205481565b61026e6102ac36600461142e565b6105f2565b6101666102bf36600461144b565b610624565b7f00000000000000000000000000000000000000000000000000000000000000006101aa565b6101666102f83660046113e0565b600460209081526000928352604080842090915290825290205481565b61016661032336600461144b565b60036020526000908152604090205481565b61034861034336600461140c565b610758565b005b61016661035836600461140c565b610838565b61034861036b3660046113e0565b61097d565b600654610166565b610166600b5481565b61016661038f3660046113e0565b600560209081526000928352604080842090915290825290205481565b6101aa6103ba36600461144b565b610adc565b6103486103cd36600461140c565b610b06565b6103486103e036600461147a565b610bd9565b6102366103f336600461144b565b600a602052600090815260409020805460019091015482565b6000818152600960205260408120548103610429575060006105ec565b6001600160a01b038316600090815260056020908152604080832085845290915281205460019062093a8081069003826104638683610838565b60008781526008602090815260408083208484528252918290208251808401909352805480845260019091015491830191909152919250906104ae90849062093a8081069003610d3f565b9250600062093a806104c585428381069003611561565b6104cf9190611574565b905080156105e35760005b818110156105e1576104ff8960016104f562093a8089611596565b6103589190611561565b60008a815260086020908152604080832084845282528083208151808301909252805482526001908101549282019290925292965091945061057391600a919061055a9061055062093a808b611596565b6102bf9190611561565b8152602001908152602001600020600101546001610d3f565b6001600160a01b038b1660009081526004602090815260408083208984528252909120549085015191975087916105aa91906115a9565b6105b49190611574565b6105be9088611596565b96506105cd62093a8086611596565b9450806105d9816115c0565b9150506104da565b505b50939450505050505b92915050565b7f00000000000000000000000000000000000000000000000000000000000000006001600160a01b0390811691161490565b600b5460009080820361063a5750600092915050565b82600a600061064a600185611561565b815260200190815260200160002060000154116106735761066c600182611561565b9392505050565b60008052600a6020527f13da86008ba1c6922daee3e07db95305ef49ebced9f5467a0b8613fcc6b343e3548310156106ae5750600092915050565b6000806106bc600184611561565b90505b8181111561075057600060026106d58484611561565b6106df9190611574565b6106e99083611561565b6000818152600a602090815260409182902082518084019093528054808452600190910154918301919091529192509087900361072a575095945050505050565b805187111561073b57819350610749565b610746600183611561565b92505b50506106bf565b509392505050565b6000610762610d55565b6001549091506001600160a01b038083169116146107935760405163ea8e4eb560e01b815260040160405180910390fd5b82600260008282546107a59190611561565b9091555050600082815260036020526040812080548592906107c8908490611561565b90915550506000828152600360205260409020546107e7908390610da7565b6107ef610eb1565b81816001600160a01b03167ff279e6a1f5e320cca91135676d9cb6e44ca8a08c0b88342bcdb1144f6511b5688560405161082b91815260200190565b60405180910390a3505050565b6000828152600960205260408120548082036108585760009150506105ec565b60008481526008602052604081208491610873600185611561565b8152602001908152602001600020600001541161089d57610895600182611561565b9150506105ec565b60008481526008602090815260408083208380529091529020548310156108c85760009150506105ec565b6000806108d6600184611561565b90505b8181111561097457600060026108ef8484611561565b6108f99190611574565b6109039083611561565b600088815260086020908152604080832084845282529182902082518084019093528054808452600190910154918301919091529192509087900361094e575093506105ec92505050565b805187111561095f5781935061096d565b61096a600183611561565b92505b50506108d9565b50949350505050565b610985610f69565b600061098f610d55565b6001600160a01b03841660009081526007602052604090205490915060ff16610ac25760405163559bfa4360e11b81526001600160a01b037f0000000000000000000000000000000000000000000000000000000000000000169063ab37f486906109fe9086906004016113a7565b602060405180830381865afa158015610a1b573d6000803e3d6000fd5b505050506040513d601f19601f82011682018060405250810190610a3f91906115d9565b610a5c57604051630b094f2760e31b815260040160405180910390fd5b6001600160a01b0383166000818152600760205260408120805460ff191660019081179091556006805491820181559091527ff652222313e28459528d920b65115c16c04f3efc82aaedc97be59f3f377c0d3f0180546001600160a01b03191690911790555b610acd818484610f93565b50610ad86001600055565b5050565b60068181548110610aec57600080fd5b6000918252602090912001546001600160a01b0316905081565b6000610b10610d55565b6001549091506001600160a01b03808316911614610b415760405163ea8e4eb560e01b815260040160405180910390fd5b8260026000828254610b539190611596565b909155505060008281526003602052604081208054859290610b76908490611596565b9091555050600082815260036020526040902054610b95908390610da7565b610b9d610eb1565b81816001600160a01b03167f90890809c654f11d6e72a28fa60149770a0d11ec6c92319d6ceb2bb0a4ea1a158560405161082b91815260200190565b610be1610f69565b7f00000000000000000000000000000000000000000000000000000000000000006001600160a01b031663430c2081610c18610d55565b6040516001600160e01b031960e084901b1681526001600160a01b039091166004820152602481018590526044016020604051808303816000875af1158015610c65573d6000803e3d6000fd5b505050506040513d601f19601f82011682018060405250810190610c8991906115d9565b610ca65760405163ea8e4eb560e01b815260040160405180910390fd5b6040516331a9108f60e11b8152600481018390526000907f00000000000000000000000000000000000000000000000000000000000000006001600160a01b031690636352211e90602401602060405180830381865afa158015610d0e573d6000803e3d6000fd5b505050506040513d601f19601f82011682018060405250810190610d3291906115fb565b9050610acd81848461106d565b6000818311610d4e578161066c565b5090919050565b6000366014610d63336105f2565b8015610d6f5750808210155b15610d9f57600036610d818385611561565b610d8c928290611618565b610d9591611642565b60601c9250505090565b339250505090565b600082815260096020526040902054428115801590610e05575062093a80810681036000858152600860205260408120610e0391610de6600187611561565b81526020019081526020016000206000015462093a808106900390565b145b15610e5b576040805180820182528281526020808201869052600087815260089091529182209091610e38600186611561565b815260208082019290925260400160002082518155910151600190910155610eab565b6040805180820182528281526020808201868152600088815260088352848120878252909252929020905181559051600191820155610e9b908390611596565b6000858152600960205260409020555b50505050565b600b54428115801590610edb575062093a8081068103610ed9600a6000610de6600187611561565b145b15610f2657604080518082019091528181526002546020820152600a6000610f04600186611561565b8152602080820192909252604001600020825181559101516001909101555050565b60408051808201825282815260025460208083019182526000868152600a90915292909220905181559051600191820155610f62908390611596565b600b555050565b600260005403610f8c57604051633ee5aeb560e01b815260040160405180910390fd5b6002600055565b80600003610fb457604051631f2a200560e01b815260040160405180910390fd5b610fc96001600160a01b0383168430846111a6565b6000610fda4262093a808106900390565b6001600160a01b0384166000908152600460209081526040808320848452909152812080549293508492909190611012908490611596565b9250508190555080836001600160a01b0316856001600160a01b03167f52977ea98a2220a03ee9ba5cb003ada08d394ea10155483c95dc2dc77a7eb24b8560405161105f91815260200190565b60405180910390a450505050565b805160005b8181101561119f57600061109f84838151811061109157611091611677565b60200260200101518661040c565b905042600560008685815181106110b8576110b8611677565b6020908102919091018101516001600160a01b031682528181019290925260409081016000908120898252909252902055801561112657611126868286858151811061110657611106611677565b60200260200101516001600160a01b031661120d9092919063ffffffff16565b83828151811061113857611138611677565b60200260200101516001600160a01b0316866001600160a01b03167f9aa05b3d70a9e3e2f004f039648839560576334fb45c81f91b6db03ad9e2efc98360405161118491815260200190565b60405180910390a35080611197816115c0565b915050611072565b5050505050565b6040516001600160a01b038481166024830152838116604483015260648201839052610eab9186918216906323b872dd906084015b604051602081830303815290604052915060e01b6020820180516001600160e01b038381831617835250505050611243565b6040516001600160a01b0383811660248301526044820183905261123e91859182169063a9059cbb906064016111db565b505050565b60006112586001600160a01b038416836112a6565b9050805160001415801561127d57508080602001905181019061127b91906115d9565b155b1561123e5782604051635274afe760e01b815260040161129d91906113a7565b60405180910390fd5b606061066c8383600084600080856001600160a01b031684866040516112cc919061168d565b60006040518083038185875af1925050503d8060008114611309576040519150601f19603f3d011682016040523d82523d6000602084013e61130e565b606091505b509150915061131e868383611328565b9695505050505050565b60608261133d576113388261137b565b61066c565b815115801561135457506001600160a01b0384163b155b156113745783604051639996b31560e01b815260040161129d91906113a7565b508061066c565b80511561138b5780518082602001fd5b604051630a12f52160e11b815260040160405180910390fd5b50565b6001600160a01b0391909116815260200190565b6001600160a01b03811681146113a457600080fd5b80356113db816113bb565b919050565b600080604083850312156113f357600080fd5b82356113fe816113bb565b946020939093013593505050565b6000806040838503121561141f57600080fd5b50508035926020909101359150565b60006020828403121561144057600080fd5b813561066c816113bb565b60006020828403121561145d57600080fd5b5035919050565b634e487b7160e01b600052604160045260246000fd5b6000806040838503121561148d57600080fd5b8235915060208084013567ffffffffffffffff808211156114ad57600080fd5b818601915086601f8301126114c157600080fd5b8135818111156114d3576114d3611464565b8060051b604051601f19603f830116810181811085821117156114f8576114f8611464565b60405291825284820192508381018501918983111561151657600080fd5b938501935b8285101561153b5761152c856113d0565b8452938501939285019261151b565b8096505050505050509250929050565b634e487b7160e01b600052601160045260246000fd5b818103818111156105ec576105ec61154b565b60008261159157634e487b7160e01b600052601260045260246000fd5b500490565b808201808211156105ec576105ec61154b565b80820281158282048414176105ec576105ec61154b565b6000600182016115d2576115d261154b565b5060010190565b6000602082840312156115eb57600080fd5b8151801515811461066c57600080fd5b60006020828403121561160d57600080fd5b815161066c816113bb565b6000808585111561162857600080fd5b8386111561163557600080fd5b5050820193919092039150565b6bffffffffffffffffffffffff19813581811691601485101561166f5780818660140360031b1b83161692505b505092915050565b634e487b7160e01b600052603260045260246000fd5b6000825160005b818110156116ae5760208186018101518583015201611694565b50600092019182525091905056fea26469706673582212202cab909a66700d596dab5d2fedfe61571cdaeb2cb564745a8f26a403068b0b7964736f6c63430008140033a2646970667358221220cbf5d746312f8c12bf7f3b058c6d2b0519fc983333b885400f5347d0ff24a66964736f6c63430008140033",
  "linkReferences": {},
  "deployedLinkReferences": {}
}