{
  "_format": "hh-sol-artifact-1",
  "contractName": "PoolFactory",
  "sourceName": "contracts/aerodrome/factories/PoolFactory.sol",
  "abi": [
    {
      "inputs": [
        {
          "internalType": "address",
          "name": "_implementation",
          "type": "address"
        }
      ],
      "stateMutability": "nonpayable",
      "type": "constructor"
    },
    {
      "inputs": [],
      "name": "ERC1167FailedCreateClone",
      "type": "error"
    },
    {
      "inputs": [],
      "name": "FeeInvalid",
      "type": "error"
    },
    {
      "inputs": [],
      "name": "FeeTooHigh",
      "type": "error"
    },
    {
      "inputs": [],
      "name": "InvalidPool",
      "type": "error"
    },
    {
      "inputs": [],
      "name": "NotFeeManager",
      "type": "error"
    },
    {
      "inputs": [],
      "name": "NotPauser",
      "type": "error"
    },
    {
      "inputs": [],
      "name": "NotVoter",
      "type": "error"
    },
    {
      "inputs": [],
      "name": "PoolAlreadyExists",
      "type": "error"
    },
    {
      "inputs": [],
      "name": "SameAddress",
      "type": "error"
    },
    {
      "inputs": [],
      "name": "ZeroAddress",
      "type": "error"
    },
    {
      "inputs": [],
      "name": "ZeroFee",
      "type": "error"
    },
    {
      "anonymous": false,
      "inputs": [
        {
          "indexed": true,
          "internalType": "address",
          "name": "token0",
          "type": "address"
        },
        {
          "indexed": true,
          "internalType": "address",
          "name": "token1",
          "type": "address"
        },
        {
          "indexed": true,
          "internalType": "bool",
          "name": "stable",
          "type": "bool"
        },
        {
          "indexed": false,
          "internalType": "address",
          "name": "pool",
          "type": "address"
        },
        {
          "indexed": false,
          "internalType": "uint256",
          "name": "",
          "type": "uint256"
        }
      ],
      "name": "PoolCreated",
      "type": "event"
    },
    {
      "anonymous": false,
      "inputs": [
        {
          "indexed": true,
          "internalType": "address",
          "name": "pool",
          "type": "address"
        },
        {
          "indexed": false,
          "internalType": "uint256",
          "name": "fee",
          "type": "uint256"
        }
      ],
      "name": "SetCustomFee",
      "type": "event"
    },
    {
      "anonymous": false,
      "inputs": [
        {
          "indexed": false,
          "internalType": "address",
          "name": "feeManager",
          "type": "address"
        }
      ],
      "name": "SetFeeManager",
      "type": "event"
    },
    {
      "anonymous": false,
      "inputs": [
        {
          "indexed": false,
          "internalType": "bool",
          "name": "state",
          "type": "bool"
        }
      ],
      "name": "SetPauseState",
      "type": "event"
    },
    {
      "anonymous": false,
      "inputs": [
        {
          "indexed": false,
          "internalType": "address",
          "name": "pauser",
          "type": "address"
        }
      ],
      "name": "SetPauser",
      "type": "event"
    },
    {
      "anonymous": false,
      "inputs": [
        {
          "indexed": false,
          "internalType": "address",
          "name": "voter",
          "type": "address"
        }
      ],
      "name": "SetVoter",
      "type": "event"
    },
    {
      "inputs": [],
      "name": "MAX_FEE",
      "outputs": [
        {
          "internalType": "uint256",
          "name": "",
          "type": "uint256"
        }
      ],
      "stateMutability": "view",
      "type": "function"
    },
    {
      "inputs": [],
      "name": "ZERO_FEE_INDICATOR",
      "outputs": [
        {
          "internalType": "uint256",
          "name": "",
          "type": "uint256"
        }
      ],
      "stateMutability": "view",
      "type": "function"
    },
    {
      "inputs": [
        {
          "internalType": "uint256",
          "name": "",
          "type": "uint256"
        }
      ],
      "name": "allPools",
      "outputs": [
        {
          "internalType": "address",
          "name": "",
          "type": "address"
        }
      ],
      "stateMutability": "view",
      "type": "function"
    },
    {
      "inputs": [],
      "name": "allPoolsLength",
      "outputs": [
        {
          "internalType": "uint256",
          "name": "",
          "type": "uint256"
        }
      ],
      "stateMutability": "view",
      "type": "function"
    },
    {
      "inputs": [
        {
          "internalType": "address",
          "name": "tokenA",
          "type": "address"
        },
        {
          "internalType": "address",
          "name": "tokenB",
          "type": "address"
        },
        {
          "internalType": "bool",
          "name": "stable",
          "type": "bool"
        }
      ],
      "name": "createPool",
      "outputs": [
        {
          "internalType": "address",
          "name": "pool",
          "type": "address"
        }
      ],
      "stateMutability": "nonpayable",
      "type": "function"
    },
    {
      "inputs": [
        {
          "internalType": "address",
          "name": "tokenA",
          "type": "address"
        },
        {
          "internalType": "address",
          "name": "tokenB",
          "type": "address"
        },
        {
          "internalType": "uint24",
          "name": "fee",
          "type": "uint24"
        }
      ],
      "name": "createPool",
      "outputs": [
        {
          "internalType": "address",
          "name": "pool",
          "type": "address"
        }
      ],
      "stateMutability": "nonpayable",
      "type": "function"
    },
    {
      "inputs": [
        {
          "internalType": "address",
          "name": "",
          "type": "address"
        }
      ],
      "name": "customFee",
      "outputs": [
        {
          "internalType": "uint256",
          "name": "",
          "type": "uint256"
        }
      ],
      "stateMutability": "view",
      "type": "function"
    },
    {
      "inputs": [],
      "name": "feeManager",
      "outputs": [
        {
          "internalType": "address",
          "name": "",
          "type": "address"
        }
      ],
      "stateMutability": "view",
      "type": "function"
    },
    {
      "inputs": [
        {
          "internalType": "address",
          "name": "pool",
          "type": "address"
        },
        {
          "internalType": "bool",
          "name": "_stable",
          "type": "bool"
        }
      ],
      "name": "getFee",
      "outputs": [
        {
          "internalType": "uint256",
          "name": "",
          "type": "uint256"
        }
      ],
      "stateMutability": "view",
      "type": "function"
    },
    {
      "inputs": [
        {
          "internalType": "address",
          "name": "tokenA",
          "type": "address"
        },
        {
          "internalType": "address",
          "name": "tokenB",
          "type": "address"
        },
        {
          "internalType": "uint24",
          "name": "fee",
          "type": "uint24"
        }
      ],
      "name": "getPool",
      "outputs": [
        {
          "internalType": "address",
          "name": "",
          "type": "address"
        }
      ],
      "stateMutability": "view",
      "type": "function"
    },
    {
      "inputs": [
        {
          "internalType": "address",
          "name": "tokenA",
          "type": "address"
        },
        {
          "internalType": "address",
          "name": "tokenB",
          "type": "address"
        },
        {
          "internalType": "bool",
          "name": "stable",
          "type": "bool"
        }
      ],
      "name": "getPool",
      "outputs": [
        {
          "internalType": "address",
          "name": "",
          "type": "address"
        }
      ],
      "stateMutability": "view",
      "type": "function"
    },
    {
      "inputs": [],
      "name": "implementation",
      "outputs": [
        {
          "internalType": "address",
          "name": "",
          "type": "address"
        }
      ],
      "stateMutability": "view",
      "type": "function"
    },
    {
      "inputs": [],
      "name": "isPaused",
      "outputs": [
        {
          "internalType": "bool",
          "name": "",
          "type": "bool"
        }
      ],
      "stateMutability": "view",
      "type": "function"
    },
    {
      "inputs": [
        {
          "internalType": "address",
          "name": "pool",
          "type": "address"
        }
      ],
      "name": "isPool",
      "outputs": [
        {
          "internalType": "bool",
          "name": "",
          "type": "bool"
        }
      ],
      "stateMutability": "view",
      "type": "function"
    },
    {
      "inputs": [],
      "name": "pauser",
      "outputs": [
        {
          "internalType": "address",
          "name": "",
          "type": "address"
        }
      ],
      "stateMutability": "view",
      "type": "function"
    },
    {
      "inputs": [
        {
          "internalType": "address",
          "name": "pool",
          "type": "address"
        },
        {
          "internalType": "uint256",
          "name": "fee",
          "type": "uint256"
        }
      ],
      "name": "setCustomFee",
      "outputs": [],
      "stateMutability": "nonpayable",
      "type": "function"
    },
    {
      "inputs": [
        {
          "internalType": "bool",
          "name": "_stable",
          "type": "bool"
        },
        {
          "internalType": "uint256",
          "name": "_fee",
          "type": "uint256"
        }
      ],
      "name": "setFee",
      "outputs": [],
      "stateMutability": "nonpayable",
      "type": "function"
    },
    {
      "inputs": [
        {
          "internalType": "address",
          "name": "_feeManager",
          "type": "address"
        }
      ],
      "name": "setFeeManager",
      "outputs": [],
      "stateMutability": "nonpayable",
      "type": "function"
    },
    {
      "inputs": [
        {
          "internalType": "bool",
          "name": "_state",
          "type": "bool"
        }
      ],
      "name": "setPauseState",
      "outputs": [],
      "stateMutability": "nonpayable",
      "type": "function"
    },
    {
      "inputs": [
        {
          "internalType": "address",
          "name": "_pauser",
          "type": "address"
        }
      ],
      "name": "setPauser",
      "outputs": [],
      "stateMutability": "nonpayable",
      "type": "function"
    },
    {
      "inputs": [
        {
          "internalType": "address",
          "name": "_voter",
          "type": "address"
        }
      ],
      "name": "setVoter",
      "outputs": [],
      "stateMutability": "nonpayable",
      "type": "function"
    },
    {
      "inputs": [],
      "name": "stableFee",
      "outputs": [
        {
          "internalType": "uint256",
          "name": "",
          "type": "uint256"
        }
      ],
      "stateMutability": "view",
      "type": "function"
    },
    {
      "inputs": [],
      "name": "volatileFee",
      "outputs": [
        {
          "internalType": "uint256",
          "name": "",
          "type": "uint256"
        }
      ],
      "stateMutability": "view",
      "type": "function"
    },
    {
      "inputs": [],
      "name": "voter",
      "outputs": [
        {
          "internalType": "address",
          "name": "",
          "type": "address"
        }
      ],
      "stateMutability": "view",
      "type": "function"
    }
  ],
  "bytecode": "0x60a060405234801561001057600080fd5b50604051610e6c380380610e6c83398101604081905261002f9161008c565b6001600160a01b031660805260048054336001600160a01b03199182168117909255600080546003805490931684179092556001600160a81b031990911661010090920260ff19169190911790556005600155601e6002556100bc565b60006020828403121561009e57600080fd5b81516001600160a01b03811681146100b557600080fd5b9392505050565b608051610d8e6100de6000396000818161028401526106000152610d8e6000f3fe608060405234801561001057600080fd5b50600436106101585760003560e01c80635c60da1b116100c3578063cc56b2c51161007c578063cc56b2c51461032b578063cdb88ad11461033e578063d0fb020314610351578063d49466a814610364578063e1f76b4414610377578063efde4e641461038a57600080fd5b80635c60da1b1461027f57806379bc57d5146102a65780639fd0506d146102ea578063a167129514610302578063b187bd2614610315578063bc063e1a1461032257600080fd5b806346c96aac1161011557806346c96aac146101e1578063472d35b9146101f45780634bc2a657146102075780634d419abc1461021a5780635084ed031461023a5780635b16ebb71461024357600080fd5b80631698ee821461015d5780632d88af4a1461018657806336bf95a01461019b57806338c55d46146101ae57806340bbd775146101c557806341d1de97146101ce575b600080fd5b61017061016b366004610bd3565b610392565b60405161017d9190610c22565b60405180910390f35b610199610194366004610c36565b610424565b005b6101706101a9366004610c68565b6104d6565b6101b76101a481565b60405190815260200161017d565b6101b760015481565b6101706101dc366004610cab565b610795565b600454610170906001600160a01b031681565b610199610202366004610c36565b6107bf565b610199610215366004610c36565b61085c565b6101b7610228366004610c36565b60086020526000908152604090205481565b6101b760025481565b61026f610251366004610c36565b6001600160a01b031660009081526007602052604090205460ff1690565b604051901515815260200161017d565b6101707f000000000000000000000000000000000000000000000000000000000000000081565b6101706102b4366004610c68565b6001600160a01b039283166000908152600560209081526040808320948616835293815283822092151582529190915220541690565b6000546101709061010090046001600160a01b031681565b610170610310366004610bd3565b6108d2565b60005461026f9060ff1681565b6101b761012c81565b6101b7610339366004610cc4565b610918565b61019961034c366004610cf7565b61096a565b600354610170906001600160a01b031681565b610199610372366004610d12565b6109db565b610199610385366004610d3c565b610ac8565b6006546101b7565b600060018262ffffff1611610419578162ffffff166001146103e3576001600160a01b038085166000908152600560209081526040808320878516845282528083208380529091529020541661041c565b6001600160a01b03808516600090815260056020908152604080832087851684528252808320600184529091529020541661041c565b60005b949350505050565b60005461010090046001600160a01b031633146104545760405163492f678160e01b815260040160405180910390fd5b6001600160a01b03811661047b5760405163d92e233d60e01b815260040160405180910390fd5b60008054610100600160a81b0319166101006001600160a01b038416021790556040517fe02efb9e8f0fc21546730ab32d594f62d586e1bbb15bb5045edd0b1878a77b35906104cb908390610c22565b60405180910390a150565b6000826001600160a01b0316846001600160a01b03160361050a5760405163367558c360e01b815260040160405180910390fd5b600080846001600160a01b0316866001600160a01b03161061052d578486610530565b85855b90925090506001600160a01b03821661055c5760405163d92e233d60e01b815260040160405180910390fd5b6001600160a01b03828116600090815260056020908152604080832085851684528252808320881515845290915290205416156105ac57604051630188c99160e11b815260040160405180910390fd5b6040516bffffffffffffffffffffffff19606084811b8216602084015283901b16603482015284151560f81b60488201526000906049016040516020818303038152906040528051906020012090506106257f000000000000000000000000000000000000000000000000000000000000000082610b49565b604051631c9776b560e31b81526001600160a01b038581166004830152848116602483015287151560448301529195509085169063e4bbb5a890606401600060405180830381600087803b15801561067c57600080fd5b505af1158015610690573d6000803e3d6000fd5b505050506001600160a01b0383811660008181526005602081815260408084208887168086529083528185208c15158087529084528286208054988d166001600160a01b0319998a16811790915582875294845282862087875284528286208187528452828620805489168617905560068054600181810183557ff652222313e28459528d920b65115c16c04f3efc82aaedc97be59f3f377c0d3f9091018054909a1687179099558587526007855295839020805460ff191690981790975593548151938452918301919091529192917f2128d88d14c80cb081c1252a5acff7a264671bf199ce226b53788fb26065005e910160405180910390a45050509392505050565b600681815481106107a557600080fd5b6000918252602090912001546001600160a01b0316905081565b6003546001600160a01b031633146107ea5760405163f5d267eb60e01b815260040160405180910390fd5b6001600160a01b0381166108115760405163d92e233d60e01b815260040160405180910390fd5b600380546001600160a01b0319166001600160a01b0383161790556040517f5d0517e3a4eabea892d9750138cd21d4a6cf3b935b43d0598df7055f463819b2906104cb908390610c22565b6004546001600160a01b031633146108875760405163c18384c160e01b815260040160405180910390fd5b600480546001600160a01b0319166001600160a01b0383161790556040517fc6ff127433b785c51da9ae4088ee184c909b1a55b9afd82ae6c64224d3bc15d2906104cb908390610c22565b600060018262ffffff1611156108fb576040516352dadcf960e01b815260040160405180910390fd5b600162ffffff83161461090f8585836104d6565b95945050505050565b6001600160a01b0382166000908152600860205260408120546101a4811461095d5780600003610957578261094f57600254610960565b600154610960565b80610960565b60005b9150505b92915050565b60005461010090046001600160a01b0316331461099a5760405163492f678160e01b815260040160405180910390fd5b6000805460ff19168215159081179091556040519081527f0d76538efc408318a051137c2720a9e82902acdbd46b802d488b74ca3a09a116906020016104cb565b6003546001600160a01b03163314610a065760405163f5d267eb60e01b815260040160405180910390fd5b61012c81118015610a1957506101a48114155b15610a375760405163cd4e616760e01b815260040160405180910390fd5b6001600160a01b03821660009081526007602052604090205460ff16610a6f5760405162820f3560e61b815260040160405180910390fd5b6001600160a01b03821660008181526008602052604090819020839055517fae468ce586f9a87660fdffc1448cee942042c16ae2f02046b134b5224f31936b90610abc9084815260200190565b60405180910390a25050565b6003546001600160a01b03163314610af35760405163f5d267eb60e01b815260040160405180910390fd5b61012c811115610b165760405163cd4e616760e01b815260040160405180910390fd5b80600003610b375760405163af13986d60e01b815260040160405180910390fd5b8115610b435760015550565b60025550565b6000763d602d80600a3d3981f3363d3d373d3d3d363d730000008360601b60e81c176000526e5af43d82803e903d91602b57fd5bf38360781b1760205281603760096000f590506001600160a01b038116610964576040516330be1a3d60e21b815260040160405180910390fd5b80356001600160a01b0381168114610bce57600080fd5b919050565b600080600060608486031215610be857600080fd5b610bf184610bb7565b9250610bff60208501610bb7565b9150604084013562ffffff81168114610c1757600080fd5b809150509250925092565b6001600160a01b0391909116815260200190565b600060208284031215610c4857600080fd5b610c5182610bb7565b9392505050565b80358015158114610bce57600080fd5b600080600060608486031215610c7d57600080fd5b610c8684610bb7565b9250610c9460208501610bb7565b9150610ca260408501610c58565b90509250925092565b600060208284031215610cbd57600080fd5b5035919050565b60008060408385031215610cd757600080fd5b610ce083610bb7565b9150610cee60208401610c58565b90509250929050565b600060208284031215610d0957600080fd5b610c5182610c58565b60008060408385031215610d2557600080fd5b610d2e83610bb7565b946020939093013593505050565b60008060408385031215610d4f57600080fd5b610d2e83610c5856fea2646970667358221220d2ea2662a85fac583774e8cca80d6ac24f0b2d783e700ddacb252f94e6b88b9d64736f6c63430008140033",
  "linkReferences": {},
  "deployedLinkReferences": {}
}