{
  "_format": "hh-sol-artifact-1",
  "contractName": "Pool",
  "sourceName": "contracts/aerodrome/Pool.sol",
  "abi": [
    {
      "inputs": [],
      "stateMutability": "nonpayable",
      "type": "constructor"
    },
    {
      "inputs": [
        {
          "internalType": "address",
          "name": "target",
          "type": "address"
        }
      ],
      "name": "AddressEmptyCode",
      "type": "error"
    },
    {
      "inputs": [
        {
          "internalType": "address",
          "name": "account",
          "type": "address"
        }
      ],
      "name": "AddressInsufficientBalance",
      "type": "error"
    },
    {
      "inputs": [],
      "name": "BelowMinimumK",
      "type": "error"
    },
    {
      "inputs": [],
      "name": "DepositsNotEqual",
      "type": "error"
    },
    {
      "inputs": [],
      "name": "ECDSAInvalidSignature",
      "type": "error"
    },
    {
      "inputs": [
        {
          "internalType": "uint256",
          "name": "length",
          "type": "uint256"
        }
      ],
      "name": "ECDSAInvalidSignatureLength",
      "type": "error"
    },
    {
      "inputs": [
        {
          "internalType": "bytes32",
          "name": "s",
          "type": "bytes32"
        }
      ],
      "name": "ECDSAInvalidSignatureS",
      "type": "error"
    },
    {
      "inputs": [
        {
          "internalType": "address",
          "name": "spender",
          "type": "address"
        },
        {
          "internalType": "uint256",
          "name": "allowance",
          "type": "uint256"
        },
        {
          "internalType": "uint256",
          "name": "needed",
          "type": "uint256"
        }
      ],
      "name": "ERC20InsufficientAllowance",
      "type": "error"
    },
    {
      "inputs": [
        {
          "internalType": "address",
          "name": "sender",
          "type": "address"
        },
        {
          "internalType": "uint256",
          "name": "balance",
          "type": "uint256"
        },
        {
          "internalType": "uint256",
          "name": "needed",
          "type": "uint256"
        }
      ],
      "name": "ERC20InsufficientBalance",
      "type": "error"
    },
    {
      "inputs": [
        {
          "internalType": "address",
          "name": "approver",
          "type": "address"
        }
      ],
      "name": "ERC20InvalidApprover",
      "type": "error"
    },
    {
      "inputs": [
        {
          "internalType": "address",
          "name": "receiver",
          "type": "address"
        }
      ],
      "name": "ERC20InvalidReceiver",
      "type": "error"
    },
    {
      "inputs": [
        {
          "internalType": "address",
          "name": "sender",
          "type": "address"
        }
      ],
      "name": "ERC20InvalidSender",
      "type": "error"
    },
    {
      "inputs": [
        {
          "internalType": "address",
          "name": "spender",
          "type": "address"
        }
      ],
      "name": "ERC20InvalidSpender",
      "type": "error"
    },
    {
      "inputs": [
        {
          "internalType": "uint256",
          "name": "deadline",
          "type": "uint256"
        }
      ],
      "name": "ERC2612ExpiredSignature",
      "type": "error"
    },
    {
      "inputs": [
        {
          "internalType": "address",
          "name": "signer",
          "type": "address"
        },
        {
          "internalType": "address",
          "name": "owner",
          "type": "address"
        }
      ],
      "name": "ERC2612InvalidSigner",
      "type": "error"
    },
    {
      "inputs": [],
      "name": "FactoryAlreadySet",
      "type": "error"
    },
    {
      "inputs": [],
      "name": "FailedInnerCall",
      "type": "error"
    },
    {
      "inputs": [],
      "name": "InsufficientInputAmount",
      "type": "error"
    },
    {
      "inputs": [],
      "name": "InsufficientLiquidity",
      "type": "error"
    },
    {
      "inputs": [],
      "name": "InsufficientLiquidityBurned",
      "type": "error"
    },
    {
      "inputs": [],
      "name": "InsufficientLiquidityMinted",
      "type": "error"
    },
    {
      "inputs": [],
      "name": "InsufficientOutputAmount",
      "type": "error"
    },
    {
      "inputs": [
        {
          "internalType": "address",
          "name": "account",
          "type": "address"
        },
        {
          "internalType": "uint256",
          "name": "currentNonce",
          "type": "uint256"
        }
      ],
      "name": "InvalidAccountNonce",
      "type": "error"
    },
    {
      "inputs": [],
      "name": "InvalidShortString",
      "type": "error"
    },
    {
      "inputs": [],
      "name": "InvalidTo",
      "type": "error"
    },
    {
      "inputs": [],
      "name": "IsPaused",
      "type": "error"
    },
    {
      "inputs": [],
      "name": "K",
      "type": "error"
    },
    {
      "inputs": [],
      "name": "NotEmergencyCouncil",
      "type": "error"
    },
    {
      "inputs": [],
      "name": "ReentrancyGuardReentrantCall",
      "type": "error"
    },
    {
      "inputs": [
        {
          "internalType": "address",
          "name": "token",
          "type": "address"
        }
      ],
      "name": "SafeERC20FailedOperation",
      "type": "error"
    },
    {
      "inputs": [
        {
          "internalType": "string",
          "name": "str",
          "type": "string"
        }
      ],
      "name": "StringTooLong",
      "type": "error"
    },
    {
      "anonymous": false,
      "inputs": [
        {
          "indexed": true,
          "internalType": "address",
          "name": "owner",
          "type": "address"
        },
        {
          "indexed": true,
          "internalType": "address",
          "name": "spender",
          "type": "address"
        },
        {
          "indexed": false,
          "internalType": "uint256",
          "name": "value",
          "type": "uint256"
        }
      ],
      "name": "Approval",
      "type": "event"
    },
    {
      "anonymous": false,
      "inputs": [
        {
          "indexed": true,
          "internalType": "address",
          "name": "sender",
          "type": "address"
        },
        {
          "indexed": true,
          "internalType": "address",
          "name": "to",
          "type": "address"
        },
        {
          "indexed": false,
          "internalType": "uint256",
          "name": "amount0",
          "type": "uint256"
        },
        {
          "indexed": false,
          "internalType": "uint256",
          "name": "amount1",
          "type": "uint256"
        }
      ],
      "name": "Burn",
      "type": "event"
    },
    {
      "anonymous": false,
      "inputs": [
        {
          "indexed": true,
          "internalType": "address",
          "name": "sender",
          "type": "address"
        },
        {
          "indexed": true,
          "internalType": "address",
          "name": "recipient",
          "type": "address"
        },
        {
          "indexed": false,
          "internalType": "uint256",
          "name": "amount0",
          "type": "uint256"
        },
        {
          "indexed": false,
          "internalType": "uint256",
          "name": "amount1",
          "type": "uint256"
        }
      ],
      "name": "Claim",
      "type": "event"
    },
    {
      "anonymous": false,
      "inputs": [],
      "name": "EIP712DomainChanged",
      "type": "event"
    },
    {
      "anonymous": false,
      "inputs": [
        {
          "indexed": true,
          "internalType": "address",
          "name": "sender",
          "type": "address"
        },
        {
          "indexed": false,
          "internalType": "uint256",
          "name": "amount0",
          "type": "uint256"
        },
        {
          "indexed": false,
          "internalType": "uint256",
          "name": "amount1",
          "type": "uint256"
        }
      ],
      "name": "Fees",
      "type": "event"
    },
    {
      "anonymous": false,
      "inputs": [
        {
          "indexed": true,
          "internalType": "address",
          "name": "sender",
          "type": "address"
        },
        {
          "indexed": false,
          "internalType": "uint256",
          "name": "amount0",
          "type": "uint256"
        },
        {
          "indexed": false,
          "internalType": "uint256",
          "name": "amount1",
          "type": "uint256"
        }
      ],
      "name": "Mint",
      "type": "event"
    },
    {
      "anonymous": false,
      "inputs": [
        {
          "indexed": true,
          "internalType": "address",
          "name": "sender",
          "type": "address"
        },
        {
          "indexed": true,
          "internalType": "address",
          "name": "to",
          "type": "address"
        },
        {
          "indexed": false,
          "internalType": "uint256",
          "name": "amount0In",
          "type": "uint256"
        },
        {
          "indexed": false,
          "internalType": "uint256",
          "name": "amount1In",
          "type": "uint256"
        },
        {
          "indexed": false,
          "internalType": "uint256",
          "name": "amount0Out",
          "type": "uint256"
        },
        {
          "indexed": false,
          "internalType": "uint256",
          "name": "amount1Out",
          "type": "uint256"
        }
      ],
      "name": "Swap",
      "type": "event"
    },
    {
      "anonymous": false,
      "inputs": [
        {
          "indexed": false,
          "internalType": "uint256",
          "name": "reserve0",
          "type": "uint256"
        },
        {
          "indexed": false,
          "internalType": "uint256",
          "name": "reserve1",
          "type": "uint256"
        }
      ],
      "name": "Sync",
      "type": "event"
    },
    {
      "anonymous": false,
      "inputs": [
        {
          "indexed": true,
          "internalType": "address",
          "name": "from",
          "type": "address"
        },
        {
          "indexed": true,
          "internalType": "address",
          "name": "to",
          "type": "address"
        },
        {
          "indexed": false,
          "internalType": "uint256",
          "name": "value",
          "type": "uint256"
        }
      ],
      "name": "Transfer",
      "type": "event"
    },
    {
      "inputs": [],
      "name": "DOMAIN_SEPARATOR",
      "outputs": [
        {
          "internalType": "bytes32",
          "name": "",
          "type": "bytes32"
        }
      ],
      "stateMutability": "view",
      "type": "function"
    },
    {
      "inputs": [
        {
          "internalType": "address",
          "name": "owner",
          "type": "address"
        },
        {
          "internalType": "address",
          "name": "spender",
          "type": "address"
        }
      ],
      "name": "allowance",
      "outputs": [
        {
          "internalType": "uint256",
          "name": "",
          "type": "uint256"
        }
      ],
      "stateMutability": "view",
      "type": "function"
    },
    {
      "inputs": [
        {
          "internalType": "address",
          "name": "spender",
          "type": "address"
        },
        {
          "internalType": "uint256",
          "name": "value",
          "type": "uint256"
        }
      ],
      "name": "approve",
      "outputs": [
        {
          "internalType": "bool",
          "name": "",
          "type": "bool"
        }
      ],
      "stateMutability": "nonpayable",
      "type": "function"
    },
    {
      "inputs": [
        {
          "internalType": "address",
          "name": "account",
          "type": "address"
        }
      ],
      "name": "balanceOf",
      "outputs": [
        {
          "internalType": "uint256",
          "name": "",
          "type": "uint256"
        }
      ],
      "stateMutability": "view",
      "type": "function"
    },
    {
      "inputs": [],
      "name": "blockTimestampLast",
      "outputs": [
        {
          "internalType": "uint256",
          "name": "",
          "type": "uint256"
        }
      ],
      "stateMutability": "view",
      "type": "function"
    },
    {
      "inputs": [
        {
          "internalType": "address",
          "name": "to",
          "type": "address"
        }
      ],
      "name": "burn",
      "outputs": [
        {
          "internalType": "uint256",
          "name": "amount0",
          "type": "uint256"
        },
        {
          "internalType": "uint256",
          "name": "amount1",
          "type": "uint256"
        }
      ],
      "stateMutability": "nonpayable",
      "type": "function"
    },
    {
      "inputs": [],
      "name": "claimFees",
      "outputs": [
        {
          "internalType": "uint256",
          "name": "claimed0",
          "type": "uint256"
        },
        {
          "internalType": "uint256",
          "name": "claimed1",
          "type": "uint256"
        }
      ],
      "stateMutability": "nonpayable",
      "type": "function"
    },
    {
      "inputs": [
        {
          "internalType": "address",
          "name": "",
          "type": "address"
        }
      ],
      "name": "claimable0",
      "outputs": [
        {
          "internalType": "uint256",
          "name": "",
          "type": "uint256"
        }
      ],
      "stateMutability": "view",
      "type": "function"
    },
    {
      "inputs": [
        {
          "internalType": "address",
          "name": "",
          "type": "address"
        }
      ],
      "name": "claimable1",
      "outputs": [
        {
          "internalType": "uint256",
          "name": "",
          "type": "uint256"
        }
      ],
      "stateMutability": "view",
      "type": "function"
    },
    {
      "inputs": [],
      "name": "currentCumulativePrices",
      "outputs": [
        {
          "internalType": "uint256",
          "name": "reserve0Cumulative",
          "type": "uint256"
        },
        {
          "internalType": "uint256",
          "name": "reserve1Cumulative",
          "type": "uint256"
        },
        {
          "internalType": "uint256",
          "name": "blockTimestamp",
          "type": "uint256"
        }
      ],
      "stateMutability": "view",
      "type": "function"
    },
    {
      "inputs": [],
      "name": "decimals",
      "outputs": [
        {
          "internalType": "uint8",
          "name": "",
          "type": "uint8"
        }
      ],
      "stateMutability": "view",
      "type": "function"
    },
    {
      "inputs": [],
      "name": "eip712Domain",
      "outputs": [
        {
          "internalType": "bytes1",
          "name": "fields",
          "type": "bytes1"
        },
        {
          "internalType": "string",
          "name": "name",
          "type": "string"
        },
        {
          "internalType": "string",
          "name": "version",
          "type": "string"
        },
        {
          "internalType": "uint256",
          "name": "chainId",
          "type": "uint256"
        },
        {
          "internalType": "address",
          "name": "verifyingContract",
          "type": "address"
        },
        {
          "internalType": "bytes32",
          "name": "salt",
          "type": "bytes32"
        },
        {
          "internalType": "uint256[]",
          "name": "extensions",
          "type": "uint256[]"
        }
      ],
      "stateMutability": "view",
      "type": "function"
    },
    {
      "inputs": [],
      "name": "factory",
      "outputs": [
        {
          "internalType": "address",
          "name": "",
          "type": "address"
        }
      ],
      "stateMutability": "view",
      "type": "function"
    },
    {
      "inputs": [
        {
          "internalType": "uint256",
          "name": "amountIn",
          "type": "uint256"
        },
        {
          "internalType": "address",
          "name": "tokenIn",
          "type": "address"
        }
      ],
      "name": "getAmountOut",
      "outputs": [
        {
          "internalType": "uint256",
          "name": "",
          "type": "uint256"
        }
      ],
      "stateMutability": "view",
      "type": "function"
    },
    {
      "inputs": [],
      "name": "getK",
      "outputs": [
        {
          "internalType": "uint256",
          "name": "",
          "type": "uint256"
        }
      ],
      "stateMutability": "nonpayable",
      "type": "function"
    },
    {
      "inputs": [],
      "name": "getReserves",
      "outputs": [
        {
          "internalType": "uint256",
          "name": "_reserve0",
          "type": "uint256"
        },
        {
          "internalType": "uint256",
          "name": "_reserve1",
          "type": "uint256"
        },
        {
          "internalType": "uint256",
          "name": "_blockTimestampLast",
          "type": "uint256"
        }
      ],
      "stateMutability": "view",
      "type": "function"
    },
    {
      "inputs": [],
      "name": "index0",
      "outputs": [
        {
          "internalType": "uint256",
          "name": "",
          "type": "uint256"
        }
      ],
      "stateMutability": "view",
      "type": "function"
    },
    {
      "inputs": [],
      "name": "index1",
      "outputs": [
        {
          "internalType": "uint256",
          "name": "",
          "type": "uint256"
        }
      ],
      "stateMutability": "view",
      "type": "function"
    },
    {
      "inputs": [
        {
          "internalType": "address",
          "name": "_token0",
          "type": "address"
        },
        {
          "internalType": "address",
          "name": "_token1",
          "type": "address"
        },
        {
          "internalType": "bool",
          "name": "_stable",
          "type": "bool"
        }
      ],
      "name": "initialize",
      "outputs": [],
      "stateMutability": "nonpayable",
      "type": "function"
    },
    {
      "inputs": [],
      "name": "lastObservation",
      "outputs": [
        {
          "components": [
            {
              "internalType": "uint256",
              "name": "timestamp",
              "type": "uint256"
            },
            {
              "internalType": "uint256",
              "name": "reserve0Cumulative",
              "type": "uint256"
            },
            {
              "internalType": "uint256",
              "name": "reserve1Cumulative",
              "type": "uint256"
            }
          ],
          "internalType": "struct IPool.Observation",
          "name": "",
          "type": "tuple"
        }
      ],
      "stateMutability": "view",
      "type": "function"
    },
    {
      "inputs": [],
      "name": "metadata",
      "outputs": [
        {
          "internalType": "uint256",
          "name": "dec0",
          "type": "uint256"
        },
        {
          "internalType": "uint256",
          "name": "dec1",
          "type": "uint256"
        },
        {
          "internalType": "uint256",
          "name": "r0",
          "type": "uint256"
        },
        {
          "internalType": "uint256",
          "name": "r1",
          "type": "uint256"
        },
        {
          "internalType": "bool",
          "name": "st",
          "type": "bool"
        },
        {
          "internalType": "address",
          "name": "t0",
          "type": "address"
        },
        {
          "internalType": "address",
          "name": "t1",
          "type": "address"
        }
      ],
      "stateMutability": "view",
      "type": "function"
    },
    {
      "inputs": [
        {
          "internalType": "address",
          "name": "to",
          "type": "address"
        }
      ],
      "name": "mint",
      "outputs": [
        {
          "internalType": "uint256",
          "name": "liquidity",
          "type": "uint256"
        }
      ],
      "stateMutability": "nonpayable",
      "type": "function"
    },
    {
      "inputs": [],
      "name": "name",
      "outputs": [
        {
          "internalType": "string",
          "name": "",
          "type": "string"
        }
      ],
      "stateMutability": "view",
      "type": "function"
    },
    {
      "inputs": [
        {
          "internalType": "address",
          "name": "owner",
          "type": "address"
        }
      ],
      "name": "nonces",
      "outputs": [
        {
          "internalType": "uint256",
          "name": "",
          "type": "uint256"
        }
      ],
      "stateMutability": "view",
      "type": "function"
    },
    {
      "inputs": [],
      "name": "observationLength",
      "outputs": [
        {
          "internalType": "uint256",
          "name": "",
          "type": "uint256"
        }
      ],
      "stateMutability": "view",
      "type": "function"
    },
    {
      "inputs": [
        {
          "internalType": "uint256",
          "name": "",
          "type": "uint256"
        }
      ],
      "name": "observations",
      "outputs": [
        {
          "internalType": "uint256",
          "name": "timestamp",
          "type": "uint256"
        },
        {
          "internalType": "uint256",
          "name": "reserve0Cumulative",
          "type": "uint256"
        },
        {
          "internalType": "uint256",
          "name": "reserve1Cumulative",
          "type": "uint256"
        }
      ],
      "stateMutability": "view",
      "type": "function"
    },
    {
      "inputs": [],
      "name": "periodSize",
      "outputs": [
        {
          "internalType": "uint256",
          "name": "",
          "type": "uint256"
        }
      ],
      "stateMutability": "view",
      "type": "function"
    },
    {
      "inputs": [
        {
          "internalType": "address",
          "name": "owner",
          "type": "address"
        },
        {
          "internalType": "address",
          "name": "spender",
          "type": "address"
        },
        {
          "internalType": "uint256",
          "name": "value",
          "type": "uint256"
        },
        {
          "internalType": "uint256",
          "name": "deadline",
          "type": "uint256"
        },
        {
          "internalType": "uint8",
          "name": "v",
          "type": "uint8"
        },
        {
          "internalType": "bytes32",
          "name": "r",
          "type": "bytes32"
        },
        {
          "internalType": "bytes32",
          "name": "s",
          "type": "bytes32"
        }
      ],
      "name": "permit",
      "outputs": [],
      "stateMutability": "nonpayable",
      "type": "function"
    },
    {
      "inputs": [],
      "name": "poolFees",
      "outputs": [
        {
          "internalType": "address",
          "name": "",
          "type": "address"
        }
      ],
      "stateMutability": "view",
      "type": "function"
    },
    {
      "inputs": [
        {
          "internalType": "address",
          "name": "tokenIn",
          "type": "address"
        },
        {
          "internalType": "uint256",
          "name": "amountIn",
          "type": "uint256"
        },
        {
          "internalType": "uint256",
          "name": "points",
          "type": "uint256"
        }
      ],
      "name": "prices",
      "outputs": [
        {
          "internalType": "uint256[]",
          "name": "",
          "type": "uint256[]"
        }
      ],
      "stateMutability": "view",
      "type": "function"
    },
    {
      "inputs": [
        {
          "internalType": "address",
          "name": "tokenIn",
          "type": "address"
        },
        {
          "internalType": "uint256",
          "name": "amountIn",
          "type": "uint256"
        },
        {
          "internalType": "uint256",
          "name": "granularity",
          "type": "uint256"
        }
      ],
      "name": "quote",
      "outputs": [
        {
          "internalType": "uint256",
          "name": "amountOut",
          "type": "uint256"
        }
      ],
      "stateMutability": "view",
      "type": "function"
    },
    {
      "inputs": [],
      "name": "reserve0",
      "outputs": [
        {
          "internalType": "uint256",
          "name": "",
          "type": "uint256"
        }
      ],
      "stateMutability": "view",
      "type": "function"
    },
    {
      "inputs": [],
      "name": "reserve0CumulativeLast",
      "outputs": [
        {
          "internalType": "uint256",
          "name": "",
          "type": "uint256"
        }
      ],
      "stateMutability": "view",
      "type": "function"
    },
    {
      "inputs": [],
      "name": "reserve1",
      "outputs": [
        {
          "internalType": "uint256",
          "name": "",
          "type": "uint256"
        }
      ],
      "stateMutability": "view",
      "type": "function"
    },
    {
      "inputs": [],
      "name": "reserve1CumulativeLast",
      "outputs": [
        {
          "internalType": "uint256",
          "name": "",
          "type": "uint256"
        }
      ],
      "stateMutability": "view",
      "type": "function"
    },
    {
      "inputs": [
        {
          "internalType": "address",
          "name": "tokenIn",
          "type": "address"
        },
        {
          "internalType": "uint256",
          "name": "amountIn",
          "type": "uint256"
        },
        {
          "internalType": "uint256",
          "name": "points",
          "type": "uint256"
        },
        {
          "internalType": "uint256",
          "name": "window",
          "type": "uint256"
        }
      ],
      "name": "sample",
      "outputs": [
        {
          "internalType": "uint256[]",
          "name": "",
          "type": "uint256[]"
        }
      ],
      "stateMutability": "view",
      "type": "function"
    },
    {
      "inputs": [
        {
          "internalType": "string",
          "name": "__name",
          "type": "string"
        }
      ],
      "name": "setName",
      "outputs": [],
      "stateMutability": "nonpayable",
      "type": "function"
    },
    {
      "inputs": [
        {
          "internalType": "string",
          "name": "__symbol",
          "type": "string"
        }
      ],
      "name": "setSymbol",
      "outputs": [],
      "stateMutability": "nonpayable",
      "type": "function"
    },
    {
      "inputs": [
        {
          "internalType": "address",
          "name": "to",
          "type": "address"
        }
      ],
      "name": "skim",
      "outputs": [],
      "stateMutability": "nonpayable",
      "type": "function"
    },
    {
      "inputs": [],
      "name": "stable",
      "outputs": [
        {
          "internalType": "bool",
          "name": "",
          "type": "bool"
        }
      ],
      "stateMutability": "view",
      "type": "function"
    },
    {
      "inputs": [
        {
          "internalType": "address",
          "name": "",
          "type": "address"
        }
      ],
      "name": "supplyIndex0",
      "outputs": [
        {
          "internalType": "uint256",
          "name": "",
          "type": "uint256"
        }
      ],
      "stateMutability": "view",
      "type": "function"
    },
    {
      "inputs": [
        {
          "internalType": "address",
          "name": "",
          "type": "address"
        }
      ],
      "name": "supplyIndex1",
      "outputs": [
        {
          "internalType": "uint256",
          "name": "",
          "type": "uint256"
        }
      ],
      "stateMutability": "view",
      "type": "function"
    },
    {
      "inputs": [
        {
          "internalType": "uint256",
          "name": "amount0Out",
          "type": "uint256"
        },
        {
          "internalType": "uint256",
          "name": "amount1Out",
          "type": "uint256"
        },
        {
          "internalType": "address",
          "name": "to",
          "type": "address"
        },
        {
          "internalType": "bytes",
          "name": "data",
          "type": "bytes"
        }
      ],
      "name": "swap",
      "outputs": [],
      "stateMutability": "nonpayable",
      "type": "function"
    },
    {
      "inputs": [],
      "name": "symbol",
      "outputs": [
        {
          "internalType": "string",
          "name": "",
          "type": "string"
        }
      ],
      "stateMutability": "view",
      "type": "function"
    },
    {
      "inputs": [],
      "name": "sync",
      "outputs": [],
      "stateMutability": "nonpayable",
      "type": "function"
    },
    {
      "inputs": [],
      "name": "token0",
      "outputs": [
        {
          "internalType": "address",
          "name": "",
          "type": "address"
        }
      ],
      "stateMutability": "view",
      "type": "function"
    },
    {
      "inputs": [],
      "name": "token1",
      "outputs": [
        {
          "internalType": "address",
          "name": "",
          "type": "address"
        }
      ],
      "stateMutability": "view",
      "type": "function"
    },
    {
      "inputs": [],
      "name": "tokens",
      "outputs": [
        {
          "internalType": "address",
          "name": "",
          "type": "address"
        },
        {
          "internalType": "address",
          "name": "",
          "type": "address"
        }
      ],
      "stateMutability": "view",
      "type": "function"
    },
    {
      "inputs": [],
      "name": "totalSupply",
      "outputs": [
        {
          "internalType": "uint256",
          "name": "",
          "type": "uint256"
        }
      ],
      "stateMutability": "view",
      "type": "function"
    },
    {
      "inputs": [
        {
          "internalType": "address",
          "name": "to",
          "type": "address"
        },
        {
          "internalType": "uint256",
          "name": "value",
          "type": "uint256"
        }
      ],
      "name": "transfer",
      "outputs": [
        {
          "internalType": "bool",
          "name": "",
          "type": "bool"
        }
      ],
      "stateMutability": "nonpayable",
      "type": "function"
    },
    {
      "inputs": [
        {
          "internalType": "address",
          "name": "from",
          "type": "address"
        },
        {
          "internalType": "address",
          "name": "to",
          "type": "address"
        },
        {
          "internalType": "uint256",
          "name": "value",
          "type": "uint256"
        }
      ],
      "name": "transferFrom",
      "outputs": [
        {
          "internalType": "bool",
          "name": "",
          "type": "bool"
        }
      ],
      "stateMutability": "nonpayable",
      "type": "function"
    }
  ],
  "bytecode": "0x610160604052600060185560006019553480156200001c57600080fd5b50604080516020808201835260008083528351808501855260018152603160f81b818401528451808401865282815285519384019095529082529192839291600362000069838262000268565b50600462000078828262000268565b506200008a915083905060056200013e565b610120526200009b8160066200013e565b61014052815160208084019190912060e052815190820120610100524660a0526200012960e05161010051604080517f8b73c3c69bb8fe3d512ecc4cf759cc79239f7b179b0ffacaa9a75d522b39400f60208201529081019290925260608201524660808201523060a082015260009060c00160405160208183030381529060405280519060200120905090565b60805250503060c052506001600855620003a9565b60006020835110156200015e57620001568362000177565b905062000171565b816200016b848262000268565b5060ff90505b92915050565b600080829050601f81511115620001ae578260405163305a27a960e01b8152600401620001a5919062000334565b60405180910390fd5b8051620001bb8262000384565b179392505050565b634e487b7160e01b600052604160045260246000fd5b600181811c90821680620001ee57607f821691505b6020821081036200020f57634e487b7160e01b600052602260045260246000fd5b50919050565b601f8211156200026357600081815260208120601f850160051c810160208610156200023e5750805b601f850160051c820191505b818110156200025f578281556001016200024a565b5050505b505050565b81516001600160401b03811115620002845762000284620001c3565b6200029c81620002958454620001d9565b8462000215565b602080601f831160018114620002d45760008415620002bb5750858301515b600019600386901b1c1916600185901b1785556200025f565b600085815260208120601f198616915b828110156200030557888601518255948401946001909101908401620002e4565b5085821015620003245787850151600019600388901b60f8161c191681555b5050505050600190811b01905550565b600060208083528351808285015260005b81811015620003635785810183015185820160400152820162000345565b506000604082860101526040601f19601f8301168501019250505092915050565b805160208083015191908110156200020f5760001960209190910360031b1b16919050565b60805160a05160c05160e051610100516101205161014051614ff162000404600039600061333a0152600061330b01526000612eb101526000612e8901526000612de101526000612e0c01526000612e370152614ff16000f3fe60806040523480156200001157600080fd5b5060043610620002fd5760003560e01c806389afcb44116200019d578063c45a015511620000eb578063dd62ed3e116200009e578063dd62ed3e1462000754578063e4463eb2146200076b578063e4bbb5a81462000775578063ebeb31db146200078c578063ee39e7a01462000795578063f140a35a146200079f578063fff6cae914620007b657600080fd5b8063c45a015514620006ea578063c47f002714620006fe578063c5700a021462000715578063d21220a7146200071f578063d294f0931462000733578063d505accf146200073d57600080fd5b8063a1ac4d131162000150578063a1ac4d131462000664578063a9059cbb1462000687578063b84c8246146200069e578063bc25cf7714620006b5578063bda39cad14620006cc578063bf944dbc14620006d6578063c245febc14620006e057600080fd5b806389afcb4414620005a45780638a7b8cf214620005d157806395d89b4114620005fe5780639d63848a14620006085780639e8cc04b146200062a5780639f767c88146200064157600080fd5b8063313ce567116200025b5780634d5a9f8a116200020e5780634d5a9f8a14620004fc5780635881c475146200051f5780635a76f25e14620005365780636a627842146200054057806370a0823114620005575780637ecebe00146200056e57806384b0196e146200058557600080fd5b8063313ce567146200045757806332c0defd14620004675780633358095914620004715780633644e5151462000485578063392f37e9146200048f578063443cb4bc14620004f257600080fd5b806318160ddd11620002b457806318160ddd14620003d45780631df8c71714620003e7578063205aabf114620003f157806322be3de1146200041457806323b872dd1462000429578063252c09d7146200044057600080fd5b8063022c0d9f146200030257806306fdde03146200031b5780630902f1ac146200033d578063095ea7b314620003635780630dfe1681146200038b57806313345fe114620003ae575b600080fd5b620003196200031336600462003f90565b620007c0565b005b6200032562000e66565b60405162000334919062004053565b60405180910390f35b6013546014546015545b6040805193845260208401929092529082015260600162000334565b6200037a6200037436600462004068565b62000f00565b604051901515815260200162000334565b600c546200039f906001600160a01b031681565b60405162000334919062004097565b620003c5620003bf366004620040ab565b62000f1c565b60405162000334919062004126565b6002545b60405190815260200162000334565b6200034762001148565b620003d8620004023660046200413b565b601b6020526000908152604090205481565b600b546200037a90600160a01b900460ff1681565b6200037a6200043a3660046200415b565b620011c3565b6200034762000451366004620041a1565b620011ed565b6040516012815260200162000334565b620003d860185481565b600e546200039f906001600160a01b031681565b620003d862001221565b601154601254601354601454600b54600c54600d54604080519788526020880196909652948601939093526060850191909152600160a01b900460ff16151560808401526001600160a01b0390811660a08401521660c082015260e00162000334565b620003d860135481565b620003d86200050d3660046200413b565b601c6020526000908152604090205481565b620003c562000530366004620041bb565b62001232565b620003d860145481565b620003d8620005513660046200413b565b62001243565b620003d8620005683660046200413b565b620015aa565b620003d86200057f3660046200413b565b620015c5565b6200058f620015e4565b604051620003349796959493929190620041f3565b620005bb620005b53660046200413b565b6200162e565b6040805192835260208301919091520162000334565b620005db62001946565b604080518251815260208084015190820152918101519082015260600162000334565b62000325620019cc565b600c54600d5460405162000334926001600160a01b0390811692169062004269565b620003d86200063b366004620041bb565b620019dd565b620003d8620006523660046200413b565b601a6020526000908152604090205481565b620003d8620006753660046200413b565b601d6020526000908152604090205481565b6200037a6200069836600462004068565b62001a5b565b62000319620006af36600462004283565b62001a6b565b62000319620006c63660046200413b565b62001b2b565b620003d860195481565b620003d860165481565b620003d860175481565b600f546200039f906001600160a01b031681565b620003196200070f36600462004283565b62001c84565b620003d860155481565b600d546200039f906001600160a01b031681565b620005bb62001d3f565b620003196200074e366004620042d8565b62001e64565b620003d86200076536600462004350565b62001f9f565b620003d861070881565b62000319620007863660046200439d565b62001fca565b601054620003d8565b620003d86200246e565b620003d8620007b0366004620043ef565b6200249a565b620003196200256a565b620007ca6200267c565b600f60009054906101000a90046001600160a01b03166001600160a01b031663b187bd266040518163ffffffff1660e01b8152600401602060405180830381865afa1580156200081e573d6000803e3d6000fd5b505050506040513d601f19601f8201168201806040525081019062000844919062004417565b156200086357604051631309a56360e01b815260040160405180910390fd5b8415801562000870575083155b156200088f576040516342301c2360e01b815260040160405180910390fd5b6013546014548187101580620008a55750808610155b15620008c45760405163bb55fd2760e01b815260040160405180910390fd5b600c54600d5460009182916001600160a01b0391821691908116908916821480620009005750806001600160a01b0316896001600160a01b0316145b156200091f57604051630521f43160e31b815260040160405180910390fd5b8a156200093c576200093c6001600160a01b0383168a8d620026a7565b89156200095957620009596001600160a01b0382168a8c620026a7565b8615620009cb57604051639a7bff7960e01b81526001600160a01b038a1690639a7bff7990620009969033908f908f908e908e9060040162004437565b600060405180830381600087803b158015620009b157600080fd5b505af1158015620009c6573d6000803e3d6000fd5b505050505b6040516370a0823160e01b81526001600160a01b038316906370a0823190620009f990309060040162004097565b602060405180830381865afa15801562000a17573d6000803e3d6000fd5b505050506040513d601f19601f8201168201806040525081019062000a3d919062004483565b6040516370a0823160e01b81529094506001600160a01b038216906370a082319062000a6e90309060040162004097565b602060405180830381865afa15801562000a8c573d6000803e3d6000fd5b505050506040513d601f19601f8201168201806040525081019062000ab2919062004483565b925050506000898562000ac69190620044b3565b831162000ad557600062000aed565b62000ae18a86620044b3565b62000aed9084620044b3565b9050600062000afd8a86620044b3565b831162000b0c57600062000b24565b62000b188a86620044b3565b62000b249084620044b3565b90508115801562000b33575080155b1562000b525760405163098fb56160e01b815260040160405180910390fd5b600c54600d546001600160a01b039182169116831562000c1757600f54600b5460405163cc56b2c560e01b815262000c1792612710926001600160a01b039091169163cc56b2c59162000bb5913091600160a01b900460ff1690600401620044c9565b602060405180830381865afa15801562000bd3573d6000803e3d6000fd5b505050506040513d601f19601f8201168201806040525081019062000bf9919062004483565b62000c059087620044e4565b62000c11919062004514565b620026fb565b821562000cc957600f54600b5460405163cc56b2c560e01b815262000cc992612710926001600160a01b039091169163cc56b2c59162000c67913091600160a01b900460ff1690600401620044c9565b602060405180830381865afa15801562000c85573d6000803e3d6000fd5b505050506040513d601f19601f8201168201806040525081019062000cab919062004483565b62000cb79086620044e4565b62000cc3919062004514565b620027b5565b6040516370a0823160e01b81526001600160a01b038316906370a082319062000cf790309060040162004097565b602060405180830381865afa15801562000d15573d6000803e3d6000fd5b505050506040513d601f19601f8201168201806040525081019062000d3b919062004483565b6040516370a0823160e01b81529096506001600160a01b038216906370a082319062000d6c90309060040162004097565b602060405180830381865afa15801562000d8a573d6000803e3d6000fd5b505050506040513d601f19601f8201168201806040525081019062000db0919062004483565b945062000dbe888862002869565b62000dca878762002869565b101562000dea5760405163a932492f60e01b815260040160405180910390fd5b505062000dfa8484888862002988565b60408051838152602081018390528082018d9052606081018c905290516001600160a01b038b169133917fb3e2773606abfd36b5bd91394b3a54d1398336c65005baf7bf7a05efeffaf75b9181900360800190a350505050505062000e5f6001600855565b5050505050565b60606009805462000e779062004537565b80601f016020809104026020016040519081016040528092919081815260200182805462000ea59062004537565b801562000ef65780601f1062000eca5761010080835404028352916020019162000ef6565b820191906000526020600020905b81548152906001019060200180831162000ed857829003601f168201915b5050505050905090565b60003362000f1081858562002b2e565b60019150505b92915050565b60606000836001600160401b0381111562000f3b5762000f3b6200456d565b60405190808252806020026020018201604052801562000f65578160200160208202803683370190505b5060105490915060009062000f7d90600190620044b3565b9050600062000f8d8587620044e4565b62000f999083620044b3565b90506000805b83831015620011385762000fb4878462004583565b915060006010848154811062000fce5762000fce62004599565b9060005260206000209060030201600001546010848154811062000ff65762000ff662004599565b906000526020600020906003020160000154620010149190620044b3565b9050600081601086815481106200102f576200102f62004599565b9060005260206000209060030201600101546010868154811062001057576200105762004599565b906000526020600020906003020160010154620010759190620044b3565b62001081919062004514565b9050600082601087815481106200109c576200109c62004599565b90600052602060002090600302016002015460108781548110620010c457620010c462004599565b906000526020600020906003020160020154620010e29190620044b3565b620010ee919062004514565b9050620010fe8c8e848462002b3d565b88858151811062001113576200111362004599565b602090810291909101015250505060010162001130878462004583565b925062000f9f565b509293505050505b949350505050565b6016546017544260008080620011676013546014546015549192909190565b925092509250838114620011bb576000620011838286620044b3565b9050620011918185620044e4565b6200119d908862004583565b9650620011ab8184620044e4565b620011b7908762004583565b9550505b505050909192565b600033620011d385828562002d12565b620011e085858562002d6d565b60019150505b9392505050565b60108181548110620011fe57600080fd5b600091825260209091206003909102018054600182015460029092015490925083565b60006200122d62002dd4565b905090565b606062001140848484600162000f1c565b60006200124f6200267c565b601354601454600c546040516370a0823160e01b81526000916001600160a01b0316906370a08231906200128890309060040162004097565b602060405180830381865afa158015620012a6573d6000803e3d6000fd5b505050506040513d601f19601f82011682018060405250810190620012cc919062004483565b600d546040516370a0823160e01b81529192506000916001600160a01b03909116906370a08231906200130490309060040162004097565b602060405180830381865afa15801562001322573d6000803e3d6000fd5b505050506040513d601f19601f8201168201806040525081019062001348919062004483565b9050600062001358838662002f02565b9150600090506200136a838662002f02565b91505060006200137960025490565b905080600003620014c257600062001392848462002f2a565b9150506000620013a28262002f7a565b90506000620013b18262002fe7565b90506000620013c082620031eb565b9050620013d0816103e862002f02565b9c50620013e3905060016103e862003274565b600b54600160a01b900460ff1615620014b85760006200140c88670de0b6b3a764000062002f2a565b9150600090506200142688670de0b6b3a764000062002f2a565b91505060006200144260115484620032b390919063ffffffff16565b91505060006200145e60125484620032b390919063ffffffff16565b91505080821462001482576040516305026bfd60e11b815260040160405180910390fd5b6402540be400620014948c8c62002869565b11620014b3576040516321c69d6f60e11b815260040160405180910390fd5b505050505b505050506200151c565b6000620014d0848362002f2a565b915060009050620014e2848462002f2a565b915060009050620014f4838b620032b3565b91506000905062001506838b620032b3565b915050620015158282620032eb565b9b50505050505b876000036200153e57604051633489be7560e21b815260040160405180910390fd5b6200154a898962003274565b620015588585898962002988565b604080518481526020810184905233917f4c209b5fc8ad50758f13e2e1088ba56a560dff690a1c6fef26394f4c03821c4f910160405180910390a250505050505050620015a56001600855565b919050565b6001600160a01b031660009081526020819052604090205490565b6001600160a01b03811660009081526007602052604081205462000f16565b600060608060008060006060620015fa62003303565b6200160462003332565b60408051600080825260208201909252600f60f81b9b939a50919850469750309650945092509050565b6000806200163b6200267c565b601354601454600c54600d546040516370a0823160e01b81526001600160a01b03928316929091169060009083906370a08231906200167f90309060040162004097565b602060405180830381865afa1580156200169d573d6000803e3d6000fd5b505050506040513d601f19601f82011682018060405250810190620016c3919062004483565b90506000826001600160a01b03166370a08231306040518263ffffffff1660e01b8152600401620016f5919062004097565b602060405180830381865afa15801562001713573d6000803e3d6000fd5b505050506040513d601f19601f8201168201806040525081019062001739919062004483565b905060006200174830620015aa565b905060006200175660025490565b905080620017658584620044e4565b62001771919062004514565b995080620017808484620044e4565b6200178c919062004514565b98508915806200179a575088155b15620017b95760405163749383ad60e01b815260040160405180910390fd5b620017c5308362003361565b620017db6001600160a01b0387168c8c620026a7565b620017f16001600160a01b0386168c8b620026a7565b6040516370a0823160e01b81526001600160a01b038716906370a08231906200181f90309060040162004097565b602060405180830381865afa1580156200183d573d6000803e3d6000fd5b505050506040513d601f19601f8201168201806040525081019062001863919062004483565b6040516370a0823160e01b81529094506001600160a01b038616906370a08231906200189490309060040162004097565b602060405180830381865afa158015620018b2573d6000803e3d6000fd5b505050506040513d601f19601f82011682018060405250810190620018d8919062004483565b9250620018e884848a8a62002988565b604080518b8152602081018b90526001600160a01b038d169133917f5d624aa9c148153ab3446c1b154f660ee7701e549fe9b62dab7171b1c80e6fa2910160405180910390a35050505050505050620019416001600855565b915091565b6200196b60405180606001604052806000815260200160008152602001600081525090565b601080546200197d90600190620044b3565b8154811062001990576200199062004599565b90600052602060002090600302016040518060600160405290816000820154815260200160018201548152602001600282015481525050905090565b6060600a805462000e779062004537565b600080620019ef858585600162000f1c565b8051909150600090815b8181101562001a435783818151811062001a175762001a1762004599565b60200260200101518362001a2c919062004583565b92508062001a3a81620045af565b915050620019f9565b5062001a50858362004514565b979650505050505050565b60003362000f1081858562002d6d565b600b60009054906101000a90046001600160a01b03166001600160a01b0316637778960e6040518163ffffffff1660e01b8152600401602060405180830381865afa15801562001abf573d6000803e3d6000fd5b505050506040513d601f19601f8201168201806040525081019062001ae59190620045cb565b6001600160a01b0316336001600160a01b03161462001b175760405163c560129360e01b815260040160405180910390fd5b600a62001b2682848362004652565b505050565b62001b356200267c565b600c54600d546013546040516370a0823160e01b81526001600160a01b03938416939092169162001bdc91859185906370a082319062001b7a90309060040162004097565b602060405180830381865afa15801562001b98573d6000803e3d6000fd5b505050506040513d601f19601f8201168201806040525081019062001bbe919062004483565b62001bca9190620044b3565b6001600160a01b0385169190620026a7565b62001c7483601454836001600160a01b03166370a08231306040518263ffffffff1660e01b815260040162001c12919062004097565b602060405180830381865afa15801562001c30573d6000803e3d6000fd5b505050506040513d601f19601f8201168201806040525081019062001c56919062004483565b62001c629190620044b3565b6001600160a01b0384169190620026a7565b505062001c816001600855565b50565b600b60009054906101000a90046001600160a01b03166001600160a01b0316637778960e6040518163ffffffff1660e01b8152600401602060405180830381865afa15801562001cd8573d6000803e3d6000fd5b505050506040513d601f19601f8201168201806040525081019062001cfe9190620045cb565b6001600160a01b0316336001600160a01b03161462001d305760405163c560129360e01b815260040160405180910390fd5b600962001b2682848362004652565b6000803362001d4e816200339c565b6001600160a01b0381166000908152601c6020908152604080832054601d9092529091205490935091508215158062001d875750600082115b1562001e5f576001600160a01b038082166000908152601c60209081526040808320839055601d90915280822091909155600e54905163299e7ae760e11b815291169063533cf5ce9062001de4908490879087906004016200471a565b600060405180830381600087803b15801562001dff57600080fd5b505af115801562001e14573d6000803e3d6000fd5b505060408051868152602081018690526001600160a01b03851693508392507f865ca08d59f5cb456e85cd2f7ef63664ea4f73327414e9d8152c4158b0e94645910160405180910390a35b509091565b8342111562001e8e5760405163313c898160e11b8152600481018590526024015b60405180910390fd5b60007f6e71edae12b1b97f4d1f60370fef10105fa2faae0126114a169c64845d6126c988888862001edc8c6001600160a01b0316600090815260076020526040902080546001810190915590565b6040805160208101969096526001600160a01b0394851690860152929091166060840152608083015260a082015260c0810186905260e001604051602081830303815290604052805190602001209050600062001f398262003505565b9050600062001f4b8287878762003535565b9050896001600160a01b0316816001600160a01b03161462001f8657808a6040516325c0072360e11b815260040162001e8592919062004269565b62001f938a8a8a62002b2e565b50505050505050505050565b6001600160a01b03918216600090815260016020908152604080832093909416825291909152205490565b600f546001600160a01b03161562001ff5576040516302a98a3760e31b815260040160405180910390fd5b600f80546001600160a01b03191633908117909155604080516311b25aab60e21b815290516346c96aac916004808201926020929091908290030181865afa15801562002046573d6000803e3d6000fd5b505050506040513d601f19601f820116820180604052508101906200206c9190620045cb565b600b80546001600160a01b039283166001600160a81b031990911617600160a01b84151502179055600d80546001600160a01b031990811685841617909155600c805490911691851691909117905560405183908390620020cd9062003f28565b620020da92919062004269565b604051809103906000f080158015620020f7573d6000803e3d6000fd5b50600e60006101000a8154816001600160a01b0302191690836001600160a01b031602179055506000836001600160a01b03166395d89b416040518163ffffffff1660e01b8152600401600060405180830381865afa1580156200215f573d6000803e3d6000fd5b505050506040513d6000823e601f3d908101601f191682016040526200218991908101906200473b565b90506000836001600160a01b03166395d89b416040518163ffffffff1660e01b8152600401600060405180830381865afa158015620021cc573d6000803e3d6000fd5b505050506040513d6000823e601f3d908101601f19168201604052620021f691908101906200473b565b905082156200226f57818160405160200162002214929190620047e8565b6040516020818303038152906040526009908162002233919062004841565b5081816040516020016200224992919062004909565b604051602081830303815290604052600a908162002268919062004841565b50620022da565b8181604051602001620022849291906200495a565b60405160208183030381529060405260099081620022a3919062004841565b508181604051602001620022b9929190620049b5565b604051602081830303815290604052600a9081620022d8919062004841565b505b846001600160a01b031663313ce5676040518163ffffffff1660e01b8152600401602060405180830381865afa15801562002319573d6000803e3d6000fd5b505050506040513d601f19601f820116820180604052508101906200233f9190620049d7565b6200234c90600a62004af4565b601181905550836001600160a01b031663313ce5676040518163ffffffff1660e01b8152600401602060405180830381865afa15801562002391573d6000803e3d6000fd5b505050506040513d601f19601f82011682018060405250810190620023b79190620049d7565b620023c490600a62004af4565b60125550506040805160608101825242815260006020820181815292820181815260108054600181018255925291517f1b6847dc741a1b0cd08d278845f9d819d87b734759afb55fe2de5cb82a9ae67260039092029182015591517f1b6847dc741a1b0cd08d278845f9d819d87b734759afb55fe2de5cb82a9ae673830155517f1b6847dc741a1b0cd08d278845f9d819d87b734759afb55fe2de5cb82a9ae67490910155505050565b60006200247a6200267c565b6200248a60135460145462002869565b9050620024976001600855565b90565b601354601454600f54600b5460405163cc56b2c560e01b81526000949392612710926001600160a01b039091169163cc56b2c591620024e9913091600160a01b900460ff1690600401620044c9565b602060405180830381865afa15801562002507573d6000803e3d6000fd5b505050506040513d601f19601f820116820180604052508101906200252d919062004483565b620025399087620044e4565b62002545919062004514565b620025519086620044b3565b9450620025618585848462002b3d565b95945050505050565b620025746200267c565b600c546040516370a0823160e01b81526200266f916001600160a01b0316906370a0823190620025a990309060040162004097565b602060405180830381865afa158015620025c7573d6000803e3d6000fd5b505050506040513d601f19601f82011682018060405250810190620025ed919062004483565b600d546040516370a0823160e01b81526001600160a01b03909116906370a08231906200261f90309060040162004097565b602060405180830381865afa1580156200263d573d6000803e3d6000fd5b505050506040513d601f19601f8201168201806040525081019062002663919062004483565b60135460145462002988565b6200267a6001600855565b565b600260085403620026a057604051633ee5aeb560e01b815260040160405180910390fd5b6002600855565b604080516001600160a01b038416602482015260448082018490528251808303909101815260649091019091526020810180516001600160e01b031663a9059cbb60e01b17905262001b2690849062003567565b80600003620027075750565b600e54600c5462002726916001600160a01b03918216911683620026a7565b60006200273260025490565b6200274683670de0b6b3a7640000620044e4565b62002752919062004514565b90508015620027755780601860008282546200276f919062004583565b90915550505b604080518381526000602082015233917f112c256902bf554b6ed882d2936687aaeb4225e8cd5b51303c90ca6cf43a860291015b60405180910390a25050565b80600003620027c15750565b600e54600d54620027e0916001600160a01b03918216911683620026a7565b6000620027ec60025490565b6200280083670de0b6b3a7640000620044e4565b6200280c919062004514565b905080156200282f57806019600082825462002829919062004583565b90915550505b60408051600081526020810184905233917f112c256902bf554b6ed882d2936687aaeb4225e8cd5b51303c90ca6cf43a86029101620027a9565b600b54600090600160a01b900460ff161562002974576011546000906200289985670de0b6b3a7640000620044e4565b620028a5919062004514565b9050600060125484670de0b6b3a7640000620028c29190620044e4565b620028ce919062004514565b90506000670de0b6b3a7640000620028e78385620044e4565b620028f3919062004514565b90506000670de0b6b3a76400006200290c8480620044e4565b62002918919062004514565b670de0b6b3a76400006200292d8680620044e4565b62002939919062004514565b62002945919062004583565b9050670de0b6b3a76400006200295c8284620044e4565b62002968919062004514565b94505050505062000f16565b620029808284620044e4565b905062000f16565b60155442906000906200299c9083620044b3565b9050600081118015620029ae57508315155b8015620029ba57508215155b1562002a0a57620029cc8185620044e4565b60166000828254620029df919062004583565b90915550620029f190508184620044e4565b6017600082825462002a04919062004583565b90915550505b600062002a1662001946565b805190915062002a279084620044b3565b915061070882111562002add5760408051606081018252848152601654602082019081526017549282019283526010805460018101825560009190915291517f1b6847dc741a1b0cd08d278845f9d819d87b734759afb55fe2de5cb82a9ae672600390930292830155517f1b6847dc741a1b0cd08d278845f9d819d87b734759afb55fe2de5cb82a9ae67382015590517f1b6847dc741a1b0cd08d278845f9d819d87b734759afb55fe2de5cb82a9ae674909101555b60138790556014869055601583905560408051888152602081018890527fcf2aa50876cdfbb541206f89af0ee78d44a2abf8d328e37fa4917f982149848a910160405180910390a150505050505050565b62001b268383836001620035c9565b600b54600090600160a01b900460ff161562002cb957600062002b61848462002869565b60115490915062002b7b85670de0b6b3a7640000620044e4565b62002b87919062004514565b60125490945062002ba184670de0b6b3a7640000620044e4565b62002bad919062004514565b600c5490935060009081906001600160a01b0388811691161462002bd357848662002bd6565b85855b600c5491935091506001600160a01b0388811691161462002c1a5760125462002c0889670de0b6b3a7640000620044e4565b62002c14919062004514565b62002c3d565b60115462002c3189670de0b6b3a7640000620044e4565b62002c3d919062004514565b9750600062002c5962002c51848b62004583565b8584620036a6565b62002c659083620044b3565b600c54909150670de0b6b3a7640000906001600160a01b038a811691161462002c915760115462002c95565b6012545b62002ca19083620044e4565b62002cad919062004514565b94505050505062001140565b600c5460009081906001600160a01b0387811691161462002cdc57838562002cdf565b84845b909250905062002cf0878362004583565b62002cfc8289620044e4565b62002d08919062004514565b9250505062001140565b600062002d20848462001f9f565b9050600019811462002d67578181101562002d5657828183604051637dc7a0d960e11b815260040162001e85939291906200471a565b62002d6784848484036000620035c9565b50505050565b6001600160a01b03831662002d9a576000604051634b637e8f60e11b815260040162001e85919062004097565b6001600160a01b03821662002dc757600060405163ec442f0560e01b815260040162001e85919062004097565b62001b268383836200384c565b6000306001600160a01b037f00000000000000000000000000000000000000000000000000000000000000001614801562002e2e57507f000000000000000000000000000000000000000000000000000000000000000046145b1562002e5957507f000000000000000000000000000000000000000000000000000000000000000090565b6200122d604080517f8b73c3c69bb8fe3d512ecc4cf759cc79239f7b179b0ffacaa9a75d522b39400f60208201527f0000000000000000000000000000000000000000000000000000000000000000918101919091527f000000000000000000000000000000000000000000000000000000000000000060608201524660808201523060a082015260009060c00160405160208183030381529060405280519060200120905090565b6000808383111562002f1a5750600090508062002f23565b50600190508183035b9250929050565b6000808360000362002f43575060019050600062002f23565b8383028385828162002f595762002f59620044fe565b041462002f6e57600080925092505062002f23565b60019590945092505050565b60008160000362002f8d57506000919050565b81600062002f9b826200396d565b9050607081101562002fb6578060700382901b915062002fca565b607081111562002fca576070810382901c91505b613fff0160701b6001600160701b03919091161760801b92915050565b60006001607f1b608083901c111562003006575061ffff60ef1b919050565b617fff60f083901c81169081900362003020575090919050565b6001600160701b03608084901c16600082900362003042576001915062003049565b600160701b175b806000036200305c575060009392505050565b613fff8201600190811c9216158015620030b457600160701b82106200308957607182901b9150620030f3565b600062003096836200396d565b60e20360fe16606f19810160011c909403939290921b9150620030f3565b600160701b8210620030cd57607082901b9150620030f3565b6000620030da836200396d565b60e10360fe16606f19810160011c909403939290921b91505b600160701b80830401600190811c90818481620031145762003114620044fe565b048201901c905060018184816200312f576200312f620044fe565b048201901c905060018184816200314a576200314a620044fe565b048201901c90506001818481620031655762003165620044fe565b048201901c90506001818481620031805762003180620044fe565b048201901c905060018184816200319b576200319b620044fe565b048201901c90506000818481620031b657620031b6620044fe565b04905081811015620031c6578091505b816001600160701b0316607086901b1760801b95505050505050919050565b50919050565b6000617fff60f083901c16613fff8110156200320a5750600092915050565b6001607f1b608084901c106200321f57600080fd5b6140fe8111156200322f57600080fd5b600160701b6001600160701b03608085901c161761406f8210156200325b5761406f8290031c620011e6565b61406f821115620011e65761406e1982011b9392505050565b6001600160a01b038216620032a157600060405163ec442f0560e01b815260040162001e85919062004097565b620032af600083836200384c565b5050565b60008082600003620032cb5750600090508062002f23565b6001838581620032df57620032df620044fe565b04915091509250929050565b6000818310620032fc5781620011e6565b5090919050565b60606200122d7f0000000000000000000000000000000000000000000000000000000000000000600562003a14565b60606200122d7f0000000000000000000000000000000000000000000000000000000000000000600662003a14565b6001600160a01b0382166200338e576000604051634b637e8f60e11b815260040162001e85919062004097565b620032af826000836200384c565b6000620033a982620015aa565b90508015620034d3576001600160a01b0382166000908152601a602090815260408083208054601b8085529285208054601854601954948190559490955282905593620033f78584620044b3565b90506000620034078584620044b3565b9050811562003469576000670de0b6b3a764000062003427848a620044e4565b62003433919062004514565b6001600160a01b038a166000908152601c60205260408120805492935083929091906200346290849062004583565b9091555050505b8015620034c9576000670de0b6b3a764000062003487838a620044e4565b62003493919062004514565b6001600160a01b038a166000908152601d6020526040812080549293508392909190620034c290849062004583565b9091555050505b5050505050505050565b6018546001600160a01b0383166000908152601a6020908152604080832093909355601954601b909152919020555050565b600062000f166200351562002dd4565b8360405161190160f01b8152600281019290925260228201526042902090565b600080600080620035498888888862003ac4565b9250925092506200355b828262003b8e565b50909695505050505050565b60006200357e6001600160a01b0384168362003c59565b90508051600014158015620035a6575080806020019051810190620035a4919062004417565b155b1562001b265782604051635274afe760e01b815260040162001e85919062004097565b6001600160a01b038416620035f657600060405163e602df0560e01b815260040162001e85919062004097565b6001600160a01b03831662003623576000604051634a1406b160e11b815260040162001e85919062004097565b6001600160a01b038085166000908152600160209081526040808320938716835292905220829055801562002d6757826001600160a01b0316846001600160a01b03167f8c5be1e5ebec7d5bd14f71427d1e84f3dd0314c0f7b2291e5b200ac8c7c3b925846040516200369891815260200190565b60405180910390a350505050565b6000805b60ff8110156200381d576000620036c2868562003c69565b90508481101562003777576000620036db878662003d02565b620036e78388620044b3565b620036fb90670de0b6b3a7640000620044e4565b62003707919062004514565b90508060000362003762578582036200372657849350505050620011e6565b856200373f886200373988600162004583565b62002869565b11156200375e576200375385600162004583565b9350505050620011e6565b5060015b6200376e818662004583565b94505062003807565b600062003785878662003d02565b620037918784620044b3565b620037a590670de0b6b3a7640000620044e4565b620037b1919062004514565b905080600003620037f75785821480620037e1575085620037df88620037d9600189620044b3565b62003c69565b105b15620037f357849350505050620011e6565b5060015b620038038186620044b3565b9450505b50806200381481620045af565b915050620036aa565b5060405162461bcd60e51b8152602060048201526002602482015261217960f01b604482015260640162001e85565b6001600160a01b0383166200387b5780600260008282546200386f919062004583565b90915550620038dd9050565b6001600160a01b03831660009081526020819052604090205481811015620038be5783818360405163391434e360e21b815260040162001e85939291906200471a565b6001600160a01b03841660009081526020819052604090209082900390555b6001600160a01b038216620038fb576002805482900390556200391a565b6001600160a01b03821660009081526020819052604090208054820190555b816001600160a01b0316836001600160a01b03167fddf252ad1be2c89b69c2b068fc378daa952ba7f163c4a11628f55a4df523b3ef836040516200396091815260200190565b60405180910390a3505050565b60008082116200397c57600080fd5b6000600160801b83106200399257608092831c92015b600160401b8310620039a657604092831c92015b6401000000008310620039bb57602092831c92015b620100008310620039ce57601092831c92015b6101008310620039e057600892831c92015b60108310620039f157600492831c92015b6004831062003a0257600292831c92015b6002831062000f165760010192915050565b606060ff831462003a2a57620029808362003d92565b81805462003a389062004537565b80601f016020809104026020016040519081016040528092919081815260200182805462003a669062004537565b801562003ab75780601f1062003a8b5761010080835404028352916020019162003ab7565b820191906000526020600020905b81548152906001019060200180831162003a9957829003601f168201915b5050505050905062000f16565b600080806fa2a8918ca85bafe22016d0b997e4df60600160ff1b0384111562003af7575060009150600390508262003b84565b604080516000808252602082018084528a905260ff891692820192909252606081018790526080810186905260019060a0016020604051602081039080840390855afa15801562003b4c573d6000803e3d6000fd5b5050604051601f1901519150506001600160a01b03811662003b7a5750600092506001915082905062003b84565b9250600091508190505b9450945094915050565b600082600381111562003ba55762003ba562004b05565b0362003baf575050565b600182600381111562003bc65762003bc662004b05565b0362003be55760405163f645eedf60e01b815260040160405180910390fd5b600282600381111562003bfc5762003bfc62004b05565b0362003c1f5760405163fce698f760e01b81526004810182905260240162001e85565b600382600381111562003c365762003c3662004b05565b03620032af576040516335e2f38360e21b81526004810182905260240162001e85565b6060620011e68383600062003dd3565b600080670de0b6b3a764000062003c818486620044e4565b62003c8d919062004514565b90506000670de0b6b3a764000062003ca68580620044e4565b62003cb2919062004514565b670de0b6b3a764000062003cc78780620044e4565b62003cd3919062004514565b62003cdf919062004583565b9050670de0b6b3a764000062003cf68284620044e4565b62002561919062004514565b6000670de0b6b3a7640000838162003d1b8280620044e4565b62003d27919062004514565b62003d339190620044e4565b62003d3f919062004514565b670de0b6b3a76400008062003d558580620044e4565b62003d61919062004514565b62003d6e866003620044e4565b62003d7a9190620044e4565b62003d86919062004514565b620011e6919062004583565b6060600062003da18362003e79565b604080516020808252818301909252919250600091906020820181803683375050509182525060208101929092525090565b60608147101562003dfb573060405163cd78605960e01b815260040162001e85919062004097565b600080856001600160a01b0316848660405162003e19919062004b1b565b60006040518083038185875af1925050503d806000811462003e58576040519150601f19603f3d011682016040523d82523d6000602084013e62003e5d565b606091505b509150915062003e6f86838362003ea2565b9695505050505050565b600060ff8216601f81111562000f1657604051632cd44ac360e21b815260040160405180910390fd5b60608262003ebb5762003eb58262003efe565b620011e6565b815115801562003ed357506001600160a01b0384163b155b1562003ef65783604051639996b31560e01b815260040162001e85919062004097565b5080620011e6565b80511562003f0f5780518082602001fd5b604051630a12f52160e11b815260040160405180910390fd5b6104828062004b3a83390190565b6001600160a01b038116811462001c8157600080fd5b60008083601f84011262003f5f57600080fd5b5081356001600160401b0381111562003f7757600080fd5b60208301915083602082850101111562002f2357600080fd5b60008060008060006080868803121562003fa957600080fd5b8535945060208601359350604086013562003fc48162003f36565b925060608601356001600160401b0381111562003fe057600080fd5b62003fee8882890162003f4c565b969995985093965092949392505050565b60005b838110156200401c57818101518382015260200162004002565b50506000910152565b600081518084526200403f81602086016020860162003fff565b601f01601f19169290920160200192915050565b602081526000620011e6602083018462004025565b600080604083850312156200407c57600080fd5b8235620040898162003f36565b946020939093013593505050565b6001600160a01b0391909116815260200190565b60008060008060808587031215620040c257600080fd5b8435620040cf8162003f36565b966020860135965060408601359560600135945092505050565b600081518084526020808501945080840160005b838110156200411b57815187529582019590820190600101620040fd565b509495945050505050565b602081526000620011e66020830184620040e9565b6000602082840312156200414e57600080fd5b8135620011e68162003f36565b6000806000606084860312156200417157600080fd5b83356200417e8162003f36565b92506020840135620041908162003f36565b929592945050506040919091013590565b600060208284031215620041b457600080fd5b5035919050565b600080600060608486031215620041d157600080fd5b8335620041de8162003f36565b95602085013595506040909401359392505050565b60ff60f81b8816815260e0602082015260006200421460e083018962004025565b828103604084015262004228818962004025565b606084018890526001600160a01b038716608085015260a0840186905283810360c085015290506200425b8185620040e9565b9a9950505050505050505050565b6001600160a01b0392831681529116602082015260400190565b600080602083850312156200429757600080fd5b82356001600160401b03811115620042ae57600080fd5b620042bc8582860162003f4c565b90969095509350505050565b60ff8116811462001c8157600080fd5b600080600080600080600060e0888a031215620042f457600080fd5b8735620043018162003f36565b96506020880135620043138162003f36565b9550604088013594506060880135935060808801356200433381620042c8565b9699959850939692959460a0840135945060c09093013592915050565b600080604083850312156200436457600080fd5b8235620043718162003f36565b91506020830135620043838162003f36565b809150509250929050565b801515811462001c8157600080fd5b600080600060608486031215620043b357600080fd5b8335620043c08162003f36565b92506020840135620043d28162003f36565b91506040840135620043e4816200438e565b809150509250925092565b600080604083850312156200440357600080fd5b823591506020830135620043838162003f36565b6000602082840312156200442a57600080fd5b8151620011e6816200438e565b60018060a01b038616815284602082015283604082015260806060820152816080820152818360a0830137600081830160a090810191909152601f909201601f19160101949350505050565b6000602082840312156200449657600080fd5b5051919050565b634e487b7160e01b600052601160045260246000fd5b8181038181111562000f165762000f166200449d565b6001600160a01b039290921682521515602082015260400190565b808202811582820484141762000f165762000f166200449d565b634e487b7160e01b600052601260045260246000fd5b6000826200453257634e487b7160e01b600052601260045260246000fd5b500490565b600181811c908216806200454c57607f821691505b602082108103620031e557634e487b7160e01b600052602260045260246000fd5b634e487b7160e01b600052604160045260246000fd5b8082018082111562000f165762000f166200449d565b634e487b7160e01b600052603260045260246000fd5b600060018201620045c457620045c46200449d565b5060010190565b600060208284031215620045de57600080fd5b8151620011e68162003f36565b601f82111562001b2657600081815260208120601f850160051c81016020861015620046145750805b601f850160051c820191505b81811015620046355782815560010162004620565b505050505050565b600019600383901b1c191660019190911b1790565b6001600160401b038311156200466c576200466c6200456d565b62004684836200467d835462004537565b83620045eb565b6000601f841160018114620046b75760008515620046a25750838201355b620046ae86826200463d565b84555062000e5f565b600083815260209020601f19861690835b82811015620046ea5786850135825560209485019460019092019101620046c8565b5086821015620047085760001960f88860031b161c19848701351681555b505060018560011b0183555050505050565b6001600160a01b039390931683526020830191909152604082015260600190565b6000602082840312156200474e57600080fd5b81516001600160401b03808211156200476657600080fd5b818401915084601f8301126200477b57600080fd5b8151818111156200479057620047906200456d565b604051601f8201601f19908116603f01168101908382118183101715620047bb57620047bb6200456d565b81604052828152876020848701011115620047d557600080fd5b62001a5083602083016020880162003fff565b6c029ba30b136329020a6a690169609d1b8152600083516200481281600d85016020880162003fff565b602f60f81b600d9184019182015283516200483581600e84016020880162003fff565b01600e01949350505050565b81516001600160401b038111156200485d576200485d6200456d565b62004875816200486e845462004537565b84620045eb565b602080601f831160018114620048a95760008415620048945750858301515b620048a085826200463d565b86555062004635565b600085815260208120601f198616915b82811015620048da57888601518255948401946001909101908401620048b9565b5085821015620048f95787850151600019600388901b60f8161c191681555b5050505050600190811b01905550565b6473414d4d2d60d81b8152600083516200492b81600585016020880162003fff565b602f60f81b60059184019182015283516200494e81600684016020880162003fff565b01600601949350505050565b6e02b37b630ba34b6329020a6a690169608d1b8152600083516200498681600f85016020880162003fff565b602f60f81b600f918401918201528351620049a981601084016020880162003fff565b01601001949350505050565b6476414d4d2d60d81b8152600083516200492b81600585016020880162003fff565b600060208284031215620049ea57600080fd5b8151620011e681620042c8565b600181815b8085111562004a3857816000190482111562004a1c5762004a1c6200449d565b8085161562004a2a57918102915b93841c9390800290620049fc565b509250929050565b60008262004a515750600162000f16565b8162004a605750600062000f16565b816001811462004a79576002811462004a845762004aa4565b600191505062000f16565b60ff84111562004a985762004a986200449d565b50506001821b62000f16565b5060208310610133831016604e8410600b841016171562004ac9575081810a62000f16565b62004ad58383620049f7565b806000190482111562004aec5762004aec6200449d565b029392505050565b6000620011e660ff84168362004a40565b634e487b7160e01b600052602160045260246000fd5b6000825162004b2f81846020870162003fff565b919091019291505056fe60e060405234801561001057600080fd5b5060405161048238038061048283398101604081905261002f91610066565b336080526001600160a01b0391821660a0521660c052610099565b80516001600160a01b038116811461006157600080fd5b919050565b6000806040838503121561007957600080fd5b6100828361004a565b91506100906020840161004a565b90509250929050565b60805160a05160c0516103bd6100c5600039600060db0152600060a101526000605001526103bd6000f3fe608060405234801561001057600080fd5b506004361061002b5760003560e01c8063533cf5ce14610030575b600080fd5b61004361003e3660046102e1565b610045565b005b336001600160a01b037f0000000000000000000000000000000000000000000000000000000000000000161461008e57604051636f61f64160e01b815260040160405180910390fd5b81156100c8576100c86001600160a01b037f0000000000000000000000000000000000000000000000000000000000000000168484610107565b8015610102576101026001600160a01b037f0000000000000000000000000000000000000000000000000000000000000000168483610107565b505050565b604080516001600160a01b03848116602483015260448083018590528351808403909101815260649092019092526020810180516001600160e01b031663a9059cbb60e01b17905261010291859190600090610165908416836101b3565b9050805160001415801561018a5750808060200190518101906101889190610322565b155b156101025782604051635274afe760e01b81526004016101aa9190610344565b60405180910390fd5b60606101c1838360006101c8565b9392505050565b6060814710156101ed573060405163cd78605960e01b81526004016101aa9190610344565b600080856001600160a01b031684866040516102099190610358565b60006040518083038185875af1925050503d8060008114610246576040519150601f19603f3d011682016040523d82523d6000602084013e61024b565b606091505b509150915061025b868383610265565b9695505050505050565b60608261027a57610275826102b8565b6101c1565b815115801561029157506001600160a01b0384163b155b156102b15783604051639996b31560e01b81526004016101aa9190610344565b50806101c1565b8051156102c85780518082602001fd5b604051630a12f52160e11b815260040160405180910390fd5b6000806000606084860312156102f657600080fd5b83356001600160a01b038116811461030d57600080fd5b95602085013595506040909401359392505050565b60006020828403121561033457600080fd5b815180151581146101c157600080fd5b6001600160a01b0391909116815260200190565b6000825160005b81811015610379576020818601810151858301520161035f565b50600092019182525091905056fea26469706673582212208a903a53fa19379249b3ee2bb62c12c6b01196f95f6428f8876658e408e8a24464736f6c63430008140033a26469706673582212208e68fe6a0a669cf203ed9239431229f27ce4594a17223bf1dfac9d982e7cb21464736f6c63430008140033",
  "linkReferences": {},
  "deployedLinkReferences": {}
}