{
  "_format": "hh-sol-artifact-1",
  "contractName": "Router",
  "sourceName": "contracts/aerodrome/Router.sol",
  "abi": [
    {
      "inputs": [
        {
          "internalType": "address",
          "name": "_forwarder",
          "type": "address"
        },
        {
          "internalType": "address",
          "name": "_factoryRegistry",
          "type": "address"
        },
        {
          "internalType": "address",
          "name": "_factory",
          "type": "address"
        },
        {
          "internalType": "address",
          "name": "_voter",
          "type": "address"
        },
        {
          "internalType": "address",
          "name": "_weth",
          "type": "address"
        }
      ],
      "stateMutability": "nonpayable",
      "type": "constructor"
    },
    {
      "inputs": [
        {
          "internalType": "address",
          "name": "target",
          "type": "address"
        }
      ],
      "name": "AddressEmptyCode",
      "type": "error"
    },
    {
      "inputs": [
        {
          "internalType": "address",
          "name": "account",
          "type": "address"
        }
      ],
      "name": "AddressInsufficientBalance",
      "type": "error"
    },
    {
      "inputs": [],
      "name": "ETHTransferFailed",
      "type": "error"
    },
    {
      "inputs": [],
      "name": "Expired",
      "type": "error"
    },
    {
      "inputs": [],
      "name": "FailedInnerCall",
      "type": "error"
    },
    {
      "inputs": [],
      "name": "InsufficientAmount",
      "type": "error"
    },
    {
      "inputs": [],
      "name": "InsufficientAmountA",
      "type": "error"
    },
    {
      "inputs": [],
      "name": "InsufficientAmountADesired",
      "type": "error"
    },
    {
      "inputs": [],
      "name": "InsufficientAmountAOptimal",
      "type": "error"
    },
    {
      "inputs": [],
      "name": "InsufficientAmountB",
      "type": "error"
    },
    {
      "inputs": [],
      "name": "InsufficientAmountBDesired",
      "type": "error"
    },
    {
      "inputs": [],
      "name": "InsufficientLiquidity",
      "type": "error"
    },
    {
      "inputs": [],
      "name": "InsufficientOutputAmount",
      "type": "error"
    },
    {
      "inputs": [],
      "name": "InvalidAmountInForETHDeposit",
      "type": "error"
    },
    {
      "inputs": [],
      "name": "InvalidPath",
      "type": "error"
    },
    {
      "inputs": [],
      "name": "InvalidRouteA",
      "type": "error"
    },
    {
      "inputs": [],
      "name": "InvalidRouteB",
      "type": "error"
    },
    {
      "inputs": [],
      "name": "InvalidTokenInForETHDeposit",
      "type": "error"
    },
    {
      "inputs": [],
      "name": "OnlyWETH",
      "type": "error"
    },
    {
      "inputs": [],
      "name": "PoolDoesNotExist",
      "type": "error"
    },
    {
      "inputs": [],
      "name": "PoolFactoryDoesNotExist",
      "type": "error"
    },
    {
      "inputs": [
        {
          "internalType": "address",
          "name": "token",
          "type": "address"
        }
      ],
      "name": "SafeERC20FailedOperation",
      "type": "error"
    },
    {
      "inputs": [],
      "name": "SameAddresses",
      "type": "error"
    },
    {
      "inputs": [],
      "name": "ZeroAddress",
      "type": "error"
    },
    {
      "inputs": [],
      "name": "ETHER",
      "outputs": [
        {
          "internalType": "address",
          "name": "",
          "type": "address"
        }
      ],
      "stateMutability": "view",
      "type": "function"
    },
    {
      "inputs": [
        {
          "internalType": "uint256[]",
          "name": "amounts",
          "type": "uint256[]"
        },
        {
          "components": [
            {
              "internalType": "address",
              "name": "from",
              "type": "address"
            },
            {
              "internalType": "address",
              "name": "to",
              "type": "address"
            },
            {
              "internalType": "bool",
              "name": "stable",
              "type": "bool"
            },
            {
              "internalType": "address",
              "name": "factory",
              "type": "address"
            }
          ],
          "internalType": "struct IRouter.Route[]",
          "name": "routes",
          "type": "tuple[]"
        },
        {
          "internalType": "address",
          "name": "to",
          "type": "address"
        },
        {
          "internalType": "uint256",
          "name": "deadline",
          "type": "uint256"
        }
      ],
      "name": "UNSAFE_swapExactTokensForTokens",
      "outputs": [
        {
          "internalType": "uint256[]",
          "name": "",
          "type": "uint256[]"
        }
      ],
      "stateMutability": "nonpayable",
      "type": "function"
    },
    {
      "inputs": [
        {
          "internalType": "address",
          "name": "tokenA",
          "type": "address"
        },
        {
          "internalType": "address",
          "name": "tokenB",
          "type": "address"
        },
        {
          "internalType": "bool",
          "name": "stable",
          "type": "bool"
        },
        {
          "internalType": "uint256",
          "name": "amountADesired",
          "type": "uint256"
        },
        {
          "internalType": "uint256",
          "name": "amountBDesired",
          "type": "uint256"
        },
        {
          "internalType": "uint256",
          "name": "amountAMin",
          "type": "uint256"
        },
        {
          "internalType": "uint256",
          "name": "amountBMin",
          "type": "uint256"
        },
        {
          "internalType": "address",
          "name": "to",
          "type": "address"
        },
        {
          "internalType": "uint256",
          "name": "deadline",
          "type": "uint256"
        }
      ],
      "name": "addLiquidity",
      "outputs": [
        {
          "internalType": "uint256",
          "name": "amountA",
          "type": "uint256"
        },
        {
          "internalType": "uint256",
          "name": "amountB",
          "type": "uint256"
        },
        {
          "internalType": "uint256",
          "name": "liquidity",
          "type": "uint256"
        }
      ],
      "stateMutability": "nonpayable",
      "type": "function"
    },
    {
      "inputs": [
        {
          "internalType": "address",
          "name": "token",
          "type": "address"
        },
        {
          "internalType": "bool",
          "name": "stable",
          "type": "bool"
        },
        {
          "internalType": "uint256",
          "name": "amountTokenDesired",
          "type": "uint256"
        },
        {
          "internalType": "uint256",
          "name": "amountTokenMin",
          "type": "uint256"
        },
        {
          "internalType": "uint256",
          "name": "amountETHMin",
          "type": "uint256"
        },
        {
          "internalType": "address",
          "name": "to",
          "type": "address"
        },
        {
          "internalType": "uint256",
          "name": "deadline",
          "type": "uint256"
        }
      ],
      "name": "addLiquidityETH",
      "outputs": [
        {
          "internalType": "uint256",
          "name": "amountToken",
          "type": "uint256"
        },
        {
          "internalType": "uint256",
          "name": "amountETH",
          "type": "uint256"
        },
        {
          "internalType": "uint256",
          "name": "liquidity",
          "type": "uint256"
        }
      ],
      "stateMutability": "payable",
      "type": "function"
    },
    {
      "inputs": [],
      "name": "defaultFactory",
      "outputs": [
        {
          "internalType": "address",
          "name": "",
          "type": "address"
        }
      ],
      "stateMutability": "view",
      "type": "function"
    },
    {
      "inputs": [],
      "name": "factoryRegistry",
      "outputs": [
        {
          "internalType": "address",
          "name": "",
          "type": "address"
        }
      ],
      "stateMutability": "view",
      "type": "function"
    },
    {
      "inputs": [
        {
          "internalType": "address",
          "name": "tokenA",
          "type": "address"
        },
        {
          "internalType": "address",
          "name": "tokenB",
          "type": "address"
        },
        {
          "internalType": "bool",
          "name": "stable",
          "type": "bool"
        },
        {
          "internalType": "address",
          "name": "_factory",
          "type": "address"
        },
        {
          "internalType": "uint256",
          "name": "amountInA",
          "type": "uint256"
        },
        {
          "internalType": "uint256",
          "name": "amountInB",
          "type": "uint256"
        },
        {
          "components": [
            {
              "internalType": "address",
              "name": "from",
              "type": "address"
            },
            {
              "internalType": "address",
              "name": "to",
              "type": "address"
            },
            {
              "internalType": "bool",
              "name": "stable",
              "type": "bool"
            },
            {
              "internalType": "address",
              "name": "factory",
              "type": "address"
            }
          ],
          "internalType": "struct IRouter.Route[]",
          "name": "routesA",
          "type": "tuple[]"
        },
        {
          "components": [
            {
              "internalType": "address",
              "name": "from",
              "type": "address"
            },
            {
              "internalType": "address",
              "name": "to",
              "type": "address"
            },
            {
              "internalType": "bool",
              "name": "stable",
              "type": "bool"
            },
            {
              "internalType": "address",
              "name": "factory",
              "type": "address"
            }
          ],
          "internalType": "struct IRouter.Route[]",
          "name": "routesB",
          "type": "tuple[]"
        }
      ],
      "name": "generateZapInParams",
      "outputs": [
        {
          "internalType": "uint256",
          "name": "amountOutMinA",
          "type": "uint256"
        },
        {
          "internalType": "uint256",
          "name": "amountOutMinB",
          "type": "uint256"
        },
        {
          "internalType": "uint256",
          "name": "amountAMin",
          "type": "uint256"
        },
        {
          "internalType": "uint256",
          "name": "amountBMin",
          "type": "uint256"
        }
      ],
      "stateMutability": "view",
      "type": "function"
    },
    {
      "inputs": [
        {
          "internalType": "address",
          "name": "tokenA",
          "type": "address"
        },
        {
          "internalType": "address",
          "name": "tokenB",
          "type": "address"
        },
        {
          "internalType": "bool",
          "name": "stable",
          "type": "bool"
        },
        {
          "internalType": "address",
          "name": "_factory",
          "type": "address"
        },
        {
          "internalType": "uint256",
          "name": "liquidity",
          "type": "uint256"
        },
        {
          "components": [
            {
              "internalType": "address",
              "name": "from",
              "type": "address"
            },
            {
              "internalType": "address",
              "name": "to",
              "type": "address"
            },
            {
              "internalType": "bool",
              "name": "stable",
              "type": "bool"
            },
            {
              "internalType": "address",
              "name": "factory",
              "type": "address"
            }
          ],
          "internalType": "struct IRouter.Route[]",
          "name": "routesA",
          "type": "tuple[]"
        },
        {
          "components": [
            {
              "internalType": "address",
              "name": "from",
              "type": "address"
            },
            {
              "internalType": "address",
              "name": "to",
              "type": "address"
            },
            {
              "internalType": "bool",
              "name": "stable",
              "type": "bool"
            },
            {
              "internalType": "address",
              "name": "factory",
              "type": "address"
            }
          ],
          "internalType": "struct IRouter.Route[]",
          "name": "routesB",
          "type": "tuple[]"
        }
      ],
      "name": "generateZapOutParams",
      "outputs": [
        {
          "internalType": "uint256",
          "name": "amountOutMinA",
          "type": "uint256"
        },
        {
          "internalType": "uint256",
          "name": "amountOutMinB",
          "type": "uint256"
        },
        {
          "internalType": "uint256",
          "name": "amountAMin",
          "type": "uint256"
        },
        {
          "internalType": "uint256",
          "name": "amountBMin",
          "type": "uint256"
        }
      ],
      "stateMutability": "view",
      "type": "function"
    },
    {
      "inputs": [
        {
          "internalType": "uint256",
          "name": "amountIn",
          "type": "uint256"
        },
        {
          "components": [
            {
              "internalType": "address",
              "name": "from",
              "type": "address"
            },
            {
              "internalType": "address",
              "name": "to",
              "type": "address"
            },
            {
              "internalType": "bool",
              "name": "stable",
              "type": "bool"
            },
            {
              "internalType": "address",
              "name": "factory",
              "type": "address"
            }
          ],
          "internalType": "struct IRouter.Route[]",
          "name": "routes",
          "type": "tuple[]"
        }
      ],
      "name": "getAmountsOut",
      "outputs": [
        {
          "internalType": "uint256[]",
          "name": "amounts",
          "type": "uint256[]"
        }
      ],
      "stateMutability": "view",
      "type": "function"
    },
    {
      "inputs": [
        {
          "internalType": "address",
          "name": "tokenA",
          "type": "address"
        },
        {
          "internalType": "address",
          "name": "tokenB",
          "type": "address"
        },
        {
          "internalType": "bool",
          "name": "stable",
          "type": "bool"
        },
        {
          "internalType": "address",
          "name": "_factory",
          "type": "address"
        }
      ],
      "name": "getReserves",
      "outputs": [
        {
          "internalType": "uint256",
          "name": "reserveA",
          "type": "uint256"
        },
        {
          "internalType": "uint256",
          "name": "reserveB",
          "type": "uint256"
        }
      ],
      "stateMutability": "view",
      "type": "function"
    },
    {
      "inputs": [
        {
          "internalType": "address",
          "name": "forwarder",
          "type": "address"
        }
      ],
      "name": "isTrustedForwarder",
      "outputs": [
        {
          "internalType": "bool",
          "name": "",
          "type": "bool"
        }
      ],
      "stateMutability": "view",
      "type": "function"
    },
    {
      "inputs": [
        {
          "internalType": "address",
          "name": "tokenA",
          "type": "address"
        },
        {
          "internalType": "address",
          "name": "tokenB",
          "type": "address"
        },
        {
          "internalType": "bool",
          "name": "stable",
          "type": "bool"
        },
        {
          "internalType": "address",
          "name": "_factory",
          "type": "address"
        }
      ],
      "name": "poolFor",
      "outputs": [
        {
          "internalType": "address",
          "name": "pool",
          "type": "address"
        }
      ],
      "stateMutability": "view",
      "type": "function"
    },
    {
      "inputs": [
        {
          "internalType": "address",
          "name": "tokenA",
          "type": "address"
        },
        {
          "internalType": "address",
          "name": "tokenB",
          "type": "address"
        },
        {
          "internalType": "bool",
          "name": "stable",
          "type": "bool"
        },
        {
          "internalType": "address",
          "name": "_factory",
          "type": "address"
        },
        {
          "internalType": "uint256",
          "name": "amountADesired",
          "type": "uint256"
        },
        {
          "internalType": "uint256",
          "name": "amountBDesired",
          "type": "uint256"
        }
      ],
      "name": "quoteAddLiquidity",
      "outputs": [
        {
          "internalType": "uint256",
          "name": "amountA",
          "type": "uint256"
        },
        {
          "internalType": "uint256",
          "name": "amountB",
          "type": "uint256"
        },
        {
          "internalType": "uint256",
          "name": "liquidity",
          "type": "uint256"
        }
      ],
      "stateMutability": "view",
      "type": "function"
    },
    {
      "inputs": [
        {
          "internalType": "address",
          "name": "tokenA",
          "type": "address"
        },
        {
          "internalType": "address",
          "name": "tokenB",
          "type": "address"
        },
        {
          "internalType": "bool",
          "name": "stable",
          "type": "bool"
        },
        {
          "internalType": "address",
          "name": "_factory",
          "type": "address"
        },
        {
          "internalType": "uint256",
          "name": "liquidity",
          "type": "uint256"
        }
      ],
      "name": "quoteRemoveLiquidity",
      "outputs": [
        {
          "internalType": "uint256",
          "name": "amountA",
          "type": "uint256"
        },
        {
          "internalType": "uint256",
          "name": "amountB",
          "type": "uint256"
        }
      ],
      "stateMutability": "view",
      "type": "function"
    },
    {
      "inputs": [
        {
          "internalType": "address",
          "name": "tokenA",
          "type": "address"
        },
        {
          "internalType": "address",
          "name": "tokenB",
          "type": "address"
        },
        {
          "internalType": "address",
          "name": "_factory",
          "type": "address"
        }
      ],
      "name": "quoteStableLiquidityRatio",
      "outputs": [
        {
          "internalType": "uint256",
          "name": "ratio",
          "type": "uint256"
        }
      ],
      "stateMutability": "view",
      "type": "function"
    },
    {
      "inputs": [
        {
          "internalType": "address",
          "name": "tokenA",
          "type": "address"
        },
        {
          "internalType": "address",
          "name": "tokenB",
          "type": "address"
        },
        {
          "internalType": "bool",
          "name": "stable",
          "type": "bool"
        },
        {
          "internalType": "uint256",
          "name": "liquidity",
          "type": "uint256"
        },
        {
          "internalType": "uint256",
          "name": "amountAMin",
          "type": "uint256"
        },
        {
          "internalType": "uint256",
          "name": "amountBMin",
          "type": "uint256"
        },
        {
          "internalType": "address",
          "name": "to",
          "type": "address"
        },
        {
          "internalType": "uint256",
          "name": "deadline",
          "type": "uint256"
        }
      ],
      "name": "removeLiquidity",
      "outputs": [
        {
          "internalType": "uint256",
          "name": "amountA",
          "type": "uint256"
        },
        {
          "internalType": "uint256",
          "name": "amountB",
          "type": "uint256"
        }
      ],
      "stateMutability": "nonpayable",
      "type": "function"
    },
    {
      "inputs": [
        {
          "internalType": "address",
          "name": "token",
          "type": "address"
        },
        {
          "internalType": "bool",
          "name": "stable",
          "type": "bool"
        },
        {
          "internalType": "uint256",
          "name": "liquidity",
          "type": "uint256"
        },
        {
          "internalType": "uint256",
          "name": "amountTokenMin",
          "type": "uint256"
        },
        {
          "internalType": "uint256",
          "name": "amountETHMin",
          "type": "uint256"
        },
        {
          "internalType": "address",
          "name": "to",
          "type": "address"
        },
        {
          "internalType": "uint256",
          "name": "deadline",
          "type": "uint256"
        }
      ],
      "name": "removeLiquidityETH",
      "outputs": [
        {
          "internalType": "uint256",
          "name": "amountToken",
          "type": "uint256"
        },
        {
          "internalType": "uint256",
          "name": "amountETH",
          "type": "uint256"
        }
      ],
      "stateMutability": "nonpayable",
      "type": "function"
    },
    {
      "inputs": [
        {
          "internalType": "address",
          "name": "token",
          "type": "address"
        },
        {
          "internalType": "bool",
          "name": "stable",
          "type": "bool"
        },
        {
          "internalType": "uint256",
          "name": "liquidity",
          "type": "uint256"
        },
        {
          "internalType": "uint256",
          "name": "amountTokenMin",
          "type": "uint256"
        },
        {
          "internalType": "uint256",
          "name": "amountETHMin",
          "type": "uint256"
        },
        {
          "internalType": "address",
          "name": "to",
          "type": "address"
        },
        {
          "internalType": "uint256",
          "name": "deadline",
          "type": "uint256"
        }
      ],
      "name": "removeLiquidityETHSupportingFeeOnTransferTokens",
      "outputs": [
        {
          "internalType": "uint256",
          "name": "amountETH",
          "type": "uint256"
        }
      ],
      "stateMutability": "nonpayable",
      "type": "function"
    },
    {
      "inputs": [
        {
          "internalType": "address",
          "name": "tokenA",
          "type": "address"
        },
        {
          "internalType": "address",
          "name": "tokenB",
          "type": "address"
        }
      ],
      "name": "sortTokens",
      "outputs": [
        {
          "internalType": "address",
          "name": "token0",
          "type": "address"
        },
        {
          "internalType": "address",
          "name": "token1",
          "type": "address"
        }
      ],
      "stateMutability": "pure",
      "type": "function"
    },
    {
      "inputs": [
        {
          "internalType": "uint256",
          "name": "amountOutMin",
          "type": "uint256"
        },
        {
          "components": [
            {
              "internalType": "address",
              "name": "from",
              "type": "address"
            },
            {
              "internalType": "address",
              "name": "to",
              "type": "address"
            },
            {
              "internalType": "bool",
              "name": "stable",
              "type": "bool"
            },
            {
              "internalType": "address",
              "name": "factory",
              "type": "address"
            }
          ],
          "internalType": "struct IRouter.Route[]",
          "name": "routes",
          "type": "tuple[]"
        },
        {
          "internalType": "address",
          "name": "to",
          "type": "address"
        },
        {
          "internalType": "uint256",
          "name": "deadline",
          "type": "uint256"
        }
      ],
      "name": "swapExactETHForTokens",
      "outputs": [
        {
          "internalType": "uint256[]",
          "name": "amounts",
          "type": "uint256[]"
        }
      ],
      "stateMutability": "payable",
      "type": "function"
    },
    {
      "inputs": [
        {
          "internalType": "uint256",
          "name": "amountOutMin",
          "type": "uint256"
        },
        {
          "components": [
            {
              "internalType": "address",
              "name": "from",
              "type": "address"
            },
            {
              "internalType": "address",
              "name": "to",
              "type": "address"
            },
            {
              "internalType": "bool",
              "name": "stable",
              "type": "bool"
            },
            {
              "internalType": "address",
              "name": "factory",
              "type": "address"
            }
          ],
          "internalType": "struct IRouter.Route[]",
          "name": "routes",
          "type": "tuple[]"
        },
        {
          "internalType": "address",
          "name": "to",
          "type": "address"
        },
        {
          "internalType": "uint256",
          "name": "deadline",
          "type": "uint256"
        }
      ],
      "name": "swapExactETHForTokensSupportingFeeOnTransferTokens",
      "outputs": [],
      "stateMutability": "payable",
      "type": "function"
    },
    {
      "inputs": [
        {
          "internalType": "uint256",
          "name": "amountIn",
          "type": "uint256"
        },
        {
          "internalType": "uint256",
          "name": "amountOutMin",
          "type": "uint256"
        },
        {
          "components": [
            {
              "internalType": "address",
              "name": "from",
              "type": "address"
            },
            {
              "internalType": "address",
              "name": "to",
              "type": "address"
            },
            {
              "internalType": "bool",
              "name": "stable",
              "type": "bool"
            },
            {
              "internalType": "address",
              "name": "factory",
              "type": "address"
            }
          ],
          "internalType": "struct IRouter.Route[]",
          "name": "routes",
          "type": "tuple[]"
        },
        {
          "internalType": "address",
          "name": "to",
          "type": "address"
        },
        {
          "internalType": "uint256",
          "name": "deadline",
          "type": "uint256"
        }
      ],
      "name": "swapExactTokensForETH",
      "outputs": [
        {
          "internalType": "uint256[]",
          "name": "amounts",
          "type": "uint256[]"
        }
      ],
      "stateMutability": "nonpayable",
      "type": "function"
    },
    {
      "inputs": [
        {
          "internalType": "uint256",
          "name": "amountIn",
          "type": "uint256"
        },
        {
          "internalType": "uint256",
          "name": "amountOutMin",
          "type": "uint256"
        },
        {
          "components": [
            {
              "internalType": "address",
              "name": "from",
              "type": "address"
            },
            {
              "internalType": "address",
              "name": "to",
              "type": "address"
            },
            {
              "internalType": "bool",
              "name": "stable",
              "type": "bool"
            },
            {
              "internalType": "address",
              "name": "factory",
              "type": "address"
            }
          ],
          "internalType": "struct IRouter.Route[]",
          "name": "routes",
          "type": "tuple[]"
        },
        {
          "internalType": "address",
          "name": "to",
          "type": "address"
        },
        {
          "internalType": "uint256",
          "name": "deadline",
          "type": "uint256"
        }
      ],
      "name": "swapExactTokensForETHSupportingFeeOnTransferTokens",
      "outputs": [],
      "stateMutability": "nonpayable",
      "type": "function"
    },
    {
      "inputs": [
        {
          "internalType": "uint256",
          "name": "amountIn",
          "type": "uint256"
        },
        {
          "internalType": "uint256",
          "name": "amountOutMin",
          "type": "uint256"
        },
        {
          "components": [
            {
              "internalType": "address",
              "name": "from",
              "type": "address"
            },
            {
              "internalType": "address",
              "name": "to",
              "type": "address"
            },
            {
              "internalType": "bool",
              "name": "stable",
              "type": "bool"
            },
            {
              "internalType": "address",
              "name": "factory",
              "type": "address"
            }
          ],
          "internalType": "struct IRouter.Route[]",
          "name": "routes",
          "type": "tuple[]"
        },
        {
          "internalType": "address",
          "name": "to",
          "type": "address"
        },
        {
          "internalType": "uint256",
          "name": "deadline",
          "type": "uint256"
        }
      ],
      "name": "swapExactTokensForTokens",
      "outputs": [
        {
          "internalType": "uint256[]",
          "name": "amounts",
          "type": "uint256[]"
        }
      ],
      "stateMutability": "nonpayable",
      "type": "function"
    },
    {
      "inputs": [
        {
          "internalType": "uint256",
          "name": "amountIn",
          "type": "uint256"
        },
        {
          "internalType": "uint256",
          "name": "amountOutMin",
          "type": "uint256"
        },
        {
          "components": [
            {
              "internalType": "address",
              "name": "from",
              "type": "address"
            },
            {
              "internalType": "address",
              "name": "to",
              "type": "address"
            },
            {
              "internalType": "bool",
              "name": "stable",
              "type": "bool"
            },
            {
              "internalType": "address",
              "name": "factory",
              "type": "address"
            }
          ],
          "internalType": "struct IRouter.Route[]",
          "name": "routes",
          "type": "tuple[]"
        },
        {
          "internalType": "address",
          "name": "to",
          "type": "address"
        },
        {
          "internalType": "uint256",
          "name": "deadline",
          "type": "uint256"
        }
      ],
      "name": "swapExactTokensForTokensSupportingFeeOnTransferTokens",
      "outputs": [],
      "stateMutability": "nonpayable",
      "type": "function"
    },
    {
      "inputs": [],
      "name": "trustedForwarder",
      "outputs": [
        {
          "internalType": "address",
          "name": "",
          "type": "address"
        }
      ],
      "stateMutability": "view",
      "type": "function"
    },
    {
      "inputs": [],
      "name": "voter",
      "outputs": [
        {
          "internalType": "address",
          "name": "",
          "type": "address"
        }
      ],
      "stateMutability": "view",
      "type": "function"
    },
    {
      "inputs": [],
      "name": "weth",
      "outputs": [
        {
          "internalType": "contract IWETH",
          "name": "",
          "type": "address"
        }
      ],
      "stateMutability": "view",
      "type": "function"
    },
    {
      "inputs": [
        {
          "internalType": "address",
          "name": "tokenIn",
          "type": "address"
        },
        {
          "internalType": "uint256",
          "name": "amountInA",
          "type": "uint256"
        },
        {
          "internalType": "uint256",
          "name": "amountInB",
          "type": "uint256"
        },
        {
          "components": [
            {
              "internalType": "address",
              "name": "tokenA",
              "type": "address"
            },
            {
              "internalType": "address",
              "name": "tokenB",
              "type": "address"
            },
            {
              "internalType": "bool",
              "name": "stable",
              "type": "bool"
            },
            {
              "internalType": "address",
              "name": "factory",
              "type": "address"
            },
            {
              "internalType": "uint256",
              "name": "amountOutMinA",
              "type": "uint256"
            },
            {
              "internalType": "uint256",
              "name": "amountOutMinB",
              "type": "uint256"
            },
            {
              "internalType": "uint256",
              "name": "amountAMin",
              "type": "uint256"
            },
            {
              "internalType": "uint256",
              "name": "amountBMin",
              "type": "uint256"
            }
          ],
          "internalType": "struct IRouter.Zap",
          "name": "zapInPool",
          "type": "tuple"
        },
        {
          "components": [
            {
              "internalType": "address",
              "name": "from",
              "type": "address"
            },
            {
              "internalType": "address",
              "name": "to",
              "type": "address"
            },
            {
              "internalType": "bool",
              "name": "stable",
              "type": "bool"
            },
            {
              "internalType": "address",
              "name": "factory",
              "type": "address"
            }
          ],
          "internalType": "struct IRouter.Route[]",
          "name": "routesA",
          "type": "tuple[]"
        },
        {
          "components": [
            {
              "internalType": "address",
              "name": "from",
              "type": "address"
            },
            {
              "internalType": "address",
              "name": "to",
              "type": "address"
            },
            {
              "internalType": "bool",
              "name": "stable",
              "type": "bool"
            },
            {
              "internalType": "address",
              "name": "factory",
              "type": "address"
            }
          ],
          "internalType": "struct IRouter.Route[]",
          "name": "routesB",
          "type": "tuple[]"
        },
        {
          "internalType": "address",
          "name": "to",
          "type": "address"
        },
        {
          "internalType": "bool",
          "name": "stake",
          "type": "bool"
        }
      ],
      "name": "zapIn",
      "outputs": [
        {
          "internalType": "uint256",
          "name": "liquidity",
          "type": "uint256"
        }
      ],
      "stateMutability": "payable",
      "type": "function"
    },
    {
      "inputs": [
        {
          "internalType": "address",
          "name": "tokenOut",
          "type": "address"
        },
        {
          "internalType": "uint256",
          "name": "liquidity",
          "type": "uint256"
        },
        {
          "components": [
            {
              "internalType": "address",
              "name": "tokenA",
              "type": "address"
            },
            {
              "internalType": "address",
              "name": "tokenB",
              "type": "address"
            },
            {
              "internalType": "bool",
              "name": "stable",
              "type": "bool"
            },
            {
              "internalType": "address",
              "name": "factory",
              "type": "address"
            },
            {
              "internalType": "uint256",
              "name": "amountOutMinA",
              "type": "uint256"
            },
            {
              "internalType": "uint256",
              "name": "amountOutMinB",
              "type": "uint256"
            },
            {
              "internalType": "uint256",
              "name": "amountAMin",
              "type": "uint256"
            },
            {
              "internalType": "uint256",
              "name": "amountBMin",
              "type": "uint256"
            }
          ],
          "internalType": "struct IRouter.Zap",
          "name": "zapOutPool",
          "type": "tuple"
        },
        {
          "components": [
            {
              "internalType": "address",
              "name": "from",
              "type": "address"
            },
            {
              "internalType": "address",
              "name": "to",
              "type": "address"
            },
            {
              "internalType": "bool",
              "name": "stable",
              "type": "bool"
            },
            {
              "internalType": "address",
              "name": "factory",
              "type": "address"
            }
          ],
          "internalType": "struct IRouter.Route[]",
          "name": "routesA",
          "type": "tuple[]"
        },
        {
          "components": [
            {
              "internalType": "address",
              "name": "from",
              "type": "address"
            },
            {
              "internalType": "address",
              "name": "to",
              "type": "address"
            },
            {
              "internalType": "bool",
              "name": "stable",
              "type": "bool"
            },
            {
              "internalType": "address",
              "name": "factory",
              "type": "address"
            }
          ],
          "internalType": "struct IRouter.Route[]",
          "name": "routesB",
          "type": "tuple[]"
        }
      ],
      "name": "zapOut",
      "outputs": [],
      "stateMutability": "nonpayable",
      "type": "function"
    },
    {
      "stateMutability": "payable",
      "type": "receive"
    }
  ],
  "bytecode": "0x6101206040523480156200001257600080fd5b5060405162005d6638038062005d6683398101604081905262000035916200007c565b6001600160a01b0394851660805292841660a05290831660c052821660e0521661010052620000ec565b80516001600160a01b03811681146200007757600080fd5b919050565b600080600080600060a086880312156200009557600080fd5b620000a0866200005f565b9450620000b0602087016200005f565b9350620000c0604087016200005f565b9250620000d0606087016200005f565b9150620000e0608087016200005f565b90509295509295909350565b60805160a05160c05160e05161010051615b396200022d600039600081816101a1015281816102e60152818161093a01528181610b1201528181610bc101528181610c4501528181610cc401528181610d3801528181611b3901528181611c4e01528181611cdc01528181611e4b015281816121380152818161216e015281816121cb01528181612251015281816123920152818161256401528181612abd01528181612b0d01528181612e5301528181612e76015281816132a00152818161335e0152818161413001526141c401526000818161036f01526130000152600081816105e7015281816107e3015281816112a2015281816114e8015281816116e50152818161219001528181613c8b01528181613d2c0152613db6015260008181610292015261173601526000818161048b015261148b0152615b396000f3fe6080604052600436106101915760003560e01c8063874029d9116100d7578063c92de3ec11610085578063c92de3ec14610575578063cac88ea914610595578063ce700c29146105b5578063d4b6846d146105d5578063d7b0e0a514610609578063f5ba53c714610629578063fb49bafd14610657578063fe411f141461066a57600080fd5b8063874029d9146104af57806388cd821e146104cf5780638c0037dc146104ef578063903638a41461050f578063a81b915914610522578063b7e0d4c014610542578063c6b7f1b61461055557600080fd5b806342cb1fbc1161013f57806342cb1fbc1461033557806346c96aac1461035d578063544caa56146103915780635509a1ac146103d1578063572b6c05146103f15780635a47ddc3146104215780637539d4131461045c5780637da0a8771461047c57600080fd5b806307db50fa146101e65780630dede6c41461022b57806312bc3aca146102605780633bf0c9fb146102805780633da5acba146102c15780633fc8cef3146102d45780634111d5971461030857600080fd5b366101e157336001600160a01b037f000000000000000000000000000000000000000000000000000000000000000016146101df576040516301f180c960e01b815260040160405180910390fd5b005b600080fd5b3480156101f257600080fd5b50610206610201366004614cd8565b61068a565b6040805194855260208501939093529183015260608201526080015b60405180910390f35b34801561023757600080fd5b5061024b610246366004614da8565b6107cc565b60408051928352602083019190915201610222565b34801561026c57600080fd5b506101df61027b366004614e2d565b610926565b34801561028c57600080fd5b506102b47f000000000000000000000000000000000000000000000000000000000000000081565b6040516102229190614e9f565b6101df6102cf366004614eb3565b610c39565b3480156102e057600080fd5b506102b47f000000000000000000000000000000000000000000000000000000000000000081565b34801561031457600080fd5b50610328610323366004614f82565b610fb9565b604051610222919061504d565b34801561034157600080fd5b506102b473eeeeeeeeeeeeeeeeeeeeeeeeeeeeeeeeeeeeeeee81565b34801561036957600080fd5b506102b47f000000000000000000000000000000000000000000000000000000000000000081565b34801561039d57600080fd5b506103b16103ac366004615091565b611119565b604080516001600160a01b03938416815292909116602083015201610222565b3480156103dd57600080fd5b506103286103ec366004615152565b6111a4565b3480156103fd57600080fd5b5061041161040c3660046151f9565b611489565b6040519015158152602001610222565b34801561042d57600080fd5b5061044161043c366004615216565b6114bb565b60408051938452602084019290925290820152606001610222565b34801561046857600080fd5b506102066104773660046152a5565b6115a8565b34801561048857600080fd5b507f00000000000000000000000000000000000000000000000000000000000000006102b4565b3480156104bb57600080fd5b506102b46104ca36600461536a565b6116e1565b3480156104db57600080fd5b506101df6104ea366004614e2d565b6118f5565b3480156104fb57600080fd5b5061024b61050a36600461536a565b611a71565b61032861051d366004614eb3565b611b2b565b34801561052e57600080fd5b506101df61053d3660046153df565b611df8565b61044161055036600461547f565b612123565b34801561056157600080fd5b50610328610570366004614e2d565b61237c565b34801561058157600080fd5b5061024b6105903660046154f1565b612643565b3480156105a157600080fd5b506103286105b0366004614e2d565b61278c565b3480156105c157600080fd5b506104416105d0366004615555565b6128c8565b3480156105e157600080fd5b506102b47f000000000000000000000000000000000000000000000000000000000000000081565b34801561061557600080fd5b5061024b61062436600461547f565b612aaa565b34801561063557600080fd5b506106496106443660046155c3565b612b88565b604051908152602001610222565b61064961066536600461560e565b612dfb565b34801561067657600080fd5b5061064961068536600461547f565b61328e565b85856000806060871561071f576106f38b8a8a808060200260200160405190810160405280939291908181526020016000905b828210156106e9576106da608083028601368190038101906156df565b815260200190600101906106bd565b50505050506111a4565b905080600182516107049190615711565b8151811061071457610714615724565b602002602001015194505b85156107a3576107778a8888808060200260200160405190810160405280939291908181526020016000905b828210156106e957610768608083028601368190038101906156df565b8152602001906001019061074b565b905080600182516107889190615711565b8151811061079857610798615724565b602002602001015193505b6107b18f8f8f8f89896128c8565b508093508194505050509a509a509a509a9650505050505050565b600080826107d9816133d8565b60006108078c8c8c7f00000000000000000000000000000000000000000000000000000000000000006116e1565b90506108266108146133fc565b6001600160a01b03831690838c61344e565b600080826001600160a01b03166389afcb44896040518263ffffffff1660e01b81526004016108559190614e9f565b60408051808303816000875af1158015610873573d6000803e3d6000fd5b505050506040513d601f19601f82011682018060405250810190610897919061573a565b9150915060006108a78f8f611119565b509050806001600160a01b03168f6001600160a01b0316146108ca5781836108cd565b82825b90975095508a8710156108f3576040516323d9bb0560e21b815260040160405180910390fd5b8986101561091457604051630d32418960e21b815260040160405180910390fd5b50505050509850989650505050505050565b80610930816133d8565b6001600160a01b037f0000000000000000000000000000000000000000000000000000000000000000168585610967600182615711565b81811061097657610976615724565b905060800201602001602081019061098e91906151f9565b6001600160a01b0316146109b5576040516320db826760e01b815260040160405180910390fd5b610a9c858560008181106109cb576109cb615724565b6109e192602060809092020190810191506151f9565b6109e96133fc565b610a96888860008181106109ff576109ff615724565b610a1592602060809092020190810191506151f9565b89896000818110610a2857610a28615724565b9050608002016020016020810190610a4091906151f9565b8a8a6000818110610a5357610a53615724565b9050608002016040016020810190610a6b919061575e565b8b8b6000818110610a7e57610a7e615724565b90506080020160600160208101906104ca91906151f9565b8a6134ae565b610af88585808060200260200160405190810160405280939291908181526020016000905b82821015610aed57610ade608083028601368190038101906156df565b81526020019060010190610ac1565b505050505030613528565b6040516370a0823160e01b81526000906001600160a01b037f000000000000000000000000000000000000000000000000000000000000000016906370a0823190610b47903090600401614e9f565b602060405180830381865afa158015610b64573d6000803e3d6000fd5b505050506040513d601f19601f82011682018060405250810190610b88919061577b565b905086811015610bab576040516342301c2360e01b815260040160405180910390fd5b604051632e1a7d4d60e01b8152600481018290527f00000000000000000000000000000000000000000000000000000000000000006001600160a01b031690632e1a7d4d90602401600060405180830381600087803b158015610c0d57600080fd5b505af1158015610c21573d6000803e3d6000fd5b50505050610c2f8482613940565b5050505050505050565b80610c43816133d8565b7f00000000000000000000000000000000000000000000000000000000000000006001600160a01b031685856000818110610c8057610c80615724565b610c9692602060809092020190810191506151f9565b6001600160a01b031614610cbd576040516320db826760e01b815260040160405180910390fd5b60003490507f00000000000000000000000000000000000000000000000000000000000000006001600160a01b031663d0e30db0826040518263ffffffff1660e01b81526004016000604051808303818588803b158015610d1d57600080fd5b505af1158015610d31573d6000803e3d6000fd5b50505050507f00000000000000000000000000000000000000000000000000000000000000006001600160a01b031663a9059cbb610d7b888860008181106109ff576109ff615724565b836040518363ffffffff1660e01b8152600401610d99929190615794565b6020604051808303816000875af1158015610db8573d6000803e3d6000fd5b505050506040513d601f19601f82011682018060405250810190610ddc91906157ad565b610de857610de86157ca565b6000610df5600187615711565b90506000878783818110610e0b57610e0b615724565b9050608002016020016020810190610e2391906151f9565b6001600160a01b03166370a08231876040518263ffffffff1660e01b8152600401610e4e9190614e9f565b602060405180830381865afa158015610e6b573d6000803e3d6000fd5b505050506040513d601f19601f82011682018060405250810190610e8f919061577b565b9050610eed8888808060200260200160405190810160405280939291908181526020016000905b82821015610ee257610ed3608083028601368190038101906156df565b81526020019060010190610eb6565b505050505087613528565b8881898985818110610f0157610f01615724565b9050608002016020016020810190610f1991906151f9565b6001600160a01b03166370a08231896040518263ffffffff1660e01b8152600401610f449190614e9f565b602060405180830381865afa158015610f61573d6000803e3d6000fd5b505050506040513d601f19601f82011682018060405250810190610f85919061577b565b610f8f9190615711565b1015610fae576040516342301c2360e01b815260040160405180910390fd5b505050505050505050565b606081610fc5816133d8565b6110ae86866000818110610fdb57610fdb615724565b610ff192602060809092020190810191506151f9565b610ff96133fc565b61108e8989600081811061100f5761100f615724565b61102592602060809092020190810191506151f9565b8a8a600081811061103857611038615724565b905060800201602001602081019061105091906151f9565b8b8b600081811061106357611063615724565b905060800201604001602081019061107b919061575e565b8c8c6000818110610a7e57610a7e615724565b8a6000815181106110a1576110a1615724565b60200260200101516134ae565b61110b878787808060200260200160405190810160405280939291908181526020016000905b82821015611100576110f1608083028601368190038101906156df565b815260200190600101906110d4565b5050505050866139d3565b8691505b5095945050505050565b600080826001600160a01b0316846001600160a01b03160361114e57604051633295f3fd60e21b815260040160405180910390fd5b826001600160a01b0316846001600160a01b03161061116e578284611171565b83835b90925090506001600160a01b03821661119d5760405163d92e233d60e01b815260040160405180910390fd5b9250929050565b60606001825110156111c9576040516320db826760e01b815260040160405180910390fd5b81516111d69060016157e0565b6001600160401b038111156111ed576111ed614f19565b604051908082528060200260200182016040528015611216578160200160208202803683370190505b509050828160008151811061122d5761122d615724565b6020908102919091010152815160005b81811015611481576000806001600160a01b031685838151811061126357611263615724565b6020026020010151606001516001600160a01b0316146112a05784828151811061128f5761128f615724565b6020026020010151606001516112c2565b7f00000000000000000000000000000000000000000000000000000000000000005b905060006113298684815181106112db576112db615724565b6020026020010151600001518785815181106112f9576112f9615724565b60200260200101516020015188868151811061131757611317615724565b602002602001015160400151856116e1565b604051635b16ebb760e01b81529091506001600160a01b03831690635b16ebb790611358908490600401614e9f565b602060405180830381865afa158015611375573d6000803e3d6000fd5b505050506040513d601f19601f8201168201806040525081019061139991906157ad565b1561146c57806001600160a01b031663f140a35a8685815181106113bf576113bf615724565b60200260200101518886815181106113d9576113d9615724565b6020026020010151600001516040518363ffffffff1660e01b81526004016114029291906157f3565b602060405180830381865afa15801561141f573d6000803e3d6000fd5b505050506040513d601f19601f82011682018060405250810190611443919061577b565b8561144f8560016157e0565b8151811061145f5761145f615724565b6020026020010181815250505b505080806114799061580a565b91505061123d565b505092915050565b7f00000000000000000000000000000000000000000000000000000000000000006001600160a01b0390811691161490565b6000806000836114ca816133d8565b6114d98d8d8d8d8d8d8d613c2c565b9094509250600061150c8e8e8e7f00000000000000000000000000000000000000000000000000000000000000006116e1565b905061151a8e3383886134ae565b6115268d3383876134ae565b6040516335313c2160e11b81526001600160a01b03821690636a62784290611552908a90600401614e9f565b6020604051808303816000875af1158015611571573d6000803e3d6000fd5b505050506040513d601f19601f82011682018060405250810190611595919061577b565b9250505099509950999650505050505050565b6000806000806115bb8d8d8d8d8d612643565b90945092508391508290506060871561164c57611620838a8a808060200260200160405190810160405280939291908181526020016000905b828210156106e957611611608083028601368190038101906156df565b815260200190600101906115f4565b905080600182516116319190615711565b8151811061164157611641615724565b602002602001015194505b85156116d0576116a4828888808060200260200160405190810160405280939291908181526020016000905b828210156106e957611695608083028601368190038101906156df565b81526020019060010190611678565b905080600182516116b59190615711565b815181106116c5576116c5615724565b602002602001015193505b509950995099509995505050505050565b60007f0000000000000000000000000000000000000000000000000000000000000000816001600160a01b0384161561171a578361171c565b815b60405163d1ea0a1d60e01b81529091506001600160a01b037f0000000000000000000000000000000000000000000000000000000000000000169063d1ea0a1d9061176b908490600401614e9f565b602060405180830381865afa158015611788573d6000803e3d6000fd5b505050506040513d601f19601f820116820180604052508101906117ac91906157ad565b6117c957604051634d39d5a360e11b815260040160405180910390fd5b6000806117d68989611119565b6040516001600160601b0319606084811b8216602084015283901b16603482015289151560f81b604882015291935091506000906049016040516020818303038152906040528051906020012090506118e7846001600160a01b0316635c60da1b6040518163ffffffff1660e01b8152600401602060405180830381865afa158015611866573d6000803e3d6000fd5b505050506040513d601f19601f8201168201806040525081019061188a9190615823565b604051603881018790526f5af43d82803e903d91602b57fd5bf3ff60248201526014810191909152733d602d80600a3d3981f3363d3d373d3d3d363d738152605881018390526037600c8201206078820152605560439091012090565b9a9950505050505050505050565b806118ff816133d8565b611915858560008181106109cb576109cb615724565b6000611922600186615711565b9050600086868381811061193857611938615724565b905060800201602001602081019061195091906151f9565b6001600160a01b03166370a08231866040518263ffffffff1660e01b815260040161197b9190614e9f565b602060405180830381865afa158015611998573d6000803e3d6000fd5b505050506040513d601f19601f820116820180604052508101906119bc919061577b565b9050611a1a8787808060200260200160405190810160405280939291908181526020016000905b82821015611a0f57611a00608083028601368190038101906156df565b815260200190600101906119e3565b505050505086613528565b8781888885818110611a2e57611a2e615724565b9050608002016020016020810190611a4691906151f9565b6001600160a01b03166370a08231886040518263ffffffff1660e01b8152600401610f449190614e9f565b6000806000611a808787611119565b509050600080611a92898989896116e1565b6001600160a01b0316630902f1ac6040518163ffffffff1660e01b8152600401606060405180830381865afa158015611acf573d6000803e3d6000fd5b505050506040513d601f19601f82011682018060405250810190611af39190615840565b5091509150826001600160a01b0316896001600160a01b031614611b18578082611b1b565b81815b909a909950975050505050505050565b606081611b37816133d8565b7f00000000000000000000000000000000000000000000000000000000000000006001600160a01b031686866000818110611b7457611b74615724565b611b8a92602060809092020190810191506151f9565b6001600160a01b031614611bb1576040516320db826760e01b815260040160405180910390fd5b611c03348787808060200260200160405190810160405280939291908181526020016000905b828210156106e957611bf4608083028601368190038101906156df565b81526020019060010190611bd7565b9150868260018451611c159190615711565b81518110611c2557611c25615724565b60200260200101511015611c4c576040516342301c2360e01b815260040160405180910390fd5b7f00000000000000000000000000000000000000000000000000000000000000006001600160a01b031663d0e30db083600081518110611c8e57611c8e615724565b60200260200101516040518263ffffffff1660e01b81526004016000604051808303818588803b158015611cc157600080fd5b505af1158015611cd5573d6000803e3d6000fd5b50505050507f00000000000000000000000000000000000000000000000000000000000000006001600160a01b031663a9059cbb611d1f888860008181106109ff576109ff615724565b84600081518110611d3257611d32615724565b60200260200101516040518363ffffffff1660e01b8152600401611d57929190615794565b6020604051808303816000875af1158015611d76573d6000803e3d6000fd5b505050506040513d601f19601f82011682018060405250810190611d9a91906157ad565b611da657611da66157ca565b61110f828787808060200260200160405190810160405280939291908181526020016000905b8282101561110057611de9608083028601368190038101906156df565b81526020019060010190611dcc565b6000611e0760208701876151f9565b90506000611e1b60408801602089016151f9565b905060006001600160a01b038a1673eeeeeeeeeeeeeeeeeeeeeeeeeeeeeeeeeeeeeeee14611e495789611e6b565b7f00000000000000000000000000000000000000000000000000000000000000005b9050611e778989613e95565b6000816001600160a01b0316846001600160a01b031614611fc8576040516370a0823160e01b81526001600160a01b038516906370a0823190611ebe903090600401614e9f565b602060405180830381865afa158015611edb573d6000803e3d6000fd5b505050506040513d601f19601f82011682018060405250810190611eff919061577b565b90506001600160a01b0382168888611f18600182615711565b818110611f2757611f27615724565b9050608002016020016020810190611f3f91906151f9565b6001600160a01b031614611f66576040516309d41c6760e31b815260040160405180910390fd5b611fc884828b608001358b8b808060200260200160405190810160405280939291908181526020016000905b82821015611fbe57611faf608083028601368190038101906156df565b81526020019060010190611f92565b5050505050613ffc565b816001600160a01b0316836001600160a01b03161461210d576040516370a0823160e01b81526001600160a01b038416906370a082319061200d903090600401614e9f565b602060405180830381865afa15801561202a573d6000803e3d6000fd5b505050506040513d601f19601f8201168201806040525081019061204e919061577b565b90506001600160a01b0382168686612067600182615711565b81811061207657612076615724565b905060800201602001602081019061208e91906151f9565b6001600160a01b0316146120b5576040516332b2410360e21b815260040160405180910390fd5b61210d83828b60a001358989808060200260200160405190810160405280939291908181526020016000905b82821015611fbe576120fe608083028601368190038101906156df565b815260200190600101906120e1565b6121168b6140e6565b5050505050505050505050565b600080600083612132816133d8565b6121618b7f00000000000000000000000000000000000000000000000000000000000000008c8c348d8d613c2c565b909450925060006121b48c7f00000000000000000000000000000000000000000000000000000000000000008d7f00000000000000000000000000000000000000000000000000000000000000006116e1565b90506121c98c6121c26133fc565b83886134ae565b7f00000000000000000000000000000000000000000000000000000000000000006001600160a01b031663d0e30db0856040518263ffffffff1660e01b81526004016000604051808303818588803b15801561222457600080fd5b505af1158015612238573d6000803e3d6000fd5b505060405163a9059cbb60e01b81526001600160a01b037f000000000000000000000000000000000000000000000000000000000000000016935063a9059cbb925061228b915084908890600401615794565b6020604051808303816000875af11580156122aa573d6000803e3d6000fd5b505050506040513d601f19601f820116820180604052508101906122ce91906157ad565b6122da576122da6157ca565b6040516335313c2160e11b81526001600160a01b03821690636a62784290612306908a90600401614e9f565b6020604051808303816000875af1158015612325573d6000803e3d6000fd5b505050506040513d601f19601f82011682018060405250810190612349919061577b565b92508334111561236d5761236d61235e6133fc565b6123688634615711565b613940565b50509750975097945050505050565b606081612388816133d8565b6001600160a01b037f00000000000000000000000000000000000000000000000000000000000000001686866123bf600182615711565b8181106123ce576123ce615724565b90506080020160200160208101906123e691906151f9565b6001600160a01b03161461240d576040516320db826760e01b815260040160405180910390fd5b61245f888787808060200260200160405190810160405280939291908181526020016000905b828210156106e957612450608083028601368190038101906156df565b81526020019060010190612433565b91508682600184516124719190615711565b8151811061248157612481615724565b602002602001015110156124a8576040516342301c2360e01b815260040160405180910390fd5b612505868660008181106124be576124be615724565b6124d492602060809092020190810191506151f9565b6124dc6133fc565b6124f28989600081811061100f5761100f615724565b856000815181106110a1576110a1615724565b612562828787808060200260200160405190810160405280939291908181526020016000905b8282101561255757612548608083028601368190038101906156df565b8152602001906001019061252b565b5050505050306139d3565b7f00000000000000000000000000000000000000000000000000000000000000006001600160a01b0316632e1a7d4d83600185516125a09190615711565b815181106125b0576125b0615724565b60200260200101516040518263ffffffff1660e01b81526004016125d691815260200190565b600060405180830381600087803b1580156125f057600080fd5b505af1158015612604573d6000803e3d6000fd5b5050505061263884836001855161261b9190615711565b8151811061262b5761262b615724565b6020026020010151613940565b509695505050505050565b6000806000846001600160a01b03166379bc57d58989896040518463ffffffff1660e01b81526004016126789392919061586e565b602060405180830381865afa158015612695573d6000803e3d6000fd5b505050506040513d601f19601f820116820180604052508101906126b99190615823565b90506001600160a01b0381166126d6576000809250925050612782565b6000806126e58a8a8a8a611a71565b915091506000836001600160a01b03166318160ddd6040518163ffffffff1660e01b8152600401602060405180830381865afa158015612729573d6000803e3d6000fd5b505050506040513d601f19601f8201168201806040525081019061274d919061577b565b90508061275a8489615892565b61276491906158bf565b9550806127718389615892565b61277b91906158bf565b9450505050505b9550959350505050565b606081612798816133d8565b6127ea888787808060200260200160405190810160405280939291908181526020016000905b828210156106e9576127db608083028601368190038101906156df565b815260200190600101906127be565b91508682600184516127fc9190615711565b8151811061280c5761280c615724565b60200260200101511015612833576040516342301c2360e01b815260040160405180910390fd5b6128768686600081811061284957612849615724565b61285f92602060809092020190810191506151f9565b336124f28989600081811061100f5761100f615724565b612638828787808060200260200160405190810160405280939291908181526020016000905b82821015611100576128b9608083028601368190038101906156df565b8152602001906001019061289c565b600080600080866001600160a01b03166379bc57d58b8b8b6040518463ffffffff1660e01b81526004016128fe9392919061586e565b602060405180830381865afa15801561291b573d6000803e3d6000fd5b505050506040513d601f19601f8201168201806040525081019061293f9190615823565b9050600080806001600160a01b038416156129ca57836001600160a01b03166318160ddd6040518163ffffffff1660e01b8152600401602060405180830381865afa158015612992573d6000803e3d6000fd5b505050506040513d601f19601f820116820180604052508101906129b6919061577b565b90506129c48d8d8d8d611a71565b90935091505b821580156129d6575081155b15612a07578896508795506103e86129f66129f1888a615892565b6142bb565b612a009190615711565b9450612a9a565b6000612a148a85856143a3565b9050888111612a5c57899750955085612a5584612a31848b615892565b612a3b91906158bf565b84612a46858b615892565b612a5091906158bf565b61440c565b9550612a98565b6000612a698a85876143a3565b9850899750889050612a9485612a7f8584615892565b612a8991906158bf565b85612a46868c615892565b9650505b505b5050505096509650969350505050565b60008082612ab7816133d8565b612ae78a7f00000000000000000000000000000000000000000000000000000000000000008b8b8b8b308b6107cc565b9093509150612af78a8685614426565b604051632e1a7d4d60e01b8152600481018390527f00000000000000000000000000000000000000000000000000000000000000006001600160a01b031690632e1a7d4d90602401600060405180830381600087803b158015612b5957600080fd5b505af1158015612b6d573d6000803e3d6000fd5b50505050612b7b8583613940565b5097509795505050505050565b600080612b9885856001866116e1565b90506000856001600160a01b031663313ce5676040518163ffffffff1660e01b8152600401602060405180830381865afa158015612bda573d6000803e3d6000fd5b505050506040513d601f19601f82011682018060405250810190612bfe91906158e1565b612c0990600a6159e8565b90506000856001600160a01b031663313ce5676040518163ffffffff1660e01b8152600401602060405180830381865afa158015612c4b573d6000803e3d6000fd5b505050506040513d601f19601f82011682018060405250810190612c6f91906158e1565b612c7a90600a6159e8565b6040516378a051ad60e11b815290915082906000906001600160a01b0386169063f140a35a90612cb09085908d906004016157f3565b602060405180830381865afa158015612ccd573d6000803e3d6000fd5b505050506040513d601f19601f82011682018060405250810190612cf1919061577b565b9050600080612d058b8b60018c88886128c8565b50909250905085612d1e83670de0b6b3a7640000615892565b612d2891906158bf565b915084612d3d82670de0b6b3a7640000615892565b612d4791906158bf565b905084612d5c84670de0b6b3a7640000615892565b612d6691906158bf565b925085612d7b85670de0b6b3a7640000615892565b612d8591906158bf565b9350808285612d9c86670de0b6b3a7640000615892565b612da691906158bf565b612db09190615892565b612dba91906158bf565b9750612dce88670de0b6b3a76400006157e0565b612de085670de0b6b3a7640000615892565b612dea91906158bf565b9750505050505050505b9392505050565b600080612e088a8c6157e0565b90508b3473eeeeeeeeeeeeeeeeeeeeeeeeeeeeeeeeeeeeeeed196001600160a01b03831601612eed57808314612e5157604051633851fdc960e11b815260040160405180910390fd5b7f000000000000000000000000000000000000000000000000000000000000000091507f00000000000000000000000000000000000000000000000000000000000000006001600160a01b031663d0e30db0826040518263ffffffff1660e01b81526004016000604051808303818588803b158015612ecf57600080fd5b505af1158015612ee3573d6000803e3d6000fd5b5050505050612f1f565b8015612f0c5760405163ae6d566f60e01b815260040160405180910390fd5b612f1f82612f186133fc565b30866134ae565b612f2f828e8e8e8e8e8e8e614518565b612f388b6147cd565b6000612f83612f4a60208e018e6151f9565b8d6020016020810190612f5d91906151f9565b8e6040016020810190612f70919061575e565b8f60600160208101906104ca91906151f9565b905085156131d9576040516335313c2160e11b81526001600160a01b03821690636a62784290612fb7903090600401614e9f565b6020604051808303816000875af1158015612fd6573d6000803e3d6000fd5b505050506040513d601f19601f82011682018060405250810190612ffa919061577b565b945060007f00000000000000000000000000000000000000000000000000000000000000006001600160a01b031663b9a09fd5836040518263ffffffff1660e01b815260040161304a9190614e9f565b602060405180830381865afa158015613067573d6000803e3d6000fd5b505050506040513d601f19601f8201168201806040525081019061308b9190615823565b60405163095ea7b360e01b81529091506001600160a01b0383169063095ea7b3906130bc9084908a90600401615794565b6020604051808303816000875af11580156130db573d6000803e3d6000fd5b505050506040513d601f19601f820116820180604052508101906130ff91906157ad565b50604051636e553f6560e01b81526001600160a01b03821690636e553f659061312e9089908c906004016157f3565b600060405180830381600087803b15801561314857600080fd5b505af115801561315c573d6000803e3d6000fd5b505060405163095ea7b360e01b81526001600160a01b038516925063095ea7b3915061318f908490600090600401615794565b6020604051808303816000875af11580156131ae573d6000803e3d6000fd5b505050506040513d601f19601f820116820180604052508101906131d291906157ad565b505061324b565b6040516335313c2160e11b81526001600160a01b03821690636a62784290613205908a90600401614e9f565b6020604051808303816000875af1158015613224573d6000803e3d6000fd5b505050506040513d601f19601f82011682018060405250810190613248919061577b565b94505b6132548f6140e6565b61326961326460208e018e6151f9565b6140e6565b61327c61326460408e0160208f016151f9565b505050509a9950505050505050505050565b60008161329a816133d8565b6132ca897f00000000000000000000000000000000000000000000000000000000000000008a8a8a8a308a6107cc565b6040516370a0823160e01b815290935061334891508a9086906001600160a01b038316906370a0823190613302903090600401614e9f565b602060405180830381865afa15801561331f573d6000803e3d6000fd5b505050506040513d601f19601f82011682018060405250810190613343919061577b565b614426565b604051632e1a7d4d60e01b8152600481018390527f00000000000000000000000000000000000000000000000000000000000000006001600160a01b031690632e1a7d4d90602401600060405180830381600087803b1580156133aa57600080fd5b505af11580156133be573d6000803e3d6000fd5b505050506133cc8483613940565b50979650505050505050565b428110156133f957604051630407b05b60e31b815260040160405180910390fd5b50565b600036601461340a33611489565b80156134165750808210155b15613446576000366134288385615711565b6134339282906159f7565b61343c91615a21565b60601c9250505090565b339250505090565b6134a884856001600160a01b03166323b872dd86868660405160240161347693929190615a4f565b604051602081830303815290604052915060e01b6020820180516001600160e01b038381831617835250505050614937565b50505050565b6040516323b872dd60e01b81526001600160a01b038516906323b872dd906134de90869086908690600401615a4f565b6020604051808303816000875af11580156134fd573d6000803e3d6000fd5b505050506040513d601f19601f8201168201806040525081019061352191906157ad565b5050505050565b815160005b818110156134a857600061357b85838151811061354c5761354c615724565b60200260200101516000015186848151811061356a5761356a615724565b602002602001015160200151611119565b509050600061360086848151811061359557613595615724565b6020026020010151600001518785815181106135b3576135b3615724565b6020026020010151602001518886815181106135d1576135d1615724565b6020026020010151604001518987815181106135ef576135ef615724565b6020026020010151606001516116e1565b9050600080600061368789878151811061361c5761361c615724565b6020026020010151600001518a888151811061363a5761363a615724565b6020026020010151602001518b898151811061365857613658615724565b6020026020010151604001518c8a8151811061367657613676615724565b602002602001015160600151611a71565b5090508089878151811061369d5761369d615724565b6020026020010151600001516001600160a01b03166370a08231866040518263ffffffff1660e01b81526004016136d49190614e9f565b602060405180830381865afa1580156136f1573d6000803e3d6000fd5b505050506040513d601f19601f82011682018060405250810190613715919061577b565b61371f9190615711565b925050826001600160a01b031663f140a35a838a888151811061374457613744615724565b6020026020010151600001516040518363ffffffff1660e01b815260040161376d9291906157f3565b602060405180830381865afa15801561378a573d6000803e3d6000fd5b505050506040513d601f19601f820116820180604052508101906137ae919061577b565b9050600080856001600160a01b03168a88815181106137cf576137cf615724565b6020026020010151600001516001600160a01b0316146137f1578260006137f5565b6000835b91509150600060018b516138099190615711565b881061381557896138b2565b6138b28b6138248a60016157e0565b8151811061383457613834615724565b6020026020010151600001518c8a600161384e91906157e0565b8151811061385e5761385e615724565b6020026020010151602001518d8b600161387891906157e0565b8151811061388857613888615724565b6020026020010151604001518e8c60016138a291906157e0565b815181106135ef576135ef615724565b6040805160008152602081019182905263022c0d9f60e01b9091529091506001600160a01b0387169063022c0d9f906138f49086908690869060248101615a97565b600060405180830381600087803b15801561390e57600080fd5b505af1158015613922573d6000803e3d6000fd5b505050505050505050505080806139389061580a565b91505061352d565b604080516000808252602082019092526001600160a01b03841690839060405161396a9190615ae7565b60006040518083038185875af1925050503d80600081146139a7576040519150601f19603f3d011682016040523d82523d6000602084013e6139ac565b606091505b50509050806139ce5760405163b12d13eb60e01b815260040160405180910390fd5b505050565b815160005b818110156135215760006139f785838151811061354c5761354c615724565b509050600086613a088460016157e0565b81518110613a1857613a18615724565b60200260200101519050600080836001600160a01b0316888681518110613a4157613a41615724565b6020026020010151600001516001600160a01b031614613a6357826000613a67565b6000835b91509150600060018951613a7b9190615711565b8610613a875787613b14565b613b1489613a968860016157e0565b81518110613aa657613aa6615724565b6020026020010151600001518a886001613ac091906157e0565b81518110613ad057613ad0615724565b6020026020010151602001518b896001613aea91906157e0565b81518110613afa57613afa615724565b6020026020010151604001518c8a60016138a291906157e0565b9050613b85898781518110613b2b57613b2b615724565b6020026020010151600001518a8881518110613b4957613b49615724565b6020026020010151602001518b8981518110613b6757613b67615724565b6020026020010151604001518c8a815181106135ef576135ef615724565b6001600160a01b031663022c0d9f84848460006040519080825280601f01601f191660200182016040528015613bc2576020820181803683370190505b506040518563ffffffff1660e01b8152600401613be29493929190615a97565b600060405180830381600087803b158015613bfc57600080fd5b505af1158015613c10573d6000803e3d6000fd5b5050505050505050508080613c249061580a565b9150506139d8565b60008083861015613c5057604051636e35977960e11b815260040160405180910390fd5b82851015613c715760405163acee051360e01b815260040160405180910390fd5b6040516379bc57d560e01b81526000906001600160a01b037f000000000000000000000000000000000000000000000000000000000000000016906379bc57d590613cc4908d908d908d9060040161586e565b602060405180830381865afa158015613ce1573d6000803e3d6000fd5b505050506040513d601f19601f82011682018060405250810190613d059190615823565b90506001600160a01b038116613dab576040516301b5fcad60e51b81526001600160a01b037f000000000000000000000000000000000000000000000000000000000000000016906336bf95a090613d65908d908d908d9060040161586e565b6020604051808303816000875af1158015613d84573d6000803e3d6000fd5b505050506040513d601f19601f82011682018060405250810190613da89190615823565b90505b600080613dda8c8c8c7f0000000000000000000000000000000000000000000000000000000000000000611a71565b91509150816000148015613dec575080155b15613dfc57889450879350613e86565b6000613e098a84846143a3565b9050888111613e3e5786811015613e3357604051630d32418960e21b815260040160405180910390fd5b899550935083613e84565b6000613e4b8a84866143a3565b90508a811115613e5d57613e5d6157ca565b88811015613e7e576040516323d9bb0560e21b815260040160405180910390fd5b95508894505b505b50505097509795505050505050565b6000613ea460208301836151f9565b90506000613eb860408401602085016151f9565b90506000613ee18383613ed1606088016040890161575e565b6104ca6080890160608a016151f9565b9050613ef86001600160a01b03821633838861344e565b6000613f048484611119565b509050600080836001600160a01b03166389afcb44306040518263ffffffff1660e01b8152600401613f369190614e9f565b60408051808303816000875af1158015613f54573d6000803e3d6000fd5b505050506040513d601f19601f82011682018060405250810190613f78919061573a565b91509150600080846001600160a01b0316886001600160a01b031614613f9f578284613fa2565b83835b915091508860c00135821015613fcb576040516323d9bb0560e21b815260040160405180910390fd5b8860e00135811015613ff057604051630d32418960e21b815260040160405180910390fd5b50505050505050505050565b600061400884836111a4565b905082816001835161401a9190615711565b8151811061402a5761402a615724565b60200260200101511015614051576040516342301c2360e01b815260040160405180910390fd5b60006140c68360008151811061406957614069615724565b6020026020010151600001518460008151811061408857614088615724565b602002602001015160200151856000815181106140a7576140a7615724565b602002602001015160400151866000815181106135ef576135ef615724565b90506140d3868287614426565b6140de8284306139d3565b505050505050565b60006140f06133fc565b9050600073eeeeeeeeeeeeeeeeeeeeeeeeeeeeeeeeeeeeeeed196001600160a01b03841601614232576040516370a0823160e01b81526001600160a01b037f000000000000000000000000000000000000000000000000000000000000000016906370a0823190614165903090600401614e9f565b602060405180830381865afa158015614182573d6000803e3d6000fd5b505050506040513d601f19601f820116820180604052508101906141a6919061577b565b905080156139ce57604051632e1a7d4d60e01b8152600481018290527f00000000000000000000000000000000000000000000000000000000000000006001600160a01b031690632e1a7d4d90602401600060405180830381600087803b15801561421057600080fd5b505af1158015614224573d6000803e3d6000fd5b505050506139ce8282613940565b6040516370a0823160e01b81526001600160a01b038416906370a082319061425e903090600401614e9f565b602060405180830381865afa15801561427b573d6000803e3d6000fd5b505050506040513d601f19601f8201168201806040525081019061429f919061577b565b905080156139ce576139ce6001600160a01b038416838361499a565b6000816000036142cd57506000919050565b600060016142da846149c0565b901c6001901b905060018184816142f3576142f36158a9565b048201901c9050600181848161430b5761430b6158a9565b048201901c90506001818481614323576143236158a9565b048201901c9050600181848161433b5761433b6158a9565b048201901c90506001818481614353576143536158a9565b048201901c9050600181848161436b5761436b6158a9565b048201901c90506001818481614383576143836158a9565b048201901c9050612df48182858161439d5761439d6158a9565b0461440c565b6000836000036143c657604051632ca2f52b60e11b815260040160405180910390fd5b8215806143d1575081155b156143ef5760405163bb55fd2760e01b815260040160405180910390fd5b826143fa8386615892565b61440491906158bf565b949350505050565b600081831061441b578161441d565b825b90505b92915050565b6000836001600160a01b03163b1161443d57600080fd5b600080846001600160a01b031663a9059cbb60e01b8585604051602401614465929190615794565b60408051601f198184030181529181526020820180516001600160e01b03166001600160e01b03199094169390931790925290516144a39190615ae7565b6000604051808303816000865af19150503d80600081146144e0576040519150601f19603f3d011682016040523d82523d6000602084013e6144e5565b606091505b509150915081801561450f57508051158061450f57508080602001905181019061450f91906157ad565b61352157600080fd5b600061452760208701876151f9565b9050600061453b60408801602089016151f9565b9050600061454f6060890160408a0161575e565b9050600061456360808a0160608b016151f9565b90506000614573858585856116e1565b9050600080826001600160a01b0316630902f1ac6040518163ffffffff1660e01b8152600401606060405180830381865afa1580156145b6573d6000803e3d6000fd5b505050506040513d601f19601f820116820180604052508101906145da9190615840565b50915091506103e8821115806145f257506103e88111155b15614610576040516302721e1f60e61b815260040160405180910390fd5b5050846001600160a01b03168d6001600160a01b0316146146e8576001600160a01b0385168989614642600182615711565b81811061465157614651615724565b905060800201602001602081019061466991906151f9565b6001600160a01b031614614690576040516309d41c6760e31b815260040160405180910390fd5b6146e88d8d8c608001358c8c808060200260200160405190810160405280939291908181526020016000905b82821015611fbe576146d9608083028601368190038101906156df565b815260200190600101906146bc565b836001600160a01b03168d6001600160a01b0316146147be576001600160a01b0384168787614718600182615711565b81811061472757614727615724565b905060800201602001602081019061473f91906151f9565b6001600160a01b031614614766576040516332b2410360e21b815260040160405180910390fd5b6147be8d8c8c60a001358a8a808060200260200160405190810160405280939291908181526020016000905b82821015611fbe576147af608083028601368190038101906156df565b81526020019060010190614792565b50505050505050505050505050565b60006147dc60208301836151f9565b905060006147f060408401602085016151f9565b90506000614804606085016040860161575e565b9050600061481860808601606087016151f9565b90506000614828858585856116e1565b905060008061491d878787878b6001600160a01b03166370a08231306040518263ffffffff1660e01b81526004016148609190614e9f565b602060405180830381865afa15801561487d573d6000803e3d6000fd5b505050506040513d601f19601f820116820180604052508101906148a1919061577b565b6040516370a0823160e01b81526001600160a01b038d16906370a08231906148cd903090600401614e9f565b602060405180830381865afa1580156148ea573d6000803e3d6000fd5b505050506040513d601f19601f8201168201806040525081019061490e919061577b565b8e60c001358f60e00135614a54565b9150915061492c878484614426565b610c2f868483614426565b600061494c6001600160a01b03841683614b63565b9050805160001415801561497157508080602001905181019061496f91906157ad565b155b156139ce5782604051635274afe760e01b81526004016149919190614e9f565b60405180910390fd5b6139ce83846001600160a01b031663a9059cbb8585604051602401613476929190615794565b600080608083901c156149d557608092831c92015b604083901c156149e757604092831c92015b602083901c156149f957602092831c92015b601083901c15614a0b57601092831c92015b600883901c15614a1d57600892831c92015b600483901c15614a2f57600492831c92015b600283901c15614a4157600292831c92015b600183901c156144205760010192915050565b60008083861015614a7857604051636e35977960e11b815260040160405180910390fd5b82851015614a995760405163acee051360e01b815260040160405180910390fd5b600080614aa88c8c8c8c611a71565b91509150816000148015614aba575080155b15614aca57879350869250614b54565b6000614ad78984846143a3565b9050878111614b0c5785811015614b0157604051630d32418960e21b815260040160405180910390fd5b889450925082614b52565b6000614b198984866143a3565b905089811115614b2b57614b2b6157ca565b87811015614b4c576040516323d9bb0560e21b815260040160405180910390fd5b94508793505b505b50509850989650505050505050565b606061441d8383600084600080856001600160a01b03168486604051614b899190615ae7565b60006040518083038185875af1925050503d8060008114614bc6576040519150601f19603f3d011682016040523d82523d6000602084013e614bcb565b606091505b5091509150614bdb868383614be5565b9695505050505050565b606082614bfa57614bf582614c38565b612df4565b8151158015614c1157506001600160a01b0384163b155b15614c315783604051639996b31560e01b81526004016149919190614e9f565b5080612df4565b805115614c485780518082602001fd5b604051630a12f52160e11b815260040160405180910390fd5b6001600160a01b03811681146133f957600080fd5b8035614c8181614c61565b919050565b80151581146133f957600080fd5b60008083601f840112614ca657600080fd5b5081356001600160401b03811115614cbd57600080fd5b6020830191508360208260071b850101111561119d57600080fd5b6000806000806000806000806000806101008b8d031215614cf857600080fd5b8a35614d0381614c61565b995060208b0135614d1381614c61565b985060408b0135614d2381614c86565b975060608b0135614d3381614c61565b965060808b0135955060a08b0135945060c08b01356001600160401b0380821115614d5d57600080fd5b614d698e838f01614c94565b909650945060e08d0135915080821115614d8257600080fd5b50614d8f8d828e01614c94565b915080935050809150509295989b9194979a5092959850565b600080600080600080600080610100898b031215614dc557600080fd5b8835614dd081614c61565b97506020890135614de081614c61565b96506040890135614df081614c86565b9550606089013594506080890135935060a0890135925060c0890135614e1581614c61565b8092505060e089013590509295985092959890939650565b60008060008060008060a08789031215614e4657600080fd5b863595506020870135945060408701356001600160401b03811115614e6a57600080fd5b614e7689828a01614c94565b9095509350506060870135614e8a81614c61565b80925050608087013590509295509295509295565b6001600160a01b0391909116815260200190565b600080600080600060808688031215614ecb57600080fd5b8535945060208601356001600160401b03811115614ee857600080fd5b614ef488828901614c94565b9095509350506040860135614f0881614c61565b949793965091946060013592915050565b634e487b7160e01b600052604160045260246000fd5b604051601f8201601f191681016001600160401b0381118282101715614f5757614f57614f19565b604052919050565b60006001600160401b03821115614f7857614f78614f19565b5060051b60200190565b600080600080600060808688031215614f9a57600080fd5b85356001600160401b0380821115614fb157600080fd5b818801915088601f830112614fc557600080fd5b81356020614fda614fd583614f5f565b614f2f565b82815260059290921b8401810191818101908c841115614ff957600080fd5b948201945b8386101561501757853582529482019490820190614ffe565b9950508901359250508082111561502d57600080fd5b5061503a88828901614c94565b9095509350614f08905060408701614c76565b6020808252825182820181905260009190848201906040850190845b8181101561508557835183529284019291840191600101615069565b50909695505050505050565b600080604083850312156150a457600080fd5b82356150af81614c61565b915060208301356150bf81614c61565b809150509250929050565b6000608082840312156150dc57600080fd5b604051608081018181106001600160401b03821117156150fe576150fe614f19565b604052905080823561510f81614c61565b8152602083013561511f81614c61565b6020820152604083013561513281614c86565b6040820152606083013561514581614c61565b6060919091015292915050565b6000806040838503121561516557600080fd5b823591506020808401356001600160401b0381111561518357600080fd5b8401601f8101861361519457600080fd5b80356151a2614fd582614f5f565b81815260079190911b820183019083810190888311156151c157600080fd5b928401925b828410156151ea576151d889856150ca565b825284820191506080840193506151c6565b80955050505050509250929050565b60006020828403121561520b57600080fd5b8135612df481614c61565b60008060008060008060008060006101208a8c03121561523557600080fd5b893561524081614c61565b985060208a013561525081614c61565b975060408a013561526081614c86565b965060608a0135955060808a0135945060a08a0135935060c08a0135925060e08a013561528c81614c61565b809250506101008a013590509295985092959850929598565b600080600080600080600080600060e08a8c0312156152c357600080fd5b89356152ce81614c61565b985060208a01356152de81614c61565b975060408a01356152ee81614c86565b965060608a01356152fe81614c61565b955060808a0135945060a08a01356001600160401b038082111561532157600080fd5b61532d8d838e01614c94565b909650945060c08c013591508082111561534657600080fd5b506153538c828d01614c94565b915080935050809150509295985092959850929598565b6000806000806080858703121561538057600080fd5b843561538b81614c61565b9350602085013561539b81614c61565b925060408501356153ab81614c86565b915060608501356153bb81614c61565b939692955090935050565b600061010082840312156153d957600080fd5b50919050565b6000806000806000806000610180888a0312156153fb57600080fd5b873561540681614c61565b96506020880135955061541c8960408a016153c6565b94506101408801356001600160401b038082111561543957600080fd5b6154458b838c01614c94565b90965094506101608a013591508082111561545f57600080fd5b5061546c8a828b01614c94565b989b979a50959850939692959293505050565b600080600080600080600060e0888a03121561549a57600080fd5b87356154a581614c61565b965060208801356154b581614c86565b955060408801359450606088013593506080880135925060a08801356154da81614c61565b8092505060c0880135905092959891949750929550565b600080600080600060a0868803121561550957600080fd5b853561551481614c61565b9450602086013561552481614c61565b9350604086013561553481614c86565b9250606086013561554481614c61565b949793965091946080013592915050565b60008060008060008060c0878903121561556e57600080fd5b863561557981614c61565b9550602087013561558981614c61565b9450604087013561559981614c86565b935060608701356155a981614c61565b9598949750929560808101359460a0909101359350915050565b6000806000606084860312156155d857600080fd5b83356155e381614c61565b925060208401356155f381614c61565b9150604084013561560381614c61565b809150509250925092565b6000806000806000806000806000806101e08b8d03121561562e57600080fd5b8a3561563981614c61565b995060208b0135985060408b013597506156568c60608d016153c6565b96506101608b01356001600160401b038082111561567357600080fd5b61567f8e838f01614c94565b90985096506101808d013591508082111561569957600080fd5b506156a68d828e01614c94565b9095509350506101a08b01356156bb81614c61565b91506101c08b01356156cc81614c86565b809150509295989b9194979a5092959850565b6000608082840312156156f157600080fd5b61441d83836150ca565b634e487b7160e01b600052601160045260246000fd5b81810381811115614420576144206156fb565b634e487b7160e01b600052603260045260246000fd5b6000806040838503121561574d57600080fd5b505080516020909101519092909150565b60006020828403121561577057600080fd5b8135612df481614c86565b60006020828403121561578d57600080fd5b5051919050565b6001600160a01b03929092168252602082015260400190565b6000602082840312156157bf57600080fd5b8151612df481614c86565b634e487b7160e01b600052600160045260246000fd5b80820180821115614420576144206156fb565b9182526001600160a01b0316602082015260400190565b60006001820161581c5761581c6156fb565b5060010190565b60006020828403121561583557600080fd5b8151612df481614c61565b60008060006060848603121561585557600080fd5b8351925060208401519150604084015190509250925092565b6001600160a01b039384168152919092166020820152901515604082015260600190565b8082028115828204841417614420576144206156fb565b634e487b7160e01b600052601260045260246000fd5b6000826158dc57634e487b7160e01b600052601260045260246000fd5b500490565b6000602082840312156158f357600080fd5b815160ff81168114612df457600080fd5b600181815b8085111561593f578160001904821115615925576159256156fb565b8085161561593257918102915b93841c9390800290615909565b509250929050565b60008261595657506001614420565b8161596357506000614420565b816001811461597957600281146159835761599f565b6001915050614420565b60ff841115615994576159946156fb565b50506001821b614420565b5060208310610133831016604e8410600b84101617156159c2575081810a614420565b6159cc8383615904565b80600019048211156159e0576159e06156fb565b029392505050565b600061441d60ff841683615947565b60008085851115615a0757600080fd5b83861115615a1457600080fd5b5050820193919092039150565b6001600160601b031981358181169160148510156114815760149490940360031b84901b1690921692915050565b6001600160a01b039384168152919092166020820152604081019190915260600190565b60005b83811015615a8e578181015183820152602001615a76565b50506000910152565b84815283602082015260018060a01b03831660408201526080606082015260008251806080840152615ad08160a0850160208701615a73565b601f01601f19169190910160a00195945050505050565b60008251615af9818460208701615a73565b919091019291505056fea26469706673582212205cafbc77ca666e6456979c18872974073d6f1948455c5193f7a8b6e751b7064664736f6c63430008140033",
  "linkReferences": {},
  "deployedLinkReferences": {}
}