{
  "_format": "hh-sol-artifact-1",
  "contractName": "VotingRewardsFactory",
  "sourceName": "contracts/aerodrome/factories/VotingRewardsFactory.sol",
  "abi": [
    {
      "inputs": [
        {
          "internalType": "address",
          "name": "_forwarder",
          "type": "address"
        },
        {
          "internalType": "address[]",
          "name": "_rewards",
          "type": "address[]"
        }
      ],
      "name": "createRewards",
      "outputs": [
        {
          "internalType": "address",
          "name": "feesVotingReward",
          "type": "address"
        },
        {
          "internalType": "address",
          "name": "bribeVotingReward",
          "type": "address"
        }
      ],
      "stateMutability": "nonpayable",
      "type": "function"
    }
  ],
  "bytecode": "0x608060405234801561001057600080fd5b50613897806100206000396000f3fe608060405234801561001057600080fd5b506004361061002b5760003560e01c80634c455a9714610030575b600080fd5b61004361003e366004610131565b610067565b604080516001600160a01b0393841681529290911660208301520160405180910390f35b600080833384604051610079906100e5565b61008593929190610209565b604051809103906000f0801580156100a1573d6000803e3d6000fd5b5091508333846040516100b3906100f2565b6100bf93929190610209565b604051809103906000f0801580156100db573d6000803e3d6000fd5b5090509250929050565b611ada8061026d83390190565b611b1b80611d4783390190565b80356001600160a01b038116811461011657600080fd5b919050565b634e487b7160e01b600052604160045260246000fd5b6000806040838503121561014457600080fd5b61014d836100ff565b915060208084013567ffffffffffffffff8082111561016b57600080fd5b818601915086601f83011261017f57600080fd5b8135818111156101915761019161011b565b8060051b604051601f19603f830116810181811085821117156101b6576101b661011b565b6040529182528482019250838101850191898311156101d457600080fd5b938501935b828510156101f9576101ea856100ff565b845293850193928501926101d9565b8096505050505050509250929050565b60006060820160018060a01b03808716845260208187168186015260606040860152828651808552608087019150828801945060005b8181101561025d57855185168352948301949183019160010161023f565b5090999850505050505050505056fe60e06040523480156200001157600080fd5b5060405162001ada38038062001ada833981016040819052620000349162000233565b6001600160a01b038084166080526001600055821660a081905260408051630fc2838b60e11b81529051859285928592859285929091631f850716916004808201926020929091908290030181865afa15801562000096573d6000803e3d6000fd5b505050506040513d601f19601f82011682018060405250810190620000bc91906200032d565b6001600160a01b031660c0525050805160005b81811015620001d15760006001600160a01b0316838281518110620000f857620000f862000352565b60200260200101516001600160a01b031614620001bc576001600760008584815181106200012a576200012a62000352565b60200260200101516001600160a01b03166001600160a01b0316815260200190815260200160002060006101000a81548160ff021916908315150217905550600683828151811062000180576200018062000352565b60209081029190910181015182546001810184556000938452919092200180546001600160a01b0319166001600160a01b039092169190911790555b80620001c88162000368565b915050620000cf565b5050600180546001600160a01b0319166001600160a01b03939093169290921790915550620003909350505050565b80516001600160a01b03811681146200021857600080fd5b919050565b634e487b7160e01b600052604160045260246000fd5b6000806000606084860312156200024957600080fd5b620002548462000200565b925060206200026581860162000200565b60408601519093506001600160401b03808211156200028357600080fd5b818701915087601f8301126200029857600080fd5b815181811115620002ad57620002ad6200021d565b8060051b604051601f19603f83011681018181108582111715620002d557620002d56200021d565b60405291825284820192508381018501918a831115620002f457600080fd5b938501935b828510156200031d576200030d8562000200565b84529385019392850192620002f9565b8096505050505050509250925092565b6000602082840312156200034057600080fd5b6200034b8262000200565b9392505050565b634e487b7160e01b600052603260045260246000fd5b6000600182016200038957634e487b7160e01b600052601160045260246000fd5b5060010190565b60805160a05160c0516116f7620003e36000396000818161018801528181610bd30152610cb80152600081816101e2015281816109a30152610c4c0152600081816102c601526105f401526116f76000f3fe608060405234801561001057600080fd5b50600436106101585760003560e01c806392777b29116100c3578063e8111a121161007c578063e8111a1214610378578063f25e55a514610381578063f301af42146103ac578063f3207723146103bf578063f5f8d365146103d2578063f7412baf146103e557600080fd5b806392777b29146102ea5780639cc7f708146103155780639e2bf22c14610335578063a28d4c9c1461034a578063b66503cf1461035d578063e68863961461037057600080fd5b806349dcc2041161011557806349dcc204146102045780634d5ce0381461024b578063505897931461027e578063572b6c051461029e57806376f4be36146102b15780637da0a877146102c457600080fd5b806318160ddd1461015d5780631be05289146101795780631f850716146101835780633e491d47146101b7578063456cb7c6146101ca57806346c96aac146101dd575b600080fd5b61016660025481565b6040519081526020015b60405180910390f35b61016662093a8081565b6101aa7f000000000000000000000000000000000000000000000000000000000000000081565b60405161017091906113ac565b6101666101c53660046113e5565b61040c565b6001546101aa906001600160a01b031681565b6101aa7f000000000000000000000000000000000000000000000000000000000000000081565b610236610212366004611411565b60086020908152600092835260408084209091529082529020805460019091015482565b60408051928352602083019190915201610170565b61026e610259366004611433565b60076020526000908152604090205460ff1681565b6040519015158152602001610170565b61016661028c366004611450565b60096020526000908152604090205481565b61026e6102ac366004611433565b6105f2565b6101666102bf366004611450565b610624565b7f00000000000000000000000000000000000000000000000000000000000000006101aa565b6101666102f83660046113e5565b600460209081526000928352604080842090915290825290205481565b610166610323366004611450565b60036020526000908152604090205481565b610348610343366004611411565b610758565b005b610166610358366004611411565b610838565b61034861036b3660046113e5565b61097d565b600654610166565b610166600b5481565b61016661038f3660046113e5565b600560209081526000928352604080842090915290825290205481565b6101aa6103ba366004611450565b610a9b565b6103486103cd366004611411565b610ac5565b6103486103e036600461147f565b610b98565b6102366103f3366004611450565b600a602052600090815260409020805460019091015482565b6000818152600960205260408120548103610429575060006105ec565b6001600160a01b038316600090815260056020908152604080832085845290915281205460019062093a8081069003826104638683610838565b60008781526008602090815260408083208484528252918290208251808401909352805480845260019091015491830191909152919250906104ae90849062093a8081069003610d44565b9250600062093a806104c585428381069003611566565b6104cf9190611579565b905080156105e35760005b818110156105e1576104ff8960016104f562093a808961159b565b6103589190611566565b60008a815260086020908152604080832084845282528083208151808301909252805482526001908101549282019290925292965091945061057391600a919061055a9061055062093a808b61159b565b6102bf9190611566565b8152602001908152602001600020600101546001610d44565b6001600160a01b038b1660009081526004602090815260408083208984528252909120549085015191975087916105aa91906115ae565b6105b49190611579565b6105be908861159b565b96506105cd62093a808661159b565b9450806105d9816115c5565b9150506104da565b505b50939450505050505b92915050565b7f00000000000000000000000000000000000000000000000000000000000000006001600160a01b0390811691161490565b600b5460009080820361063a5750600092915050565b82600a600061064a600185611566565b815260200190815260200160002060000154116106735761066c600182611566565b9392505050565b60008052600a6020527f13da86008ba1c6922daee3e07db95305ef49ebced9f5467a0b8613fcc6b343e3548310156106ae5750600092915050565b6000806106bc600184611566565b90505b8181111561075057600060026106d58484611566565b6106df9190611579565b6106e99083611566565b6000818152600a602090815260409182902082518084019093528054808452600190910154918301919091529192509087900361072a575095945050505050565b805187111561073b57819350610749565b610746600183611566565b92505b50506106bf565b509392505050565b6000610762610d5a565b6001549091506001600160a01b038083169116146107935760405163ea8e4eb560e01b815260040160405180910390fd5b82600260008282546107a59190611566565b9091555050600082815260036020526040812080548592906107c8908490611566565b90915550506000828152600360205260409020546107e7908390610dac565b6107ef610eb6565b81816001600160a01b03167ff279e6a1f5e320cca91135676d9cb6e44ca8a08c0b88342bcdb1144f6511b5688560405161082b91815260200190565b60405180910390a3505050565b6000828152600960205260408120548082036108585760009150506105ec565b60008481526008602052604081208491610873600185611566565b8152602001908152602001600020600001541161089d57610895600182611566565b9150506105ec565b60008481526008602090815260408083208380529091529020548310156108c85760009150506105ec565b6000806108d6600184611566565b90505b8181111561097457600060026108ef8484611566565b6108f99190611579565b6109039083611566565b600088815260086020908152604080832084845282529182902082518084019093528054808452600190910154918301919091529192509087900361094e575093506105ec92505050565b805187111561095f5781935061096d565b61096a600183611566565b92505b50506108d9565b50949350505050565b610985610f6e565b600061098f610d5a565b60405163c4f0816560e01b815290915030907f00000000000000000000000000000000000000000000000000000000000000006001600160a01b03169063c4f08165906109e09085906004016113ac565b602060405180830381865afa1580156109fd573d6000803e3d6000fd5b505050506040513d601f19601f82011682018060405250810190610a2191906115de565b6001600160a01b031614610a48576040516304639b6160e11b815260040160405180910390fd5b6001600160a01b03831660009081526007602052604090205460ff16610a81576040516314414f4160e11b815260040160405180910390fd5b610a8c818484610f98565b50610a976001600055565b5050565b60068181548110610aab57600080fd5b6000918252602090912001546001600160a01b0316905081565b6000610acf610d5a565b6001549091506001600160a01b03808316911614610b005760405163ea8e4eb560e01b815260040160405180910390fd5b8260026000828254610b12919061159b565b909155505060008281526003602052604081208054859290610b3590849061159b565b9091555050600082815260036020526040902054610b54908390610dac565b610b5c610eb6565b81816001600160a01b03167f90890809c654f11d6e72a28fa60149770a0d11ec6c92319d6ceb2bb0a4ea1a158560405161082b91815260200190565b610ba0610f6e565b6000610baa610d5a565b60405163430c208160e01b81526001600160a01b038083166004830152602482018690529192507f00000000000000000000000000000000000000000000000000000000000000009091169063430c2081906044016020604051808303816000875af1158015610c1e573d6000803e3d6000fd5b505050506040513d601f19601f82011682018060405250810190610c4291906115fb565b158015610c8157507f00000000000000000000000000000000000000000000000000000000000000006001600160a01b0316816001600160a01b031614155b15610c9f5760405163ea8e4eb560e01b815260040160405180910390fd5b6040516331a9108f60e11b8152600481018490526000907f00000000000000000000000000000000000000000000000000000000000000006001600160a01b031690636352211e90602401602060405180830381865afa158015610d07573d6000803e3d6000fd5b505050506040513d601f19601f82011682018060405250810190610d2b91906115de565b9050610d38818585611072565b5050610a976001600055565b6000818311610d53578161066c565b5090919050565b6000366014610d68336105f2565b8015610d745750808210155b15610da457600036610d868385611566565b610d9192829061161d565b610d9a91611647565b60601c9250505090565b339250505090565b600082815260096020526040902054428115801590610e0a575062093a80810681036000858152600860205260408120610e0891610deb600187611566565b81526020019081526020016000206000015462093a808106900390565b145b15610e60576040805180820182528281526020808201869052600087815260089091529182209091610e3d600186611566565b815260208082019290925260400160002082518155910151600190910155610eb0565b6040805180820182528281526020808201868152600088815260088352848120878252909252929020905181559051600191820155610ea090839061159b565b6000858152600960205260409020555b50505050565b600b54428115801590610ee0575062093a8081068103610ede600a6000610deb600187611566565b145b15610f2b57604080518082019091528181526002546020820152600a6000610f09600186611566565b8152602080820192909252604001600020825181559101516001909101555050565b60408051808201825282815260025460208083019182526000868152600a90915292909220905181559051600191820155610f6790839061159b565b600b555050565b600260005403610f9157604051633ee5aeb560e01b815260040160405180910390fd5b6002600055565b80600003610fb957604051631f2a200560e01b815260040160405180910390fd5b610fce6001600160a01b0383168430846111ab565b6000610fdf4262093a808106900390565b6001600160a01b038416600090815260046020908152604080832084845290915281208054929350849290919061101790849061159b565b9250508190555080836001600160a01b0316856001600160a01b03167f52977ea98a2220a03ee9ba5cb003ada08d394ea10155483c95dc2dc77a7eb24b8560405161106491815260200190565b60405180910390a450505050565b805160005b818110156111a45760006110a48483815181106110965761109661167c565b60200260200101518661040c565b905042600560008685815181106110bd576110bd61167c565b6020908102919091018101516001600160a01b031682528181019290925260409081016000908120898252909252902055801561112b5761112b868286858151811061110b5761110b61167c565b60200260200101516001600160a01b03166112129092919063ffffffff16565b83828151811061113d5761113d61167c565b60200260200101516001600160a01b0316866001600160a01b03167f9aa05b3d70a9e3e2f004f039648839560576334fb45c81f91b6db03ad9e2efc98360405161118991815260200190565b60405180910390a3508061119c816115c5565b915050611077565b5050505050565b6040516001600160a01b038481166024830152838116604483015260648201839052610eb09186918216906323b872dd906084015b604051602081830303815290604052915060e01b6020820180516001600160e01b038381831617835250505050611248565b6040516001600160a01b0383811660248301526044820183905261124391859182169063a9059cbb906064016111e0565b505050565b600061125d6001600160a01b038416836112ab565b9050805160001415801561128257508080602001905181019061128091906115fb565b155b156112435782604051635274afe760e01b81526004016112a291906113ac565b60405180910390fd5b606061066c8383600084600080856001600160a01b031684866040516112d19190611692565b60006040518083038185875af1925050503d806000811461130e576040519150601f19603f3d011682016040523d82523d6000602084013e611313565b606091505b509150915061132386838361132d565b9695505050505050565b6060826113425761133d82611380565b61066c565b815115801561135957506001600160a01b0384163b155b156113795783604051639996b31560e01b81526004016112a291906113ac565b508061066c565b8051156113905780518082602001fd5b604051630a12f52160e11b815260040160405180910390fd5b50565b6001600160a01b0391909116815260200190565b6001600160a01b03811681146113a957600080fd5b80356113e0816113c0565b919050565b600080604083850312156113f857600080fd5b8235611403816113c0565b946020939093013593505050565b6000806040838503121561142457600080fd5b50508035926020909101359150565b60006020828403121561144557600080fd5b813561066c816113c0565b60006020828403121561146257600080fd5b5035919050565b634e487b7160e01b600052604160045260246000fd5b6000806040838503121561149257600080fd5b8235915060208084013567ffffffffffffffff808211156114b257600080fd5b818601915086601f8301126114c657600080fd5b8135818111156114d8576114d8611469565b8060051b604051601f19603f830116810181811085821117156114fd576114fd611469565b60405291825284820192508381018501918983111561151b57600080fd5b938501935b8285101561154057611531856113d5565b84529385019392850192611520565b8096505050505050509250929050565b634e487b7160e01b600052601160045260246000fd5b818103818111156105ec576105ec611550565b60008261159657634e487b7160e01b600052601260045260246000fd5b500490565b808201808211156105ec576105ec611550565b80820281158282048414176105ec576105ec611550565b6000600182016115d7576115d7611550565b5060010190565b6000602082840312156115f057600080fd5b815161066c816113c0565b60006020828403121561160d57600080fd5b8151801515811461066c57600080fd5b6000808585111561162d57600080fd5b8386111561163a57600080fd5b5050820193919092039150565b6bffffffffffffffffffffffff1981358181169160148510156116745780818660140360031b1b83161692505b505092915050565b634e487b7160e01b600052603260045260246000fd5b6000825160005b818110156116b35760208186018101518583015201611699565b50600092019182525091905056fea26469706673582212205d4d71ec955342fced8f08de137a31253a5a603c9d9f6113adf10dd53c43c38b64736f6c6343000814003360e06040523480156200001157600080fd5b5060405162001b1b38038062001b1b833981016040819052620000349162000233565b6001600160a01b038084166080526001600055821660a081905260408051630fc2838b60e11b81529051859285928592859285929091631f850716916004808201926020929091908290030181865afa15801562000096573d6000803e3d6000fd5b505050506040513d601f19601f82011682018060405250810190620000bc91906200032d565b6001600160a01b031660c0525050805160005b81811015620001d15760006001600160a01b0316838281518110620000f857620000f862000352565b60200260200101516001600160a01b031614620001bc576001600760008584815181106200012a576200012a62000352565b60200260200101516001600160a01b03166001600160a01b0316815260200190815260200160002060006101000a81548160ff021916908315150217905550600683828151811062000180576200018062000352565b60209081029190910181015182546001810184556000938452919092200180546001600160a01b0319166001600160a01b039092169190911790555b80620001c88162000368565b915050620000cf565b5050600180546001600160a01b0319166001600160a01b03939093169290921790915550620003909350505050565b80516001600160a01b03811681146200021857600080fd5b919050565b634e487b7160e01b600052604160045260246000fd5b6000806000606084860312156200024957600080fd5b620002548462000200565b925060206200026581860162000200565b60408601519093506001600160401b03808211156200028357600080fd5b818701915087601f8301126200029857600080fd5b815181811115620002ad57620002ad6200021d565b8060051b604051601f19603f83011681018181108582111715620002d557620002d56200021d565b60405291825284820192508381018501918a831115620002f457600080fd5b938501935b828510156200031d576200030d8562000200565b84529385019392850192620002f9565b8096505050505050509250925092565b6000602082840312156200034057600080fd5b6200034b8262000200565b9392505050565b634e487b7160e01b600052603260045260246000fd5b6000600182016200038957634e487b7160e01b600052601160045260246000fd5b5060010190565b60805160a05160c051611738620003e36000396000818161018801528181610c140152610cf90152600081816101e2015281816109c90152610c8d0152600081816102c601526105f401526117386000f3fe608060405234801561001057600080fd5b50600436106101585760003560e01c806392777b29116100c3578063e8111a121161007c578063e8111a1214610378578063f25e55a514610381578063f301af42146103ac578063f3207723146103bf578063f5f8d365146103d2578063f7412baf146103e557600080fd5b806392777b29146102ea5780639cc7f708146103155780639e2bf22c14610335578063a28d4c9c1461034a578063b66503cf1461035d578063e68863961461037057600080fd5b806349dcc2041161011557806349dcc204146102045780634d5ce0381461024b578063505897931461027e578063572b6c051461029e57806376f4be36146102b15780637da0a877146102c457600080fd5b806318160ddd1461015d5780631be05289146101795780631f850716146101835780633e491d47146101b7578063456cb7c6146101ca57806346c96aac146101dd575b600080fd5b61016660025481565b6040519081526020015b60405180910390f35b61016662093a8081565b6101aa7f000000000000000000000000000000000000000000000000000000000000000081565b60405161017091906113ed565b6101666101c5366004611426565b61040c565b6001546101aa906001600160a01b031681565b6101aa7f000000000000000000000000000000000000000000000000000000000000000081565b610236610212366004611452565b60086020908152600092835260408084209091529082529020805460019091015482565b60408051928352602083019190915201610170565b61026e610259366004611474565b60076020526000908152604090205460ff1681565b6040519015158152602001610170565b61016661028c366004611491565b60096020526000908152604090205481565b61026e6102ac366004611474565b6105f2565b6101666102bf366004611491565b610624565b7f00000000000000000000000000000000000000000000000000000000000000006101aa565b6101666102f8366004611426565b600460209081526000928352604080842090915290825290205481565b610166610323366004611491565b60036020526000908152604090205481565b610348610343366004611452565b610758565b005b610166610358366004611452565b610838565b61034861036b366004611426565b61097d565b600654610166565b610166600b5481565b61016661038f366004611426565b600560209081526000928352604080842090915290825290205481565b6101aa6103ba366004611491565b610adc565b6103486103cd366004611452565b610b06565b6103486103e03660046114c0565b610bd9565b6102366103f3366004611491565b600a602052600090815260409020805460019091015482565b6000818152600960205260408120548103610429575060006105ec565b6001600160a01b038316600090815260056020908152604080832085845290915281205460019062093a8081069003826104638683610838565b60008781526008602090815260408083208484528252918290208251808401909352805480845260019091015491830191909152919250906104ae90849062093a8081069003610d85565b9250600062093a806104c5854283810690036115a7565b6104cf91906115ba565b905080156105e35760005b818110156105e1576104ff8960016104f562093a80896115dc565b61035891906115a7565b60008a815260086020908152604080832084845282528083208151808301909252805482526001908101549282019290925292965091945061057391600a919061055a9061055062093a808b6115dc565b6102bf91906115a7565b8152602001908152602001600020600101546001610d85565b6001600160a01b038b1660009081526004602090815260408083208984528252909120549085015191975087916105aa91906115ef565b6105b491906115ba565b6105be90886115dc565b96506105cd62093a80866115dc565b9450806105d981611606565b9150506104da565b505b50939450505050505b92915050565b7f00000000000000000000000000000000000000000000000000000000000000006001600160a01b0390811691161490565b600b5460009080820361063a5750600092915050565b82600a600061064a6001856115a7565b815260200190815260200160002060000154116106735761066c6001826115a7565b9392505050565b60008052600a6020527f13da86008ba1c6922daee3e07db95305ef49ebced9f5467a0b8613fcc6b343e3548310156106ae5750600092915050565b6000806106bc6001846115a7565b90505b8181111561075057600060026106d584846115a7565b6106df91906115ba565b6106e990836115a7565b6000818152600a602090815260409182902082518084019093528054808452600190910154918301919091529192509087900361072a575095945050505050565b805187111561073b57819350610749565b6107466001836115a7565b92505b50506106bf565b509392505050565b6000610762610d9b565b6001549091506001600160a01b038083169116146107935760405163ea8e4eb560e01b815260040160405180910390fd5b82600260008282546107a591906115a7565b9091555050600082815260036020526040812080548592906107c89084906115a7565b90915550506000828152600360205260409020546107e7908390610ded565b6107ef610ef7565b81816001600160a01b03167ff279e6a1f5e320cca91135676d9cb6e44ca8a08c0b88342bcdb1144f6511b5688560405161082b91815260200190565b60405180910390a3505050565b6000828152600960205260408120548082036108585760009150506105ec565b600084815260086020526040812084916108736001856115a7565b8152602001908152602001600020600001541161089d576108956001826115a7565b9150506105ec565b60008481526008602090815260408083208380529091529020548310156108c85760009150506105ec565b6000806108d66001846115a7565b90505b8181111561097457600060026108ef84846115a7565b6108f991906115ba565b61090390836115a7565b600088815260086020908152604080832084845282529182902082518084019093528054808452600190910154918301919091529192509087900361094e575093506105ec92505050565b805187111561095f5781935061096d565b61096a6001836115a7565b92505b50506108d9565b50949350505050565b610985610faf565b600061098f610d9b565b6001600160a01b03841660009081526007602052604090205490915060ff16610ac25760405163559bfa4360e11b81526001600160a01b037f0000000000000000000000000000000000000000000000000000000000000000169063ab37f486906109fe9086906004016113ed565b602060405180830381865afa158015610a1b573d6000803e3d6000fd5b505050506040513d601f19601f82011682018060405250810190610a3f919061161f565b610a5c57604051630b094f2760e31b815260040160405180910390fd5b6001600160a01b0383166000818152600760205260408120805460ff191660019081179091556006805491820181559091527ff652222313e28459528d920b65115c16c04f3efc82aaedc97be59f3f377c0d3f0180546001600160a01b03191690911790555b610acd818484610fd9565b50610ad86001600055565b5050565b60068181548110610aec57600080fd5b6000918252602090912001546001600160a01b0316905081565b6000610b10610d9b565b6001549091506001600160a01b03808316911614610b415760405163ea8e4eb560e01b815260040160405180910390fd5b8260026000828254610b5391906115dc565b909155505060008281526003602052604081208054859290610b769084906115dc565b9091555050600082815260036020526040902054610b95908390610ded565b610b9d610ef7565b81816001600160a01b03167f90890809c654f11d6e72a28fa60149770a0d11ec6c92319d6ceb2bb0a4ea1a158560405161082b91815260200190565b610be1610faf565b6000610beb610d9b565b60405163430c208160e01b81526001600160a01b038083166004830152602482018690529192507f00000000000000000000000000000000000000000000000000000000000000009091169063430c2081906044016020604051808303816000875af1158015610c5f573d6000803e3d6000fd5b505050506040513d601f19601f82011682018060405250810190610c83919061161f565b158015610cc257507f00000000000000000000000000000000000000000000000000000000000000006001600160a01b0316816001600160a01b031614155b15610ce05760405163ea8e4eb560e01b815260040160405180910390fd5b6040516331a9108f60e11b8152600481018490526000907f00000000000000000000000000000000000000000000000000000000000000006001600160a01b031690636352211e90602401602060405180830381865afa158015610d48573d6000803e3d6000fd5b505050506040513d601f19601f82011682018060405250810190610d6c9190611641565b9050610d798185856110b3565b5050610ad86001600055565b6000818311610d94578161066c565b5090919050565b6000366014610da9336105f2565b8015610db55750808210155b15610de557600036610dc783856115a7565b610dd292829061165e565b610ddb91611688565b60601c9250505090565b339250505090565b600082815260096020526040902054428115801590610e4b575062093a80810681036000858152600860205260408120610e4991610e2c6001876115a7565b81526020019081526020016000206000015462093a808106900390565b145b15610ea1576040805180820182528281526020808201869052600087815260089091529182209091610e7e6001866115a7565b815260208082019290925260400160002082518155910151600190910155610ef1565b6040805180820182528281526020808201868152600088815260088352848120878252909252929020905181559051600191820155610ee19083906115dc565b6000858152600960205260409020555b50505050565b600b54428115801590610f21575062093a8081068103610f1f600a6000610e2c6001876115a7565b145b15610f6c57604080518082019091528181526002546020820152600a6000610f4a6001866115a7565b8152602080820192909252604001600020825181559101516001909101555050565b60408051808201825282815260025460208083019182526000868152600a90915292909220905181559051600191820155610fa89083906115dc565b600b555050565b600260005403610fd257604051633ee5aeb560e01b815260040160405180910390fd5b6002600055565b80600003610ffa57604051631f2a200560e01b815260040160405180910390fd5b61100f6001600160a01b0383168430846111ec565b60006110204262093a808106900390565b6001600160a01b03841660009081526004602090815260408083208484529091528120805492935084929091906110589084906115dc565b9250508190555080836001600160a01b0316856001600160a01b03167f52977ea98a2220a03ee9ba5cb003ada08d394ea10155483c95dc2dc77a7eb24b856040516110a591815260200190565b60405180910390a450505050565b805160005b818110156111e55760006110e58483815181106110d7576110d76116bd565b60200260200101518661040c565b905042600560008685815181106110fe576110fe6116bd565b6020908102919091018101516001600160a01b031682528181019290925260409081016000908120898252909252902055801561116c5761116c868286858151811061114c5761114c6116bd565b60200260200101516001600160a01b03166112539092919063ffffffff16565b83828151811061117e5761117e6116bd565b60200260200101516001600160a01b0316866001600160a01b03167f9aa05b3d70a9e3e2f004f039648839560576334fb45c81f91b6db03ad9e2efc9836040516111ca91815260200190565b60405180910390a350806111dd81611606565b9150506110b8565b5050505050565b6040516001600160a01b038481166024830152838116604483015260648201839052610ef19186918216906323b872dd906084015b604051602081830303815290604052915060e01b6020820180516001600160e01b038381831617835250505050611289565b6040516001600160a01b0383811660248301526044820183905261128491859182169063a9059cbb90606401611221565b505050565b600061129e6001600160a01b038416836112ec565b905080516000141580156112c35750808060200190518101906112c1919061161f565b155b156112845782604051635274afe760e01b81526004016112e391906113ed565b60405180910390fd5b606061066c8383600084600080856001600160a01b0316848660405161131291906116d3565b60006040518083038185875af1925050503d806000811461134f576040519150601f19603f3d011682016040523d82523d6000602084013e611354565b606091505b509150915061136486838361136e565b9695505050505050565b6060826113835761137e826113c1565b61066c565b815115801561139a57506001600160a01b0384163b155b156113ba5783604051639996b31560e01b81526004016112e391906113ed565b508061066c565b8051156113d15780518082602001fd5b604051630a12f52160e11b815260040160405180910390fd5b50565b6001600160a01b0391909116815260200190565b6001600160a01b03811681146113ea57600080fd5b803561142181611401565b919050565b6000806040838503121561143957600080fd5b823561144481611401565b946020939093013593505050565b6000806040838503121561146557600080fd5b50508035926020909101359150565b60006020828403121561148657600080fd5b813561066c81611401565b6000602082840312156114a357600080fd5b5035919050565b634e487b7160e01b600052604160045260246000fd5b600080604083850312156114d357600080fd5b8235915060208084013567ffffffffffffffff808211156114f357600080fd5b818601915086601f83011261150757600080fd5b813581811115611519576115196114aa565b8060051b604051601f19603f8301168101818110858211171561153e5761153e6114aa565b60405291825284820192508381018501918983111561155c57600080fd5b938501935b828510156115815761157285611416565b84529385019392850192611561565b8096505050505050509250929050565b634e487b7160e01b600052601160045260246000fd5b818103818111156105ec576105ec611591565b6000826115d757634e487b7160e01b600052601260045260246000fd5b500490565b808201808211156105ec576105ec611591565b80820281158282048414176105ec576105ec611591565b60006001820161161857611618611591565b5060010190565b60006020828403121561163157600080fd5b8151801515811461066c57600080fd5b60006020828403121561165357600080fd5b815161066c81611401565b6000808585111561166e57600080fd5b8386111561167b57600080fd5b5050820193919092039150565b6bffffffffffffffffffffffff1981358181169160148510156116b55780818660140360031b1b83161692505b505092915050565b634e487b7160e01b600052603260045260246000fd5b6000825160005b818110156116f457602081860181015185830152016116da565b50600092019182525091905056fea2646970667358221220f951e4df5075af5732ee9c14db0df00950d39435d35fa179bf87dd570f9f6d0e64736f6c63430008140033a2646970667358221220f896ea2ae8c9e7572af142bb0968a706c969d68ec05ce17c37e994a25554b57464736f6c63430008140033",
  "linkReferences": {},
  "deployedLinkReferences": {}
}